{
  "_format": "hh-sol-artifact-1",
  "contractName": "SocialTokenFactory",
  "sourceName": "contracts/Social/SocialTokenFactory.sol",
  "abi": [
    {
      "inputs": [
        {
          "internalType": "address",
          "name": "_treasury",
          "type": "address"
        },
        {
          "internalType": "uint256",
          "name": "_initialVirtualEth",
          "type": "uint256"
        }
      ],
      "stateMutability": "nonpayable",
      "type": "constructor"
    },
    {
      "anonymous": false,
      "inputs": [
        {
          "indexed": true,
          "internalType": "address",
          "name": "token",
          "type": "address"
        },
        {
          "indexed": true,
          "internalType": "address",
          "name": "from",
          "type": "address"
        },
        {
          "indexed": false,
          "internalType": "uint256",
          "name": "recipients",
          "type": "uint256"
        },
        {
          "indexed": false,
          "internalType": "uint256",
          "name": "amountEach",
          "type": "uint256"
        }
      ],
      "name": "Airdropped",
      "type": "event"
    },
    {
      "anonymous": false,
      "inputs": [
        {
          "indexed": true,
          "internalType": "address",
          "name": "token",
          "type": "address"
        },
        {
          "indexed": true,
          "internalType": "address",
          "name": "buyer",
          "type": "address"
        },
        {
          "indexed": false,
          "internalType": "uint256",
          "name": "ethIn",
          "type": "uint256"
        },
        {
          "indexed": false,
          "internalType": "uint256",
          "name": "tokensOut",
          "type": "uint256"
        },
        {
          "indexed": false,
          "internalType": "uint256",
          "name": "fee",
          "type": "uint256"
        },
        {
          "indexed": false,
          "internalType": "uint256",
          "name": "creatorFee",
          "type": "uint256"
        }
      ],
      "name": "Bought",
      "type": "event"
    },
    {
      "anonymous": false,
      "inputs": [
        {
          "indexed": true,
          "internalType": "address",
          "name": "token",
          "type": "address"
        }
      ],
      "name": "CurveComplete",
      "type": "event"
    },
    {
      "anonymous": false,
      "inputs": [
        {
          "indexed": true,
          "internalType": "address",
          "name": "token",
          "type": "address"
        },
        {
          "indexed": true,
          "internalType": "address",
          "name": "seller",
          "type": "address"
        },
        {
          "indexed": false,
          "internalType": "uint256",
          "name": "tokensIn",
          "type": "uint256"
        },
        {
          "indexed": false,
          "internalType": "uint256",
          "name": "ethOut",
          "type": "uint256"
        },
        {
          "indexed": false,
          "internalType": "uint256",
          "name": "fee",
          "type": "uint256"
        },
        {
          "indexed": false,
          "internalType": "uint256",
          "name": "creatorFee",
          "type": "uint256"
        }
      ],
      "name": "Sold",
      "type": "event"
    },
    {
      "anonymous": false,
      "inputs": [
        {
          "indexed": true,
          "internalType": "address",
          "name": "token",
          "type": "address"
        },
        {
          "indexed": true,
          "internalType": "address",
          "name": "creator",
          "type": "address"
        },
        {
          "indexed": false,
          "internalType": "string",
          "name": "name",
          "type": "string"
        },
        {
          "indexed": false,
          "internalType": "string",
          "name": "symbol",
          "type": "string"
        },
        {
          "indexed": false,
          "internalType": "bool",
          "name": "airdropEnabled",
          "type": "bool"
        }
      ],
      "name": "TokenLaunched",
      "type": "event"
    },
    {
      "inputs": [],
      "name": "AIRDROP_CUT",
      "outputs": [
        {
          "internalType": "uint256",
          "name": "",
          "type": "uint256"
        }
      ],
      "stateMutability": "view",
      "type": "function"
    },
    {
      "inputs": [],
      "name": "CREATOR_FEE_BPS",
      "outputs": [
        {
          "internalType": "uint16",
          "name": "",
          "type": "uint16"
        }
      ],
      "stateMutability": "view",
      "type": "function"
    },
    {
      "inputs": [],
      "name": "FEE_BPS",
      "outputs": [
        {
          "internalType": "uint16",
          "name": "",
          "type": "uint16"
        }
      ],
      "stateMutability": "view",
      "type": "function"
    },
    {
      "inputs": [],
      "name": "INITIAL_REAL_TOKEN_RESERVES",
      "outputs": [
        {
          "internalType": "uint256",
          "name": "",
          "type": "uint256"
        }
      ],
      "stateMutability": "view",
      "type": "function"
    },
    {
      "inputs": [],
      "name": "INITIAL_VIRTUAL_TOKEN_RESERVES",
      "outputs": [
        {
          "internalType": "uint256",
          "name": "",
          "type": "uint256"
        }
      ],
      "stateMutability": "view",
      "type": "function"
    },
    {
      "inputs": [],
      "name": "TOKEN_TOTAL_SUPPLY",
      "outputs": [
        {
          "internalType": "uint256",
          "name": "",
          "type": "uint256"
        }
      ],
      "stateMutability": "view",
      "type": "function"
    },
    {
      "inputs": [
        {
          "internalType": "address",
          "name": "token",
          "type": "address"
        },
        {
          "internalType": "address[]",
          "name": "recipients",
          "type": "address[]"
        },
        {
          "internalType": "uint256",
          "name": "amountEach",
          "type": "uint256"
        }
      ],
      "name": "airdrop",
      "outputs": [],
      "stateMutability": "nonpayable",
      "type": "function"
    },
    {
      "inputs": [
        {
          "internalType": "uint256",
          "name": "",
          "type": "uint256"
        }
      ],
      "name": "allTokens",
      "outputs": [
        {
          "internalType": "address",
          "name": "",
          "type": "address"
        }
      ],
      "stateMutability": "view",
      "type": "function"
    },
    {
      "inputs": [],
      "name": "allTokensLength",
      "outputs": [
        {
          "internalType": "uint256",
          "name": "",
          "type": "uint256"
        }
      ],
      "stateMutability": "view",
      "type": "function"
    },
    {
      "inputs": [
        {
          "internalType": "address",
          "name": "token",
          "type": "address"
        },
        {
          "internalType": "uint256",
          "name": "minTokensOut",
          "type": "uint256"
        }
      ],
      "name": "buy",
      "outputs": [],
      "stateMutability": "payable",
      "type": "function"
    },
    {
      "inputs": [
        {
          "internalType": "address",
          "name": "",
          "type": "address"
        }
      ],
      "name": "curves",
      "outputs": [
        {
          "internalType": "uint256",
          "name": "virtualTokenReserves",
          "type": "uint256"
        },
        {
          "internalType": "uint256",
          "name": "virtualEthReserves",
          "type": "uint256"
        },
        {
          "internalType": "uint256",
          "name": "realTokenReserves",
          "type": "uint256"
        },
        {
          "internalType": "uint256",
          "name": "realEthReserves",
          "type": "uint256"
        },
        {
          "internalType": "address",
          "name": "creator",
          "type": "address"
        },
        {
          "internalType": "bool",
          "name": "complete",
          "type": "bool"
        },
        {
          "internalType": "bool",
          "name": "airdropEnabled",
          "type": "bool"
        }
      ],
      "stateMutability": "view",
      "type": "function"
    },
    {
      "inputs": [],
      "name": "initialVirtualEth",
      "outputs": [
        {
          "internalType": "uint256",
          "name": "",
          "type": "uint256"
        }
      ],
      "stateMutability": "view",
      "type": "function"
    },
    {
      "inputs": [
        {
          "internalType": "string",
          "name": "name_",
          "type": "string"
        },
        {
          "internalType": "string",
          "name": "symbol_",
          "type": "string"
        },
        {
          "internalType": "bool",
          "name": "enableAirdrop",
          "type": "bool"
        }
      ],
      "name": "launch",
      "outputs": [
        {
          "internalType": "address",
          "name": "token",
          "type": "address"
        }
      ],
      "stateMutability": "payable",
      "type": "function"
    },
    {
      "inputs": [
        {
          "internalType": "address",
          "name": "token",
          "type": "address"
        },
        {
          "internalType": "uint256",
          "name": "ethInAfterFee",
          "type": "uint256"
        }
      ],
      "name": "quoteBuy",
      "outputs": [
        {
          "internalType": "uint256",
          "name": "",
          "type": "uint256"
        }
      ],
      "stateMutability": "view",
      "type": "function"
    },
    {
      "inputs": [
        {
          "internalType": "address",
          "name": "token",
          "type": "address"
        },
        {
          "internalType": "uint256",
          "name": "amount",
          "type": "uint256"
        },
        {
          "internalType": "uint256",
          "name": "minEthOut",
          "type": "uint256"
        }
      ],
      "name": "sell",
      "outputs": [],
      "stateMutability": "nonpayable",
      "type": "function"
    },
    {
      "inputs": [
        {
          "internalType": "address",
          "name": "token",
          "type": "address"
        }
      ],
      "name": "spotPriceWei",
      "outputs": [
        {
          "internalType": "uint256",
          "name": "",
          "type": "uint256"
        }
      ],
      "stateMutability": "view",
      "type": "function"
    },
    {
      "inputs": [
        {
          "internalType": "address",
          "name": "",
          "type": "address"
        }
      ],
      "name": "tokenOf",
      "outputs": [
        {
          "internalType": "address",
          "name": "",
          "type": "address"
        }
      ],
      "stateMutability": "view",
      "type": "function"
    },
    {
      "inputs": [],
      "name": "treasury",
      "outputs": [
        {
          "internalType": "address",
          "name": "",
          "type": "address"
        }
      ],
      "stateMutability": "view",
      "type": "function"
    }
  ],
  "bytecode": "0x60c060405234801561001057600080fd5b5060405161247a38038061247a83398101604081905261002f9161009f565b60016000556001600160a01b0382161580159061004c5750600081115b6100895760405162461bcd60e51b815260206004820152600a60248201526962616420706172616d7360b01b604482015260640160405180910390fd5b6001600160a01b0390911660805260a0526100d9565b600080604083850312156100b257600080fd5b82516001600160a01b03811681146100c957600080fd5b6020939093015192949293505050565b60805160a051612367610113600039600081816102cd0152610988015260008181610272015281816107b2015261108701526123676000f3fe6080604052600436106200011f5760003560e01c8063ad87601711620000a1578063cce7ec13116200006c578063cce7ec1314620003d8578063dbb80e4214620003ef578063dbe958d81462000406578063e08732341462000427578063f26ab530146200044957600080fd5b8063ad8760171462000352578063ad902a931462000374578063bf333f2c1462000396578063cc3cbd2a14620003c157600080fd5b8063634282af11620000ee578063634282af146200029457806365e2093414620002b95780636a27246214620002ef57806385cab5371462000316578063a1ac727f146200032d57600080fd5b80630d7a94f614620001245780632cc3dc6e146200015c57806342ec38e2146200020b57806361d027b3146200025e575b600080fd5b3480156200013157600080fd5b50620001496200014336600462001267565b6200046e565b6040519081526020015b60405180910390f35b3480156200016957600080fd5b50620001c86200017b36600462001294565b600160208190526000918252604090912080549181015460028201546003830154600490930154919290916001600160a01b0381169060ff600160a01b8204811691600160a81b90041687565b6040805197885260208801969096529486019390935260608501919091526001600160a01b03166080840152151560a0830152151560c082015260e00162000153565b3480156200021857600080fd5b50620002456200022a36600462001294565b6002602052600090815260409020546001600160a01b031681565b6040516001600160a01b03909116815260200162000153565b3480156200026b57600080fd5b50620002457f000000000000000000000000000000000000000000000000000000000000000081565b348015620002a157600080fd5b5062000245620002b3366004620012b2565b620004d9565b348015620002c657600080fd5b50620001497f000000000000000000000000000000000000000000000000000000000000000081565b348015620002fc57600080fd5b50620003146200030e366004620012cc565b62000504565b005b620002456200032736600462001360565b6200087b565b3480156200033a57600080fd5b50620003146200034c366004620013ed565b62000b51565b3480156200035f57600080fd5b50620001496b033b2e3c9fd0803ce800000081565b3480156200038157600080fd5b50620001496b029009752660ad62af80000081565b348015620003a357600080fd5b50620003ad606481565b60405161ffff909116815260200162000153565b348015620003ce57600080fd5b50620003ad600581565b62000314620003e936600462001267565b62000d33565b348015620003fc57600080fd5b5060035462000149565b3480156200041357600080fd5b50620001496a108b2a2c2802909400000081565b3480156200043457600080fd5b50620001496b037790968dc8efffd100000081565b3480156200045657600080fd5b50620001496200046836600462001294565b62000d74565b6001600160a01b038216600090815260016020819052604082209081015482906200049b90859062001496565b8254620004a99086620014b1565b620004b59190620014d3565b905081600201548111620004ca5780620004d0565b81600201545b95945050505050565b60038181548110620004ea57600080fd5b6000918252602090912001546001600160a01b0316905081565b600260005403620005325760405162461bcd60e51b81526004016200052990620014f6565b60405180910390fd5b600260009081556001600160a01b038085168252600160205260409091206004810154909116620005965760405162461bcd60e51b815260206004820152600d60248201526c3ab735b737bbb7103a37b5b2b760991b604482015260640162000529565b60008311620005d45760405162461bcd60e51b81526020600482015260096024820152686e6f20746f6b656e7360b81b604482015260640162000529565b8054600090620005e690859062001496565b6001830154620005f79086620014b1565b620006039190620014d3565b9050816003015481111562000619575060038101545b60006127106200062b606484620014b1565b620006379190620014d3565b905060006127106200064b600585620014b1565b620006579190620014d3565b9050846200066683856200152d565b1015620006a15760405162461bcd60e51b8152602060048201526008602482015267736c69707061676560c01b604482015260640162000529565b85846000016000828254620006b7919062001496565b9250508190555082846001016000828254620006d491906200152d565b9250508190555082846003016000828254620006f191906200152d565b90915550506040516323b872dd60e01b8152336004820152306024820152604481018790526001600160a01b038816906323b872dd906064016020604051808303816000875af11580156200074a573d6000803e3d6000fd5b505050506040513d601f19601f8201168201806040525081019062000770919062001547565b620007ac5760405162461bcd60e51b815260206004820152600b60248201526a1c1d5b1b0819985a5b195960aa1b604482015260640162000529565b620007e37f0000000000000000000000000000000000000000000000000000000000000000620007dd83856200152d565b62000dcc565b6004840154620007fd906001600160a01b03168262000dcc565b6200080e33620007dd84866200152d565b336001600160a01b0388167f89bc96e242cf3b1e6040a8f5123c29dbf1e48d876ded5856f1668191a8a7658e886200084786886200152d565b60408051928352602083019190915281018690526060810185905260800160405180910390a3505060016000555050505050565b6000600260005403620008a25760405162461bcd60e51b81526004016200052990620014f6565b60026000558415801590620008b657508215155b620008fb5760405162461bcd60e51b81526020600482015260146024820152731b985b594bdcde5b589bdb081c995c5d5a5c995960621b604482015260640162000529565b6000826200090b57600062000918565b6a108b2a2c280290940000005b9050868686863033866b033b2e3c9fd0803ce80000006040516200093c906200123c565b6200094f98979695949392919062001590565b604051809103906000f0801580156200096c573d6000803e3d6000fd5b506040805160e0810182526b037790968dc8efffd100000081527f000000000000000000000000000000000000000000000000000000000000000060208083019182526b029009752660ad62af800000838501908152600060608501818152336080870181815260a088018481528d151560c08a019081526001600160a01b03808d1687526001808a528c88209b518c559951998b019990995595516002808b0191909155935160038a0155905160049098018054915195511515600160a81b0260ff60a81b19961515600160a01b026001600160a81b0319909316998916999099179190911794909416969096179092559384529052919020549193501662000a995733600090815260026020526040902080546001600160a01b0319166001600160a01b0384161790555b600380546001810182556000919091527fc2575a0e9e593c00f959f8c92f12db2869c3395a3b0502d05e2516446f71f85b0180546001600160a01b0319166001600160a01b0384169081179091556040513391907f03de023d768bf93890259720a6a37c35c9e9c24ad766108bb3779756c5c4abad9062000b24908b908b908b908b908b90620015ec565b60405180910390a3341562000b425762000b42823334600062000e7b565b50600160005595945050505050565b60026000540362000b765760405162461bcd60e51b81526004016200052990620014f6565b6002600055811580159062000b8c575060c88211155b62000bcd5760405162461bcd60e51b815260206004820152601060248201526f312d32303020726563697069656e747360801b604482015260640162000529565b60005b8281101562000ce157846001600160a01b03166323b872dd3386868581811062000bfe5762000bfe6200162c565b905060200201602081019062000c15919062001294565b6040516001600160e01b031960e085901b1681526001600160a01b03928316600482015291166024820152604481018590526064016020604051808303816000875af115801562000c6a573d6000803e3d6000fd5b505050506040513d601f19601f8201168201806040525081019062000c90919062001547565b62000ccc5760405162461bcd60e51b815260206004820152600b60248201526a1c1d5b1b0819985a5b195960aa1b604482015260640162000529565b8062000cd88162001642565b91505062000bd0565b50604080518381526020810183905233916001600160a01b038716917fe94bf5364ee1292cabede8ab439bbac3cc4a725cb08fa81ec1d00a3c87e606e6910160405180910390a3505060016000555050565b60026000540362000d585760405162461bcd60e51b81526004016200052990620014f6565b600260005562000d6b8233348462000e7b565b50506001600055565b6001600160a01b03811660009081526001602052604081208054820362000d9e5750600092915050565b8054600182015462000db990670de0b6b3a7640000620014b1565b62000dc59190620014d3565b9392505050565b8060000362000dd9575050565b6000826001600160a01b03168260405160006040518083038185875af1925050503d806000811462000e28576040519150601f19603f3d011682016040523d82523d6000602084013e62000e2d565b606091505b505090508062000e765760405162461bcd60e51b8152602060048201526013602482015272195d1a081d1c985b9cd9995c8819985a5b1959606a1b604482015260640162000529565b505050565b6001600160a01b038085166000908152600160205260409020600481015490911662000eda5760405162461bcd60e51b815260206004820152600d60248201526c3ab735b737bbb7103a37b5b2b760991b604482015260640162000529565b6004810154600160a01b900460ff161562000f385760405162461bcd60e51b815260206004820152601960248201527f637572766520636f6d706c657465202d20736f6c64206f757400000000000000604482015260640162000529565b6000831162000f735760405162461bcd60e51b81526020600482015260066024820152650dcde40cae8d60d31b604482015260640162000529565b600061271062000f85606486620014b1565b62000f919190620014d3565b9050600061271062000fa5600587620014b1565b62000fb19190620014d3565b9050600062000fc183876200152d565b9050600062000fd189836200046e565b905085811015620010105760405162461bcd60e51b8152602060048201526008602482015267736c69707061676560c01b604482015260640162000529565b8185600101600082825462001026919062001496565b9091555050845481908690600090620010419084906200152d565b92505081905550808560020160008282546200105e91906200152d565b92505081905550818560030160008282546200107b919062001496565b90915550620010b290507f0000000000000000000000000000000000000000000000000000000000000000620007dd85876200152d565b6004850154620010cc906001600160a01b03168462000dcc565b60405163a9059cbb60e01b81526001600160a01b038981166004830152602482018390528a169063a9059cbb906044016020604051808303816000875af11580156200111c573d6000803e3d6000fd5b505050506040513d601f19601f8201168201806040525081019062001142919062001547565b620011825760405162461bcd60e51b815260206004820152600f60248201526e1d1c985b9cd9995c8819985a5b1959608a1b604482015260640162000529565b6040805183815260208101839052908101859052606081018490526001600160a01b03808a1691908b16907f2683a506cc521e11c368ce9c068585a91786a3cb7ab4089b602eb2835acb16399060800160405180910390a38460020154600003620012315760048501805460ff60a01b1916600160a01b1790556040516001600160a01b038a16907f393426fce0169456604ad231c1ea7bf1b5009b351b86ad769dca593b74cd3ae390600090a25b505050505050505050565b610cd3806200165f83390190565b80356001600160a01b03811681146200126257600080fd5b919050565b600080604083850312156200127b57600080fd5b62001286836200124a565b946020939093013593505050565b600060208284031215620012a757600080fd5b62000dc5826200124a565b600060208284031215620012c557600080fd5b5035919050565b600080600060608486031215620012e257600080fd5b620012ed846200124a565b95602085013595506040909401359392505050565b60008083601f8401126200131557600080fd5b50813567ffffffffffffffff8111156200132e57600080fd5b6020830191508360208285010111156200134757600080fd5b9250929050565b80151581146200135d57600080fd5b50565b6000806000806000606086880312156200137957600080fd5b853567ffffffffffffffff808211156200139257600080fd5b620013a089838a0162001302565b90975095506020880135915080821115620013ba57600080fd5b50620013c98882890162001302565b9094509250506040860135620013df816200134e565b809150509295509295909350565b600080600080606085870312156200140457600080fd5b6200140f856200124a565b9350602085013567ffffffffffffffff808211156200142d57600080fd5b818701915087601f8301126200144257600080fd5b8135818111156200145257600080fd5b8860208260051b85010111156200146857600080fd5b95986020929092019750949560400135945092505050565b634e487b7160e01b600052601160045260246000fd5b60008219821115620014ac57620014ac62001480565b500190565b6000816000190483118215151615620014ce57620014ce62001480565b500290565b600082620014f157634e487b7160e01b600052601260045260246000fd5b500490565b6020808252601f908201527f5265656e7472616e637947756172643a207265656e7472616e742063616c6c00604082015260600190565b60008282101562001542576200154262001480565b500390565b6000602082840312156200155a57600080fd5b815162000dc5816200134e565b81835281816020850137506000828201602090810191909152601f909101601f19169091010190565b60c081526000620015a660c083018a8c62001567565b8281036020840152620015bb81898b62001567565b6001600160a01b03978816604085015295909616606083015250608081019290925260a09091015295945050505050565b6060815260006200160260608301878962001567565b82810360208401526200161781868862001567565b91505082151560408301529695505050505050565b634e487b7160e01b600052603260045260246000fd5b60006001820162001657576200165762001480565b506001019056fe60806040523480156200001157600080fd5b5060405162000cd338038062000cd3833981016040819052620000349162000315565b8551869086906200004d90600390602085019062000185565b5080516200006390600490602084019062000185565b5050821590506200007a576200007a83836200009d565b62000091846200008b8484620003cc565b6200009d565b5050505050506200043d565b6001600160a01b038216620000f85760405162461bcd60e51b815260206004820152601f60248201527f45524332303a206d696e7420746f20746865207a65726f206164647265737300604482015260640160405180910390fd5b80600260008282546200010c9190620003e6565b90915550506001600160a01b038216600090815260208190526040812080548392906200013b908490620003e6565b90915550506040518181526001600160a01b038316906000907fddf252ad1be2c89b69c2b068fc378daa952ba7f163c4a11628f55a4df523b3ef9060200160405180910390a35050565b828054620001939062000401565b90600052602060002090601f016020900481019282620001b7576000855562000202565b82601f10620001d257805160ff191683800117855562000202565b8280016001018555821562000202579182015b8281111562000202578251825591602001919060010190620001e5565b506200021092915062000214565b5090565b5b8082111562000210576000815560010162000215565b634e487b7160e01b600052604160045260246000fd5b600082601f8301126200025357600080fd5b81516001600160401b03808211156200027057620002706200022b565b604051601f8301601f19908116603f011681019082821181831017156200029b576200029b6200022b565b81604052838152602092508683858801011115620002b857600080fd5b600091505b83821015620002dc5785820183015181830184015290820190620002bd565b83821115620002ee5760008385830101525b9695505050505050565b80516001600160a01b03811681146200031057600080fd5b919050565b60008060008060008060c087890312156200032f57600080fd5b86516001600160401b03808211156200034757600080fd5b620003558a838b0162000241565b975060208901519150808211156200036c57600080fd5b506200037b89828a0162000241565b9550506200038c60408801620002f8565b93506200039c60608801620002f8565b92506080870151915060a087015190509295509295509295565b634e487b7160e01b600052601160045260246000fd5b600082821015620003e157620003e1620003b6565b500390565b60008219821115620003fc57620003fc620003b6565b500190565b600181811c908216806200041657607f821691505b6020821081036200043757634e487b7160e01b600052602260045260246000fd5b50919050565b610886806200044d6000396000f3fe608060405234801561001057600080fd5b50600436106100a95760003560e01c80633950935111610071578063395093511461012357806370a082311461013657806395d89b411461015f578063a457c2d714610167578063a9059cbb1461017a578063dd62ed3e1461018d57600080fd5b806306fdde03146100ae578063095ea7b3146100cc57806318160ddd146100ef57806323b872dd14610101578063313ce56714610114575b600080fd5b6100b66101a0565b6040516100c391906106c4565b60405180910390f35b6100df6100da366004610735565b610232565b60405190151581526020016100c3565b6002545b6040519081526020016100c3565b6100df61010f36600461075f565b61024a565b604051601281526020016100c3565b6100df610131366004610735565b61026e565b6100f361014436600461079b565b6001600160a01b031660009081526020819052604090205490565b6100b6610290565b6100df610175366004610735565b61029f565b6100df610188366004610735565b61031f565b6100f361019b3660046107bd565b61032d565b6060600380546101af906107f0565b80601f01602080910402602001604051908101604052809291908181526020018280546101db906107f0565b80156102285780601f106101fd57610100808354040283529160200191610228565b820191906000526020600020905b81548152906001019060200180831161020b57829003601f168201915b5050505050905090565b600033610240818585610358565b5060019392505050565b60003361025885828561047c565b6102638585856104f6565b506001949350505050565b600033610240818585610281838361032d565b61028b919061082a565b610358565b6060600480546101af906107f0565b600033816102ad828661032d565b9050838110156103125760405162461bcd60e51b815260206004820152602560248201527f45524332303a2064656372656173656420616c6c6f77616e63652062656c6f77604482015264207a65726f60d81b60648201526084015b60405180910390fd5b6102638286868403610358565b6000336102408185856104f6565b6001600160a01b03918216600090815260016020908152604080832093909416825291909152205490565b6001600160a01b0383166103ba5760405162461bcd60e51b8152602060048201526024808201527f45524332303a20617070726f76652066726f6d20746865207a65726f206164646044820152637265737360e01b6064820152608401610309565b6001600160a01b03821661041b5760405162461bcd60e51b815260206004820152602260248201527f45524332303a20617070726f766520746f20746865207a65726f206164647265604482015261737360f01b6064820152608401610309565b6001600160a01b0383811660008181526001602090815260408083209487168084529482529182902085905590518481527f8c5be1e5ebec7d5bd14f71427d1e84f3dd0314c0f7b2291e5b200ac8c7c3b925910160405180910390a3505050565b6000610488848461032d565b905060001981146104f057818110156104e35760405162461bcd60e51b815260206004820152601d60248201527f45524332303a20696e73756666696369656e7420616c6c6f77616e63650000006044820152606401610309565b6104f08484848403610358565b50505050565b6001600160a01b03831661055a5760405162461bcd60e51b815260206004820152602560248201527f45524332303a207472616e736665722066726f6d20746865207a65726f206164604482015264647265737360d81b6064820152608401610309565b6001600160a01b0382166105bc5760405162461bcd60e51b815260206004820152602360248201527f45524332303a207472616e7366657220746f20746865207a65726f206164647260448201526265737360e81b6064820152608401610309565b6001600160a01b038316600090815260208190526040902054818110156106345760405162461bcd60e51b815260206004820152602660248201527f45524332303a207472616e7366657220616d6f756e7420657863656564732062604482015265616c616e636560d01b6064820152608401610309565b6001600160a01b0380851660009081526020819052604080822085850390559185168152908120805484929061066b90849061082a565b92505081905550826001600160a01b0316846001600160a01b03167fddf252ad1be2c89b69c2b068fc378daa952ba7f163c4a11628f55a4df523b3ef846040516106b791815260200190565b60405180910390a36104f0565b600060208083528351808285015260005b818110156106f1578581018301518582016040015282016106d5565b81811115610703576000604083870101525b50601f01601f1916929092016040019392505050565b80356001600160a01b038116811461073057600080fd5b919050565b6000806040838503121561074857600080fd5b61075183610719565b946020939093013593505050565b60008060006060848603121561077457600080fd5b61077d84610719565b925061078b60208501610719565b9150604084013590509250925092565b6000602082840312156107ad57600080fd5b6107b682610719565b9392505050565b600080604083850312156107d057600080fd5b6107d983610719565b91506107e760208401610719565b90509250929050565b600181811c9082168061080457607f821691505b60208210810361082457634e487b7160e01b600052602260045260246000fd5b50919050565b6000821982111561084b57634e487b7160e01b600052601160045260246000fd5b50019056fea2646970667358221220a57a97e248bdd06b13e9ce9a6f38d2028ad07d3af2406fe2dda09bc61bcf30aa64736f6c634300080e0033a2646970667358221220e76a0993a9ef65861b9fda272a231c1bace3ce8049a75e6f43125c4e6931401964736f6c634300080e0033",
  "linkReferences": {},
  "deployedLinkReferences": {}
}