{
  "_format": "hh-sol-artifact-1",
  "contractName": "SocialTokenFactory",
  "sourceName": "contracts/Social/SocialTokenFactory.sol",
  "abi": [
    {
      "inputs": [
        {
          "internalType": "address",
          "name": "_treasury",
          "type": "address"
        },
        {
          "internalType": "uint256",
          "name": "_initialVirtualEth",
          "type": "uint256"
        }
      ],
      "stateMutability": "nonpayable",
      "type": "constructor"
    },
    {
      "anonymous": false,
      "inputs": [
        {
          "indexed": true,
          "internalType": "address",
          "name": "token",
          "type": "address"
        },
        {
          "indexed": true,
          "internalType": "address",
          "name": "from",
          "type": "address"
        },
        {
          "indexed": false,
          "internalType": "uint256",
          "name": "recipients",
          "type": "uint256"
        },
        {
          "indexed": false,
          "internalType": "uint256",
          "name": "amountEach",
          "type": "uint256"
        }
      ],
      "name": "Airdropped",
      "type": "event"
    },
    {
      "anonymous": false,
      "inputs": [
        {
          "indexed": true,
          "internalType": "address",
          "name": "token",
          "type": "address"
        },
        {
          "indexed": true,
          "internalType": "address",
          "name": "buyer",
          "type": "address"
        },
        {
          "indexed": false,
          "internalType": "uint256",
          "name": "ethIn",
          "type": "uint256"
        },
        {
          "indexed": false,
          "internalType": "uint256",
          "name": "tokensOut",
          "type": "uint256"
        },
        {
          "indexed": false,
          "internalType": "uint256",
          "name": "fee",
          "type": "uint256"
        },
        {
          "indexed": false,
          "internalType": "uint256",
          "name": "creatorFee",
          "type": "uint256"
        }
      ],
      "name": "Bought",
      "type": "event"
    },
    {
      "anonymous": false,
      "inputs": [
        {
          "indexed": true,
          "internalType": "address",
          "name": "token",
          "type": "address"
        }
      ],
      "name": "CurveComplete",
      "type": "event"
    },
    {
      "anonymous": false,
      "inputs": [
        {
          "indexed": true,
          "internalType": "address",
          "name": "token",
          "type": "address"
        },
        {
          "indexed": true,
          "internalType": "address",
          "name": "seller",
          "type": "address"
        },
        {
          "indexed": false,
          "internalType": "uint256",
          "name": "tokensIn",
          "type": "uint256"
        },
        {
          "indexed": false,
          "internalType": "uint256",
          "name": "ethOut",
          "type": "uint256"
        },
        {
          "indexed": false,
          "internalType": "uint256",
          "name": "fee",
          "type": "uint256"
        },
        {
          "indexed": false,
          "internalType": "uint256",
          "name": "creatorFee",
          "type": "uint256"
        }
      ],
      "name": "Sold",
      "type": "event"
    },
    {
      "anonymous": false,
      "inputs": [
        {
          "indexed": true,
          "internalType": "address",
          "name": "token",
          "type": "address"
        },
        {
          "indexed": true,
          "internalType": "address",
          "name": "creator",
          "type": "address"
        },
        {
          "indexed": false,
          "internalType": "string",
          "name": "name",
          "type": "string"
        },
        {
          "indexed": false,
          "internalType": "string",
          "name": "symbol",
          "type": "string"
        },
        {
          "indexed": false,
          "internalType": "bool",
          "name": "airdropEnabled",
          "type": "bool"
        }
      ],
      "name": "TokenLaunched",
      "type": "event"
    },
    {
      "inputs": [],
      "name": "AIRDROP_CUT",
      "outputs": [
        {
          "internalType": "uint256",
          "name": "",
          "type": "uint256"
        }
      ],
      "stateMutability": "view",
      "type": "function"
    },
    {
      "inputs": [],
      "name": "CREATOR_FEE_BPS",
      "outputs": [
        {
          "internalType": "uint16",
          "name": "",
          "type": "uint16"
        }
      ],
      "stateMutability": "view",
      "type": "function"
    },
    {
      "inputs": [],
      "name": "FEE_BPS",
      "outputs": [
        {
          "internalType": "uint16",
          "name": "",
          "type": "uint16"
        }
      ],
      "stateMutability": "view",
      "type": "function"
    },
    {
      "inputs": [],
      "name": "INITIAL_REAL_TOKEN_RESERVES",
      "outputs": [
        {
          "internalType": "uint256",
          "name": "",
          "type": "uint256"
        }
      ],
      "stateMutability": "view",
      "type": "function"
    },
    {
      "inputs": [],
      "name": "INITIAL_VIRTUAL_TOKEN_RESERVES",
      "outputs": [
        {
          "internalType": "uint256",
          "name": "",
          "type": "uint256"
        }
      ],
      "stateMutability": "view",
      "type": "function"
    },
    {
      "inputs": [],
      "name": "TOKEN_TOTAL_SUPPLY",
      "outputs": [
        {
          "internalType": "uint256",
          "name": "",
          "type": "uint256"
        }
      ],
      "stateMutability": "view",
      "type": "function"
    },
    {
      "inputs": [
        {
          "internalType": "address",
          "name": "token",
          "type": "address"
        },
        {
          "internalType": "address[]",
          "name": "recipients",
          "type": "address[]"
        },
        {
          "internalType": "uint256",
          "name": "amountEach",
          "type": "uint256"
        }
      ],
      "name": "airdrop",
      "outputs": [],
      "stateMutability": "nonpayable",
      "type": "function"
    },
    {
      "inputs": [
        {
          "internalType": "uint256",
          "name": "",
          "type": "uint256"
        }
      ],
      "name": "allTokens",
      "outputs": [
        {
          "internalType": "address",
          "name": "",
          "type": "address"
        }
      ],
      "stateMutability": "view",
      "type": "function"
    },
    {
      "inputs": [],
      "name": "allTokensLength",
      "outputs": [
        {
          "internalType": "uint256",
          "name": "",
          "type": "uint256"
        }
      ],
      "stateMutability": "view",
      "type": "function"
    },
    {
      "inputs": [
        {
          "internalType": "address",
          "name": "token",
          "type": "address"
        },
        {
          "internalType": "uint256",
          "name": "minTokensOut",
          "type": "uint256"
        }
      ],
      "name": "buy",
      "outputs": [],
      "stateMutability": "payable",
      "type": "function"
    },
    {
      "inputs": [
        {
          "internalType": "address",
          "name": "",
          "type": "address"
        }
      ],
      "name": "curves",
      "outputs": [
        {
          "internalType": "uint256",
          "name": "virtualTokenReserves",
          "type": "uint256"
        },
        {
          "internalType": "uint256",
          "name": "virtualEthReserves",
          "type": "uint256"
        },
        {
          "internalType": "uint256",
          "name": "realTokenReserves",
          "type": "uint256"
        },
        {
          "internalType": "uint256",
          "name": "realEthReserves",
          "type": "uint256"
        },
        {
          "internalType": "address",
          "name": "creator",
          "type": "address"
        },
        {
          "internalType": "bool",
          "name": "complete",
          "type": "bool"
        },
        {
          "internalType": "bool",
          "name": "airdropEnabled",
          "type": "bool"
        }
      ],
      "stateMutability": "view",
      "type": "function"
    },
    {
      "inputs": [],
      "name": "initialVirtualEth",
      "outputs": [
        {
          "internalType": "uint256",
          "name": "",
          "type": "uint256"
        }
      ],
      "stateMutability": "view",
      "type": "function"
    },
    {
      "inputs": [
        {
          "internalType": "string",
          "name": "name_",
          "type": "string"
        },
        {
          "internalType": "string",
          "name": "symbol_",
          "type": "string"
        },
        {
          "internalType": "bool",
          "name": "enableAirdrop",
          "type": "bool"
        }
      ],
      "name": "launch",
      "outputs": [
        {
          "internalType": "address",
          "name": "token",
          "type": "address"
        }
      ],
      "stateMutability": "nonpayable",
      "type": "function"
    },
    {
      "inputs": [
        {
          "internalType": "address",
          "name": "token",
          "type": "address"
        },
        {
          "internalType": "uint256",
          "name": "ethInAfterFee",
          "type": "uint256"
        }
      ],
      "name": "quoteBuy",
      "outputs": [
        {
          "internalType": "uint256",
          "name": "",
          "type": "uint256"
        }
      ],
      "stateMutability": "view",
      "type": "function"
    },
    {
      "inputs": [
        {
          "internalType": "address",
          "name": "token",
          "type": "address"
        },
        {
          "internalType": "uint256",
          "name": "amount",
          "type": "uint256"
        },
        {
          "internalType": "uint256",
          "name": "minEthOut",
          "type": "uint256"
        }
      ],
      "name": "sell",
      "outputs": [],
      "stateMutability": "nonpayable",
      "type": "function"
    },
    {
      "inputs": [
        {
          "internalType": "address",
          "name": "token",
          "type": "address"
        }
      ],
      "name": "spotPriceWei",
      "outputs": [
        {
          "internalType": "uint256",
          "name": "",
          "type": "uint256"
        }
      ],
      "stateMutability": "view",
      "type": "function"
    },
    {
      "inputs": [
        {
          "internalType": "address",
          "name": "",
          "type": "address"
        }
      ],
      "name": "tokenOf",
      "outputs": [
        {
          "internalType": "address",
          "name": "",
          "type": "address"
        }
      ],
      "stateMutability": "view",
      "type": "function"
    },
    {
      "inputs": [],
      "name": "treasury",
      "outputs": [
        {
          "internalType": "address",
          "name": "",
          "type": "address"
        }
      ],
      "stateMutability": "view",
      "type": "function"
    }
  ],
  "bytecode": "0x60c060405234801561001057600080fd5b5060405161248038038061248083398101604081905261002f9161009f565b60016000556001600160a01b0382161580159061004c5750600081115b6100895760405162461bcd60e51b815260206004820152600a60248201526962616420706172616d7360b01b604482015260640160405180910390fd5b6001600160a01b0390911660805260a0526100d9565b600080604083850312156100b257600080fd5b82516001600160a01b03811681146100c957600080fd5b6020939093015192949293505050565b60805160a05161236d610113600039600081816102cd01526109f6015260008181610272015281816107c00152610f88015261236d6000f3fe6080604052600436106200011f5760003560e01c8063ad87601711620000a1578063cce7ec13116200006c578063cce7ec1314620003e6578063dbb80e4214620003fd578063dbe958d81462000414578063e08732341462000435578063f26ab530146200045757600080fd5b8063ad8760171462000360578063ad902a931462000382578063bf333f2c14620003a4578063cc3cbd2a14620003cf57600080fd5b8063634282af11620000ee578063634282af146200029457806365e2093414620002b95780636a27246214620002ef57806385cab5371462000316578063a1ac727f146200033b57600080fd5b80630d7a94f614620001245780632cc3dc6e146200015c57806342ec38e2146200020b57806361d027b3146200025e575b600080fd5b3480156200013157600080fd5b5062000149620001433660046200126d565b6200047c565b6040519081526020015b60405180910390f35b3480156200016957600080fd5b50620001c86200017b3660046200129a565b600160208190526000918252604090912080549181015460028201546003830154600490930154919290916001600160a01b0381169060ff600160a01b8204811691600160a81b90041687565b6040805197885260208801969096529486019390935260608501919091526001600160a01b03166080840152151560a0830152151560c082015260e00162000153565b3480156200021857600080fd5b50620002456200022a3660046200129a565b6002602052600090815260409020546001600160a01b031681565b6040516001600160a01b03909116815260200162000153565b3480156200026b57600080fd5b50620002457f000000000000000000000000000000000000000000000000000000000000000081565b348015620002a157600080fd5b5062000245620002b3366004620012b8565b620004e7565b348015620002c657600080fd5b50620001497f000000000000000000000000000000000000000000000000000000000000000081565b348015620002fc57600080fd5b50620003146200030e366004620012d2565b62000512565b005b3480156200032357600080fd5b50620002456200033536600462001366565b62000889565b3480156200034857600080fd5b50620003146200035a366004620013f3565b62000b70565b3480156200036d57600080fd5b50620001496b033b2e3c9fd0803ce800000081565b3480156200038f57600080fd5b50620001496b029009752660ad62af80000081565b348015620003b157600080fd5b50620003bb606481565b60405161ffff909116815260200162000153565b348015620003dc57600080fd5b50620003bb600581565b62000314620003f73660046200126d565b62000d52565b3480156200040a57600080fd5b5060035462000149565b3480156200042157600080fd5b50620001496a108b2a2c2802909400000081565b3480156200044257600080fd5b50620001496b037790968dc8efffd100000081565b3480156200046457600080fd5b5062000149620004763660046200129a565b6200113b565b6001600160a01b03821660009081526001602081905260408220908101548290620004a99085906200149c565b8254620004b79086620014b7565b620004c39190620014d9565b905081600201548111620004d85780620004de565b81600201545b95945050505050565b60038181548110620004f857600080fd5b6000918252602090912001546001600160a01b0316905081565b600260005403620005405760405162461bcd60e51b81526004016200053790620014fc565b60405180910390fd5b600260009081556001600160a01b038085168252600160205260409091206004810154909116620005a45760405162461bcd60e51b815260206004820152600d60248201526c3ab735b737bbb7103a37b5b2b760991b604482015260640162000537565b60008311620005e25760405162461bcd60e51b81526020600482015260096024820152686e6f20746f6b656e7360b81b604482015260640162000537565b8054600090620005f49085906200149c565b6001830154620006059086620014b7565b620006119190620014d9565b9050816003015481111562000627575060038101545b600061271062000639606484620014b7565b620006459190620014d9565b9050600061271062000659600585620014b7565b620006659190620014d9565b90508462000674838562001533565b1015620006af5760405162461bcd60e51b8152602060048201526008602482015267736c69707061676560c01b604482015260640162000537565b85846000016000828254620006c591906200149c565b9250508190555082846001016000828254620006e2919062001533565b9250508190555082846003016000828254620006ff919062001533565b90915550506040516323b872dd60e01b8152336004820152306024820152604481018790526001600160a01b038816906323b872dd906064016020604051808303816000875af115801562000758573d6000803e3d6000fd5b505050506040513d601f19601f820116820180604052508101906200077e91906200154d565b620007ba5760405162461bcd60e51b815260206004820152600b60248201526a1c1d5b1b0819985a5b195960aa1b604482015260640162000537565b620007f17f0000000000000000000000000000000000000000000000000000000000000000620007eb838562001533565b62001193565b60048401546200080b906001600160a01b03168262001193565b6200081c33620007eb848662001533565b336001600160a01b0388167f89bc96e242cf3b1e6040a8f5123c29dbf1e48d876ded5856f1668191a8a7658e8862000855868862001533565b60408051928352602083019190915281018690526060810185905260800160405180910390a3505060016000555050505050565b6000600260005403620008b05760405162461bcd60e51b81526004016200053790620014fc565b6002600081815533815260209190915260409020546001600160a01b031615620009155760405162461bcd60e51b815260206004820152601560248201527437b732903a37b5b2b7103832b91031b932b0ba37b960591b604482015260640162000537565b84158015906200092457508215155b620009695760405162461bcd60e51b81526020600482015260146024820152731b985b594bdcde5b589bdb081c995c5d5a5c995960621b604482015260640162000537565b6000826200097957600062000986565b6a108b2a2c280290940000005b9050868686863033866b033b2e3c9fd0803ce8000000604051620009aa9062001242565b620009bd98979695949392919062001596565b604051809103906000f080158015620009da573d6000803e3d6000fd5b506040805160e0810182526b037790968dc8efffd100000081527f000000000000000000000000000000000000000000000000000000000000000060208083019182526b029009752660ad62af800000838501908152600060608501818152336080870181815260a088018481528d151560c08a019081526001600160a01b03808d168088526001808b528d89209c518d559a518c8c015597516002808d019190915595516003808d019190915593516004909b018054935192511515600160a81b0260ff60a81b19931515600160a01b026001600160a81b03199095169c9092169b909b17929092171617909755808352935285812080546001600160a01b03199081168417909155855494850186559490527fc2575a0e9e593c00f959f8c92f12db2869c3395a3b0502d05e2516446f71f85b909201805490931682179092559151929450917f03de023d768bf93890259720a6a37c35c9e9c24ad766108bb3779756c5c4abad9062000b59908b908b908b908b908b90620015f2565b60405180910390a350600160005595945050505050565b60026000540362000b955760405162461bcd60e51b81526004016200053790620014fc565b6002600055811580159062000bab575060c88211155b62000bec5760405162461bcd60e51b815260206004820152601060248201526f312d32303020726563697069656e747360801b604482015260640162000537565b60005b8281101562000d0057846001600160a01b03166323b872dd3386868581811062000c1d5762000c1d62001632565b905060200201602081019062000c3491906200129a565b6040516001600160e01b031960e085901b1681526001600160a01b03928316600482015291166024820152604481018590526064016020604051808303816000875af115801562000c89573d6000803e3d6000fd5b505050506040513d601f19601f8201168201806040525081019062000caf91906200154d565b62000ceb5760405162461bcd60e51b815260206004820152600b60248201526a1c1d5b1b0819985a5b195960aa1b604482015260640162000537565b8062000cf78162001648565b91505062000bef565b50604080518381526020810183905233916001600160a01b038716917fe94bf5364ee1292cabede8ab439bbac3cc4a725cb08fa81ec1d00a3c87e606e6910160405180910390a3505060016000555050565b60026000540362000d775760405162461bcd60e51b81526004016200053790620014fc565b600260009081556001600160a01b03808416825260016020526040909120600481015490911662000ddb5760405162461bcd60e51b815260206004820152600d60248201526c3ab735b737bbb7103a37b5b2b760991b604482015260640162000537565b6004810154600160a01b900460ff161562000e395760405162461bcd60e51b815260206004820152601960248201527f637572766520636f6d706c657465202d20736f6c64206f757400000000000000604482015260640162000537565b6000341162000e745760405162461bcd60e51b81526020600482015260066024820152650dcde40cae8d60d31b604482015260640162000537565b600061271062000e86606434620014b7565b62000e929190620014d9565b9050600061271062000ea6600534620014b7565b62000eb29190620014d9565b9050600062000ec2833462001533565b9050600062000ed287836200047c565b90508581101562000f115760405162461bcd60e51b8152602060048201526008602482015267736c69707061676560c01b604482015260640162000537565b8185600101600082825462000f2791906200149c565b909155505084548190869060009062000f4290849062001533565b925050819055508085600201600082825462000f5f919062001533565b925050819055508185600301600082825462000f7c91906200149c565b9091555062000fb390507f0000000000000000000000000000000000000000000000000000000000000000620007eb858762001533565b600485015462000fcd906001600160a01b03168462001193565b60405163a9059cbb60e01b8152336004820152602481018290526001600160a01b0388169063a9059cbb906044016020604051808303816000875af11580156200101b573d6000803e3d6000fd5b505050506040513d601f19601f820116820180604052508101906200104191906200154d565b620010815760405162461bcd60e51b815260206004820152600f60248201526e1d1c985b9cd9995c8819985a5b1959608a1b604482015260640162000537565b60408051838152602081018390529081018590526060810184905233906001600160a01b038916907f2683a506cc521e11c368ce9c068585a91786a3cb7ab4089b602eb2835acb16399060800160405180910390a384600201546000036200112d5760048501805460ff60a01b1916600160a01b1790556040516001600160a01b038816907f393426fce0169456604ad231c1ea7bf1b5009b351b86ad769dca593b74cd3ae390600090a25b505060016000555050505050565b6001600160a01b038116600090815260016020526040812080548203620011655750600092915050565b805460018201546200118090670de0b6b3a7640000620014b7565b6200118c9190620014d9565b9392505050565b80600003620011a0575050565b6000826001600160a01b03168260405160006040518083038185875af1925050503d8060008114620011ef576040519150601f19603f3d011682016040523d82523d6000602084013e620011f4565b606091505b50509050806200123d5760405162461bcd60e51b8152602060048201526013602482015272195d1a081d1c985b9cd9995c8819985a5b1959606a1b604482015260640162000537565b505050565b610cd3806200166583390190565b80356001600160a01b03811681146200126857600080fd5b919050565b600080604083850312156200128157600080fd5b6200128c8362001250565b946020939093013593505050565b600060208284031215620012ad57600080fd5b6200118c8262001250565b600060208284031215620012cb57600080fd5b5035919050565b600080600060608486031215620012e857600080fd5b620012f38462001250565b95602085013595506040909401359392505050565b60008083601f8401126200131b57600080fd5b50813567ffffffffffffffff8111156200133457600080fd5b6020830191508360208285010111156200134d57600080fd5b9250929050565b80151581146200136357600080fd5b50565b6000806000806000606086880312156200137f57600080fd5b853567ffffffffffffffff808211156200139857600080fd5b620013a689838a0162001308565b90975095506020880135915080821115620013c057600080fd5b50620013cf8882890162001308565b9094509250506040860135620013e58162001354565b809150509295509295909350565b600080600080606085870312156200140a57600080fd5b620014158562001250565b9350602085013567ffffffffffffffff808211156200143357600080fd5b818701915087601f8301126200144857600080fd5b8135818111156200145857600080fd5b8860208260051b85010111156200146e57600080fd5b95986020929092019750949560400135945092505050565b634e487b7160e01b600052601160045260246000fd5b60008219821115620014b257620014b262001486565b500190565b6000816000190483118215151615620014d457620014d462001486565b500290565b600082620014f757634e487b7160e01b600052601260045260246000fd5b500490565b6020808252601f908201527f5265656e7472616e637947756172643a207265656e7472616e742063616c6c00604082015260600190565b60008282101562001548576200154862001486565b500390565b6000602082840312156200156057600080fd5b81516200118c8162001354565b81835281816020850137506000828201602090810191909152601f909101601f19169091010190565b60c081526000620015ac60c083018a8c6200156d565b8281036020840152620015c181898b6200156d565b6001600160a01b03978816604085015295909616606083015250608081019290925260a09091015295945050505050565b606081526000620016086060830187896200156d565b82810360208401526200161d8186886200156d565b91505082151560408301529695505050505050565b634e487b7160e01b600052603260045260246000fd5b6000600182016200165d576200165d62001486565b506001019056fe60806040523480156200001157600080fd5b5060405162000cd338038062000cd3833981016040819052620000349162000315565b8551869086906200004d90600390602085019062000185565b5080516200006390600490602084019062000185565b5050821590506200007a576200007a83836200009d565b62000091846200008b8484620003cc565b6200009d565b5050505050506200043d565b6001600160a01b038216620000f85760405162461bcd60e51b815260206004820152601f60248201527f45524332303a206d696e7420746f20746865207a65726f206164647265737300604482015260640160405180910390fd5b80600260008282546200010c9190620003e6565b90915550506001600160a01b038216600090815260208190526040812080548392906200013b908490620003e6565b90915550506040518181526001600160a01b038316906000907fddf252ad1be2c89b69c2b068fc378daa952ba7f163c4a11628f55a4df523b3ef9060200160405180910390a35050565b828054620001939062000401565b90600052602060002090601f016020900481019282620001b7576000855562000202565b82601f10620001d257805160ff191683800117855562000202565b8280016001018555821562000202579182015b8281111562000202578251825591602001919060010190620001e5565b506200021092915062000214565b5090565b5b8082111562000210576000815560010162000215565b634e487b7160e01b600052604160045260246000fd5b600082601f8301126200025357600080fd5b81516001600160401b03808211156200027057620002706200022b565b604051601f8301601f19908116603f011681019082821181831017156200029b576200029b6200022b565b81604052838152602092508683858801011115620002b857600080fd5b600091505b83821015620002dc5785820183015181830184015290820190620002bd565b83821115620002ee5760008385830101525b9695505050505050565b80516001600160a01b03811681146200031057600080fd5b919050565b60008060008060008060c087890312156200032f57600080fd5b86516001600160401b03808211156200034757600080fd5b620003558a838b0162000241565b975060208901519150808211156200036c57600080fd5b506200037b89828a0162000241565b9550506200038c60408801620002f8565b93506200039c60608801620002f8565b92506080870151915060a087015190509295509295509295565b634e487b7160e01b600052601160045260246000fd5b600082821015620003e157620003e1620003b6565b500390565b60008219821115620003fc57620003fc620003b6565b500190565b600181811c908216806200041657607f821691505b6020821081036200043757634e487b7160e01b600052602260045260246000fd5b50919050565b610886806200044d6000396000f3fe608060405234801561001057600080fd5b50600436106100a95760003560e01c80633950935111610071578063395093511461012357806370a082311461013657806395d89b411461015f578063a457c2d714610167578063a9059cbb1461017a578063dd62ed3e1461018d57600080fd5b806306fdde03146100ae578063095ea7b3146100cc57806318160ddd146100ef57806323b872dd14610101578063313ce56714610114575b600080fd5b6100b66101a0565b6040516100c391906106c4565b60405180910390f35b6100df6100da366004610735565b610232565b60405190151581526020016100c3565b6002545b6040519081526020016100c3565b6100df61010f36600461075f565b61024a565b604051601281526020016100c3565b6100df610131366004610735565b61026e565b6100f361014436600461079b565b6001600160a01b031660009081526020819052604090205490565b6100b6610290565b6100df610175366004610735565b61029f565b6100df610188366004610735565b61031f565b6100f361019b3660046107bd565b61032d565b6060600380546101af906107f0565b80601f01602080910402602001604051908101604052809291908181526020018280546101db906107f0565b80156102285780601f106101fd57610100808354040283529160200191610228565b820191906000526020600020905b81548152906001019060200180831161020b57829003601f168201915b5050505050905090565b600033610240818585610358565b5060019392505050565b60003361025885828561047c565b6102638585856104f6565b506001949350505050565b600033610240818585610281838361032d565b61028b919061082a565b610358565b6060600480546101af906107f0565b600033816102ad828661032d565b9050838110156103125760405162461bcd60e51b815260206004820152602560248201527f45524332303a2064656372656173656420616c6c6f77616e63652062656c6f77604482015264207a65726f60d81b60648201526084015b60405180910390fd5b6102638286868403610358565b6000336102408185856104f6565b6001600160a01b03918216600090815260016020908152604080832093909416825291909152205490565b6001600160a01b0383166103ba5760405162461bcd60e51b8152602060048201526024808201527f45524332303a20617070726f76652066726f6d20746865207a65726f206164646044820152637265737360e01b6064820152608401610309565b6001600160a01b03821661041b5760405162461bcd60e51b815260206004820152602260248201527f45524332303a20617070726f766520746f20746865207a65726f206164647265604482015261737360f01b6064820152608401610309565b6001600160a01b0383811660008181526001602090815260408083209487168084529482529182902085905590518481527f8c5be1e5ebec7d5bd14f71427d1e84f3dd0314c0f7b2291e5b200ac8c7c3b925910160405180910390a3505050565b6000610488848461032d565b905060001981146104f057818110156104e35760405162461bcd60e51b815260206004820152601d60248201527f45524332303a20696e73756666696369656e7420616c6c6f77616e63650000006044820152606401610309565b6104f08484848403610358565b50505050565b6001600160a01b03831661055a5760405162461bcd60e51b815260206004820152602560248201527f45524332303a207472616e736665722066726f6d20746865207a65726f206164604482015264647265737360d81b6064820152608401610309565b6001600160a01b0382166105bc5760405162461bcd60e51b815260206004820152602360248201527f45524332303a207472616e7366657220746f20746865207a65726f206164647260448201526265737360e81b6064820152608401610309565b6001600160a01b038316600090815260208190526040902054818110156106345760405162461bcd60e51b815260206004820152602660248201527f45524332303a207472616e7366657220616d6f756e7420657863656564732062604482015265616c616e636560d01b6064820152608401610309565b6001600160a01b0380851660009081526020819052604080822085850390559185168152908120805484929061066b90849061082a565b92505081905550826001600160a01b0316846001600160a01b03167fddf252ad1be2c89b69c2b068fc378daa952ba7f163c4a11628f55a4df523b3ef846040516106b791815260200190565b60405180910390a36104f0565b600060208083528351808285015260005b818110156106f1578581018301518582016040015282016106d5565b81811115610703576000604083870101525b50601f01601f1916929092016040019392505050565b80356001600160a01b038116811461073057600080fd5b919050565b6000806040838503121561074857600080fd5b61075183610719565b946020939093013593505050565b60008060006060848603121561077457600080fd5b61077d84610719565b925061078b60208501610719565b9150604084013590509250925092565b6000602082840312156107ad57600080fd5b6107b682610719565b9392505050565b600080604083850312156107d057600080fd5b6107d983610719565b91506107e760208401610719565b90509250929050565b600181811c9082168061080457607f821691505b60208210810361082457634e487b7160e01b600052602260045260246000fd5b50919050565b6000821982111561084b57634e487b7160e01b600052601160045260246000fd5b50019056fea2646970667358221220a61f3311f2587fe09ba3a29fb2bb433c1fdd5a15fb6f45b9863de0ac41838b5b64736f6c634300080e0033a264697066735822122088f12c879bdbb5b135097d7d14e539c3581f47a125921b6fcf84bf9a326d316564736f6c634300080e0033",
  "linkReferences": {},
  "deployedLinkReferences": {}
}