{
  "_format": "hh-sol-artifact-1",
  "contractName": "SocialTokenFactory",
  "sourceName": "contracts/Social/SocialTokenFactory.sol",
  "abi": [
    {
      "inputs": [
        {
          "internalType": "address",
          "name": "_treasury",
          "type": "address"
        },
        {
          "internalType": "uint256",
          "name": "_initialVirtualEth",
          "type": "uint256"
        },
        {
          "internalType": "address",
          "name": "_uniswapFactory",
          "type": "address"
        },
        {
          "internalType": "address",
          "name": "_weth",
          "type": "address"
        }
      ],
      "stateMutability": "nonpayable",
      "type": "constructor"
    },
    {
      "anonymous": false,
      "inputs": [
        {
          "indexed": true,
          "internalType": "address",
          "name": "token",
          "type": "address"
        },
        {
          "indexed": true,
          "internalType": "address",
          "name": "from",
          "type": "address"
        },
        {
          "indexed": false,
          "internalType": "uint256",
          "name": "recipients",
          "type": "uint256"
        },
        {
          "indexed": false,
          "internalType": "uint256",
          "name": "amountEach",
          "type": "uint256"
        }
      ],
      "name": "Airdropped",
      "type": "event"
    },
    {
      "anonymous": false,
      "inputs": [
        {
          "indexed": true,
          "internalType": "address",
          "name": "token",
          "type": "address"
        },
        {
          "indexed": true,
          "internalType": "address",
          "name": "buyer",
          "type": "address"
        },
        {
          "indexed": false,
          "internalType": "uint256",
          "name": "ethIn",
          "type": "uint256"
        },
        {
          "indexed": false,
          "internalType": "uint256",
          "name": "tokensOut",
          "type": "uint256"
        },
        {
          "indexed": false,
          "internalType": "uint256",
          "name": "fee",
          "type": "uint256"
        },
        {
          "indexed": false,
          "internalType": "uint256",
          "name": "creatorFee",
          "type": "uint256"
        }
      ],
      "name": "Bought",
      "type": "event"
    },
    {
      "anonymous": false,
      "inputs": [
        {
          "indexed": true,
          "internalType": "address",
          "name": "token",
          "type": "address"
        }
      ],
      "name": "CurveComplete",
      "type": "event"
    },
    {
      "anonymous": false,
      "inputs": [
        {
          "indexed": false,
          "internalType": "uint256",
          "name": "tier1McapWei",
          "type": "uint256"
        }
      ],
      "name": "FeeTierUpdated",
      "type": "event"
    },
    {
      "anonymous": false,
      "inputs": [
        {
          "indexed": true,
          "internalType": "address",
          "name": "token",
          "type": "address"
        },
        {
          "indexed": true,
          "internalType": "address",
          "name": "seller",
          "type": "address"
        },
        {
          "indexed": false,
          "internalType": "uint256",
          "name": "tokensIn",
          "type": "uint256"
        },
        {
          "indexed": false,
          "internalType": "uint256",
          "name": "ethOut",
          "type": "uint256"
        },
        {
          "indexed": false,
          "internalType": "uint256",
          "name": "fee",
          "type": "uint256"
        },
        {
          "indexed": false,
          "internalType": "uint256",
          "name": "creatorFee",
          "type": "uint256"
        }
      ],
      "name": "Sold",
      "type": "event"
    },
    {
      "anonymous": false,
      "inputs": [
        {
          "indexed": true,
          "internalType": "address",
          "name": "token",
          "type": "address"
        },
        {
          "indexed": true,
          "internalType": "address",
          "name": "pair",
          "type": "address"
        },
        {
          "indexed": false,
          "internalType": "uint256",
          "name": "ethIn",
          "type": "uint256"
        },
        {
          "indexed": false,
          "internalType": "uint256",
          "name": "tokensIn",
          "type": "uint256"
        }
      ],
      "name": "TokenGraduated",
      "type": "event"
    },
    {
      "anonymous": false,
      "inputs": [
        {
          "indexed": true,
          "internalType": "address",
          "name": "token",
          "type": "address"
        },
        {
          "indexed": true,
          "internalType": "address",
          "name": "creator",
          "type": "address"
        },
        {
          "indexed": false,
          "internalType": "string",
          "name": "name",
          "type": "string"
        },
        {
          "indexed": false,
          "internalType": "string",
          "name": "symbol",
          "type": "string"
        },
        {
          "indexed": false,
          "internalType": "bool",
          "name": "airdropEnabled",
          "type": "bool"
        }
      ],
      "name": "TokenLaunched",
      "type": "event"
    },
    {
      "inputs": [],
      "name": "AIRDROP_CUT",
      "outputs": [
        {
          "internalType": "uint256",
          "name": "",
          "type": "uint256"
        }
      ],
      "stateMutability": "view",
      "type": "function"
    },
    {
      "inputs": [],
      "name": "CREATOR_FEE_BPS_HIGH",
      "outputs": [
        {
          "internalType": "uint16",
          "name": "",
          "type": "uint16"
        }
      ],
      "stateMutability": "view",
      "type": "function"
    },
    {
      "inputs": [],
      "name": "CREATOR_FEE_BPS_LOW",
      "outputs": [
        {
          "internalType": "uint16",
          "name": "",
          "type": "uint16"
        }
      ],
      "stateMutability": "view",
      "type": "function"
    },
    {
      "inputs": [],
      "name": "FEE_BPS",
      "outputs": [
        {
          "internalType": "uint16",
          "name": "",
          "type": "uint16"
        }
      ],
      "stateMutability": "view",
      "type": "function"
    },
    {
      "inputs": [],
      "name": "INITIAL_REAL_TOKEN_RESERVES",
      "outputs": [
        {
          "internalType": "uint256",
          "name": "",
          "type": "uint256"
        }
      ],
      "stateMutability": "view",
      "type": "function"
    },
    {
      "inputs": [],
      "name": "INITIAL_VIRTUAL_TOKEN_RESERVES",
      "outputs": [
        {
          "internalType": "uint256",
          "name": "",
          "type": "uint256"
        }
      ],
      "stateMutability": "view",
      "type": "function"
    },
    {
      "inputs": [],
      "name": "TOKEN_TOTAL_SUPPLY",
      "outputs": [
        {
          "internalType": "uint256",
          "name": "",
          "type": "uint256"
        }
      ],
      "stateMutability": "view",
      "type": "function"
    },
    {
      "inputs": [
        {
          "internalType": "address",
          "name": "token",
          "type": "address"
        },
        {
          "internalType": "address[]",
          "name": "recipients",
          "type": "address[]"
        },
        {
          "internalType": "uint256",
          "name": "amountEach",
          "type": "uint256"
        }
      ],
      "name": "airdrop",
      "outputs": [],
      "stateMutability": "nonpayable",
      "type": "function"
    },
    {
      "inputs": [
        {
          "internalType": "uint256",
          "name": "",
          "type": "uint256"
        }
      ],
      "name": "allTokens",
      "outputs": [
        {
          "internalType": "address",
          "name": "",
          "type": "address"
        }
      ],
      "stateMutability": "view",
      "type": "function"
    },
    {
      "inputs": [],
      "name": "allTokensLength",
      "outputs": [
        {
          "internalType": "uint256",
          "name": "",
          "type": "uint256"
        }
      ],
      "stateMutability": "view",
      "type": "function"
    },
    {
      "inputs": [
        {
          "internalType": "address",
          "name": "token",
          "type": "address"
        },
        {
          "internalType": "uint256",
          "name": "minTokensOut",
          "type": "uint256"
        }
      ],
      "name": "buy",
      "outputs": [],
      "stateMutability": "payable",
      "type": "function"
    },
    {
      "inputs": [
        {
          "internalType": "address",
          "name": "token",
          "type": "address"
        }
      ],
      "name": "creatorFeeBps",
      "outputs": [
        {
          "internalType": "uint16",
          "name": "",
          "type": "uint16"
        }
      ],
      "stateMutability": "view",
      "type": "function"
    },
    {
      "inputs": [
        {
          "internalType": "address",
          "name": "",
          "type": "address"
        }
      ],
      "name": "curves",
      "outputs": [
        {
          "internalType": "uint256",
          "name": "virtualTokenReserves",
          "type": "uint256"
        },
        {
          "internalType": "uint256",
          "name": "virtualEthReserves",
          "type": "uint256"
        },
        {
          "internalType": "uint256",
          "name": "realTokenReserves",
          "type": "uint256"
        },
        {
          "internalType": "uint256",
          "name": "realEthReserves",
          "type": "uint256"
        },
        {
          "internalType": "address",
          "name": "creator",
          "type": "address"
        },
        {
          "internalType": "bool",
          "name": "complete",
          "type": "bool"
        },
        {
          "internalType": "bool",
          "name": "airdropEnabled",
          "type": "bool"
        }
      ],
      "stateMutability": "view",
      "type": "function"
    },
    {
      "inputs": [],
      "name": "feeTier1McapWei",
      "outputs": [
        {
          "internalType": "uint256",
          "name": "",
          "type": "uint256"
        }
      ],
      "stateMutability": "view",
      "type": "function"
    },
    {
      "inputs": [
        {
          "internalType": "address",
          "name": "token",
          "type": "address"
        }
      ],
      "name": "graduate",
      "outputs": [
        {
          "internalType": "address",
          "name": "pair",
          "type": "address"
        }
      ],
      "stateMutability": "nonpayable",
      "type": "function"
    },
    {
      "inputs": [],
      "name": "initialVirtualEth",
      "outputs": [
        {
          "internalType": "uint256",
          "name": "",
          "type": "uint256"
        }
      ],
      "stateMutability": "view",
      "type": "function"
    },
    {
      "inputs": [
        {
          "internalType": "string",
          "name": "name_",
          "type": "string"
        },
        {
          "internalType": "string",
          "name": "symbol_",
          "type": "string"
        },
        {
          "internalType": "bool",
          "name": "enableAirdrop",
          "type": "bool"
        }
      ],
      "name": "launch",
      "outputs": [
        {
          "internalType": "address",
          "name": "token",
          "type": "address"
        }
      ],
      "stateMutability": "payable",
      "type": "function"
    },
    {
      "inputs": [
        {
          "internalType": "address",
          "name": "token",
          "type": "address"
        }
      ],
      "name": "mcapWei",
      "outputs": [
        {
          "internalType": "uint256",
          "name": "",
          "type": "uint256"
        }
      ],
      "stateMutability": "view",
      "type": "function"
    },
    {
      "inputs": [
        {
          "internalType": "address",
          "name": "",
          "type": "address"
        }
      ],
      "name": "pairOf",
      "outputs": [
        {
          "internalType": "address",
          "name": "",
          "type": "address"
        }
      ],
      "stateMutability": "view",
      "type": "function"
    },
    {
      "inputs": [
        {
          "internalType": "address",
          "name": "token",
          "type": "address"
        },
        {
          "internalType": "uint256",
          "name": "ethInAfterFee",
          "type": "uint256"
        }
      ],
      "name": "quoteBuy",
      "outputs": [
        {
          "internalType": "uint256",
          "name": "",
          "type": "uint256"
        }
      ],
      "stateMutability": "view",
      "type": "function"
    },
    {
      "inputs": [
        {
          "internalType": "address",
          "name": "token",
          "type": "address"
        },
        {
          "internalType": "uint256",
          "name": "amount",
          "type": "uint256"
        },
        {
          "internalType": "uint256",
          "name": "minEthOut",
          "type": "uint256"
        }
      ],
      "name": "sell",
      "outputs": [],
      "stateMutability": "nonpayable",
      "type": "function"
    },
    {
      "inputs": [
        {
          "internalType": "uint256",
          "name": "tier1McapWei",
          "type": "uint256"
        }
      ],
      "name": "setFeeTier",
      "outputs": [],
      "stateMutability": "nonpayable",
      "type": "function"
    },
    {
      "inputs": [
        {
          "internalType": "address",
          "name": "token",
          "type": "address"
        }
      ],
      "name": "spotPriceWei",
      "outputs": [
        {
          "internalType": "uint256",
          "name": "",
          "type": "uint256"
        }
      ],
      "stateMutability": "view",
      "type": "function"
    },
    {
      "inputs": [
        {
          "internalType": "address",
          "name": "",
          "type": "address"
        }
      ],
      "name": "tokenOf",
      "outputs": [
        {
          "internalType": "address",
          "name": "",
          "type": "address"
        }
      ],
      "stateMutability": "view",
      "type": "function"
    },
    {
      "inputs": [],
      "name": "treasury",
      "outputs": [
        {
          "internalType": "address",
          "name": "",
          "type": "address"
        }
      ],
      "stateMutability": "view",
      "type": "function"
    },
    {
      "inputs": [],
      "name": "uniswapFactory",
      "outputs": [
        {
          "internalType": "address",
          "name": "",
          "type": "address"
        }
      ],
      "stateMutability": "view",
      "type": "function"
    },
    {
      "inputs": [],
      "name": "weth",
      "outputs": [
        {
          "internalType": "address",
          "name": "",
          "type": "address"
        }
      ],
      "stateMutability": "view",
      "type": "function"
    }
  ],
  "bytecode": "0x6101006040523480156200001257600080fd5b5060405162002fe638038062002fe6833981016040819052620000359162000143565b60016000556001600160a01b03841615801590620000535750600083115b620000925760405162461bcd60e51b815260206004820152600a60248201526962616420706172616d7360b01b60448201526064015b60405180910390fd5b6001600160a01b03821615801590620000b357506001600160a01b03811615155b620000f65760405162461bcd60e51b815260206004820152601260248201527162616420756e697377617020706172616d7360701b604482015260640162000089565b6001600160a01b0393841660805260a092909252821660c0521660e0526804a97d605a3b98000060015562000197565b80516001600160a01b03811681146200013e57600080fd5b919050565b600080600080608085870312156200015a57600080fd5b620001658562000126565b9350602085015192506200017c6040860162000126565b91506200018c6060860162000126565b905092959194509250565b60805160a05160c05160e051612dcf62000217600039600081816102c0015281816117dc015281816118a20152818161197901526119fe01526000818161043d0152818161180401526118ca0152600081816103a40152610c8301526000818161034901528181610a0801528181610adc01526114c00152612dcf6000f3fe608060405260043610620001be5760003560e01c8063a7465bdb11620000ff578063dbb80e421162000095578063e31af5e1116200006c578063e31af5e114620005ff578063f26ab5301462000616578063fdf2e751146200063b578063ff6d8d05146200065357600080fd5b8063dbb80e4214620005a5578063dbe958d814620005bc578063e087323414620005dd57600080fd5b8063b08bb87111620000d6578063b08bb8711462000527578063b93dd2e41462000560578063bf333f2c1462000577578063cce7ec13146200058e57600080fd5b8063a7465bdb14620004a9578063ad87601714620004e3578063ad902a93146200050557600080fd5b806365e20934116200017557806385cab537116200014c57806385cab53714620004125780638bdb2afa14620004295780638fb0d6af146200045f578063a1ac727f146200048457600080fd5b806365e2093414620003905780636a27246214620003c657806374dbeb6214620003ed57600080fd5b80630d7a94f614620001c35780632cc3dc6e14620001fb5780633fc8cef314620002ac57806342ec38e214620002fb57806361d027b31462000335578063634282af146200036b575b600080fd5b348015620001d057600080fd5b50620001e8620001e236600462001c69565b62000678565b6040519081526020015b60405180910390f35b3480156200020857600080fd5b50620002696200021a36600462001c98565b6003602081905260009182526040909120805460018201546002830154938301546004909301549193909290916001600160a01b0381169060ff600160a01b8204811691600160a81b90041687565b6040805197885260208801969096529486019390935260608501919091526001600160a01b03166080840152151560a0830152151560c082015260e001620001f2565b348015620002b957600080fd5b50620002e27f000000000000000000000000000000000000000000000000000000000000000081565b6040516001600160a01b039091168152602001620001f2565b3480156200030857600080fd5b50620002e26200031a36600462001c98565b6004602052600090815260409020546001600160a01b031681565b3480156200034257600080fd5b50620002e27f000000000000000000000000000000000000000000000000000000000000000081565b3480156200037857600080fd5b50620002e26200038a36600462001cb8565b620006e2565b3480156200039d57600080fd5b50620001e87f000000000000000000000000000000000000000000000000000000000000000081565b348015620003d357600080fd5b50620003eb620003e536600462001cd2565b6200070d565b005b348015620003fa57600080fd5b50620003eb6200040c36600462001cb8565b62000ad1565b620002e26200042336600462001d65565b62000b76565b3480156200043657600080fd5b50620002e27f000000000000000000000000000000000000000000000000000000000000000081565b3480156200046c57600080fd5b50620001e86200047e36600462001c98565b62000e49565b3480156200049157600080fd5b50620003eb620004a336600462001df2565b62000eb1565b348015620004b657600080fd5b50620002e2620004c836600462001c98565b6002602052600090815260409020546001600160a01b031681565b348015620004f057600080fd5b50620001e86b033b2e3c9fd0803ce800000081565b3480156200051257600080fd5b50620001e86b029009752660ad62af80000081565b3480156200053457600080fd5b506200054c6200054636600462001c98565b62001093565b60405161ffff9091168152602001620001f2565b3480156200056d57600080fd5b506200054c601e81565b3480156200058457600080fd5b506200054c607d81565b620003eb6200059f36600462001c69565b620010bb565b348015620005b257600080fd5b50600554620001e8565b348015620005c957600080fd5b50620001e86a108b2a2c2802909400000081565b348015620005ea57600080fd5b50620001e86b037790968dc8efffd100000081565b3480156200060c57600080fd5b506200054c605f81565b3480156200062357600080fd5b50620001e86200063536600462001c98565b620010fc565b3480156200064857600080fd5b50620001e860015481565b3480156200066057600080fd5b50620002e26200067236600462001c98565b62001141565b6001600160a01b038216600090815260036020526040812060018101548290620006a490859062001e9d565b8254620006b2908662001eb8565b620006be919062001eda565b905081600201548111620006d35780620006d9565b81600201545b95945050505050565b60058181548110620006f357600080fd5b6000918252602090912001546001600160a01b0316905081565b6002600054036200073b5760405162461bcd60e51b8152600401620007329062001efd565b60405180910390fd5b600260009081556001600160a01b038085168252600360205260409091206004810154909116620007805760405162461bcd60e51b8152600401620007329062001f34565b6004810154600160a01b900460ff1615620007de5760405162461bcd60e51b815260206004820152601c60248201527f677261647561746564202d207472616465206f6e20756e697377617000000000604482015260640162000732565b600083116200081c5760405162461bcd60e51b81526020600482015260096024820152686e6f20746f6b656e7360b81b604482015260640162000732565b80546000906200082e90859062001e9d565b60018301546200083f908662001eb8565b6200084b919062001eda565b9050816003015481111562000861575060038101545b600061271062000873607d8462001eb8565b6200087f919062001eda565b90506000612710620008918862001093565b620008a19061ffff168562001eb8565b620008ad919062001eda565b905084620008bc838562001f5b565b1015620008f75760405162461bcd60e51b8152602060048201526008602482015267736c69707061676560c01b604482015260640162000732565b858460000160008282546200090d919062001e9d565b92505081905550828460010160008282546200092a919062001f5b565b925050819055508284600301600082825462000947919062001f5b565b90915550506040516323b872dd60e01b8152336004820152306024820152604481018790526001600160a01b038816906323b872dd906064016020604051808303816000875af1158015620009a0573d6000803e3d6000fd5b505050506040513d601f19601f82011682018060405250810190620009c6919062001f75565b62000a025760405162461bcd60e51b815260206004820152600b60248201526a1c1d5b1b0819985a5b195960aa1b604482015260640162000732565b62000a397f000000000000000000000000000000000000000000000000000000000000000062000a33838562001f5b565b62001216565b600484015462000a53906001600160a01b03168262001216565b62000a643362000a33848662001f5b565b336001600160a01b0388167f89bc96e242cf3b1e6040a8f5123c29dbf1e48d876ded5856f1668191a8a7658e8862000a9d868862001f5b565b60408051928352602083019190915281018690526060810185905260800160405180910390a3505060016000555050505050565b336001600160a01b037f0000000000000000000000000000000000000000000000000000000000000000161462000b3b5760405162461bcd60e51b815260206004820152600d60248201526c6f6e6c7920747265617375727960981b604482015260640162000732565b60018190556040518181527f12b8a49191b44c46a28db11bf08f6cf131255fb6d310033bfffa410e9d6233169060200160405180910390a150565b600060026000540362000b9d5760405162461bcd60e51b8152600401620007329062001efd565b6002600055841580159062000bb157508215155b62000bf65760405162461bcd60e51b81526020600482015260146024820152731b985b594bdcde5b589bdb081c995c5d5a5c995960621b604482015260640162000732565b60008262000c0657600062000c13565b6a108b2a2c280290940000005b9050868686863033866b033b2e3c9fd0803ce800000060405162000c379062001c42565b62000c4a98979695949392919062001fbe565b604051809103906000f08015801562000c67573d6000803e3d6000fd5b506040805160e0810182526b037790968dc8efffd100000081527f000000000000000000000000000000000000000000000000000000000000000060208083019182526b029009752660ad62af800000838501908152600060608501818152336080870181815260a088018481528d151560c08a019081526001600160a01b03808d1687526003808a528c88209b518c55995160018c0155965160028b01559351978901979097555160049788018054975193511515600160a81b0260ff60a81b19941515600160a01b026001600160a81b03199099169287169290921797909717929092169190911790945592835292905291909120549193501662000d915733600090815260046020526040902080546001600160a01b0319166001600160a01b0384161790555b600580546001810182556000919091527f036b6384b5eca791c62761152d0c79bb0604c104a5fb6f4eb0703f3154bb3db00180546001600160a01b0319166001600160a01b0384169081179091556040513391907f03de023d768bf93890259720a6a37c35c9e9c24ad766108bb3779756c5c4abad9062000e1c908b908b908b908b908b906200201a565b60405180910390a3341562000e3a5762000e3a8233346000620012c5565b50600160005595945050505050565b6001600160a01b03811660009081526003602052604081208054820362000e735750600092915050565b8054600182015462000e8e90670de0b6b3a764000062001eb8565b62000e9e90633b9aca0062001eb8565b62000eaa919062001eda565b9392505050565b60026000540362000ed65760405162461bcd60e51b8152600401620007329062001efd565b6002600055811580159062000eec575060c88211155b62000f2d5760405162461bcd60e51b815260206004820152601060248201526f312d32303020726563697069656e747360801b604482015260640162000732565b60005b828110156200104157846001600160a01b03166323b872dd3386868581811062000f5e5762000f5e6200205a565b905060200201602081019062000f75919062001c98565b6040516001600160e01b031960e085901b1681526001600160a01b03928316600482015291166024820152604481018590526064016020604051808303816000875af115801562000fca573d6000803e3d6000fd5b505050506040513d601f19601f8201168201806040525081019062000ff0919062001f75565b6200102c5760405162461bcd60e51b815260206004820152600b60248201526a1c1d5b1b0819985a5b195960aa1b604482015260640162000732565b80620010388162002070565b91505062000f30565b50604080518381526020810183905233916001600160a01b038716917fe94bf5364ee1292cabede8ab439bbac3cc4a725cb08fa81ec1d00a3c87e606e6910160405180910390a3505060016000555050565b6000600154620010a38362000e49565b1015620010b257601e620010b5565b605f5b92915050565b600260005403620010e05760405162461bcd60e51b8152600401620007329062001efd565b6002600055620010f382333484620012c5565b50506001600055565b6001600160a01b038116600090815260036020526040812080548203620011265750600092915050565b8054600182015462000e9e90670de0b6b3a764000062001eb8565b6000600260005403620011685760405162461bcd60e51b8152600401620007329062001efd565b600260009081556001600160a01b038084168252600360205260409091206004810154909116620011ad5760405162461bcd60e51b8152600401620007329062001f34565b6004810154600160a01b900460ff16620011ff5760405162461bcd60e51b81526020600482015260126024820152716375727665206e6f7420636f6d706c65746560701b604482015260640162000732565b6200120a8362001681565b60016000559392505050565b8060000362001223575050565b6000826001600160a01b03168260405160006040518083038185875af1925050503d806000811462001272576040519150601f19603f3d011682016040523d82523d6000602084013e62001277565b606091505b5050905080620012c05760405162461bcd60e51b8152602060048201526013602482015272195d1a081d1c985b9cd9995c8819985a5b1959606a1b604482015260640162000732565b505050565b6001600160a01b0380851660009081526003602052604090206004810154909116620013055760405162461bcd60e51b8152600401620007329062001f34565b6004810154600160a01b900460ff1615620013635760405162461bcd60e51b815260206004820152601960248201527f637572766520636f6d706c657465202d20736f6c64206f757400000000000000604482015260640162000732565b600083116200139e5760405162461bcd60e51b81526020600482015260066024820152650dcde40cae8d60d31b604482015260640162000732565b6000612710620013b0607d8662001eb8565b620013bc919062001eda565b90506000612710620013ce8862001093565b620013de9061ffff168762001eb8565b620013ea919062001eda565b90506000620013fa838762001f5b565b905060006200140a898362000678565b905085811015620014495760405162461bcd60e51b8152602060048201526008602482015267736c69707061676560c01b604482015260640162000732565b818560010160008282546200145f919062001e9d565b90915550508454819086906000906200147a90849062001f5b565b925050819055508085600201600082825462001497919062001f5b565b9250508190555081856003016000828254620014b4919062001e9d565b90915550620014eb90507f000000000000000000000000000000000000000000000000000000000000000062000a33858762001f5b565b600485015462001505906001600160a01b03168462001216565b60405163a9059cbb60e01b81526001600160a01b038981166004830152602482018390528a169063a9059cbb906044016020604051808303816000875af115801562001555573d6000803e3d6000fd5b505050506040513d601f19601f820116820180604052508101906200157b919062001f75565b620015bb5760405162461bcd60e51b815260206004820152600f60248201526e1d1c985b9cd9995c8819985a5b1959608a1b604482015260640162000732565b6040805183815260208101839052908101859052606081018490526001600160a01b03808a1691908b16907f2683a506cc521e11c368ce9c068585a91786a3cb7ab4089b602eb2835acb16399060800160405180910390a38460020154600003620016765760048501805460ff60a01b1916600160a01b1790556040516001600160a01b038a16907f393426fce0169456604ad231c1ea7bf1b5009b351b86ad769dca593b74cd3ae390600090a2620016748962001681565b505b505050505050505050565b6001600160a01b0380821660009081526003602090815260408083206002909252822054919290911615620016ed5760405162461bcd60e51b8152602060048201526011602482015270185b1c9958591e4819dc98591d585d1959607a1b604482015260640162000732565b60038101546040516370a0823160e01b81523060048201526000906001600160a01b038616906370a0823190602401602060405180830381865afa1580156200173a573d6000803e3d6000fd5b505050506040513d601f19601f820116820180604052508101906200176091906200208c565b9050600082118015620017735750600081115b620017b65760405162461bcd60e51b81526020600482015260126024820152716e6f7468696e6720746f206d69677261746560701b604482015260640162000732565b6000600384015560405163e6a4390560e01b81526001600160a01b0386811660048301527f0000000000000000000000000000000000000000000000000000000000000000811660248301527f0000000000000000000000000000000000000000000000000000000000000000169063e6a4390590604401602060405180830381865afa1580156200184c573d6000803e3d6000fd5b505050506040513d601f19601f82011682018060405250810190620018729190620020a6565b93506001600160a01b0384166200193d576040516364e329cb60e11b81526001600160a01b0386811660048301527f0000000000000000000000000000000000000000000000000000000000000000811660248301527f0000000000000000000000000000000000000000000000000000000000000000169063c9c65396906044016020604051808303816000875af115801562001914573d6000803e3d6000fd5b505050506040513d601f19601f820116820180604052508101906200193a9190620020a6565b93505b6001600160a01b0385811660009081526002602052604080822080546001600160a01b0319168885161790558051630d0e30db60e41b815290517f00000000000000000000000000000000000000000000000000000000000000009093169263d0e30db09286926004808201939182900301818588803b158015620019c157600080fd5b505af1158015620019d6573d6000803e3d6000fd5b505060405163a9059cbb60e01b81526001600160a01b038881166004830152602482018790527f000000000000000000000000000000000000000000000000000000000000000016935063a9059cbb925060440190506020604051808303816000875af115801562001a4c573d6000803e3d6000fd5b505050506040513d601f19601f8201168201806040525081019062001a72919062001f75565b62001ab75760405162461bcd60e51b81526020600482015260146024820152731dd95d1a081d1c985b9cd9995c8819985a5b195960621b604482015260640162000732565b60405163a9059cbb60e01b81526001600160a01b0385811660048301526024820183905286169063a9059cbb906044016020604051808303816000875af115801562001b07573d6000803e3d6000fd5b505050506040513d601f19601f8201168201806040525081019062001b2d919062001f75565b62001b735760405162461bcd60e51b81526020600482015260156024820152741d1bdad95b881d1c985b9cd9995c8819985a5b1959605a1b604482015260640162000732565b6040516335313c2160e11b815261dead60048201526001600160a01b03851690636a627842906024016020604051808303816000875af115801562001bbc573d6000803e3d6000fd5b505050506040513d601f19601f8201168201806040525081019062001be291906200208c565b50836001600160a01b0316856001600160a01b03167f5d5e32a9db9d7b2e8a648cbabb24e8b703a4581f3c2a8d7a888671cedc308ccf848460405162001c32929190918252602082015260400190565b60405180910390a3505050919050565b610cd380620020c783390190565b6001600160a01b038116811462001c6657600080fd5b50565b6000806040838503121562001c7d57600080fd5b823562001c8a8162001c50565b946020939093013593505050565b60006020828403121562001cab57600080fd5b813562000eaa8162001c50565b60006020828403121562001ccb57600080fd5b5035919050565b60008060006060848603121562001ce857600080fd5b833562001cf58162001c50565b95602085013595506040909401359392505050565b60008083601f84011262001d1d57600080fd5b50813567ffffffffffffffff81111562001d3657600080fd5b60208301915083602082850101111562001d4f57600080fd5b9250929050565b801515811462001c6657600080fd5b60008060008060006060868803121562001d7e57600080fd5b853567ffffffffffffffff8082111562001d9757600080fd5b62001da589838a0162001d0a565b9097509550602088013591508082111562001dbf57600080fd5b5062001dce8882890162001d0a565b909450925050604086013562001de48162001d56565b809150509295509295909350565b6000806000806060858703121562001e0957600080fd5b843562001e168162001c50565b9350602085013567ffffffffffffffff8082111562001e3457600080fd5b818701915087601f83011262001e4957600080fd5b81358181111562001e5957600080fd5b8860208260051b850101111562001e6f57600080fd5b95986020929092019750949560400135945092505050565b634e487b7160e01b600052601160045260246000fd5b6000821982111562001eb35762001eb362001e87565b500190565b600081600019048311821515161562001ed55762001ed562001e87565b500290565b60008262001ef857634e487b7160e01b600052601260045260246000fd5b500490565b6020808252601f908201527f5265656e7472616e637947756172643a207265656e7472616e742063616c6c00604082015260600190565b6020808252600d908201526c3ab735b737bbb7103a37b5b2b760991b604082015260600190565b60008282101562001f705762001f7062001e87565b500390565b60006020828403121562001f8857600080fd5b815162000eaa8162001d56565b81835281816020850137506000828201602090810191909152601f909101601f19169091010190565b60c08152600062001fd460c083018a8c62001f95565b828103602084015262001fe981898b62001f95565b6001600160a01b03978816604085015295909616606083015250608081019290925260a09091015295945050505050565b6060815260006200203060608301878962001f95565b82810360208401526200204581868862001f95565b91505082151560408301529695505050505050565b634e487b7160e01b600052603260045260246000fd5b60006001820162002085576200208562001e87565b5060010190565b6000602082840312156200209f57600080fd5b5051919050565b600060208284031215620020b957600080fd5b815162000eaa8162001c5056fe60806040523480156200001157600080fd5b5060405162000cd338038062000cd3833981016040819052620000349162000315565b8551869086906200004d90600390602085019062000185565b5080516200006390600490602084019062000185565b5050821590506200007a576200007a83836200009d565b62000091846200008b8484620003cc565b6200009d565b5050505050506200043d565b6001600160a01b038216620000f85760405162461bcd60e51b815260206004820152601f60248201527f45524332303a206d696e7420746f20746865207a65726f206164647265737300604482015260640160405180910390fd5b80600260008282546200010c9190620003e6565b90915550506001600160a01b038216600090815260208190526040812080548392906200013b908490620003e6565b90915550506040518181526001600160a01b038316906000907fddf252ad1be2c89b69c2b068fc378daa952ba7f163c4a11628f55a4df523b3ef9060200160405180910390a35050565b828054620001939062000401565b90600052602060002090601f016020900481019282620001b7576000855562000202565b82601f10620001d257805160ff191683800117855562000202565b8280016001018555821562000202579182015b8281111562000202578251825591602001919060010190620001e5565b506200021092915062000214565b5090565b5b8082111562000210576000815560010162000215565b634e487b7160e01b600052604160045260246000fd5b600082601f8301126200025357600080fd5b81516001600160401b03808211156200027057620002706200022b565b604051601f8301601f19908116603f011681019082821181831017156200029b576200029b6200022b565b81604052838152602092508683858801011115620002b857600080fd5b600091505b83821015620002dc5785820183015181830184015290820190620002bd565b83821115620002ee5760008385830101525b9695505050505050565b80516001600160a01b03811681146200031057600080fd5b919050565b60008060008060008060c087890312156200032f57600080fd5b86516001600160401b03808211156200034757600080fd5b620003558a838b0162000241565b975060208901519150808211156200036c57600080fd5b506200037b89828a0162000241565b9550506200038c60408801620002f8565b93506200039c60608801620002f8565b92506080870151915060a087015190509295509295509295565b634e487b7160e01b600052601160045260246000fd5b600082821015620003e157620003e1620003b6565b500390565b60008219821115620003fc57620003fc620003b6565b500190565b600181811c908216806200041657607f821691505b6020821081036200043757634e487b7160e01b600052602260045260246000fd5b50919050565b610886806200044d6000396000f3fe608060405234801561001057600080fd5b50600436106100a95760003560e01c80633950935111610071578063395093511461012357806370a082311461013657806395d89b411461015f578063a457c2d714610167578063a9059cbb1461017a578063dd62ed3e1461018d57600080fd5b806306fdde03146100ae578063095ea7b3146100cc57806318160ddd146100ef57806323b872dd14610101578063313ce56714610114575b600080fd5b6100b66101a0565b6040516100c391906106c4565b60405180910390f35b6100df6100da366004610735565b610232565b60405190151581526020016100c3565b6002545b6040519081526020016100c3565b6100df61010f36600461075f565b61024a565b604051601281526020016100c3565b6100df610131366004610735565b61026e565b6100f361014436600461079b565b6001600160a01b031660009081526020819052604090205490565b6100b6610290565b6100df610175366004610735565b61029f565b6100df610188366004610735565b61031f565b6100f361019b3660046107bd565b61032d565b6060600380546101af906107f0565b80601f01602080910402602001604051908101604052809291908181526020018280546101db906107f0565b80156102285780601f106101fd57610100808354040283529160200191610228565b820191906000526020600020905b81548152906001019060200180831161020b57829003601f168201915b5050505050905090565b600033610240818585610358565b5060019392505050565b60003361025885828561047c565b6102638585856104f6565b506001949350505050565b600033610240818585610281838361032d565b61028b919061082a565b610358565b6060600480546101af906107f0565b600033816102ad828661032d565b9050838110156103125760405162461bcd60e51b815260206004820152602560248201527f45524332303a2064656372656173656420616c6c6f77616e63652062656c6f77604482015264207a65726f60d81b60648201526084015b60405180910390fd5b6102638286868403610358565b6000336102408185856104f6565b6001600160a01b03918216600090815260016020908152604080832093909416825291909152205490565b6001600160a01b0383166103ba5760405162461bcd60e51b8152602060048201526024808201527f45524332303a20617070726f76652066726f6d20746865207a65726f206164646044820152637265737360e01b6064820152608401610309565b6001600160a01b03821661041b5760405162461bcd60e51b815260206004820152602260248201527f45524332303a20617070726f766520746f20746865207a65726f206164647265604482015261737360f01b6064820152608401610309565b6001600160a01b0383811660008181526001602090815260408083209487168084529482529182902085905590518481527f8c5be1e5ebec7d5bd14f71427d1e84f3dd0314c0f7b2291e5b200ac8c7c3b925910160405180910390a3505050565b6000610488848461032d565b905060001981146104f057818110156104e35760405162461bcd60e51b815260206004820152601d60248201527f45524332303a20696e73756666696369656e7420616c6c6f77616e63650000006044820152606401610309565b6104f08484848403610358565b50505050565b6001600160a01b03831661055a5760405162461bcd60e51b815260206004820152602560248201527f45524332303a207472616e736665722066726f6d20746865207a65726f206164604482015264647265737360d81b6064820152608401610309565b6001600160a01b0382166105bc5760405162461bcd60e51b815260206004820152602360248201527f45524332303a207472616e7366657220746f20746865207a65726f206164647260448201526265737360e81b6064820152608401610309565b6001600160a01b038316600090815260208190526040902054818110156106345760405162461bcd60e51b815260206004820152602660248201527f45524332303a207472616e7366657220616d6f756e7420657863656564732062604482015265616c616e636560d01b6064820152608401610309565b6001600160a01b0380851660009081526020819052604080822085850390559185168152908120805484929061066b90849061082a565b92505081905550826001600160a01b0316846001600160a01b03167fddf252ad1be2c89b69c2b068fc378daa952ba7f163c4a11628f55a4df523b3ef846040516106b791815260200190565b60405180910390a36104f0565b600060208083528351808285015260005b818110156106f1578581018301518582016040015282016106d5565b81811115610703576000604083870101525b50601f01601f1916929092016040019392505050565b80356001600160a01b038116811461073057600080fd5b919050565b6000806040838503121561074857600080fd5b61075183610719565b946020939093013593505050565b60008060006060848603121561077457600080fd5b61077d84610719565b925061078b60208501610719565b9150604084013590509250925092565b6000602082840312156107ad57600080fd5b6107b682610719565b9392505050565b600080604083850312156107d057600080fd5b6107d983610719565b91506107e760208401610719565b90509250929050565b600181811c9082168061080457607f821691505b60208210810361082457634e487b7160e01b600052602260045260246000fd5b50919050565b6000821982111561084b57634e487b7160e01b600052601160045260246000fd5b50019056fea2646970667358221220a7a706e375c7e8bba03b49053a07eddeea6d336cd779040242ba791e0a91920664736f6c634300080e0033a2646970667358221220f79fda4d435493b30efcdcfc8a296028766bbe6146527fc35dc71d35891bc81164736f6c634300080e0033",
  "linkReferences": {},
  "deployedLinkReferences": {}
}