{
  "_format": "hh-sol-artifact-1",
  "contractName": "SocialTokenFactory",
  "sourceName": "contracts/Social/SocialTokenFactory.sol",
  "abi": [
    {
      "inputs": [
        {
          "internalType": "address",
          "name": "_treasury",
          "type": "address"
        },
        {
          "internalType": "uint256",
          "name": "_initialVirtualEth",
          "type": "uint256"
        },
        {
          "internalType": "address",
          "name": "_uniswapFactory",
          "type": "address"
        },
        {
          "internalType": "address",
          "name": "_weth",
          "type": "address"
        }
      ],
      "stateMutability": "nonpayable",
      "type": "constructor"
    },
    {
      "anonymous": false,
      "inputs": [
        {
          "indexed": true,
          "internalType": "address",
          "name": "token",
          "type": "address"
        },
        {
          "indexed": true,
          "internalType": "address",
          "name": "from",
          "type": "address"
        },
        {
          "indexed": false,
          "internalType": "uint256",
          "name": "recipients",
          "type": "uint256"
        },
        {
          "indexed": false,
          "internalType": "uint256",
          "name": "amountEach",
          "type": "uint256"
        }
      ],
      "name": "Airdropped",
      "type": "event"
    },
    {
      "anonymous": false,
      "inputs": [
        {
          "indexed": true,
          "internalType": "address",
          "name": "token",
          "type": "address"
        },
        {
          "indexed": true,
          "internalType": "address",
          "name": "buyer",
          "type": "address"
        },
        {
          "indexed": false,
          "internalType": "uint256",
          "name": "ethIn",
          "type": "uint256"
        },
        {
          "indexed": false,
          "internalType": "uint256",
          "name": "tokensOut",
          "type": "uint256"
        },
        {
          "indexed": false,
          "internalType": "uint256",
          "name": "fee",
          "type": "uint256"
        },
        {
          "indexed": false,
          "internalType": "uint256",
          "name": "creatorFee",
          "type": "uint256"
        }
      ],
      "name": "Bought",
      "type": "event"
    },
    {
      "anonymous": false,
      "inputs": [
        {
          "indexed": true,
          "internalType": "address",
          "name": "token",
          "type": "address"
        }
      ],
      "name": "CurveComplete",
      "type": "event"
    },
    {
      "anonymous": false,
      "inputs": [
        {
          "indexed": true,
          "internalType": "address",
          "name": "token",
          "type": "address"
        },
        {
          "indexed": true,
          "internalType": "address",
          "name": "seller",
          "type": "address"
        },
        {
          "indexed": false,
          "internalType": "uint256",
          "name": "tokensIn",
          "type": "uint256"
        },
        {
          "indexed": false,
          "internalType": "uint256",
          "name": "ethOut",
          "type": "uint256"
        },
        {
          "indexed": false,
          "internalType": "uint256",
          "name": "fee",
          "type": "uint256"
        },
        {
          "indexed": false,
          "internalType": "uint256",
          "name": "creatorFee",
          "type": "uint256"
        }
      ],
      "name": "Sold",
      "type": "event"
    },
    {
      "anonymous": false,
      "inputs": [
        {
          "indexed": true,
          "internalType": "address",
          "name": "token",
          "type": "address"
        },
        {
          "indexed": true,
          "internalType": "address",
          "name": "pair",
          "type": "address"
        },
        {
          "indexed": false,
          "internalType": "uint256",
          "name": "ethIn",
          "type": "uint256"
        },
        {
          "indexed": false,
          "internalType": "uint256",
          "name": "tokensIn",
          "type": "uint256"
        }
      ],
      "name": "TokenGraduated",
      "type": "event"
    },
    {
      "anonymous": false,
      "inputs": [
        {
          "indexed": true,
          "internalType": "address",
          "name": "token",
          "type": "address"
        },
        {
          "indexed": true,
          "internalType": "address",
          "name": "creator",
          "type": "address"
        },
        {
          "indexed": false,
          "internalType": "string",
          "name": "name",
          "type": "string"
        },
        {
          "indexed": false,
          "internalType": "string",
          "name": "symbol",
          "type": "string"
        },
        {
          "indexed": false,
          "internalType": "bool",
          "name": "airdropEnabled",
          "type": "bool"
        }
      ],
      "name": "TokenLaunched",
      "type": "event"
    },
    {
      "inputs": [],
      "name": "AIRDROP_CUT",
      "outputs": [
        {
          "internalType": "uint256",
          "name": "",
          "type": "uint256"
        }
      ],
      "stateMutability": "view",
      "type": "function"
    },
    {
      "inputs": [],
      "name": "CREATOR_FEE_BPS",
      "outputs": [
        {
          "internalType": "uint16",
          "name": "",
          "type": "uint16"
        }
      ],
      "stateMutability": "view",
      "type": "function"
    },
    {
      "inputs": [],
      "name": "FEE_BPS",
      "outputs": [
        {
          "internalType": "uint16",
          "name": "",
          "type": "uint16"
        }
      ],
      "stateMutability": "view",
      "type": "function"
    },
    {
      "inputs": [],
      "name": "INITIAL_REAL_TOKEN_RESERVES",
      "outputs": [
        {
          "internalType": "uint256",
          "name": "",
          "type": "uint256"
        }
      ],
      "stateMutability": "view",
      "type": "function"
    },
    {
      "inputs": [],
      "name": "INITIAL_VIRTUAL_TOKEN_RESERVES",
      "outputs": [
        {
          "internalType": "uint256",
          "name": "",
          "type": "uint256"
        }
      ],
      "stateMutability": "view",
      "type": "function"
    },
    {
      "inputs": [],
      "name": "TOKEN_TOTAL_SUPPLY",
      "outputs": [
        {
          "internalType": "uint256",
          "name": "",
          "type": "uint256"
        }
      ],
      "stateMutability": "view",
      "type": "function"
    },
    {
      "inputs": [
        {
          "internalType": "address",
          "name": "token",
          "type": "address"
        },
        {
          "internalType": "address[]",
          "name": "recipients",
          "type": "address[]"
        },
        {
          "internalType": "uint256",
          "name": "amountEach",
          "type": "uint256"
        }
      ],
      "name": "airdrop",
      "outputs": [],
      "stateMutability": "nonpayable",
      "type": "function"
    },
    {
      "inputs": [
        {
          "internalType": "uint256",
          "name": "",
          "type": "uint256"
        }
      ],
      "name": "allTokens",
      "outputs": [
        {
          "internalType": "address",
          "name": "",
          "type": "address"
        }
      ],
      "stateMutability": "view",
      "type": "function"
    },
    {
      "inputs": [],
      "name": "allTokensLength",
      "outputs": [
        {
          "internalType": "uint256",
          "name": "",
          "type": "uint256"
        }
      ],
      "stateMutability": "view",
      "type": "function"
    },
    {
      "inputs": [
        {
          "internalType": "address",
          "name": "token",
          "type": "address"
        },
        {
          "internalType": "uint256",
          "name": "minTokensOut",
          "type": "uint256"
        }
      ],
      "name": "buy",
      "outputs": [],
      "stateMutability": "payable",
      "type": "function"
    },
    {
      "inputs": [
        {
          "internalType": "address",
          "name": "",
          "type": "address"
        }
      ],
      "name": "curves",
      "outputs": [
        {
          "internalType": "uint256",
          "name": "virtualTokenReserves",
          "type": "uint256"
        },
        {
          "internalType": "uint256",
          "name": "virtualEthReserves",
          "type": "uint256"
        },
        {
          "internalType": "uint256",
          "name": "realTokenReserves",
          "type": "uint256"
        },
        {
          "internalType": "uint256",
          "name": "realEthReserves",
          "type": "uint256"
        },
        {
          "internalType": "address",
          "name": "creator",
          "type": "address"
        },
        {
          "internalType": "bool",
          "name": "complete",
          "type": "bool"
        },
        {
          "internalType": "bool",
          "name": "airdropEnabled",
          "type": "bool"
        }
      ],
      "stateMutability": "view",
      "type": "function"
    },
    {
      "inputs": [
        {
          "internalType": "address",
          "name": "token",
          "type": "address"
        }
      ],
      "name": "graduate",
      "outputs": [
        {
          "internalType": "address",
          "name": "pair",
          "type": "address"
        }
      ],
      "stateMutability": "nonpayable",
      "type": "function"
    },
    {
      "inputs": [],
      "name": "initialVirtualEth",
      "outputs": [
        {
          "internalType": "uint256",
          "name": "",
          "type": "uint256"
        }
      ],
      "stateMutability": "view",
      "type": "function"
    },
    {
      "inputs": [
        {
          "internalType": "string",
          "name": "name_",
          "type": "string"
        },
        {
          "internalType": "string",
          "name": "symbol_",
          "type": "string"
        },
        {
          "internalType": "bool",
          "name": "enableAirdrop",
          "type": "bool"
        }
      ],
      "name": "launch",
      "outputs": [
        {
          "internalType": "address",
          "name": "token",
          "type": "address"
        }
      ],
      "stateMutability": "payable",
      "type": "function"
    },
    {
      "inputs": [
        {
          "internalType": "address",
          "name": "",
          "type": "address"
        }
      ],
      "name": "pairOf",
      "outputs": [
        {
          "internalType": "address",
          "name": "",
          "type": "address"
        }
      ],
      "stateMutability": "view",
      "type": "function"
    },
    {
      "inputs": [
        {
          "internalType": "address",
          "name": "token",
          "type": "address"
        },
        {
          "internalType": "uint256",
          "name": "ethInAfterFee",
          "type": "uint256"
        }
      ],
      "name": "quoteBuy",
      "outputs": [
        {
          "internalType": "uint256",
          "name": "",
          "type": "uint256"
        }
      ],
      "stateMutability": "view",
      "type": "function"
    },
    {
      "inputs": [
        {
          "internalType": "address",
          "name": "token",
          "type": "address"
        },
        {
          "internalType": "uint256",
          "name": "amount",
          "type": "uint256"
        },
        {
          "internalType": "uint256",
          "name": "minEthOut",
          "type": "uint256"
        }
      ],
      "name": "sell",
      "outputs": [],
      "stateMutability": "nonpayable",
      "type": "function"
    },
    {
      "inputs": [
        {
          "internalType": "address",
          "name": "token",
          "type": "address"
        }
      ],
      "name": "spotPriceWei",
      "outputs": [
        {
          "internalType": "uint256",
          "name": "",
          "type": "uint256"
        }
      ],
      "stateMutability": "view",
      "type": "function"
    },
    {
      "inputs": [
        {
          "internalType": "address",
          "name": "",
          "type": "address"
        }
      ],
      "name": "tokenOf",
      "outputs": [
        {
          "internalType": "address",
          "name": "",
          "type": "address"
        }
      ],
      "stateMutability": "view",
      "type": "function"
    },
    {
      "inputs": [],
      "name": "treasury",
      "outputs": [
        {
          "internalType": "address",
          "name": "",
          "type": "address"
        }
      ],
      "stateMutability": "view",
      "type": "function"
    },
    {
      "inputs": [],
      "name": "uniswapFactory",
      "outputs": [
        {
          "internalType": "address",
          "name": "",
          "type": "address"
        }
      ],
      "stateMutability": "view",
      "type": "function"
    },
    {
      "inputs": [],
      "name": "weth",
      "outputs": [
        {
          "internalType": "address",
          "name": "",
          "type": "address"
        }
      ],
      "stateMutability": "view",
      "type": "function"
    }
  ],
  "bytecode": "0x6101006040523480156200001257600080fd5b5060405162002db038038062002db0833981016040819052620000359162000136565b60016000556001600160a01b03841615801590620000535750600083115b620000925760405162461bcd60e51b815260206004820152600a60248201526962616420706172616d7360b01b60448201526064015b60405180910390fd5b6001600160a01b03821615801590620000b357506001600160a01b03811615155b620000f65760405162461bcd60e51b815260206004820152601260248201527162616420756e697377617020706172616d7360701b604482015260640162000089565b6001600160a01b0393841660805260a092909252821660c0521660e0526200018a565b80516001600160a01b03811681146200013157600080fd5b919050565b600080600080608085870312156200014d57600080fd5b620001588562000119565b9350602085015192506200016f6040860162000119565b91506200017f6060860162000119565b905092959194509250565b60805160a05160c05160e051612ba66200020a6000396000818161025001528181611593015281816116590152818161173001526117b50152600081816103a8015281816115bb01526116810152600081816103340152610ac20152600081816102d9015281816108ec0152818161127701526119410152612ba66000f3fe6080604052600436106200014f5760003560e01c8063a7465bdb11620000b9578063cce7ec131162000078578063cce7ec1314620004af578063dbb80e4214620004c6578063dbe958d814620004dd578063e087323414620004fe578063f26ab5301462000520578063ff6d8d05146200054557600080fd5b8063a7465bdb14620003ef578063ad8760171462000429578063ad902a93146200044b578063bf333f2c146200046d578063cc3cbd2a146200049857600080fd5b8063634282af1162000112578063634282af14620002fb57806365e2093414620003205780636a272462146200035657806385cab537146200037d5780638bdb2afa1462000394578063a1ac727f14620003ca57600080fd5b80630d7a94f614620001545780632cc3dc6e146200018c5780633fc8cef3146200023c57806342ec38e2146200028b57806361d027b314620002c5575b600080fd5b3480156200016157600080fd5b50620001796200017336600462001a40565b6200056a565b6040519081526020015b60405180910390f35b3480156200019957600080fd5b50620001f9620001ab36600462001a6f565b60026020819052600091825260409091208054600182015492820154600383015460049093015491939290916001600160a01b0381169060ff600160a01b8204811691600160a81b90041687565b6040805197885260208801969096529486019390935260608501919091526001600160a01b03166080840152151560a0830152151560c082015260e00162000183565b3480156200024957600080fd5b50620002727f000000000000000000000000000000000000000000000000000000000000000081565b6040516001600160a01b03909116815260200162000183565b3480156200029857600080fd5b5062000272620002aa36600462001a6f565b6003602052600090815260409020546001600160a01b031681565b348015620002d257600080fd5b50620002727f000000000000000000000000000000000000000000000000000000000000000081565b3480156200030857600080fd5b50620002726200031a36600462001a8f565b620005d4565b3480156200032d57600080fd5b50620001797f000000000000000000000000000000000000000000000000000000000000000081565b3480156200036357600080fd5b506200037b6200037536600462001aa9565b620005ff565b005b620002726200038e36600462001b3c565b620009b5565b348015620003a157600080fd5b50620002727f000000000000000000000000000000000000000000000000000000000000000081565b348015620003d757600080fd5b506200037b620003e936600462001bc9565b62000c8b565b348015620003fc57600080fd5b50620002726200040e36600462001a6f565b6001602052600090815260409020546001600160a01b031681565b3480156200043657600080fd5b50620001796b033b2e3c9fd0803ce800000081565b3480156200045857600080fd5b50620001796b029009752660ad62af80000081565b3480156200047a57600080fd5b5062000484606481565b60405161ffff909116815260200162000183565b348015620004a557600080fd5b5062000484600581565b6200037b620004c036600462001a40565b62000e6d565b348015620004d357600080fd5b5060045462000179565b348015620004ea57600080fd5b50620001796a108b2a2c2802909400000081565b3480156200050b57600080fd5b50620001796b037790968dc8efffd100000081565b3480156200052d57600080fd5b50620001796200053f36600462001a6f565b62000eae565b3480156200055257600080fd5b50620002726200056436600462001a6f565b62000f06565b6001600160a01b0382166000908152600260205260408120600181015482906200059690859062001c74565b8254620005a4908662001c8f565b620005b0919062001cb1565b905081600201548111620005c55780620005cb565b81600201545b95945050505050565b60048181548110620005e557600080fd5b6000918252602090912001546001600160a01b0316905081565b6002600054036200062d5760405162461bcd60e51b8152600401620006249062001cd4565b60405180910390fd5b600260008181556001600160a01b038086168252602092909252604090206004810154909116620006725760405162461bcd60e51b8152600401620006249062001d0b565b6004810154600160a01b900460ff1615620006d05760405162461bcd60e51b815260206004820152601c60248201527f677261647561746564202d207472616465206f6e20756e697377617000000000604482015260640162000624565b600083116200070e5760405162461bcd60e51b81526020600482015260096024820152686e6f20746f6b656e7360b81b604482015260640162000624565b80546000906200072090859062001c74565b600183015462000731908662001c8f565b6200073d919062001cb1565b9050816003015481111562000753575060038101545b60006127106200076560648462001c8f565b62000771919062001cb1565b905060006127106200078560058562001c8f565b62000791919062001cb1565b905084620007a0838562001d32565b1015620007db5760405162461bcd60e51b8152602060048201526008602482015267736c69707061676560c01b604482015260640162000624565b85846000016000828254620007f1919062001c74565b92505081905550828460010160008282546200080e919062001d32565b92505081905550828460030160008282546200082b919062001d32565b90915550506040516323b872dd60e01b8152336004820152306024820152604481018790526001600160a01b038816906323b872dd906064016020604051808303816000875af115801562000884573d6000803e3d6000fd5b505050506040513d601f19601f82011682018060405250810190620008aa919062001d4c565b620008e65760405162461bcd60e51b815260206004820152600b60248201526a1c1d5b1b0819985a5b195960aa1b604482015260640162000624565b6200091d7f000000000000000000000000000000000000000000000000000000000000000062000917838562001d32565b62000fdb565b600484015462000937906001600160a01b03168262000fdb565b620009483362000917848662001d32565b336001600160a01b0388167f89bc96e242cf3b1e6040a8f5123c29dbf1e48d876ded5856f1668191a8a7658e8862000981868862001d32565b60408051928352602083019190915281018690526060810185905260800160405180910390a3505060016000555050505050565b6000600260005403620009dc5760405162461bcd60e51b8152600401620006249062001cd4565b60026000558415801590620009f057508215155b62000a355760405162461bcd60e51b81526020600482015260146024820152731b985b594bdcde5b589bdb081c995c5d5a5c995960621b604482015260640162000624565b60008262000a4557600062000a52565b6a108b2a2c280290940000005b9050868686863033866b033b2e3c9fd0803ce800000060405162000a769062001a19565b62000a8998979695949392919062001d95565b604051809103906000f08015801562000aa6573d6000803e3d6000fd5b506040805160e0810182526b037790968dc8efffd100000081527f000000000000000000000000000000000000000000000000000000000000000060208083019182526b029009752660ad62af800000838501908152600060608501818152336080870181815260a088018481528d151560c08a019081526001600160a01b03808d1687526002808a528c88209b518c55995160018c01559651988a019890985592516003808a0191909155905160049098018054935197511515600160a81b0260ff60a81b19981515600160a01b026001600160a81b0319909516998716999099179390931796909616969096179055938452919052919020549193501662000bd35733600090815260036020526040902080546001600160a01b0319166001600160a01b0384161790555b600480546001810182556000919091527f8a35acfbc15ff81a39ae7d344fd709f28e8600b4aa8c65c6b64bfe7fe36bd19b0180546001600160a01b0319166001600160a01b0384169081179091556040513391907f03de023d768bf93890259720a6a37c35c9e9c24ad766108bb3779756c5c4abad9062000c5e908b908b908b908b908b9062001df1565b60405180910390a3341562000c7c5762000c7c82333460006200108a565b50600160005595945050505050565b60026000540362000cb05760405162461bcd60e51b8152600401620006249062001cd4565b6002600055811580159062000cc6575060c88211155b62000d075760405162461bcd60e51b815260206004820152601060248201526f312d32303020726563697069656e747360801b604482015260640162000624565b60005b8281101562000e1b57846001600160a01b03166323b872dd3386868581811062000d385762000d3862001e31565b905060200201602081019062000d4f919062001a6f565b6040516001600160e01b031960e085901b1681526001600160a01b03928316600482015291166024820152604481018590526064016020604051808303816000875af115801562000da4573d6000803e3d6000fd5b505050506040513d601f19601f8201168201806040525081019062000dca919062001d4c565b62000e065760405162461bcd60e51b815260206004820152600b60248201526a1c1d5b1b0819985a5b195960aa1b604482015260640162000624565b8062000e128162001e47565b91505062000d0a565b50604080518381526020810183905233916001600160a01b038716917fe94bf5364ee1292cabede8ab439bbac3cc4a725cb08fa81ec1d00a3c87e606e6910160405180910390a3505060016000555050565b60026000540362000e925760405162461bcd60e51b8152600401620006249062001cd4565b600260005562000ea5823334846200108a565b50506001600055565b6001600160a01b03811660009081526002602052604081208054820362000ed85750600092915050565b8054600182015462000ef390670de0b6b3a764000062001c8f565b62000eff919062001cb1565b9392505050565b600060026000540362000f2d5760405162461bcd60e51b8152600401620006249062001cd4565b600260008181556001600160a01b03808516825260209290925260409020600481015490911662000f725760405162461bcd60e51b8152600401620006249062001d0b565b6004810154600160a01b900460ff1662000fc45760405162461bcd60e51b81526020600482015260126024820152716375727665206e6f7420636f6d706c65746560701b604482015260640162000624565b62000fcf8362001438565b60016000559392505050565b8060000362000fe8575050565b6000826001600160a01b03168260405160006040518083038185875af1925050503d806000811462001037576040519150601f19603f3d011682016040523d82523d6000602084013e6200103c565b606091505b5050905080620010855760405162461bcd60e51b8152602060048201526013602482015272195d1a081d1c985b9cd9995c8819985a5b1959606a1b604482015260640162000624565b505050565b6001600160a01b0380851660009081526002602052604090206004810154909116620010ca5760405162461bcd60e51b8152600401620006249062001d0b565b6004810154600160a01b900460ff1615620011285760405162461bcd60e51b815260206004820152601960248201527f637572766520636f6d706c657465202d20736f6c64206f757400000000000000604482015260640162000624565b60008311620011635760405162461bcd60e51b81526020600482015260066024820152650dcde40cae8d60d31b604482015260640162000624565b60006127106200117560648662001c8f565b62001181919062001cb1565b905060006127106200119560058762001c8f565b620011a1919062001cb1565b90506000620011b1838762001d32565b90506000620011c189836200056a565b905085811015620012005760405162461bcd60e51b8152602060048201526008602482015267736c69707061676560c01b604482015260640162000624565b8185600101600082825462001216919062001c74565b90915550508454819086906000906200123190849062001d32565b92505081905550808560020160008282546200124e919062001d32565b92505081905550818560030160008282546200126b919062001c74565b90915550620012a290507f000000000000000000000000000000000000000000000000000000000000000062000917858762001d32565b6004850154620012bc906001600160a01b03168462000fdb565b60405163a9059cbb60e01b81526001600160a01b038981166004830152602482018390528a169063a9059cbb906044016020604051808303816000875af11580156200130c573d6000803e3d6000fd5b505050506040513d601f19601f8201168201806040525081019062001332919062001d4c565b620013725760405162461bcd60e51b815260206004820152600f60248201526e1d1c985b9cd9995c8819985a5b1959608a1b604482015260640162000624565b6040805183815260208101839052908101859052606081018490526001600160a01b03808a1691908b16907f2683a506cc521e11c368ce9c068585a91786a3cb7ab4089b602eb2835acb16399060800160405180910390a384600201546000036200142d5760048501805460ff60a01b1916600160a01b1790556040516001600160a01b038a16907f393426fce0169456604ad231c1ea7bf1b5009b351b86ad769dca593b74cd3ae390600090a26200142b8962001438565b505b505050505050505050565b6001600160a01b0380821660009081526002602090815260408083206001909252822054919290911615620014a45760405162461bcd60e51b8152602060048201526011602482015270185b1c9958591e4819dc98591d585d1959607a1b604482015260640162000624565b60038101546040516370a0823160e01b81523060048201526000906001600160a01b038616906370a0823190602401602060405180830381865afa158015620014f1573d6000803e3d6000fd5b505050506040513d601f19601f8201168201806040525081019062001517919062001e63565b90506000821180156200152a5750600081115b6200156d5760405162461bcd60e51b81526020600482015260126024820152716e6f7468696e6720746f206d69677261746560701b604482015260640162000624565b6000600384015560405163e6a4390560e01b81526001600160a01b0386811660048301527f0000000000000000000000000000000000000000000000000000000000000000811660248301527f0000000000000000000000000000000000000000000000000000000000000000169063e6a4390590604401602060405180830381865afa15801562001603573d6000803e3d6000fd5b505050506040513d601f19601f8201168201806040525081019062001629919062001e7d565b93506001600160a01b038416620016f4576040516364e329cb60e11b81526001600160a01b0386811660048301527f0000000000000000000000000000000000000000000000000000000000000000811660248301527f0000000000000000000000000000000000000000000000000000000000000000169063c9c65396906044016020604051808303816000875af1158015620016cb573d6000803e3d6000fd5b505050506040513d601f19601f82011682018060405250810190620016f1919062001e7d565b93505b6001600160a01b0385811660009081526001602052604080822080546001600160a01b0319168885161790558051630d0e30db60e41b815290517f00000000000000000000000000000000000000000000000000000000000000009093169263d0e30db09286926004808201939182900301818588803b1580156200177857600080fd5b505af11580156200178d573d6000803e3d6000fd5b505060405163a9059cbb60e01b81526001600160a01b038881166004830152602482018790527f000000000000000000000000000000000000000000000000000000000000000016935063a9059cbb925060440190506020604051808303816000875af115801562001803573d6000803e3d6000fd5b505050506040513d601f19601f8201168201806040525081019062001829919062001d4c565b6200186e5760405162461bcd60e51b81526020600482015260146024820152731dd95d1a081d1c985b9cd9995c8819985a5b195960621b604482015260640162000624565b60405163a9059cbb60e01b81526001600160a01b0385811660048301526024820183905286169063a9059cbb906044016020604051808303816000875af1158015620018be573d6000803e3d6000fd5b505050506040513d601f19601f82011682018060405250810190620018e4919062001d4c565b6200192a5760405162461bcd60e51b81526020600482015260156024820152741d1bdad95b881d1c985b9cd9995c8819985a5b1959605a1b604482015260640162000624565b6040516335313c2160e11b81526001600160a01b037f000000000000000000000000000000000000000000000000000000000000000081166004830152851690636a627842906024016020604051808303816000875af115801562001993573d6000803e3d6000fd5b505050506040513d601f19601f82011682018060405250810190620019b9919062001e63565b50836001600160a01b0316856001600160a01b03167f5d5e32a9db9d7b2e8a648cbabb24e8b703a4581f3c2a8d7a888671cedc308ccf848460405162001a09929190918252602082015260400190565b60405180910390a3505050919050565b610cd38062001e9e83390190565b6001600160a01b038116811462001a3d57600080fd5b50565b6000806040838503121562001a5457600080fd5b823562001a618162001a27565b946020939093013593505050565b60006020828403121562001a8257600080fd5b813562000eff8162001a27565b60006020828403121562001aa257600080fd5b5035919050565b60008060006060848603121562001abf57600080fd5b833562001acc8162001a27565b95602085013595506040909401359392505050565b60008083601f84011262001af457600080fd5b50813567ffffffffffffffff81111562001b0d57600080fd5b60208301915083602082850101111562001b2657600080fd5b9250929050565b801515811462001a3d57600080fd5b60008060008060006060868803121562001b5557600080fd5b853567ffffffffffffffff8082111562001b6e57600080fd5b62001b7c89838a0162001ae1565b9097509550602088013591508082111562001b9657600080fd5b5062001ba58882890162001ae1565b909450925050604086013562001bbb8162001b2d565b809150509295509295909350565b6000806000806060858703121562001be057600080fd5b843562001bed8162001a27565b9350602085013567ffffffffffffffff8082111562001c0b57600080fd5b818701915087601f83011262001c2057600080fd5b81358181111562001c3057600080fd5b8860208260051b850101111562001c4657600080fd5b95986020929092019750949560400135945092505050565b634e487b7160e01b600052601160045260246000fd5b6000821982111562001c8a5762001c8a62001c5e565b500190565b600081600019048311821515161562001cac5762001cac62001c5e565b500290565b60008262001ccf57634e487b7160e01b600052601260045260246000fd5b500490565b6020808252601f908201527f5265656e7472616e637947756172643a207265656e7472616e742063616c6c00604082015260600190565b6020808252600d908201526c3ab735b737bbb7103a37b5b2b760991b604082015260600190565b60008282101562001d475762001d4762001c5e565b500390565b60006020828403121562001d5f57600080fd5b815162000eff8162001b2d565b81835281816020850137506000828201602090810191909152601f909101601f19169091010190565b60c08152600062001dab60c083018a8c62001d6c565b828103602084015262001dc081898b62001d6c565b6001600160a01b03978816604085015295909616606083015250608081019290925260a09091015295945050505050565b60608152600062001e0760608301878962001d6c565b828103602084015262001e1c81868862001d6c565b91505082151560408301529695505050505050565b634e487b7160e01b600052603260045260246000fd5b60006001820162001e5c5762001e5c62001c5e565b5060010190565b60006020828403121562001e7657600080fd5b5051919050565b60006020828403121562001e9057600080fd5b815162000eff8162001a2756fe60806040523480156200001157600080fd5b5060405162000cd338038062000cd3833981016040819052620000349162000315565b8551869086906200004d90600390602085019062000185565b5080516200006390600490602084019062000185565b5050821590506200007a576200007a83836200009d565b62000091846200008b8484620003cc565b6200009d565b5050505050506200043d565b6001600160a01b038216620000f85760405162461bcd60e51b815260206004820152601f60248201527f45524332303a206d696e7420746f20746865207a65726f206164647265737300604482015260640160405180910390fd5b80600260008282546200010c9190620003e6565b90915550506001600160a01b038216600090815260208190526040812080548392906200013b908490620003e6565b90915550506040518181526001600160a01b038316906000907fddf252ad1be2c89b69c2b068fc378daa952ba7f163c4a11628f55a4df523b3ef9060200160405180910390a35050565b828054620001939062000401565b90600052602060002090601f016020900481019282620001b7576000855562000202565b82601f10620001d257805160ff191683800117855562000202565b8280016001018555821562000202579182015b8281111562000202578251825591602001919060010190620001e5565b506200021092915062000214565b5090565b5b8082111562000210576000815560010162000215565b634e487b7160e01b600052604160045260246000fd5b600082601f8301126200025357600080fd5b81516001600160401b03808211156200027057620002706200022b565b604051601f8301601f19908116603f011681019082821181831017156200029b576200029b6200022b565b81604052838152602092508683858801011115620002b857600080fd5b600091505b83821015620002dc5785820183015181830184015290820190620002bd565b83821115620002ee5760008385830101525b9695505050505050565b80516001600160a01b03811681146200031057600080fd5b919050565b60008060008060008060c087890312156200032f57600080fd5b86516001600160401b03808211156200034757600080fd5b620003558a838b0162000241565b975060208901519150808211156200036c57600080fd5b506200037b89828a0162000241565b9550506200038c60408801620002f8565b93506200039c60608801620002f8565b92506080870151915060a087015190509295509295509295565b634e487b7160e01b600052601160045260246000fd5b600082821015620003e157620003e1620003b6565b500390565b60008219821115620003fc57620003fc620003b6565b500190565b600181811c908216806200041657607f821691505b6020821081036200043757634e487b7160e01b600052602260045260246000fd5b50919050565b610886806200044d6000396000f3fe608060405234801561001057600080fd5b50600436106100a95760003560e01c80633950935111610071578063395093511461012357806370a082311461013657806395d89b411461015f578063a457c2d714610167578063a9059cbb1461017a578063dd62ed3e1461018d57600080fd5b806306fdde03146100ae578063095ea7b3146100cc57806318160ddd146100ef57806323b872dd14610101578063313ce56714610114575b600080fd5b6100b66101a0565b6040516100c391906106c4565b60405180910390f35b6100df6100da366004610735565b610232565b60405190151581526020016100c3565b6002545b6040519081526020016100c3565b6100df61010f36600461075f565b61024a565b604051601281526020016100c3565b6100df610131366004610735565b61026e565b6100f361014436600461079b565b6001600160a01b031660009081526020819052604090205490565b6100b6610290565b6100df610175366004610735565b61029f565b6100df610188366004610735565b61031f565b6100f361019b3660046107bd565b61032d565b6060600380546101af906107f0565b80601f01602080910402602001604051908101604052809291908181526020018280546101db906107f0565b80156102285780601f106101fd57610100808354040283529160200191610228565b820191906000526020600020905b81548152906001019060200180831161020b57829003601f168201915b5050505050905090565b600033610240818585610358565b5060019392505050565b60003361025885828561047c565b6102638585856104f6565b506001949350505050565b600033610240818585610281838361032d565b61028b919061082a565b610358565b6060600480546101af906107f0565b600033816102ad828661032d565b9050838110156103125760405162461bcd60e51b815260206004820152602560248201527f45524332303a2064656372656173656420616c6c6f77616e63652062656c6f77604482015264207a65726f60d81b60648201526084015b60405180910390fd5b6102638286868403610358565b6000336102408185856104f6565b6001600160a01b03918216600090815260016020908152604080832093909416825291909152205490565b6001600160a01b0383166103ba5760405162461bcd60e51b8152602060048201526024808201527f45524332303a20617070726f76652066726f6d20746865207a65726f206164646044820152637265737360e01b6064820152608401610309565b6001600160a01b03821661041b5760405162461bcd60e51b815260206004820152602260248201527f45524332303a20617070726f766520746f20746865207a65726f206164647265604482015261737360f01b6064820152608401610309565b6001600160a01b0383811660008181526001602090815260408083209487168084529482529182902085905590518481527f8c5be1e5ebec7d5bd14f71427d1e84f3dd0314c0f7b2291e5b200ac8c7c3b925910160405180910390a3505050565b6000610488848461032d565b905060001981146104f057818110156104e35760405162461bcd60e51b815260206004820152601d60248201527f45524332303a20696e73756666696369656e7420616c6c6f77616e63650000006044820152606401610309565b6104f08484848403610358565b50505050565b6001600160a01b03831661055a5760405162461bcd60e51b815260206004820152602560248201527f45524332303a207472616e736665722066726f6d20746865207a65726f206164604482015264647265737360d81b6064820152608401610309565b6001600160a01b0382166105bc5760405162461bcd60e51b815260206004820152602360248201527f45524332303a207472616e7366657220746f20746865207a65726f206164647260448201526265737360e81b6064820152608401610309565b6001600160a01b038316600090815260208190526040902054818110156106345760405162461bcd60e51b815260206004820152602660248201527f45524332303a207472616e7366657220616d6f756e7420657863656564732062604482015265616c616e636560d01b6064820152608401610309565b6001600160a01b0380851660009081526020819052604080822085850390559185168152908120805484929061066b90849061082a565b92505081905550826001600160a01b0316846001600160a01b03167fddf252ad1be2c89b69c2b068fc378daa952ba7f163c4a11628f55a4df523b3ef846040516106b791815260200190565b60405180910390a36104f0565b600060208083528351808285015260005b818110156106f1578581018301518582016040015282016106d5565b81811115610703576000604083870101525b50601f01601f1916929092016040019392505050565b80356001600160a01b038116811461073057600080fd5b919050565b6000806040838503121561074857600080fd5b61075183610719565b946020939093013593505050565b60008060006060848603121561077457600080fd5b61077d84610719565b925061078b60208501610719565b9150604084013590509250925092565b6000602082840312156107ad57600080fd5b6107b682610719565b9392505050565b600080604083850312156107d057600080fd5b6107d983610719565b91506107e760208401610719565b90509250929050565b600181811c9082168061080457607f821691505b60208210810361082457634e487b7160e01b600052602260045260246000fd5b50919050565b6000821982111561084b57634e487b7160e01b600052601160045260246000fd5b50019056fea2646970667358221220a9e919f6048a2a88c6551ab3ec60aa27afd01468ab2b97a442208c6e775b328e64736f6c634300080e0033a26469706673582212206fbc78d868c0198bd9cb33734828b72f7d6c60e651fc7ec3c907b49d8ce8e52f64736f6c634300080e0033",
  "linkReferences": {},
  "deployedLinkReferences": {}
}