{
  "_format": "hh-sol-artifact-1",
  "contractName": "SageCollection",
  "sourceName": "contracts/Collection/SageCollection.sol",
  "abi": [
    {
      "inputs": [
        {
          "internalType": "address",
          "name": "_sageStorage",
          "type": "address"
        },
        {
          "internalType": "address",
          "name": "_token",
          "type": "address"
        }
      ],
      "stateMutability": "nonpayable",
      "type": "constructor"
    },
    {
      "anonymous": false,
      "inputs": [
        {
          "indexed": true,
          "internalType": "uint256",
          "name": "id",
          "type": "uint256"
        },
        {
          "indexed": true,
          "internalType": "address",
          "name": "nftContract",
          "type": "address"
        }
      ],
      "name": "CollectionCreated",
      "type": "event"
    },
    {
      "anonymous": false,
      "inputs": [
        {
          "indexed": true,
          "internalType": "address",
          "name": "user",
          "type": "address"
        },
        {
          "indexed": true,
          "internalType": "uint256",
          "name": "id",
          "type": "uint256"
        },
        {
          "indexed": false,
          "internalType": "uint256",
          "name": "amount",
          "type": "uint256"
        },
        {
          "indexed": false,
          "internalType": "uint256",
          "name": "firstIndex",
          "type": "uint256"
        }
      ],
      "name": "CollectionMint",
      "type": "event"
    },
    {
      "anonymous": false,
      "inputs": [
        {
          "indexed": false,
          "internalType": "address",
          "name": "account",
          "type": "address"
        }
      ],
      "name": "Paused",
      "type": "event"
    },
    {
      "anonymous": false,
      "inputs": [
        {
          "indexed": false,
          "internalType": "address",
          "name": "account",
          "type": "address"
        }
      ],
      "name": "Unpaused",
      "type": "event"
    },
    {
      "inputs": [
        {
          "internalType": "uint256",
          "name": "",
          "type": "uint256"
        }
      ],
      "name": "collectionArtistShare",
      "outputs": [
        {
          "internalType": "uint256",
          "name": "",
          "type": "uint256"
        }
      ],
      "stateMutability": "view",
      "type": "function"
    },
    {
      "inputs": [
        {
          "internalType": "uint256",
          "name": "",
          "type": "uint256"
        }
      ],
      "name": "collections",
      "outputs": [
        {
          "internalType": "uint32",
          "name": "startTime",
          "type": "uint32"
        },
        {
          "internalType": "uint32",
          "name": "closeTime",
          "type": "uint32"
        },
        {
          "internalType": "uint32",
          "name": "maxSupply",
          "type": "uint32"
        },
        {
          "internalType": "uint32",
          "name": "mintCount",
          "type": "uint32"
        },
        {
          "internalType": "uint32",
          "name": "limitPerUser",
          "type": "uint32"
        },
        {
          "internalType": "string",
          "name": "baseUri",
          "type": "string"
        },
        {
          "internalType": "contract INFT",
          "name": "nftContract",
          "type": "address"
        },
        {
          "internalType": "contract IWhitelist",
          "name": "whitelist",
          "type": "address"
        },
        {
          "internalType": "uint256",
          "name": "costTokens",
          "type": "uint256"
        },
        {
          "internalType": "uint256",
          "name": "id",
          "type": "uint256"
        }
      ],
      "stateMutability": "view",
      "type": "function"
    },
    {
      "inputs": [
        {
          "components": [
            {
              "internalType": "uint32",
              "name": "startTime",
              "type": "uint32"
            },
            {
              "internalType": "uint32",
              "name": "closeTime",
              "type": "uint32"
            },
            {
              "internalType": "uint32",
              "name": "maxSupply",
              "type": "uint32"
            },
            {
              "internalType": "uint32",
              "name": "mintCount",
              "type": "uint32"
            },
            {
              "internalType": "uint32",
              "name": "limitPerUser",
              "type": "uint32"
            },
            {
              "internalType": "string",
              "name": "baseUri",
              "type": "string"
            },
            {
              "internalType": "contract INFT",
              "name": "nftContract",
              "type": "address"
            },
            {
              "internalType": "contract IWhitelist",
              "name": "whitelist",
              "type": "address"
            },
            {
              "internalType": "uint256",
              "name": "costTokens",
              "type": "uint256"
            },
            {
              "internalType": "uint256",
              "name": "id",
              "type": "uint256"
            }
          ],
          "internalType": "struct SageCollection.Collection",
          "name": "c",
          "type": "tuple"
        }
      ],
      "name": "createCollection",
      "outputs": [],
      "stateMutability": "nonpayable",
      "type": "function"
    },
    {
      "inputs": [
        {
          "internalType": "uint256",
          "name": "_id",
          "type": "uint256"
        }
      ],
      "name": "getCollection",
      "outputs": [
        {
          "components": [
            {
              "internalType": "uint32",
              "name": "startTime",
              "type": "uint32"
            },
            {
              "internalType": "uint32",
              "name": "closeTime",
              "type": "uint32"
            },
            {
              "internalType": "uint32",
              "name": "maxSupply",
              "type": "uint32"
            },
            {
              "internalType": "uint32",
              "name": "mintCount",
              "type": "uint32"
            },
            {
              "internalType": "uint32",
              "name": "limitPerUser",
              "type": "uint32"
            },
            {
              "internalType": "string",
              "name": "baseUri",
              "type": "string"
            },
            {
              "internalType": "contract INFT",
              "name": "nftContract",
              "type": "address"
            },
            {
              "internalType": "contract IWhitelist",
              "name": "whitelist",
              "type": "address"
            },
            {
              "internalType": "uint256",
              "name": "costTokens",
              "type": "uint256"
            },
            {
              "internalType": "uint256",
              "name": "id",
              "type": "uint256"
            }
          ],
          "internalType": "struct SageCollection.Collection",
          "name": "",
          "type": "tuple"
        }
      ],
      "stateMutability": "view",
      "type": "function"
    },
    {
      "inputs": [
        {
          "internalType": "uint256",
          "name": "_id",
          "type": "uint256"
        }
      ],
      "name": "getMintCount",
      "outputs": [
        {
          "internalType": "uint32",
          "name": "",
          "type": "uint32"
        }
      ],
      "stateMutability": "view",
      "type": "function"
    },
    {
      "inputs": [
        {
          "internalType": "uint256",
          "name": "_id",
          "type": "uint256"
        },
        {
          "internalType": "uint256",
          "name": "_amount",
          "type": "uint256"
        }
      ],
      "name": "mint",
      "outputs": [],
      "stateMutability": "nonpayable",
      "type": "function"
    },
    {
      "inputs": [
        {
          "internalType": "uint256",
          "name": "",
          "type": "uint256"
        },
        {
          "internalType": "address",
          "name": "",
          "type": "address"
        }
      ],
      "name": "mintedByUser",
      "outputs": [
        {
          "internalType": "uint256",
          "name": "",
          "type": "uint256"
        }
      ],
      "stateMutability": "view",
      "type": "function"
    },
    {
      "inputs": [],
      "name": "pause",
      "outputs": [],
      "stateMutability": "nonpayable",
      "type": "function"
    },
    {
      "inputs": [],
      "name": "paused",
      "outputs": [
        {
          "internalType": "bool",
          "name": "",
          "type": "bool"
        }
      ],
      "stateMutability": "view",
      "type": "function"
    },
    {
      "inputs": [
        {
          "internalType": "uint256",
          "name": "_id",
          "type": "uint256"
        },
        {
          "internalType": "uint256",
          "name": "_shareBps",
          "type": "uint256"
        }
      ],
      "name": "setCollectionArtistShare",
      "outputs": [],
      "stateMutability": "nonpayable",
      "type": "function"
    },
    {
      "inputs": [
        {
          "internalType": "uint256",
          "name": "_id",
          "type": "uint256"
        },
        {
          "internalType": "address",
          "name": "_whitelist",
          "type": "address"
        }
      ],
      "name": "setWhitelist",
      "outputs": [],
      "stateMutability": "nonpayable",
      "type": "function"
    },
    {
      "inputs": [],
      "name": "token",
      "outputs": [
        {
          "internalType": "contract IERC20",
          "name": "",
          "type": "address"
        }
      ],
      "stateMutability": "view",
      "type": "function"
    },
    {
      "inputs": [],
      "name": "unpause",
      "outputs": [],
      "stateMutability": "nonpayable",
      "type": "function"
    }
  ],
  "bytecode": "0x60806040523480156200001157600080fd5b5060405162001f8538038062001f8583398101604081905262000034916200008c565b600080546001600160a81b0319166101006001600160a01b0394851602179055600180546001600160a01b03191691909216179055620000c4565b80516001600160a01b03811681146200008757600080fd5b919050565b60008060408385031215620000a057600080fd5b620000ab836200006f565b9150620000bb602084016200006f565b90509250929050565b611eb180620000d46000396000f3fe608060405234801561001057600080fd5b50600436106100cf5760003560e01c80638456cb591161008c578063db09a3f511610066578063db09a3f5146101aa578063db6459fe146101ec578063fc0c546a1461020c578063fdbda0ec1461023757600080fd5b80638456cb591461017c578063b9239e9a14610184578063d89da2861461019757600080fd5b80631b2ef1ca146100d45780633f4ba83a146100e95780635a1f3c28146100f15780635c975abb1461011a57806363c060aa1461013057806368cad29514610169575b600080fd5b6100e76100e2366004611623565b610260565b005b6100e7610934565b6101046100ff366004611645565b6109de565b60405161011191906116ba565b60405180910390f35b60005460ff166040519015158152602001610111565b61015b61013e3660046117ab565b600260209081526000928352604080842090915290825290205481565b604051908152602001610111565b6100e7610177366004611623565b610b66565b6100e7610cbb565b6100e76101923660046117db565b610d63565b6100e76101a53660046117ab565b610fd8565b6101d76101b8366004611645565b600090815260036020526040902054600160601b900463ffffffff1690565b60405163ffffffff9091168152602001610111565b61015b6101fa366004611645565b60046020526000908152604090205481565b60015461021f906001600160a01b031681565b6040516001600160a01b039091168152602001610111565b61024a610245366004611645565b6110ab565b6040516101119a9998979695949392919061181e565b6102686111a9565b600081116102ac5760405162461bcd60e51b815260206004820152600c60248201526b043616e2774206d696e7420360a41b60448201526064015b60405180910390fd5b600082815260036020526040902080544263ffffffff909116118015906102f957508054640100000000900463ffffffff1615806102f9575080544264010000000090910463ffffffff16115b6103305760405162461bcd60e51b81526020600482015260086024820152672737ba1037b832b760c11b60448201526064016102a3565b805463ffffffff600160401b8204811691610354918591600160601b9004166118ab565b111561039b5760405162461bcd60e51b8152602060048201526016602482015275139bdd08195b9bdd59da081cdd5c1c1b1e481b19599d60521b60448201526064016102a3565b6040805161014081018252825463ffffffff8082168352640100000000820481166020840152600160401b8204811693830193909352600160601b810483166060830152600160801b900490911660808201526001820180546104c69291849160a08401919061040a906118c3565b80601f0160208091040260200160405190810160405280929190818152602001828054610436906118c3565b80156104835780601f1061045857610100808354040283529160200191610483565b820191906000526020600020905b81548152906001019060200180831161046657829003601f168201915b505050918352505060028201546001600160a01b0390811660208301526003830154166040820152600482015460608201526005909101546080909101526111ef565b8054600160801b900463ffffffff16156105525780546000848152600260209081526040808320338452909152902054600160801b90910463ffffffff169061050f90846118ab565b11156105525760405162461bcd60e51b8152602060048201526012602482015271135a5b9d081b1a5b5a5d081c995858da195960721b60448201526064016102a3565b60008381526002602090815260408083203384529091528120805484929061057b9084906118ab565b9091555050805460009061059d90600160601b900463ffffffff1660016118fd565b825463ffffffff918216925084918491600c916105c4918591600160601b909104166118fd565b92506101000a81548163ffffffff021916908363ffffffff16021790555060008383600401546105f49190611925565b90508015610838576000858152600460205260408120549081900361061e5761061b6112b4565b90505b600061271061062d8385611925565b610637919061195a565b6001546002870154604080516321de0b0960e11b815290519394506001600160a01b03928316936323b872dd93339316916343bc16129160048083019260209291908290030181865afa158015610692573d6000803e3d6000fd5b505050506040513d601f19601f820116820180604052508101906106b6919061196e565b6040516001600160e01b031960e085901b1681526001600160a01b03928316600482015291166024820152604481018490526064016020604051808303816000875af115801561070a573d6000803e3d6000fd5b505050506040513d601f19601f8201168201806040525081019061072e919061198b565b5060015460005460408051634783c35b60e01b815290516001600160a01b03938416936323b872dd93339361010090910490911691634783c35b916004808201926020929091908290030181865afa15801561078e573d6000803e3d6000fd5b505050506040513d601f19601f820116820180604052508101906107b2919061196e565b6107bc85886119ad565b6040516001600160e01b031960e086901b1681526001600160a01b03938416600482015292909116602483015260448201526064016020604051808303816000875af1158015610810573d6000803e3d6000fd5b505050506040513d601f19601f82011682018060405250810190610834919061198b565b5050505b60005b848110156108ef5760028401546001600160a01b031663d204c45e336001870161086d61086886896118ab565b611442565b60405160200161087e9291906119c4565b6040516020818303038152906040526040518363ffffffff1660e01b81526004016108aa929190611a57565b600060405180830381600087803b1580156108c457600080fd5b505af11580156108d8573d6000803e3d6000fd5b5050505080806108e790611a7b565b91505061083b565b506040805185815260208101849052869133917ff8686c1077035ddebc5a87f1379b31a4832835fcac14765d41d82d4ec0b5e2d4910160405180910390a35050505050565b600054604051632474521560e21b8152600080516020611e5c83398151915260048201523360248201526101009091046001600160a01b0316906391d1485490604401602060405180830381865afa158015610994573d6000803e3d6000fd5b505050506040513d601f19601f820116820180604052508101906109b8919061198b565b6109d45760405162461bcd60e51b81526004016102a390611a94565b6109dc61154b565b565b604080516101408101825260008082526020820181905291810182905260608082018390526080820183905260a082015260c0810182905260e081018290526101008101829052610120810191909152600082815260036020908152604091829020825161014081018452815463ffffffff80821683526401000000008204811694830194909452600160401b8104841694820194909452600160601b840483166060820152600160801b909304909116608083015260018101805460a084019190610aa9906118c3565b80601f0160208091040260200160405190810160405280929190818152602001828054610ad5906118c3565b8015610b225780601f10610af757610100808354040283529160200191610b22565b820191906000526020600020905b815481529060010190602001808311610b0557829003601f168201915b505050918352505060028201546001600160a01b03908116602083015260038301541660408201526004820154606082015260059091015460809091015292915050565b600054604051632474521560e21b8152600080516020611e5c83398151915260048201523360248201526101009091046001600160a01b0316906391d1485490604401602060405180830381865afa158015610bc6573d6000803e3d6000fd5b505050506040513d601f19601f82011682018060405250810190610bea919061198b565b610c065760405162461bcd60e51b81526004016102a390611a94565b612710811115610c485760405162461bcd60e51b815260206004820152600d60248201526c496e76616c696420736861726560981b60448201526064016102a3565b60008281526003602052604090205463ffffffff16610ca95760405162461bcd60e51b815260206004820152601860248201527f436f6c6c656374696f6e20646f65736e2774206578697374000000000000000060448201526064016102a3565b60009182526004602052604090912055565b600054604051632474521560e21b8152600080516020611e5c83398151915260048201523360248201526101009091046001600160a01b0316906391d1485490604401602060405180830381865afa158015610d1b573d6000803e3d6000fd5b505050506040513d601f19601f82011682018060405250810190610d3f919061198b565b610d5b5760405162461bcd60e51b81526004016102a390611a94565b6109dc61159d565b600054604051632474521560e21b8152600080516020611e5c83398151915260048201523360248201526101009091046001600160a01b0316906391d1485490604401602060405180830381865afa158015610dc3573d6000803e3d6000fd5b505050506040513d601f19601f82011682018060405250810190610de7919061198b565b610e035760405162461bcd60e51b81526004016102a390611a94565b6000610e126020830183611ad0565b63ffffffff16118015610e685750610e306040820160208301611ad0565b63ffffffff161580610e685750610e4a6020820182611ad0565b63ffffffff16610e606040830160208401611ad0565b63ffffffff16115b610ea45760405162461bcd60e51b815260206004820152600d60248201526c496e76616c69642074696d657360981b60448201526064016102a3565b6000610eb66060830160408401611ad0565b63ffffffff1611610efa5760405162461bcd60e51b815260206004820152600e60248201526d496e76616c696420737570706c7960901b60448201526064016102a3565b6000610f0960a0830183611aed565b905011610f4a5760405162461bcd60e51b815260206004820152600f60248201526e496e76616c6964206261736555726960881b60448201526064016102a3565b61012081013560009081526003602052604090208190610f6a8282611ca1565b905050610f756112b4565b610120820135600090815260046020526040902055610f9a60e0820160c08301611dfb565b6001600160a01b03168161012001357f18c1b1c8856053698af995ce4384c0f661562c52a65d6dd29b910849d5e1bfca60405160405180910390a350565b600054604051632474521560e21b8152600080516020611e5c83398151915260048201523360248201526101009091046001600160a01b0316906391d1485490604401602060405180830381865afa158015611038573d6000803e3d6000fd5b505050506040513d601f19601f8201168201806040525081019061105c919061198b565b6110785760405162461bcd60e51b81526004016102a390611a94565b600091825260036020819052604090922090910180546001600160a01b0319166001600160a01b03909216919091179055565b6003602052600090815260409020805460018201805463ffffffff808416946401000000008504821694600160401b8104831694600160601b8204841694600160801b90920490931692906110ff906118c3565b80601f016020809104026020016040519081016040528092919081815260200182805461112b906118c3565b80156111785780601f1061114d57610100808354040283529160200191611178565b820191906000526020600020905b81548152906001019060200180831161115b57829003601f168201915b5050505060028301546003840154600485015460059095015493946001600160a01b0392831694929091169250908a565b60005460ff16156109dc5760405162461bcd60e51b815260206004820152601060248201526f14185d5cd8589b194e881c185d5cd95960821b60448201526064016102a3565b60e08101516001600160a01b038116156112b0576040516320c18e6b60e21b8152336004820152600060248201526001600160a01b0382169063830639ac90604401602060405180830381865afa15801561124e573d6000803e3d6000fd5b505050506040513d601f19601f82011682018060405250810190611272919061198b565b6112b05760405162461bcd60e51b815260206004820152600f60248201526e139bdd081dda1a5d195b1a5cdd1959608a1b60448201526064016102a3565b5050565b600080546040516d616464726573732e636f6e66696760901b6020820152829161010090046001600160a01b0316906321f8a72190602e01604051602081830303815290604052805190602001206040518263ffffffff1660e01b815260040161132091815260200190565b602060405180830381865afa15801561133d573d6000803e3d6000fd5b505050506040513d601f19601f82011682018060405250810190611361919061196e565b90506001600160a01b03811661137a57611f4091505090565b6000816001600160a01b031663bd02d0f56040516020016113b490721cda185c994b9c1c9a5b585c9e505c9d1a5cdd606a1b815260130190565b604051602081830303815290604052805190602001206040518263ffffffff1660e01b81526004016113e891815260200190565b602060405180830381865afa158015611405573d6000803e3d6000fd5b505050506040513d601f19601f820116820180604052508101906114299190611e18565b90508015611437578061143b565b611f405b9250505090565b6060816000036114695750506040805180820190915260018152600360fc1b602082015290565b8160005b8115611493578061147d81611a7b565b915061148c9050600a8361195a565b915061146d565b60008167ffffffffffffffff8111156114ae576114ae611b4e565b6040519080825280601f01601f1916602001820160405280156114d8576020820181803683370190505b5090505b8415611543576114ed6001836119ad565b91506114fa600a86611e31565b6115059060306118ab565b60f81b81838151811061151a5761151a611e45565b60200101906001600160f81b031916908160001a90535061153c600a8661195a565b94506114dc565b949350505050565b6115536115da565b6000805460ff191690557f5db9ee0a495bf2e6ff9c91a7834c1ba4fdd244a5e8aa4e537bd38aeae4b073aa335b6040516001600160a01b03909116815260200160405180910390a1565b6115a56111a9565b6000805460ff191660011790557f62e78cea01bee320cd4e420270b5ea74000d11b0c9f74754ebdbfc544b05a2586115803390565b60005460ff166109dc5760405162461bcd60e51b815260206004820152601460248201527314185d5cd8589b194e881b9bdd081c185d5cd95960621b60448201526064016102a3565b6000806040838503121561163657600080fd5b50508035926020909101359150565b60006020828403121561165757600080fd5b5035919050565b60005b83811015611679578181015183820152602001611661565b83811115611688576000848401525b50505050565b600081518084526116a681602086016020860161165e565b601f01601f19169290920160200192915050565b602081526116d160208201835163ffffffff169052565b600060208301516116ea604084018263ffffffff169052565b50604083015163ffffffff8116606084015250606083015163ffffffff8116608084015250608083015163ffffffff811660a08401525060a08301516101408060c085015261173d61016085018361168e565b915060c085015161175960e08601826001600160a01b03169052565b5060e0850151610100611776818701836001600160a01b03169052565b860151610120868101919091529095015193019290925250919050565b6001600160a01b03811681146117a857600080fd5b50565b600080604083850312156117be57600080fd5b8235915060208301356117d081611793565b809150509250929050565b6000602082840312156117ed57600080fd5b813567ffffffffffffffff81111561180457600080fd5b8201610140818503121561181757600080fd5b9392505050565b600061014063ffffffff808e168452808d166020850152808c166040850152808b166060850152808a166080850152508060a08401526118608184018961168e565b6001600160a01b0397881660c08501529590961660e08301525061010081019290925261012090910152979650505050505050565b634e487b7160e01b600052601160045260246000fd5b600082198211156118be576118be611895565b500190565b600181811c908216806118d757607f821691505b6020821081036118f757634e487b7160e01b600052602260045260246000fd5b50919050565b600063ffffffff80831681851680830382111561191c5761191c611895565b01949350505050565b600081600019048311821515161561193f5761193f611895565b500290565b634e487b7160e01b600052601260045260246000fd5b60008261196957611969611944565b500490565b60006020828403121561198057600080fd5b815161181781611793565b60006020828403121561199d57600080fd5b8151801515811461181757600080fd5b6000828210156119bf576119bf611895565b500390565b60008084546119d2816118c3565b600182811680156119ea57600181146119fb57611a2a565b60ff19841687528287019450611a2a565b8860005260208060002060005b85811015611a215781548a820152908401908201611a08565b50505082870194505b505050508351611a3e81836020880161165e565b64173539b7b760d91b9101908152600501949350505050565b6001600160a01b03831681526040602082018190526000906115439083018461168e565b600060018201611a8d57611a8d611895565b5060010190565b60208082526010908201526f41646d696e2063616c6c73206f6e6c7960801b604082015260600190565b63ffffffff811681146117a857600080fd5b600060208284031215611ae257600080fd5b813561181781611abe565b6000808335601e19843603018112611b0457600080fd5b83018035915067ffffffffffffffff821115611b1f57600080fd5b602001915036819003821315611b3457600080fd5b9250929050565b60008135611b4881611abe565b92915050565b634e487b7160e01b600052604160045260246000fd5b601f821115611bae57600081815260208120601f850160051c81016020861015611b8b5750805b601f850160051c820191505b81811015611baa57828155600101611b97565b5050505b505050565b67ffffffffffffffff831115611bcb57611bcb611b4e565b611bdf83611bd983546118c3565b83611b64565b6000601f841160018114611c135760008515611bfb5750838201355b600019600387901b1c1916600186901b178355611c6d565b600083815260209020601f19861690835b82811015611c445786850135825560209485019460019092019101611c24565b5086821015611c615760001960f88860031b161c19848701351681555b505060018560011b0183555b5050505050565b60008135611b4881611793565b80546001600160a01b0319166001600160a01b0392909216919091179055565b611cc4611cad83611b3b565b825463ffffffff191663ffffffff91909116178255565b611cf5611cd360208401611b3b565b825467ffffffff00000000191660209190911b67ffffffff0000000016178255565b611d2e611d0460408401611b3b565b82546bffffffff0000000000000000191660409190911b6bffffffff000000000000000016178255565b611d61611d3d60608401611b3b565b82805463ffffffff60601b191660609290921b63ffffffff60601b16919091179055565b611d94611d7060808401611b3b565b82805463ffffffff60801b191660809290921b63ffffffff60801b16919091179055565b611da160a0830183611aed565b611daf818360018601611bb3565b5050611dc9611dc060c08401611c74565b60028301611c81565b611de1611dd860e08401611c74565b60038301611c81565b610100820135600482015561012082013560058201555050565b600060208284031215611e0d57600080fd5b813561181781611793565b600060208284031215611e2a57600080fd5b5051919050565b600082611e4057611e40611944565b500690565b634e487b7160e01b600052603260045260246000fdfee303cb88ace8c9e6ba216f1aecb44b3206dcab364c60512ffc6cbc920a1bf9d1a26469706673582212209215c4d3296d5a277633c98aec0f3ad21b59a9d8c2d999afa22289d717b8008864736f6c634300080e0033",
  "linkReferences": {},
  "deployedLinkReferences": {}
}