{
  "_format": "hh-sol-artifact-1",
  "contractName": "SageCollection",
  "sourceName": "contracts/Collection/SageCollection.sol",
  "abi": [
    {
      "inputs": [
        {
          "internalType": "address",
          "name": "_sageStorage",
          "type": "address"
        },
        {
          "internalType": "address",
          "name": "_token",
          "type": "address"
        }
      ],
      "stateMutability": "nonpayable",
      "type": "constructor"
    },
    {
      "anonymous": false,
      "inputs": [
        {
          "indexed": true,
          "internalType": "uint256",
          "name": "id",
          "type": "uint256"
        },
        {
          "indexed": true,
          "internalType": "address",
          "name": "nftContract",
          "type": "address"
        }
      ],
      "name": "CollectionCreated",
      "type": "event"
    },
    {
      "anonymous": false,
      "inputs": [
        {
          "indexed": true,
          "internalType": "address",
          "name": "user",
          "type": "address"
        },
        {
          "indexed": true,
          "internalType": "uint256",
          "name": "id",
          "type": "uint256"
        },
        {
          "indexed": false,
          "internalType": "uint256",
          "name": "amount",
          "type": "uint256"
        },
        {
          "indexed": false,
          "internalType": "uint256",
          "name": "firstIndex",
          "type": "uint256"
        }
      ],
      "name": "CollectionMint",
      "type": "event"
    },
    {
      "anonymous": false,
      "inputs": [
        {
          "indexed": false,
          "internalType": "address",
          "name": "account",
          "type": "address"
        }
      ],
      "name": "Paused",
      "type": "event"
    },
    {
      "anonymous": false,
      "inputs": [
        {
          "indexed": false,
          "internalType": "address",
          "name": "account",
          "type": "address"
        }
      ],
      "name": "Unpaused",
      "type": "event"
    },
    {
      "inputs": [],
      "name": "NATIVE_CURRENCY",
      "outputs": [
        {
          "internalType": "address",
          "name": "",
          "type": "address"
        }
      ],
      "stateMutability": "view",
      "type": "function"
    },
    {
      "inputs": [
        {
          "internalType": "uint256",
          "name": "",
          "type": "uint256"
        }
      ],
      "name": "collectionArtistShare",
      "outputs": [
        {
          "internalType": "uint256",
          "name": "",
          "type": "uint256"
        }
      ],
      "stateMutability": "view",
      "type": "function"
    },
    {
      "inputs": [
        {
          "internalType": "uint256",
          "name": "",
          "type": "uint256"
        }
      ],
      "name": "collections",
      "outputs": [
        {
          "internalType": "uint32",
          "name": "startTime",
          "type": "uint32"
        },
        {
          "internalType": "uint32",
          "name": "closeTime",
          "type": "uint32"
        },
        {
          "internalType": "uint32",
          "name": "maxSupply",
          "type": "uint32"
        },
        {
          "internalType": "uint32",
          "name": "mintCount",
          "type": "uint32"
        },
        {
          "internalType": "uint32",
          "name": "limitPerUser",
          "type": "uint32"
        },
        {
          "internalType": "string",
          "name": "baseUri",
          "type": "string"
        },
        {
          "internalType": "contract INFT",
          "name": "nftContract",
          "type": "address"
        },
        {
          "internalType": "contract IWhitelist",
          "name": "whitelist",
          "type": "address"
        },
        {
          "internalType": "uint256",
          "name": "costTokens",
          "type": "uint256"
        },
        {
          "internalType": "uint256",
          "name": "id",
          "type": "uint256"
        },
        {
          "internalType": "address",
          "name": "currency",
          "type": "address"
        }
      ],
      "stateMutability": "view",
      "type": "function"
    },
    {
      "inputs": [
        {
          "components": [
            {
              "internalType": "uint32",
              "name": "startTime",
              "type": "uint32"
            },
            {
              "internalType": "uint32",
              "name": "closeTime",
              "type": "uint32"
            },
            {
              "internalType": "uint32",
              "name": "maxSupply",
              "type": "uint32"
            },
            {
              "internalType": "uint32",
              "name": "mintCount",
              "type": "uint32"
            },
            {
              "internalType": "uint32",
              "name": "limitPerUser",
              "type": "uint32"
            },
            {
              "internalType": "string",
              "name": "baseUri",
              "type": "string"
            },
            {
              "internalType": "contract INFT",
              "name": "nftContract",
              "type": "address"
            },
            {
              "internalType": "contract IWhitelist",
              "name": "whitelist",
              "type": "address"
            },
            {
              "internalType": "uint256",
              "name": "costTokens",
              "type": "uint256"
            },
            {
              "internalType": "uint256",
              "name": "id",
              "type": "uint256"
            },
            {
              "internalType": "address",
              "name": "currency",
              "type": "address"
            }
          ],
          "internalType": "struct SageCollection.Collection",
          "name": "c",
          "type": "tuple"
        }
      ],
      "name": "createCollection",
      "outputs": [],
      "stateMutability": "nonpayable",
      "type": "function"
    },
    {
      "inputs": [
        {
          "internalType": "uint256",
          "name": "_id",
          "type": "uint256"
        }
      ],
      "name": "getCollection",
      "outputs": [
        {
          "components": [
            {
              "internalType": "uint32",
              "name": "startTime",
              "type": "uint32"
            },
            {
              "internalType": "uint32",
              "name": "closeTime",
              "type": "uint32"
            },
            {
              "internalType": "uint32",
              "name": "maxSupply",
              "type": "uint32"
            },
            {
              "internalType": "uint32",
              "name": "mintCount",
              "type": "uint32"
            },
            {
              "internalType": "uint32",
              "name": "limitPerUser",
              "type": "uint32"
            },
            {
              "internalType": "string",
              "name": "baseUri",
              "type": "string"
            },
            {
              "internalType": "contract INFT",
              "name": "nftContract",
              "type": "address"
            },
            {
              "internalType": "contract IWhitelist",
              "name": "whitelist",
              "type": "address"
            },
            {
              "internalType": "uint256",
              "name": "costTokens",
              "type": "uint256"
            },
            {
              "internalType": "uint256",
              "name": "id",
              "type": "uint256"
            },
            {
              "internalType": "address",
              "name": "currency",
              "type": "address"
            }
          ],
          "internalType": "struct SageCollection.Collection",
          "name": "",
          "type": "tuple"
        }
      ],
      "stateMutability": "view",
      "type": "function"
    },
    {
      "inputs": [
        {
          "internalType": "uint256",
          "name": "_id",
          "type": "uint256"
        }
      ],
      "name": "getMintCount",
      "outputs": [
        {
          "internalType": "uint32",
          "name": "",
          "type": "uint32"
        }
      ],
      "stateMutability": "view",
      "type": "function"
    },
    {
      "inputs": [
        {
          "internalType": "uint256",
          "name": "_id",
          "type": "uint256"
        },
        {
          "internalType": "uint256",
          "name": "_amount",
          "type": "uint256"
        }
      ],
      "name": "mint",
      "outputs": [],
      "stateMutability": "payable",
      "type": "function"
    },
    {
      "inputs": [
        {
          "internalType": "uint256",
          "name": "",
          "type": "uint256"
        },
        {
          "internalType": "address",
          "name": "",
          "type": "address"
        }
      ],
      "name": "mintedByUser",
      "outputs": [
        {
          "internalType": "uint256",
          "name": "",
          "type": "uint256"
        }
      ],
      "stateMutability": "view",
      "type": "function"
    },
    {
      "inputs": [],
      "name": "pause",
      "outputs": [],
      "stateMutability": "nonpayable",
      "type": "function"
    },
    {
      "inputs": [],
      "name": "paused",
      "outputs": [
        {
          "internalType": "bool",
          "name": "",
          "type": "bool"
        }
      ],
      "stateMutability": "view",
      "type": "function"
    },
    {
      "inputs": [
        {
          "internalType": "uint256",
          "name": "_id",
          "type": "uint256"
        },
        {
          "internalType": "uint256",
          "name": "_shareBps",
          "type": "uint256"
        }
      ],
      "name": "setCollectionArtistShare",
      "outputs": [],
      "stateMutability": "nonpayable",
      "type": "function"
    },
    {
      "inputs": [
        {
          "internalType": "uint256",
          "name": "_id",
          "type": "uint256"
        },
        {
          "internalType": "address",
          "name": "_whitelist",
          "type": "address"
        }
      ],
      "name": "setWhitelist",
      "outputs": [],
      "stateMutability": "nonpayable",
      "type": "function"
    },
    {
      "inputs": [],
      "name": "token",
      "outputs": [
        {
          "internalType": "contract IERC20",
          "name": "",
          "type": "address"
        }
      ],
      "stateMutability": "view",
      "type": "function"
    },
    {
      "inputs": [],
      "name": "unpause",
      "outputs": [],
      "stateMutability": "nonpayable",
      "type": "function"
    }
  ],
  "bytecode": "0x60806040523480156200001157600080fd5b506040516200274e3803806200274e83398101604081905262000034916200008c565b600080546001600160a81b0319166101006001600160a01b0394851602179055600180546001600160a01b03191691909216179055620000c4565b80516001600160a01b03811681146200008757600080fd5b919050565b60008060408385031215620000a057600080fd5b620000ab836200006f565b9150620000bb602084016200006f565b90509250929050565b61267a80620000d46000396000f3fe6080604052600436106100dd5760003560e01c80638456cb591161007f578063db09a3f511610059578063db09a3f51461025c578063db6459fe146102ab578063fc0c546a146102d8578063fdbda0ec146102f857600080fd5b80638456cb5914610207578063c9b03c5d1461021c578063d89da2861461023c57600080fd5b80635a1f3c28116100bb5780635a1f3c28146101515780635c975abb1461017e57806363c060aa146101a157806368cad295146101e757600080fd5b80631b2ef1ca146100e25780633f4ba83a146100f757806349f426501461010c575b600080fd5b6100f56100f0366004611da6565b61032f565b005b34801561010357600080fd5b506100f5610d42565b34801561011857600080fd5b5061013473eeeeeeeeeeeeeeeeeeeeeeeeeeeeeeeeeeeeeeee81565b6040516001600160a01b0390911681526020015b60405180910390f35b34801561015d57600080fd5b5061017161016c366004611dc8565b610e0f565b6040516101489190611e3d565b34801561018a57600080fd5b5060005460ff166040519015158152602001610148565b3480156101ad57600080fd5b506101d96101bc366004611f44565b600260209081526000928352604080842090915290825290205481565b604051908152602001610148565b3480156101f357600080fd5b506100f5610202366004611da6565b610fad565b34801561021357600080fd5b506100f5611193565b34801561022857600080fd5b506100f5610237366004611f74565b61125e565b34801561024857600080fd5b506100f5610257366004611f44565b611662565b34801561026857600080fd5b50610296610277366004611dc8565b600090815260036020526040902054600160601b900463ffffffff1690565b60405163ffffffff9091168152602001610148565b3480156102b757600080fd5b506101d96102c6366004611dc8565b60046020526000908152604090205481565b3480156102e457600080fd5b50600154610134906001600160a01b031681565b34801561030457600080fd5b50610318610313366004611dc8565b611827565b6040516101489b9a99989796959493929190611fb7565b61033761192c565b6000811161037b5760405162461bcd60e51b815260206004820152600c60248201526b043616e2774206d696e7420360a41b60448201526064015b60405180910390fd5b600082815260036020526040902080544263ffffffff909116118015906103c857508054640100000000900463ffffffff1615806103c8575080544264010000000090910463ffffffff16115b6103ff5760405162461bcd60e51b81526020600482015260086024820152672737ba1037b832b760c11b6044820152606401610372565b805463ffffffff600160401b8204811691610423918591600160601b900416612052565b111561046a5760405162461bcd60e51b8152602060048201526016602482015275139bdd08195b9bdd59da081cdd5c1c1b1e481b19599d60521b6044820152606401610372565b6040805161016081018252825463ffffffff8082168352640100000000820481166020840152600160401b8204811693830193909352600160601b810483166060830152600160801b900490911660808201526001820180546105a39291849160a0840191906104d99061206a565b80601f01602080910402602001604051908101604052809291908181526020018280546105059061206a565b80156105525780601f1061052757610100808354040283529160200191610552565b820191906000526020600020905b81548152906001019060200180831161053557829003601f168201915b505050918352505060028201546001600160a01b039081166020830152600383015481166040830152600483015460608301526005830154608083015260069092015490911660a090910152611972565b8054600160801b900463ffffffff161561062f5780546000848152600260209081526040808320338452909152902054600160801b90910463ffffffff16906105ec9084612052565b111561062f5760405162461bcd60e51b8152602060048201526012602482015271135a5b9d081b1a5b5a5d081c995858da195960721b6044820152606401610372565b600083815260026020908152604080832033845290915281208054849290610658908490612052565b9091555050805460009061067a90600160601b900463ffffffff1660016120a4565b825463ffffffff918216925084918491600c916106a1918591600160601b909104166120a4565b92506101000a81548163ffffffff021916908363ffffffff16021790555060008383600401546106d191906120cc565b90508015610c0957600085815260046020526040812054908190036106fb576106f8611a37565b90505b600061271061070a83856120cc565b6107149190612101565b60068601549091506001600160a01b031673eeeeeeeeeeeeeeeeeeeeeeeeeeeeeeeeeeeeeeed19016109b6578234146107825760405162461bcd60e51b815260206004820152601060248201526f15dc9bdb99c811551208185b5bdd5b9d60821b6044820152606401610372565b6002850154604080516321de0b0960e11b815290516000926001600160a01b0316916343bc16129160048083019260209291908290030181865afa1580156107ce573d6000803e3d6000fd5b505050506040513d601f19601f820116820180604052508101906107f29190612115565b6001600160a01b03168260405160006040518083038185875af1925050503d806000811461083c576040519150601f19603f3d011682016040523d82523d6000602084013e610841565b606091505b50509050806108925760405162461bcd60e51b815260206004820152601a60248201527f41727469737420455448207472616e73666572206661696c65640000000000006044820152606401610372565b60008060019054906101000a90046001600160a01b03166001600160a01b0316634783c35b6040518163ffffffff1660e01b8152600401602060405180830381865afa1580156108e6573d6000803e3d6000fd5b505050506040513d601f19601f8201168201806040525081019061090a9190612115565b6001600160a01b031661091d8487612132565b604051600081818185875af1925050503d8060008114610959576040519150601f19603f3d011682016040523d82523d6000602084013e61095e565b606091505b50509050806109af5760405162461bcd60e51b815260206004820152601c60248201527f506c6174666f726d20455448207472616e73666572206661696c6564000000006044820152606401610372565b5050610c02565b3415610a045760405162461bcd60e51b815260206004820152601f60248201527f436f6c6c656374696f6e206973206e6f742070726963656420696e20455448006044820152606401610372565b6001546002860154604080516321de0b0960e11b815290516001600160a01b03938416936323b872dd9333939116916343bc1612916004808201926020929091908290030181865afa158015610a5e573d6000803e3d6000fd5b505050506040513d601f19601f82011682018060405250810190610a829190612115565b6040516001600160e01b031960e085901b1681526001600160a01b03928316600482015291166024820152604481018490526064016020604051808303816000875af1158015610ad6573d6000803e3d6000fd5b505050506040513d601f19601f82011682018060405250810190610afa9190612149565b5060015460005460408051634783c35b60e01b815290516001600160a01b03938416936323b872dd93339361010090910490911691634783c35b916004808201926020929091908290030181865afa158015610b5a573d6000803e3d6000fd5b505050506040513d601f19601f82011682018060405250810190610b7e9190612115565b610b888588612132565b6040516001600160e01b031960e086901b1681526001600160a01b03938416600482015292909116602483015260448201526064016020604051808303816000875af1158015610bdc573d6000803e3d6000fd5b505050506040513d601f19601f82011682018060405250810190610c009190612149565b505b5050610c46565b3415610c465760405162461bcd60e51b815260206004820152600c60248201526b4d696e74206973206672656560a01b6044820152606401610372565b60005b84811015610cfd5760028401546001600160a01b031663d204c45e3360018701610c7b610c768689612052565b611bc5565b604051602001610c8c92919061216b565b6040516020818303038152906040526040518363ffffffff1660e01b8152600401610cb89291906121fe565b600060405180830381600087803b158015610cd257600080fd5b505af1158015610ce6573d6000803e3d6000fd5b505050508080610cf590612222565b915050610c49565b506040805185815260208101849052869133917ff8686c1077035ddebc5a87f1379b31a4832835fcac14765d41d82d4ec0b5e2d4910160405180910390a35050505050565b600054604051632474521560e21b815260008051602061262583398151915260048201523360248201526101009091046001600160a01b0316906391d1485490604401602060405180830381865afa158015610da2573d6000803e3d6000fd5b505050506040513d601f19601f82011682018060405250810190610dc69190612149565b610e055760405162461bcd60e51b815260206004820152601060248201526f41646d696e2063616c6c73206f6e6c7960801b6044820152606401610372565b610e0d611cce565b565b604080516101608101825260008082526020820181905291810182905260608082018390526080820183905260a082015260c0810182905260e0810182905261010081018290526101208101829052610140810191909152600082815260036020908152604091829020825161016081018452815463ffffffff80821683526401000000008204811694830194909452600160401b8104841694820194909452600160601b840483166060820152600160801b909304909116608083015260018101805460a084019190610ee29061206a565b80601f0160208091040260200160405190810160405280929190818152602001828054610f0e9061206a565b8015610f5b5780601f10610f3057610100808354040283529160200191610f5b565b820191906000526020600020905b815481529060010190602001808311610f3e57829003601f168201915b505050918352505060028201546001600160a01b039081166020830152600383015481166040830152600483015460608301526005830154608083015260069092015490911660a09091015292915050565b60008281526003602052604090205463ffffffff166110095760405162461bcd60e51b815260206004820152601860248201527710dbdb1b1958dd1a5bdb88191bd95cdb89dd08195e1a5cdd60421b6044820152606401610372565b600054604051632474521560e21b815260008051602061262583398151915260048201523360248201526101009091046001600160a01b0316906391d1485490604401602060405180830381865afa158015611069573d6000803e3d6000fd5b505050506040513d601f19601f8201168201806040525081019061108d9190612149565b8061112357506000828152600360209081526040918290206002015482516321de0b0960e11b815292516001600160a01b03909116926343bc16129260048083019391928290030181865afa1580156110ea573d6000803e3d6000fd5b505050506040513d601f19601f8201168201806040525081019061110e9190612115565b6001600160a01b0316336001600160a01b0316145b61113f5760405162461bcd60e51b81526004016103729061223b565b6127108111156111815760405162461bcd60e51b815260206004820152600d60248201526c496e76616c696420736861726560981b6044820152606401610372565b60009182526004602052604090912055565b600054604051632474521560e21b815260008051602061262583398151915260048201523360248201526101009091046001600160a01b0316906391d1485490604401602060405180830381865afa1580156111f3573d6000803e3d6000fd5b505050506040513d601f19601f820116820180604052508101906112179190612149565b6112565760405162461bcd60e51b815260206004820152601060248201526f41646d696e2063616c6c73206f6e6c7960801b6044820152606401610372565b610e0d611d20565b61126e60e0820160c08301612272565b600054604051632474521560e21b815260008051602061262583398151915260048201523360248201526101009091046001600160a01b0316906391d1485490604401602060405180830381865afa1580156112ce573d6000803e3d6000fd5b505050506040513d601f19601f820116820180604052508101906112f29190612149565b8061136f5750806001600160a01b03166343bc16126040518163ffffffff1660e01b8152600401602060405180830381865afa158015611336573d6000803e3d6000fd5b505050506040513d601f19601f8201168201806040525081019061135a9190612115565b6001600160a01b0316336001600160a01b0316145b61138b5760405162461bcd60e51b81526004016103729061223b565b600061139a60208401846122a1565b63ffffffff161180156113f057506113b860408301602084016122a1565b63ffffffff1615806113f057506113d260208301836122a1565b63ffffffff166113e860408401602085016122a1565b63ffffffff16115b61142c5760405162461bcd60e51b815260206004820152600d60248201526c496e76616c69642074696d657360981b6044820152606401610372565b600061143e60608401604085016122a1565b63ffffffff16116114825760405162461bcd60e51b815260206004820152600e60248201526d496e76616c696420737570706c7960901b6044820152606401610372565b600061149160a08401846122be565b9050116114d25760405162461bcd60e51b815260206004820152600f60248201526e496e76616c6964206261736555726960881b6044820152606401610372565b60006114e661016084016101408501612272565b6001600160a01b03161480611528575073eeeeeeeeeeeeeeeeeeeeeeeeeeeeeeeeeeeeeeee61151d61016084016101408501612272565b6001600160a01b0316145b61156b5760405162461bcd60e51b8152602060048201526014602482015273556e737570706f727465642063757272656e637960601b6044820152606401610372565b61012082013560009081526003602052604090205463ffffffff16156115d35760405162461bcd60e51b815260206004820152601960248201527f436f6c6c656374696f6e20616c726561647920657869737473000000000000006044820152606401610372565b610120820135600090815260036020526040902082906115f38282612472565b9050506115fe611a37565b61012083013560009081526004602052604090205561162360e0830160c08401612272565b6001600160a01b03168261012001357f18c1b1c8856053698af995ce4384c0f661562c52a65d6dd29b910849d5e1bfca60405160405180910390a35050565b60008281526003602052604090205463ffffffff166116be5760405162461bcd60e51b815260206004820152601860248201527710dbdb1b1958dd1a5bdb88191bd95cdb89dd08195e1a5cdd60421b6044820152606401610372565b600054604051632474521560e21b815260008051602061262583398151915260048201523360248201526101009091046001600160a01b0316906391d1485490604401602060405180830381865afa15801561171e573d6000803e3d6000fd5b505050506040513d601f19601f820116820180604052508101906117429190612149565b806117d857506000828152600360209081526040918290206002015482516321de0b0960e11b815292516001600160a01b03909116926343bc16129260048083019391928290030181865afa15801561179f573d6000803e3d6000fd5b505050506040513d601f19601f820116820180604052508101906117c39190612115565b6001600160a01b0316336001600160a01b0316145b6117f45760405162461bcd60e51b81526004016103729061223b565b600091825260036020819052604090922090910180546001600160a01b0319166001600160a01b03909216919091179055565b6003602052600090815260409020805460018201805463ffffffff808416946401000000008504821694600160401b8104831694600160601b8204841694600160801b909204909316929061187b9061206a565b80601f01602080910402602001604051908101604052809291908181526020018280546118a79061206a565b80156118f45780601f106118c9576101008083540402835291602001916118f4565b820191906000526020600020905b8154815290600101906020018083116118d757829003601f168201915b505050600284015460038501546004860154600587015460069097015495966001600160a01b0393841696928416955090935091168b565b60005460ff1615610e0d5760405162461bcd60e51b815260206004820152601060248201526f14185d5cd8589b194e881c185d5cd95960821b6044820152606401610372565b60e08101516001600160a01b03811615611a33576040516320c18e6b60e21b8152336004820152600060248201526001600160a01b0382169063830639ac90604401602060405180830381865afa1580156119d1573d6000803e3d6000fd5b505050506040513d601f19601f820116820180604052508101906119f59190612149565b611a335760405162461bcd60e51b815260206004820152600f60248201526e139bdd081dda1a5d195b1a5cdd1959608a1b6044820152606401610372565b5050565b600080546040516d616464726573732e636f6e66696760901b6020820152829161010090046001600160a01b0316906321f8a72190602e01604051602081830303815290604052805190602001206040518263ffffffff1660e01b8152600401611aa391815260200190565b602060405180830381865afa158015611ac0573d6000803e3d6000fd5b505050506040513d601f19601f82011682018060405250810190611ae49190612115565b90506001600160a01b038116611afd57611f4091505090565b6000816001600160a01b031663bd02d0f5604051602001611b3790721cda185c994b9c1c9a5b585c9e505c9d1a5cdd606a1b815260130190565b604051602081830303815290604052805190602001206040518263ffffffff1660e01b8152600401611b6b91815260200190565b602060405180830381865afa158015611b88573d6000803e3d6000fd5b505050506040513d601f19601f82011682018060405250810190611bac91906125e1565b90508015611bba5780611bbe565b611f405b9250505090565b606081600003611bec5750506040805180820190915260018152600360fc1b602082015290565b8160005b8115611c165780611c0081612222565b9150611c0f9050600a83612101565b9150611bf0565b60008167ffffffffffffffff811115611c3157611c3161231f565b6040519080825280601f01601f191660200182016040528015611c5b576020820181803683370190505b5090505b8415611cc657611c70600183612132565b9150611c7d600a866125fa565b611c88906030612052565b60f81b818381518110611c9d57611c9d61260e565b60200101906001600160f81b031916908160001a905350611cbf600a86612101565b9450611c5f565b949350505050565b611cd6611d5d565b6000805460ff191690557f5db9ee0a495bf2e6ff9c91a7834c1ba4fdd244a5e8aa4e537bd38aeae4b073aa335b6040516001600160a01b03909116815260200160405180910390a1565b611d2861192c565b6000805460ff191660011790557f62e78cea01bee320cd4e420270b5ea74000d11b0c9f74754ebdbfc544b05a258611d033390565b60005460ff16610e0d5760405162461bcd60e51b815260206004820152601460248201527314185d5cd8589b194e881b9bdd081c185d5cd95960621b6044820152606401610372565b60008060408385031215611db957600080fd5b50508035926020909101359150565b600060208284031215611dda57600080fd5b5035919050565b60005b83811015611dfc578181015183820152602001611de4565b83811115611e0b576000848401525b50505050565b60008151808452611e29816020860160208601611de1565b601f01601f19169290920160200192915050565b60208152611e5460208201835163ffffffff169052565b60006020830151611e6d604084018263ffffffff169052565b50604083015163ffffffff8116606084015250606083015163ffffffff8116608084015250608083015163ffffffff811660a08401525060a08301516101608060c0850152611ec0610180850183611e11565b915060c0850151611edc60e08601826001600160a01b03169052565b5060e0850151610100611ef9818701836001600160a01b03169052565b8601516101208681019190915286015161014080870191909152909501516001600160a01b031693019290925250919050565b6001600160a01b0381168114611f4157600080fd5b50565b60008060408385031215611f5757600080fd5b823591506020830135611f6981611f2c565b809150509250929050565b600060208284031215611f8657600080fd5b813567ffffffffffffffff811115611f9d57600080fd5b82016101608185031215611fb057600080fd5b9392505050565b600061016063ffffffff808f168452808e166020850152808d166040850152808c166060850152808b166080850152508060a0840152611ff98184018a611e11565b6001600160a01b0398891660c085015296881660e08401525050610100810193909352610120830191909152909216610140909201919091529695505050505050565b634e487b7160e01b600052601160045260246000fd5b600082198211156120655761206561203c565b500190565b600181811c9082168061207e57607f821691505b60208210810361209e57634e487b7160e01b600052602260045260246000fd5b50919050565b600063ffffffff8083168185168083038211156120c3576120c361203c565b01949350505050565b60008160001904831182151516156120e6576120e661203c565b500290565b634e487b7160e01b600052601260045260246000fd5b600082612110576121106120eb565b500490565b60006020828403121561212757600080fd5b8151611fb081611f2c565b6000828210156121445761214461203c565b500390565b60006020828403121561215b57600080fd5b81518015158114611fb057600080fd5b60008084546121798161206a565b6001828116801561219157600181146121a2576121d1565b60ff198416875282870194506121d1565b8860005260208060002060005b858110156121c85781548a8201529084019082016121af565b50505082870194505b5050505083516121e5818360208801611de1565b64173539b7b760d91b9101908152600501949350505050565b6001600160a01b0383168152604060208201819052600090611cc690830184611e11565b6000600182016122345761223461203c565b5060010190565b6020808252601e908201527f41646d696e206f7220746865204e4654277320617274697374206f6e6c790000604082015260600190565b60006020828403121561228457600080fd5b8135611fb081611f2c565b63ffffffff81168114611f4157600080fd5b6000602082840312156122b357600080fd5b8135611fb08161228f565b6000808335601e198436030181126122d557600080fd5b83018035915067ffffffffffffffff8211156122f057600080fd5b60200191503681900382131561230557600080fd5b9250929050565b600081356123198161228f565b92915050565b634e487b7160e01b600052604160045260246000fd5b601f82111561237f57600081815260208120601f850160051c8101602086101561235c5750805b601f850160051c820191505b8181101561237b57828155600101612368565b5050505b505050565b67ffffffffffffffff83111561239c5761239c61231f565b6123b0836123aa835461206a565b83612335565b6000601f8411600181146123e457600085156123cc5750838201355b600019600387901b1c1916600186901b17835561243e565b600083815260209020601f19861690835b8281101561241557868501358255602094850194600190920191016123f5565b50868210156124325760001960f88860031b161c19848701351681555b505060018560011b0183555b5050505050565b6000813561231981611f2c565b80546001600160a01b0319166001600160a01b0392909216919091179055565b61249561247e8361230c565b825463ffffffff191663ffffffff91909116178255565b6124c66124a46020840161230c565b825467ffffffff00000000191660209190911b67ffffffff0000000016178255565b6124ff6124d56040840161230c565b82546bffffffff0000000000000000191660409190911b6bffffffff000000000000000016178255565b61253261250e6060840161230c565b82805463ffffffff60601b191660609290921b63ffffffff60601b16919091179055565b6125656125416080840161230c565b82805463ffffffff60801b191660809290921b63ffffffff60801b16919091179055565b61257260a08301836122be565b612580818360018601612384565b505061259a61259160c08401612445565b60028301612452565b6125b26125a960e08401612445565b60038301612452565b61010082013560048201556101208201356005820155611a336125d86101408401612445565b60068301612452565b6000602082840312156125f357600080fd5b5051919050565b600082612609576126096120eb565b500690565b634e487b7160e01b600052603260045260246000fdfee303cb88ace8c9e6ba216f1aecb44b3206dcab364c60512ffc6cbc920a1bf9d1a26469706673582212204f602dc4fa6abcc0b82f489d873773e1835d966ebb11a775dd00e151e06b1d6e64736f6c634300080e0033",
  "linkReferences": {},
  "deployedLinkReferences": {}
}