{
  "_format": "hh-sol-artifact-1",
  "contractName": "SageCollection",
  "sourceName": "contracts/Collection/SageCollection.sol",
  "abi": [
    {
      "inputs": [
        {
          "internalType": "address",
          "name": "_sageStorage",
          "type": "address"
        },
        {
          "internalType": "address",
          "name": "_token",
          "type": "address"
        }
      ],
      "stateMutability": "nonpayable",
      "type": "constructor"
    },
    {
      "anonymous": false,
      "inputs": [
        {
          "indexed": true,
          "internalType": "uint256",
          "name": "id",
          "type": "uint256"
        },
        {
          "indexed": true,
          "internalType": "address",
          "name": "nftContract",
          "type": "address"
        }
      ],
      "name": "CollectionCreated",
      "type": "event"
    },
    {
      "anonymous": false,
      "inputs": [
        {
          "indexed": true,
          "internalType": "address",
          "name": "user",
          "type": "address"
        },
        {
          "indexed": true,
          "internalType": "uint256",
          "name": "id",
          "type": "uint256"
        },
        {
          "indexed": false,
          "internalType": "uint256",
          "name": "amount",
          "type": "uint256"
        },
        {
          "indexed": false,
          "internalType": "uint256",
          "name": "firstIndex",
          "type": "uint256"
        }
      ],
      "name": "CollectionMint",
      "type": "event"
    },
    {
      "anonymous": false,
      "inputs": [
        {
          "indexed": false,
          "internalType": "address",
          "name": "account",
          "type": "address"
        }
      ],
      "name": "Paused",
      "type": "event"
    },
    {
      "anonymous": false,
      "inputs": [
        {
          "indexed": false,
          "internalType": "address",
          "name": "account",
          "type": "address"
        }
      ],
      "name": "Unpaused",
      "type": "event"
    },
    {
      "inputs": [],
      "name": "NATIVE_CURRENCY",
      "outputs": [
        {
          "internalType": "address",
          "name": "",
          "type": "address"
        }
      ],
      "stateMutability": "view",
      "type": "function"
    },
    {
      "inputs": [
        {
          "internalType": "uint256",
          "name": "",
          "type": "uint256"
        }
      ],
      "name": "collectionArtistShare",
      "outputs": [
        {
          "internalType": "uint256",
          "name": "",
          "type": "uint256"
        }
      ],
      "stateMutability": "view",
      "type": "function"
    },
    {
      "inputs": [
        {
          "internalType": "uint256",
          "name": "",
          "type": "uint256"
        }
      ],
      "name": "collections",
      "outputs": [
        {
          "internalType": "uint32",
          "name": "startTime",
          "type": "uint32"
        },
        {
          "internalType": "uint32",
          "name": "closeTime",
          "type": "uint32"
        },
        {
          "internalType": "uint32",
          "name": "maxSupply",
          "type": "uint32"
        },
        {
          "internalType": "uint32",
          "name": "mintCount",
          "type": "uint32"
        },
        {
          "internalType": "uint32",
          "name": "limitPerUser",
          "type": "uint32"
        },
        {
          "internalType": "string",
          "name": "baseUri",
          "type": "string"
        },
        {
          "internalType": "contract INFT",
          "name": "nftContract",
          "type": "address"
        },
        {
          "internalType": "contract IWhitelist",
          "name": "whitelist",
          "type": "address"
        },
        {
          "internalType": "uint256",
          "name": "costTokens",
          "type": "uint256"
        },
        {
          "internalType": "uint256",
          "name": "id",
          "type": "uint256"
        },
        {
          "internalType": "address",
          "name": "currency",
          "type": "address"
        },
        {
          "internalType": "uint256",
          "name": "artistShareBps",
          "type": "uint256"
        }
      ],
      "stateMutability": "view",
      "type": "function"
    },
    {
      "inputs": [
        {
          "components": [
            {
              "internalType": "uint32",
              "name": "startTime",
              "type": "uint32"
            },
            {
              "internalType": "uint32",
              "name": "closeTime",
              "type": "uint32"
            },
            {
              "internalType": "uint32",
              "name": "maxSupply",
              "type": "uint32"
            },
            {
              "internalType": "uint32",
              "name": "mintCount",
              "type": "uint32"
            },
            {
              "internalType": "uint32",
              "name": "limitPerUser",
              "type": "uint32"
            },
            {
              "internalType": "string",
              "name": "baseUri",
              "type": "string"
            },
            {
              "internalType": "contract INFT",
              "name": "nftContract",
              "type": "address"
            },
            {
              "internalType": "contract IWhitelist",
              "name": "whitelist",
              "type": "address"
            },
            {
              "internalType": "uint256",
              "name": "costTokens",
              "type": "uint256"
            },
            {
              "internalType": "uint256",
              "name": "id",
              "type": "uint256"
            },
            {
              "internalType": "address",
              "name": "currency",
              "type": "address"
            },
            {
              "internalType": "uint256",
              "name": "artistShareBps",
              "type": "uint256"
            }
          ],
          "internalType": "struct SageCollection.Collection",
          "name": "c",
          "type": "tuple"
        }
      ],
      "name": "createCollection",
      "outputs": [],
      "stateMutability": "nonpayable",
      "type": "function"
    },
    {
      "inputs": [
        {
          "components": [
            {
              "internalType": "string",
              "name": "name",
              "type": "string"
            },
            {
              "internalType": "string",
              "name": "symbol",
              "type": "string"
            },
            {
              "internalType": "uint256",
              "name": "artistShare",
              "type": "uint256"
            },
            {
              "internalType": "uint96",
              "name": "royaltyBps",
              "type": "uint96"
            }
          ],
          "internalType": "struct SageCollection.NewNftParams",
          "name": "nftParams",
          "type": "tuple"
        },
        {
          "components": [
            {
              "internalType": "uint32",
              "name": "startTime",
              "type": "uint32"
            },
            {
              "internalType": "uint32",
              "name": "closeTime",
              "type": "uint32"
            },
            {
              "internalType": "uint32",
              "name": "maxSupply",
              "type": "uint32"
            },
            {
              "internalType": "uint32",
              "name": "mintCount",
              "type": "uint32"
            },
            {
              "internalType": "uint32",
              "name": "limitPerUser",
              "type": "uint32"
            },
            {
              "internalType": "string",
              "name": "baseUri",
              "type": "string"
            },
            {
              "internalType": "contract INFT",
              "name": "nftContract",
              "type": "address"
            },
            {
              "internalType": "contract IWhitelist",
              "name": "whitelist",
              "type": "address"
            },
            {
              "internalType": "uint256",
              "name": "costTokens",
              "type": "uint256"
            },
            {
              "internalType": "uint256",
              "name": "id",
              "type": "uint256"
            },
            {
              "internalType": "address",
              "name": "currency",
              "type": "address"
            },
            {
              "internalType": "uint256",
              "name": "artistShareBps",
              "type": "uint256"
            }
          ],
          "internalType": "struct SageCollection.Collection",
          "name": "c",
          "type": "tuple"
        }
      ],
      "name": "createCollectionWithNewNft",
      "outputs": [
        {
          "internalType": "address",
          "name": "nftContractAddress",
          "type": "address"
        }
      ],
      "stateMutability": "nonpayable",
      "type": "function"
    },
    {
      "inputs": [
        {
          "internalType": "uint256",
          "name": "_id",
          "type": "uint256"
        }
      ],
      "name": "getCollection",
      "outputs": [
        {
          "components": [
            {
              "internalType": "uint32",
              "name": "startTime",
              "type": "uint32"
            },
            {
              "internalType": "uint32",
              "name": "closeTime",
              "type": "uint32"
            },
            {
              "internalType": "uint32",
              "name": "maxSupply",
              "type": "uint32"
            },
            {
              "internalType": "uint32",
              "name": "mintCount",
              "type": "uint32"
            },
            {
              "internalType": "uint32",
              "name": "limitPerUser",
              "type": "uint32"
            },
            {
              "internalType": "string",
              "name": "baseUri",
              "type": "string"
            },
            {
              "internalType": "contract INFT",
              "name": "nftContract",
              "type": "address"
            },
            {
              "internalType": "contract IWhitelist",
              "name": "whitelist",
              "type": "address"
            },
            {
              "internalType": "uint256",
              "name": "costTokens",
              "type": "uint256"
            },
            {
              "internalType": "uint256",
              "name": "id",
              "type": "uint256"
            },
            {
              "internalType": "address",
              "name": "currency",
              "type": "address"
            },
            {
              "internalType": "uint256",
              "name": "artistShareBps",
              "type": "uint256"
            }
          ],
          "internalType": "struct SageCollection.Collection",
          "name": "",
          "type": "tuple"
        }
      ],
      "stateMutability": "view",
      "type": "function"
    },
    {
      "inputs": [
        {
          "internalType": "uint256",
          "name": "_id",
          "type": "uint256"
        }
      ],
      "name": "getMintCount",
      "outputs": [
        {
          "internalType": "uint32",
          "name": "",
          "type": "uint32"
        }
      ],
      "stateMutability": "view",
      "type": "function"
    },
    {
      "inputs": [
        {
          "internalType": "uint256",
          "name": "_id",
          "type": "uint256"
        },
        {
          "internalType": "uint256",
          "name": "_amount",
          "type": "uint256"
        }
      ],
      "name": "mint",
      "outputs": [],
      "stateMutability": "payable",
      "type": "function"
    },
    {
      "inputs": [
        {
          "internalType": "uint256",
          "name": "",
          "type": "uint256"
        },
        {
          "internalType": "address",
          "name": "",
          "type": "address"
        }
      ],
      "name": "mintedByUser",
      "outputs": [
        {
          "internalType": "uint256",
          "name": "",
          "type": "uint256"
        }
      ],
      "stateMutability": "view",
      "type": "function"
    },
    {
      "inputs": [],
      "name": "nftDeployer",
      "outputs": [
        {
          "internalType": "address",
          "name": "",
          "type": "address"
        }
      ],
      "stateMutability": "view",
      "type": "function"
    },
    {
      "inputs": [],
      "name": "pause",
      "outputs": [],
      "stateMutability": "nonpayable",
      "type": "function"
    },
    {
      "inputs": [],
      "name": "paused",
      "outputs": [
        {
          "internalType": "bool",
          "name": "",
          "type": "bool"
        }
      ],
      "stateMutability": "view",
      "type": "function"
    },
    {
      "inputs": [
        {
          "internalType": "uint256",
          "name": "_id",
          "type": "uint256"
        },
        {
          "internalType": "uint256",
          "name": "_shareBps",
          "type": "uint256"
        }
      ],
      "name": "setCollectionArtistShare",
      "outputs": [],
      "stateMutability": "nonpayable",
      "type": "function"
    },
    {
      "inputs": [
        {
          "internalType": "address",
          "name": "_deployer",
          "type": "address"
        }
      ],
      "name": "setNftDeployer",
      "outputs": [],
      "stateMutability": "nonpayable",
      "type": "function"
    },
    {
      "inputs": [
        {
          "internalType": "address",
          "name": "_ref",
          "type": "address"
        }
      ],
      "name": "setTrustedNftReference",
      "outputs": [],
      "stateMutability": "nonpayable",
      "type": "function"
    },
    {
      "inputs": [
        {
          "internalType": "uint256",
          "name": "_id",
          "type": "uint256"
        },
        {
          "internalType": "address",
          "name": "_whitelist",
          "type": "address"
        }
      ],
      "name": "setWhitelist",
      "outputs": [],
      "stateMutability": "nonpayable",
      "type": "function"
    },
    {
      "inputs": [],
      "name": "token",
      "outputs": [
        {
          "internalType": "contract IERC20",
          "name": "",
          "type": "address"
        }
      ],
      "stateMutability": "view",
      "type": "function"
    },
    {
      "inputs": [],
      "name": "trustedNftReference",
      "outputs": [
        {
          "internalType": "address",
          "name": "",
          "type": "address"
        }
      ],
      "stateMutability": "view",
      "type": "function"
    },
    {
      "inputs": [],
      "name": "unpause",
      "outputs": [],
      "stateMutability": "nonpayable",
      "type": "function"
    }
  ],
  "bytecode": "0x60806040523480156200001157600080fd5b5060405162002def38038062002def83398101604081905262000034916200008c565b600080546001600160a81b0319166101006001600160a01b0394851602179055600180546001600160a01b03191691909216179055620000c4565b80516001600160a01b03811681146200008757600080fd5b919050565b60008060408385031215620000a057600080fd5b620000ab836200006f565b9150620000bb602084016200006f565b90509250929050565b612d1b80620000d46000396000f3fe6080604052600436106101145760003560e01c806368cad295116100a0578063daeec67611610064578063daeec67614610313578063db09a3f514610333578063db6459fe14610382578063fc0c546a146103af578063fdbda0ec146103cf57600080fd5b806368cad2951461027e5780638456cb591461029e5780638d6c7ed5146102b3578063a65cbcee146102d3578063d89da286146102f357600080fd5b80634ddadd2f116100e75780634ddadd2f146101a85780635a1f3c28146101c85780635c975abb146101f55780635f33c0301461021857806363c060aa1461023857600080fd5b80631b2ef1ca1461011957806329a9c2771461012e5780633f4ba83a1461016b57806349f4265014610180575b600080fd5b61012c6101273660046123ae565b610407565b005b34801561013a57600080fd5b5060055461014e906001600160a01b031681565b6040516001600160a01b0390911681526020015b60405180910390f35b34801561017757600080fd5b5061012c610eb0565b34801561018c57600080fd5b5061014e73eeeeeeeeeeeeeeeeeeeeeeeeeeeeeeeeeeeeeeee81565b3480156101b457600080fd5b5061014e6101c33660046123e9565b610f5a565b3480156101d457600080fd5b506101e86101e3366004612455565b61108f565b60405161016291906124ca565b34801561020157600080fd5b5060005460ff166040519015158152602001610162565b34801561022457600080fd5b5061012c6102333660046125f5565b61123d565b34801561024457600080fd5b50610270610253366004612619565b600260209081526000928352604080842090915290825290205481565b604051908152602001610162565b34801561028a57600080fd5b5061012c6102993660046123ae565b6112ff565b3480156102aa57600080fd5b5061012c6114e5565b3480156102bf57600080fd5b5061012c6102ce366004612649565b61158d565b3480156102df57600080fd5b5060065461014e906001600160a01b031681565b3480156102ff57600080fd5b5061012c61030e366004612619565b6116df565b34801561031f57600080fd5b5061012c61032e3660046125f5565b6118a4565b34801561033f57600080fd5b5061036d61034e366004612455565b600090815260036020526040902054600160601b900463ffffffff1690565b60405163ffffffff9091168152602001610162565b34801561038e57600080fd5b5061027061039d366004612455565b60046020526000908152604090205481565b3480156103bb57600080fd5b5060015461014e906001600160a01b031681565b3480156103db57600080fd5b506103ef6103ea366004612455565b611966565b6040516101629c9b9a9998979695949392919061267e565b61040f611a71565b600081116104535760405162461bcd60e51b815260206004820152600c60248201526b043616e2774206d696e7420360a41b60448201526064015b60405180910390fd5b600082815260036020526040902080544263ffffffff909116118015906104a057508054640100000000900463ffffffff1615806104a0575080544264010000000090910463ffffffff16115b6104d75760405162461bcd60e51b81526020600482015260086024820152672737ba1037b832b760c11b604482015260640161044a565b805463ffffffff600160401b82048116916104fb918591600160601b90041661271d565b11156105425760405162461bcd60e51b8152602060048201526016602482015275139bdd08195b9bdd59da081cdd5c1c1b1e481b19599d60521b604482015260640161044a565b6040805161018081018252825463ffffffff8082168352640100000000820481166020840152600160401b8204811693830193909352600160601b810483166060830152600160801b900490911660808201526001820180546106839291849160a0840191906105b190612735565b80601f01602080910402602001604051908101604052809291908181526020018280546105dd90612735565b801561062a5780601f106105ff5761010080835404028352916020019161062a565b820191906000526020600020905b81548152906001019060200180831161060d57829003601f168201915b505050918352505060028201546001600160a01b039081166020830152600383015481166040830152600483015460608301526005830154608083015260068301541660a082015260079091015460c090910152611ab7565b8054600160801b900463ffffffff161561070f5780546000848152600260209081526040808320338452909152902054600160801b90910463ffffffff16906106cc908461271d565b111561070f5760405162461bcd60e51b8152602060048201526012602482015271135a5b9d081b1a5b5a5d081c995858da195960721b604482015260640161044a565b60008381526002602090815260408083203384529091528120805484929061073890849061271d565b9091555050805460009061075a90600160601b900463ffffffff166001612769565b825463ffffffff918216925084918491600c91610781918591600160601b90910416612769565b92506101000a81548163ffffffff021916908363ffffffff16021790555060008383600401546107b19190612791565b90508015610d7757600085815260046020526040812054908190036107db576107d8611b78565b90505b60006127106107ea8385612791565b6107f491906127c6565b60068601549091506001600160a01b031673eeeeeeeeeeeeeeeeeeeeeeeeeeeeeeeeeeeeeeed1901610a96578234146108625760405162461bcd60e51b815260206004820152601060248201526f15dc9bdb99c811551208185b5bdd5b9d60821b604482015260640161044a565b6002850154604080516321de0b0960e11b815290516000926001600160a01b0316916343bc16129160048083019260209291908290030181865afa1580156108ae573d6000803e3d6000fd5b505050506040513d601f19601f820116820180604052508101906108d291906127da565b6001600160a01b03168260405160006040518083038185875af1925050503d806000811461091c576040519150601f19603f3d011682016040523d82523d6000602084013e610921565b606091505b50509050806109725760405162461bcd60e51b815260206004820152601a60248201527f41727469737420455448207472616e73666572206661696c6564000000000000604482015260640161044a565b60008060019054906101000a90046001600160a01b03166001600160a01b0316634783c35b6040518163ffffffff1660e01b8152600401602060405180830381865afa1580156109c6573d6000803e3d6000fd5b505050506040513d601f19601f820116820180604052508101906109ea91906127da565b6001600160a01b03166109fd84876127f7565b604051600081818185875af1925050503d8060008114610a39576040519150601f19603f3d011682016040523d82523d6000602084013e610a3e565b606091505b5050905080610a8f5760405162461bcd60e51b815260206004820152601c60248201527f506c6174666f726d20455448207472616e73666572206661696c656400000000604482015260640161044a565b5050610d70565b3415610ae45760405162461bcd60e51b815260206004820152601f60248201527f436f6c6c656374696f6e206973206e6f742070726963656420696e2045544800604482015260640161044a565b6001546002860154604080516321de0b0960e11b815290516001600160a01b03938416936323b872dd9333939116916343bc1612916004808201926020929091908290030181865afa158015610b3e573d6000803e3d6000fd5b505050506040513d601f19601f82011682018060405250810190610b6291906127da565b6040516001600160e01b031960e085901b1681526001600160a01b03928316600482015291166024820152604481018490526064016020604051808303816000875af1158015610bb6573d6000803e3d6000fd5b505050506040513d601f19601f82011682018060405250810190610bda919061280e565b610c1f5760405162461bcd60e51b8152602060048201526016602482015275105c9d1a5cdd081d1c985b9cd9995c8819985a5b195960521b604482015260640161044a565b60015460005460408051634783c35b60e01b815290516001600160a01b03938416936323b872dd93339361010090910490911691634783c35b916004808201926020929091908290030181865afa158015610c7e573d6000803e3d6000fd5b505050506040513d601f19601f82011682018060405250810190610ca291906127da565b610cac85886127f7565b6040516001600160e01b031960e086901b1681526001600160a01b03938416600482015292909116602483015260448201526064016020604051808303816000875af1158015610d00573d6000803e3d6000fd5b505050506040513d601f19601f82011682018060405250810190610d24919061280e565b610d705760405162461bcd60e51b815260206004820152601860248201527f506c6174666f726d207472616e73666572206661696c65640000000000000000604482015260640161044a565b5050610db4565b3415610db45760405162461bcd60e51b815260206004820152600c60248201526b4d696e74206973206672656560a01b604482015260640161044a565b60005b84811015610e6b5760028401546001600160a01b031663d204c45e3360018701610de9610de4868961271d565b611d06565b604051602001610dfa92919061284c565b6040516020818303038152906040526040518363ffffffff1660e01b8152600401610e26929190612906565b600060405180830381600087803b158015610e4057600080fd5b505af1158015610e54573d6000803e3d6000fd5b505050508080610e639061292a565b915050610db7565b506040805185815260208101849052869133917ff8686c1077035ddebc5a87f1379b31a4832835fcac14765d41d82d4ec0b5e2d4910160405180910390a35050505050565b600054604051632474521560e21b8152600080516020612cc683398151915260048201523360248201526101009091046001600160a01b0316906391d1485490604401602060405180830381865afa158015610f10573d6000803e3d6000fd5b505050506040513d601f19601f82011682018060405250810190610f34919061280e565b610f505760405162461bcd60e51b815260040161044a90612943565b610f58611e0f565b565b6006546000906001600160a01b0316610fa85760405162461bcd60e51b815260206004820152601060248201526f11195c1b1bde595c881b9bdd081cd95d60821b604482015260640161044a565b6006546000906001600160a01b031663cffd1da2610fc6868061296d565b610fd3602089018961296d565b60005461010090046001600160a01b03163360408c0135610ffa60808e0160608f016129bb565b6040518963ffffffff1660e01b815260040161101d989796959493929190612a12565b6020604051808303816000875af115801561103c573d6000803e3d6000fd5b505050506040513d601f19601f8201168201806040525081019061106091906127da565b9050600061106d84612b59565b6001600160a01b03831660c0820152905061108781611e61565b509392505050565b604080516101808101825260008082526020820181905291810182905260608082018390526080820183905260a082015260c0810182905260e08101829052610100810182905261012081018290526101408101829052610160810191909152600082815260036020908152604091829020825161018081018452815463ffffffff80821683526401000000008204811694830194909452600160401b8104841694820194909452600160601b840483166060820152600160801b909304909116608083015260018101805460a08401919061116a90612735565b80601f016020809104026020016040519081016040528092919081815260200182805461119690612735565b80156111e35780601f106111b8576101008083540402835291602001916111e3565b820191906000526020600020905b8154815290600101906020018083116111c657829003601f168201915b505050918352505060028201546001600160a01b039081166020830152600383015481166040830152600483015460608301526005830154608083015260068301541660a082015260079091015460c09091015292915050565b600054604051632474521560e21b8152600080516020612cc683398151915260048201523360248201526101009091046001600160a01b0316906391d1485490604401602060405180830381865afa15801561129d573d6000803e3d6000fd5b505050506040513d601f19601f820116820180604052508101906112c1919061280e565b6112dd5760405162461bcd60e51b815260040161044a90612943565b600680546001600160a01b0319166001600160a01b0392909216919091179055565b60008281526003602052604090205463ffffffff1661135b5760405162461bcd60e51b815260206004820152601860248201527710dbdb1b1958dd1a5bdb88191bd95cdb89dd08195e1a5cdd60421b604482015260640161044a565b600054604051632474521560e21b8152600080516020612cc683398151915260048201523360248201526101009091046001600160a01b0316906391d1485490604401602060405180830381865afa1580156113bb573d6000803e3d6000fd5b505050506040513d601f19601f820116820180604052508101906113df919061280e565b8061147557506000828152600360209081526040918290206002015482516321de0b0960e11b815292516001600160a01b03909116926343bc16129260048083019391928290030181865afa15801561143c573d6000803e3d6000fd5b505050506040513d601f19601f8201168201806040525081019061146091906127da565b6001600160a01b0316336001600160a01b0316145b6114915760405162461bcd60e51b815260040161044a90612c4b565b6127108111156114d35760405162461bcd60e51b815260206004820152600d60248201526c496e76616c696420736861726560981b604482015260640161044a565b60009182526004602052604090912055565b600054604051632474521560e21b8152600080516020612cc683398151915260048201523360248201526101009091046001600160a01b0316906391d1485490604401602060405180830381865afa158015611545573d6000803e3d6000fd5b505050506040513d601f19601f82011682018060405250810190611569919061280e565b6115855760405162461bcd60e51b815260040161044a90612943565b610f58612247565b61159d60e0820160c083016125f5565b600054604051632474521560e21b8152600080516020612cc683398151915260048201523360248201526101009091046001600160a01b0316906391d1485490604401602060405180830381865afa1580156115fd573d6000803e3d6000fd5b505050506040513d601f19601f82011682018060405250810190611621919061280e565b806116ae575061163081612284565b80156116ae5750806001600160a01b03166343bc16126040518163ffffffff1660e01b8152600401602060405180830381865afa158015611675573d6000803e3d6000fd5b505050506040513d601f19601f8201168201806040525081019061169991906127da565b6001600160a01b0316336001600160a01b0316145b6116ca5760405162461bcd60e51b815260040161044a90612c4b565b6116db6116d683612b59565b611e61565b5050565b60008281526003602052604090205463ffffffff1661173b5760405162461bcd60e51b815260206004820152601860248201527710dbdb1b1958dd1a5bdb88191bd95cdb89dd08195e1a5cdd60421b604482015260640161044a565b600054604051632474521560e21b8152600080516020612cc683398151915260048201523360248201526101009091046001600160a01b0316906391d1485490604401602060405180830381865afa15801561179b573d6000803e3d6000fd5b505050506040513d601f19601f820116820180604052508101906117bf919061280e565b8061185557506000828152600360209081526040918290206002015482516321de0b0960e11b815292516001600160a01b03909116926343bc16129260048083019391928290030181865afa15801561181c573d6000803e3d6000fd5b505050506040513d601f19601f8201168201806040525081019061184091906127da565b6001600160a01b0316336001600160a01b0316145b6118715760405162461bcd60e51b815260040161044a90612c4b565b600091825260036020819052604090922090910180546001600160a01b0319166001600160a01b03909216919091179055565b600054604051632474521560e21b8152600080516020612cc683398151915260048201523360248201526101009091046001600160a01b0316906391d1485490604401602060405180830381865afa158015611904573d6000803e3d6000fd5b505050506040513d601f19601f82011682018060405250810190611928919061280e565b6119445760405162461bcd60e51b815260040161044a90612943565b600580546001600160a01b0319166001600160a01b0392909216919091179055565b6003602052600090815260409020805460018201805463ffffffff808416946401000000008504821694600160401b8104831694600160601b8204841694600160801b90920490931692906119ba90612735565b80601f01602080910402602001604051908101604052809291908181526020018280546119e690612735565b8015611a335780601f10611a0857610100808354040283529160200191611a33565b820191906000526020600020905b815481529060010190602001808311611a1657829003601f168201915b5050506002840154600385015460048601546005870154600688015460079098015496976001600160a01b039485169793851696509194509216908c565b60005460ff1615610f585760405162461bcd60e51b815260206004820152601060248201526f14185d5cd8589b194e881c185d5cd95960821b604482015260640161044a565b60e08101516001600160a01b038116156116db576040516320c18e6b60e21b8152336004820152600060248201526001600160a01b0382169063830639ac90604401602060405180830381865afa158015611b16573d6000803e3d6000fd5b505050506040513d601f19601f82011682018060405250810190611b3a919061280e565b6116db5760405162461bcd60e51b815260206004820152600f60248201526e139bdd081dda1a5d195b1a5cdd1959608a1b604482015260640161044a565b600080546040516d616464726573732e636f6e66696760901b6020820152829161010090046001600160a01b0316906321f8a72190602e01604051602081830303815290604052805190602001206040518263ffffffff1660e01b8152600401611be491815260200190565b602060405180830381865afa158015611c01573d6000803e3d6000fd5b505050506040513d601f19601f82011682018060405250810190611c2591906127da565b90506001600160a01b038116611c3e57611f4091505090565b6000816001600160a01b031663bd02d0f5604051602001611c7890721cda185c994b9c1c9a5b585c9e505c9d1a5cdd606a1b815260130190565b604051602081830303815290604052805190602001206040518263ffffffff1660e01b8152600401611cac91815260200190565b602060405180830381865afa158015611cc9573d6000803e3d6000fd5b505050506040513d601f19601f82011682018060405250810190611ced9190612c82565b90508015611cfb5780611cff565b611f405b9250505090565b606081600003611d2d5750506040805180820190915260018152600360fc1b602082015290565b8160005b8115611d575780611d418161292a565b9150611d509050600a836127c6565b9150611d31565b60008167ffffffffffffffff811115611d7257611d72612a78565b6040519080825280601f01601f191660200182016040528015611d9c576020820181803683370190505b5090505b8415611e0757611db16001836127f7565b9150611dbe600a86612c9b565b611dc990603061271d565b60f81b818381518110611dde57611dde612caf565b60200101906001600160f81b031916908160001a905350611e00600a866127c6565b9450611da0565b949350505050565b611e176122cc565b6000805460ff191690557f5db9ee0a495bf2e6ff9c91a7834c1ba4fdd244a5e8aa4e537bd38aeae4b073aa335b6040516001600160a01b03909116815260200160405180910390a1565b805163ffffffff1615801590611e9c5750602081015163ffffffff161580611e9c5750806000015163ffffffff16816020015163ffffffff16115b611ed85760405162461bcd60e51b815260206004820152600d60248201526c496e76616c69642074696d657360981b604482015260640161044a565b6000816040015163ffffffff1611611f235760405162461bcd60e51b815260206004820152600e60248201526d496e76616c696420737570706c7960901b604482015260640161044a565b60008160a001515111611f6a5760405162461bcd60e51b815260206004820152600f60248201526e496e76616c6964206261736555726960881b604482015260640161044a565b6101408101516001600160a01b03161580611fa657506101408101516001600160a01b031673eeeeeeeeeeeeeeeeeeeeeeeeeeeeeeeeeeeeeeee145b611fe95760405162461bcd60e51b8152602060048201526014602482015273556e737570706f727465642063757272656e637960601b604482015260640161044a565b61012081015160009081526003602052604090205463ffffffff16156120515760405162461bcd60e51b815260206004820152601960248201527f436f6c6c656374696f6e20616c72656164792065786973747300000000000000604482015260640161044a565b61271081610160015111156120985760405162461bcd60e51b815260206004820152600d60248201526c496e76616c696420736861726560981b604482015260640161044a565b6101208101516000908152600360209081526040918290208351815483860151948601516060870151608088015163ffffffff94851667ffffffffffffffff199094169390931764010000000097851697909702969096176fffffffffffffffff00000000000000001916600160401b9184169190910263ffffffff60601b191617600160601b958316959095029490941763ffffffff60801b1916600160801b919094160292909217825560a0830151805184939261215f926001850192910190612315565b5060c08201516002820180546001600160a01b039283166001600160a01b03199182161790915560e084015160038401805491841691831691909117905561010084015160048401556101208401516005840155610140840151600684018054919093169116179055610160918201516007909101558101516121e9576121e4611b78565b6121f0565b8061016001515b610120820180516000908152600460205260408082209390935560c0840151915192516001600160a01b0390921692917f18c1b1c8856053698af995ce4384c0f661562c52a65d6dd29b910849d5e1bfca9190a350565b61224f611a71565b6000805460ff191660011790557f62e78cea01bee320cd4e420270b5ea74000d11b0c9f74754ebdbfc544b05a258611e443390565b6005546000906001600160a01b0316158015906122ab57506000826001600160a01b03163b115b80156122c657506005546001600160a01b038381163f91163f145b92915050565b60005460ff16610f585760405162461bcd60e51b815260206004820152601460248201527314185d5cd8589b194e881b9bdd081c185d5cd95960621b604482015260640161044a565b82805461232190612735565b90600052602060002090601f0160209004810192826123435760008555612389565b82601f1061235c57805160ff1916838001178555612389565b82800160010185558215612389579182015b8281111561238957825182559160200191906001019061236e565b50612395929150612399565b5090565b5b80821115612395576000815560010161239a565b600080604083850312156123c157600080fd5b50508035926020909101359150565b600061018082840312156123e357600080fd5b50919050565b600080604083850312156123fc57600080fd5b823567ffffffffffffffff8082111561241457600080fd5b908401906080828703121561242857600080fd5b9092506020840135908082111561243e57600080fd5b5061244b858286016123d0565b9150509250929050565b60006020828403121561246757600080fd5b5035919050565b60005b83811015612489578181015183820152602001612471565b83811115612498576000848401525b50505050565b600081518084526124b681602086016020860161246e565b601f01601f19169290920160200192915050565b602081526124e160208201835163ffffffff169052565b600060208301516124fa604084018263ffffffff169052565b50604083015163ffffffff8116606084015250606083015163ffffffff8116608084015250608083015163ffffffff811660a08401525060a08301516101808060c085015261254d6101a085018361249e565b915060c085015161256960e08601826001600160a01b03169052565b5060e0850151610100612586818701836001600160a01b03169052565b860151610120868101919091528601516101408087019190915286015190506101606125bc818701836001600160a01b03169052565b959095015193019290925250919050565b6001600160a01b03811681146125e257600080fd5b50565b80356125f0816125cd565b919050565b60006020828403121561260757600080fd5b8135612612816125cd565b9392505050565b6000806040838503121561262c57600080fd5b82359150602083013561263e816125cd565b809150509250929050565b60006020828403121561265b57600080fd5b813567ffffffffffffffff81111561267257600080fd5b611e07848285016123d0565b600063ffffffff808f168352808e166020840152808d166040840152808c166060840152808b1660808401525061018060a08301526126c161018083018a61249e565b6001600160a01b0398891660c084015296881660e08301525061010081019490945261012084019290925290931661014082015261016001919091529695505050505050565b634e487b7160e01b600052601160045260246000fd5b6000821982111561273057612730612707565b500190565b600181811c9082168061274957607f821691505b6020821081036123e357634e487b7160e01b600052602260045260246000fd5b600063ffffffff80831681851680830382111561278857612788612707565b01949350505050565b60008160001904831182151516156127ab576127ab612707565b500290565b634e487b7160e01b600052601260045260246000fd5b6000826127d5576127d56127b0565b500490565b6000602082840312156127ec57600080fd5b8151612612816125cd565b60008282101561280957612809612707565b500390565b60006020828403121561282057600080fd5b8151801515811461261257600080fd5b6000815161284281856020860161246e565b9290920192915050565b600080845481600182811c91508083168061286857607f831692505b6020808410820361288757634e487b7160e01b86526022600452602486fd5b81801561289b57600181146128ac576128d9565b60ff198616895284890196506128d9565b60008b81526020902060005b868110156128d15781548b8201529085019083016128b8565b505084890196505b5050505050506128fd6128ec8286612830565b64173539b7b760d91b815260050190565b95945050505050565b6001600160a01b0383168152604060208201819052600090611e079083018461249e565b60006001820161293c5761293c612707565b5060010190565b60208082526010908201526f41646d696e2063616c6c73206f6e6c7960801b604082015260600190565b6000808335601e1984360301811261298457600080fd5b83018035915067ffffffffffffffff82111561299f57600080fd5b6020019150368190038213156129b457600080fd5b9250929050565b6000602082840312156129cd57600080fd5b81356bffffffffffffffffffffffff8116811461261257600080fd5b81835281816020850137506000828201602090810191909152601f909101601f19169091010190565b60c081526000612a2660c083018a8c6129e9565b8281036020840152612a3981898b6129e9565b6001600160a01b0397881660408501529590961660608301525060808101929092526bffffffffffffffffffffffff1660a09091015295945050505050565b634e487b7160e01b600052604160045260246000fd5b604051610180810167ffffffffffffffff81118282101715612ab257612ab2612a78565b60405290565b803563ffffffff811681146125f057600080fd5b600082601f830112612add57600080fd5b813567ffffffffffffffff80821115612af857612af8612a78565b604051601f8301601f19908116603f01168101908282118183101715612b2057612b20612a78565b81604052838152866020858801011115612b3957600080fd5b836020870160208301376000602085830101528094505050505092915050565b60006101808236031215612b6c57600080fd5b612b74612a8e565b612b7d83612ab8565b8152612b8b60208401612ab8565b6020820152612b9c60408401612ab8565b6040820152612bad60608401612ab8565b6060820152612bbe60808401612ab8565b608082015260a083013567ffffffffffffffff811115612bdd57600080fd5b612be936828601612acc565b60a083015250612bfb60c084016125e5565b60c0820152612c0c60e084016125e5565b60e082015261010083810135908201526101208084013590820152610140612c358185016125e5565b9082015261016092830135928101929092525090565b6020808252601e908201527f41646d696e206f7220746865204e4654277320617274697374206f6e6c790000604082015260600190565b600060208284031215612c9457600080fd5b5051919050565b600082612caa57612caa6127b0565b500690565b634e487b7160e01b600052603260045260246000fdfee303cb88ace8c9e6ba216f1aecb44b3206dcab364c60512ffc6cbc920a1bf9d1a2646970667358221220b8d96650d5e285f127fe363788b9a7cd885b19685938ca1240ff0bd7381f78b064736f6c634300080e0033",
  "linkReferences": {},
  "deployedLinkReferences": {}
}