{
  "_format": "hh-sol-artifact-1",
  "contractName": "SageCollection",
  "sourceName": "contracts/Collection/SageCollection.sol",
  "abi": [
    {
      "inputs": [
        {
          "internalType": "address",
          "name": "_sageStorage",
          "type": "address"
        },
        {
          "internalType": "address",
          "name": "_token",
          "type": "address"
        }
      ],
      "stateMutability": "nonpayable",
      "type": "constructor"
    },
    {
      "anonymous": false,
      "inputs": [
        {
          "indexed": true,
          "internalType": "uint256",
          "name": "id",
          "type": "uint256"
        },
        {
          "indexed": true,
          "internalType": "address",
          "name": "nftContract",
          "type": "address"
        }
      ],
      "name": "CollectionCreated",
      "type": "event"
    },
    {
      "anonymous": false,
      "inputs": [
        {
          "indexed": true,
          "internalType": "address",
          "name": "user",
          "type": "address"
        },
        {
          "indexed": true,
          "internalType": "uint256",
          "name": "id",
          "type": "uint256"
        },
        {
          "indexed": false,
          "internalType": "uint256",
          "name": "amount",
          "type": "uint256"
        },
        {
          "indexed": false,
          "internalType": "uint256",
          "name": "firstIndex",
          "type": "uint256"
        }
      ],
      "name": "CollectionMint",
      "type": "event"
    },
    {
      "anonymous": false,
      "inputs": [
        {
          "indexed": false,
          "internalType": "address",
          "name": "account",
          "type": "address"
        }
      ],
      "name": "Paused",
      "type": "event"
    },
    {
      "anonymous": false,
      "inputs": [
        {
          "indexed": false,
          "internalType": "address",
          "name": "account",
          "type": "address"
        }
      ],
      "name": "Unpaused",
      "type": "event"
    },
    {
      "inputs": [],
      "name": "NATIVE_CURRENCY",
      "outputs": [
        {
          "internalType": "address",
          "name": "",
          "type": "address"
        }
      ],
      "stateMutability": "view",
      "type": "function"
    },
    {
      "inputs": [
        {
          "internalType": "uint256",
          "name": "",
          "type": "uint256"
        }
      ],
      "name": "collectionArtistShare",
      "outputs": [
        {
          "internalType": "uint256",
          "name": "",
          "type": "uint256"
        }
      ],
      "stateMutability": "view",
      "type": "function"
    },
    {
      "inputs": [
        {
          "internalType": "uint256",
          "name": "",
          "type": "uint256"
        }
      ],
      "name": "collections",
      "outputs": [
        {
          "internalType": "uint32",
          "name": "startTime",
          "type": "uint32"
        },
        {
          "internalType": "uint32",
          "name": "closeTime",
          "type": "uint32"
        },
        {
          "internalType": "uint32",
          "name": "maxSupply",
          "type": "uint32"
        },
        {
          "internalType": "uint32",
          "name": "mintCount",
          "type": "uint32"
        },
        {
          "internalType": "uint32",
          "name": "limitPerUser",
          "type": "uint32"
        },
        {
          "internalType": "string",
          "name": "baseUri",
          "type": "string"
        },
        {
          "internalType": "contract INFT",
          "name": "nftContract",
          "type": "address"
        },
        {
          "internalType": "contract IWhitelist",
          "name": "whitelist",
          "type": "address"
        },
        {
          "internalType": "uint256",
          "name": "costTokens",
          "type": "uint256"
        },
        {
          "internalType": "uint256",
          "name": "id",
          "type": "uint256"
        },
        {
          "internalType": "address",
          "name": "currency",
          "type": "address"
        }
      ],
      "stateMutability": "view",
      "type": "function"
    },
    {
      "inputs": [
        {
          "components": [
            {
              "internalType": "uint32",
              "name": "startTime",
              "type": "uint32"
            },
            {
              "internalType": "uint32",
              "name": "closeTime",
              "type": "uint32"
            },
            {
              "internalType": "uint32",
              "name": "maxSupply",
              "type": "uint32"
            },
            {
              "internalType": "uint32",
              "name": "mintCount",
              "type": "uint32"
            },
            {
              "internalType": "uint32",
              "name": "limitPerUser",
              "type": "uint32"
            },
            {
              "internalType": "string",
              "name": "baseUri",
              "type": "string"
            },
            {
              "internalType": "contract INFT",
              "name": "nftContract",
              "type": "address"
            },
            {
              "internalType": "contract IWhitelist",
              "name": "whitelist",
              "type": "address"
            },
            {
              "internalType": "uint256",
              "name": "costTokens",
              "type": "uint256"
            },
            {
              "internalType": "uint256",
              "name": "id",
              "type": "uint256"
            },
            {
              "internalType": "address",
              "name": "currency",
              "type": "address"
            }
          ],
          "internalType": "struct SageCollection.Collection",
          "name": "c",
          "type": "tuple"
        }
      ],
      "name": "createCollection",
      "outputs": [],
      "stateMutability": "nonpayable",
      "type": "function"
    },
    {
      "inputs": [
        {
          "internalType": "uint256",
          "name": "_id",
          "type": "uint256"
        }
      ],
      "name": "getCollection",
      "outputs": [
        {
          "components": [
            {
              "internalType": "uint32",
              "name": "startTime",
              "type": "uint32"
            },
            {
              "internalType": "uint32",
              "name": "closeTime",
              "type": "uint32"
            },
            {
              "internalType": "uint32",
              "name": "maxSupply",
              "type": "uint32"
            },
            {
              "internalType": "uint32",
              "name": "mintCount",
              "type": "uint32"
            },
            {
              "internalType": "uint32",
              "name": "limitPerUser",
              "type": "uint32"
            },
            {
              "internalType": "string",
              "name": "baseUri",
              "type": "string"
            },
            {
              "internalType": "contract INFT",
              "name": "nftContract",
              "type": "address"
            },
            {
              "internalType": "contract IWhitelist",
              "name": "whitelist",
              "type": "address"
            },
            {
              "internalType": "uint256",
              "name": "costTokens",
              "type": "uint256"
            },
            {
              "internalType": "uint256",
              "name": "id",
              "type": "uint256"
            },
            {
              "internalType": "address",
              "name": "currency",
              "type": "address"
            }
          ],
          "internalType": "struct SageCollection.Collection",
          "name": "",
          "type": "tuple"
        }
      ],
      "stateMutability": "view",
      "type": "function"
    },
    {
      "inputs": [
        {
          "internalType": "uint256",
          "name": "_id",
          "type": "uint256"
        }
      ],
      "name": "getMintCount",
      "outputs": [
        {
          "internalType": "uint32",
          "name": "",
          "type": "uint32"
        }
      ],
      "stateMutability": "view",
      "type": "function"
    },
    {
      "inputs": [
        {
          "internalType": "uint256",
          "name": "_id",
          "type": "uint256"
        },
        {
          "internalType": "uint256",
          "name": "_amount",
          "type": "uint256"
        }
      ],
      "name": "mint",
      "outputs": [],
      "stateMutability": "payable",
      "type": "function"
    },
    {
      "inputs": [
        {
          "internalType": "uint256",
          "name": "",
          "type": "uint256"
        },
        {
          "internalType": "address",
          "name": "",
          "type": "address"
        }
      ],
      "name": "mintedByUser",
      "outputs": [
        {
          "internalType": "uint256",
          "name": "",
          "type": "uint256"
        }
      ],
      "stateMutability": "view",
      "type": "function"
    },
    {
      "inputs": [],
      "name": "pause",
      "outputs": [],
      "stateMutability": "nonpayable",
      "type": "function"
    },
    {
      "inputs": [],
      "name": "paused",
      "outputs": [
        {
          "internalType": "bool",
          "name": "",
          "type": "bool"
        }
      ],
      "stateMutability": "view",
      "type": "function"
    },
    {
      "inputs": [
        {
          "internalType": "uint256",
          "name": "_id",
          "type": "uint256"
        },
        {
          "internalType": "uint256",
          "name": "_shareBps",
          "type": "uint256"
        }
      ],
      "name": "setCollectionArtistShare",
      "outputs": [],
      "stateMutability": "nonpayable",
      "type": "function"
    },
    {
      "inputs": [
        {
          "internalType": "uint256",
          "name": "_id",
          "type": "uint256"
        },
        {
          "internalType": "address",
          "name": "_whitelist",
          "type": "address"
        }
      ],
      "name": "setWhitelist",
      "outputs": [],
      "stateMutability": "nonpayable",
      "type": "function"
    },
    {
      "inputs": [],
      "name": "token",
      "outputs": [
        {
          "internalType": "contract IERC20",
          "name": "",
          "type": "address"
        }
      ],
      "stateMutability": "view",
      "type": "function"
    },
    {
      "inputs": [],
      "name": "unpause",
      "outputs": [],
      "stateMutability": "nonpayable",
      "type": "function"
    }
  ],
  "bytecode": "0x60806040523480156200001157600080fd5b50604051620024823803806200248283398101604081905262000034916200008c565b600080546001600160a81b0319166101006001600160a01b0394851602179055600180546001600160a01b03191691909216179055620000c4565b80516001600160a01b03811681146200008757600080fd5b919050565b60008060408385031215620000a057600080fd5b620000ab836200006f565b9150620000bb602084016200006f565b90509250929050565b6123ae80620000d46000396000f3fe6080604052600436106100dd5760003560e01c80638456cb591161007f578063db09a3f511610059578063db09a3f51461025c578063db6459fe146102ab578063fc0c546a146102d8578063fdbda0ec146102f857600080fd5b80638456cb5914610207578063c9b03c5d1461021c578063d89da2861461023c57600080fd5b80635a1f3c28116100bb5780635a1f3c28146101515780635c975abb1461017e57806363c060aa146101a157806368cad295146101e757600080fd5b80631b2ef1ca146100e25780633f4ba83a146100f757806349f426501461010c575b600080fd5b6100f56100f0366004611ae7565b61032f565b005b34801561010357600080fd5b506100f5610d42565b34801561011857600080fd5b5061013473eeeeeeeeeeeeeeeeeeeeeeeeeeeeeeeeeeeeeeee81565b6040516001600160a01b0390911681526020015b60405180910390f35b34801561015d57600080fd5b5061017161016c366004611b09565b610dec565b6040516101489190611b7e565b34801561018a57600080fd5b5060005460ff166040519015158152602001610148565b3480156101ad57600080fd5b506101d96101bc366004611c85565b600260209081526000928352604080842090915290825290205481565b604051908152602001610148565b3480156101f357600080fd5b506100f5610202366004611ae7565b610f8a565b34801561021357600080fd5b506100f56110df565b34801561022857600080fd5b506100f5610237366004611cb5565b611187565b34801561024857600080fd5b506100f5610257366004611c85565b611495565b34801561026857600080fd5b50610296610277366004611b09565b600090815260036020526040902054600160601b900463ffffffff1690565b60405163ffffffff9091168152602001610148565b3480156102b757600080fd5b506101d96102c6366004611b09565b60046020526000908152604090205481565b3480156102e457600080fd5b50600154610134906001600160a01b031681565b34801561030457600080fd5b50610318610313366004611b09565b611568565b6040516101489b9a99989796959493929190611cf8565b61033761166d565b6000811161037b5760405162461bcd60e51b815260206004820152600c60248201526b043616e2774206d696e7420360a41b60448201526064015b60405180910390fd5b600082815260036020526040902080544263ffffffff909116118015906103c857508054640100000000900463ffffffff1615806103c8575080544264010000000090910463ffffffff16115b6103ff5760405162461bcd60e51b81526020600482015260086024820152672737ba1037b832b760c11b6044820152606401610372565b805463ffffffff600160401b8204811691610423918591600160601b900416611d93565b111561046a5760405162461bcd60e51b8152602060048201526016602482015275139bdd08195b9bdd59da081cdd5c1c1b1e481b19599d60521b6044820152606401610372565b6040805161016081018252825463ffffffff8082168352640100000000820481166020840152600160401b8204811693830193909352600160601b810483166060830152600160801b900490911660808201526001820180546105a39291849160a0840191906104d990611dab565b80601f016020809104026020016040519081016040528092919081815260200182805461050590611dab565b80156105525780601f1061052757610100808354040283529160200191610552565b820191906000526020600020905b81548152906001019060200180831161053557829003601f168201915b505050918352505060028201546001600160a01b039081166020830152600383015481166040830152600483015460608301526005830154608083015260069092015490911660a0909101526116b3565b8054600160801b900463ffffffff161561062f5780546000848152600260209081526040808320338452909152902054600160801b90910463ffffffff16906105ec9084611d93565b111561062f5760405162461bcd60e51b8152602060048201526012602482015271135a5b9d081b1a5b5a5d081c995858da195960721b6044820152606401610372565b600083815260026020908152604080832033845290915281208054849290610658908490611d93565b9091555050805460009061067a90600160601b900463ffffffff166001611de5565b825463ffffffff918216925084918491600c916106a1918591600160601b90910416611de5565b92506101000a81548163ffffffff021916908363ffffffff16021790555060008383600401546106d19190611e0d565b90508015610c0957600085815260046020526040812054908190036106fb576106f8611778565b90505b600061271061070a8385611e0d565b6107149190611e42565b60068601549091506001600160a01b031673eeeeeeeeeeeeeeeeeeeeeeeeeeeeeeeeeeeeeeed19016109b6578234146107825760405162461bcd60e51b815260206004820152601060248201526f15dc9bdb99c811551208185b5bdd5b9d60821b6044820152606401610372565b6002850154604080516321de0b0960e11b815290516000926001600160a01b0316916343bc16129160048083019260209291908290030181865afa1580156107ce573d6000803e3d6000fd5b505050506040513d601f19601f820116820180604052508101906107f29190611e56565b6001600160a01b03168260405160006040518083038185875af1925050503d806000811461083c576040519150601f19603f3d011682016040523d82523d6000602084013e610841565b606091505b50509050806108925760405162461bcd60e51b815260206004820152601a60248201527f41727469737420455448207472616e73666572206661696c65640000000000006044820152606401610372565b60008060019054906101000a90046001600160a01b03166001600160a01b0316634783c35b6040518163ffffffff1660e01b8152600401602060405180830381865afa1580156108e6573d6000803e3d6000fd5b505050506040513d601f19601f8201168201806040525081019061090a9190611e56565b6001600160a01b031661091d8487611e73565b604051600081818185875af1925050503d8060008114610959576040519150601f19603f3d011682016040523d82523d6000602084013e61095e565b606091505b50509050806109af5760405162461bcd60e51b815260206004820152601c60248201527f506c6174666f726d20455448207472616e73666572206661696c6564000000006044820152606401610372565b5050610c02565b3415610a045760405162461bcd60e51b815260206004820152601f60248201527f436f6c6c656374696f6e206973206e6f742070726963656420696e20455448006044820152606401610372565b6001546002860154604080516321de0b0960e11b815290516001600160a01b03938416936323b872dd9333939116916343bc1612916004808201926020929091908290030181865afa158015610a5e573d6000803e3d6000fd5b505050506040513d601f19601f82011682018060405250810190610a829190611e56565b6040516001600160e01b031960e085901b1681526001600160a01b03928316600482015291166024820152604481018490526064016020604051808303816000875af1158015610ad6573d6000803e3d6000fd5b505050506040513d601f19601f82011682018060405250810190610afa9190611e8a565b5060015460005460408051634783c35b60e01b815290516001600160a01b03938416936323b872dd93339361010090910490911691634783c35b916004808201926020929091908290030181865afa158015610b5a573d6000803e3d6000fd5b505050506040513d601f19601f82011682018060405250810190610b7e9190611e56565b610b888588611e73565b6040516001600160e01b031960e086901b1681526001600160a01b03938416600482015292909116602483015260448201526064016020604051808303816000875af1158015610bdc573d6000803e3d6000fd5b505050506040513d601f19601f82011682018060405250810190610c009190611e8a565b505b5050610c46565b3415610c465760405162461bcd60e51b815260206004820152600c60248201526b4d696e74206973206672656560a01b6044820152606401610372565b60005b84811015610cfd5760028401546001600160a01b031663d204c45e3360018701610c7b610c768689611d93565b611906565b604051602001610c8c929190611eac565b6040516020818303038152906040526040518363ffffffff1660e01b8152600401610cb8929190611f3f565b600060405180830381600087803b158015610cd257600080fd5b505af1158015610ce6573d6000803e3d6000fd5b505050508080610cf590611f63565b915050610c49565b506040805185815260208101849052869133917ff8686c1077035ddebc5a87f1379b31a4832835fcac14765d41d82d4ec0b5e2d4910160405180910390a35050505050565b600054604051632474521560e21b815260008051602061235983398151915260048201523360248201526101009091046001600160a01b0316906391d1485490604401602060405180830381865afa158015610da2573d6000803e3d6000fd5b505050506040513d601f19601f82011682018060405250810190610dc69190611e8a565b610de25760405162461bcd60e51b815260040161037290611f7c565b610dea611a0f565b565b604080516101608101825260008082526020820181905291810182905260608082018390526080820183905260a082015260c0810182905260e0810182905261010081018290526101208101829052610140810191909152600082815260036020908152604091829020825161016081018452815463ffffffff80821683526401000000008204811694830194909452600160401b8104841694820194909452600160601b840483166060820152600160801b909304909116608083015260018101805460a084019190610ebf90611dab565b80601f0160208091040260200160405190810160405280929190818152602001828054610eeb90611dab565b8015610f385780601f10610f0d57610100808354040283529160200191610f38565b820191906000526020600020905b815481529060010190602001808311610f1b57829003601f168201915b505050918352505060028201546001600160a01b039081166020830152600383015481166040830152600483015460608301526005830154608083015260069092015490911660a09091015292915050565b600054604051632474521560e21b815260008051602061235983398151915260048201523360248201526101009091046001600160a01b0316906391d1485490604401602060405180830381865afa158015610fea573d6000803e3d6000fd5b505050506040513d601f19601f8201168201806040525081019061100e9190611e8a565b61102a5760405162461bcd60e51b815260040161037290611f7c565b61271081111561106c5760405162461bcd60e51b815260206004820152600d60248201526c496e76616c696420736861726560981b6044820152606401610372565b60008281526003602052604090205463ffffffff166110cd5760405162461bcd60e51b815260206004820152601860248201527f436f6c6c656374696f6e20646f65736e277420657869737400000000000000006044820152606401610372565b60009182526004602052604090912055565b600054604051632474521560e21b815260008051602061235983398151915260048201523360248201526101009091046001600160a01b0316906391d1485490604401602060405180830381865afa15801561113f573d6000803e3d6000fd5b505050506040513d601f19601f820116820180604052508101906111639190611e8a565b61117f5760405162461bcd60e51b815260040161037290611f7c565b610dea611a61565b600054604051632474521560e21b815260008051602061235983398151915260048201523360248201526101009091046001600160a01b0316906391d1485490604401602060405180830381865afa1580156111e7573d6000803e3d6000fd5b505050506040513d601f19601f8201168201806040525081019061120b9190611e8a565b6112275760405162461bcd60e51b815260040161037290611f7c565b60006112366020830183611fb8565b63ffffffff1611801561128c57506112546040820160208301611fb8565b63ffffffff16158061128c575061126e6020820182611fb8565b63ffffffff166112846040830160208401611fb8565b63ffffffff16115b6112c85760405162461bcd60e51b815260206004820152600d60248201526c496e76616c69642074696d657360981b6044820152606401610372565b60006112da6060830160408401611fb8565b63ffffffff161161131e5760405162461bcd60e51b815260206004820152600e60248201526d496e76616c696420737570706c7960901b6044820152606401610372565b600061132d60a0830183611fd5565b90501161136e5760405162461bcd60e51b815260206004820152600f60248201526e496e76616c6964206261736555726960881b6044820152606401610372565b600061138261016083016101408401612023565b6001600160a01b031614806113c4575073eeeeeeeeeeeeeeeeeeeeeeeeeeeeeeeeeeeeeeee6113b961016083016101408401612023565b6001600160a01b0316145b6114075760405162461bcd60e51b8152602060048201526014602482015273556e737570706f727465642063757272656e637960601b6044820152606401610372565b6101208101356000908152600360205260409020819061142782826121a6565b905050611432611778565b61012082013560009081526004602052604090205561145760e0820160c08301612023565b6001600160a01b03168161012001357f18c1b1c8856053698af995ce4384c0f661562c52a65d6dd29b910849d5e1bfca60405160405180910390a350565b600054604051632474521560e21b815260008051602061235983398151915260048201523360248201526101009091046001600160a01b0316906391d1485490604401602060405180830381865afa1580156114f5573d6000803e3d6000fd5b505050506040513d601f19601f820116820180604052508101906115199190611e8a565b6115355760405162461bcd60e51b815260040161037290611f7c565b600091825260036020819052604090922090910180546001600160a01b0319166001600160a01b03909216919091179055565b6003602052600090815260409020805460018201805463ffffffff808416946401000000008504821694600160401b8104831694600160601b8204841694600160801b90920490931692906115bc90611dab565b80601f01602080910402602001604051908101604052809291908181526020018280546115e890611dab565b80156116355780601f1061160a57610100808354040283529160200191611635565b820191906000526020600020905b81548152906001019060200180831161161857829003601f168201915b505050600284015460038501546004860154600587015460069097015495966001600160a01b0393841696928416955090935091168b565b60005460ff1615610dea5760405162461bcd60e51b815260206004820152601060248201526f14185d5cd8589b194e881c185d5cd95960821b6044820152606401610372565b60e08101516001600160a01b03811615611774576040516320c18e6b60e21b8152336004820152600060248201526001600160a01b0382169063830639ac90604401602060405180830381865afa158015611712573d6000803e3d6000fd5b505050506040513d601f19601f820116820180604052508101906117369190611e8a565b6117745760405162461bcd60e51b815260206004820152600f60248201526e139bdd081dda1a5d195b1a5cdd1959608a1b6044820152606401610372565b5050565b600080546040516d616464726573732e636f6e66696760901b6020820152829161010090046001600160a01b0316906321f8a72190602e01604051602081830303815290604052805190602001206040518263ffffffff1660e01b81526004016117e491815260200190565b602060405180830381865afa158015611801573d6000803e3d6000fd5b505050506040513d601f19601f820116820180604052508101906118259190611e56565b90506001600160a01b03811661183e57611f4091505090565b6000816001600160a01b031663bd02d0f560405160200161187890721cda185c994b9c1c9a5b585c9e505c9d1a5cdd606a1b815260130190565b604051602081830303815290604052805190602001206040518263ffffffff1660e01b81526004016118ac91815260200190565b602060405180830381865afa1580156118c9573d6000803e3d6000fd5b505050506040513d601f19601f820116820180604052508101906118ed9190612315565b905080156118fb57806118ff565b611f405b9250505090565b60608160000361192d5750506040805180820190915260018152600360fc1b602082015290565b8160005b8115611957578061194181611f63565b91506119509050600a83611e42565b9150611931565b60008167ffffffffffffffff81111561197257611972612053565b6040519080825280601f01601f19166020018201604052801561199c576020820181803683370190505b5090505b8415611a07576119b1600183611e73565b91506119be600a8661232e565b6119c9906030611d93565b60f81b8183815181106119de576119de612342565b60200101906001600160f81b031916908160001a905350611a00600a86611e42565b94506119a0565b949350505050565b611a17611a9e565b6000805460ff191690557f5db9ee0a495bf2e6ff9c91a7834c1ba4fdd244a5e8aa4e537bd38aeae4b073aa335b6040516001600160a01b03909116815260200160405180910390a1565b611a6961166d565b6000805460ff191660011790557f62e78cea01bee320cd4e420270b5ea74000d11b0c9f74754ebdbfc544b05a258611a443390565b60005460ff16610dea5760405162461bcd60e51b815260206004820152601460248201527314185d5cd8589b194e881b9bdd081c185d5cd95960621b6044820152606401610372565b60008060408385031215611afa57600080fd5b50508035926020909101359150565b600060208284031215611b1b57600080fd5b5035919050565b60005b83811015611b3d578181015183820152602001611b25565b83811115611b4c576000848401525b50505050565b60008151808452611b6a816020860160208601611b22565b601f01601f19169290920160200192915050565b60208152611b9560208201835163ffffffff169052565b60006020830151611bae604084018263ffffffff169052565b50604083015163ffffffff8116606084015250606083015163ffffffff8116608084015250608083015163ffffffff811660a08401525060a08301516101608060c0850152611c01610180850183611b52565b915060c0850151611c1d60e08601826001600160a01b03169052565b5060e0850151610100611c3a818701836001600160a01b03169052565b8601516101208681019190915286015161014080870191909152909501516001600160a01b031693019290925250919050565b6001600160a01b0381168114611c8257600080fd5b50565b60008060408385031215611c9857600080fd5b823591506020830135611caa81611c6d565b809150509250929050565b600060208284031215611cc757600080fd5b813567ffffffffffffffff811115611cde57600080fd5b82016101608185031215611cf157600080fd5b9392505050565b600061016063ffffffff808f168452808e166020850152808d166040850152808c166060850152808b166080850152508060a0840152611d3a8184018a611b52565b6001600160a01b0398891660c085015296881660e08401525050610100810193909352610120830191909152909216610140909201919091529695505050505050565b634e487b7160e01b600052601160045260246000fd5b60008219821115611da657611da6611d7d565b500190565b600181811c90821680611dbf57607f821691505b602082108103611ddf57634e487b7160e01b600052602260045260246000fd5b50919050565b600063ffffffff808316818516808303821115611e0457611e04611d7d565b01949350505050565b6000816000190483118215151615611e2757611e27611d7d565b500290565b634e487b7160e01b600052601260045260246000fd5b600082611e5157611e51611e2c565b500490565b600060208284031215611e6857600080fd5b8151611cf181611c6d565b600082821015611e8557611e85611d7d565b500390565b600060208284031215611e9c57600080fd5b81518015158114611cf157600080fd5b6000808454611eba81611dab565b60018281168015611ed25760018114611ee357611f12565b60ff19841687528287019450611f12565b8860005260208060002060005b85811015611f095781548a820152908401908201611ef0565b50505082870194505b505050508351611f26818360208801611b22565b64173539b7b760d91b9101908152600501949350505050565b6001600160a01b0383168152604060208201819052600090611a0790830184611b52565b600060018201611f7557611f75611d7d565b5060010190565b60208082526010908201526f41646d696e2063616c6c73206f6e6c7960801b604082015260600190565b63ffffffff81168114611c8257600080fd5b600060208284031215611fca57600080fd5b8135611cf181611fa6565b6000808335601e19843603018112611fec57600080fd5b83018035915067ffffffffffffffff82111561200757600080fd5b60200191503681900382131561201c57600080fd5b9250929050565b60006020828403121561203557600080fd5b8135611cf181611c6d565b6000813561204d81611fa6565b92915050565b634e487b7160e01b600052604160045260246000fd5b601f8211156120b357600081815260208120601f850160051c810160208610156120905750805b601f850160051c820191505b818110156120af5782815560010161209c565b5050505b505050565b67ffffffffffffffff8311156120d0576120d0612053565b6120e4836120de8354611dab565b83612069565b6000601f84116001811461211857600085156121005750838201355b600019600387901b1c1916600186901b178355612172565b600083815260209020601f19861690835b828110156121495786850135825560209485019460019092019101612129565b50868210156121665760001960f88860031b161c19848701351681555b505060018560011b0183555b5050505050565b6000813561204d81611c6d565b80546001600160a01b0319166001600160a01b0392909216919091179055565b6121c96121b283612040565b825463ffffffff191663ffffffff91909116178255565b6121fa6121d860208401612040565b825467ffffffff00000000191660209190911b67ffffffff0000000016178255565b61223361220960408401612040565b82546bffffffff0000000000000000191660409190911b6bffffffff000000000000000016178255565b61226661224260608401612040565b82805463ffffffff60601b191660609290921b63ffffffff60601b16919091179055565b61229961227560808401612040565b82805463ffffffff60801b191660809290921b63ffffffff60801b16919091179055565b6122a660a0830183611fd5565b6122b48183600186016120b8565b50506122ce6122c560c08401612179565b60028301612186565b6122e66122dd60e08401612179565b60038301612186565b6101008201356004820155610120820135600582015561177461230c6101408401612179565b60068301612186565b60006020828403121561232757600080fd5b5051919050565b60008261233d5761233d611e2c565b500690565b634e487b7160e01b600052603260045260246000fdfee303cb88ace8c9e6ba216f1aecb44b3206dcab364c60512ffc6cbc920a1bf9d1a2646970667358221220f45ea2992afdc02fcafdfd4e34384caf8d03fbf7971fce6f775d4cb5f82648a664736f6c634300080e0033",
  "linkReferences": {},
  "deployedLinkReferences": {}
}