{
  "_format": "hh-sol-artifact-1",
  "contractName": "SageCollection",
  "sourceName": "contracts/Collection/SageCollection.sol",
  "abi": [
    {
      "inputs": [
        {
          "internalType": "address",
          "name": "_sageStorage",
          "type": "address"
        },
        {
          "internalType": "address",
          "name": "_token",
          "type": "address"
        }
      ],
      "stateMutability": "nonpayable",
      "type": "constructor"
    },
    {
      "anonymous": false,
      "inputs": [
        {
          "indexed": true,
          "internalType": "uint256",
          "name": "id",
          "type": "uint256"
        },
        {
          "indexed": true,
          "internalType": "address",
          "name": "nftContract",
          "type": "address"
        }
      ],
      "name": "CollectionCreated",
      "type": "event"
    },
    {
      "anonymous": false,
      "inputs": [
        {
          "indexed": true,
          "internalType": "address",
          "name": "user",
          "type": "address"
        },
        {
          "indexed": true,
          "internalType": "uint256",
          "name": "id",
          "type": "uint256"
        },
        {
          "indexed": false,
          "internalType": "uint256",
          "name": "amount",
          "type": "uint256"
        },
        {
          "indexed": false,
          "internalType": "uint256",
          "name": "firstIndex",
          "type": "uint256"
        }
      ],
      "name": "CollectionMint",
      "type": "event"
    },
    {
      "anonymous": false,
      "inputs": [
        {
          "indexed": false,
          "internalType": "address",
          "name": "account",
          "type": "address"
        }
      ],
      "name": "Paused",
      "type": "event"
    },
    {
      "anonymous": false,
      "inputs": [
        {
          "indexed": false,
          "internalType": "address",
          "name": "account",
          "type": "address"
        }
      ],
      "name": "Unpaused",
      "type": "event"
    },
    {
      "inputs": [],
      "name": "NATIVE_CURRENCY",
      "outputs": [
        {
          "internalType": "address",
          "name": "",
          "type": "address"
        }
      ],
      "stateMutability": "view",
      "type": "function"
    },
    {
      "inputs": [
        {
          "internalType": "uint256",
          "name": "",
          "type": "uint256"
        }
      ],
      "name": "collectionArtistShare",
      "outputs": [
        {
          "internalType": "uint256",
          "name": "",
          "type": "uint256"
        }
      ],
      "stateMutability": "view",
      "type": "function"
    },
    {
      "inputs": [
        {
          "internalType": "uint256",
          "name": "",
          "type": "uint256"
        }
      ],
      "name": "collections",
      "outputs": [
        {
          "internalType": "uint32",
          "name": "startTime",
          "type": "uint32"
        },
        {
          "internalType": "uint32",
          "name": "closeTime",
          "type": "uint32"
        },
        {
          "internalType": "uint32",
          "name": "maxSupply",
          "type": "uint32"
        },
        {
          "internalType": "uint32",
          "name": "mintCount",
          "type": "uint32"
        },
        {
          "internalType": "uint32",
          "name": "limitPerUser",
          "type": "uint32"
        },
        {
          "internalType": "string",
          "name": "baseUri",
          "type": "string"
        },
        {
          "internalType": "contract INFT",
          "name": "nftContract",
          "type": "address"
        },
        {
          "internalType": "contract IWhitelist",
          "name": "whitelist",
          "type": "address"
        },
        {
          "internalType": "uint256",
          "name": "costTokens",
          "type": "uint256"
        },
        {
          "internalType": "uint256",
          "name": "id",
          "type": "uint256"
        },
        {
          "internalType": "address",
          "name": "currency",
          "type": "address"
        }
      ],
      "stateMutability": "view",
      "type": "function"
    },
    {
      "inputs": [
        {
          "components": [
            {
              "internalType": "uint32",
              "name": "startTime",
              "type": "uint32"
            },
            {
              "internalType": "uint32",
              "name": "closeTime",
              "type": "uint32"
            },
            {
              "internalType": "uint32",
              "name": "maxSupply",
              "type": "uint32"
            },
            {
              "internalType": "uint32",
              "name": "mintCount",
              "type": "uint32"
            },
            {
              "internalType": "uint32",
              "name": "limitPerUser",
              "type": "uint32"
            },
            {
              "internalType": "string",
              "name": "baseUri",
              "type": "string"
            },
            {
              "internalType": "contract INFT",
              "name": "nftContract",
              "type": "address"
            },
            {
              "internalType": "contract IWhitelist",
              "name": "whitelist",
              "type": "address"
            },
            {
              "internalType": "uint256",
              "name": "costTokens",
              "type": "uint256"
            },
            {
              "internalType": "uint256",
              "name": "id",
              "type": "uint256"
            },
            {
              "internalType": "address",
              "name": "currency",
              "type": "address"
            }
          ],
          "internalType": "struct SageCollection.Collection",
          "name": "c",
          "type": "tuple"
        }
      ],
      "name": "createCollection",
      "outputs": [],
      "stateMutability": "nonpayable",
      "type": "function"
    },
    {
      "inputs": [
        {
          "internalType": "uint256",
          "name": "_id",
          "type": "uint256"
        }
      ],
      "name": "getCollection",
      "outputs": [
        {
          "components": [
            {
              "internalType": "uint32",
              "name": "startTime",
              "type": "uint32"
            },
            {
              "internalType": "uint32",
              "name": "closeTime",
              "type": "uint32"
            },
            {
              "internalType": "uint32",
              "name": "maxSupply",
              "type": "uint32"
            },
            {
              "internalType": "uint32",
              "name": "mintCount",
              "type": "uint32"
            },
            {
              "internalType": "uint32",
              "name": "limitPerUser",
              "type": "uint32"
            },
            {
              "internalType": "string",
              "name": "baseUri",
              "type": "string"
            },
            {
              "internalType": "contract INFT",
              "name": "nftContract",
              "type": "address"
            },
            {
              "internalType": "contract IWhitelist",
              "name": "whitelist",
              "type": "address"
            },
            {
              "internalType": "uint256",
              "name": "costTokens",
              "type": "uint256"
            },
            {
              "internalType": "uint256",
              "name": "id",
              "type": "uint256"
            },
            {
              "internalType": "address",
              "name": "currency",
              "type": "address"
            }
          ],
          "internalType": "struct SageCollection.Collection",
          "name": "",
          "type": "tuple"
        }
      ],
      "stateMutability": "view",
      "type": "function"
    },
    {
      "inputs": [
        {
          "internalType": "uint256",
          "name": "_id",
          "type": "uint256"
        }
      ],
      "name": "getMintCount",
      "outputs": [
        {
          "internalType": "uint32",
          "name": "",
          "type": "uint32"
        }
      ],
      "stateMutability": "view",
      "type": "function"
    },
    {
      "inputs": [
        {
          "internalType": "uint256",
          "name": "_id",
          "type": "uint256"
        },
        {
          "internalType": "uint256",
          "name": "_amount",
          "type": "uint256"
        }
      ],
      "name": "mint",
      "outputs": [],
      "stateMutability": "payable",
      "type": "function"
    },
    {
      "inputs": [
        {
          "internalType": "uint256",
          "name": "",
          "type": "uint256"
        },
        {
          "internalType": "address",
          "name": "",
          "type": "address"
        }
      ],
      "name": "mintedByUser",
      "outputs": [
        {
          "internalType": "uint256",
          "name": "",
          "type": "uint256"
        }
      ],
      "stateMutability": "view",
      "type": "function"
    },
    {
      "inputs": [],
      "name": "pause",
      "outputs": [],
      "stateMutability": "nonpayable",
      "type": "function"
    },
    {
      "inputs": [],
      "name": "paused",
      "outputs": [
        {
          "internalType": "bool",
          "name": "",
          "type": "bool"
        }
      ],
      "stateMutability": "view",
      "type": "function"
    },
    {
      "inputs": [
        {
          "internalType": "uint256",
          "name": "_id",
          "type": "uint256"
        },
        {
          "internalType": "uint256",
          "name": "_shareBps",
          "type": "uint256"
        }
      ],
      "name": "setCollectionArtistShare",
      "outputs": [],
      "stateMutability": "nonpayable",
      "type": "function"
    },
    {
      "inputs": [
        {
          "internalType": "address",
          "name": "_ref",
          "type": "address"
        }
      ],
      "name": "setTrustedNftReference",
      "outputs": [],
      "stateMutability": "nonpayable",
      "type": "function"
    },
    {
      "inputs": [
        {
          "internalType": "uint256",
          "name": "_id",
          "type": "uint256"
        },
        {
          "internalType": "address",
          "name": "_whitelist",
          "type": "address"
        }
      ],
      "name": "setWhitelist",
      "outputs": [],
      "stateMutability": "nonpayable",
      "type": "function"
    },
    {
      "inputs": [],
      "name": "token",
      "outputs": [
        {
          "internalType": "contract IERC20",
          "name": "",
          "type": "address"
        }
      ],
      "stateMutability": "view",
      "type": "function"
    },
    {
      "inputs": [],
      "name": "trustedNftReference",
      "outputs": [
        {
          "internalType": "address",
          "name": "",
          "type": "address"
        }
      ],
      "stateMutability": "view",
      "type": "function"
    },
    {
      "inputs": [],
      "name": "unpause",
      "outputs": [],
      "stateMutability": "nonpayable",
      "type": "function"
    }
  ],
  "bytecode": "0x60806040523480156200001157600080fd5b506040516200289c3803806200289c83398101604081905262000034916200008c565b600080546001600160a81b0319166101006001600160a01b0394851602179055600180546001600160a01b03191691909216179055620000c4565b80516001600160a01b03811681146200008757600080fd5b919050565b60008060408385031215620000a057600080fd5b620000ab836200006f565b9150620000bb602084016200006f565b90509250929050565b6127c880620000d46000396000f3fe6080604052600436106100f35760003560e01c80638456cb591161008a578063db09a3f511610059578063db09a3f5146102b2578063db6459fe14610301578063fc0c546a1461032e578063fdbda0ec1461034e57600080fd5b80638456cb591461023d578063c9b03c5d14610252578063d89da28614610272578063daeec6761461029257600080fd5b80635a1f3c28116100c65780635a1f3c28146101875780635c975abb146101b457806363c060aa146101d757806368cad2951461021d57600080fd5b80631b2ef1ca146100f857806329a9c2771461010d5780633f4ba83a1461014a57806349f426501461015f575b600080fd5b61010b610106366004611ed0565b610385565b005b34801561011957600080fd5b5060055461012d906001600160a01b031681565b6040516001600160a01b0390911681526020015b60405180910390f35b34801561015657600080fd5b5061010b610d98565b34801561016b57600080fd5b5061012d73eeeeeeeeeeeeeeeeeeeeeeeeeeeeeeeeeeeeeeee81565b34801561019357600080fd5b506101a76101a2366004611ef2565b610e42565b6040516101419190611f67565b3480156101c057600080fd5b5060005460ff166040519015158152602001610141565b3480156101e357600080fd5b5061020f6101f236600461206e565b600260209081526000928352604080842090915290825290205481565b604051908152602001610141565b34801561022957600080fd5b5061010b610238366004611ed0565b610fe0565b34801561024957600080fd5b5061010b6111c6565b34801561025e57600080fd5b5061010b61026d36600461209e565b61126e565b34801561027e57600080fd5b5061010b61028d36600461206e565b611682565b34801561029e57600080fd5b5061010b6102ad3660046120e1565b611847565b3480156102be57600080fd5b506102ec6102cd366004611ef2565b600090815260036020526040902054600160601b900463ffffffff1690565b60405163ffffffff9091168152602001610141565b34801561030d57600080fd5b5061020f61031c366004611ef2565b60046020526000908152604090205481565b34801561033a57600080fd5b5060015461012d906001600160a01b031681565b34801561035a57600080fd5b5061036e610369366004611ef2565b611909565b6040516101419b9a999897969594939291906120fe565b61038d611a0e565b600081116103d15760405162461bcd60e51b815260206004820152600c60248201526b043616e2774206d696e7420360a41b60448201526064015b60405180910390fd5b600082815260036020526040902080544263ffffffff9091161180159061041e57508054640100000000900463ffffffff16158061041e575080544264010000000090910463ffffffff16115b6104555760405162461bcd60e51b81526020600482015260086024820152672737ba1037b832b760c11b60448201526064016103c8565b805463ffffffff600160401b8204811691610479918591600160601b900416612199565b11156104c05760405162461bcd60e51b8152602060048201526016602482015275139bdd08195b9bdd59da081cdd5c1c1b1e481b19599d60521b60448201526064016103c8565b6040805161016081018252825463ffffffff8082168352640100000000820481166020840152600160401b8204811693830193909352600160601b810483166060830152600160801b900490911660808201526001820180546105f99291849160a08401919061052f906121b1565b80601f016020809104026020016040519081016040528092919081815260200182805461055b906121b1565b80156105a85780601f1061057d576101008083540402835291602001916105a8565b820191906000526020600020905b81548152906001019060200180831161058b57829003601f168201915b505050918352505060028201546001600160a01b039081166020830152600383015481166040830152600483015460608301526005830154608083015260069092015490911660a090910152611a54565b8054600160801b900463ffffffff16156106855780546000848152600260209081526040808320338452909152902054600160801b90910463ffffffff16906106429084612199565b11156106855760405162461bcd60e51b8152602060048201526012602482015271135a5b9d081b1a5b5a5d081c995858da195960721b60448201526064016103c8565b6000838152600260209081526040808320338452909152812080548492906106ae908490612199565b909155505080546000906106d090600160601b900463ffffffff1660016121eb565b825463ffffffff918216925084918491600c916106f7918591600160601b909104166121eb565b92506101000a81548163ffffffff021916908363ffffffff16021790555060008383600401546107279190612213565b90508015610c5f57600085815260046020526040812054908190036107515761074e611b19565b90505b60006127106107608385612213565b61076a9190612248565b60068601549091506001600160a01b031673eeeeeeeeeeeeeeeeeeeeeeeeeeeeeeeeeeeeeeed1901610a0c578234146107d85760405162461bcd60e51b815260206004820152601060248201526f15dc9bdb99c811551208185b5bdd5b9d60821b60448201526064016103c8565b6002850154604080516321de0b0960e11b815290516000926001600160a01b0316916343bc16129160048083019260209291908290030181865afa158015610824573d6000803e3d6000fd5b505050506040513d601f19601f82011682018060405250810190610848919061225c565b6001600160a01b03168260405160006040518083038185875af1925050503d8060008114610892576040519150601f19603f3d011682016040523d82523d6000602084013e610897565b606091505b50509050806108e85760405162461bcd60e51b815260206004820152601a60248201527f41727469737420455448207472616e73666572206661696c656400000000000060448201526064016103c8565b60008060019054906101000a90046001600160a01b03166001600160a01b0316634783c35b6040518163ffffffff1660e01b8152600401602060405180830381865afa15801561093c573d6000803e3d6000fd5b505050506040513d601f19601f82011682018060405250810190610960919061225c565b6001600160a01b03166109738487612279565b604051600081818185875af1925050503d80600081146109af576040519150601f19603f3d011682016040523d82523d6000602084013e6109b4565b606091505b5050905080610a055760405162461bcd60e51b815260206004820152601c60248201527f506c6174666f726d20455448207472616e73666572206661696c65640000000060448201526064016103c8565b5050610c58565b3415610a5a5760405162461bcd60e51b815260206004820152601f60248201527f436f6c6c656374696f6e206973206e6f742070726963656420696e204554480060448201526064016103c8565b6001546002860154604080516321de0b0960e11b815290516001600160a01b03938416936323b872dd9333939116916343bc1612916004808201926020929091908290030181865afa158015610ab4573d6000803e3d6000fd5b505050506040513d601f19601f82011682018060405250810190610ad8919061225c565b6040516001600160e01b031960e085901b1681526001600160a01b03928316600482015291166024820152604481018490526064016020604051808303816000875af1158015610b2c573d6000803e3d6000fd5b505050506040513d601f19601f82011682018060405250810190610b509190612290565b5060015460005460408051634783c35b60e01b815290516001600160a01b03938416936323b872dd93339361010090910490911691634783c35b916004808201926020929091908290030181865afa158015610bb0573d6000803e3d6000fd5b505050506040513d601f19601f82011682018060405250810190610bd4919061225c565b610bde8588612279565b6040516001600160e01b031960e086901b1681526001600160a01b03938416600482015292909116602483015260448201526064016020604051808303816000875af1158015610c32573d6000803e3d6000fd5b505050506040513d601f19601f82011682018060405250810190610c569190612290565b505b5050610c9c565b3415610c9c5760405162461bcd60e51b815260206004820152600c60248201526b4d696e74206973206672656560a01b60448201526064016103c8565b60005b84811015610d535760028401546001600160a01b031663d204c45e3360018701610cd1610ccc8689612199565b611ca7565b604051602001610ce29291906122b2565b6040516020818303038152906040526040518363ffffffff1660e01b8152600401610d0e929190612345565b600060405180830381600087803b158015610d2857600080fd5b505af1158015610d3c573d6000803e3d6000fd5b505050508080610d4b90612369565b915050610c9f565b506040805185815260208101849052869133917ff8686c1077035ddebc5a87f1379b31a4832835fcac14765d41d82d4ec0b5e2d4910160405180910390a35050505050565b600054604051632474521560e21b815260008051602061277383398151915260048201523360248201526101009091046001600160a01b0316906391d1485490604401602060405180830381865afa158015610df8573d6000803e3d6000fd5b505050506040513d601f19601f82011682018060405250810190610e1c9190612290565b610e385760405162461bcd60e51b81526004016103c890612382565b610e40611db0565b565b604080516101608101825260008082526020820181905291810182905260608082018390526080820183905260a082015260c0810182905260e0810182905261010081018290526101208101829052610140810191909152600082815260036020908152604091829020825161016081018452815463ffffffff80821683526401000000008204811694830194909452600160401b8104841694820194909452600160601b840483166060820152600160801b909304909116608083015260018101805460a084019190610f15906121b1565b80601f0160208091040260200160405190810160405280929190818152602001828054610f41906121b1565b8015610f8e5780601f10610f6357610100808354040283529160200191610f8e565b820191906000526020600020905b815481529060010190602001808311610f7157829003601f168201915b505050918352505060028201546001600160a01b039081166020830152600383015481166040830152600483015460608301526005830154608083015260069092015490911660a09091015292915050565b60008281526003602052604090205463ffffffff1661103c5760405162461bcd60e51b815260206004820152601860248201527710dbdb1b1958dd1a5bdb88191bd95cdb89dd08195e1a5cdd60421b60448201526064016103c8565b600054604051632474521560e21b815260008051602061277383398151915260048201523360248201526101009091046001600160a01b0316906391d1485490604401602060405180830381865afa15801561109c573d6000803e3d6000fd5b505050506040513d601f19601f820116820180604052508101906110c09190612290565b8061115657506000828152600360209081526040918290206002015482516321de0b0960e11b815292516001600160a01b03909116926343bc16129260048083019391928290030181865afa15801561111d573d6000803e3d6000fd5b505050506040513d601f19601f82011682018060405250810190611141919061225c565b6001600160a01b0316336001600160a01b0316145b6111725760405162461bcd60e51b81526004016103c8906123ac565b6127108111156111b45760405162461bcd60e51b815260206004820152600d60248201526c496e76616c696420736861726560981b60448201526064016103c8565b60009182526004602052604090912055565b600054604051632474521560e21b815260008051602061277383398151915260048201523360248201526101009091046001600160a01b0316906391d1485490604401602060405180830381865afa158015611226573d6000803e3d6000fd5b505050506040513d601f19601f8201168201806040525081019061124a9190612290565b6112665760405162461bcd60e51b81526004016103c890612382565b610e40611e02565b61127e60e0820160c083016120e1565b600054604051632474521560e21b815260008051602061277383398151915260048201523360248201526101009091046001600160a01b0316906391d1485490604401602060405180830381865afa1580156112de573d6000803e3d6000fd5b505050506040513d601f19601f820116820180604052508101906113029190612290565b8061138f575061131181611e3f565b801561138f5750806001600160a01b03166343bc16126040518163ffffffff1660e01b8152600401602060405180830381865afa158015611356573d6000803e3d6000fd5b505050506040513d601f19601f8201168201806040525081019061137a919061225c565b6001600160a01b0316336001600160a01b0316145b6113ab5760405162461bcd60e51b81526004016103c8906123ac565b60006113ba60208401846123f5565b63ffffffff1611801561141057506113d860408301602084016123f5565b63ffffffff16158061141057506113f260208301836123f5565b63ffffffff1661140860408401602085016123f5565b63ffffffff16115b61144c5760405162461bcd60e51b815260206004820152600d60248201526c496e76616c69642074696d657360981b60448201526064016103c8565b600061145e60608401604085016123f5565b63ffffffff16116114a25760405162461bcd60e51b815260206004820152600e60248201526d496e76616c696420737570706c7960901b60448201526064016103c8565b60006114b160a0840184612412565b9050116114f25760405162461bcd60e51b815260206004820152600f60248201526e496e76616c6964206261736555726960881b60448201526064016103c8565b6000611506610160840161014085016120e1565b6001600160a01b03161480611548575073eeeeeeeeeeeeeeeeeeeeeeeeeeeeeeeeeeeeeeee61153d610160840161014085016120e1565b6001600160a01b0316145b61158b5760405162461bcd60e51b8152602060048201526014602482015273556e737570706f727465642063757272656e637960601b60448201526064016103c8565b61012082013560009081526003602052604090205463ffffffff16156115f35760405162461bcd60e51b815260206004820152601960248201527f436f6c6c656374696f6e20616c7265616479206578697374730000000000000060448201526064016103c8565b6101208201356000908152600360205260409020829061161382826125c0565b90505061161e611b19565b61012083013560009081526004602052604090205561164360e0830160c084016120e1565b6001600160a01b03168261012001357f18c1b1c8856053698af995ce4384c0f661562c52a65d6dd29b910849d5e1bfca60405160405180910390a35050565b60008281526003602052604090205463ffffffff166116de5760405162461bcd60e51b815260206004820152601860248201527710dbdb1b1958dd1a5bdb88191bd95cdb89dd08195e1a5cdd60421b60448201526064016103c8565b600054604051632474521560e21b815260008051602061277383398151915260048201523360248201526101009091046001600160a01b0316906391d1485490604401602060405180830381865afa15801561173e573d6000803e3d6000fd5b505050506040513d601f19601f820116820180604052508101906117629190612290565b806117f857506000828152600360209081526040918290206002015482516321de0b0960e11b815292516001600160a01b03909116926343bc16129260048083019391928290030181865afa1580156117bf573d6000803e3d6000fd5b505050506040513d601f19601f820116820180604052508101906117e3919061225c565b6001600160a01b0316336001600160a01b0316145b6118145760405162461bcd60e51b81526004016103c8906123ac565b600091825260036020819052604090922090910180546001600160a01b0319166001600160a01b03909216919091179055565b600054604051632474521560e21b815260008051602061277383398151915260048201523360248201526101009091046001600160a01b0316906391d1485490604401602060405180830381865afa1580156118a7573d6000803e3d6000fd5b505050506040513d601f19601f820116820180604052508101906118cb9190612290565b6118e75760405162461bcd60e51b81526004016103c890612382565b600580546001600160a01b0319166001600160a01b0392909216919091179055565b6003602052600090815260409020805460018201805463ffffffff808416946401000000008504821694600160401b8104831694600160601b8204841694600160801b909204909316929061195d906121b1565b80601f0160208091040260200160405190810160405280929190818152602001828054611989906121b1565b80156119d65780601f106119ab576101008083540402835291602001916119d6565b820191906000526020600020905b8154815290600101906020018083116119b957829003601f168201915b505050600284015460038501546004860154600587015460069097015495966001600160a01b0393841696928416955090935091168b565b60005460ff1615610e405760405162461bcd60e51b815260206004820152601060248201526f14185d5cd8589b194e881c185d5cd95960821b60448201526064016103c8565b60e08101516001600160a01b03811615611b15576040516320c18e6b60e21b8152336004820152600060248201526001600160a01b0382169063830639ac90604401602060405180830381865afa158015611ab3573d6000803e3d6000fd5b505050506040513d601f19601f82011682018060405250810190611ad79190612290565b611b155760405162461bcd60e51b815260206004820152600f60248201526e139bdd081dda1a5d195b1a5cdd1959608a1b60448201526064016103c8565b5050565b600080546040516d616464726573732e636f6e66696760901b6020820152829161010090046001600160a01b0316906321f8a72190602e01604051602081830303815290604052805190602001206040518263ffffffff1660e01b8152600401611b8591815260200190565b602060405180830381865afa158015611ba2573d6000803e3d6000fd5b505050506040513d601f19601f82011682018060405250810190611bc6919061225c565b90506001600160a01b038116611bdf57611f4091505090565b6000816001600160a01b031663bd02d0f5604051602001611c1990721cda185c994b9c1c9a5b585c9e505c9d1a5cdd606a1b815260130190565b604051602081830303815290604052805190602001206040518263ffffffff1660e01b8152600401611c4d91815260200190565b602060405180830381865afa158015611c6a573d6000803e3d6000fd5b505050506040513d601f19601f82011682018060405250810190611c8e919061272f565b90508015611c9c5780611ca0565b611f405b9250505090565b606081600003611cce5750506040805180820190915260018152600360fc1b602082015290565b8160005b8115611cf85780611ce281612369565b9150611cf19050600a83612248565b9150611cd2565b60008167ffffffffffffffff811115611d1357611d1361246d565b6040519080825280601f01601f191660200182016040528015611d3d576020820181803683370190505b5090505b8415611da857611d52600183612279565b9150611d5f600a86612748565b611d6a906030612199565b60f81b818381518110611d7f57611d7f61275c565b60200101906001600160f81b031916908160001a905350611da1600a86612248565b9450611d41565b949350505050565b611db8611e87565b6000805460ff191690557f5db9ee0a495bf2e6ff9c91a7834c1ba4fdd244a5e8aa4e537bd38aeae4b073aa335b6040516001600160a01b03909116815260200160405180910390a1565b611e0a611a0e565b6000805460ff191660011790557f62e78cea01bee320cd4e420270b5ea74000d11b0c9f74754ebdbfc544b05a258611de53390565b6005546000906001600160a01b031615801590611e6657506000826001600160a01b03163b115b8015611e8157506005546001600160a01b038381163f91163f145b92915050565b60005460ff16610e405760405162461bcd60e51b815260206004820152601460248201527314185d5cd8589b194e881b9bdd081c185d5cd95960621b60448201526064016103c8565b60008060408385031215611ee357600080fd5b50508035926020909101359150565b600060208284031215611f0457600080fd5b5035919050565b60005b83811015611f26578181015183820152602001611f0e565b83811115611f35576000848401525b50505050565b60008151808452611f53816020860160208601611f0b565b601f01601f19169290920160200192915050565b60208152611f7e60208201835163ffffffff169052565b60006020830151611f97604084018263ffffffff169052565b50604083015163ffffffff8116606084015250606083015163ffffffff8116608084015250608083015163ffffffff811660a08401525060a08301516101608060c0850152611fea610180850183611f3b565b915060c085015161200660e08601826001600160a01b03169052565b5060e0850151610100612023818701836001600160a01b03169052565b8601516101208681019190915286015161014080870191909152909501516001600160a01b031693019290925250919050565b6001600160a01b038116811461206b57600080fd5b50565b6000806040838503121561208157600080fd5b82359150602083013561209381612056565b809150509250929050565b6000602082840312156120b057600080fd5b813567ffffffffffffffff8111156120c757600080fd5b820161016081850312156120da57600080fd5b9392505050565b6000602082840312156120f357600080fd5b81356120da81612056565b600061016063ffffffff808f168452808e166020850152808d166040850152808c166060850152808b166080850152508060a08401526121408184018a611f3b565b6001600160a01b0398891660c085015296881660e08401525050610100810193909352610120830191909152909216610140909201919091529695505050505050565b634e487b7160e01b600052601160045260246000fd5b600082198211156121ac576121ac612183565b500190565b600181811c908216806121c557607f821691505b6020821081036121e557634e487b7160e01b600052602260045260246000fd5b50919050565b600063ffffffff80831681851680830382111561220a5761220a612183565b01949350505050565b600081600019048311821515161561222d5761222d612183565b500290565b634e487b7160e01b600052601260045260246000fd5b60008261225757612257612232565b500490565b60006020828403121561226e57600080fd5b81516120da81612056565b60008282101561228b5761228b612183565b500390565b6000602082840312156122a257600080fd5b815180151581146120da57600080fd5b60008084546122c0816121b1565b600182811680156122d857600181146122e957612318565b60ff19841687528287019450612318565b8860005260208060002060005b8581101561230f5781548a8201529084019082016122f6565b50505082870194505b50505050835161232c818360208801611f0b565b64173539b7b760d91b9101908152600501949350505050565b6001600160a01b0383168152604060208201819052600090611da890830184611f3b565b60006001820161237b5761237b612183565b5060010190565b60208082526010908201526f41646d696e2063616c6c73206f6e6c7960801b604082015260600190565b6020808252601e908201527f41646d696e206f7220746865204e4654277320617274697374206f6e6c790000604082015260600190565b63ffffffff8116811461206b57600080fd5b60006020828403121561240757600080fd5b81356120da816123e3565b6000808335601e1984360301811261242957600080fd5b83018035915067ffffffffffffffff82111561244457600080fd5b60200191503681900382131561245957600080fd5b9250929050565b60008135611e81816123e3565b634e487b7160e01b600052604160045260246000fd5b601f8211156124cd57600081815260208120601f850160051c810160208610156124aa5750805b601f850160051c820191505b818110156124c9578281556001016124b6565b5050505b505050565b67ffffffffffffffff8311156124ea576124ea61246d565b6124fe836124f883546121b1565b83612483565b6000601f841160018114612532576000851561251a5750838201355b600019600387901b1c1916600186901b17835561258c565b600083815260209020601f19861690835b828110156125635786850135825560209485019460019092019101612543565b50868210156125805760001960f88860031b161c19848701351681555b505060018560011b0183555b5050505050565b60008135611e8181612056565b80546001600160a01b0319166001600160a01b0392909216919091179055565b6125e36125cc83612460565b825463ffffffff191663ffffffff91909116178255565b6126146125f260208401612460565b825467ffffffff00000000191660209190911b67ffffffff0000000016178255565b61264d61262360408401612460565b82546bffffffff0000000000000000191660409190911b6bffffffff000000000000000016178255565b61268061265c60608401612460565b82805463ffffffff60601b191660609290921b63ffffffff60601b16919091179055565b6126b361268f60808401612460565b82805463ffffffff60801b191660809290921b63ffffffff60801b16919091179055565b6126c060a0830183612412565b6126ce8183600186016124d2565b50506126e86126df60c08401612593565b600283016125a0565b6127006126f760e08401612593565b600383016125a0565b61010082013560048201556101208201356005820155611b156127266101408401612593565b600683016125a0565b60006020828403121561274157600080fd5b5051919050565b60008261275757612757612232565b500690565b634e487b7160e01b600052603260045260246000fdfee303cb88ace8c9e6ba216f1aecb44b3206dcab364c60512ffc6cbc920a1bf9d1a2646970667358221220d1f90f11ec4eadb39724640cf90a34d295cb4aeff936c3e4357e5f065b08ed3964736f6c634300080e0033",
  "linkReferences": {},
  "deployedLinkReferences": {}
}