{
  "_format": "hh-sol-artifact-1",
  "contractName": "SageCollection",
  "sourceName": "contracts/Collection/SageCollection.sol",
  "abi": [
    {
      "inputs": [
        {
          "internalType": "address",
          "name": "_sageStorage",
          "type": "address"
        },
        {
          "internalType": "address",
          "name": "_token",
          "type": "address"
        }
      ],
      "stateMutability": "nonpayable",
      "type": "constructor"
    },
    {
      "anonymous": false,
      "inputs": [
        {
          "indexed": true,
          "internalType": "uint256",
          "name": "id",
          "type": "uint256"
        },
        {
          "indexed": true,
          "internalType": "address",
          "name": "nftContract",
          "type": "address"
        }
      ],
      "name": "CollectionCreated",
      "type": "event"
    },
    {
      "anonymous": false,
      "inputs": [
        {
          "indexed": true,
          "internalType": "address",
          "name": "user",
          "type": "address"
        },
        {
          "indexed": true,
          "internalType": "uint256",
          "name": "id",
          "type": "uint256"
        },
        {
          "indexed": false,
          "internalType": "uint256",
          "name": "amount",
          "type": "uint256"
        },
        {
          "indexed": false,
          "internalType": "uint256",
          "name": "firstIndex",
          "type": "uint256"
        }
      ],
      "name": "CollectionMint",
      "type": "event"
    },
    {
      "anonymous": false,
      "inputs": [
        {
          "indexed": false,
          "internalType": "address",
          "name": "account",
          "type": "address"
        }
      ],
      "name": "Paused",
      "type": "event"
    },
    {
      "anonymous": false,
      "inputs": [
        {
          "indexed": false,
          "internalType": "address",
          "name": "account",
          "type": "address"
        }
      ],
      "name": "Unpaused",
      "type": "event"
    },
    {
      "inputs": [
        {
          "internalType": "uint256",
          "name": "",
          "type": "uint256"
        }
      ],
      "name": "collectionArtistShare",
      "outputs": [
        {
          "internalType": "uint256",
          "name": "",
          "type": "uint256"
        }
      ],
      "stateMutability": "view",
      "type": "function"
    },
    {
      "inputs": [
        {
          "internalType": "uint256",
          "name": "",
          "type": "uint256"
        }
      ],
      "name": "collections",
      "outputs": [
        {
          "internalType": "uint32",
          "name": "startTime",
          "type": "uint32"
        },
        {
          "internalType": "uint32",
          "name": "closeTime",
          "type": "uint32"
        },
        {
          "internalType": "uint32",
          "name": "maxSupply",
          "type": "uint32"
        },
        {
          "internalType": "uint32",
          "name": "mintCount",
          "type": "uint32"
        },
        {
          "internalType": "uint32",
          "name": "limitPerUser",
          "type": "uint32"
        },
        {
          "internalType": "string",
          "name": "baseUri",
          "type": "string"
        },
        {
          "internalType": "contract INFT",
          "name": "nftContract",
          "type": "address"
        },
        {
          "internalType": "contract IWhitelist",
          "name": "whitelist",
          "type": "address"
        },
        {
          "internalType": "uint256",
          "name": "costTokens",
          "type": "uint256"
        },
        {
          "internalType": "uint256",
          "name": "id",
          "type": "uint256"
        }
      ],
      "stateMutability": "view",
      "type": "function"
    },
    {
      "inputs": [
        {
          "components": [
            {
              "internalType": "uint32",
              "name": "startTime",
              "type": "uint32"
            },
            {
              "internalType": "uint32",
              "name": "closeTime",
              "type": "uint32"
            },
            {
              "internalType": "uint32",
              "name": "maxSupply",
              "type": "uint32"
            },
            {
              "internalType": "uint32",
              "name": "mintCount",
              "type": "uint32"
            },
            {
              "internalType": "uint32",
              "name": "limitPerUser",
              "type": "uint32"
            },
            {
              "internalType": "string",
              "name": "baseUri",
              "type": "string"
            },
            {
              "internalType": "contract INFT",
              "name": "nftContract",
              "type": "address"
            },
            {
              "internalType": "contract IWhitelist",
              "name": "whitelist",
              "type": "address"
            },
            {
              "internalType": "uint256",
              "name": "costTokens",
              "type": "uint256"
            },
            {
              "internalType": "uint256",
              "name": "id",
              "type": "uint256"
            }
          ],
          "internalType": "struct SageCollection.Collection",
          "name": "c",
          "type": "tuple"
        }
      ],
      "name": "createCollection",
      "outputs": [],
      "stateMutability": "nonpayable",
      "type": "function"
    },
    {
      "inputs": [
        {
          "internalType": "uint256",
          "name": "_id",
          "type": "uint256"
        }
      ],
      "name": "getCollection",
      "outputs": [
        {
          "components": [
            {
              "internalType": "uint32",
              "name": "startTime",
              "type": "uint32"
            },
            {
              "internalType": "uint32",
              "name": "closeTime",
              "type": "uint32"
            },
            {
              "internalType": "uint32",
              "name": "maxSupply",
              "type": "uint32"
            },
            {
              "internalType": "uint32",
              "name": "mintCount",
              "type": "uint32"
            },
            {
              "internalType": "uint32",
              "name": "limitPerUser",
              "type": "uint32"
            },
            {
              "internalType": "string",
              "name": "baseUri",
              "type": "string"
            },
            {
              "internalType": "contract INFT",
              "name": "nftContract",
              "type": "address"
            },
            {
              "internalType": "contract IWhitelist",
              "name": "whitelist",
              "type": "address"
            },
            {
              "internalType": "uint256",
              "name": "costTokens",
              "type": "uint256"
            },
            {
              "internalType": "uint256",
              "name": "id",
              "type": "uint256"
            }
          ],
          "internalType": "struct SageCollection.Collection",
          "name": "",
          "type": "tuple"
        }
      ],
      "stateMutability": "view",
      "type": "function"
    },
    {
      "inputs": [
        {
          "internalType": "uint256",
          "name": "_id",
          "type": "uint256"
        }
      ],
      "name": "getMintCount",
      "outputs": [
        {
          "internalType": "uint32",
          "name": "",
          "type": "uint32"
        }
      ],
      "stateMutability": "view",
      "type": "function"
    },
    {
      "inputs": [
        {
          "internalType": "uint256",
          "name": "_id",
          "type": "uint256"
        },
        {
          "internalType": "uint256",
          "name": "_amount",
          "type": "uint256"
        }
      ],
      "name": "mint",
      "outputs": [],
      "stateMutability": "nonpayable",
      "type": "function"
    },
    {
      "inputs": [
        {
          "internalType": "uint256",
          "name": "",
          "type": "uint256"
        },
        {
          "internalType": "address",
          "name": "",
          "type": "address"
        }
      ],
      "name": "mintedByUser",
      "outputs": [
        {
          "internalType": "uint256",
          "name": "",
          "type": "uint256"
        }
      ],
      "stateMutability": "view",
      "type": "function"
    },
    {
      "inputs": [],
      "name": "pause",
      "outputs": [],
      "stateMutability": "nonpayable",
      "type": "function"
    },
    {
      "inputs": [],
      "name": "paused",
      "outputs": [
        {
          "internalType": "bool",
          "name": "",
          "type": "bool"
        }
      ],
      "stateMutability": "view",
      "type": "function"
    },
    {
      "inputs": [
        {
          "internalType": "uint256",
          "name": "_id",
          "type": "uint256"
        },
        {
          "internalType": "uint256",
          "name": "_shareBps",
          "type": "uint256"
        }
      ],
      "name": "setCollectionArtistShare",
      "outputs": [],
      "stateMutability": "nonpayable",
      "type": "function"
    },
    {
      "inputs": [
        {
          "internalType": "uint256",
          "name": "_id",
          "type": "uint256"
        },
        {
          "internalType": "address",
          "name": "_whitelist",
          "type": "address"
        }
      ],
      "name": "setWhitelist",
      "outputs": [],
      "stateMutability": "nonpayable",
      "type": "function"
    },
    {
      "inputs": [],
      "name": "token",
      "outputs": [
        {
          "internalType": "contract IERC20",
          "name": "",
          "type": "address"
        }
      ],
      "stateMutability": "view",
      "type": "function"
    },
    {
      "inputs": [],
      "name": "unpause",
      "outputs": [],
      "stateMutability": "nonpayable",
      "type": "function"
    }
  ],
  "bytecode": "0x60806040523480156200001157600080fd5b5060405162001f5138038062001f5183398101604081905262000034916200008c565b600080546001600160a81b0319166101006001600160a01b0394851602179055600180546001600160a01b03191691909216179055620000c4565b80516001600160a01b03811681146200008757600080fd5b919050565b60008060408385031215620000a057600080fd5b620000ab836200006f565b9150620000bb602084016200006f565b90509250929050565b611e7d80620000d46000396000f3fe608060405234801561001057600080fd5b50600436106100cf5760003560e01c80638456cb591161008c578063db09a3f511610066578063db09a3f5146101aa578063db6459fe146101ec578063fc0c546a1461020c578063fdbda0ec1461023757600080fd5b80638456cb591461017c578063b9239e9a14610184578063d89da2861461019757600080fd5b80631b2ef1ca146100d45780633f4ba83a146100e95780635a1f3c28146100f15780635c975abb1461011a57806363c060aa1461013057806368cad29514610169575b600080fd5b6100e76100e23660046115ef565b610260565b005b6100e761091d565b6101046100ff366004611611565b6109c7565b6040516101119190611686565b60405180910390f35b60005460ff166040519015158152602001610111565b61015b61013e366004611777565b600260209081526000928352604080842090915290825290205481565b604051908152602001610111565b6100e76101773660046115ef565b610b4f565b6100e7610ca4565b6100e76101923660046117a7565b610d4c565b6100e76101a5366004611777565b610fa4565b6101d76101b8366004611611565b600090815260036020526040902054600160601b900463ffffffff1690565b60405163ffffffff9091168152602001610111565b61015b6101fa366004611611565b60046020526000908152604090205481565b60015461021f906001600160a01b031681565b6040516001600160a01b039091168152602001610111565b61024a610245366004611611565b611077565b6040516101119a999897969594939291906117ea565b610268611175565b600081116102ac5760405162461bcd60e51b815260206004820152600c60248201526b043616e2774206d696e7420360a41b60448201526064015b60405180910390fd5b600082815260036020526040902080544263ffffffff909116118015906102e2575080544264010000000090910463ffffffff16115b6103195760405162461bcd60e51b81526020600482015260086024820152672737ba1037b832b760c11b60448201526064016102a3565b805463ffffffff600160401b820481169161033d918591600160601b900416611877565b11156103845760405162461bcd60e51b8152602060048201526016602482015275139bdd08195b9bdd59da081cdd5c1c1b1e481b19599d60521b60448201526064016102a3565b6040805161014081018252825463ffffffff8082168352640100000000820481166020840152600160401b8204811693830193909352600160601b810483166060830152600160801b900490911660808201526001820180546104af9291849160a0840191906103f39061188f565b80601f016020809104026020016040519081016040528092919081815260200182805461041f9061188f565b801561046c5780601f106104415761010080835404028352916020019161046c565b820191906000526020600020905b81548152906001019060200180831161044f57829003601f168201915b505050918352505060028201546001600160a01b0390811660208301526003830154166040820152600482015460608201526005909101546080909101526111bb565b8054600160801b900463ffffffff161561053b5780546000848152600260209081526040808320338452909152902054600160801b90910463ffffffff16906104f89084611877565b111561053b5760405162461bcd60e51b8152602060048201526012602482015271135a5b9d081b1a5b5a5d081c995858da195960721b60448201526064016102a3565b600083815260026020908152604080832033845290915281208054849290610564908490611877565b9091555050805460009061058690600160601b900463ffffffff1660016118c9565b825463ffffffff918216925084918491600c916105ad918591600160601b909104166118c9565b92506101000a81548163ffffffff021916908363ffffffff16021790555060008383600401546105dd91906118f1565b90508015610821576000858152600460205260408120549081900361060757610604611280565b90505b600061271061061683856118f1565b6106209190611926565b6001546002870154604080516321de0b0960e11b815290519394506001600160a01b03928316936323b872dd93339316916343bc16129160048083019260209291908290030181865afa15801561067b573d6000803e3d6000fd5b505050506040513d601f19601f8201168201806040525081019061069f919061193a565b6040516001600160e01b031960e085901b1681526001600160a01b03928316600482015291166024820152604481018490526064016020604051808303816000875af11580156106f3573d6000803e3d6000fd5b505050506040513d601f19601f820116820180604052508101906107179190611957565b5060015460005460408051634783c35b60e01b815290516001600160a01b03938416936323b872dd93339361010090910490911691634783c35b916004808201926020929091908290030181865afa158015610777573d6000803e3d6000fd5b505050506040513d601f19601f8201168201806040525081019061079b919061193a565b6107a58588611979565b6040516001600160e01b031960e086901b1681526001600160a01b03938416600482015292909116602483015260448201526064016020604051808303816000875af11580156107f9573d6000803e3d6000fd5b505050506040513d601f19601f8201168201806040525081019061081d9190611957565b5050505b60005b848110156108d85760028401546001600160a01b031663d204c45e33600187016108566108518689611877565b61140e565b604051602001610867929190611990565b6040516020818303038152906040526040518363ffffffff1660e01b8152600401610893929190611a23565b600060405180830381600087803b1580156108ad57600080fd5b505af11580156108c1573d6000803e3d6000fd5b5050505080806108d090611a47565b915050610824565b506040805185815260208101849052869133917ff8686c1077035ddebc5a87f1379b31a4832835fcac14765d41d82d4ec0b5e2d4910160405180910390a35050505050565b600054604051632474521560e21b8152600080516020611e2883398151915260048201523360248201526101009091046001600160a01b0316906391d1485490604401602060405180830381865afa15801561097d573d6000803e3d6000fd5b505050506040513d601f19601f820116820180604052508101906109a19190611957565b6109bd5760405162461bcd60e51b81526004016102a390611a60565b6109c5611517565b565b604080516101408101825260008082526020820181905291810182905260608082018390526080820183905260a082015260c0810182905260e081018290526101008101829052610120810191909152600082815260036020908152604091829020825161014081018452815463ffffffff80821683526401000000008204811694830194909452600160401b8104841694820194909452600160601b840483166060820152600160801b909304909116608083015260018101805460a084019190610a929061188f565b80601f0160208091040260200160405190810160405280929190818152602001828054610abe9061188f565b8015610b0b5780601f10610ae057610100808354040283529160200191610b0b565b820191906000526020600020905b815481529060010190602001808311610aee57829003601f168201915b505050918352505060028201546001600160a01b03908116602083015260038301541660408201526004820154606082015260059091015460809091015292915050565b600054604051632474521560e21b8152600080516020611e2883398151915260048201523360248201526101009091046001600160a01b0316906391d1485490604401602060405180830381865afa158015610baf573d6000803e3d6000fd5b505050506040513d601f19601f82011682018060405250810190610bd39190611957565b610bef5760405162461bcd60e51b81526004016102a390611a60565b612710811115610c315760405162461bcd60e51b815260206004820152600d60248201526c496e76616c696420736861726560981b60448201526064016102a3565b60008281526003602052604090205463ffffffff16610c925760405162461bcd60e51b815260206004820152601860248201527f436f6c6c656374696f6e20646f65736e2774206578697374000000000000000060448201526064016102a3565b60009182526004602052604090912055565b600054604051632474521560e21b8152600080516020611e2883398151915260048201523360248201526101009091046001600160a01b0316906391d1485490604401602060405180830381865afa158015610d04573d6000803e3d6000fd5b505050506040513d601f19601f82011682018060405250810190610d289190611957565b610d445760405162461bcd60e51b81526004016102a390611a60565b6109c5611569565b600054604051632474521560e21b8152600080516020611e2883398151915260048201523360248201526101009091046001600160a01b0316906391d1485490604401602060405180830381865afa158015610dac573d6000803e3d6000fd5b505050506040513d601f19601f82011682018060405250810190610dd09190611957565b610dec5760405162461bcd60e51b81526004016102a390611a60565b6000610dfb6020830183611a9c565b63ffffffff16118015610e345750610e166020820182611a9c565b63ffffffff16610e2c6040830160208401611a9c565b63ffffffff16115b610e705760405162461bcd60e51b815260206004820152600d60248201526c496e76616c69642074696d657360981b60448201526064016102a3565b6000610e826060830160408401611a9c565b63ffffffff1611610ec65760405162461bcd60e51b815260206004820152600e60248201526d496e76616c696420737570706c7960901b60448201526064016102a3565b6000610ed560a0830183611ab9565b905011610f165760405162461bcd60e51b815260206004820152600f60248201526e496e76616c6964206261736555726960881b60448201526064016102a3565b61012081013560009081526003602052604090208190610f368282611c6d565b905050610f41611280565b610120820135600090815260046020526040902055610f6660e0820160c08301611dc7565b6001600160a01b03168161012001357f18c1b1c8856053698af995ce4384c0f661562c52a65d6dd29b910849d5e1bfca60405160405180910390a350565b600054604051632474521560e21b8152600080516020611e2883398151915260048201523360248201526101009091046001600160a01b0316906391d1485490604401602060405180830381865afa158015611004573d6000803e3d6000fd5b505050506040513d601f19601f820116820180604052508101906110289190611957565b6110445760405162461bcd60e51b81526004016102a390611a60565b600091825260036020819052604090922090910180546001600160a01b0319166001600160a01b03909216919091179055565b6003602052600090815260409020805460018201805463ffffffff808416946401000000008504821694600160401b8104831694600160601b8204841694600160801b90920490931692906110cb9061188f565b80601f01602080910402602001604051908101604052809291908181526020018280546110f79061188f565b80156111445780601f1061111957610100808354040283529160200191611144565b820191906000526020600020905b81548152906001019060200180831161112757829003601f168201915b5050505060028301546003840154600485015460059095015493946001600160a01b0392831694929091169250908a565b60005460ff16156109c55760405162461bcd60e51b815260206004820152601060248201526f14185d5cd8589b194e881c185d5cd95960821b60448201526064016102a3565b60e08101516001600160a01b0381161561127c576040516320c18e6b60e21b8152336004820152600060248201526001600160a01b0382169063830639ac90604401602060405180830381865afa15801561121a573d6000803e3d6000fd5b505050506040513d601f19601f8201168201806040525081019061123e9190611957565b61127c5760405162461bcd60e51b815260206004820152600f60248201526e139bdd081dda1a5d195b1a5cdd1959608a1b60448201526064016102a3565b5050565b600080546040516d616464726573732e636f6e66696760901b6020820152829161010090046001600160a01b0316906321f8a72190602e01604051602081830303815290604052805190602001206040518263ffffffff1660e01b81526004016112ec91815260200190565b602060405180830381865afa158015611309573d6000803e3d6000fd5b505050506040513d601f19601f8201168201806040525081019061132d919061193a565b90506001600160a01b03811661134657611f4091505090565b6000816001600160a01b031663bd02d0f560405160200161138090721cda185c994b9c1c9a5b585c9e505c9d1a5cdd606a1b815260130190565b604051602081830303815290604052805190602001206040518263ffffffff1660e01b81526004016113b491815260200190565b602060405180830381865afa1580156113d1573d6000803e3d6000fd5b505050506040513d601f19601f820116820180604052508101906113f59190611de4565b905080156114035780611407565b611f405b9250505090565b6060816000036114355750506040805180820190915260018152600360fc1b602082015290565b8160005b811561145f578061144981611a47565b91506114589050600a83611926565b9150611439565b60008167ffffffffffffffff81111561147a5761147a611b1a565b6040519080825280601f01601f1916602001820160405280156114a4576020820181803683370190505b5090505b841561150f576114b9600183611979565b91506114c6600a86611dfd565b6114d1906030611877565b60f81b8183815181106114e6576114e6611e11565b60200101906001600160f81b031916908160001a905350611508600a86611926565b94506114a8565b949350505050565b61151f6115a6565b6000805460ff191690557f5db9ee0a495bf2e6ff9c91a7834c1ba4fdd244a5e8aa4e537bd38aeae4b073aa335b6040516001600160a01b03909116815260200160405180910390a1565b611571611175565b6000805460ff191660011790557f62e78cea01bee320cd4e420270b5ea74000d11b0c9f74754ebdbfc544b05a25861154c3390565b60005460ff166109c55760405162461bcd60e51b815260206004820152601460248201527314185d5cd8589b194e881b9bdd081c185d5cd95960621b60448201526064016102a3565b6000806040838503121561160257600080fd5b50508035926020909101359150565b60006020828403121561162357600080fd5b5035919050565b60005b8381101561164557818101518382015260200161162d565b83811115611654576000848401525b50505050565b6000815180845261167281602086016020860161162a565b601f01601f19169290920160200192915050565b6020815261169d60208201835163ffffffff169052565b600060208301516116b6604084018263ffffffff169052565b50604083015163ffffffff8116606084015250606083015163ffffffff8116608084015250608083015163ffffffff811660a08401525060a08301516101408060c085015261170961016085018361165a565b915060c085015161172560e08601826001600160a01b03169052565b5060e0850151610100611742818701836001600160a01b03169052565b860151610120868101919091529095015193019290925250919050565b6001600160a01b038116811461177457600080fd5b50565b6000806040838503121561178a57600080fd5b82359150602083013561179c8161175f565b809150509250929050565b6000602082840312156117b957600080fd5b813567ffffffffffffffff8111156117d057600080fd5b820161014081850312156117e357600080fd5b9392505050565b600061014063ffffffff808e168452808d166020850152808c166040850152808b166060850152808a166080850152508060a084015261182c8184018961165a565b6001600160a01b0397881660c08501529590961660e08301525061010081019290925261012090910152979650505050505050565b634e487b7160e01b600052601160045260246000fd5b6000821982111561188a5761188a611861565b500190565b600181811c908216806118a357607f821691505b6020821081036118c357634e487b7160e01b600052602260045260246000fd5b50919050565b600063ffffffff8083168185168083038211156118e8576118e8611861565b01949350505050565b600081600019048311821515161561190b5761190b611861565b500290565b634e487b7160e01b600052601260045260246000fd5b60008261193557611935611910565b500490565b60006020828403121561194c57600080fd5b81516117e38161175f565b60006020828403121561196957600080fd5b815180151581146117e357600080fd5b60008282101561198b5761198b611861565b500390565b600080845461199e8161188f565b600182811680156119b657600181146119c7576119f6565b60ff198416875282870194506119f6565b8860005260208060002060005b858110156119ed5781548a8201529084019082016119d4565b50505082870194505b505050508351611a0a81836020880161162a565b64173539b7b760d91b9101908152600501949350505050565b6001600160a01b038316815260406020820181905260009061150f9083018461165a565b600060018201611a5957611a59611861565b5060010190565b60208082526010908201526f41646d696e2063616c6c73206f6e6c7960801b604082015260600190565b63ffffffff8116811461177457600080fd5b600060208284031215611aae57600080fd5b81356117e381611a8a565b6000808335601e19843603018112611ad057600080fd5b83018035915067ffffffffffffffff821115611aeb57600080fd5b602001915036819003821315611b0057600080fd5b9250929050565b60008135611b1481611a8a565b92915050565b634e487b7160e01b600052604160045260246000fd5b601f821115611b7a57600081815260208120601f850160051c81016020861015611b575750805b601f850160051c820191505b81811015611b7657828155600101611b63565b5050505b505050565b67ffffffffffffffff831115611b9757611b97611b1a565b611bab83611ba5835461188f565b83611b30565b6000601f841160018114611bdf5760008515611bc75750838201355b600019600387901b1c1916600186901b178355611c39565b600083815260209020601f19861690835b82811015611c105786850135825560209485019460019092019101611bf0565b5086821015611c2d5760001960f88860031b161c19848701351681555b505060018560011b0183555b5050505050565b60008135611b148161175f565b80546001600160a01b0319166001600160a01b0392909216919091179055565b611c90611c7983611b07565b825463ffffffff191663ffffffff91909116178255565b611cc1611c9f60208401611b07565b825467ffffffff00000000191660209190911b67ffffffff0000000016178255565b611cfa611cd060408401611b07565b82546bffffffff0000000000000000191660409190911b6bffffffff000000000000000016178255565b611d2d611d0960608401611b07565b82805463ffffffff60601b191660609290921b63ffffffff60601b16919091179055565b611d60611d3c60808401611b07565b82805463ffffffff60801b191660809290921b63ffffffff60801b16919091179055565b611d6d60a0830183611ab9565b611d7b818360018601611b7f565b5050611d95611d8c60c08401611c40565b60028301611c4d565b611dad611da460e08401611c40565b60038301611c4d565b610100820135600482015561012082013560058201555050565b600060208284031215611dd957600080fd5b81356117e38161175f565b600060208284031215611df657600080fd5b5051919050565b600082611e0c57611e0c611910565b500690565b634e487b7160e01b600052603260045260246000fdfee303cb88ace8c9e6ba216f1aecb44b3206dcab364c60512ffc6cbc920a1bf9d1a264697066735822122049cad537570685587ffcc7a5dd3e455e4b2bb30f1580ce888b12886d91496ceb64736f6c634300080e0033",
  "linkReferences": {},
  "deployedLinkReferences": {}
}