{
  "_format": "hh-sol-artifact-1",
  "contractName": "SageWhitelist",
  "sourceName": "contracts/Utils/SageWhitelist.sol",
  "abi": [
    {
      "inputs": [
        {
          "internalType": "address",
          "name": "_sageStorage",
          "type": "address"
        }
      ],
      "stateMutability": "nonpayable",
      "type": "constructor"
    },
    {
      "anonymous": false,
      "inputs": [
        {
          "indexed": false,
          "internalType": "uint256",
          "name": "count",
          "type": "uint256"
        }
      ],
      "name": "AddressesAdded",
      "type": "event"
    },
    {
      "anonymous": false,
      "inputs": [
        {
          "indexed": false,
          "internalType": "uint256",
          "name": "count",
          "type": "uint256"
        }
      ],
      "name": "AddressesRemoved",
      "type": "event"
    },
    {
      "inputs": [
        {
          "internalType": "address[]",
          "name": "_addresses",
          "type": "address[]"
        }
      ],
      "name": "addAddresses",
      "outputs": [],
      "stateMutability": "nonpayable",
      "type": "function"
    },
    {
      "inputs": [
        {
          "internalType": "address",
          "name": "_address",
          "type": "address"
        },
        {
          "internalType": "uint256",
          "name": "",
          "type": "uint256"
        }
      ],
      "name": "isWhitelisted",
      "outputs": [
        {
          "internalType": "bool",
          "name": "",
          "type": "bool"
        }
      ],
      "stateMutability": "view",
      "type": "function"
    },
    {
      "inputs": [
        {
          "internalType": "address[]",
          "name": "_addresses",
          "type": "address[]"
        }
      ],
      "name": "removeAddresses",
      "outputs": [],
      "stateMutability": "nonpayable",
      "type": "function"
    },
    {
      "inputs": [
        {
          "internalType": "address",
          "name": "",
          "type": "address"
        }
      ],
      "name": "whitelisted",
      "outputs": [
        {
          "internalType": "bool",
          "name": "",
          "type": "bool"
        }
      ],
      "stateMutability": "view",
      "type": "function"
    }
  ],
  "bytecode": "0x608060405234801561001057600080fd5b506040516105d63803806105d683398101604081905261002f91610054565b600080546001600160a01b0319166001600160a01b0392909216919091179055610084565b60006020828403121561006657600080fd5b81516001600160a01b038116811461007d57600080fd5b9392505050565b610543806100936000396000f3fe608060405234801561001057600080fd5b506004361061004c5760003560e01c80633628731c14610051578063830639ac14610066578063a84eb999146100a7578063d936547e146100ba575b600080fd5b61006461005f3660046103d1565b6100dd565b005b610093610074366004610462565b506001600160a01b031660009081526001602052604090205460ff1690565b604051901515815260200160405180910390f35b6100646100b53660046103d1565b61025d565b6100936100c836600461048c565b60016020526000908152604090205460ff1681565b600054604051632474521560e21b81527fe303cb88ace8c9e6ba216f1aecb44b3206dcab364c60512ffc6cbc920a1bf9d160048201523360248201526001600160a01b03909116906391d1485490604401602060405180830381865afa15801561014b573d6000803e3d6000fd5b505050506040513d601f19601f8201168201806040525081019061016f91906104ae565b6101b35760405162461bcd60e51b815260206004820152601060248201526f41646d696e2063616c6c73206f6e6c7960801b60448201526064015b60405180910390fd5b60005b818110156102245760018060008585858181106101d5576101d56104d0565b90506020020160208101906101ea919061048c565b6001600160a01b031681526020810191909152604001600020805460ff19169115159190911790558061021c816104e6565b9150506101b6565b506040518181527f400e6a9240f31b968931e321040e0e7b5beff94cfeb886663f5df47db370ab11906020015b60405180910390a15050565b600054604051632474521560e21b81527fe303cb88ace8c9e6ba216f1aecb44b3206dcab364c60512ffc6cbc920a1bf9d160048201523360248201526001600160a01b03909116906391d1485490604401602060405180830381865afa1580156102cb573d6000803e3d6000fd5b505050506040513d601f19601f820116820180604052508101906102ef91906104ae565b61032e5760405162461bcd60e51b815260206004820152601060248201526f41646d696e2063616c6c73206f6e6c7960801b60448201526064016101aa565b60005b818110156103a057600060016000858585818110610351576103516104d0565b9050602002016020810190610366919061048c565b6001600160a01b031681526020810191909152604001600020805460ff191691151591909117905580610398816104e6565b915050610331565b506040518181527f11399d809a57a905552869207c018938fe3a0e62d214104c5aad86774d9550f590602001610251565b600080602083850312156103e457600080fd5b823567ffffffffffffffff808211156103fc57600080fd5b818501915085601f83011261041057600080fd5b81358181111561041f57600080fd5b8660208260051b850101111561043457600080fd5b60209290920196919550909350505050565b80356001600160a01b038116811461045d57600080fd5b919050565b6000806040838503121561047557600080fd5b61047e83610446565b946020939093013593505050565b60006020828403121561049e57600080fd5b6104a782610446565b9392505050565b6000602082840312156104c057600080fd5b815180151581146104a757600080fd5b634e487b7160e01b600052603260045260246000fd5b60006001820161050657634e487b7160e01b600052601160045260246000fd5b506001019056fea264697066735822122072eb5c59cb16be97606ca8329ed3687d79d50ec12b605dd3f3ca01c146057ad164736f6c634300080e0033",
  "linkReferences": {},
  "deployedLinkReferences": {}
}