{
  "_format": "hh-sol-artifact-1",
  "contractName": "SageRNG",
  "sourceName": "contracts/Lottery/SageRNG.sol",
  "abi": [
    {
      "inputs": [
        {
          "internalType": "address",
          "name": "_lottery",
          "type": "address"
        }
      ],
      "stateMutability": "nonpayable",
      "type": "constructor"
    },
    {
      "anonymous": false,
      "inputs": [
        {
          "indexed": false,
          "internalType": "address",
          "name": "oldAddr",
          "type": "address"
        },
        {
          "indexed": false,
          "internalType": "address",
          "name": "newAddr",
          "type": "address"
        }
      ],
      "name": "LotteryAddressChanged",
      "type": "event"
    },
    {
      "anonymous": false,
      "inputs": [
        {
          "indexed": true,
          "internalType": "address",
          "name": "previousOwner",
          "type": "address"
        },
        {
          "indexed": true,
          "internalType": "address",
          "name": "newOwner",
          "type": "address"
        }
      ],
      "name": "OwnershipTransferred",
      "type": "event"
    },
    {
      "anonymous": false,
      "inputs": [
        {
          "indexed": true,
          "internalType": "uint256",
          "name": "lotteryId",
          "type": "uint256"
        },
        {
          "indexed": false,
          "internalType": "uint256",
          "name": "randomNumber",
          "type": "uint256"
        }
      ],
      "name": "RandomnessFulfilled",
      "type": "event"
    },
    {
      "anonymous": false,
      "inputs": [
        {
          "indexed": true,
          "internalType": "uint256",
          "name": "lotteryId",
          "type": "uint256"
        },
        {
          "indexed": false,
          "internalType": "uint256",
          "name": "blockNumber",
          "type": "uint256"
        }
      ],
      "name": "RandomnessRequested",
      "type": "event"
    },
    {
      "inputs": [],
      "name": "MIN_DELAY_BLOCKS",
      "outputs": [
        {
          "internalType": "uint256",
          "name": "",
          "type": "uint256"
        }
      ],
      "stateMutability": "view",
      "type": "function"
    },
    {
      "inputs": [
        {
          "internalType": "uint256",
          "name": "_lotteryId",
          "type": "uint256"
        },
        {
          "internalType": "uint256",
          "name": "_operatorSeed",
          "type": "uint256"
        }
      ],
      "name": "fulfill",
      "outputs": [],
      "stateMutability": "nonpayable",
      "type": "function"
    },
    {
      "inputs": [],
      "name": "lottery",
      "outputs": [
        {
          "internalType": "contract ILottery",
          "name": "",
          "type": "address"
        }
      ],
      "stateMutability": "view",
      "type": "function"
    },
    {
      "inputs": [],
      "name": "owner",
      "outputs": [
        {
          "internalType": "address",
          "name": "",
          "type": "address"
        }
      ],
      "stateMutability": "view",
      "type": "function"
    },
    {
      "inputs": [],
      "name": "renounceOwnership",
      "outputs": [],
      "stateMutability": "nonpayable",
      "type": "function"
    },
    {
      "inputs": [
        {
          "internalType": "uint256",
          "name": "_lotteryId",
          "type": "uint256"
        }
      ],
      "name": "requestRandomWords",
      "outputs": [
        {
          "internalType": "uint256",
          "name": "requestId",
          "type": "uint256"
        }
      ],
      "stateMutability": "nonpayable",
      "type": "function"
    },
    {
      "inputs": [
        {
          "internalType": "uint256",
          "name": "",
          "type": "uint256"
        }
      ],
      "name": "requests",
      "outputs": [
        {
          "internalType": "uint64",
          "name": "blockNumber",
          "type": "uint64"
        },
        {
          "internalType": "bool",
          "name": "fulfilled",
          "type": "bool"
        }
      ],
      "stateMutability": "view",
      "type": "function"
    },
    {
      "inputs": [
        {
          "internalType": "address",
          "name": "_lottery",
          "type": "address"
        }
      ],
      "name": "setLotteryAddress",
      "outputs": [],
      "stateMutability": "nonpayable",
      "type": "function"
    },
    {
      "inputs": [
        {
          "internalType": "address",
          "name": "newOwner",
          "type": "address"
        }
      ],
      "name": "transferOwnership",
      "outputs": [],
      "stateMutability": "nonpayable",
      "type": "function"
    }
  ],
  "bytecode": "0x608060405234801561001057600080fd5b506040516108ba3803806108ba83398101604081905261002f916100ad565b6100383361005d565b600180546001600160a01b0319166001600160a01b03929092169190911790556100dd565b600080546001600160a01b038381166001600160a01b0319831681178455604051919092169283917f8be0079c531659141344cd1fd0a4f28419497f9722a3daafe3b4186f6b6457e09190a35050565b6000602082840312156100bf57600080fd5b81516001600160a01b03811681146100d657600080fd5b9392505050565b6107ce806100ec6000396000f3fe608060405234801561001057600080fd5b50600436106100935760003560e01c8063ba13a57211610066578063ba13a57214610135578063bc85777c14610148578063dcf4cdf114610169578063e153e8341461017c578063f2fde38b1461018457600080fd5b80632a332b2a14610098578063715018a6146100ad57806381d12c58146100b55780638da5cb5b14610110575b600080fd5b6100ab6100a63660046106e8565b610197565b005b6100ab610263565b6100eb6100c3366004610718565b60026020526000908152604090205467ffffffffffffffff811690600160401b900460ff1682565b6040805167ffffffffffffffff90931683529015156020830152015b60405180910390f35b6000546001600160a01b03165b6040516001600160a01b039091168152602001610107565b60015461011d906001600160a01b031681565b61015b610156366004610718565b610277565b604051908152602001610107565b6100ab610177366004610731565b61037f565b61015b600281565b6100ab6101923660046106e8565b6105c5565b61019f61063e565b6001600160a01b0381166101fa5760405162461bcd60e51b815260206004820152601d60248201527f4c6f74746572792063616e27742062652061646472657373207a65726f00000060448201526064015b60405180910390fd5b600154604080516001600160a01b03928316815291831660208301527f21f2c1f9afafef804e391c39fc3395b810079f7d94fe8770e1e851ae3370f0c4910160405180910390a1600180546001600160a01b0319166001600160a01b0392909216919091179055565b61026b61063e565b6102756000610698565b565b6001546000906001600160a01b031633146102c95760405162461bcd60e51b81526020600482015260126024820152714c6f74746572792063616c6c73206f6e6c7960701b60448201526064016101f1565b60008281526002602052604090208054600160401b900460ff16156103245760405162461bcd60e51b8152602060048201526011602482015270105b1c9958591e48199d5b199a5b1b1959607a1b60448201526064016101f1565b805467ffffffffffffffff19164367ffffffffffffffff811691909117825560405190815283907f3d94fecedaa4f90b8bd459797adb95f5bb11426025c5541390d9ccc1ad1b60a19060200160405180910390a25090919050565b61038761063e565b60008281526002602052604081208054909167ffffffffffffffff90911690036103ec5760405162461bcd60e51b81526020600482015260166024820152754e6f207265717565737420666f72206c6f747465727960501b60448201526064016101f1565b8054600160401b900460ff16156104395760405162461bcd60e51b8152602060048201526011602482015270105b1c9958591e48199d5b199a5b1b1959607a1b60448201526064016101f1565b80546000906104549060029067ffffffffffffffff16610769565b905080431161049c5760405162461bcd60e51b8152602060048201526014602482015273151bdbc819585c9b1e481d1bc8199d5b199a5b1b60621b60448201526064016101f1565b8040806104b2576104ae600143610781565b4090505b6040805160208101839052449181019190915260608082018690526080820187905230901b6bffffffffffffffffffffffff191660a082015260009060b40160408051601f19818403018152908290528051602090910120855468ff00000000000000001916600160401b17865560015463eb1ea52160e01b835260048301899052602483018290529092506001600160a01b03169063eb1ea52190604401600060405180830381600087803b15801561056b57600080fd5b505af115801561057f573d6000803e3d6000fd5b50505050857f546aca7b2683440b8f02fa95faeb8efc79dd0f16af3d815a002742ea6f76116c826040516105b591815260200190565b60405180910390a2505050505050565b6105cd61063e565b6001600160a01b0381166106325760405162461bcd60e51b815260206004820152602660248201527f4f776e61626c653a206e6577206f776e657220697320746865207a65726f206160448201526564647265737360d01b60648201526084016101f1565b61063b81610698565b50565b6000546001600160a01b031633146102755760405162461bcd60e51b815260206004820181905260248201527f4f776e61626c653a2063616c6c6572206973206e6f7420746865206f776e657260448201526064016101f1565b600080546001600160a01b038381166001600160a01b0319831681178455604051919092169283917f8be0079c531659141344cd1fd0a4f28419497f9722a3daafe3b4186f6b6457e09190a35050565b6000602082840312156106fa57600080fd5b81356001600160a01b038116811461071157600080fd5b9392505050565b60006020828403121561072a57600080fd5b5035919050565b6000806040838503121561074457600080fd5b50508035926020909101359150565b634e487b7160e01b600052601160045260246000fd5b6000821982111561077c5761077c610753565b500190565b60008282101561079357610793610753565b50039056fea2646970667358221220a381a435654b3680cafb9238a31ff46b1977f7d7c0f8065b550204875b7bfff164736f6c634300080e0033",
  "linkReferences": {},
  "deployedLinkReferences": {}
}