{
  "_format": "hh-sol-artifact-1",
  "contractName": "NFTFactory",
  "sourceName": "contracts/NFT/NFTFactory.sol",
  "abi": [
    {
      "inputs": [
        {
          "internalType": "address",
          "name": "_sageStorage",
          "type": "address"
        }
      ],
      "stateMutability": "nonpayable",
      "type": "constructor"
    },
    {
      "anonymous": false,
      "inputs": [
        {
          "indexed": true,
          "internalType": "address",
          "name": "contractAddress",
          "type": "address"
        },
        {
          "indexed": true,
          "internalType": "address",
          "name": "artistAddress",
          "type": "address"
        }
      ],
      "name": "NewNFTContract",
      "type": "event"
    },
    {
      "inputs": [],
      "name": "ADMIN_ROLE",
      "outputs": [
        {
          "internalType": "bytes32",
          "name": "",
          "type": "bytes32"
        }
      ],
      "stateMutability": "view",
      "type": "function"
    },
    {
      "inputs": [],
      "name": "ARTIST_ROLE",
      "outputs": [
        {
          "internalType": "bytes32",
          "name": "",
          "type": "bytes32"
        }
      ],
      "stateMutability": "view",
      "type": "function"
    },
    {
      "inputs": [
        {
          "internalType": "address",
          "name": "artistAddress",
          "type": "address"
        },
        {
          "internalType": "string",
          "name": "name",
          "type": "string"
        },
        {
          "internalType": "string",
          "name": "symbol",
          "type": "string"
        },
        {
          "internalType": "uint256",
          "name": "artistShare",
          "type": "uint256"
        }
      ],
      "name": "deployByAdmin",
      "outputs": [],
      "stateMutability": "nonpayable",
      "type": "function"
    },
    {
      "inputs": [
        {
          "internalType": "string",
          "name": "name",
          "type": "string"
        },
        {
          "internalType": "string",
          "name": "symbol",
          "type": "string"
        }
      ],
      "name": "deployByArtist",
      "outputs": [],
      "stateMutability": "nonpayable",
      "type": "function"
    },
    {
      "inputs": [
        {
          "internalType": "address",
          "name": "artistAddress",
          "type": "address"
        }
      ],
      "name": "getContractAddress",
      "outputs": [
        {
          "internalType": "address",
          "name": "",
          "type": "address"
        }
      ],
      "stateMutability": "view",
      "type": "function"
    },
    {
      "inputs": [
        {
          "internalType": "address",
          "name": "_artist",
          "type": "address"
        },
        {
          "internalType": "address payable",
          "name": "_contract",
          "type": "address"
        }
      ],
      "name": "setArtistContract",
      "outputs": [],
      "stateMutability": "nonpayable",
      "type": "function"
    }
  ],
  "bytecode": "0x60a060405234801561001057600080fd5b506040516141cc3803806141cc83398101604081905261002f91610040565b6001600160a01b0316608052610070565b60006020828403121561005257600080fd5b81516001600160a01b038116811461006957600080fd5b9392505050565b60805161412c6100a06000396000818161019b015281816102ab0152818161039701526104f0015261412c6000f3fe60806040523480156200001157600080fd5b5060043610620000695760003560e01c80626825cd146200006e5780631272df3e14620000875780635b0caff6146200009e578063622bc90e14620000b557806375b238fc1462000101578063a966a0df1462000138575b600080fd5b620000856200007f3660046200060c565b62000160565b005b620000856200009836600462000698565b62000270565b62000085620000af3660046200072c565b6200037b565b620000e4620000c63660046200076a565b6001600160a01b039081166000908152602081905260409020541690565b6040516001600160a01b0390911681526020015b60405180910390f35b620001297fe303cb88ace8c9e6ba216f1aecb44b3206dcab364c60512ffc6cbc920a1bf9d181565b604051908152602001620000f8565b620001297fc18c9ce59aaa739e2eb7c0e63fb0e95821f115c643b2d4c9d3d194ec807d510081565b604051632474521560e21b81527fc18c9ce59aaa739e2eb7c0e63fb0e95821f115c643b2d4c9d3d194ec807d510060048201523360248201527f00000000000000000000000000000000000000000000000000000000000000006001600160a01b0316906391d1485490604401602060405180830381865afa158015620001eb573d6000803e3d6000fd5b505050506040513d601f19601f8201168201806040525081019062000211919062000791565b620002575760405162461bcd60e51b81526020600482015260116024820152704172746973742063616c6c73206f6e6c7960781b60448201526064015b60405180910390fd5b62000269338585858561208d6200047c565b5050505050565b604051632474521560e21b81527fe303cb88ace8c9e6ba216f1aecb44b3206dcab364c60512ffc6cbc920a1bf9d160048201523360248201527f00000000000000000000000000000000000000000000000000000000000000006001600160a01b0316906391d1485490604401602060405180830381865afa158015620002fb573d6000803e3d6000fd5b505050506040513d601f19601f8201168201806040525081019062000321919062000791565b620003625760405162461bcd60e51b815260206004820152601060248201526f41646d696e2063616c6c73206f6e6c7960801b60448201526064016200024e565b620003728686868686866200047c565b50505050505050565b604051632474521560e21b8152600060048201523360248201527f00000000000000000000000000000000000000000000000000000000000000006001600160a01b0316906391d1485490604401602060405180830381865afa158015620003e7573d6000803e3d6000fd5b505050506040513d601f19601f820116820180604052508101906200040d919062000791565b6200044e5760405162461bcd60e51b815260206004820152601060248201526f41646d696e2063616c6c73206f6e6c7960801b60448201526064016200024e565b6001600160a01b03918216600090815260208190526040902080546001600160a01b03191691909216179055565b6001600160a01b0386811660009081526020819052604081205490911615620004e85760405162461bcd60e51b815260206004820152601760248201527f436f6e747261637420616c72656164792065786973747300000000000000000060448201526064016200024e565b6000868686867f00000000000000000000000000000000000000000000000000000000000000008c886040516200051f90620005b2565b620005319796959493929190620007de565b604051809103906000f0801580156200054e573d6000803e3d6000fd5b506001600160a01b0389811660008181526020819052604080822080546001600160a01b03191694861694851790555193945090927fb6033d0dde1ac5b6c6e41733e23c9ae072dc72d9abffbffc8cfd4ec044b325119190a3979650505050505050565b6138c6806200083183390190565b60008083601f840112620005d357600080fd5b50813567ffffffffffffffff811115620005ec57600080fd5b6020830191508360208285010111156200060557600080fd5b9250929050565b600080600080604085870312156200062357600080fd5b843567ffffffffffffffff808211156200063c57600080fd5b6200064a88838901620005c0565b909650945060208701359150808211156200066457600080fd5b506200067387828801620005c0565b95989497509550505050565b6001600160a01b03811681146200069557600080fd5b50565b60008060008060008060808789031215620006b257600080fd5b8635620006bf816200067f565b9550602087013567ffffffffffffffff80821115620006dd57600080fd5b620006eb8a838b01620005c0565b909750955060408901359150808211156200070557600080fd5b506200071489828a01620005c0565b979a9699509497949695606090950135949350505050565b600080604083850312156200074057600080fd5b82356200074d816200067f565b915060208301356200075f816200067f565b809150509250929050565b6000602082840312156200077d57600080fd5b81356200078a816200067f565b9392505050565b600060208284031215620007a457600080fd5b815180151581146200078a57600080fd5b81835281816020850137506000828201602090810191909152601f909101601f19169091010190565b60a081526000620007f460a08301898b620007b5565b82810360208401526200080981888a620007b5565b6001600160a01b03968716604085015294909516606083015250608001529594505050505056fe60a06040523480156200001157600080fd5b50604051620038c6380380620038c68339810160408190526200003491620002d2565b8451859085906200004d90600090602085019062000142565b5080516200006390600190602084019062000142565b505050620000806200007a620000e360201b60201c565b620000e7565b6001600160a01b03838116608052600c80546001600160a01b031916918416919091179055600d819055601080546104b06001600160601b0319909116179055620000d8600f62000139602090811b62001d9017901c565b5050505050620003a7565b3390565b600b80546001600160a01b038381166001600160a01b0319831681179093556040519116919082907f8be0079c531659141344cd1fd0a4f28419497f9722a3daafe3b4186f6b6457e090600090a35050565b80546001019055565b82805462000150906200036b565b90600052602060002090601f016020900481019282620001745760008555620001bf565b82601f106200018f57805160ff1916838001178555620001bf565b82800160010185558215620001bf579182015b82811115620001bf578251825591602001919060010190620001a2565b50620001cd929150620001d1565b5090565b5b80821115620001cd5760008155600101620001d2565b634e487b7160e01b600052604160045260246000fd5b600082601f8301126200021057600080fd5b81516001600160401b03808211156200022d576200022d620001e8565b604051601f8301601f19908116603f01168101908282118183101715620002585762000258620001e8565b816040528381526020925086838588010111156200027557600080fd5b600091505b838210156200029957858201830151818301840152908201906200027a565b83821115620002ab5760008385830101525b9695505050505050565b80516001600160a01b0381168114620002cd57600080fd5b919050565b600080600080600060a08688031215620002eb57600080fd5b85516001600160401b03808211156200030357600080fd5b6200031189838a01620001fe565b965060208801519150808211156200032857600080fd5b506200033788828901620001fe565b9450506200034860408701620002b5565b92506200035860608701620002b5565b9150608086015190509295509295909350565b600181811c908216806200038057607f821691505b602082108103620003a157634e487b7160e01b600052602260045260246000fd5b50919050565b6080516134a86200041e60003960008181610a3901528181610d0b01528181610f6901528181610fee0152818161124801528181611348015281816114790152818161154301528181611646015281816116cb015281816118340152818161195201528181611b7d0152611c9901526134a86000f3fe6080604052600436106102605760003560e01c806370a0823111610144578063c87b56dd116100b6578063d6948b751161007a578063d6948b751461077a578063e8a3d4851461079a578063e985e9c5146107af578063f2fde38b146107cf578063f4f3b200146107ef578063fce550371461080f57600080fd5b8063c87b56dd146106d0578063cf933f86146106f0578063d204c45e14610706578063d4c9753314610726578063d53913931461074657600080fd5b80638da5cb5b116101085780638da5cb5b1461062857806395d89b4114610646578063a217fddf1461065b578063a22cb46514610670578063a82670d314610690578063b88d4fde146106b057600080fd5b806370a0823114610588578063715018a6146105a857806375794a3c146105bd57806375b238fc146105d45780637eeab0951461060857600080fd5b80632a0befc2116101dd57806342842e0e116101a157806342842e0e146104c857806342966c68146104e857806343bc1612146105085780634f6ccce7146105285780636352211e1461054857806367a4f4a91461056857600080fd5b80632a0befc21461041e5780632a55205a1461043e5780632f745c591461047d5780633ccfd60b1461049d5780633dca40e6146104b257600080fd5b806318160ddd1161022457806318160ddd1461033d57806318d33e411461035c5780631bdd03111461039457806323b872dd146103ca578063282c51f3146103ea57600080fd5b806301ffc9a71461026c57806306fdde03146102a1578063081812fc146102c3578063095ea7b3146102fb578063162094c41461031d57600080fd5b3661026757005b600080fd5b34801561027857600080fd5b5061028c610287366004612d6f565b61082f565b60405190151581526020015b60405180910390f35b3480156102ad57600080fd5b506102b661085a565b6040516102989190612de4565b3480156102cf57600080fd5b506102e36102de366004612df7565b6108ec565b6040516001600160a01b039091168152602001610298565b34801561030757600080fd5b5061031b610316366004612e25565b610913565b005b34801561032957600080fd5b5061031b610338366004612e93565b610a2d565b34801561034957600080fd5b506008545b604051908152602001610298565b34801561036857600080fd5b5060105461037c906001600160601b031681565b6040516001600160601b039091168152602001610298565b3480156103a057600080fd5b5061037c6103af366004612df7565b6011602052600090815260409020546001600160601b031681565b3480156103d657600080fd5b5061031b6103e5366004612edf565b610b1f565b3480156103f657600080fd5b5061034e7f3b25106add3a89098ef82030314e486ca1f967bd742e45817c5014c5ef3e806481565b34801561042a57600080fd5b5061031b610439366004612f20565b610b51565b34801561044a57600080fd5b5061045e610459366004612f62565b610bae565b604080516001600160a01b039093168352602083019190915201610298565b34801561048957600080fd5b5061034e610498366004612e25565b610bee565b3480156104a957600080fd5b5061031b610c84565b3480156104be57600080fd5b5061037c6107d081565b3480156104d457600080fd5b5061031b6104e3366004612edf565b610def565b3480156104f457600080fd5b5061031b610503366004612df7565b610e0a565b34801561051457600080fd5b50600c546102e3906001600160a01b031681565b34801561053457600080fd5b5061034e610543366004612df7565b610e3b565b34801561055457600080fd5b506102e3610563366004612df7565b610ece565b34801561057457600080fd5b5061031b610583366004612fa0565b610f2e565b34801561059457600080fd5b5061034e6105a3366004612fcc565b6111a2565b3480156105b457600080fd5b5061031b611228565b3480156105c957600080fd5b50600f5461034e9081565b3480156105e057600080fd5b5061034e7fe303cb88ace8c9e6ba216f1aecb44b3206dcab364c60512ffc6cbc920a1bf9d181565b34801561061457600080fd5b5061031b610623366004612df7565b61123c565b34801561063457600080fd5b50600b546001600160a01b03166102e3565b34801561065257600080fd5b506102b66112f3565b34801561066757600080fd5b5061034e600081565b34801561067c57600080fd5b5061031b61068b366004612ff7565b611302565b34801561069c57600080fd5b5061031b6106ab366004612df7565b61130d565b3480156106bc57600080fd5b5061031b6106cb366004613046565b6113fb565b3480156106dc57600080fd5b506102b66106eb366004612df7565b611433565b3480156106fc57600080fd5b5061034e600d5481565b34801561071257600080fd5b5061031b610721366004613126565b61143e565b34801561073257600080fd5b5061031b610741366004612fcc565b611537565b34801561075257600080fd5b5061034e7f43c12360602d49748153591f2df5a853821ec8410115f225b90a7a49bd5d2bb981565b34801561078657600080fd5b5061031b610795366004613162565b61160b565b3480156107a657600080fd5b506102b6611817565b3480156107bb57600080fd5b5061028c6107ca36600461317d565b611826565b3480156107db57600080fd5b5061031b6107ea366004612fcc565b611946565b3480156107fb57600080fd5b5061031b61080a366004612fcc565b611a66565b34801561081b57600080fd5b5061031b61082a366004612f20565b611c7d565b60006001600160e01b0319821663152a902d60e11b1480610854575061085482611d99565b92915050565b606060008054610869906131ab565b80601f0160208091040260200160405190810160405280929190818152602001828054610895906131ab565b80156108e25780601f106108b7576101008083540402835291602001916108e2565b820191906000526020600020905b8154815290600101906020018083116108c557829003601f168201915b5050505050905090565b60006108f782611dbe565b506000908152600460205260409020546001600160a01b031690565b600061091e82610ece565b9050806001600160a01b0316836001600160a01b0316036109905760405162461bcd60e51b815260206004820152602160248201527f4552433732313a20617070726f76616c20746f2063757272656e74206f776e656044820152603960f91b60648201526084015b60405180910390fd5b336001600160a01b03821614806109ac57506109ac8133611826565b610a1e5760405162461bcd60e51b815260206004820152603e60248201527f4552433732313a20617070726f76652063616c6c6572206973206e6f7420746f60448201527f6b656e206f776e6572206e6f7220617070726f76656420666f7220616c6c00006064820152608401610987565b610a288383611e1d565b505050565b336001600160a01b03167f00000000000000000000000000000000000000000000000000000000000000006001600160a01b0316634783c35b6040518163ffffffff1660e01b8152600401602060405180830381865afa158015610a95573d6000803e3d6000fd5b505050506040513d601f19601f82011682018060405250810190610ab991906131e5565b6001600160a01b031614610adf5760405162461bcd60e51b815260040161098790613202565b610a288383838080601f016020809104026020016040519081016040528093929190818152602001838380828437600092019190915250611e8b92505050565b610b2a335b82611f25565b610b465760405162461bcd60e51b81526004016109879061322c565b610a28838383611f84565b600c546001600160a01b03163314610b9f5760405162461bcd60e51b81526020600482015260116024820152704f6e6c79206172746973742063616c6c7360781b6044820152606401610987565b610baa33838361212b565b5050565b6000828152601160205260408120548190309061271090610bd8906001600160601b031686613290565b610be291906132c5565b915091505b9250929050565b6000610bf9836111a2565b8210610c5b5760405162461bcd60e51b815260206004820152602b60248201527f455243373231456e756d657261626c653a206f776e657220696e646578206f7560448201526a74206f6620626f756e647360a81b6064820152608401610987565b506001600160a01b03919091166000908152600660209081526040808320938352929052205490565b600d54479060009061271090610c9a9084613290565b610ca491906132c5565b600c546040519192506000916001600160a01b039091169083908381818185875af1925050503d8060008114610cf6576040519150601f19603f3d011682016040523d82523d6000602084013e610cfb565b606091505b5050905080610d0957600080fd5b7f00000000000000000000000000000000000000000000000000000000000000006001600160a01b0316634783c35b6040518163ffffffff1660e01b8152600401602060405180830381865afa158015610d67573d6000803e3d6000fd5b505050506040513d601f19601f82011682018060405250810190610d8b91906131e5565b6001600160a01b0316610d9e83856132d9565b604051600081818185875af1925050503d8060008114610dda576040519150601f19603f3d011682016040523d82523d6000602084013e610ddf565b606091505b50508091505080610a2857600080fd5b610a28838383604051806020016040528060008152506113fb565b610e1333610b24565b610e2f5760405162461bcd60e51b81526004016109879061322c565b610e38816121be565b50565b6000610e4660085490565b8210610ea95760405162461bcd60e51b815260206004820152602c60248201527f455243373231456e756d657261626c653a20676c6f62616c20696e646578206f60448201526b7574206f6620626f756e647360a01b6064820152608401610987565b60088281548110610ebc57610ebc6132f0565b90600052602060002001549050919050565b6000818152600260205260408120546001600160a01b0316806108545760405162461bcd60e51b8152602060048201526018602482015277115490cdcc8c4e881a5b9d985b1a59081d1bdad95b88125160421b6044820152606401610987565b604051632474521560e21b81527fe303cb88ace8c9e6ba216f1aecb44b3206dcab364c60512ffc6cbc920a1bf9d160048201523360248201527f00000000000000000000000000000000000000000000000000000000000000006001600160a01b0316906391d1485490604401602060405180830381865afa158015610fb8573d6000803e3d6000fd5b505050506040513d601f19601f82011682018060405250810190610fdc9190613306565b806110795750336001600160a01b03167f00000000000000000000000000000000000000000000000000000000000000006001600160a01b0316634783c35b6040518163ffffffff1660e01b8152600401602060405180830381865afa15801561104a573d6000803e3d6000fd5b505050506040513d601f19601f8201168201806040525081019061106e91906131e5565b6001600160a01b0316145b6110955760405162461bcd60e51b815260040161098790613202565b6000828152600260205260409020546001600160a01b03166110ed5760405162461bcd60e51b81526020600482015260116024820152702737b732bc34b9ba32b73a103a37b5b2b760791b6044820152606401610987565b6107d06001600160601b038216111561113e5760405162461bcd60e51b81526020600482015260136024820152720526f79616c747920657863656564732063617606c1b6044820152606401610987565b60008281526011602090815260409182902080546001600160601b0319166001600160601b038516908117909155915191825283917f6cb0641251594fc9401685041580b10a71fb138bca581fb7bace1c50e57dc354910160405180910390a25050565b60006001600160a01b03821661120c5760405162461bcd60e51b815260206004820152602960248201527f4552433732313a2061646472657373207a65726f206973206e6f7420612076616044820152683634b21037bbb732b960b91b6064820152608401610987565b506001600160a01b031660009081526003602052604090205490565b6112306121c7565b61123a6000612221565b565b336001600160a01b03167f00000000000000000000000000000000000000000000000000000000000000006001600160a01b0316634783c35b6040518163ffffffff1660e01b8152600401602060405180830381865afa1580156112a4573d6000803e3d6000fd5b505050506040513d601f19601f820116820180604052508101906112c891906131e5565b6001600160a01b0316146112ee5760405162461bcd60e51b815260040161098790613202565b600d55565b606060018054610869906131ab565b610baa338383612273565b604051632474521560e21b81527f3b25106add3a89098ef82030314e486ca1f967bd742e45817c5014c5ef3e806460048201523360248201527f00000000000000000000000000000000000000000000000000000000000000006001600160a01b0316906391d1485490604401602060405180830381865afa158015611397573d6000803e3d6000fd5b505050506040513d601f19601f820116820180604052508101906113bb9190613306565b610e2f5760405162461bcd60e51b81526020600482015260116024820152704e6f206275726e696e672072696768747360781b6044820152606401610987565b6114053383611f25565b6114215760405162461bcd60e51b81526004016109879061322c565b61142d84848484612341565b50505050565b606061085482612374565b604051632474521560e21b81527f43c12360602d49748153591f2df5a853821ec8410115f225b90a7a49bd5d2bb960048201523360248201527f00000000000000000000000000000000000000000000000000000000000000006001600160a01b0316906391d1485490604401602060405180830381865afa1580156114c8573d6000803e3d6000fd5b505050506040513d601f19601f820116820180604052508101906114ec9190613306565b61152c5760405162461bcd60e51b81526020600482015260116024820152704e6f206d696e74696e672072696768747360781b6044820152606401610987565b610a2883838361212b565b336001600160a01b03167f00000000000000000000000000000000000000000000000000000000000000006001600160a01b0316634783c35b6040518163ffffffff1660e01b8152600401602060405180830381865afa15801561159f573d6000803e3d6000fd5b505050506040513d601f19601f820116820180604052508101906115c391906131e5565b6001600160a01b0316146115e95760405162461bcd60e51b815260040161098790613202565b600c80546001600160a01b0319166001600160a01b0392909216919091179055565b604051632474521560e21b81527fe303cb88ace8c9e6ba216f1aecb44b3206dcab364c60512ffc6cbc920a1bf9d160048201523360248201527f00000000000000000000000000000000000000000000000000000000000000006001600160a01b0316906391d1485490604401602060405180830381865afa158015611695573d6000803e3d6000fd5b505050506040513d601f19601f820116820180604052508101906116b99190613306565b806117565750336001600160a01b03167f00000000000000000000000000000000000000000000000000000000000000006001600160a01b0316634783c35b6040518163ffffffff1660e01b8152600401602060405180830381865afa158015611727573d6000803e3d6000fd5b505050506040513d601f19601f8201168201806040525081019061174b91906131e5565b6001600160a01b0316145b6117725760405162461bcd60e51b815260040161098790613202565b6107d06001600160601b03821611156117c35760405162461bcd60e51b81526020600482015260136024820152720526f79616c747920657863656564732063617606c1b6044820152606401610987565b601080546001600160601b0319166001600160601b0383169081179091556040519081527fc69c3f6a5f2063adf3c2cba2d755e50c2ce8145a4b85728f120863cc80bdc4149060200160405180910390a150565b6060600e8054610869906131ab565b6000816001600160a01b03167f00000000000000000000000000000000000000000000000000000000000000006001600160a01b03166321f8a72160405160200161188a9072616464726573732e6d61726b6574706c61636560681b815260130190565b604051602081830303815290604052805190602001206040518263ffffffff1660e01b81526004016118be91815260200190565b602060405180830381865afa1580156118db573d6000803e3d6000fd5b505050506040513d601f19601f820116820180604052508101906118ff91906131e5565b6001600160a01b03160361191557506001610854565b6001600160a01b0380841660009081526005602090815260408083209386168352929052205460ff165b9392505050565b336001600160a01b03167f00000000000000000000000000000000000000000000000000000000000000006001600160a01b0316634783c35b6040518163ffffffff1660e01b8152600401602060405180830381865afa1580156119ae573d6000803e3d6000fd5b505050506040513d601f19601f820116820180604052508101906119d291906131e5565b6001600160a01b0316146119f85760405162461bcd60e51b815260040161098790613202565b6001600160a01b038116611a5d5760405162461bcd60e51b815260206004820152602660248201527f4f776e61626c653a206e6577206f776e657220697320746865207a65726f206160448201526564647265737360d01b6064820152608401610987565b610e3881612221565b6040516370a0823160e01b815230600482015281906000906001600160a01b038316906370a0823190602401602060405180830381865afa158015611aaf573d6000803e3d6000fd5b505050506040513d601f19601f82011682018060405250810190611ad39190613323565b90506000612710600d5483611ae89190613290565b611af291906132c5565b600c5460405163a9059cbb60e01b81526001600160a01b0391821660048201526024810183905291925084169063a9059cbb906044016020604051808303816000875af1158015611b47573d6000803e3d6000fd5b505050506040513d601f19601f82011682018060405250810190611b6b9190613306565b50826001600160a01b031663a9059cbb7f00000000000000000000000000000000000000000000000000000000000000006001600160a01b0316634783c35b6040518163ffffffff1660e01b8152600401602060405180830381865afa158015611bd9573d6000803e3d6000fd5b505050506040513d601f19601f82011682018060405250810190611bfd91906131e5565b611c0784866132d9565b6040516001600160e01b031960e085901b1681526001600160a01b03909216600483015260248201526044016020604051808303816000875af1158015611c52573d6000803e3d6000fd5b505050506040513d601f19601f82011682018060405250810190611c769190613306565b5050505050565b604051632474521560e21b8152600060048201523360248201527f00000000000000000000000000000000000000000000000000000000000000006001600160a01b0316906391d1485490604401602060405180830381865afa158015611ce8573d6000803e3d6000fd5b505050506040513d601f19601f82011682018060405250810190611d0c9190613306565b80611d385750600c546001600160a01b031633148015611d385750600e8054611d34906131ab565b1590505b611d845760405162461bcd60e51b815260206004820152601b60248201527f4f6e6c792063726561746f72206f722061646d696e2063616c6c7300000000006044820152606401610987565b610a28600e8383612c16565b80546001019055565b60006001600160e01b0319821663780e9d6360e01b148061085457506108548261247c565b6000818152600260205260409020546001600160a01b0316610e385760405162461bcd60e51b8152602060048201526018602482015277115490cdcc8c4e881a5b9d985b1a59081d1bdad95b88125160421b6044820152606401610987565b600081815260046020526040902080546001600160a01b0319166001600160a01b0384169081179091558190611e5282610ece565b6001600160a01b03167f8c5be1e5ebec7d5bd14f71427d1e84f3dd0314c0f7b2291e5b200ac8c7c3b92560405160405180910390a45050565b6000828152600260205260409020546001600160a01b0316611f065760405162461bcd60e51b815260206004820152602e60248201527f45524337323155524953746f726167653a2055524920736574206f66206e6f6e60448201526d32bc34b9ba32b73a103a37b5b2b760911b6064820152608401610987565b6000828152600a602090815260409091208251610a2892840190612c9a565b600080611f3183610ece565b9050806001600160a01b0316846001600160a01b03161480611f585750611f588185611826565b80611f7c5750836001600160a01b0316611f71846108ec565b6001600160a01b0316145b949350505050565b826001600160a01b0316611f9782610ece565b6001600160a01b031614611ffb5760405162461bcd60e51b815260206004820152602560248201527f4552433732313a207472616e736665722066726f6d20696e636f72726563742060448201526437bbb732b960d91b6064820152608401610987565b6001600160a01b03821661205d5760405162461bcd60e51b8152602060048201526024808201527f4552433732313a207472616e7366657220746f20746865207a65726f206164646044820152637265737360e01b6064820152608401610987565b6120688383836124cc565b612073600082611e1d565b6001600160a01b038316600090815260036020526040812080546001929061209c9084906132d9565b90915550506001600160a01b03821660009081526003602052604081208054600192906120ca90849061333c565b909155505060008181526002602052604080822080546001600160a01b0319166001600160a01b0386811691821790925591518493918716917fddf252ad1be2c89b69c2b068fc378daa952ba7f163c4a11628f55a4df523b3ef91a4505050565b6000612136600f5490565b9050612146600f80546001019055565b601054600082815260116020526040902080546001600160601b0319166001600160601b0390921691909117905561217e84826124d7565b61142d8184848080601f016020809104026020016040519081016040528093929190818152602001838380828437600092019190915250611e8b92505050565b610e38816124f1565b600b546001600160a01b0316331461123a5760405162461bcd60e51b815260206004820181905260248201527f4f776e61626c653a2063616c6c6572206973206e6f7420746865206f776e65726044820152606401610987565b600b80546001600160a01b038381166001600160a01b0319831681179093556040519116919082907f8be0079c531659141344cd1fd0a4f28419497f9722a3daafe3b4186f6b6457e090600090a35050565b816001600160a01b0316836001600160a01b0316036122d45760405162461bcd60e51b815260206004820152601960248201527f4552433732313a20617070726f766520746f2063616c6c6572000000000000006044820152606401610987565b6001600160a01b03838116600081815260056020908152604080832094871680845294825291829020805460ff191686151590811790915591519182527f17307eab39ab6107e8899845ad3d59bd9653f200f220920489ca2b5937696c31910160405180910390a3505050565b61234c848484611f84565b61235884848484612531565b61142d5760405162461bcd60e51b815260040161098790613354565b606061237f82611dbe565b6000828152600a602052604081208054612398906131ab565b80601f01602080910402602001604051908101604052809291908181526020018280546123c4906131ab565b80156124115780601f106123e657610100808354040283529160200191612411565b820191906000526020600020905b8154815290600101906020018083116123f457829003601f168201915b50505050509050600061242f60408051602081019091526000815290565b90508051600003612441575092915050565b81511561247357808260405160200161245b9291906133a6565b60405160208183030381529060405292505050919050565b611f7c84612632565b60006001600160e01b031982166380ac58cd60e01b14806124ad57506001600160e01b03198216635b5e139f60e01b145b8061085457506301ffc9a760e01b6001600160e01b0319831614610854565b610a288383836126a5565b610baa82826040518060200160405280600081525061275d565b6124fa81612790565b6000818152600a602052604090208054612513906131ab565b159050610e38576000818152600a60205260408120610e3891612d0e565b60006001600160a01b0384163b1561262757604051630a85bd0160e11b81526001600160a01b0385169063150b7a02906125759033908990889088906004016133d5565b6020604051808303816000875af19250505080156125b0575060408051601f3d908101601f191682019092526125ad91810190613412565b60015b61260d573d8080156125de576040519150601f19603f3d011682016040523d82523d6000602084013e6125e3565b606091505b5080516000036126055760405162461bcd60e51b815260040161098790613354565b805181602001fd5b6001600160e01b031916630a85bd0160e11b149050611f7c565b506001949350505050565b606061263d82611dbe565b600061265460408051602081019091526000815290565b90506000815111612674576040518060200160405280600081525061193f565b8061267e84612837565b60405160200161268f9291906133a6565b6040516020818303038152906040529392505050565b6001600160a01b038316612700576126fb81600880546000838152600960205260408120829055600182018355919091527ff3f7a9fe364faab93b216da50a3214154f22a0a2b415b23a84c8169e8b636ee30155565b612723565b816001600160a01b0316836001600160a01b031614612723576127238382612938565b6001600160a01b03821661273a57610a28816129d5565b826001600160a01b0316826001600160a01b031614610a2857610a288282612a84565b6127678383612ac8565b6127746000848484612531565b610a285760405162461bcd60e51b815260040161098790613354565b600061279b82610ece565b90506127a9816000846124cc565b6127b4600083611e1d565b6001600160a01b03811660009081526003602052604081208054600192906127dd9084906132d9565b909155505060008281526002602052604080822080546001600160a01b0319169055518391906001600160a01b038416907fddf252ad1be2c89b69c2b068fc378daa952ba7f163c4a11628f55a4df523b3ef908390a45050565b60608160000361285e5750506040805180820190915260018152600360fc1b602082015290565b8160005b811561288857806128728161342f565b91506128819050600a836132c5565b9150612862565b60008167ffffffffffffffff8111156128a3576128a3613030565b6040519080825280601f01601f1916602001820160405280156128cd576020820181803683370190505b5090505b8415611f7c576128e26001836132d9565b91506128ef600a86613448565b6128fa90603061333c565b60f81b81838151811061290f5761290f6132f0565b60200101906001600160f81b031916908160001a905350612931600a866132c5565b94506128d1565b60006001612945846111a2565b61294f91906132d9565b6000838152600760205260409020549091508082146129a2576001600160a01b03841660009081526006602090815260408083208584528252808320548484528184208190558352600790915290208190555b5060009182526007602090815260408084208490556001600160a01b039094168352600681528383209183525290812055565b6008546000906129e7906001906132d9565b60008381526009602052604081205460088054939450909284908110612a0f57612a0f6132f0565b906000526020600020015490508060088381548110612a3057612a306132f0565b6000918252602080832090910192909255828152600990915260408082208490558582528120556008805480612a6857612a6861345c565b6001900381819060005260206000200160009055905550505050565b6000612a8f836111a2565b6001600160a01b039093166000908152600660209081526040808320868452825280832085905593825260079052919091209190915550565b6001600160a01b038216612b1e5760405162461bcd60e51b815260206004820181905260248201527f4552433732313a206d696e7420746f20746865207a65726f20616464726573736044820152606401610987565b6000818152600260205260409020546001600160a01b031615612b835760405162461bcd60e51b815260206004820152601c60248201527f4552433732313a20746f6b656e20616c7265616479206d696e746564000000006044820152606401610987565b612b8f600083836124cc565b6001600160a01b0382166000908152600360205260408120805460019290612bb890849061333c565b909155505060008181526002602052604080822080546001600160a01b0319166001600160a01b03861690811790915590518392907fddf252ad1be2c89b69c2b068fc378daa952ba7f163c4a11628f55a4df523b3ef908290a45050565b828054612c22906131ab565b90600052602060002090601f016020900481019282612c445760008555612c8a565b82601f10612c5d5782800160ff19823516178555612c8a565b82800160010185558215612c8a579182015b82811115612c8a578235825591602001919060010190612c6f565b50612c96929150612d44565b5090565b828054612ca6906131ab565b90600052602060002090601f016020900481019282612cc85760008555612c8a565b82601f10612ce157805160ff1916838001178555612c8a565b82800160010185558215612c8a579182015b82811115612c8a578251825591602001919060010190612cf3565b508054612d1a906131ab565b6000825580601f10612d2a575050565b601f016020900490600052602060002090810190610e3891905b5b80821115612c965760008155600101612d45565b6001600160e01b031981168114610e3857600080fd5b600060208284031215612d8157600080fd5b813561193f81612d59565b60005b83811015612da7578181015183820152602001612d8f565b8381111561142d5750506000910152565b60008151808452612dd0816020860160208601612d8c565b601f01601f19169290920160200192915050565b60208152600061193f6020830184612db8565b600060208284031215612e0957600080fd5b5035919050565b6001600160a01b0381168114610e3857600080fd5b60008060408385031215612e3857600080fd5b8235612e4381612e10565b946020939093013593505050565b60008083601f840112612e6357600080fd5b50813567ffffffffffffffff811115612e7b57600080fd5b602083019150836020828501011115610be757600080fd5b600080600060408486031215612ea857600080fd5b83359250602084013567ffffffffffffffff811115612ec657600080fd5b612ed286828701612e51565b9497909650939450505050565b600080600060608486031215612ef457600080fd5b8335612eff81612e10565b92506020840135612f0f81612e10565b929592945050506040919091013590565b60008060208385031215612f3357600080fd5b823567ffffffffffffffff811115612f4a57600080fd5b612f5685828601612e51565b90969095509350505050565b60008060408385031215612f7557600080fd5b50508035926020909101359150565b80356001600160601b0381168114612f9b57600080fd5b919050565b60008060408385031215612fb357600080fd5b82359150612fc360208401612f84565b90509250929050565b600060208284031215612fde57600080fd5b813561193f81612e10565b8015158114610e3857600080fd5b6000806040838503121561300a57600080fd5b823561301581612e10565b9150602083013561302581612fe9565b809150509250929050565b634e487b7160e01b600052604160045260246000fd5b6000806000806080858703121561305c57600080fd5b843561306781612e10565b9350602085013561307781612e10565b925060408501359150606085013567ffffffffffffffff8082111561309b57600080fd5b818701915087601f8301126130af57600080fd5b8135818111156130c1576130c1613030565b604051601f8201601f19908116603f011681019083821181831017156130e9576130e9613030565b816040528281528a602084870101111561310257600080fd5b82602086016020830137600060208483010152809550505050505092959194509250565b60008060006040848603121561313b57600080fd5b833561314681612e10565b9250602084013567ffffffffffffffff811115612ec657600080fd5b60006020828403121561317457600080fd5b61193f82612f84565b6000806040838503121561319057600080fd5b823561319b81612e10565b9150602083013561302581612e10565b600181811c908216806131bf57607f821691505b6020821081036131df57634e487b7160e01b600052602260045260246000fd5b50919050565b6000602082840312156131f757600080fd5b815161193f81612e10565b60208082526010908201526f41646d696e2063616c6c73206f6e6c7960801b604082015260600190565b6020808252602e908201527f4552433732313a2063616c6c6572206973206e6f7420746f6b656e206f776e6560408201526d1c881b9bdc88185c1c1c9bdd995960921b606082015260800190565b634e487b7160e01b600052601160045260246000fd5b60008160001904831182151516156132aa576132aa61327a565b500290565b634e487b7160e01b600052601260045260246000fd5b6000826132d4576132d46132af565b500490565b6000828210156132eb576132eb61327a565b500390565b634e487b7160e01b600052603260045260246000fd5b60006020828403121561331857600080fd5b815161193f81612fe9565b60006020828403121561333557600080fd5b5051919050565b6000821982111561334f5761334f61327a565b500190565b60208082526032908201527f4552433732313a207472616e7366657220746f206e6f6e20455243373231526560408201527131b2b4bb32b91034b6b83632b6b2b73a32b960711b606082015260800190565b600083516133b8818460208801612d8c565b8351908301906133cc818360208801612d8c565b01949350505050565b6001600160a01b038581168252841660208201526040810183905260806060820181905260009061340890830184612db8565b9695505050505050565b60006020828403121561342457600080fd5b815161193f81612d59565b6000600182016134415761344161327a565b5060010190565b600082613457576134576132af565b500690565b634e487b7160e01b600052603160045260246000fdfea2646970667358221220a6997de12bd991ccbc6807739cf9a1f9b8e20e3b07d905ab91317bcec43d3be664736f6c634300080e0033a264697066735822122077d1bb6453dd05cedeef0ba3d09891748cb2d67ac2688a81e6069a8f9d3fa05964736f6c634300080e0033",
  "linkReferences": {},
  "deployedLinkReferences": {}
}