{
  "_format": "hh-sol-artifact-1",
  "contractName": "NFTFactory",
  "sourceName": "contracts/NFT/NFTFactory.sol",
  "abi": [
    {
      "inputs": [
        {
          "internalType": "address",
          "name": "_sageStorage",
          "type": "address"
        }
      ],
      "stateMutability": "nonpayable",
      "type": "constructor"
    },
    {
      "anonymous": false,
      "inputs": [
        {
          "indexed": true,
          "internalType": "address",
          "name": "contractAddress",
          "type": "address"
        },
        {
          "indexed": true,
          "internalType": "address",
          "name": "artistAddress",
          "type": "address"
        }
      ],
      "name": "NewNFTContract",
      "type": "event"
    },
    {
      "inputs": [],
      "name": "ADMIN_ROLE",
      "outputs": [
        {
          "internalType": "bytes32",
          "name": "",
          "type": "bytes32"
        }
      ],
      "stateMutability": "view",
      "type": "function"
    },
    {
      "inputs": [],
      "name": "ARTIST_ROLE",
      "outputs": [
        {
          "internalType": "bytes32",
          "name": "",
          "type": "bytes32"
        }
      ],
      "stateMutability": "view",
      "type": "function"
    },
    {
      "inputs": [
        {
          "internalType": "address",
          "name": "artistAddress",
          "type": "address"
        },
        {
          "internalType": "string",
          "name": "name",
          "type": "string"
        },
        {
          "internalType": "string",
          "name": "symbol",
          "type": "string"
        },
        {
          "internalType": "uint256",
          "name": "artistShare",
          "type": "uint256"
        }
      ],
      "name": "deployByAdmin",
      "outputs": [],
      "stateMutability": "nonpayable",
      "type": "function"
    },
    {
      "inputs": [
        {
          "internalType": "string",
          "name": "name",
          "type": "string"
        },
        {
          "internalType": "string",
          "name": "symbol",
          "type": "string"
        }
      ],
      "name": "deployByArtist",
      "outputs": [],
      "stateMutability": "nonpayable",
      "type": "function"
    },
    {
      "inputs": [
        {
          "internalType": "address",
          "name": "artistAddress",
          "type": "address"
        }
      ],
      "name": "getContractAddress",
      "outputs": [
        {
          "internalType": "address",
          "name": "",
          "type": "address"
        }
      ],
      "stateMutability": "view",
      "type": "function"
    },
    {
      "inputs": [
        {
          "internalType": "address",
          "name": "_artist",
          "type": "address"
        },
        {
          "internalType": "address payable",
          "name": "_contract",
          "type": "address"
        }
      ],
      "name": "setArtistContract",
      "outputs": [],
      "stateMutability": "nonpayable",
      "type": "function"
    }
  ],
  "bytecode": "0x60a060405234801561001057600080fd5b5060405161424338038061424383398101604081905261002f91610040565b6001600160a01b0316608052610070565b60006020828403121561005257600080fd5b81516001600160a01b038116811461006957600080fd5b9392505050565b6080516141a36100a06000396000818161019b015281816102ab0152818161039701526104f001526141a36000f3fe60806040523480156200001157600080fd5b5060043610620000695760003560e01c80626825cd146200006e5780631272df3e14620000875780635b0caff6146200009e578063622bc90e14620000b557806375b238fc1462000101578063a966a0df1462000138575b600080fd5b620000856200007f3660046200060c565b62000160565b005b620000856200009836600462000698565b62000270565b62000085620000af3660046200072c565b6200037b565b620000e4620000c63660046200076a565b6001600160a01b039081166000908152602081905260409020541690565b6040516001600160a01b0390911681526020015b60405180910390f35b620001297fe303cb88ace8c9e6ba216f1aecb44b3206dcab364c60512ffc6cbc920a1bf9d181565b604051908152602001620000f8565b620001297fc18c9ce59aaa739e2eb7c0e63fb0e95821f115c643b2d4c9d3d194ec807d510081565b604051632474521560e21b81527fc18c9ce59aaa739e2eb7c0e63fb0e95821f115c643b2d4c9d3d194ec807d510060048201523360248201527f00000000000000000000000000000000000000000000000000000000000000006001600160a01b0316906391d1485490604401602060405180830381865afa158015620001eb573d6000803e3d6000fd5b505050506040513d601f19601f8201168201806040525081019062000211919062000791565b620002575760405162461bcd60e51b81526020600482015260116024820152704172746973742063616c6c73206f6e6c7960781b60448201526064015b60405180910390fd5b62000269338585858561208d6200047c565b5050505050565b604051632474521560e21b81527fe303cb88ace8c9e6ba216f1aecb44b3206dcab364c60512ffc6cbc920a1bf9d160048201523360248201527f00000000000000000000000000000000000000000000000000000000000000006001600160a01b0316906391d1485490604401602060405180830381865afa158015620002fb573d6000803e3d6000fd5b505050506040513d601f19601f8201168201806040525081019062000321919062000791565b620003625760405162461bcd60e51b815260206004820152601060248201526f41646d696e2063616c6c73206f6e6c7960801b60448201526064016200024e565b620003728686868686866200047c565b50505050505050565b604051632474521560e21b8152600060048201523360248201527f00000000000000000000000000000000000000000000000000000000000000006001600160a01b0316906391d1485490604401602060405180830381865afa158015620003e7573d6000803e3d6000fd5b505050506040513d601f19601f820116820180604052508101906200040d919062000791565b6200044e5760405162461bcd60e51b815260206004820152601060248201526f41646d696e2063616c6c73206f6e6c7960801b60448201526064016200024e565b6001600160a01b03918216600090815260208190526040902080546001600160a01b03191691909216179055565b6001600160a01b0386811660009081526020819052604081205490911615620004e85760405162461bcd60e51b815260206004820152601760248201527f436f6e747261637420616c72656164792065786973747300000000000000000060448201526064016200024e565b6000868686867f00000000000000000000000000000000000000000000000000000000000000008c886040516200051f90620005b2565b620005319796959493929190620007de565b604051809103906000f0801580156200054e573d6000803e3d6000fd5b506001600160a01b0389811660008181526020819052604080822080546001600160a01b03191694861694851790555193945090927fb6033d0dde1ac5b6c6e41733e23c9ae072dc72d9abffbffc8cfd4ec044b325119190a3979650505050505050565b61393d806200083183390190565b60008083601f840112620005d357600080fd5b50813567ffffffffffffffff811115620005ec57600080fd5b6020830191508360208285010111156200060557600080fd5b9250929050565b600080600080604085870312156200062357600080fd5b843567ffffffffffffffff808211156200063c57600080fd5b6200064a88838901620005c0565b909650945060208701359150808211156200066457600080fd5b506200067387828801620005c0565b95989497509550505050565b6001600160a01b03811681146200069557600080fd5b50565b60008060008060008060808789031215620006b257600080fd5b8635620006bf816200067f565b9550602087013567ffffffffffffffff80821115620006dd57600080fd5b620006eb8a838b01620005c0565b909750955060408901359150808211156200070557600080fd5b506200071489828a01620005c0565b979a9699509497949695606090950135949350505050565b600080604083850312156200074057600080fd5b82356200074d816200067f565b915060208301356200075f816200067f565b809150509250929050565b6000602082840312156200077d57600080fd5b81356200078a816200067f565b9392505050565b600060208284031215620007a457600080fd5b815180151581146200078a57600080fd5b81835281816020850137506000828201602090810191909152601f909101601f19169091010190565b60a081526000620007f460a08301898b620007b5565b82810360208401526200080981888a620007b5565b6001600160a01b03968716604085015294909516606083015250608001529594505050505056fe60a06040523480156200001157600080fd5b506040516200393d3803806200393d8339810160408190526200003491620002d2565b8451859085906200004d90600090602085019062000142565b5080516200006390600190602084019062000142565b505050620000806200007a620000e360201b60201c565b620000e7565b6001600160a01b03838116608052600c80546001600160a01b031916918416919091179055600d819055601080546104b06001600160601b0319909116179055620000d8600f62000139602090811b62001c9c17901c565b5050505050620003a7565b3390565b600b80546001600160a01b038381166001600160a01b0319831681179093556040519116919082907f8be0079c531659141344cd1fd0a4f28419497f9722a3daafe3b4186f6b6457e090600090a35050565b80546001019055565b82805462000150906200036b565b90600052602060002090601f016020900481019282620001745760008555620001bf565b82601f106200018f57805160ff1916838001178555620001bf565b82800160010185558215620001bf579182015b82811115620001bf578251825591602001919060010190620001a2565b50620001cd929150620001d1565b5090565b5b80821115620001cd5760008155600101620001d2565b634e487b7160e01b600052604160045260246000fd5b600082601f8301126200021057600080fd5b81516001600160401b03808211156200022d576200022d620001e8565b604051601f8301601f19908116603f01168101908282118183101715620002585762000258620001e8565b816040528381526020925086838588010111156200027557600080fd5b600091505b838210156200029957858201830151818301840152908201906200027a565b83821115620002ab5760008385830101525b9695505050505050565b80516001600160a01b0381168114620002cd57600080fd5b919050565b600080600080600060a08688031215620002eb57600080fd5b85516001600160401b03808211156200030357600080fd5b6200031189838a01620001fe565b965060208801519150808211156200032857600080fd5b506200033788828901620001fe565b9450506200034860408701620002b5565b92506200035860608701620002b5565b9150608086015190509295509295909350565b600181811c908216806200038057607f821691505b602082108103620003a157634e487b7160e01b600052602260045260246000fd5b50919050565b60805161351f6200041e60003960008181610a3901528181610eef01528181610f74015281816111ce015281816112ce015281816113ff015281816114c9015281816115cc01528181611651015281816117ba015281816118d801528181611ba5015281816120cf01526121af015261351f6000f3fe6080604052600436106102605760003560e01c806370a0823111610144578063c87b56dd116100b6578063d6948b751161007a578063d6948b751461077a578063e8a3d4851461079a578063e985e9c5146107af578063f2fde38b146107cf578063f4f3b200146107ef578063fce550371461080f57600080fd5b8063c87b56dd146106d0578063cf933f86146106f0578063d204c45e14610706578063d4c9753314610726578063d53913931461074657600080fd5b80638da5cb5b116101085780638da5cb5b1461062857806395d89b4114610646578063a217fddf1461065b578063a22cb46514610670578063a82670d314610690578063b88d4fde146106b057600080fd5b806370a0823114610588578063715018a6146105a857806375794a3c146105bd57806375b238fc146105d45780637eeab0951461060857600080fd5b80632a0befc2116101dd57806342842e0e116101a157806342842e0e146104c857806342966c68146104e857806343bc1612146105085780634f6ccce7146105285780636352211e1461054857806367a4f4a91461056857600080fd5b80632a0befc21461041e5780632a55205a1461043e5780632f745c591461047d5780633ccfd60b1461049d5780633dca40e6146104b257600080fd5b806318160ddd1161022457806318160ddd1461033d57806318d33e411461035c5780631bdd03111461039457806323b872dd146103ca578063282c51f3146103ea57600080fd5b806301ffc9a71461026c57806306fdde03146102a1578063081812fc146102c3578063095ea7b3146102fb578063162094c41461031d57600080fd5b3661026757005b600080fd5b34801561027857600080fd5b5061028c610287366004612de6565b61082f565b60405190151581526020015b60405180910390f35b3480156102ad57600080fd5b506102b661085a565b6040516102989190612e5b565b3480156102cf57600080fd5b506102e36102de366004612e6e565b6108ec565b6040516001600160a01b039091168152602001610298565b34801561030757600080fd5b5061031b610316366004612e9c565b610913565b005b34801561032957600080fd5b5061031b610338366004612f0a565b610a2d565b34801561034957600080fd5b506008545b604051908152602001610298565b34801561036857600080fd5b5060105461037c906001600160601b031681565b6040516001600160601b039091168152602001610298565b3480156103a057600080fd5b5061037c6103af366004612e6e565b6011602052600090815260409020546001600160601b031681565b3480156103d657600080fd5b5061031b6103e5366004612f56565b610b1f565b3480156103f657600080fd5b5061034e7f3b25106add3a89098ef82030314e486ca1f967bd742e45817c5014c5ef3e806481565b34801561042a57600080fd5b5061031b610439366004612f97565b610b51565b34801561044a57600080fd5b5061045e610459366004612fd9565b610bae565b604080516001600160a01b039093168352602083019190915201610298565b34801561048957600080fd5b5061034e610498366004612e9c565b610bee565b3480156104a957600080fd5b5061031b610c84565b3480156104be57600080fd5b5061037c6107d081565b3480156104d457600080fd5b5061031b6104e3366004612f56565b610d75565b3480156104f457600080fd5b5061031b610503366004612e6e565b610d90565b34801561051457600080fd5b50600c546102e3906001600160a01b031681565b34801561053457600080fd5b5061034e610543366004612e6e565b610dc1565b34801561055457600080fd5b506102e3610563366004612e6e565b610e54565b34801561057457600080fd5b5061031b610583366004613017565b610eb4565b34801561059457600080fd5b5061034e6105a3366004613043565b611128565b3480156105b457600080fd5b5061031b6111ae565b3480156105c957600080fd5b50600f5461034e9081565b3480156105e057600080fd5b5061034e7fe303cb88ace8c9e6ba216f1aecb44b3206dcab364c60512ffc6cbc920a1bf9d181565b34801561061457600080fd5b5061031b610623366004612e6e565b6111c2565b34801561063457600080fd5b50600b546001600160a01b03166102e3565b34801561065257600080fd5b506102b6611279565b34801561066757600080fd5b5061034e600081565b34801561067c57600080fd5b5061031b61068b36600461306e565b611288565b34801561069c57600080fd5b5061031b6106ab366004612e6e565b611293565b3480156106bc57600080fd5b5061031b6106cb3660046130bd565b611381565b3480156106dc57600080fd5b506102b66106eb366004612e6e565b6113b9565b3480156106fc57600080fd5b5061034e600d5481565b34801561071257600080fd5b5061031b61072136600461319d565b6113c4565b34801561073257600080fd5b5061031b610741366004613043565b6114bd565b34801561075257600080fd5b5061034e7f43c12360602d49748153591f2df5a853821ec8410115f225b90a7a49bd5d2bb981565b34801561078657600080fd5b5061031b6107953660046131d9565b611591565b3480156107a657600080fd5b506102b661179d565b3480156107bb57600080fd5b5061028c6107ca3660046131f4565b6117ac565b3480156107db57600080fd5b5061031b6107ea366004613043565b6118cc565b3480156107fb57600080fd5b5061031b61080a366004613043565b6119ec565b34801561081b57600080fd5b5061031b61082a366004612f97565b611b89565b60006001600160e01b0319821663152a902d60e11b1480610854575061085482611ca5565b92915050565b60606000805461086990613222565b80601f016020809104026020016040519081016040528092919081815260200182805461089590613222565b80156108e25780601f106108b7576101008083540402835291602001916108e2565b820191906000526020600020905b8154815290600101906020018083116108c557829003601f168201915b5050505050905090565b60006108f782611cca565b506000908152600460205260409020546001600160a01b031690565b600061091e82610e54565b9050806001600160a01b0316836001600160a01b0316036109905760405162461bcd60e51b815260206004820152602160248201527f4552433732313a20617070726f76616c20746f2063757272656e74206f776e656044820152603960f91b60648201526084015b60405180910390fd5b336001600160a01b03821614806109ac57506109ac81336117ac565b610a1e5760405162461bcd60e51b815260206004820152603e60248201527f4552433732313a20617070726f76652063616c6c6572206973206e6f7420746f60448201527f6b656e206f776e6572206e6f7220617070726f76656420666f7220616c6c00006064820152608401610987565b610a288383611d29565b505050565b336001600160a01b03167f00000000000000000000000000000000000000000000000000000000000000006001600160a01b0316634783c35b6040518163ffffffff1660e01b8152600401602060405180830381865afa158015610a95573d6000803e3d6000fd5b505050506040513d601f19601f82011682018060405250810190610ab9919061325c565b6001600160a01b031614610adf5760405162461bcd60e51b815260040161098790613279565b610a288383838080601f016020809104026020016040519081016040528093929190818152602001838380828437600092019190915250611d9792505050565b610b2a335b82611e31565b610b465760405162461bcd60e51b8152600401610987906132a3565b610a28838383611e90565b600c546001600160a01b03163314610b9f5760405162461bcd60e51b81526020600482015260116024820152704f6e6c79206172746973742063616c6c7360781b6044820152606401610987565b610baa338383612037565b5050565b6000828152601160205260408120548190309061271090610bd8906001600160601b031686613307565b610be2919061333c565b915091505b9250929050565b6000610bf983611128565b8210610c5b5760405162461bcd60e51b815260206004820152602b60248201527f455243373231456e756d657261626c653a206f776e657220696e646578206f7560448201526a74206f6620626f756e647360a81b6064820152608401610987565b506001600160a01b03919091166000908152600660209081526040808320938352929052205490565b600d54479060009061271090610c9a9084613307565b610ca4919061333c565b600c546040519192506000916001600160a01b039091169083908381818185875af1925050503d8060008114610cf6576040519150601f19603f3d011682016040523d82523d6000602084013e610cfb565b606091505b5050905080610d0957600080fd5b610d116120ca565b6001600160a01b0316610d248385613350565b604051600081818185875af1925050503d8060008114610d60576040519150601f19603f3d011682016040523d82523d6000602084013e610d65565b606091505b50508091505080610a2857600080fd5b610a2883838360405180602001604052806000815250611381565b610d9933610b24565b610db55760405162461bcd60e51b8152600401610987906132a3565b610dbe81612235565b50565b6000610dcc60085490565b8210610e2f5760405162461bcd60e51b815260206004820152602c60248201527f455243373231456e756d657261626c653a20676c6f62616c20696e646578206f60448201526b7574206f6620626f756e647360a01b6064820152608401610987565b60088281548110610e4257610e42613367565b90600052602060002001549050919050565b6000818152600260205260408120546001600160a01b0316806108545760405162461bcd60e51b8152602060048201526018602482015277115490cdcc8c4e881a5b9d985b1a59081d1bdad95b88125160421b6044820152606401610987565b604051632474521560e21b81527fe303cb88ace8c9e6ba216f1aecb44b3206dcab364c60512ffc6cbc920a1bf9d160048201523360248201527f00000000000000000000000000000000000000000000000000000000000000006001600160a01b0316906391d1485490604401602060405180830381865afa158015610f3e573d6000803e3d6000fd5b505050506040513d601f19601f82011682018060405250810190610f62919061337d565b80610fff5750336001600160a01b03167f00000000000000000000000000000000000000000000000000000000000000006001600160a01b0316634783c35b6040518163ffffffff1660e01b8152600401602060405180830381865afa158015610fd0573d6000803e3d6000fd5b505050506040513d601f19601f82011682018060405250810190610ff4919061325c565b6001600160a01b0316145b61101b5760405162461bcd60e51b815260040161098790613279565b6000828152600260205260409020546001600160a01b03166110735760405162461bcd60e51b81526020600482015260116024820152702737b732bc34b9ba32b73a103a37b5b2b760791b6044820152606401610987565b6107d06001600160601b03821611156110c45760405162461bcd60e51b81526020600482015260136024820152720526f79616c747920657863656564732063617606c1b6044820152606401610987565b60008281526011602090815260409182902080546001600160601b0319166001600160601b038516908117909155915191825283917f6cb0641251594fc9401685041580b10a71fb138bca581fb7bace1c50e57dc354910160405180910390a25050565b60006001600160a01b0382166111925760405162461bcd60e51b815260206004820152602960248201527f4552433732313a2061646472657373207a65726f206973206e6f7420612076616044820152683634b21037bbb732b960b91b6064820152608401610987565b506001600160a01b031660009081526003602052604090205490565b6111b661223e565b6111c06000612298565b565b336001600160a01b03167f00000000000000000000000000000000000000000000000000000000000000006001600160a01b0316634783c35b6040518163ffffffff1660e01b8152600401602060405180830381865afa15801561122a573d6000803e3d6000fd5b505050506040513d601f19601f8201168201806040525081019061124e919061325c565b6001600160a01b0316146112745760405162461bcd60e51b815260040161098790613279565b600d55565b60606001805461086990613222565b610baa3383836122ea565b604051632474521560e21b81527f3b25106add3a89098ef82030314e486ca1f967bd742e45817c5014c5ef3e806460048201523360248201527f00000000000000000000000000000000000000000000000000000000000000006001600160a01b0316906391d1485490604401602060405180830381865afa15801561131d573d6000803e3d6000fd5b505050506040513d601f19601f82011682018060405250810190611341919061337d565b610db55760405162461bcd60e51b81526020600482015260116024820152704e6f206275726e696e672072696768747360781b6044820152606401610987565b61138b3383611e31565b6113a75760405162461bcd60e51b8152600401610987906132a3565b6113b3848484846123b8565b50505050565b6060610854826123eb565b604051632474521560e21b81527f43c12360602d49748153591f2df5a853821ec8410115f225b90a7a49bd5d2bb960048201523360248201527f00000000000000000000000000000000000000000000000000000000000000006001600160a01b0316906391d1485490604401602060405180830381865afa15801561144e573d6000803e3d6000fd5b505050506040513d601f19601f82011682018060405250810190611472919061337d565b6114b25760405162461bcd60e51b81526020600482015260116024820152704e6f206d696e74696e672072696768747360781b6044820152606401610987565b610a28838383612037565b336001600160a01b03167f00000000000000000000000000000000000000000000000000000000000000006001600160a01b0316634783c35b6040518163ffffffff1660e01b8152600401602060405180830381865afa158015611525573d6000803e3d6000fd5b505050506040513d601f19601f82011682018060405250810190611549919061325c565b6001600160a01b03161461156f5760405162461bcd60e51b815260040161098790613279565b600c80546001600160a01b0319166001600160a01b0392909216919091179055565b604051632474521560e21b81527fe303cb88ace8c9e6ba216f1aecb44b3206dcab364c60512ffc6cbc920a1bf9d160048201523360248201527f00000000000000000000000000000000000000000000000000000000000000006001600160a01b0316906391d1485490604401602060405180830381865afa15801561161b573d6000803e3d6000fd5b505050506040513d601f19601f8201168201806040525081019061163f919061337d565b806116dc5750336001600160a01b03167f00000000000000000000000000000000000000000000000000000000000000006001600160a01b0316634783c35b6040518163ffffffff1660e01b8152600401602060405180830381865afa1580156116ad573d6000803e3d6000fd5b505050506040513d601f19601f820116820180604052508101906116d1919061325c565b6001600160a01b0316145b6116f85760405162461bcd60e51b815260040161098790613279565b6107d06001600160601b03821611156117495760405162461bcd60e51b81526020600482015260136024820152720526f79616c747920657863656564732063617606c1b6044820152606401610987565b601080546001600160601b0319166001600160601b0383169081179091556040519081527fc69c3f6a5f2063adf3c2cba2d755e50c2ce8145a4b85728f120863cc80bdc4149060200160405180910390a150565b6060600e805461086990613222565b6000816001600160a01b03167f00000000000000000000000000000000000000000000000000000000000000006001600160a01b03166321f8a7216040516020016118109072616464726573732e6d61726b6574706c61636560681b815260130190565b604051602081830303815290604052805190602001206040518263ffffffff1660e01b815260040161184491815260200190565b602060405180830381865afa158015611861573d6000803e3d6000fd5b505050506040513d601f19601f82011682018060405250810190611885919061325c565b6001600160a01b03160361189b57506001610854565b6001600160a01b0380841660009081526005602090815260408083209386168352929052205460ff165b9392505050565b336001600160a01b03167f00000000000000000000000000000000000000000000000000000000000000006001600160a01b0316634783c35b6040518163ffffffff1660e01b8152600401602060405180830381865afa158015611934573d6000803e3d6000fd5b505050506040513d601f19601f82011682018060405250810190611958919061325c565b6001600160a01b03161461197e5760405162461bcd60e51b815260040161098790613279565b6001600160a01b0381166119e35760405162461bcd60e51b815260206004820152602660248201527f4f776e61626c653a206e6577206f776e657220697320746865207a65726f206160448201526564647265737360d01b6064820152608401610987565b610dbe81612298565b6040516370a0823160e01b815230600482015281906000906001600160a01b038316906370a0823190602401602060405180830381865afa158015611a35573d6000803e3d6000fd5b505050506040513d601f19601f82011682018060405250810190611a59919061339a565b90506000612710600d5483611a6e9190613307565b611a78919061333c565b600c5460405163a9059cbb60e01b81526001600160a01b0391821660048201526024810183905291925084169063a9059cbb906044016020604051808303816000875af1158015611acd573d6000803e3d6000fd5b505050506040513d601f19601f82011682018060405250810190611af1919061337d565b50826001600160a01b031663a9059cbb611b096120ca565b611b138486613350565b6040516001600160e01b031960e085901b1681526001600160a01b03909216600483015260248201526044016020604051808303816000875af1158015611b5e573d6000803e3d6000fd5b505050506040513d601f19601f82011682018060405250810190611b82919061337d565b5050505050565b604051632474521560e21b8152600060048201523360248201527f00000000000000000000000000000000000000000000000000000000000000006001600160a01b0316906391d1485490604401602060405180830381865afa158015611bf4573d6000803e3d6000fd5b505050506040513d601f19601f82011682018060405250810190611c18919061337d565b80611c445750600c546001600160a01b031633148015611c445750600e8054611c4090613222565b1590505b611c905760405162461bcd60e51b815260206004820152601b60248201527f4f6e6c792063726561746f72206f722061646d696e2063616c6c7300000000006044820152606401610987565b610a28600e8383612c8d565b80546001019055565b60006001600160e01b0319821663780e9d6360e01b14806108545750610854826124f3565b6000818152600260205260409020546001600160a01b0316610dbe5760405162461bcd60e51b8152602060048201526018602482015277115490cdcc8c4e881a5b9d985b1a59081d1bdad95b88125160421b6044820152606401610987565b600081815260046020526040902080546001600160a01b0319166001600160a01b0384169081179091558190611d5e82610e54565b6001600160a01b03167f8c5be1e5ebec7d5bd14f71427d1e84f3dd0314c0f7b2291e5b200ac8c7c3b92560405160405180910390a45050565b6000828152600260205260409020546001600160a01b0316611e125760405162461bcd60e51b815260206004820152602e60248201527f45524337323155524953746f726167653a2055524920736574206f66206e6f6e60448201526d32bc34b9ba32b73a103a37b5b2b760911b6064820152608401610987565b6000828152600a602090815260409091208251610a2892840190612d11565b600080611e3d83610e54565b9050806001600160a01b0316846001600160a01b03161480611e645750611e6481856117ac565b80611e885750836001600160a01b0316611e7d846108ec565b6001600160a01b0316145b949350505050565b826001600160a01b0316611ea382610e54565b6001600160a01b031614611f075760405162461bcd60e51b815260206004820152602560248201527f4552433732313a207472616e736665722066726f6d20696e636f72726563742060448201526437bbb732b960d91b6064820152608401610987565b6001600160a01b038216611f695760405162461bcd60e51b8152602060048201526024808201527f4552433732313a207472616e7366657220746f20746865207a65726f206164646044820152637265737360e01b6064820152608401610987565b611f74838383612543565b611f7f600082611d29565b6001600160a01b0383166000908152600360205260408120805460019290611fa8908490613350565b90915550506001600160a01b0382166000908152600360205260408120805460019290611fd69084906133b3565b909155505060008181526002602052604080822080546001600160a01b0319166001600160a01b0386811691821790925591518493918716917fddf252ad1be2c89b69c2b068fc378daa952ba7f163c4a11628f55a4df523b3ef91a4505050565b6000612042600f5490565b9050612052600f80546001019055565b601054600082815260116020526040902080546001600160601b0319166001600160601b0390921691909117905561208a848261254e565b6113b38184848080601f016020809104026020016040519081016040528093929190818152602001838380828437600092019190915250611d9792505050565b6000807f00000000000000000000000000000000000000000000000000000000000000006001600160a01b03166321f8a721604051602001612121906e616464726573732e726f79616c747960881b8152600f0190565b604051602081830303815290604052805190602001206040518263ffffffff1660e01b815260040161215591815260200190565b602060405180830381865afa158015612172573d6000803e3d6000fd5b505050506040513d601f19601f82011682018060405250810190612196919061325c565b90506001600160a01b038116156121ad578061222f565b7f00000000000000000000000000000000000000000000000000000000000000006001600160a01b0316634783c35b6040518163ffffffff1660e01b8152600401602060405180830381865afa15801561220b573d6000803e3d6000fd5b505050506040513d601f19601f8201168201806040525081019061222f919061325c565b91505090565b610dbe81612568565b600b546001600160a01b031633146111c05760405162461bcd60e51b815260206004820181905260248201527f4f776e61626c653a2063616c6c6572206973206e6f7420746865206f776e65726044820152606401610987565b600b80546001600160a01b038381166001600160a01b0319831681179093556040519116919082907f8be0079c531659141344cd1fd0a4f28419497f9722a3daafe3b4186f6b6457e090600090a35050565b816001600160a01b0316836001600160a01b03160361234b5760405162461bcd60e51b815260206004820152601960248201527f4552433732313a20617070726f766520746f2063616c6c6572000000000000006044820152606401610987565b6001600160a01b03838116600081815260056020908152604080832094871680845294825291829020805460ff191686151590811790915591519182527f17307eab39ab6107e8899845ad3d59bd9653f200f220920489ca2b5937696c31910160405180910390a3505050565b6123c3848484611e90565b6123cf848484846125a8565b6113b35760405162461bcd60e51b8152600401610987906133cb565b60606123f682611cca565b6000828152600a60205260408120805461240f90613222565b80601f016020809104026020016040519081016040528092919081815260200182805461243b90613222565b80156124885780601f1061245d57610100808354040283529160200191612488565b820191906000526020600020905b81548152906001019060200180831161246b57829003601f168201915b5050505050905060006124a660408051602081019091526000815290565b905080516000036124b8575092915050565b8151156124ea5780826040516020016124d292919061341d565b60405160208183030381529060405292505050919050565b611e88846126a9565b60006001600160e01b031982166380ac58cd60e01b148061252457506001600160e01b03198216635b5e139f60e01b145b8061085457506301ffc9a760e01b6001600160e01b0319831614610854565b610a2883838361271c565b610baa8282604051806020016040528060008152506127d4565b61257181612807565b6000818152600a60205260409020805461258a90613222565b159050610dbe576000818152600a60205260408120610dbe91612d85565b60006001600160a01b0384163b1561269e57604051630a85bd0160e11b81526001600160a01b0385169063150b7a02906125ec90339089908890889060040161344c565b6020604051808303816000875af1925050508015612627575060408051601f3d908101601f1916820190925261262491810190613489565b60015b612684573d808015612655576040519150601f19603f3d011682016040523d82523d6000602084013e61265a565b606091505b50805160000361267c5760405162461bcd60e51b8152600401610987906133cb565b805181602001fd5b6001600160e01b031916630a85bd0160e11b149050611e88565b506001949350505050565b60606126b482611cca565b60006126cb60408051602081019091526000815290565b905060008151116126eb57604051806020016040528060008152506118c5565b806126f5846128ae565b60405160200161270692919061341d565b6040516020818303038152906040529392505050565b6001600160a01b0383166127775761277281600880546000838152600960205260408120829055600182018355919091527ff3f7a9fe364faab93b216da50a3214154f22a0a2b415b23a84c8169e8b636ee30155565b61279a565b816001600160a01b0316836001600160a01b03161461279a5761279a83826129af565b6001600160a01b0382166127b157610a2881612a4c565b826001600160a01b0316826001600160a01b031614610a2857610a288282612afb565b6127de8383612b3f565b6127eb60008484846125a8565b610a285760405162461bcd60e51b8152600401610987906133cb565b600061281282610e54565b905061282081600084612543565b61282b600083611d29565b6001600160a01b0381166000908152600360205260408120805460019290612854908490613350565b909155505060008281526002602052604080822080546001600160a01b0319169055518391906001600160a01b038416907fddf252ad1be2c89b69c2b068fc378daa952ba7f163c4a11628f55a4df523b3ef908390a45050565b6060816000036128d55750506040805180820190915260018152600360fc1b602082015290565b8160005b81156128ff57806128e9816134a6565b91506128f89050600a8361333c565b91506128d9565b60008167ffffffffffffffff81111561291a5761291a6130a7565b6040519080825280601f01601f191660200182016040528015612944576020820181803683370190505b5090505b8415611e8857612959600183613350565b9150612966600a866134bf565b6129719060306133b3565b60f81b81838151811061298657612986613367565b60200101906001600160f81b031916908160001a9053506129a8600a8661333c565b9450612948565b600060016129bc84611128565b6129c69190613350565b600083815260076020526040902054909150808214612a19576001600160a01b03841660009081526006602090815260408083208584528252808320548484528184208190558352600790915290208190555b5060009182526007602090815260408084208490556001600160a01b039094168352600681528383209183525290812055565b600854600090612a5e90600190613350565b60008381526009602052604081205460088054939450909284908110612a8657612a86613367565b906000526020600020015490508060088381548110612aa757612aa7613367565b6000918252602080832090910192909255828152600990915260408082208490558582528120556008805480612adf57612adf6134d3565b6001900381819060005260206000200160009055905550505050565b6000612b0683611128565b6001600160a01b039093166000908152600660209081526040808320868452825280832085905593825260079052919091209190915550565b6001600160a01b038216612b955760405162461bcd60e51b815260206004820181905260248201527f4552433732313a206d696e7420746f20746865207a65726f20616464726573736044820152606401610987565b6000818152600260205260409020546001600160a01b031615612bfa5760405162461bcd60e51b815260206004820152601c60248201527f4552433732313a20746f6b656e20616c7265616479206d696e746564000000006044820152606401610987565b612c0660008383612543565b6001600160a01b0382166000908152600360205260408120805460019290612c2f9084906133b3565b909155505060008181526002602052604080822080546001600160a01b0319166001600160a01b03861690811790915590518392907fddf252ad1be2c89b69c2b068fc378daa952ba7f163c4a11628f55a4df523b3ef908290a45050565b828054612c9990613222565b90600052602060002090601f016020900481019282612cbb5760008555612d01565b82601f10612cd45782800160ff19823516178555612d01565b82800160010185558215612d01579182015b82811115612d01578235825591602001919060010190612ce6565b50612d0d929150612dbb565b5090565b828054612d1d90613222565b90600052602060002090601f016020900481019282612d3f5760008555612d01565b82601f10612d5857805160ff1916838001178555612d01565b82800160010185558215612d01579182015b82811115612d01578251825591602001919060010190612d6a565b508054612d9190613222565b6000825580601f10612da1575050565b601f016020900490600052602060002090810190610dbe91905b5b80821115612d0d5760008155600101612dbc565b6001600160e01b031981168114610dbe57600080fd5b600060208284031215612df857600080fd5b81356118c581612dd0565b60005b83811015612e1e578181015183820152602001612e06565b838111156113b35750506000910152565b60008151808452612e47816020860160208601612e03565b601f01601f19169290920160200192915050565b6020815260006118c56020830184612e2f565b600060208284031215612e8057600080fd5b5035919050565b6001600160a01b0381168114610dbe57600080fd5b60008060408385031215612eaf57600080fd5b8235612eba81612e87565b946020939093013593505050565b60008083601f840112612eda57600080fd5b50813567ffffffffffffffff811115612ef257600080fd5b602083019150836020828501011115610be757600080fd5b600080600060408486031215612f1f57600080fd5b83359250602084013567ffffffffffffffff811115612f3d57600080fd5b612f4986828701612ec8565b9497909650939450505050565b600080600060608486031215612f6b57600080fd5b8335612f7681612e87565b92506020840135612f8681612e87565b929592945050506040919091013590565b60008060208385031215612faa57600080fd5b823567ffffffffffffffff811115612fc157600080fd5b612fcd85828601612ec8565b90969095509350505050565b60008060408385031215612fec57600080fd5b50508035926020909101359150565b80356001600160601b038116811461301257600080fd5b919050565b6000806040838503121561302a57600080fd5b8235915061303a60208401612ffb565b90509250929050565b60006020828403121561305557600080fd5b81356118c581612e87565b8015158114610dbe57600080fd5b6000806040838503121561308157600080fd5b823561308c81612e87565b9150602083013561309c81613060565b809150509250929050565b634e487b7160e01b600052604160045260246000fd5b600080600080608085870312156130d357600080fd5b84356130de81612e87565b935060208501356130ee81612e87565b925060408501359150606085013567ffffffffffffffff8082111561311257600080fd5b818701915087601f83011261312657600080fd5b813581811115613138576131386130a7565b604051601f8201601f19908116603f01168101908382118183101715613160576131606130a7565b816040528281528a602084870101111561317957600080fd5b82602086016020830137600060208483010152809550505050505092959194509250565b6000806000604084860312156131b257600080fd5b83356131bd81612e87565b9250602084013567ffffffffffffffff811115612f3d57600080fd5b6000602082840312156131eb57600080fd5b6118c582612ffb565b6000806040838503121561320757600080fd5b823561321281612e87565b9150602083013561309c81612e87565b600181811c9082168061323657607f821691505b60208210810361325657634e487b7160e01b600052602260045260246000fd5b50919050565b60006020828403121561326e57600080fd5b81516118c581612e87565b60208082526010908201526f41646d696e2063616c6c73206f6e6c7960801b604082015260600190565b6020808252602e908201527f4552433732313a2063616c6c6572206973206e6f7420746f6b656e206f776e6560408201526d1c881b9bdc88185c1c1c9bdd995960921b606082015260800190565b634e487b7160e01b600052601160045260246000fd5b6000816000190483118215151615613321576133216132f1565b500290565b634e487b7160e01b600052601260045260246000fd5b60008261334b5761334b613326565b500490565b600082821015613362576133626132f1565b500390565b634e487b7160e01b600052603260045260246000fd5b60006020828403121561338f57600080fd5b81516118c581613060565b6000602082840312156133ac57600080fd5b5051919050565b600082198211156133c6576133c66132f1565b500190565b60208082526032908201527f4552433732313a207472616e7366657220746f206e6f6e20455243373231526560408201527131b2b4bb32b91034b6b83632b6b2b73a32b960711b606082015260800190565b6000835161342f818460208801612e03565b835190830190613443818360208801612e03565b01949350505050565b6001600160a01b038581168252841660208201526040810183905260806060820181905260009061347f90830184612e2f565b9695505050505050565b60006020828403121561349b57600080fd5b81516118c581612dd0565b6000600182016134b8576134b86132f1565b5060010190565b6000826134ce576134ce613326565b500690565b634e487b7160e01b600052603160045260246000fdfea26469706673582212201a97b242a47ed42a4be64eab0c9a8047c7a810309d19ee0a966a779418871f4164736f6c634300080e0033a2646970667358221220357c47993fc5f1c50f736265c07bae50b93ceb52753c69f916b51100da944e2464736f6c634300080e0033",
  "linkReferences": {},
  "deployedLinkReferences": {}
}