{
  "_format": "hh-sol-artifact-1",
  "contractName": "Lottery",
  "sourceName": "contracts/Lottery/Lottery.sol",
  "abi": [
    {
      "inputs": [],
      "stateMutability": "nonpayable",
      "type": "constructor"
    },
    {
      "anonymous": false,
      "inputs": [
        {
          "indexed": false,
          "internalType": "address",
          "name": "previousAdmin",
          "type": "address"
        },
        {
          "indexed": false,
          "internalType": "address",
          "name": "newAdmin",
          "type": "address"
        }
      ],
      "name": "AdminChanged",
      "type": "event"
    },
    {
      "anonymous": false,
      "inputs": [
        {
          "indexed": true,
          "internalType": "address",
          "name": "beacon",
          "type": "address"
        }
      ],
      "name": "BeaconUpgraded",
      "type": "event"
    },
    {
      "anonymous": false,
      "inputs": [
        {
          "indexed": false,
          "internalType": "uint8",
          "name": "version",
          "type": "uint8"
        }
      ],
      "name": "Initialized",
      "type": "event"
    },
    {
      "anonymous": false,
      "inputs": [
        {
          "indexed": true,
          "internalType": "uint256",
          "name": "lotteryId",
          "type": "uint256"
        },
        {
          "indexed": true,
          "internalType": "enum Lottery.Status",
          "name": "status",
          "type": "uint8"
        }
      ],
      "name": "LotteryStatusChanged",
      "type": "event"
    },
    {
      "anonymous": false,
      "inputs": [
        {
          "indexed": false,
          "internalType": "address",
          "name": "account",
          "type": "address"
        }
      ],
      "name": "Paused",
      "type": "event"
    },
    {
      "anonymous": false,
      "inputs": [
        {
          "indexed": true,
          "internalType": "uint256",
          "name": "lotteryId",
          "type": "uint256"
        },
        {
          "indexed": true,
          "internalType": "address",
          "name": "participantAddress",
          "type": "address"
        },
        {
          "indexed": true,
          "internalType": "uint256",
          "name": "prizeId",
          "type": "uint256"
        }
      ],
      "name": "PrizeClaimed",
      "type": "event"
    },
    {
      "anonymous": false,
      "inputs": [
        {
          "indexed": true,
          "internalType": "uint256",
          "name": "lotteryId",
          "type": "uint256"
        },
        {
          "indexed": true,
          "internalType": "address",
          "name": "participantAddress",
          "type": "address"
        },
        {
          "indexed": false,
          "internalType": "uint256",
          "name": "amount",
          "type": "uint256"
        }
      ],
      "name": "Refunded",
      "type": "event"
    },
    {
      "anonymous": false,
      "inputs": [
        {
          "indexed": false,
          "internalType": "address",
          "name": "operator",
          "type": "address"
        },
        {
          "indexed": false,
          "internalType": "uint256",
          "name": "lotteryId",
          "type": "uint256"
        },
        {
          "indexed": false,
          "internalType": "uint256",
          "name": "priceOfTicket",
          "type": "uint256"
        }
      ],
      "name": "TicketCostChanged",
      "type": "event"
    },
    {
      "anonymous": false,
      "inputs": [
        {
          "indexed": true,
          "internalType": "uint256",
          "name": "lotteryId",
          "type": "uint256"
        },
        {
          "indexed": false,
          "internalType": "uint256",
          "name": "ticketNumber",
          "type": "uint256"
        },
        {
          "indexed": true,
          "internalType": "address",
          "name": "participantAddress",
          "type": "address"
        }
      ],
      "name": "TicketSold",
      "type": "event"
    },
    {
      "anonymous": false,
      "inputs": [
        {
          "indexed": false,
          "internalType": "address",
          "name": "account",
          "type": "address"
        }
      ],
      "name": "Unpaused",
      "type": "event"
    },
    {
      "anonymous": false,
      "inputs": [
        {
          "indexed": true,
          "internalType": "address",
          "name": "implementation",
          "type": "address"
        }
      ],
      "name": "Upgraded",
      "type": "event"
    },
    {
      "inputs": [],
      "name": "NATIVE_CURRENCY",
      "outputs": [
        {
          "internalType": "address",
          "name": "",
          "type": "address"
        }
      ],
      "stateMutability": "view",
      "type": "function"
    },
    {
      "inputs": [
        {
          "internalType": "uint256",
          "name": "_lotteryId",
          "type": "uint256"
        },
        {
          "internalType": "uint256",
          "name": "_numberOfTicketsToBuy",
          "type": "uint256"
        }
      ],
      "name": "buyTickets",
      "outputs": [],
      "stateMutability": "payable",
      "type": "function"
    },
    {
      "inputs": [
        {
          "internalType": "uint256",
          "name": "_points",
          "type": "uint256"
        },
        {
          "internalType": "uint256",
          "name": "_lotteryId",
          "type": "uint256"
        },
        {
          "internalType": "uint256",
          "name": "_numberOfTicketsToBuy",
          "type": "uint256"
        },
        {
          "internalType": "bytes",
          "name": "_sig",
          "type": "bytes"
        }
      ],
      "name": "buyTicketsWithSignedMessage",
      "outputs": [],
      "stateMutability": "payable",
      "type": "function"
    },
    {
      "inputs": [
        {
          "internalType": "uint256",
          "name": "_lotteryId",
          "type": "uint256"
        },
        {
          "internalType": "uint256",
          "name": "_numberOfTicketsToBuy",
          "type": "uint256"
        },
        {
          "internalType": "uint256",
          "name": "_deadline",
          "type": "uint256"
        },
        {
          "internalType": "bytes",
          "name": "_sig",
          "type": "bytes"
        }
      ],
      "name": "buyTicketsWithVoucher",
      "outputs": [],
      "stateMutability": "payable",
      "type": "function"
    },
    {
      "inputs": [
        {
          "internalType": "uint256",
          "name": "_lotteryId",
          "type": "uint256"
        }
      ],
      "name": "cancelLottery",
      "outputs": [],
      "stateMutability": "nonpayable",
      "type": "function"
    },
    {
      "inputs": [
        {
          "internalType": "uint256",
          "name": "_lotteryId",
          "type": "uint256"
        },
        {
          "internalType": "uint32",
          "name": "_time",
          "type": "uint32"
        }
      ],
      "name": "changeCloseTime",
      "outputs": [],
      "stateMutability": "nonpayable",
      "type": "function"
    },
    {
      "inputs": [
        {
          "components": [
            {
              "internalType": "uint256",
              "name": "lotteryId",
              "type": "uint256"
            },
            {
              "internalType": "address",
              "name": "winner",
              "type": "address"
            },
            {
              "internalType": "uint256",
              "name": "ticketNumber",
              "type": "uint256"
            },
            {
              "internalType": "string",
              "name": "uri",
              "type": "string"
            },
            {
              "internalType": "bytes32[]",
              "name": "proof",
              "type": "bytes32[]"
            }
          ],
          "internalType": "struct Lottery.ProofData",
          "name": "_proofData",
          "type": "tuple"
        }
      ],
      "name": "claimPrize",
      "outputs": [],
      "stateMutability": "nonpayable",
      "type": "function"
    },
    {
      "inputs": [
        {
          "components": [
            {
              "internalType": "uint256",
              "name": "lotteryId",
              "type": "uint256"
            },
            {
              "internalType": "address",
              "name": "winner",
              "type": "address"
            },
            {
              "internalType": "uint256",
              "name": "ticketNumber",
              "type": "uint256"
            },
            {
              "internalType": "string",
              "name": "uri",
              "type": "string"
            },
            {
              "internalType": "bytes32[]",
              "name": "proof",
              "type": "bytes32[]"
            }
          ],
          "internalType": "struct Lottery.ProofData[]",
          "name": "_proofData",
          "type": "tuple[]"
        }
      ],
      "name": "claimPrizeBatch",
      "outputs": [],
      "stateMutability": "nonpayable",
      "type": "function"
    },
    {
      "inputs": [
        {
          "internalType": "uint256",
          "name": "",
          "type": "uint256"
        },
        {
          "internalType": "uint256",
          "name": "",
          "type": "uint256"
        }
      ],
      "name": "claimedPrizes",
      "outputs": [
        {
          "internalType": "bool",
          "name": "",
          "type": "bool"
        }
      ],
      "stateMutability": "view",
      "type": "function"
    },
    {
      "inputs": [
        {
          "components": [
            {
              "internalType": "uint32",
              "name": "startTime",
              "type": "uint32"
            },
            {
              "internalType": "uint32",
              "name": "closeTime",
              "type": "uint32"
            },
            {
              "internalType": "uint32",
              "name": "participantsCount",
              "type": "uint32"
            },
            {
              "internalType": "uint32",
              "name": "maxTickets",
              "type": "uint32"
            },
            {
              "internalType": "uint32",
              "name": "maxTicketsPerUser",
              "type": "uint32"
            },
            {
              "internalType": "uint32",
              "name": "numberOfTicketsSold",
              "type": "uint32"
            },
            {
              "internalType": "uint32",
              "name": "numberOfEditions",
              "type": "uint32"
            },
            {
              "internalType": "enum Lottery.Status",
              "name": "status",
              "type": "uint8"
            },
            {
              "internalType": "contract INFT",
              "name": "nftContract",
              "type": "address"
            },
            {
              "internalType": "uint256",
              "name": "lotteryID",
              "type": "uint256"
            },
            {
              "internalType": "uint256",
              "name": "ticketCostPoints",
              "type": "uint256"
            },
            {
              "internalType": "uint256",
              "name": "ticketCostTokens",
              "type": "uint256"
            }
          ],
          "internalType": "struct Lottery.LotteryInfo",
          "name": "_lotteryInfo",
          "type": "tuple"
        }
      ],
      "name": "createLottery",
      "outputs": [],
      "stateMutability": "nonpayable",
      "type": "function"
    },
    {
      "inputs": [
        {
          "components": [
            {
              "internalType": "uint32",
              "name": "startTime",
              "type": "uint32"
            },
            {
              "internalType": "uint32",
              "name": "closeTime",
              "type": "uint32"
            },
            {
              "internalType": "uint32",
              "name": "participantsCount",
              "type": "uint32"
            },
            {
              "internalType": "uint32",
              "name": "maxTickets",
              "type": "uint32"
            },
            {
              "internalType": "uint32",
              "name": "maxTicketsPerUser",
              "type": "uint32"
            },
            {
              "internalType": "uint32",
              "name": "numberOfTicketsSold",
              "type": "uint32"
            },
            {
              "internalType": "uint32",
              "name": "numberOfEditions",
              "type": "uint32"
            },
            {
              "internalType": "enum Lottery.Status",
              "name": "status",
              "type": "uint8"
            },
            {
              "internalType": "contract INFT",
              "name": "nftContract",
              "type": "address"
            },
            {
              "internalType": "uint256",
              "name": "lotteryID",
              "type": "uint256"
            },
            {
              "internalType": "uint256",
              "name": "ticketCostPoints",
              "type": "uint256"
            },
            {
              "internalType": "uint256",
              "name": "ticketCostTokens",
              "type": "uint256"
            }
          ],
          "internalType": "struct Lottery.LotteryInfo[]",
          "name": "_lotteries",
          "type": "tuple[]"
        }
      ],
      "name": "createLotteryBatch",
      "outputs": [],
      "stateMutability": "nonpayable",
      "type": "function"
    },
    {
      "inputs": [
        {
          "components": [
            {
              "internalType": "uint32",
              "name": "startTime",
              "type": "uint32"
            },
            {
              "internalType": "uint32",
              "name": "closeTime",
              "type": "uint32"
            },
            {
              "internalType": "uint32",
              "name": "participantsCount",
              "type": "uint32"
            },
            {
              "internalType": "uint32",
              "name": "maxTickets",
              "type": "uint32"
            },
            {
              "internalType": "uint32",
              "name": "maxTicketsPerUser",
              "type": "uint32"
            },
            {
              "internalType": "uint32",
              "name": "numberOfTicketsSold",
              "type": "uint32"
            },
            {
              "internalType": "uint32",
              "name": "numberOfEditions",
              "type": "uint32"
            },
            {
              "internalType": "enum Lottery.Status",
              "name": "status",
              "type": "uint8"
            },
            {
              "internalType": "contract INFT",
              "name": "nftContract",
              "type": "address"
            },
            {
              "internalType": "uint256",
              "name": "lotteryID",
              "type": "uint256"
            },
            {
              "internalType": "uint256",
              "name": "ticketCostPoints",
              "type": "uint256"
            },
            {
              "internalType": "uint256",
              "name": "ticketCostTokens",
              "type": "uint256"
            }
          ],
          "internalType": "struct Lottery.LotteryInfo",
          "name": "_lotteryInfo",
          "type": "tuple"
        },
        {
          "internalType": "address",
          "name": "_currency",
          "type": "address"
        }
      ],
      "name": "createLotteryWithCurrency",
      "outputs": [],
      "stateMutability": "nonpayable",
      "type": "function"
    },
    {
      "inputs": [],
      "name": "getLotteryCount",
      "outputs": [
        {
          "internalType": "uint256",
          "name": "",
          "type": "uint256"
        }
      ],
      "stateMutability": "view",
      "type": "function"
    },
    {
      "inputs": [
        {
          "internalType": "uint256",
          "name": "_lotteryId",
          "type": "uint256"
        }
      ],
      "name": "getLotteryInfo",
      "outputs": [
        {
          "components": [
            {
              "internalType": "uint32",
              "name": "startTime",
              "type": "uint32"
            },
            {
              "internalType": "uint32",
              "name": "closeTime",
              "type": "uint32"
            },
            {
              "internalType": "uint32",
              "name": "participantsCount",
              "type": "uint32"
            },
            {
              "internalType": "uint32",
              "name": "maxTickets",
              "type": "uint32"
            },
            {
              "internalType": "uint32",
              "name": "maxTicketsPerUser",
              "type": "uint32"
            },
            {
              "internalType": "uint32",
              "name": "numberOfTicketsSold",
              "type": "uint32"
            },
            {
              "internalType": "uint32",
              "name": "numberOfEditions",
              "type": "uint32"
            },
            {
              "internalType": "enum Lottery.Status",
              "name": "status",
              "type": "uint8"
            },
            {
              "internalType": "contract INFT",
              "name": "nftContract",
              "type": "address"
            },
            {
              "internalType": "uint256",
              "name": "lotteryID",
              "type": "uint256"
            },
            {
              "internalType": "uint256",
              "name": "ticketCostPoints",
              "type": "uint256"
            },
            {
              "internalType": "uint256",
              "name": "ticketCostTokens",
              "type": "uint256"
            }
          ],
          "internalType": "struct Lottery.LotteryInfo",
          "name": "",
          "type": "tuple"
        }
      ],
      "stateMutability": "view",
      "type": "function"
    },
    {
      "inputs": [
        {
          "internalType": "uint256",
          "name": "_lotteryId",
          "type": "uint256"
        }
      ],
      "name": "getLotteryTicketCount",
      "outputs": [
        {
          "internalType": "uint256",
          "name": "",
          "type": "uint256"
        }
      ],
      "stateMutability": "view",
      "type": "function"
    },
    {
      "inputs": [
        {
          "internalType": "uint256",
          "name": "_lotteryId",
          "type": "uint256"
        },
        {
          "internalType": "uint256",
          "name": "_from",
          "type": "uint256"
        },
        {
          "internalType": "uint256",
          "name": "_to",
          "type": "uint256"
        }
      ],
      "name": "getLotteryTickets",
      "outputs": [
        {
          "internalType": "address[]",
          "name": "",
          "type": "address[]"
        }
      ],
      "stateMutability": "view",
      "type": "function"
    },
    {
      "inputs": [
        {
          "internalType": "uint256",
          "name": "_lotteryId",
          "type": "uint256"
        }
      ],
      "name": "getParticipantsCount",
      "outputs": [
        {
          "internalType": "uint32",
          "name": "",
          "type": "uint32"
        }
      ],
      "stateMutability": "view",
      "type": "function"
    },
    {
      "inputs": [
        {
          "internalType": "uint256",
          "name": "_lotteryId",
          "type": "uint256"
        },
        {
          "internalType": "address",
          "name": "_user",
          "type": "address"
        }
      ],
      "name": "getTicketCountPerUser",
      "outputs": [
        {
          "internalType": "uint256",
          "name": "",
          "type": "uint256"
        }
      ],
      "stateMutability": "view",
      "type": "function"
    },
    {
      "inputs": [
        {
          "internalType": "uint256",
          "name": "_lotteryId",
          "type": "uint256"
        }
      ],
      "name": "getWhitelist",
      "outputs": [
        {
          "internalType": "address",
          "name": "",
          "type": "address"
        }
      ],
      "stateMutability": "view",
      "type": "function"
    },
    {
      "inputs": [
        {
          "internalType": "address",
          "name": "_rewardsContract",
          "type": "address"
        },
        {
          "internalType": "address",
          "name": "_admin",
          "type": "address"
        },
        {
          "internalType": "address",
          "name": "_token",
          "type": "address"
        },
        {
          "internalType": "address",
          "name": "_sageStorage",
          "type": "address"
        }
      ],
      "name": "initialize",
      "outputs": [],
      "stateMutability": "nonpayable",
      "type": "function"
    },
    {
      "inputs": [
        {
          "internalType": "uint256",
          "name": "",
          "type": "uint256"
        }
      ],
      "name": "lotteries",
      "outputs": [
        {
          "internalType": "uint256",
          "name": "",
          "type": "uint256"
        }
      ],
      "stateMutability": "view",
      "type": "function"
    },
    {
      "inputs": [
        {
          "internalType": "uint256",
          "name": "",
          "type": "uint256"
        }
      ],
      "name": "lotteryArtistShare",
      "outputs": [
        {
          "internalType": "uint256",
          "name": "",
          "type": "uint256"
        }
      ],
      "stateMutability": "view",
      "type": "function"
    },
    {
      "inputs": [
        {
          "internalType": "uint256",
          "name": "",
          "type": "uint256"
        }
      ],
      "name": "lotteryCurrency",
      "outputs": [
        {
          "internalType": "address",
          "name": "",
          "type": "address"
        }
      ],
      "stateMutability": "view",
      "type": "function"
    },
    {
      "inputs": [
        {
          "internalType": "uint256",
          "name": "",
          "type": "uint256"
        },
        {
          "internalType": "uint256",
          "name": "",
          "type": "uint256"
        }
      ],
      "name": "lotteryTickets",
      "outputs": [
        {
          "internalType": "address",
          "name": "",
          "type": "address"
        }
      ],
      "stateMutability": "view",
      "type": "function"
    },
    {
      "inputs": [
        {
          "internalType": "uint256",
          "name": "",
          "type": "uint256"
        },
        {
          "internalType": "address",
          "name": "",
          "type": "address"
        }
      ],
      "name": "participantTicketCount",
      "outputs": [
        {
          "internalType": "uint256",
          "name": "",
          "type": "uint256"
        }
      ],
      "stateMutability": "view",
      "type": "function"
    },
    {
      "inputs": [],
      "name": "pause",
      "outputs": [],
      "stateMutability": "nonpayable",
      "type": "function"
    },
    {
      "inputs": [],
      "name": "paused",
      "outputs": [
        {
          "internalType": "bool",
          "name": "",
          "type": "bool"
        }
      ],
      "stateMutability": "view",
      "type": "function"
    },
    {
      "inputs": [
        {
          "internalType": "address",
          "name": "",
          "type": "address"
        }
      ],
      "name": "pendingReturns",
      "outputs": [
        {
          "internalType": "uint256",
          "name": "",
          "type": "uint256"
        }
      ],
      "stateMutability": "view",
      "type": "function"
    },
    {
      "inputs": [
        {
          "internalType": "uint256",
          "name": "_lotteryId",
          "type": "uint256"
        },
        {
          "internalType": "uint256",
          "name": "_tokenId",
          "type": "uint256"
        }
      ],
      "name": "prizeClaimed",
      "outputs": [
        {
          "internalType": "bool",
          "name": "",
          "type": "bool"
        }
      ],
      "stateMutability": "view",
      "type": "function"
    },
    {
      "inputs": [
        {
          "internalType": "uint256",
          "name": "",
          "type": "uint256"
        }
      ],
      "name": "prizeMerkleRoots",
      "outputs": [
        {
          "internalType": "bytes32",
          "name": "",
          "type": "bytes32"
        }
      ],
      "stateMutability": "view",
      "type": "function"
    },
    {
      "inputs": [],
      "name": "proxiableUUID",
      "outputs": [
        {
          "internalType": "bytes32",
          "name": "",
          "type": "bytes32"
        }
      ],
      "stateMutability": "view",
      "type": "function"
    },
    {
      "inputs": [
        {
          "internalType": "uint256",
          "name": "",
          "type": "uint256"
        }
      ],
      "name": "randomSeeds",
      "outputs": [
        {
          "internalType": "uint256",
          "name": "",
          "type": "uint256"
        }
      ],
      "stateMutability": "view",
      "type": "function"
    },
    {
      "inputs": [
        {
          "internalType": "uint256",
          "name": "_lotteryId",
          "type": "uint256"
        },
        {
          "internalType": "uint256",
          "name": "_randomNumber",
          "type": "uint256"
        }
      ],
      "name": "receiveRandomNumber",
      "outputs": [],
      "stateMutability": "nonpayable",
      "type": "function"
    },
    {
      "inputs": [
        {
          "internalType": "address",
          "name": "_assetOwner",
          "type": "address"
        },
        {
          "internalType": "uint256",
          "name": "_lotteryId",
          "type": "uint256"
        },
        {
          "internalType": "uint256",
          "name": "_amount",
          "type": "uint256"
        }
      ],
      "name": "refund",
      "outputs": [],
      "stateMutability": "nonpayable",
      "type": "function"
    },
    {
      "inputs": [
        {
          "internalType": "address[]",
          "name": "_owners",
          "type": "address[]"
        },
        {
          "internalType": "uint256",
          "name": "_lotteryId",
          "type": "uint256"
        },
        {
          "internalType": "uint256[]",
          "name": "_amounts",
          "type": "uint256[]"
        }
      ],
      "name": "refundBatch",
      "outputs": [],
      "stateMutability": "nonpayable",
      "type": "function"
    },
    {
      "inputs": [
        {
          "internalType": "uint256",
          "name": "",
          "type": "uint256"
        },
        {
          "internalType": "address",
          "name": "",
          "type": "address"
        }
      ],
      "name": "refunds",
      "outputs": [
        {
          "internalType": "uint256",
          "name": "",
          "type": "uint256"
        }
      ],
      "stateMutability": "view",
      "type": "function"
    },
    {
      "inputs": [
        {
          "internalType": "uint256",
          "name": "_lotteryId",
          "type": "uint256"
        }
      ],
      "name": "requestRandomNumber",
      "outputs": [],
      "stateMutability": "nonpayable",
      "type": "function"
    },
    {
      "inputs": [],
      "name": "rewardsContract",
      "outputs": [
        {
          "internalType": "contract IRewards",
          "name": "",
          "type": "address"
        }
      ],
      "stateMutability": "view",
      "type": "function"
    },
    {
      "inputs": [
        {
          "internalType": "uint256",
          "name": "_lotteryId",
          "type": "uint256"
        },
        {
          "internalType": "uint256",
          "name": "_shareBps",
          "type": "uint256"
        }
      ],
      "name": "setLotteryArtistShare",
      "outputs": [],
      "stateMutability": "nonpayable",
      "type": "function"
    },
    {
      "inputs": [
        {
          "internalType": "uint256",
          "name": "_lotteryId",
          "type": "uint256"
        },
        {
          "internalType": "uint32",
          "name": "_maxTickets",
          "type": "uint32"
        }
      ],
      "name": "setMaxTickets",
      "outputs": [],
      "stateMutability": "nonpayable",
      "type": "function"
    },
    {
      "inputs": [
        {
          "internalType": "uint256",
          "name": "_lotteryId",
          "type": "uint256"
        },
        {
          "internalType": "uint32",
          "name": "_maxTicketsPerUser",
          "type": "uint32"
        }
      ],
      "name": "setMaxTicketsPerUser",
      "outputs": [],
      "stateMutability": "nonpayable",
      "type": "function"
    },
    {
      "inputs": [
        {
          "internalType": "uint256",
          "name": "_token",
          "type": "uint256"
        },
        {
          "internalType": "uint256",
          "name": "_native",
          "type": "uint256"
        }
      ],
      "name": "setOutstandingRefunds",
      "outputs": [],
      "stateMutability": "nonpayable",
      "type": "function"
    },
    {
      "inputs": [
        {
          "internalType": "uint256",
          "name": "_lotteryId",
          "type": "uint256"
        },
        {
          "internalType": "bytes32",
          "name": "_root",
          "type": "bytes32"
        }
      ],
      "name": "setPrizeMerkleRoot",
      "outputs": [],
      "stateMutability": "nonpayable",
      "type": "function"
    },
    {
      "inputs": [
        {
          "internalType": "address",
          "name": "_IRandomNumberGenerator",
          "type": "address"
        }
      ],
      "name": "setRandomGenerator",
      "outputs": [],
      "stateMutability": "nonpayable",
      "type": "function"
    },
    {
      "inputs": [
        {
          "internalType": "address",
          "name": "_rewardsContract",
          "type": "address"
        }
      ],
      "name": "setRewardsContract",
      "outputs": [],
      "stateMutability": "nonpayable",
      "type": "function"
    },
    {
      "inputs": [
        {
          "internalType": "address",
          "name": "_signer",
          "type": "address"
        }
      ],
      "name": "setSignerAddress",
      "outputs": [],
      "stateMutability": "nonpayable",
      "type": "function"
    },
    {
      "inputs": [
        {
          "internalType": "address",
          "name": "_token",
          "type": "address"
        }
      ],
      "name": "setToken",
      "outputs": [],
      "stateMutability": "nonpayable",
      "type": "function"
    },
    {
      "inputs": [
        {
          "internalType": "uint256",
          "name": "_lotteryId",
          "type": "uint256"
        },
        {
          "internalType": "bool",
          "name": "_gated",
          "type": "bool"
        }
      ],
      "name": "setVoucherGated",
      "outputs": [],
      "stateMutability": "nonpayable",
      "type": "function"
    },
    {
      "inputs": [
        {
          "internalType": "uint256",
          "name": "_lotteryId",
          "type": "uint256"
        },
        {
          "internalType": "address",
          "name": "_whitelist",
          "type": "address"
        }
      ],
      "name": "setWhitelist",
      "outputs": [],
      "stateMutability": "nonpayable",
      "type": "function"
    },
    {
      "inputs": [],
      "name": "token",
      "outputs": [
        {
          "internalType": "contract IERC20",
          "name": "",
          "type": "address"
        }
      ],
      "stateMutability": "view",
      "type": "function"
    },
    {
      "inputs": [],
      "name": "totalOutstandingRefundsNative",
      "outputs": [
        {
          "internalType": "uint256",
          "name": "",
          "type": "uint256"
        }
      ],
      "stateMutability": "view",
      "type": "function"
    },
    {
      "inputs": [],
      "name": "totalOutstandingRefundsToken",
      "outputs": [
        {
          "internalType": "uint256",
          "name": "",
          "type": "uint256"
        }
      ],
      "stateMutability": "view",
      "type": "function"
    },
    {
      "inputs": [],
      "name": "totalPendingReturns",
      "outputs": [
        {
          "internalType": "uint256",
          "name": "",
          "type": "uint256"
        }
      ],
      "stateMutability": "view",
      "type": "function"
    },
    {
      "inputs": [],
      "name": "unpause",
      "outputs": [],
      "stateMutability": "nonpayable",
      "type": "function"
    },
    {
      "inputs": [
        {
          "internalType": "uint256",
          "name": "lotteryId",
          "type": "uint256"
        },
        {
          "internalType": "uint256",
          "name": "_ticketCostPoints",
          "type": "uint256"
        },
        {
          "internalType": "uint256",
          "name": "_ticketCostTokens",
          "type": "uint256"
        },
        {
          "internalType": "uint32",
          "name": "_startTime",
          "type": "uint32"
        },
        {
          "internalType": "uint32",
          "name": "_closeTime",
          "type": "uint32"
        },
        {
          "internalType": "contract INFT",
          "name": "_nftContract",
          "type": "address"
        },
        {
          "internalType": "uint16",
          "name": "_maxTickets",
          "type": "uint16"
        },
        {
          "internalType": "enum Lottery.Status",
          "name": "_status",
          "type": "uint8"
        },
        {
          "internalType": "uint32",
          "name": "_numberOfEditions",
          "type": "uint32"
        }
      ],
      "name": "updateLottery",
      "outputs": [],
      "stateMutability": "nonpayable",
      "type": "function"
    },
    {
      "inputs": [
        {
          "internalType": "address",
          "name": "newImplementation",
          "type": "address"
        }
      ],
      "name": "upgradeTo",
      "outputs": [],
      "stateMutability": "nonpayable",
      "type": "function"
    },
    {
      "inputs": [
        {
          "internalType": "address",
          "name": "newImplementation",
          "type": "address"
        },
        {
          "internalType": "bytes",
          "name": "data",
          "type": "bytes"
        }
      ],
      "name": "upgradeToAndCall",
      "outputs": [],
      "stateMutability": "payable",
      "type": "function"
    },
    {
      "inputs": [
        {
          "internalType": "uint256",
          "name": "",
          "type": "uint256"
        }
      ],
      "name": "voucherGated",
      "outputs": [
        {
          "internalType": "bool",
          "name": "",
          "type": "bool"
        }
      ],
      "stateMutability": "view",
      "type": "function"
    },
    {
      "inputs": [
        {
          "internalType": "uint256",
          "name": "",
          "type": "uint256"
        }
      ],
      "name": "whitelists",
      "outputs": [
        {
          "internalType": "address",
          "name": "",
          "type": "address"
        }
      ],
      "stateMutability": "view",
      "type": "function"
    },
    {
      "inputs": [
        {
          "internalType": "uint256",
          "name": "_amount",
          "type": "uint256"
        }
      ],
      "name": "withdraw",
      "outputs": [],
      "stateMutability": "nonpayable",
      "type": "function"
    },
    {
      "inputs": [
        {
          "internalType": "uint256",
          "name": "_amount",
          "type": "uint256"
        }
      ],
      "name": "withdrawNative",
      "outputs": [],
      "stateMutability": "nonpayable",
      "type": "function"
    },
    {
      "inputs": [],
      "name": "withdrawPendingReturns",
      "outputs": [],
      "stateMutability": "nonpayable",
      "type": "function"
    }
  ],
  "bytecode": "0x60a0604052306080523480156200001557600080fd5b506200002062000026565b620000e8565b600054610100900460ff1615620000935760405162461bcd60e51b815260206004820152602760248201527f496e697469616c697a61626c653a20636f6e747261637420697320696e697469604482015266616c697a696e6760c81b606482015260840160405180910390fd5b60005460ff9081161015620000e6576000805460ff191660ff9081179091556040519081527f7f26b83ff96e1f2b6a682f133852f6798a09c465da95921460cefb38474024989060200160405180910390a15b565b608051615f9e6200012060003960008181611c1e01528181611c5e0152818161210b0152818161214b015261228d0152615f9e6000f3fe6080604052600436106103ad5760003560e01c8063654fbb61116101e7578063c11ab6151161010d578063eb1ea521116100a0578063f8c8765e1161006f578063f8c8765e14610be7578063f90328d514610c07578063fc0c546a14610c42578063fe4d5add14610c6257600080fd5b8063eb1ea52114610b43578063ec29021514610b63578063f4f46e3514610b78578063f5f4899814610b9857600080fd5b8063d89da286116100dc578063d89da28614610aa8578063d8a08df914610ac8578063db2c0fd114610ae8578063dfa0dfa514610b2357600080fd5b8063c11ab615146109e9578063c730bba014610a23578063d098a2f014610a5b578063d43cf04614610a8857600080fd5b80638627df46116101855780639b7fecc3116101545780639b7fecc314610969578063aa6af52a14610996578063b1eb96c9146109a9578063bf4002b2146109c957600080fd5b80638627df46146108d35780638c8bf83b146108e6578063937ccc4a1461090657806396db752a1461093357600080fd5b80637350ab2c116101c15780637350ab2c1461085e57806376b3c8a81461087157806384276d811461089e5780638456cb59146108be57600080fd5b8063654fbb61146108085780636a6be3151461081e57806372f5b6c21461083e57600080fd5b80632f9aa1fe116102d75780634a0044671161026a57806352d1902d1161023957806352d1902d146107a557806358a73972146107ba5780635c975abb146107d05780636013457f146107e857600080fd5b80634a004467146107325780634bc19fee146107525780634f1ef2861461077257806350612da61461078557600080fd5b80634538f297116102a65780634538f29714610692578063454cc4bc146106b257806349c0de88146106ea57806349f426501461070a57600080fd5b80632f9aa1fe146106055780633659cfe61461061a5780633f4ba83a1461063a57806340cf23d91461064f57600080fd5b80631c96f2f01161034f57806326b387bb1161031e57806326b387bb1461057857806327a38a9e146105a55780632801f84a146105c55780632e1a7d4d146105e557600080fd5b80631c96f2f0146104eb578063214e24ec1461050b578063220cce971461052b578063236804001461054b57600080fd5b80631398e0761161038b5780631398e0761461043d578063144fa6d71461045d57806317ffd1721461047d57806318fd8903146104cb57600080fd5b806301ce1aee146103b2578063046dc166146103f7578063124aa50414610419575b600080fd5b3480156103be57600080fd5b506103e26103cd366004614f21565b60dd6020526000908152604090205460ff1681565b60405190151581526020015b60405180910390f35b34801561040357600080fd5b50610417610412366004614f4f565b610c98565b005b34801561042557600080fd5b5061042f60dc5481565b6040519081526020016103ee565b34801561044957600080fd5b5061042f610458366004614f21565b610d60565b34801561046957600080fd5b50610417610478366004614f4f565b610d81565b34801561048957600080fd5b506104b3610498366004614f21565b60d8602052600090815260409020546001600160a01b031681565b6040516001600160a01b0390911681526020016103ee565b3480156104d757600080fd5b506104176104e6366004614f6c565b610e36565b3480156104f757600080fd5b50610417610506366004614faf565b611135565b34801561051757600080fd5b50610417610526366004614ff8565b6111f2565b34801561053757600080fd5b5060cd546104b3906001600160a01b031681565b34801561055757600080fd5b5061042f610566366004614f21565b60d56020526000908152604090205481565b34801561058457600080fd5b5061042f610593366004614f4f565b60d96020526000908152604090205481565b3480156105b157600080fd5b506104176105c0366004615027565b611342565b3480156105d157600080fd5b506104176105e0366004615080565b611754565b3480156105f157600080fd5b50610417610600366004614f21565b61197f565b34801561061157600080fd5b5060ce5461042f565b34801561062657600080fd5b50610417610635366004614f4f565b611c14565b34801561064657600080fd5b50610417611cf0565b34801561065b57600080fd5b5061042f61066a366004615128565b600091825260d3602090815260408084206001600160a01b0393909316845291905290205490565b34801561069e57600080fd5b506104176106ad366004614f21565b611d97565b3480156106be57600080fd5b5061042f6106cd366004615128565b60d460209081526000928352604080842090915290825290205481565b3480156106f657600080fd5b506104b361070536600461514d565b611ee4565b34801561071657600080fd5b506104b373eeeeeeeeeeeeeeeeeeeeeeeeeeeeeeeeeeeeeeee81565b34801561073e57600080fd5b5061041761074d36600461516f565b611f1c565b34801561075e57600080fd5b5061041761076d366004614f4f565b611fec565b610417610780366004615259565b612101565b34801561079157600080fd5b506104176107a036600461514d565b6121d1565b3480156107b157600080fd5b5061042f612280565b3480156107c657600080fd5b5061042f60db5481565b3480156107dc57600080fd5b5060975460ff166103e2565b3480156107f457600080fd5b506104176108033660046152bc565b612333565b34801561081457600080fd5b5061042f60da5481565b34801561082a57600080fd5b5061041761083936600461516f565b6125b1565b34801561084a57600080fd5b506104176108593660046152d9565b6126f8565b61041761086c36600461534e565b6127d8565b34801561087d57600080fd5b5061089161088c366004614f21565b61299a565b6040516103ee9190615412565b3480156108aa57600080fd5b506104176108b9366004614f21565b612af6565b3480156108ca57600080fd5b50610417612d01565b6104176108e136600461514d565b612da6565b3480156108f257600080fd5b50610417610901366004615500565b612ee4565b34801561091257600080fd5b5061042f610921366004614f21565b60d76020526000908152604090205481565b34801561093f57600080fd5b506104b361094e366004614f21565b600090815260d060205260409020546001600160a01b031690565b34801561097557600080fd5b50610989610984366004615562565b612f27565b6040516103ee919061558e565b6104176109a436600461534e565b613011565b3480156109b557600080fd5b506104176109c4366004614f21565b613162565b3480156109d557600080fd5b506104176109e436600461516f565b61340d565b3480156109f557600080fd5b5061042f610a04366004614f21565b600090815260cf6020526040902054600160a01b900463ffffffff1690565b348015610a2f57600080fd5b5061042f610a3e366004615128565b60d360209081526000928352604080842090915290825290205481565b348015610a6757600080fd5b5061042f610a76366004614f21565b60d16020526000908152604090205481565b348015610a9457600080fd5b50610417610aa336600461514d565b6134dd565b348015610ab457600080fd5b50610417610ac3366004615128565b61362e565b348015610ad457600080fd5b50610417610ae336600461514d565b6136f9565b348015610af457600080fd5b506103e2610b0336600461514d565b600091825260d26020908152604080842092845291905290205460ff1690565b348015610b2f57600080fd5b50610417610b3e366004614f4f565b613797565b348015610b4f57600080fd5b50610417610b5e36600461514d565b613856565b348015610b6f57600080fd5b50610417613955565b348015610b8457600080fd5b50610417610b93366004615669565b6139e0565b348015610ba457600080fd5b50610bd2610bb3366004614f21565b600090815260cf6020526040902054600160401b900463ffffffff1690565b60405163ffffffff90911681526020016103ee565b348015610bf357600080fd5b50610417610c02366004615733565b613a83565b348015610c1357600080fd5b506103e2610c2236600461514d565b60d260209081526000928352604080842090915290825290205460ff1681565b348015610c4e57600080fd5b5060cb546104b3906001600160a01b031681565b348015610c6e57600080fd5b506104b3610c7d366004614f21565b60d0602052600090815260409020546001600160a01b031681565b60c954604051632474521560e21b81526001600160a01b03909116906391d1485490610cd890600080516020615f4983398151915290339060040161578f565b602060405180830381865afa158015610cf5573d6000803e3d6000fd5b505050506040513d601f19601f82011682018060405250810190610d1991906157a6565b610d3e5760405162461bcd60e51b8152600401610d35906157c3565b60405180910390fd5b60ca80546001600160a01b0319166001600160a01b0392909216919091179055565b60ce8181548110610d7057600080fd5b600091825260209091200154905081565b60c95460408051634783c35b60e01b8152905133926001600160a01b031691634783c35b9160048083019260209291908290030181865afa158015610dca573d6000803e3d6000fd5b505050506040513d601f19601f82011682018060405250810190610dee91906157ed565b6001600160a01b031614610e145760405162461bcd60e51b8152600401610d35906157c3565b60cb80546001600160a01b0319166001600160a01b0392909216919091179055565b610e3e613be9565b336001600160a01b0384161480610ed1575060c954604051632474521560e21b81526001600160a01b03909116906391d1485490610e9090600080516020615f4983398151915290339060040161578f565b602060405180830381865afa158015610ead573d6000803e3d6000fd5b505050506040513d601f19601f82011682018060405250810190610ed191906157a6565b610f135760405162461bcd60e51b81526020600482015260136024820152724f776e6572206f722061646d696e206f6e6c7960681b6044820152606401610d35565b600082815260cf6020526040902081610f5f5760405162461bcd60e51b815260206004820152600e60248201526d043616e277420726566756e6420360941b6044820152606401610d35565b60008154600160e01b900460ff166003811115610f7e57610f7e6153da565b03610fc35760405162461bcd60e51b8152602060048201526015602482015274496e76616c6964206c6f747465727920737461746560581b6044820152606401610d35565b600083815260d4602090815260408083206001600160a01b038816845290915290205482111561103f5760405162461bcd60e51b815260206004820152602160248201527f43616e277420726566756e642074686520616d6f756e742072657175657374656044820152601960fa1b6064820152608401610d35565b600083815260d4602090815260408083206001600160a01b038816845290915281208054849290611071908490615820565b9091555050600083815260d860205260409020546001600160a01b031673eeeeeeeeeeeeeeeeeeeeeeeeeeeeeeeeeeeeeeed1981016110c7578260db60008282546110bc9190615820565b909155506110df9050565b8260da60008282546110d99190615820565b90915550505b6110ea818685613c2f565b846001600160a01b0316847f7ca5472b7ea78c2c0141c5a12ee6d170cf4ce8ed06be3d22c8252ddfc7a6a2c48560405161112691815260200190565b60405180910390a35050505050565b60c954604051632474521560e21b81526001600160a01b03909116906391d148549061117590600080516020615f4983398151915290339060040161578f565b602060405180830381865afa158015611192573d6000803e3d6000fd5b505050506040513d601f19601f820116820180604052508101906111b691906157a6565b6111d25760405162461bcd60e51b8152600401610d35906157c3565b600091825260dd6020526040909120805460ff1916911515919091179055565b60c954604051632474521560e21b81526001600160a01b03909116906391d148549061123290600080516020615f4983398151915290339060040161578f565b602060405180830381865afa15801561124f573d6000803e3d6000fd5b505050506040513d601f19601f8201168201806040525081019061127391906157a6565b61128f5760405162461bcd60e51b8152600401610d35906157c3565b6001600160a01b03811615806112c157506001600160a01b03811673eeeeeeeeeeeeeeeeeeeeeeeeeeeeeeeeeeeeeeee145b6113045760405162461bcd60e51b8152602060048201526014602482015273556e737570706f727465642063757272656e637960601b6044820152606401610d35565b61130d82612333565b6101209190910135600090815260d86020526040902080546001600160a01b0319166001600160a01b03909216919091179055565b61134a613be9565b8035600081815260d26020908152604080832081860135845290915290205460ff16156113c35760405162461bcd60e51b815260206004820152602160248201527f5061727469636970616e7420616c726561647920636c61696d6564207072697a6044820152606560f81b6064820152608401610d35565b61142a6113d76113d284615837565b613dc6565b600083815260d160205260409020546113f360808601866158e0565b80806020026020016040519081016040528093929190818152602001838360200280828437600092019190915250613e0c92505050565b61146d5760405162461bcd60e51b815260206004820152601460248201527324b73b30b634b21036b2b935b63290383937b7b360611b6044820152606401610d35565b600081815260cf60209081526040808320600180820154600483015460d2865284872089860135885290955292909420805460ff19169094179093556001600160a01b031690801561168757600084815260d460209081526040808320338452909152812080548392906114e2908490615820565b9091555050600084815260d860205260409020546001600160a01b031673eeeeeeeeeeeeeeeeeeeeeeeeeeeeeeeeeeeeeeed198101611538578160db600082825461152d9190615820565b909155506115509050565b8160da600082825461154a9190615820565b90915550505b600085815260d76020526040812054908190036115725761156f613e21565b90505b60006127106115818386615929565b61158b9190615948565b90506115f983866001600160a01b03166343bc16126040518163ffffffff1660e01b8152600401602060405180830381865afa1580156115cf573d6000803e3d6000fd5b505050506040513d601f19601f820116820180604052508101906115f391906157ed565b83613c2f565b6116838360c960009054906101000a90046001600160a01b03166001600160a01b0316634783c35b6040518163ffffffff1660e01b8152600401602060405180830381865afa158015611650573d6000803e3d6000fd5b505050506040513d601f19601f8201168201806040525081019061167491906157ed565b61167e8488615820565b613c2f565b5050505b6001600160a01b03821663d204c45e6116a66040880160208901614f4f565b6116b3606089018961596a565b6040518463ffffffff1660e01b81526004016116d1939291906159b0565b600060405180830381600087803b1580156116eb57600080fd5b505af11580156116ff573d6000803e3d6000fd5b50505060408601803591506117179060208801614f4f565b6001600160a01b0316857f4aa95f981a8337cb337de335b965507da0879c3b49f799d20058e913f5ad2c2660405160405180910390a45050505050565b60c954604051632474521560e21b81526001600160a01b03909116906391d148549061179490600080516020615f4983398151915290339060040161578f565b602060405180830381865afa1580156117b1573d6000803e3d6000fd5b505050506040513d601f19601f820116820180604052508101906117d591906157a6565b6117f15760405162461bcd60e51b8152600401610d35906157c3565b858560008263ffffffff161161183e5760405162461bcd60e51b8152602060048201526012602482015271496e76616c69642073746172742074696d6560701b6044820152606401610d35565b8163ffffffff168163ffffffff16116118695760405162461bcd60e51b8152600401610d35906159f0565b60008b815260cf60205260409020805460038083018d9055600483018c90556001830180546001600160a01b038b166001600160a01b0319909116179055600160601b61ffff89160263ffffffff60601b1963ffffffff8c81166401000000000267ffffffffffffffff19909516908e161793909317928316811784558792849260ff60e01b1990921670ff000000000000000000000000ffffffff60601b199091161790600160e01b908490811115611925576119256153da565b0217905550805463ffffffff60c01b1916600160c01b63ffffffff861602178155846003811115611958576119586153da565b6040518d90600080516020615ee283398151915290600090a3505050505050505050505050565b60c954604051632474521560e21b81526001600160a01b03909116906391d14854906119bf90600080516020615f4983398151915290339060040161578f565b602060405180830381865afa1580156119dc573d6000803e3d6000fd5b505050506040513d601f19601f82011682018060405250810190611a0091906157a6565b611a1c5760405162461bcd60e51b8152600401610d35906157c3565b60da5460cb546040516370a0823160e01b81523060048201526001600160a01b03909116906370a0823190602401602060405180830381865afa158015611a67573d6000803e3d6000fd5b505050506040513d601f19601f82011682018060405250810190611a8b9190615a33565b611a959190615820565b811115611ae45760405162461bcd60e51b815260206004820181905260248201527f576f756c6420737472616e64206f75747374616e64696e6720726566756e64736044820152606401610d35565b60cb5460c95460408051634783c35b60e01b815290516001600160a01b039384169363a9059cbb931691634783c35b9160048083019260209291908290030181865afa158015611b38573d6000803e3d6000fd5b505050506040513d601f19601f82011682018060405250810190611b5c91906157ed565b6040516001600160e01b031960e084901b1681526001600160a01b039091166004820152602481018490526044016020604051808303816000875af1158015611ba9573d6000803e3d6000fd5b505050506040513d601f19601f82011682018060405250810190611bcd91906157a6565b611c115760405162461bcd60e51b8152602060048201526015602482015274115490cc8c081d1c985b9cd9995c8819985a5b1959605a1b6044820152606401610d35565b50565b6001600160a01b037f0000000000000000000000000000000000000000000000000000000000000000163003611c5c5760405162461bcd60e51b8152600401610d3590615a4c565b7f00000000000000000000000000000000000000000000000000000000000000006001600160a01b0316611ca5600080516020615f02833981519152546001600160a01b031690565b6001600160a01b031614611ccb5760405162461bcd60e51b8152600401610d3590615a98565b611cd481613fae565b60408051600080825260208201909252611c1191839190614041565b60c954604051632474521560e21b81526001600160a01b03909116906391d1485490611d3090600080516020615f4983398151915290339060040161578f565b602060405180830381865afa158015611d4d573d6000803e3d6000fd5b505050506040513d601f19601f82011682018060405250810190611d7191906157a6565b611d8d5760405162461bcd60e51b8152600401610d35906157c3565b611d956141ac565b565b60c954604051632474521560e21b81526001600160a01b03909116906391d1485490611dd790600080516020615f4983398151915290339060040161578f565b602060405180830381865afa158015611df4573d6000803e3d6000fd5b505050506040513d601f19601f82011682018060405250810190611e1891906157a6565b611e345760405162461bcd60e51b8152600401610d35906157c3565b600081815260cf602052604090208054600160401b900463ffffffff1615611e9e5760405162461bcd60e51b815260206004820152601760248201527f4c6f747465727920616c726561647920737461727465640000000000000000006044820152606401610d35565b805460ff60e01b1916600160e01b9081178083550460ff166003811115611ec757611ec76153da565b6040518390600080516020615ee283398151915290600090a35050565b60d66020528160005260406000208181548110611f0057600080fd5b6000918252602090912001546001600160a01b03169150829050565b60c954604051632474521560e21b81526001600160a01b03909116906391d1485490611f5c90600080516020615f4983398151915290339060040161578f565b602060405180830381865afa158015611f79573d6000803e3d6000fd5b505050506040513d601f19601f82011682018060405250810190611f9d91906157a6565b611fb95760405162461bcd60e51b8152600401610d35906157c3565b600091825260cf6020526040909120805463ffffffff909216600160801b0263ffffffff60801b19909216919091179055565b60c954604051632474521560e21b81526001600160a01b03909116906391d148549061202c90600080516020615f4983398151915290339060040161578f565b602060405180830381865afa158015612049573d6000803e3d6000fd5b505050506040513d601f19601f8201168201806040525081019061206d91906157a6565b6120895760405162461bcd60e51b8152600401610d35906157c3565b6001600160a01b0381166120df5760405162461bcd60e51b815260206004820152601d60248201527f436f6e7472616374732063616e6e6f74206265203020616464726573730000006044820152606401610d35565b60cc80546001600160a01b0319166001600160a01b0392909216919091179055565b6001600160a01b037f00000000000000000000000000000000000000000000000000000000000000001630036121495760405162461bcd60e51b8152600401610d3590615a4c565b7f00000000000000000000000000000000000000000000000000000000000000006001600160a01b0316612192600080516020615f02833981519152546001600160a01b031690565b6001600160a01b0316146121b85760405162461bcd60e51b8152600401610d3590615a98565b6121c182613fae565b6121cd82826001614041565b5050565b60c954604051632474521560e21b81526001600160a01b03909116906391d148549061221190600080516020615f4983398151915290339060040161578f565b602060405180830381865afa15801561222e573d6000803e3d6000fd5b505050506040513d601f19601f8201168201806040525081019061225291906157a6565b61226e5760405162461bcd60e51b8152600401610d35906157c3565b600091825260d1602052604090912055565b6000306001600160a01b037f000000000000000000000000000000000000000000000000000000000000000016146123205760405162461bcd60e51b815260206004820152603860248201527f555550535570677261646561626c653a206d757374206e6f742062652063616c60448201527f6c6564207468726f7567682064656c656761746563616c6c00000000000000006064820152608401610d35565b50600080516020615f0283398151915290565b60c954604051632474521560e21b81526001600160a01b03909116906391d148549061237390600080516020615f4983398151915290339060040161578f565b602060405180830381865afa158015612390573d6000803e3d6000fd5b505050506040513d601f19601f820116820180604052508101906123b491906157a6565b6123d05760405162461bcd60e51b8152600401610d35906157c3565b6123dd6020820182615ae4565b6123ed6040830160208401615ae4565b60008263ffffffff16116124385760405162461bcd60e51b8152602060048201526012602482015271496e76616c69642073746172742074696d6560701b6044820152606401610d35565b8163ffffffff168163ffffffff16116124635760405162461bcd60e51b8152600401610d35906159f0565b600061247560e0850160c08601615ae4565b63ffffffff16116124b95760405162461bcd60e51b815260206004820152600e60248201526d496e76616c6964207072697a657360901b6044820152606401610d35565b610120830135600090815260cf6020526040902054600160c01b900463ffffffff16156125215760405162461bcd60e51b81526020600482015260166024820152754c6f747465727920616c72656164792065786973747360501b6044820152606401610d35565b60ce8054600181019091556101208401357fd36cd1c74ef8d7326d8021b776c18fb5a5724b7f7bc93c2f42e43e10ef27d12a909101819055600090815260cf6020526040902083906125738282615b69565b90505061257e613e21565b610120840135600081815260d76020526040808220939093559151600080516020615ee2833981519152908390a3505050565b60c954604051632474521560e21b81526001600160a01b03909116906391d14854906125f190600080516020615f4983398151915290339060040161578f565b602060405180830381865afa15801561260e573d6000803e3d6000fd5b505050506040513d601f19601f8201168201806040525081019061263291906157a6565b61264e5760405162461bcd60e51b8152600401610d35906157c3565b600082815260cf60205260409020805463ffffffff166126a75760405162461bcd60e51b8152602060048201526014602482015273131bdd1d195c9e481a59081b9bdd08199bdd5b9960621b6044820152606401610d35565b805463ffffffff908116908316116126d15760405162461bcd60e51b8152600401610d35906159f0565b805463ffffffff9092166401000000000267ffffffff000000001990921691909117905550565b60c954604051632474521560e21b81526001600160a01b03909116906391d148549061273890600080516020615f4983398151915290339060040161578f565b602060405180830381865afa158015612755573d6000803e3d6000fd5b505050506040513d601f19601f8201168201806040525081019061277991906157a6565b6127955760405162461bcd60e51b8152600401610d35906157c3565b8060005b818110156127d2576127c28484838181106127b6576127b6615d30565b90506101800201612333565b6127cb81615d46565b9050612799565b50505050565b604080513360208201819052918101879052600090612810906060015b604051602081830303815290604052805190602001206141fe565b60ca54604080516020601f88018190048102820181019092528681529293506001600160a01b039091169161286291849190889088908190840183828082843760009201919091525061423992505050565b6001600160a01b0316146128ac5760405162461bcd60e51b8152602060048201526011602482015270496e76616c6964207369676e617475726560781b6044820152606401610d35565b60cd5460405163f662781d60e01b81526001600160a01b0384811660048301528992169063f662781d90602401602060405180830381865afa1580156128f6573d6000803e3d6000fd5b505050506040513d601f19601f8201168201806040525081019061291a9190615a33565b10156129875760cd54604051630259ab7760e61b81526001600160a01b038481166004830152602482018a90529091169063966addc090604401600060405180830381600087803b15801561296e57600080fd5b505af1158015612982573d6000803e3d6000fd5b505050505b6129918686612da6565b50505050505050565b612a076040805161018081018252600080825260208201819052918101829052606081018290526080810182905260a0810182905260c081018290529060e0820190815260200160006001600160a01b031681526020016000815260200160008152602001600081525090565b600082815260cf6020908152604091829020825161018081018452815463ffffffff80821683526401000000008204811694830194909452600160401b8104841694820194909452600160601b840483166060820152600160801b840483166080820152600160a01b8404831660a0820152600160c01b840490921660c0830152909160e0830190600160e01b900460ff166003811115612aaa57612aaa6153da565b6003811115612abb57612abb6153da565b815260018201546001600160a01b03166020820152600282015460408201526003820154606082015260049091015460809091015292915050565b60c954604051632474521560e21b81526001600160a01b03909116906391d1485490612b3690600080516020615f4983398151915290339060040161578f565b602060405180830381865afa158015612b53573d6000803e3d6000fd5b505050506040513d601f19601f82011682018060405250810190612b7791906157a6565b612b935760405162461bcd60e51b8152600401610d35906157c3565b60dc5460db54612ba39047615820565b612bad9190615820565b811115612bfc5760405162461bcd60e51b815260206004820181905260248201527f576f756c6420737472616e64206f75747374616e64696e6720726566756e64736044820152606401610d35565b60c95460408051634783c35b60e01b815290516000926001600160a01b031691634783c35b9160048083019260209291908290030181865afa158015612c46573d6000803e3d6000fd5b505050506040513d601f19601f82011682018060405250810190612c6a91906157ed565b6001600160a01b0316826040515b60006040518083038185875af1925050503d8060008114612cb5576040519150601f19603f3d011682016040523d82523d6000602084013e612cba565b606091505b50509050806121cd5760405162461bcd60e51b8152602060048201526013602482015272115512081d1c985b9cd9995c8819985a5b1959606a1b6044820152606401610d35565b60c954604051632474521560e21b81526001600160a01b03909116906391d1485490612d4190600080516020615f4983398151915290339060040161578f565b602060405180830381865afa158015612d5e573d6000803e3d6000fd5b505050506040513d601f19601f82011682018060405250810190612d8291906157a6565b612d9e5760405162461bcd60e51b8152600401610d35906157c3565b611d9561425d565b600082815260d0602052604090205482906001600160a01b031615612e8357600081815260d06020526040908190205490516320c18e6b60e21b8152336004820152602481018390526001600160a01b039091169063830639ac90604401602060405180830381865afa158015612e21573d6000803e3d6000fd5b505050506040513d601f19601f82011682018060405250810190612e4591906157a6565b612e835760405162461bcd60e51b815260206004820152600f60248201526e139bdd081dda1a5d195b1a5cdd1959608a1b6044820152606401610d35565b600083815260dd602052604090205460ff1615612ed55760405162461bcd60e51b815260206004820152601060248201526f159bdd58da195c881c995c5d5a5c995960821b6044820152606401610d35565b612edf838361429a565b505050565b8060005b818110156127d257612f17848483818110612f0557612f05615d30565b90506020028101906105c09190615d5f565b612f2081615d46565b9050612ee8565b60606000612f358484615820565b612f40906001615d7f565b6001600160401b03811115612f5757612f57615194565b604051908082528060200260200182016040528015612f80578160200160208202803683370190505b509050835b83811161300657600086815260d660205260409020805482908110612fac57612fac615d30565b6000918252602090912001546001600160a01b031682612fcc8784615820565b81518110612fdc57612fdc615d30565b6001600160a01b039092166020928302919091019091015280612ffe81615d46565b915050612f85565b5090505b9392505050565b824211156130535760405162461bcd60e51b815260206004820152600f60248201526e159bdd58da195c88195e1c1a5c9959608a1b6044820152606401610d35565b6040805160c060208201819052601460e08301527329a0a3a2afa627aa2a22a92cafab27aaa1a422a960611b610100830152469282019290925230606082015233608082015260a081018790529081018490526000906130b690610120016127f5565b60ca54604080516020601f87018190048102820181019092528581529293506001600160a01b039091169161310891849190879087908190840183828082843760009201919091525061423992505050565b6001600160a01b0316146131505760405162461bcd60e51b815260206004820152600f60248201526e24b73b30b634b2103b37bab1b432b960891b6044820152606401610d35565b61315a868661429a565b505050505050565b60c954604051632474521560e21b81526001600160a01b03909116906391d14854906131a290600080516020615f4983398151915290339060040161578f565b602060405180830381865afa1580156131bf573d6000803e3d6000fd5b505050506040513d601f19601f820116820180604052508101906131e391906157a6565b6131ff5760405162461bcd60e51b8152600401610d35906157c3565b600081815260cf60205260409020805463ffffffff166132565760405162461bcd60e51b8152602060048201526012602482015271125b9d985b1a59081b1bdd1d195c9e481a5960721b6044820152606401610d35565b80544264010000000090910463ffffffff16106132ad5760405162461bcd60e51b8152602060048201526015602482015274131bdd1d195c9e481a5cc81b9bdd0818db1bdcd959605a1b6044820152606401610d35565b8054600160e01b900460ff1660038160038111156132cd576132cd6153da565b0361331a5760405162461bcd60e51b815260206004820152601d60248201527f4c6f7474657279206d757374206e6f7420626520636f6d706c657465640000006044820152606401610d35565b815463ffffffff600160c01b82048116600160a01b909204161161334e57815460ff60e01b1916600360e01b1782556133d2565b8154600160e11b60ff60e01b1990911617825560cc54604051632f215ddf60e21b8152600481018590526001600160a01b039091169063bc85777c906024016020604051808303816000875af11580156133ac573d6000803e3d6000fd5b505050506040513d601f19601f820116820180604052508101906133d09190615a33565b505b8154600160e01b900460ff1660038111156133ef576133ef6153da565b6040518490600080516020615ee283398151915290600090a3505050565b60c954604051632474521560e21b81526001600160a01b03909116906391d148549061344d90600080516020615f4983398151915290339060040161578f565b602060405180830381865afa15801561346a573d6000803e3d6000fd5b505050506040513d601f19601f8201168201806040525081019061348e91906157a6565b6134aa5760405162461bcd60e51b8152600401610d35906157c3565b600091825260cf6020526040909120805463ffffffff909216600160601b0263ffffffff60601b19909216919091179055565b60c954604051632474521560e21b81526001600160a01b03909116906391d148549061351d90600080516020615f4983398151915290339060040161578f565b602060405180830381865afa15801561353a573d6000803e3d6000fd5b505050506040513d601f19601f8201168201806040525081019061355e91906157a6565b61357a5760405162461bcd60e51b8152600401610d35906157c3565b6127108111156135bc5760405162461bcd60e51b815260206004820152600d60248201526c496e76616c696420736861726560981b6044820152606401610d35565b600082815260cf6020526040902054600160c01b900463ffffffff1661361c5760405162461bcd60e51b8152602060048201526015602482015274131bdd1d195c9e48191bd95cdb89dd08195e1a5cdd605a1b6044820152606401610d35565b600091825260d7602052604090912055565b60c954604051632474521560e21b81526001600160a01b03909116906391d148549061366e90600080516020615f4983398151915290339060040161578f565b602060405180830381865afa15801561368b573d6000803e3d6000fd5b505050506040513d601f19601f820116820180604052508101906136af91906157a6565b6136cb5760405162461bcd60e51b8152600401610d35906157c3565b600091825260d0602052604090912080546001600160a01b0319166001600160a01b03909216919091179055565b60c95460408051634783c35b60e01b8152905133926001600160a01b031691634783c35b9160048083019260209291908290030181865afa158015613742573d6000803e3d6000fd5b505050506040513d601f19601f8201168201806040525081019061376691906157ed565b6001600160a01b03161461378c5760405162461bcd60e51b8152600401610d35906157c3565b60da9190915560db55565b60c954604051632474521560e21b81526001600160a01b03909116906391d14854906137d790600080516020615f4983398151915290339060040161578f565b602060405180830381865afa1580156137f4573d6000803e3d6000fd5b505050506040513d601f19601f8201168201806040525081019061381891906157a6565b6138345760405162461bcd60e51b8152600401610d35906157c3565b60cd80546001600160a01b0319166001600160a01b0392909216919091179055565b60cc546001600160a01b031633146138a35760405162461bcd60e51b815260206004820152601060248201526f4f6e6c7920524e47206164647265737360801b6044820152606401610d35565b600082815260cf6020526040902060038154600160e01b900460ff1660038111156138d0576138d06153da565b036139165760405162461bcd60e51b8152602060048201526016602482015275131bdd1d195c9e481b5d5cdd0818994818db1bdcd95960521b6044820152606401610d35565b805460ff60e01b1916600360e01b178155600083815260d5602052604090208290558054600160e01b900460ff1660038111156133ef576133ef6153da565b33600090815260d96020526040902054806139a85760405162461bcd60e51b81526020600482015260136024820152724e6f7468696e6720746f20776974686472617760681b6044820152606401610d35565b33600090815260d96020526040812081905560dc80548392906139cc908490615820565b909155505060405160009033908390612c78565b825181518114613a245760405162461bcd60e51b815260206004820152600f60248201526e57726f6e6720617267756d656e747360881b6044820152606401610d35565b60005b81811015613a7c57613a6c858281518110613a4457613a44615d30565b602002602001015185858481518110613a5f57613a5f615d30565b6020026020010151610e36565b613a7581615d46565b9050613a27565b5050505050565b600054610100900460ff1615808015613aa35750600054600160ff909116105b80613abd5750303b158015613abd575060005460ff166001145b613b205760405162461bcd60e51b815260206004820152602e60248201527f496e697469616c697a61626c653a20636f6e747261637420697320616c72656160448201526d191e481a5b9a5d1a585b1a5e995960921b6064820152608401610d35565b6000805460ff191660011790558015613b43576000805461ff0019166101001790555b613b4b614837565b613b53614866565b60cb80546001600160a01b038086166001600160a01b03199283161790925560ca805487841690831617905560cd805488841690831617905560c98054928516929091169190911790558015613a7c576000805461ff0019169055604051600181527f7f26b83ff96e1f2b6a682f133852f6798a09c465da95921460cefb38474024989060200160405180910390a15050505050565b60975460ff1615611d955760405162461bcd60e51b815260206004820152601060248201526f14185d5cd8589b194e881c185d5cd95960821b6044820152606401610d35565b80600003613c3c57505050565b73eeeeeeeeeeeeeeeeeeeeeeeeeeeeeeeeeeeeeeed196001600160a01b03841601613d0d576000826001600160a01b03168261753090604051600060405180830381858888f193505050503d8060008114613cb3576040519150601f19603f3d011682016040523d82523d6000602084013e613cb8565b606091505b50509050806127d2576001600160a01b038316600090815260d9602052604081208054849290613ce9908490615d7f565b925050819055508160dc6000828254613d029190615d7f565b909155505050505050565b60cb5460405163a9059cbb60e01b81526001600160a01b038481166004830152602482018490529091169063a9059cbb906044016020604051808303816000875af1158015613d60573d6000803e3d6000fd5b505050506040513d601f19601f82011682018060405250810190613d8491906157a6565b612edf5760405162461bcd60e51b8152602060048201526013602482015272115490cc8c081c185e5bdd5d0819985a5b1959606a1b6044820152606401610d35565b60008160000151826020015183604001518460600151604051602001613def9493929190615def565b604051602081830303815290604052805190602001209050919050565b6000613e1982848661488d565b949350505050565b60c9546040516d616464726573732e636f6e66696760901b602082015260009182916001600160a01b03909116906321f8a72190602e01604051602081830303815290604052805190602001206040518263ffffffff1660e01b8152600401613e8c91815260200190565b602060405180830381865afa158015613ea9573d6000803e3d6000fd5b505050506040513d601f19601f82011682018060405250810190613ecd91906157ed565b90506001600160a01b038116613ee657611f4091505090565b6000816001600160a01b031663bd02d0f5604051602001613f2090721cda185c994b9c1c9a5b585c9e505c9d1a5cdd606a1b815260130190565b604051602081830303815290604052805190602001206040518263ffffffff1660e01b8152600401613f5491815260200190565b602060405180830381865afa158015613f71573d6000803e3d6000fd5b505050506040513d601f19601f82011682018060405250810190613f959190615a33565b90508015613fa35780613fa7565b611f405b9250505090565b60c95460408051634783c35b60e01b8152905133926001600160a01b031691634783c35b9160048083019260209291908290030181865afa158015613ff7573d6000803e3d6000fd5b505050506040513d601f19601f8201168201806040525081019061401b91906157ed565b6001600160a01b031614611c115760405162461bcd60e51b8152600401610d35906157c3565b7f4910fdfa16fed3260ed0e7147f7cc6da11a60208b5b9406d12a635614ffd91435460ff161561407457612edf836148a3565b826001600160a01b03166352d1902d6040518163ffffffff1660e01b8152600401602060405180830381865afa9250505080156140ce575060408051601f3d908101601f191682019092526140cb91810190615a33565b60015b6141315760405162461bcd60e51b815260206004820152602e60248201527f45524331393637557067726164653a206e657720696d706c656d656e7461746960448201526d6f6e206973206e6f74205555505360901b6064820152608401610d35565b600080516020615f0283398151915281146141a05760405162461bcd60e51b815260206004820152602960248201527f45524331393637557067726164653a20756e737570706f727465642070726f786044820152681a58589b195555525160ba1b6064820152608401610d35565b50612edf83838361493f565b6141b4614964565b6097805460ff191690557f5db9ee0a495bf2e6ff9c91a7834c1ba4fdd244a5e8aa4e537bd38aeae4b073aa335b6040516001600160a01b03909116815260200160405180910390a1565b6040517f19457468657265756d205369676e6564204d6573736167653a0a3332000000006020820152603c8101829052600090605c01613def565b600080600061424885856149ad565b91509150614255816149f2565b509392505050565b614265613be9565b6097805460ff191660011790557f62e78cea01bee320cd4e420270b5ea74000d11b0c9f74754ebdbfc544b05a2586141e13390565b6142a2613be9565b600082815260cf60205260408120805490919081908190600160601b900463ffffffff161561433057835463ffffffff600160601b82048116916142ef918891600160a01b900416615d7f565b11156143305760405162461bcd60e51b815260206004820152601060248201526f151a58dad95d1cc81cdbdb19081bdd5d60821b6044820152606401610d35565b600086815260d3602090815260408083203384529091529020548454600160801b900463ffffffff16156143c5578454600160801b900463ffffffff166143778783615d7f565b11156143c55760405162461bcd60e51b815260206004820181905260248201527f43616e277420627579207468697320616d6f756e74206f66207469636b6574736044820152606401610d35565b84544263ffffffff909116118015906143ed575084544264010000000090910463ffffffff16115b8015614416575060018554600160e01b900460ff166003811115614413576144136153da565b14155b6144585760405162461bcd60e51b81526020600482015260136024820152722637ba3a32b93c9034b9903737ba1037b832b760691b6044820152606401610d35565b60038501546144679087615929565b9250821561447b576144793384614ba8565b505b60048501548554909250869086906014906144a4908490600160a01b900463ffffffff16615e26565b92506101000a81548163ffffffff021916908363ffffffff16021790555060008211156146ef576144d58287615929565b600088815260d860205260409020549094506001600160a01b031673eeeeeeeeeeeeeeeeeeeeeeeeeeeeeeeeeeeeeeed19016145525783341461454d5760405162461bcd60e51b815260206004820152601060248201526f15dc9bdb99c811551208185b5bdd5b9d60821b6044820152606401610d35565b61465f565b34156145a05760405162461bcd60e51b815260206004820152601c60248201527f4c6f7474657279206973206e6f742070726963656420696e20455448000000006044820152606401610d35565b60cb546040516323b872dd60e01b8152336004820152306024820152604481018690526001600160a01b03909116906323b872dd906064016020604051808303816000875af11580156145f7573d6000803e3d6000fd5b505050506040513d601f19601f8201168201806040525081019061461b91906157a6565b61465f5760405162461bcd60e51b8152602060048201526015602482015274115490cc8c081d1c985b9cd9995c8819985a5b1959605a1b6044820152606401610d35565b600087815260d46020908152604080832033845290915281208054869290614688908490615d7f565b9091555050600087815260d860205260409020546001600160a01b031673eeeeeeeeeeeeeeeeeeeeeeeeeeeeeeeeeeeeeeed19016146dd578360db60008282546146d29190615d7f565b909155506147309050565b8360da60008282546146d29190615d7f565b34156147305760405162461bcd60e51b815260206004820152601060248201526f5469636b65747320617265206672656560801b6044820152606401610d35565b80600003614774578454859060089061475590600160401b900463ffffffff16615e4e565b91906101000a81548163ffffffff021916908363ffffffff1602179055505b600087815260d3602090815260408083203384529091528120805488929061479d908490615d7f565b9091555050600087815260d660205260408120905b8781101561482c5781546001810183556000838152602090200180546001600160a01b0319163390811790915582546040518b917fc41bbb54d04f2268c7895b9330f18468c306a3f92698a92c4c86b297873978489161481491815260200190565b60405180910390a361482581615d46565b90506147b2565b505050505050505050565b600054610100900460ff1661485e5760405162461bcd60e51b8152600401610d3590615e71565b611d95614c20565b600054610100900460ff16611d955760405162461bcd60e51b8152600401610d3590615e71565b60008261489a8584614c53565b14949350505050565b6001600160a01b0381163b6149105760405162461bcd60e51b815260206004820152602d60248201527f455243313936373a206e657720696d706c656d656e746174696f6e206973206e60448201526c1bdd08184818dbdb9d1c9858dd609a1b6064820152608401610d35565b600080516020615f0283398151915280546001600160a01b0319166001600160a01b0392909216919091179055565b61494883614c98565b6000825111806149555750805b15612edf576127d28383614cd8565b60975460ff16611d955760405162461bcd60e51b815260206004820152601460248201527314185d5cd8589b194e881b9bdd081c185d5cd95960621b6044820152606401610d35565b60008082516041036149e35760208301516040840151606085015160001a6149d787828585614dcc565b945094505050506149eb565b506000905060025b9250929050565b6000816004811115614a0657614a066153da565b03614a0e5750565b6001816004811115614a2257614a226153da565b03614a6f5760405162461bcd60e51b815260206004820152601860248201527f45434453413a20696e76616c6964207369676e617475726500000000000000006044820152606401610d35565b6002816004811115614a8357614a836153da565b03614ad05760405162461bcd60e51b815260206004820152601f60248201527f45434453413a20696e76616c6964207369676e6174757265206c656e677468006044820152606401610d35565b6003816004811115614ae457614ae46153da565b03614b3c5760405162461bcd60e51b815260206004820152602260248201527f45434453413a20696e76616c6964207369676e6174757265202773272076616c604482015261756560f01b6064820152608401610d35565b6004816004811115614b5057614b506153da565b03611c115760405162461bcd60e51b815260206004820152602260248201527f45434453413a20696e76616c6964207369676e6174757265202776272076616c604482015261756560f01b6064820152608401610d35565b60cd54604051631e961d2760e01b81526001600160a01b038481166004830152602482018490526000921690631e961d27906044016020604051808303816000875af1158015614bfc573d6000803e3d6000fd5b505050506040513d601f19601f8201168201806040525081019061300a9190615a33565b600054610100900460ff16614c475760405162461bcd60e51b8152600401610d3590615e71565b6097805460ff19169055565b600081815b845181101561425557614c8482868381518110614c7757614c77615d30565b6020026020010151614eb9565b915080614c9081615d46565b915050614c58565b614ca1816148a3565b6040516001600160a01b038216907fbc7cd75a20ee27fd9adebab32041f755214dbc6bffa90cc0225b39da2e5c2d3b90600090a250565b60606001600160a01b0383163b614d405760405162461bcd60e51b815260206004820152602660248201527f416464726573733a2064656c65676174652063616c6c20746f206e6f6e2d636f6044820152651b9d1c9858dd60d21b6064820152608401610d35565b600080846001600160a01b031684604051614d5b9190615ebc565b600060405180830381855af49150503d8060008114614d96576040519150601f19603f3d011682016040523d82523d6000602084013e614d9b565b606091505b5091509150614dc38282604051806060016040528060278152602001615f2260279139614ee8565b95945050505050565b6000807f7fffffffffffffffffffffffffffffff5d576e7357a4501ddfe92f46681b20a0831115614e035750600090506003614eb0565b8460ff16601b14158015614e1b57508460ff16601c14155b15614e2c5750600090506004614eb0565b6040805160008082526020820180845289905260ff881692820192909252606081018690526080810185905260019060a0016020604051602081039080840390855afa158015614e80573d6000803e3d6000fd5b5050604051601f1901519150506001600160a01b038116614ea957600060019250925050614eb0565b9150600090505b94509492505050565b6000818310614ed557600082815260208490526040902061300a565b600083815260208390526040902061300a565b60608315614ef757508161300a565b825115614f075782518084602001fd5b8160405162461bcd60e51b8152600401610d359190615ece565b600060208284031215614f3357600080fd5b5035919050565b6001600160a01b0381168114611c1157600080fd5b600060208284031215614f6157600080fd5b813561300a81614f3a565b600080600060608486031215614f8157600080fd5b8335614f8c81614f3a565b95602085013595506040909401359392505050565b8015158114611c1157600080fd5b60008060408385031215614fc257600080fd5b823591506020830135614fd481614fa1565b809150509250929050565b60006101808284031215614ff257600080fd5b50919050565b6000806101a0838503121561500c57600080fd5b6150168484614fdf565b9150610180830135614fd481614f3a565b60006020828403121561503957600080fd5b81356001600160401b0381111561504f57600080fd5b820160a0818503121561300a57600080fd5b63ffffffff81168114611c1157600080fd5b60048110611c1157600080fd5b60008060008060008060008060006101208a8c03121561509f57600080fd5b8935985060208a0135975060408a0135965060608a01356150bf81615061565b955060808a01356150cf81615061565b945060a08a01356150df81614f3a565b935060c08a013561ffff811681146150f657600080fd5b925060e08a013561510681615073565b91506101008a013561511781615061565b809150509295985092959850929598565b6000806040838503121561513b57600080fd5b823591506020830135614fd481614f3a565b6000806040838503121561516057600080fd5b50508035926020909101359150565b6000806040838503121561518257600080fd5b823591506020830135614fd481615061565b634e487b7160e01b600052604160045260246000fd5b60405160a081016001600160401b03811182821017156151cc576151cc615194565b60405290565b604051601f8201601f191681016001600160401b03811182821017156151fa576151fa615194565b604052919050565b60006001600160401b0383111561521b5761521b615194565b61522e601f8401601f19166020016151d2565b905082815283838301111561524257600080fd5b828260208301376000602084830101529392505050565b6000806040838503121561526c57600080fd5b823561527781614f3a565b915060208301356001600160401b0381111561529257600080fd5b8301601f810185136152a357600080fd5b6152b285823560208401615202565b9150509250929050565b600061018082840312156152cf57600080fd5b61300a8383614fdf565b600080602083850312156152ec57600080fd5b82356001600160401b038082111561530357600080fd5b818501915085601f83011261531757600080fd5b81358181111561532657600080fd5b8660206101808302850101111561533c57600080fd5b60209290920196919550909350505050565b60008060008060006080868803121561536657600080fd5b85359450602086013593506040860135925060608601356001600160401b038082111561539257600080fd5b818801915088601f8301126153a657600080fd5b8135818111156153b557600080fd5b8960208285010111156153c757600080fd5b9699959850939650602001949392505050565b634e487b7160e01b600052602160045260246000fd5b6004811061540e57634e487b7160e01b600052602160045260246000fd5b9052565b815163ffffffff16815261018081016020830151615438602084018263ffffffff169052565b506040830151615450604084018263ffffffff169052565b506060830151615468606084018263ffffffff169052565b506080830151615480608084018263ffffffff169052565b5060a083015161549860a084018263ffffffff169052565b5060c08301516154b060c084018263ffffffff169052565b5060e08301516154c360e08401826153f0565b50610100838101516001600160a01b0316908301526101208084015190830152610140808401519083015261016092830151929091019190915290565b6000806020838503121561551357600080fd5b82356001600160401b038082111561552a57600080fd5b818501915085601f83011261553e57600080fd5b81358181111561554d57600080fd5b8660208260051b850101111561533c57600080fd5b60008060006060848603121561557757600080fd5b505081359360208301359350604090920135919050565b6020808252825182820181905260009190848201906040850190845b818110156155cf5783516001600160a01b0316835292840192918401916001016155aa565b50909695505050505050565b60006001600160401b038211156155f4576155f4615194565b5060051b60200190565b600082601f83011261560f57600080fd5b8135602061562461561f836155db565b6151d2565b82815260059290921b8401810191818101908684111561564357600080fd5b8286015b8481101561565e5780358352918301918301615647565b509695505050505050565b60008060006060848603121561567e57600080fd5b83356001600160401b038082111561569557600080fd5b818601915086601f8301126156a957600080fd5b813560206156b961561f836155db565b82815260059290921b8401810191818101908a8411156156d857600080fd5b948201945b838610156156ff5785356156f081614f3a565b825294820194908201906156dd565b975050870135945050604086013591508082111561571c57600080fd5b50615729868287016155fe565b9150509250925092565b6000806000806080858703121561574957600080fd5b843561575481614f3a565b9350602085013561576481614f3a565b9250604085013561577481614f3a565b9150606085013561578481614f3a565b939692955090935050565b9182526001600160a01b0316602082015260400190565b6000602082840312156157b857600080fd5b815161300a81614fa1565b60208082526010908201526f41646d696e2063616c6c73206f6e6c7960801b604082015260600190565b6000602082840312156157ff57600080fd5b815161300a81614f3a565b634e487b7160e01b600052601160045260246000fd5b6000828210156158325761583261580a565b500390565b600060a0823603121561584957600080fd5b6158516151aa565b82358152602083013561586381614f3a565b60208201526040838101359082015260608301356001600160401b038082111561588c57600080fd5b9084019036601f83011261589f57600080fd5b6158ae36833560208501615202565b606084015260808501359150808211156158c757600080fd5b506158d4368286016155fe565b60808301525092915050565b6000808335601e198436030181126158f757600080fd5b8301803591506001600160401b0382111561591157600080fd5b6020019150600581901b36038213156149eb57600080fd5b60008160001904831182151516156159435761594361580a565b500290565b60008261596557634e487b7160e01b600052601260045260246000fd5b500490565b6000808335601e1984360301811261598157600080fd5b8301803591506001600160401b0382111561599b57600080fd5b6020019150368190038213156149eb57600080fd5b6001600160a01b03841681526040602082018190528101829052818360608301376000818301606090810191909152601f909201601f1916010192915050565b60208082526023908201527f436c6f73652074696d65206d7573742062652061667465722073746172742074604082015262696d6560e81b606082015260800190565b600060208284031215615a4557600080fd5b5051919050565b6020808252602c908201527f46756e6374696f6e206d7573742062652063616c6c6564207468726f7567682060408201526b19195b1959d85d1958d85b1b60a21b606082015260800190565b6020808252602c908201527f46756e6374696f6e206d7573742062652063616c6c6564207468726f7567682060408201526b6163746976652070726f787960a01b606082015260800190565b600060208284031215615af657600080fd5b813561300a81615061565b60008135615b0e81615061565b92915050565b60008135615b0e81615073565b60048210615b3f57634e487b7160e01b600052602160045260246000fd5b805460ff60e01b191660e09290921b60ff60e01b16919091179055565b60008135615b0e81614f3a565b615b8c615b7583615b01565b825463ffffffff191663ffffffff91909116178255565b615bbd615b9b60208401615b01565b825467ffffffff00000000191660209190911b67ffffffff0000000016178255565b615bf6615bcc60408401615b01565b82546bffffffff0000000000000000191660409190911b6bffffffff000000000000000016178255565b615c29615c0560608401615b01565b82805463ffffffff60601b191660609290921b63ffffffff60601b16919091179055565b615c5c615c3860808401615b01565b82805463ffffffff60801b191660809290921b63ffffffff60801b16919091179055565b615c8f615c6b60a08401615b01565b82805463ffffffff60a01b191660a09290921b63ffffffff60a01b16919091179055565b615cc2615c9e60c08401615b01565b82805463ffffffff60c01b191660c09290921b63ffffffff60c01b16919091179055565b615cd7615cd160e08401615b14565b82615b21565b615d0b615ce76101008401615b5c565b6001830180546001600160a01b0319166001600160a01b0392909216919091179055565b6101208201356002820155610140820135600382015561016082013560048201555050565b634e487b7160e01b600052603260045260246000fd5b600060018201615d5857615d5861580a565b5060010190565b60008235609e19833603018112615d7557600080fd5b9190910192915050565b60008219821115615d9257615d9261580a565b500190565b60005b83811015615db2578181015183820152602001615d9a565b838111156127d25750506000910152565b60008151808452615ddb816020860160208601615d97565b601f01601f19169290920160200192915050565b84815260018060a01b0384166020820152826040820152608060608201526000615e1c6080830184615dc3565b9695505050505050565b600063ffffffff808316818516808303821115615e4557615e4561580a565b01949350505050565b600063ffffffff808316818103615e6757615e6761580a565b6001019392505050565b6020808252602b908201527f496e697469616c697a61626c653a20636f6e7472616374206973206e6f74206960408201526a6e697469616c697a696e6760a81b606082015260800190565b60008251615d75818460208701615d97565b60208152600061300a6020830184615dc356fea3aca9ae20a0379d4094b84c749cbed6584ab20f0b71af75f63f6615d879c939360894a13ba1a3210667c828492db98dca3e2076cc3735a920a3ca505d382bbc416464726573733a206c6f772d6c6576656c2064656c65676174652063616c6c206661696c6564e303cb88ace8c9e6ba216f1aecb44b3206dcab364c60512ffc6cbc920a1bf9d1a2646970667358221220d0a03f6dd6ee263db0166702d5c8b52d2286129eaa8461a5fea181c4407e3def64736f6c634300080e0033",
  "linkReferences": {},
  "deployedLinkReferences": {}
}