{
  "_format": "hh-sol-artifact-1",
  "contractName": "Lottery",
  "sourceName": "contracts/Lottery/Lottery.sol",
  "abi": [
    {
      "inputs": [],
      "stateMutability": "nonpayable",
      "type": "constructor"
    },
    {
      "anonymous": false,
      "inputs": [
        {
          "indexed": false,
          "internalType": "address",
          "name": "previousAdmin",
          "type": "address"
        },
        {
          "indexed": false,
          "internalType": "address",
          "name": "newAdmin",
          "type": "address"
        }
      ],
      "name": "AdminChanged",
      "type": "event"
    },
    {
      "anonymous": false,
      "inputs": [
        {
          "indexed": true,
          "internalType": "address",
          "name": "beacon",
          "type": "address"
        }
      ],
      "name": "BeaconUpgraded",
      "type": "event"
    },
    {
      "anonymous": false,
      "inputs": [
        {
          "indexed": false,
          "internalType": "uint8",
          "name": "version",
          "type": "uint8"
        }
      ],
      "name": "Initialized",
      "type": "event"
    },
    {
      "anonymous": false,
      "inputs": [
        {
          "indexed": true,
          "internalType": "uint256",
          "name": "lotteryId",
          "type": "uint256"
        },
        {
          "indexed": true,
          "internalType": "enum Lottery.Status",
          "name": "status",
          "type": "uint8"
        }
      ],
      "name": "LotteryStatusChanged",
      "type": "event"
    },
    {
      "anonymous": false,
      "inputs": [
        {
          "indexed": false,
          "internalType": "address",
          "name": "account",
          "type": "address"
        }
      ],
      "name": "Paused",
      "type": "event"
    },
    {
      "anonymous": false,
      "inputs": [
        {
          "indexed": true,
          "internalType": "uint256",
          "name": "lotteryId",
          "type": "uint256"
        },
        {
          "indexed": true,
          "internalType": "address",
          "name": "participantAddress",
          "type": "address"
        },
        {
          "indexed": true,
          "internalType": "uint256",
          "name": "prizeId",
          "type": "uint256"
        }
      ],
      "name": "PrizeClaimed",
      "type": "event"
    },
    {
      "anonymous": false,
      "inputs": [
        {
          "indexed": true,
          "internalType": "uint256",
          "name": "lotteryId",
          "type": "uint256"
        },
        {
          "indexed": true,
          "internalType": "address",
          "name": "participantAddress",
          "type": "address"
        },
        {
          "indexed": false,
          "internalType": "uint256",
          "name": "amount",
          "type": "uint256"
        }
      ],
      "name": "Refunded",
      "type": "event"
    },
    {
      "anonymous": false,
      "inputs": [
        {
          "indexed": false,
          "internalType": "address",
          "name": "operator",
          "type": "address"
        },
        {
          "indexed": false,
          "internalType": "uint256",
          "name": "lotteryId",
          "type": "uint256"
        },
        {
          "indexed": false,
          "internalType": "uint256",
          "name": "priceOfTicket",
          "type": "uint256"
        }
      ],
      "name": "TicketCostChanged",
      "type": "event"
    },
    {
      "anonymous": false,
      "inputs": [
        {
          "indexed": true,
          "internalType": "uint256",
          "name": "lotteryId",
          "type": "uint256"
        },
        {
          "indexed": false,
          "internalType": "uint256",
          "name": "ticketNumber",
          "type": "uint256"
        },
        {
          "indexed": true,
          "internalType": "address",
          "name": "participantAddress",
          "type": "address"
        }
      ],
      "name": "TicketSold",
      "type": "event"
    },
    {
      "anonymous": false,
      "inputs": [
        {
          "indexed": false,
          "internalType": "address",
          "name": "account",
          "type": "address"
        }
      ],
      "name": "Unpaused",
      "type": "event"
    },
    {
      "anonymous": false,
      "inputs": [
        {
          "indexed": true,
          "internalType": "address",
          "name": "implementation",
          "type": "address"
        }
      ],
      "name": "Upgraded",
      "type": "event"
    },
    {
      "inputs": [
        {
          "internalType": "uint256",
          "name": "_lotteryId",
          "type": "uint256"
        },
        {
          "internalType": "uint256",
          "name": "_numberOfTicketsToBuy",
          "type": "uint256"
        }
      ],
      "name": "buyTickets",
      "outputs": [],
      "stateMutability": "nonpayable",
      "type": "function"
    },
    {
      "inputs": [
        {
          "internalType": "uint256",
          "name": "_points",
          "type": "uint256"
        },
        {
          "internalType": "uint256",
          "name": "_lotteryId",
          "type": "uint256"
        },
        {
          "internalType": "uint256",
          "name": "_numberOfTicketsToBuy",
          "type": "uint256"
        },
        {
          "internalType": "bytes",
          "name": "_sig",
          "type": "bytes"
        }
      ],
      "name": "buyTicketsWithSignedMessage",
      "outputs": [],
      "stateMutability": "nonpayable",
      "type": "function"
    },
    {
      "inputs": [
        {
          "internalType": "uint256",
          "name": "_lotteryId",
          "type": "uint256"
        }
      ],
      "name": "cancelLottery",
      "outputs": [],
      "stateMutability": "nonpayable",
      "type": "function"
    },
    {
      "inputs": [
        {
          "internalType": "uint256",
          "name": "_lotteryId",
          "type": "uint256"
        },
        {
          "internalType": "uint32",
          "name": "_time",
          "type": "uint32"
        }
      ],
      "name": "changeCloseTime",
      "outputs": [],
      "stateMutability": "nonpayable",
      "type": "function"
    },
    {
      "inputs": [
        {
          "components": [
            {
              "internalType": "uint256",
              "name": "lotteryId",
              "type": "uint256"
            },
            {
              "internalType": "address",
              "name": "winner",
              "type": "address"
            },
            {
              "internalType": "uint256",
              "name": "ticketNumber",
              "type": "uint256"
            },
            {
              "internalType": "string",
              "name": "uri",
              "type": "string"
            },
            {
              "internalType": "bytes32[]",
              "name": "proof",
              "type": "bytes32[]"
            }
          ],
          "internalType": "struct Lottery.ProofData",
          "name": "_proofData",
          "type": "tuple"
        }
      ],
      "name": "claimPrize",
      "outputs": [],
      "stateMutability": "nonpayable",
      "type": "function"
    },
    {
      "inputs": [
        {
          "components": [
            {
              "internalType": "uint256",
              "name": "lotteryId",
              "type": "uint256"
            },
            {
              "internalType": "address",
              "name": "winner",
              "type": "address"
            },
            {
              "internalType": "uint256",
              "name": "ticketNumber",
              "type": "uint256"
            },
            {
              "internalType": "string",
              "name": "uri",
              "type": "string"
            },
            {
              "internalType": "bytes32[]",
              "name": "proof",
              "type": "bytes32[]"
            }
          ],
          "internalType": "struct Lottery.ProofData[]",
          "name": "_proofData",
          "type": "tuple[]"
        }
      ],
      "name": "claimPrizeBatch",
      "outputs": [],
      "stateMutability": "nonpayable",
      "type": "function"
    },
    {
      "inputs": [
        {
          "internalType": "uint256",
          "name": "",
          "type": "uint256"
        },
        {
          "internalType": "uint256",
          "name": "",
          "type": "uint256"
        }
      ],
      "name": "claimedPrizes",
      "outputs": [
        {
          "internalType": "bool",
          "name": "",
          "type": "bool"
        }
      ],
      "stateMutability": "view",
      "type": "function"
    },
    {
      "inputs": [
        {
          "components": [
            {
              "internalType": "uint32",
              "name": "startTime",
              "type": "uint32"
            },
            {
              "internalType": "uint32",
              "name": "closeTime",
              "type": "uint32"
            },
            {
              "internalType": "uint32",
              "name": "participantsCount",
              "type": "uint32"
            },
            {
              "internalType": "uint32",
              "name": "maxTickets",
              "type": "uint32"
            },
            {
              "internalType": "uint32",
              "name": "maxTicketsPerUser",
              "type": "uint32"
            },
            {
              "internalType": "uint32",
              "name": "numberOfTicketsSold",
              "type": "uint32"
            },
            {
              "internalType": "uint32",
              "name": "numberOfEditions",
              "type": "uint32"
            },
            {
              "internalType": "enum Lottery.Status",
              "name": "status",
              "type": "uint8"
            },
            {
              "internalType": "contract INFT",
              "name": "nftContract",
              "type": "address"
            },
            {
              "internalType": "uint256",
              "name": "lotteryID",
              "type": "uint256"
            },
            {
              "internalType": "uint256",
              "name": "ticketCostPoints",
              "type": "uint256"
            },
            {
              "internalType": "uint256",
              "name": "ticketCostTokens",
              "type": "uint256"
            }
          ],
          "internalType": "struct Lottery.LotteryInfo",
          "name": "_lotteryInfo",
          "type": "tuple"
        }
      ],
      "name": "createLottery",
      "outputs": [],
      "stateMutability": "nonpayable",
      "type": "function"
    },
    {
      "inputs": [
        {
          "components": [
            {
              "internalType": "uint32",
              "name": "startTime",
              "type": "uint32"
            },
            {
              "internalType": "uint32",
              "name": "closeTime",
              "type": "uint32"
            },
            {
              "internalType": "uint32",
              "name": "participantsCount",
              "type": "uint32"
            },
            {
              "internalType": "uint32",
              "name": "maxTickets",
              "type": "uint32"
            },
            {
              "internalType": "uint32",
              "name": "maxTicketsPerUser",
              "type": "uint32"
            },
            {
              "internalType": "uint32",
              "name": "numberOfTicketsSold",
              "type": "uint32"
            },
            {
              "internalType": "uint32",
              "name": "numberOfEditions",
              "type": "uint32"
            },
            {
              "internalType": "enum Lottery.Status",
              "name": "status",
              "type": "uint8"
            },
            {
              "internalType": "contract INFT",
              "name": "nftContract",
              "type": "address"
            },
            {
              "internalType": "uint256",
              "name": "lotteryID",
              "type": "uint256"
            },
            {
              "internalType": "uint256",
              "name": "ticketCostPoints",
              "type": "uint256"
            },
            {
              "internalType": "uint256",
              "name": "ticketCostTokens",
              "type": "uint256"
            }
          ],
          "internalType": "struct Lottery.LotteryInfo[]",
          "name": "_lotteries",
          "type": "tuple[]"
        }
      ],
      "name": "createLotteryBatch",
      "outputs": [],
      "stateMutability": "nonpayable",
      "type": "function"
    },
    {
      "inputs": [],
      "name": "getLotteryCount",
      "outputs": [
        {
          "internalType": "uint256",
          "name": "",
          "type": "uint256"
        }
      ],
      "stateMutability": "view",
      "type": "function"
    },
    {
      "inputs": [
        {
          "internalType": "uint256",
          "name": "_lotteryId",
          "type": "uint256"
        }
      ],
      "name": "getLotteryInfo",
      "outputs": [
        {
          "components": [
            {
              "internalType": "uint32",
              "name": "startTime",
              "type": "uint32"
            },
            {
              "internalType": "uint32",
              "name": "closeTime",
              "type": "uint32"
            },
            {
              "internalType": "uint32",
              "name": "participantsCount",
              "type": "uint32"
            },
            {
              "internalType": "uint32",
              "name": "maxTickets",
              "type": "uint32"
            },
            {
              "internalType": "uint32",
              "name": "maxTicketsPerUser",
              "type": "uint32"
            },
            {
              "internalType": "uint32",
              "name": "numberOfTicketsSold",
              "type": "uint32"
            },
            {
              "internalType": "uint32",
              "name": "numberOfEditions",
              "type": "uint32"
            },
            {
              "internalType": "enum Lottery.Status",
              "name": "status",
              "type": "uint8"
            },
            {
              "internalType": "contract INFT",
              "name": "nftContract",
              "type": "address"
            },
            {
              "internalType": "uint256",
              "name": "lotteryID",
              "type": "uint256"
            },
            {
              "internalType": "uint256",
              "name": "ticketCostPoints",
              "type": "uint256"
            },
            {
              "internalType": "uint256",
              "name": "ticketCostTokens",
              "type": "uint256"
            }
          ],
          "internalType": "struct Lottery.LotteryInfo",
          "name": "",
          "type": "tuple"
        }
      ],
      "stateMutability": "view",
      "type": "function"
    },
    {
      "inputs": [
        {
          "internalType": "uint256",
          "name": "_lotteryId",
          "type": "uint256"
        }
      ],
      "name": "getLotteryTicketCount",
      "outputs": [
        {
          "internalType": "uint256",
          "name": "",
          "type": "uint256"
        }
      ],
      "stateMutability": "view",
      "type": "function"
    },
    {
      "inputs": [
        {
          "internalType": "uint256",
          "name": "_lotteryId",
          "type": "uint256"
        },
        {
          "internalType": "uint256",
          "name": "_from",
          "type": "uint256"
        },
        {
          "internalType": "uint256",
          "name": "_to",
          "type": "uint256"
        }
      ],
      "name": "getLotteryTickets",
      "outputs": [
        {
          "internalType": "address[]",
          "name": "",
          "type": "address[]"
        }
      ],
      "stateMutability": "view",
      "type": "function"
    },
    {
      "inputs": [
        {
          "internalType": "uint256",
          "name": "_lotteryId",
          "type": "uint256"
        }
      ],
      "name": "getParticipantsCount",
      "outputs": [
        {
          "internalType": "uint32",
          "name": "",
          "type": "uint32"
        }
      ],
      "stateMutability": "view",
      "type": "function"
    },
    {
      "inputs": [
        {
          "internalType": "uint256",
          "name": "_lotteryId",
          "type": "uint256"
        },
        {
          "internalType": "address",
          "name": "_user",
          "type": "address"
        }
      ],
      "name": "getTicketCountPerUser",
      "outputs": [
        {
          "internalType": "uint256",
          "name": "",
          "type": "uint256"
        }
      ],
      "stateMutability": "view",
      "type": "function"
    },
    {
      "inputs": [
        {
          "internalType": "uint256",
          "name": "_lotteryId",
          "type": "uint256"
        }
      ],
      "name": "getWhitelist",
      "outputs": [
        {
          "internalType": "address",
          "name": "",
          "type": "address"
        }
      ],
      "stateMutability": "view",
      "type": "function"
    },
    {
      "inputs": [
        {
          "internalType": "address",
          "name": "_rewardsContract",
          "type": "address"
        },
        {
          "internalType": "address",
          "name": "_admin",
          "type": "address"
        },
        {
          "internalType": "address",
          "name": "_token",
          "type": "address"
        },
        {
          "internalType": "address",
          "name": "_sageStorage",
          "type": "address"
        }
      ],
      "name": "initialize",
      "outputs": [],
      "stateMutability": "nonpayable",
      "type": "function"
    },
    {
      "inputs": [
        {
          "internalType": "uint256",
          "name": "",
          "type": "uint256"
        }
      ],
      "name": "lotteries",
      "outputs": [
        {
          "internalType": "uint256",
          "name": "",
          "type": "uint256"
        }
      ],
      "stateMutability": "view",
      "type": "function"
    },
    {
      "inputs": [
        {
          "internalType": "uint256",
          "name": "",
          "type": "uint256"
        },
        {
          "internalType": "uint256",
          "name": "",
          "type": "uint256"
        }
      ],
      "name": "lotteryTickets",
      "outputs": [
        {
          "internalType": "address",
          "name": "",
          "type": "address"
        }
      ],
      "stateMutability": "view",
      "type": "function"
    },
    {
      "inputs": [
        {
          "internalType": "uint256",
          "name": "",
          "type": "uint256"
        },
        {
          "internalType": "address",
          "name": "",
          "type": "address"
        }
      ],
      "name": "participantTicketCount",
      "outputs": [
        {
          "internalType": "uint256",
          "name": "",
          "type": "uint256"
        }
      ],
      "stateMutability": "view",
      "type": "function"
    },
    {
      "inputs": [],
      "name": "pause",
      "outputs": [],
      "stateMutability": "nonpayable",
      "type": "function"
    },
    {
      "inputs": [],
      "name": "paused",
      "outputs": [
        {
          "internalType": "bool",
          "name": "",
          "type": "bool"
        }
      ],
      "stateMutability": "view",
      "type": "function"
    },
    {
      "inputs": [
        {
          "internalType": "uint256",
          "name": "_lotteryId",
          "type": "uint256"
        },
        {
          "internalType": "uint256",
          "name": "_tokenId",
          "type": "uint256"
        }
      ],
      "name": "prizeClaimed",
      "outputs": [
        {
          "internalType": "bool",
          "name": "",
          "type": "bool"
        }
      ],
      "stateMutability": "view",
      "type": "function"
    },
    {
      "inputs": [
        {
          "internalType": "uint256",
          "name": "",
          "type": "uint256"
        }
      ],
      "name": "prizeMerkleRoots",
      "outputs": [
        {
          "internalType": "bytes32",
          "name": "",
          "type": "bytes32"
        }
      ],
      "stateMutability": "view",
      "type": "function"
    },
    {
      "inputs": [],
      "name": "proxiableUUID",
      "outputs": [
        {
          "internalType": "bytes32",
          "name": "",
          "type": "bytes32"
        }
      ],
      "stateMutability": "view",
      "type": "function"
    },
    {
      "inputs": [
        {
          "internalType": "uint256",
          "name": "",
          "type": "uint256"
        }
      ],
      "name": "randomSeeds",
      "outputs": [
        {
          "internalType": "uint256",
          "name": "",
          "type": "uint256"
        }
      ],
      "stateMutability": "view",
      "type": "function"
    },
    {
      "inputs": [
        {
          "internalType": "uint256",
          "name": "_lotteryId",
          "type": "uint256"
        },
        {
          "internalType": "uint256",
          "name": "_randomNumber",
          "type": "uint256"
        }
      ],
      "name": "receiveRandomNumber",
      "outputs": [],
      "stateMutability": "nonpayable",
      "type": "function"
    },
    {
      "inputs": [
        {
          "internalType": "address",
          "name": "_assetOwner",
          "type": "address"
        },
        {
          "internalType": "uint256",
          "name": "_lotteryId",
          "type": "uint256"
        },
        {
          "internalType": "uint256",
          "name": "_amount",
          "type": "uint256"
        }
      ],
      "name": "refund",
      "outputs": [],
      "stateMutability": "nonpayable",
      "type": "function"
    },
    {
      "inputs": [
        {
          "internalType": "address[]",
          "name": "_owners",
          "type": "address[]"
        },
        {
          "internalType": "uint256",
          "name": "_lotteryId",
          "type": "uint256"
        },
        {
          "internalType": "uint256[]",
          "name": "_amounts",
          "type": "uint256[]"
        }
      ],
      "name": "refundBatch",
      "outputs": [],
      "stateMutability": "nonpayable",
      "type": "function"
    },
    {
      "inputs": [
        {
          "internalType": "uint256",
          "name": "",
          "type": "uint256"
        },
        {
          "internalType": "address",
          "name": "",
          "type": "address"
        }
      ],
      "name": "refunds",
      "outputs": [
        {
          "internalType": "uint256",
          "name": "",
          "type": "uint256"
        }
      ],
      "stateMutability": "view",
      "type": "function"
    },
    {
      "inputs": [
        {
          "internalType": "uint256",
          "name": "_lotteryId",
          "type": "uint256"
        }
      ],
      "name": "requestRandomNumber",
      "outputs": [],
      "stateMutability": "nonpayable",
      "type": "function"
    },
    {
      "inputs": [],
      "name": "rewardsContract",
      "outputs": [
        {
          "internalType": "contract IRewards",
          "name": "",
          "type": "address"
        }
      ],
      "stateMutability": "view",
      "type": "function"
    },
    {
      "inputs": [
        {
          "internalType": "uint256",
          "name": "_lotteryId",
          "type": "uint256"
        },
        {
          "internalType": "uint32",
          "name": "_maxTickets",
          "type": "uint32"
        }
      ],
      "name": "setMaxTickets",
      "outputs": [],
      "stateMutability": "nonpayable",
      "type": "function"
    },
    {
      "inputs": [
        {
          "internalType": "uint256",
          "name": "_lotteryId",
          "type": "uint256"
        },
        {
          "internalType": "uint32",
          "name": "_maxTicketsPerUser",
          "type": "uint32"
        }
      ],
      "name": "setMaxTicketsPerUser",
      "outputs": [],
      "stateMutability": "nonpayable",
      "type": "function"
    },
    {
      "inputs": [
        {
          "internalType": "uint256",
          "name": "_lotteryId",
          "type": "uint256"
        },
        {
          "internalType": "bytes32",
          "name": "_root",
          "type": "bytes32"
        }
      ],
      "name": "setPrizeMerkleRoot",
      "outputs": [],
      "stateMutability": "nonpayable",
      "type": "function"
    },
    {
      "inputs": [
        {
          "internalType": "address",
          "name": "_IRandomNumberGenerator",
          "type": "address"
        }
      ],
      "name": "setRandomGenerator",
      "outputs": [],
      "stateMutability": "nonpayable",
      "type": "function"
    },
    {
      "inputs": [
        {
          "internalType": "address",
          "name": "_rewardsContract",
          "type": "address"
        }
      ],
      "name": "setRewardsContract",
      "outputs": [],
      "stateMutability": "nonpayable",
      "type": "function"
    },
    {
      "inputs": [
        {
          "internalType": "address",
          "name": "_signer",
          "type": "address"
        }
      ],
      "name": "setSignerAddress",
      "outputs": [],
      "stateMutability": "nonpayable",
      "type": "function"
    },
    {
      "inputs": [
        {
          "internalType": "address",
          "name": "_token",
          "type": "address"
        }
      ],
      "name": "setToken",
      "outputs": [],
      "stateMutability": "nonpayable",
      "type": "function"
    },
    {
      "inputs": [
        {
          "internalType": "uint256",
          "name": "_lotteryId",
          "type": "uint256"
        },
        {
          "internalType": "address",
          "name": "_whitelist",
          "type": "address"
        }
      ],
      "name": "setWhitelist",
      "outputs": [],
      "stateMutability": "nonpayable",
      "type": "function"
    },
    {
      "inputs": [],
      "name": "token",
      "outputs": [
        {
          "internalType": "contract IERC20",
          "name": "",
          "type": "address"
        }
      ],
      "stateMutability": "view",
      "type": "function"
    },
    {
      "inputs": [],
      "name": "unpause",
      "outputs": [],
      "stateMutability": "nonpayable",
      "type": "function"
    },
    {
      "inputs": [
        {
          "internalType": "uint256",
          "name": "lotteryId",
          "type": "uint256"
        },
        {
          "internalType": "uint256",
          "name": "_ticketCostPoints",
          "type": "uint256"
        },
        {
          "internalType": "uint256",
          "name": "_ticketCostTokens",
          "type": "uint256"
        },
        {
          "internalType": "uint32",
          "name": "_startTime",
          "type": "uint32"
        },
        {
          "internalType": "uint32",
          "name": "_closeTime",
          "type": "uint32"
        },
        {
          "internalType": "contract INFT",
          "name": "_nftContract",
          "type": "address"
        },
        {
          "internalType": "uint16",
          "name": "_maxTickets",
          "type": "uint16"
        },
        {
          "internalType": "enum Lottery.Status",
          "name": "_status",
          "type": "uint8"
        },
        {
          "internalType": "uint32",
          "name": "_numberOfEditions",
          "type": "uint32"
        }
      ],
      "name": "updateLottery",
      "outputs": [],
      "stateMutability": "nonpayable",
      "type": "function"
    },
    {
      "inputs": [
        {
          "internalType": "address",
          "name": "newImplementation",
          "type": "address"
        }
      ],
      "name": "upgradeTo",
      "outputs": [],
      "stateMutability": "nonpayable",
      "type": "function"
    },
    {
      "inputs": [
        {
          "internalType": "address",
          "name": "newImplementation",
          "type": "address"
        },
        {
          "internalType": "bytes",
          "name": "data",
          "type": "bytes"
        }
      ],
      "name": "upgradeToAndCall",
      "outputs": [],
      "stateMutability": "payable",
      "type": "function"
    },
    {
      "inputs": [
        {
          "internalType": "uint256",
          "name": "",
          "type": "uint256"
        }
      ],
      "name": "whitelists",
      "outputs": [
        {
          "internalType": "address",
          "name": "",
          "type": "address"
        }
      ],
      "stateMutability": "view",
      "type": "function"
    },
    {
      "inputs": [
        {
          "internalType": "uint256",
          "name": "_amount",
          "type": "uint256"
        }
      ],
      "name": "withdraw",
      "outputs": [],
      "stateMutability": "nonpayable",
      "type": "function"
    }
  ],
  "bytecode": "0x60a0604052306080523480156200001557600080fd5b506200002062000026565b620000e8565b600054610100900460ff1615620000935760405162461bcd60e51b815260206004820152602760248201527f496e697469616c697a61626c653a20636f6e747261637420697320696e697469604482015266616c697a696e6760c81b606482015260840160405180910390fd5b60005460ff9081161015620000e6576000805460ff191660ff9081179091556040519081527f7f26b83ff96e1f2b6a682f133852f6798a09c465da95921460cefb38474024989060200160405180910390a15b565b608051614f0462000120600039600081816115ad015281816115ed01528181611a9901528181611ad90152611c160152614f046000f3fe6080604052600436106102885760003560e01c80636a6be3151161015a578063c730bba0116100c1578063f4f46e351161007a578063f4f46e3514610877578063f5f4899814610897578063f8c8765e146108e6578063f90328d514610906578063fc0c546a14610941578063fe4d5add1461096157600080fd5b8063c730bba014610777578063d098a2f0146107af578063d89da286146107dc578063db2c0fd1146107fc578063dfa0dfa514610837578063eb1ea5211461085757600080fd5b80638c8bf83b116101135780638c8bf83b1461067a57806396db752a1461069a5780639b7fecc3146106d0578063b1eb96c9146106fd578063bf4002b21461071d578063c11ab6151461073d57600080fd5b80636a6be315146105b857806372f5b6c2146105d85780637350ab2c146105f857806376b3c8a8146106185780638456cb59146106455780638627df461461065a57600080fd5b80633f4ba83a116101fe5780634bc19fee116101b75780634bc19fee1461050c5780634f1ef2861461052c57806350612da61461053f57806352d1902d1461055f5780635c975abb146105745780636013457f1461059857600080fd5b80633f4ba83a1461041c57806340cf23d9146104315780634538f29714610474578063454cc4bc1461049457806349c0de88146104cc5780634a004467146104ec57600080fd5b80632368040011610250578063236804001461035a57806327a38a9e146103875780632801f84a146103a75780632e1a7d4d146103c75780632f9aa1fe146103e75780633659cfe6146103fc57600080fd5b8063046dc1661461028d5780631398e076146102af578063144fa6d7146102e257806318fd890314610302578063220cce9714610322575b600080fd5b34801561029957600080fd5b506102ad6102a8366004613f2d565b610997565b005b3480156102bb57600080fd5b506102cf6102ca366004613f4a565b610a5e565b6040519081526020015b60405180910390f35b3480156102ee57600080fd5b506102ad6102fd366004613f2d565b610a7f565b34801561030e57600080fd5b506102ad61031d366004613f63565b610b3d565b34801561032e57600080fd5b5060cd54610342906001600160a01b031681565b6040516001600160a01b0390911681526020016102d9565b34801561036657600080fd5b506102cf610375366004613f4a565b60d56020526000908152604090205481565b34801561039357600080fd5b506102ad6103a2366004613f98565b610d6a565b3480156103b357600080fd5b506102ad6103c2366004613ff1565b6111f0565b3480156103d357600080fd5b506102ad6103e2366004613f4a565b61141a565b3480156103f357600080fd5b5060ce546102cf565b34801561040857600080fd5b506102ad610417366004613f2d565b6115a3565b34801561042857600080fd5b506102ad611682565b34801561043d57600080fd5b506102cf61044c366004614099565b600091825260d3602090815260408084206001600160a01b0393909316845291905290205490565b34801561048057600080fd5b506102ad61048f366004613f4a565b611728565b3480156104a057600080fd5b506102cf6104af366004614099565b60d460209081526000928352604080842090915290825290205481565b3480156104d857600080fd5b506103426104e73660046140c9565b611874565b3480156104f857600080fd5b506102ad6105073660046140eb565b6118ac565b34801561051857600080fd5b506102ad610527366004613f2d565b61197b565b6102ad61053a3660046141d5565b611a8f565b34801561054b57600080fd5b506102ad61055a3660046140c9565b611b5b565b34801561056b57600080fd5b506102cf611c09565b34801561058057600080fd5b5060975460ff165b60405190151581526020016102d9565b3480156105a457600080fd5b506102ad6105b3366004614238565b611cbc565b3480156105c457600080fd5b506102ad6105d33660046140eb565b611f23565b3480156105e457600080fd5b506102ad6105f3366004614251565b612069565b34801561060457600080fd5b506102ad6106133660046142c6565b612148565b34801561062457600080fd5b50610638610633366004613f4a565b612309565b6040516102d9919061438a565b34801561065157600080fd5b506102ad612465565b34801561066657600080fd5b506102ad6106753660046140c9565b612509565b34801561068657600080fd5b506102ad610695366004614478565b6129d9565b3480156106a657600080fd5b506103426106b5366004613f4a565b600090815260d060205260409020546001600160a01b031690565b3480156106dc57600080fd5b506106f06106eb3660046144da565b612a1c565b6040516102d99190614506565b34801561070957600080fd5b506102ad610718366004613f4a565b612b06565b34801561072957600080fd5b506102ad6107383660046140eb565b612db0565b34801561074957600080fd5b506102cf610758366004613f4a565b600090815260cf6020526040902054600160a01b900463ffffffff1690565b34801561078357600080fd5b506102cf610792366004614099565b60d360209081526000928352604080842090915290825290205481565b3480156107bb57600080fd5b506102cf6107ca366004613f4a565b60d16020526000908152604090205481565b3480156107e857600080fd5b506102ad6107f7366004614099565b612e7f565b34801561080857600080fd5b506105886108173660046140c9565b600091825260d26020908152604080842092845291905290205460ff1690565b34801561084357600080fd5b506102ad610852366004613f2d565b612f49565b34801561086357600080fd5b506102ad6108723660046140c9565b613007565b34801561088357600080fd5b506102ad6108923660046145e1565b613106565b3480156108a357600080fd5b506108d16108b2366004613f4a565b600090815260cf6020526040902054600160401b900463ffffffff1690565b60405163ffffffff90911681526020016102d9565b3480156108f257600080fd5b506102ad6109013660046146ab565b6131a9565b34801561091257600080fd5b506105886109213660046140c9565b60d260209081526000928352604080842090915290825290205460ff1681565b34801561094d57600080fd5b5060cb54610342906001600160a01b031681565b34801561096d57600080fd5b5061034261097c366004613f4a565b60d0602052600090815260409020546001600160a01b031681565b60c954604051632474521560e21b8152600080516020614eaf83398151915260048201523360248201526001600160a01b03909116906391d1485490604401602060405180830381865afa1580156109f3573d6000803e3d6000fd5b505050506040513d601f19601f82011682018060405250810190610a179190614707565b610a3c5760405162461bcd60e51b8152600401610a3390614729565b60405180910390fd5b60ca80546001600160a01b0319166001600160a01b0392909216919091179055565b60ce8181548110610a6e57600080fd5b600091825260209091200154905081565b60c954604051632474521560e21b8152600080516020614eaf83398151915260048201523360248201526001600160a01b03909116906391d1485490604401602060405180830381865afa158015610adb573d6000803e3d6000fd5b505050506040513d601f19601f82011682018060405250810190610aff9190614707565b610b1b5760405162461bcd60e51b8152600401610a3390614729565b60cb80546001600160a01b0319166001600160a01b0392909216919091179055565b610b4561330f565b600082815260cf6020526040902081610b915760405162461bcd60e51b815260206004820152600e60248201526d043616e277420726566756e6420360941b6044820152606401610a33565b60008154600160e01b900460ff166003811115610bb057610bb0614352565b03610bf55760405162461bcd60e51b8152602060048201526015602482015274496e76616c6964206c6f747465727920737461746560581b6044820152606401610a33565b600083815260d4602090815260408083206001600160a01b0388168452909152902054821115610c715760405162461bcd60e51b815260206004820152602160248201527f43616e277420726566756e642074686520616d6f756e742072657175657374656044820152601960fa1b6064820152608401610a33565b600083815260d4602090815260408083206001600160a01b038816845290915281208054849290610ca3908490614769565b909155505060cb5460405163a9059cbb60e01b81526001600160a01b038681166004830152602482018590529091169063a9059cbb906044016020604051808303816000875af1158015610cfb573d6000803e3d6000fd5b505050506040513d601f19601f82011682018060405250810190610d1f9190614707565b50836001600160a01b0316837f7ca5472b7ea78c2c0141c5a12ee6d170cf4ce8ed06be3d22c8252ddfc7a6a2c484604051610d5c91815260200190565b60405180910390a350505050565b610d7261330f565b8035600081815260d26020908152604080832081860135845290915290205460ff1615610deb5760405162461bcd60e51b815260206004820152602160248201527f5061727469636970616e7420616c726561647920636c61696d6564207072697a6044820152606560f81b6064820152608401610a33565b610e52610dff610dfa84614780565b613355565b600083815260d16020526040902054610e1b6080860186614829565b8080602002602001604051908101604052809392919081815260200183836020028082843760009201919091525061339b92505050565b610e955760405162461bcd60e51b815260206004820152601460248201527324b73b30b634b21036b2b935b63290383937b7b360611b6044820152606401610a33565b600081815260cf60205260409020600181015460048201546001600160a01b039091169080156110fd57600084815260d46020908152604080832033845290915281208054839290610ee8908490614769565b9091555060009050612710610efb6133b0565b610f059084614872565b610f0f9190614891565b905060cb60009054906101000a90046001600160a01b03166001600160a01b031663a9059cbb846001600160a01b03166343bc16126040518163ffffffff1660e01b8152600401602060405180830381865afa158015610f73573d6000803e3d6000fd5b505050506040513d601f19601f82011682018060405250810190610f9791906148b3565b6040516001600160e01b031960e084901b1681526001600160a01b039091166004820152602481018490526044016020604051808303816000875af1158015610fe4573d6000803e3d6000fd5b505050506040513d601f19601f820116820180604052508101906110089190614707565b5060cb5460c95460408051634783c35b60e01b815290516001600160a01b039384169363a9059cbb931691634783c35b9160048083019260209291908290030181865afa15801561105d573d6000803e3d6000fd5b505050506040513d601f19601f8201168201806040525081019061108191906148b3565b61108b8486614769565b6040516001600160e01b031960e085901b1681526001600160a01b03909216600483015260248201526044016020604051808303816000875af11580156110d6573d6000803e3d6000fd5b505050506040513d601f19601f820116820180604052508101906110fa9190614707565b50505b600084815260d260209081526040808320888201803585529083529220805460ff191660011790556001600160a01b0384169163d204c45e9161114291908901613f2d565b61114f60608901896148d0565b6040518463ffffffff1660e01b815260040161116d93929190614916565b600060405180830381600087803b15801561118757600080fd5b505af115801561119b573d6000803e3d6000fd5b50505060408601803591506111b39060208801613f2d565b6001600160a01b0316857f4aa95f981a8337cb337de335b965507da0879c3b49f799d20058e913f5ad2c2660405160405180910390a45050505050565b60c954604051632474521560e21b8152600080516020614eaf83398151915260048201523360248201526001600160a01b03909116906391d1485490604401602060405180830381865afa15801561124c573d6000803e3d6000fd5b505050506040513d601f19601f820116820180604052508101906112709190614707565b61128c5760405162461bcd60e51b8152600401610a3390614729565b858560008263ffffffff16116112d95760405162461bcd60e51b8152602060048201526012602482015271496e76616c69642073746172742074696d6560701b6044820152606401610a33565b8163ffffffff168163ffffffff16116113045760405162461bcd60e51b8152600401610a3390614956565b60008b815260cf60205260409020805460038083018d9055600483018c90556001830180546001600160a01b038b166001600160a01b0319909116179055600160601b61ffff89160263ffffffff60601b1963ffffffff8c81166401000000000267ffffffffffffffff19909516908e161793909317928316811784558792849260ff60e01b1990921670ff000000000000000000000000ffffffff60601b199091161790600160e01b9084908111156113c0576113c0614352565b0217905550805463ffffffff60c01b1916600160c01b63ffffffff8616021781558460038111156113f3576113f3614352565b6040518d90600080516020614e4883398151915290600090a3505050505050505050505050565b60c954604051632474521560e21b8152600080516020614eaf83398151915260048201523360248201526001600160a01b03909116906391d1485490604401602060405180830381865afa158015611476573d6000803e3d6000fd5b505050506040513d601f19601f8201168201806040525081019061149a9190614707565b6114b65760405162461bcd60e51b8152600401610a3390614729565b60cb5460c95460408051634783c35b60e01b815290516001600160a01b039384169363a9059cbb931691634783c35b9160048083019260209291908290030181865afa15801561150a573d6000803e3d6000fd5b505050506040513d601f19601f8201168201806040525081019061152e91906148b3565b6040516001600160e01b031960e084901b1681526001600160a01b039091166004820152602481018490526044016020604051808303816000875af115801561157b573d6000803e3d6000fd5b505050506040513d601f19601f8201168201806040525081019061159f9190614707565b5050565b6001600160a01b037f00000000000000000000000000000000000000000000000000000000000000001630036115eb5760405162461bcd60e51b8152600401610a3390614999565b7f00000000000000000000000000000000000000000000000000000000000000006001600160a01b0316611634600080516020614e68833981519152546001600160a01b031690565b6001600160a01b03161461165a5760405162461bcd60e51b8152600401610a33906149e5565b6116638161353d565b6040805160008082526020820190925261167f918391906135d0565b50565b60c954604051632474521560e21b8152600080516020614eaf83398151915260048201523360248201526001600160a01b03909116906391d1485490604401602060405180830381865afa1580156116de573d6000803e3d6000fd5b505050506040513d601f19601f820116820180604052508101906117029190614707565b61171e5760405162461bcd60e51b8152600401610a3390614729565b611726613740565b565b60c954604051632474521560e21b8152600080516020614eaf83398151915260048201523360248201526001600160a01b03909116906391d1485490604401602060405180830381865afa158015611784573d6000803e3d6000fd5b505050506040513d601f19601f820116820180604052508101906117a89190614707565b6117c45760405162461bcd60e51b8152600401610a3390614729565b600081815260cf602052604090208054600160401b900463ffffffff161561182e5760405162461bcd60e51b815260206004820152601760248201527f4c6f747465727920616c726561647920737461727465640000000000000000006044820152606401610a33565b805460ff60e01b1916600160e01b9081178083550460ff16600381111561185757611857614352565b6040518390600080516020614e4883398151915290600090a35050565b60d6602052816000526040600020818154811061189057600080fd5b6000918252602090912001546001600160a01b03169150829050565b60c954604051632474521560e21b8152600080516020614eaf83398151915260048201523360248201526001600160a01b03909116906391d1485490604401602060405180830381865afa158015611908573d6000803e3d6000fd5b505050506040513d601f19601f8201168201806040525081019061192c9190614707565b6119485760405162461bcd60e51b8152600401610a3390614729565b600091825260cf6020526040909120805463ffffffff909216600160801b0263ffffffff60801b19909216919091179055565b60c954604051632474521560e21b8152600080516020614eaf83398151915260048201523360248201526001600160a01b03909116906391d1485490604401602060405180830381865afa1580156119d7573d6000803e3d6000fd5b505050506040513d601f19601f820116820180604052508101906119fb9190614707565b611a175760405162461bcd60e51b8152600401610a3390614729565b6001600160a01b038116611a6d5760405162461bcd60e51b815260206004820152601d60248201527f436f6e7472616374732063616e6e6f74206265203020616464726573730000006044820152606401610a33565b60cc80546001600160a01b0319166001600160a01b0392909216919091179055565b6001600160a01b037f0000000000000000000000000000000000000000000000000000000000000000163003611ad75760405162461bcd60e51b8152600401610a3390614999565b7f00000000000000000000000000000000000000000000000000000000000000006001600160a01b0316611b20600080516020614e68833981519152546001600160a01b031690565b6001600160a01b031614611b465760405162461bcd60e51b8152600401610a33906149e5565b611b4f8261353d565b61159f828260016135d0565b60c954604051632474521560e21b8152600080516020614eaf83398151915260048201523360248201526001600160a01b03909116906391d1485490604401602060405180830381865afa158015611bb7573d6000803e3d6000fd5b505050506040513d601f19601f82011682018060405250810190611bdb9190614707565b611bf75760405162461bcd60e51b8152600401610a3390614729565b600091825260d1602052604090912055565b6000306001600160a01b037f00000000000000000000000000000000000000000000000000000000000000001614611ca95760405162461bcd60e51b815260206004820152603860248201527f555550535570677261646561626c653a206d757374206e6f742062652063616c60448201527f6c6564207468726f7567682064656c656761746563616c6c00000000000000006064820152608401610a33565b50600080516020614e6883398151915290565b60c954604051632474521560e21b8152600080516020614eaf83398151915260048201523360248201526001600160a01b03909116906391d1485490604401602060405180830381865afa158015611d18573d6000803e3d6000fd5b505050506040513d601f19601f82011682018060405250810190611d3c9190614707565b611d585760405162461bcd60e51b8152600401610a3390614729565b611d656020820182614a31565b611d756040830160208401614a31565b60008263ffffffff1611611dc05760405162461bcd60e51b8152602060048201526012602482015271496e76616c69642073746172742074696d6560701b6044820152606401610a33565b8163ffffffff168163ffffffff1611611deb5760405162461bcd60e51b8152600401610a3390614956565b6000611dfd60e0850160c08601614a31565b63ffffffff1611611e415760405162461bcd60e51b815260206004820152600e60248201526d496e76616c6964207072697a657360901b6044820152606401610a33565b610120830135600090815260cf6020526040902054600160c01b900463ffffffff1615611ea95760405162461bcd60e51b81526020600482015260166024820152754c6f747465727920616c72656164792065786973747360501b6044820152606401610a33565b60ce8054600181019091556101208401357fd36cd1c74ef8d7326d8021b776c18fb5a5724b7f7bc93c2f42e43e10ef27d12a909101819055600090815260cf602052604090208390611efb8282614ab6565b506000905060405161012085013590600080516020614e4883398151915290600090a3505050565b60c954604051632474521560e21b8152600080516020614eaf83398151915260048201523360248201526001600160a01b03909116906391d1485490604401602060405180830381865afa158015611f7f573d6000803e3d6000fd5b505050506040513d601f19601f82011682018060405250810190611fa39190614707565b611fbf5760405162461bcd60e51b8152600401610a3390614729565b600082815260cf60205260409020805463ffffffff166120185760405162461bcd60e51b8152602060048201526014602482015273131bdd1d195c9e481a59081b9bdd08199bdd5b9960621b6044820152606401610a33565b805463ffffffff908116908316116120425760405162461bcd60e51b8152600401610a3390614956565b805463ffffffff9092166401000000000267ffffffff000000001990921691909117905550565b60c954604051632474521560e21b8152600080516020614eaf83398151915260048201523360248201526001600160a01b03909116906391d1485490604401602060405180830381865afa1580156120c5573d6000803e3d6000fd5b505050506040513d601f19601f820116820180604052508101906120e99190614707565b6121055760405162461bcd60e51b8152600401610a3390614729565b8060005b818110156121425761213284848381811061212657612126614c7d565b90506101800201611cbc565b61213b81614c93565b9050612109565b50505050565b60408051336020820181905291810187905260009061217f9060600160405160208183030381529060405280519060200120613792565b60ca54604080516020601f88018190048102820181019092528681529293506001600160a01b03909116916121d19184919088908890819084018382808284376000920191909152506137cd92505050565b6001600160a01b03161461221b5760405162461bcd60e51b8152602060048201526011602482015270496e76616c6964207369676e617475726560781b6044820152606401610a33565b60cd5460405163f662781d60e01b81526001600160a01b0384811660048301528992169063f662781d90602401602060405180830381865afa158015612265573d6000803e3d6000fd5b505050506040513d601f19601f820116820180604052508101906122899190614cac565b10156122f65760cd54604051630259ab7760e61b81526001600160a01b038481166004830152602482018a90529091169063966addc090604401600060405180830381600087803b1580156122dd57600080fd5b505af11580156122f1573d6000803e3d6000fd5b505050505b6123008686612509565b50505050505050565b6123766040805161018081018252600080825260208201819052918101829052606081018290526080810182905260a0810182905260c081018290529060e0820190815260200160006001600160a01b031681526020016000815260200160008152602001600081525090565b600082815260cf6020908152604091829020825161018081018452815463ffffffff80821683526401000000008204811694830194909452600160401b8104841694820194909452600160601b840483166060820152600160801b840483166080820152600160a01b8404831660a0820152600160c01b840490921660c0830152909160e0830190600160e01b900460ff16600381111561241957612419614352565b600381111561242a5761242a614352565b815260018201546001600160a01b03166020820152600282015460408201526003820154606082015260049091015460809091015292915050565b60c954604051632474521560e21b8152600080516020614eaf83398151915260048201523360248201526001600160a01b03909116906391d1485490604401602060405180830381865afa1580156124c1573d6000803e3d6000fd5b505050506040513d601f19601f820116820180604052508101906124e59190614707565b6125015760405162461bcd60e51b8152600401610a3390614729565b6117266137f1565b61251161330f565b600082815260d0602052604090205482906001600160a01b0316156125ee57600081815260d06020526040908190205490516320c18e6b60e21b8152336004820152602481018390526001600160a01b039091169063830639ac90604401602060405180830381865afa15801561258c573d6000803e3d6000fd5b505050506040513d601f19601f820116820180604052508101906125b09190614707565b6125ee5760405162461bcd60e51b815260206004820152600f60248201526e139bdd081dda1a5d195b1a5cdd1959608a1b6044820152606401610a33565b600083815260cf60205260408120805490919081908190600160601b900463ffffffff161561267c57835463ffffffff600160601b820481169161263b918991600160a01b900416614cc5565b111561267c5760405162461bcd60e51b815260206004820152601060248201526f151a58dad95d1cc81cdbdb19081bdd5d60821b6044820152606401610a33565b600087815260d3602090815260408083203384529091529020548454600160801b900463ffffffff1615612711578454600160801b900463ffffffff166126c38883614cc5565b11156127115760405162461bcd60e51b815260206004820181905260248201527f43616e277420627579207468697320616d6f756e74206f66207469636b6574736044820152606401610a33565b84544263ffffffff90911611801590612739575084544264010000000090910463ffffffff16115b8015612762575060018554600160e01b900460ff16600381111561275f5761275f614352565b14155b6127a45760405162461bcd60e51b81526020600482015260136024820152722637ba3a32b93c9034b9903737ba1037b832b760691b6044820152606401610a33565b60038501546127b39088614872565b925082156127c7576127c5338461382e565b505b60048501548554909250879086906014906127f0908490600160a01b900463ffffffff16614cdd565b92506101000a81548163ffffffff021916908363ffffffff16021790555060008211156128cd576128218288614872565b60cb546040516323b872dd60e01b8152336004820152306024820152604481018390529195506001600160a01b0316906323b872dd906064016020604051808303816000875af1158015612879573d6000803e3d6000fd5b505050506040513d601f19601f8201168201806040525081019061289d9190614707565b50600088815260d460209081526040808320338452909152812080548692906128c7908490614cc5565b90915550505b8060000361291157845485906008906128f290600160401b900463ffffffff16614d05565b91906101000a81548163ffffffff021916908363ffffffff1602179055505b600088815260d3602090815260408083203384529091528120805461ffff8a16929061293e908490614cc5565b9091555050600088815260d660205260408120905b888110156129cd5781546001810183556000838152602090200180546001600160a01b0319163390811790915582546040518c917fc41bbb54d04f2268c7895b9330f18468c306a3f92698a92c4c86b29787397848916129b591815260200190565b60405180910390a36129c681614c93565b9050612953565b50505050505050505050565b8060005b8181101561214257612a0c8484838181106129fa576129fa614c7d565b90506020028101906103a29190614d28565b612a1581614c93565b90506129dd565b60606000612a2a8484614769565b612a35906001614cc5565b6001600160401b03811115612a4c57612a4c614110565b604051908082528060200260200182016040528015612a75578160200160208202803683370190505b509050835b838111612afb57600086815260d660205260409020805482908110612aa157612aa1614c7d565b9060005260206000200160009054906101000a90046001600160a01b0316828281518110612ad157612ad1614c7d565b6001600160a01b039092166020928302919091019091015280612af381614c93565b915050612a7a565b5090505b9392505050565b60c954604051632474521560e21b8152600080516020614eaf83398151915260048201523360248201526001600160a01b03909116906391d1485490604401602060405180830381865afa158015612b62573d6000803e3d6000fd5b505050506040513d601f19601f82011682018060405250810190612b869190614707565b612ba25760405162461bcd60e51b8152600401610a3390614729565b600081815260cf60205260409020805463ffffffff16612bf95760405162461bcd60e51b8152602060048201526012602482015271125b9d985b1a59081b1bdd1d195c9e481a5960721b6044820152606401610a33565b80544264010000000090910463ffffffff1610612c505760405162461bcd60e51b8152602060048201526015602482015274131bdd1d195c9e481a5cc81b9bdd0818db1bdcd959605a1b6044820152606401610a33565b8054600160e01b900460ff166003816003811115612c7057612c70614352565b03612cbd5760405162461bcd60e51b815260206004820152601d60248201527f4c6f7474657279206d757374206e6f7420626520636f6d706c657465640000006044820152606401610a33565b815463ffffffff600160c01b82048116600160a01b9092041611612cf157815460ff60e01b1916600360e01b178255612d75565b8154600160e11b60ff60e01b1990911617825560cc54604051632f215ddf60e21b8152600481018590526001600160a01b039091169063bc85777c906024016020604051808303816000875af1158015612d4f573d6000803e3d6000fd5b505050506040513d601f19601f82011682018060405250810190612d739190614cac565b505b8154600160e01b900460ff166003811115612d9257612d92614352565b6040518490600080516020614e4883398151915290600090a3505050565b60c954604051632474521560e21b8152600080516020614eaf83398151915260048201523360248201526001600160a01b03909116906391d1485490604401602060405180830381865afa158015612e0c573d6000803e3d6000fd5b505050506040513d601f19601f82011682018060405250810190612e309190614707565b612e4c5760405162461bcd60e51b8152600401610a3390614729565b600091825260cf6020526040909120805463ffffffff909216600160601b0263ffffffff60601b19909216919091179055565b60c954604051632474521560e21b8152600080516020614eaf83398151915260048201523360248201526001600160a01b03909116906391d1485490604401602060405180830381865afa158015612edb573d6000803e3d6000fd5b505050506040513d601f19601f82011682018060405250810190612eff9190614707565b612f1b5760405162461bcd60e51b8152600401610a3390614729565b600091825260d0602052604090912080546001600160a01b0319166001600160a01b03909216919091179055565b60c954604051632474521560e21b8152600080516020614eaf83398151915260048201523360248201526001600160a01b03909116906391d1485490604401602060405180830381865afa158015612fa5573d6000803e3d6000fd5b505050506040513d601f19601f82011682018060405250810190612fc99190614707565b612fe55760405162461bcd60e51b8152600401610a3390614729565b60cd80546001600160a01b0319166001600160a01b0392909216919091179055565b60cc546001600160a01b031633146130545760405162461bcd60e51b815260206004820152601060248201526f4f6e6c7920524e47206164647265737360801b6044820152606401610a33565b600082815260cf6020526040902060038154600160e01b900460ff16600381111561308157613081614352565b036130c75760405162461bcd60e51b8152602060048201526016602482015275131bdd1d195c9e481b5d5cdd0818994818db1bdcd95960521b6044820152606401610a33565b805460ff60e01b1916600360e01b178155600083815260d5602052604090208290558054600160e01b900460ff166003811115612d9257612d92614352565b82518151811461314a5760405162461bcd60e51b815260206004820152600f60248201526e57726f6e6720617267756d656e747360881b6044820152606401610a33565b60005b818110156131a25761319285828151811061316a5761316a614c7d565b60200260200101518585848151811061318557613185614c7d565b6020026020010151610b3d565b61319b81614c93565b905061314d565b5050505050565b600054610100900460ff16158080156131c95750600054600160ff909116105b806131e35750303b1580156131e3575060005460ff166001145b6132465760405162461bcd60e51b815260206004820152602e60248201527f496e697469616c697a61626c653a20636f6e747261637420697320616c72656160448201526d191e481a5b9a5d1a585b1a5e995960921b6064820152608401610a33565b6000805460ff191660011790558015613269576000805461ff0019166101001790555b6132716138a6565b6132796138d5565b60cb80546001600160a01b038086166001600160a01b03199283161790925560ca805487841690831617905560cd805488841690831617905560c980549285169290911691909117905580156131a2576000805461ff0019169055604051600181527f7f26b83ff96e1f2b6a682f133852f6798a09c465da95921460cefb38474024989060200160405180910390a15050505050565b60975460ff16156117265760405162461bcd60e51b815260206004820152601060248201526f14185d5cd8589b194e881c185d5cd95960821b6044820152606401610a33565b6000816000015182602001518360400151846060015160405160200161337e9493929190614da0565b604051602081830303815290604052805190602001209050919050565b60006133a88284866138fc565b949350505050565b60c9546040516d616464726573732e636f6e66696760901b602082015260009182916001600160a01b03909116906321f8a72190602e01604051602081830303815290604052805190602001206040518263ffffffff1660e01b815260040161341b91815260200190565b602060405180830381865afa158015613438573d6000803e3d6000fd5b505050506040513d601f19601f8201168201806040525081019061345c91906148b3565b90506001600160a01b03811661347557611f4091505090565b6000816001600160a01b031663bd02d0f56040516020016134af90721cda185c994b9c1c9a5b585c9e505c9d1a5cdd606a1b815260130190565b604051602081830303815290604052805190602001206040518263ffffffff1660e01b81526004016134e391815260200190565b602060405180830381865afa158015613500573d6000803e3d6000fd5b505050506040513d601f19601f820116820180604052508101906135249190614cac565b905080156135325780613536565b611f405b9250505090565b60c95460408051634783c35b60e01b8152905133926001600160a01b031691634783c35b9160048083019260209291908290030181865afa158015613586573d6000803e3d6000fd5b505050506040513d601f19601f820116820180604052508101906135aa91906148b3565b6001600160a01b03161461167f5760405162461bcd60e51b8152600401610a3390614729565b7f4910fdfa16fed3260ed0e7147f7cc6da11a60208b5b9406d12a635614ffd91435460ff16156136085761360383613912565b505050565b826001600160a01b03166352d1902d6040518163ffffffff1660e01b8152600401602060405180830381865afa925050508015613662575060408051601f3d908101601f1916820190925261365f91810190614cac565b60015b6136c55760405162461bcd60e51b815260206004820152602e60248201527f45524331393637557067726164653a206e657720696d706c656d656e7461746960448201526d6f6e206973206e6f74205555505360901b6064820152608401610a33565b600080516020614e6883398151915281146137345760405162461bcd60e51b815260206004820152602960248201527f45524331393637557067726164653a20756e737570706f727465642070726f786044820152681a58589b195555525160ba1b6064820152608401610a33565b506136038383836139ae565b6137486139d3565b6097805460ff191690557f5db9ee0a495bf2e6ff9c91a7834c1ba4fdd244a5e8aa4e537bd38aeae4b073aa335b6040516001600160a01b03909116815260200160405180910390a1565b6040517f19457468657265756d205369676e6564204d6573736167653a0a3332000000006020820152603c8101829052600090605c0161337e565b60008060006137dc8585613a1c565b915091506137e981613a61565b509392505050565b6137f961330f565b6097805460ff191660011790557f62e78cea01bee320cd4e420270b5ea74000d11b0c9f74754ebdbfc544b05a2586137753390565b60cd54604051631e961d2760e01b81526001600160a01b038481166004830152602482018490526000921690631e961d27906044016020604051808303816000875af1158015613882573d6000803e3d6000fd5b505050506040513d601f19601f82011682018060405250810190612aff9190614cac565b600054610100900460ff166138cd5760405162461bcd60e51b8152600401610a3390614dd7565b611726613c17565b600054610100900460ff166117265760405162461bcd60e51b8152600401610a3390614dd7565b6000826139098584613c4a565b14949350505050565b6001600160a01b0381163b61397f5760405162461bcd60e51b815260206004820152602d60248201527f455243313936373a206e657720696d706c656d656e746174696f6e206973206e60448201526c1bdd08184818dbdb9d1c9858dd609a1b6064820152608401610a33565b600080516020614e6883398151915280546001600160a01b0319166001600160a01b0392909216919091179055565b6139b783613c8f565b6000825111806139c45750805b15613603576121428383613ccf565b60975460ff166117265760405162461bcd60e51b815260206004820152601460248201527314185d5cd8589b194e881b9bdd081c185d5cd95960621b6044820152606401610a33565b6000808251604103613a525760208301516040840151606085015160001a613a4687828585613dc3565b94509450505050613a5a565b506000905060025b9250929050565b6000816004811115613a7557613a75614352565b03613a7d5750565b6001816004811115613a9157613a91614352565b03613ade5760405162461bcd60e51b815260206004820152601860248201527f45434453413a20696e76616c6964207369676e617475726500000000000000006044820152606401610a33565b6002816004811115613af257613af2614352565b03613b3f5760405162461bcd60e51b815260206004820152601f60248201527f45434453413a20696e76616c6964207369676e6174757265206c656e677468006044820152606401610a33565b6003816004811115613b5357613b53614352565b03613bab5760405162461bcd60e51b815260206004820152602260248201527f45434453413a20696e76616c6964207369676e6174757265202773272076616c604482015261756560f01b6064820152608401610a33565b6004816004811115613bbf57613bbf614352565b0361167f5760405162461bcd60e51b815260206004820152602260248201527f45434453413a20696e76616c6964207369676e6174757265202776272076616c604482015261756560f01b6064820152608401610a33565b600054610100900460ff16613c3e5760405162461bcd60e51b8152600401610a3390614dd7565b6097805460ff19169055565b600081815b84518110156137e957613c7b82868381518110613c6e57613c6e614c7d565b6020026020010151613eb0565b915080613c8781614c93565b915050613c4f565b613c9881613912565b6040516001600160a01b038216907fbc7cd75a20ee27fd9adebab32041f755214dbc6bffa90cc0225b39da2e5c2d3b90600090a250565b60606001600160a01b0383163b613d375760405162461bcd60e51b815260206004820152602660248201527f416464726573733a2064656c65676174652063616c6c20746f206e6f6e2d636f6044820152651b9d1c9858dd60d21b6064820152608401610a33565b600080846001600160a01b031684604051613d529190614e22565b600060405180830381855af49150503d8060008114613d8d576040519150601f19603f3d011682016040523d82523d6000602084013e613d92565b606091505b5091509150613dba8282604051806060016040528060278152602001614e8860279139613edf565b95945050505050565b6000807f7fffffffffffffffffffffffffffffff5d576e7357a4501ddfe92f46681b20a0831115613dfa5750600090506003613ea7565b8460ff16601b14158015613e1257508460ff16601c14155b15613e235750600090506004613ea7565b6040805160008082526020820180845289905260ff881692820192909252606081018690526080810185905260019060a0016020604051602081039080840390855afa158015613e77573d6000803e3d6000fd5b5050604051601f1901519150506001600160a01b038116613ea057600060019250925050613ea7565b9150600090505b94509492505050565b6000818310613ecc576000828152602084905260409020612aff565b6000838152602083905260409020612aff565b60608315613eee575081612aff565b825115613efe5782518084602001fd5b8160405162461bcd60e51b8152600401610a339190614e34565b6001600160a01b038116811461167f57600080fd5b600060208284031215613f3f57600080fd5b8135612aff81613f18565b600060208284031215613f5c57600080fd5b5035919050565b600080600060608486031215613f7857600080fd5b8335613f8381613f18565b95602085013595506040909401359392505050565b600060208284031215613faa57600080fd5b81356001600160401b03811115613fc057600080fd5b820160a08185031215612aff57600080fd5b63ffffffff8116811461167f57600080fd5b6004811061167f57600080fd5b60008060008060008060008060006101208a8c03121561401057600080fd5b8935985060208a0135975060408a0135965060608a013561403081613fd2565b955060808a013561404081613fd2565b945060a08a013561405081613f18565b935060c08a013561ffff8116811461406757600080fd5b925060e08a013561407781613fe4565b91506101008a013561408881613fd2565b809150509295985092959850929598565b600080604083850312156140ac57600080fd5b8235915060208301356140be81613f18565b809150509250929050565b600080604083850312156140dc57600080fd5b50508035926020909101359150565b600080604083850312156140fe57600080fd5b8235915060208301356140be81613fd2565b634e487b7160e01b600052604160045260246000fd5b60405160a081016001600160401b038111828210171561414857614148614110565b60405290565b604051601f8201601f191681016001600160401b038111828210171561417657614176614110565b604052919050565b60006001600160401b0383111561419757614197614110565b6141aa601f8401601f191660200161414e565b90508281528383830111156141be57600080fd5b828260208301376000602084830101529392505050565b600080604083850312156141e857600080fd5b82356141f381613f18565b915060208301356001600160401b0381111561420e57600080fd5b8301601f8101851361421f57600080fd5b61422e8582356020840161417e565b9150509250929050565b6000610180828403121561424b57600080fd5b50919050565b6000806020838503121561426457600080fd5b82356001600160401b038082111561427b57600080fd5b818501915085601f83011261428f57600080fd5b81358181111561429e57600080fd5b866020610180830285010111156142b457600080fd5b60209290920196919550909350505050565b6000806000806000608086880312156142de57600080fd5b85359450602086013593506040860135925060608601356001600160401b038082111561430a57600080fd5b818801915088601f83011261431e57600080fd5b81358181111561432d57600080fd5b89602082850101111561433f57600080fd5b9699959850939650602001949392505050565b634e487b7160e01b600052602160045260246000fd5b6004811061438657634e487b7160e01b600052602160045260246000fd5b9052565b815163ffffffff168152610180810160208301516143b0602084018263ffffffff169052565b5060408301516143c8604084018263ffffffff169052565b5060608301516143e0606084018263ffffffff169052565b5060808301516143f8608084018263ffffffff169052565b5060a083015161441060a084018263ffffffff169052565b5060c083015161442860c084018263ffffffff169052565b5060e083015161443b60e0840182614368565b50610100838101516001600160a01b0316908301526101208084015190830152610140808401519083015261016092830151929091019190915290565b6000806020838503121561448b57600080fd5b82356001600160401b03808211156144a257600080fd5b818501915085601f8301126144b657600080fd5b8135818111156144c557600080fd5b8660208260051b85010111156142b457600080fd5b6000806000606084860312156144ef57600080fd5b505081359360208301359350604090920135919050565b6020808252825182820181905260009190848201906040850190845b818110156145475783516001600160a01b031683529284019291840191600101614522565b50909695505050505050565b60006001600160401b0382111561456c5761456c614110565b5060051b60200190565b600082601f83011261458757600080fd5b8135602061459c61459783614553565b61414e565b82815260059290921b840181019181810190868411156145bb57600080fd5b8286015b848110156145d657803583529183019183016145bf565b509695505050505050565b6000806000606084860312156145f657600080fd5b83356001600160401b038082111561460d57600080fd5b818601915086601f83011261462157600080fd5b8135602061463161459783614553565b82815260059290921b8401810191818101908a84111561465057600080fd5b948201945b8386101561467757853561466881613f18565b82529482019490820190614655565b975050870135945050604086013591508082111561469457600080fd5b506146a186828701614576565b9150509250925092565b600080600080608085870312156146c157600080fd5b84356146cc81613f18565b935060208501356146dc81613f18565b925060408501356146ec81613f18565b915060608501356146fc81613f18565b939692955090935050565b60006020828403121561471957600080fd5b81518015158114612aff57600080fd5b60208082526010908201526f41646d696e2063616c6c73206f6e6c7960801b604082015260600190565b634e487b7160e01b600052601160045260246000fd5b60008282101561477b5761477b614753565b500390565b600060a0823603121561479257600080fd5b61479a614126565b8235815260208301356147ac81613f18565b60208201526040838101359082015260608301356001600160401b03808211156147d557600080fd5b9084019036601f8301126147e857600080fd5b6147f73683356020850161417e565b6060840152608085013591508082111561481057600080fd5b5061481d36828601614576565b60808301525092915050565b6000808335601e1984360301811261484057600080fd5b8301803591506001600160401b0382111561485a57600080fd5b6020019150600581901b3603821315613a5a57600080fd5b600081600019048311821515161561488c5761488c614753565b500290565b6000826148ae57634e487b7160e01b600052601260045260246000fd5b500490565b6000602082840312156148c557600080fd5b8151612aff81613f18565b6000808335601e198436030181126148e757600080fd5b8301803591506001600160401b0382111561490157600080fd5b602001915036819003821315613a5a57600080fd5b6001600160a01b03841681526040602082018190528101829052818360608301376000818301606090810191909152601f909201601f1916010192915050565b60208082526023908201527f436c6f73652074696d65206d7573742062652061667465722073746172742074604082015262696d6560e81b606082015260800190565b6020808252602c908201527f46756e6374696f6e206d7573742062652063616c6c6564207468726f7567682060408201526b19195b1959d85d1958d85b1b60a21b606082015260800190565b6020808252602c908201527f46756e6374696f6e206d7573742062652063616c6c6564207468726f7567682060408201526b6163746976652070726f787960a01b606082015260800190565b600060208284031215614a4357600080fd5b8135612aff81613fd2565b60008135614a5b81613fd2565b92915050565b60008135614a5b81613fe4565b60048210614a8c57634e487b7160e01b600052602160045260246000fd5b805460ff60e01b191660e09290921b60ff60e01b16919091179055565b60008135614a5b81613f18565b614ad9614ac283614a4e565b825463ffffffff191663ffffffff91909116178255565b614b0a614ae860208401614a4e565b825467ffffffff00000000191660209190911b67ffffffff0000000016178255565b614b43614b1960408401614a4e565b82546bffffffff0000000000000000191660409190911b6bffffffff000000000000000016178255565b614b76614b5260608401614a4e565b82805463ffffffff60601b191660609290921b63ffffffff60601b16919091179055565b614ba9614b8560808401614a4e565b82805463ffffffff60801b191660809290921b63ffffffff60801b16919091179055565b614bdc614bb860a08401614a4e565b82805463ffffffff60a01b191660a09290921b63ffffffff60a01b16919091179055565b614c0f614beb60c08401614a4e565b82805463ffffffff60c01b191660c09290921b63ffffffff60c01b16919091179055565b614c24614c1e60e08401614a61565b82614a6e565b614c58614c346101008401614aa9565b6001830180546001600160a01b0319166001600160a01b0392909216919091179055565b6101208201356002820155610140820135600382015561016082013560048201555050565b634e487b7160e01b600052603260045260246000fd5b600060018201614ca557614ca5614753565b5060010190565b600060208284031215614cbe57600080fd5b5051919050565b60008219821115614cd857614cd8614753565b500190565b600063ffffffff808316818516808303821115614cfc57614cfc614753565b01949350505050565b600063ffffffff808316818103614d1e57614d1e614753565b6001019392505050565b60008235609e19833603018112614d3e57600080fd5b9190910192915050565b60005b83811015614d63578181015183820152602001614d4b565b838111156121425750506000910152565b60008151808452614d8c816020860160208601614d48565b601f01601f19169290920160200192915050565b84815260018060a01b0384166020820152826040820152608060608201526000614dcd6080830184614d74565b9695505050505050565b6020808252602b908201527f496e697469616c697a61626c653a20636f6e7472616374206973206e6f74206960408201526a6e697469616c697a696e6760a81b606082015260800190565b60008251614d3e818460208701614d48565b602081526000612aff6020830184614d7456fea3aca9ae20a0379d4094b84c749cbed6584ab20f0b71af75f63f6615d879c939360894a13ba1a3210667c828492db98dca3e2076cc3735a920a3ca505d382bbc416464726573733a206c6f772d6c6576656c2064656c65676174652063616c6c206661696c6564e303cb88ace8c9e6ba216f1aecb44b3206dcab364c60512ffc6cbc920a1bf9d1a26469706673582212203213263eb77d84e005f92767c9ba53b0c596e09b2f76a20aed52b5a873ca9c0d64736f6c634300080e0033",
  "linkReferences": {},
  "deployedLinkReferences": {}
}