{
  "_format": "hh-sol-artifact-1",
  "contractName": "Lottery",
  "sourceName": "contracts/Lottery/Lottery.sol",
  "abi": [
    {
      "inputs": [],
      "stateMutability": "nonpayable",
      "type": "constructor"
    },
    {
      "anonymous": false,
      "inputs": [
        {
          "indexed": false,
          "internalType": "address",
          "name": "previousAdmin",
          "type": "address"
        },
        {
          "indexed": false,
          "internalType": "address",
          "name": "newAdmin",
          "type": "address"
        }
      ],
      "name": "AdminChanged",
      "type": "event"
    },
    {
      "anonymous": false,
      "inputs": [
        {
          "indexed": true,
          "internalType": "address",
          "name": "beacon",
          "type": "address"
        }
      ],
      "name": "BeaconUpgraded",
      "type": "event"
    },
    {
      "anonymous": false,
      "inputs": [
        {
          "indexed": false,
          "internalType": "uint8",
          "name": "version",
          "type": "uint8"
        }
      ],
      "name": "Initialized",
      "type": "event"
    },
    {
      "anonymous": false,
      "inputs": [
        {
          "indexed": true,
          "internalType": "uint256",
          "name": "lotteryId",
          "type": "uint256"
        },
        {
          "indexed": true,
          "internalType": "enum Lottery.Status",
          "name": "status",
          "type": "uint8"
        }
      ],
      "name": "LotteryStatusChanged",
      "type": "event"
    },
    {
      "anonymous": false,
      "inputs": [
        {
          "indexed": false,
          "internalType": "address",
          "name": "account",
          "type": "address"
        }
      ],
      "name": "Paused",
      "type": "event"
    },
    {
      "anonymous": false,
      "inputs": [
        {
          "indexed": true,
          "internalType": "uint256",
          "name": "lotteryId",
          "type": "uint256"
        },
        {
          "indexed": true,
          "internalType": "address",
          "name": "participantAddress",
          "type": "address"
        },
        {
          "indexed": true,
          "internalType": "uint256",
          "name": "prizeId",
          "type": "uint256"
        }
      ],
      "name": "PrizeClaimed",
      "type": "event"
    },
    {
      "anonymous": false,
      "inputs": [
        {
          "indexed": true,
          "internalType": "uint256",
          "name": "lotteryId",
          "type": "uint256"
        },
        {
          "indexed": true,
          "internalType": "address",
          "name": "participantAddress",
          "type": "address"
        },
        {
          "indexed": false,
          "internalType": "uint256",
          "name": "amount",
          "type": "uint256"
        }
      ],
      "name": "Refunded",
      "type": "event"
    },
    {
      "anonymous": false,
      "inputs": [
        {
          "indexed": false,
          "internalType": "address",
          "name": "operator",
          "type": "address"
        },
        {
          "indexed": false,
          "internalType": "uint256",
          "name": "lotteryId",
          "type": "uint256"
        },
        {
          "indexed": false,
          "internalType": "uint256",
          "name": "priceOfTicket",
          "type": "uint256"
        }
      ],
      "name": "TicketCostChanged",
      "type": "event"
    },
    {
      "anonymous": false,
      "inputs": [
        {
          "indexed": true,
          "internalType": "uint256",
          "name": "lotteryId",
          "type": "uint256"
        },
        {
          "indexed": false,
          "internalType": "uint256",
          "name": "ticketNumber",
          "type": "uint256"
        },
        {
          "indexed": true,
          "internalType": "address",
          "name": "participantAddress",
          "type": "address"
        }
      ],
      "name": "TicketSold",
      "type": "event"
    },
    {
      "anonymous": false,
      "inputs": [
        {
          "indexed": false,
          "internalType": "address",
          "name": "account",
          "type": "address"
        }
      ],
      "name": "Unpaused",
      "type": "event"
    },
    {
      "anonymous": false,
      "inputs": [
        {
          "indexed": true,
          "internalType": "address",
          "name": "implementation",
          "type": "address"
        }
      ],
      "name": "Upgraded",
      "type": "event"
    },
    {
      "inputs": [],
      "name": "NATIVE_CURRENCY",
      "outputs": [
        {
          "internalType": "address",
          "name": "",
          "type": "address"
        }
      ],
      "stateMutability": "view",
      "type": "function"
    },
    {
      "inputs": [
        {
          "internalType": "uint256",
          "name": "_lotteryId",
          "type": "uint256"
        },
        {
          "internalType": "uint256",
          "name": "_numberOfTicketsToBuy",
          "type": "uint256"
        }
      ],
      "name": "buyTickets",
      "outputs": [],
      "stateMutability": "payable",
      "type": "function"
    },
    {
      "inputs": [
        {
          "internalType": "uint256",
          "name": "_points",
          "type": "uint256"
        },
        {
          "internalType": "uint256",
          "name": "_lotteryId",
          "type": "uint256"
        },
        {
          "internalType": "uint256",
          "name": "_numberOfTicketsToBuy",
          "type": "uint256"
        },
        {
          "internalType": "bytes",
          "name": "_sig",
          "type": "bytes"
        }
      ],
      "name": "buyTicketsWithSignedMessage",
      "outputs": [],
      "stateMutability": "payable",
      "type": "function"
    },
    {
      "inputs": [
        {
          "internalType": "uint256",
          "name": "_lotteryId",
          "type": "uint256"
        }
      ],
      "name": "cancelLottery",
      "outputs": [],
      "stateMutability": "nonpayable",
      "type": "function"
    },
    {
      "inputs": [
        {
          "internalType": "uint256",
          "name": "_lotteryId",
          "type": "uint256"
        },
        {
          "internalType": "uint32",
          "name": "_time",
          "type": "uint32"
        }
      ],
      "name": "changeCloseTime",
      "outputs": [],
      "stateMutability": "nonpayable",
      "type": "function"
    },
    {
      "inputs": [
        {
          "components": [
            {
              "internalType": "uint256",
              "name": "lotteryId",
              "type": "uint256"
            },
            {
              "internalType": "address",
              "name": "winner",
              "type": "address"
            },
            {
              "internalType": "uint256",
              "name": "ticketNumber",
              "type": "uint256"
            },
            {
              "internalType": "string",
              "name": "uri",
              "type": "string"
            },
            {
              "internalType": "bytes32[]",
              "name": "proof",
              "type": "bytes32[]"
            }
          ],
          "internalType": "struct Lottery.ProofData",
          "name": "_proofData",
          "type": "tuple"
        }
      ],
      "name": "claimPrize",
      "outputs": [],
      "stateMutability": "nonpayable",
      "type": "function"
    },
    {
      "inputs": [
        {
          "components": [
            {
              "internalType": "uint256",
              "name": "lotteryId",
              "type": "uint256"
            },
            {
              "internalType": "address",
              "name": "winner",
              "type": "address"
            },
            {
              "internalType": "uint256",
              "name": "ticketNumber",
              "type": "uint256"
            },
            {
              "internalType": "string",
              "name": "uri",
              "type": "string"
            },
            {
              "internalType": "bytes32[]",
              "name": "proof",
              "type": "bytes32[]"
            }
          ],
          "internalType": "struct Lottery.ProofData[]",
          "name": "_proofData",
          "type": "tuple[]"
        }
      ],
      "name": "claimPrizeBatch",
      "outputs": [],
      "stateMutability": "nonpayable",
      "type": "function"
    },
    {
      "inputs": [
        {
          "internalType": "uint256",
          "name": "",
          "type": "uint256"
        },
        {
          "internalType": "uint256",
          "name": "",
          "type": "uint256"
        }
      ],
      "name": "claimedPrizes",
      "outputs": [
        {
          "internalType": "bool",
          "name": "",
          "type": "bool"
        }
      ],
      "stateMutability": "view",
      "type": "function"
    },
    {
      "inputs": [
        {
          "components": [
            {
              "internalType": "uint32",
              "name": "startTime",
              "type": "uint32"
            },
            {
              "internalType": "uint32",
              "name": "closeTime",
              "type": "uint32"
            },
            {
              "internalType": "uint32",
              "name": "participantsCount",
              "type": "uint32"
            },
            {
              "internalType": "uint32",
              "name": "maxTickets",
              "type": "uint32"
            },
            {
              "internalType": "uint32",
              "name": "maxTicketsPerUser",
              "type": "uint32"
            },
            {
              "internalType": "uint32",
              "name": "numberOfTicketsSold",
              "type": "uint32"
            },
            {
              "internalType": "uint32",
              "name": "numberOfEditions",
              "type": "uint32"
            },
            {
              "internalType": "enum Lottery.Status",
              "name": "status",
              "type": "uint8"
            },
            {
              "internalType": "contract INFT",
              "name": "nftContract",
              "type": "address"
            },
            {
              "internalType": "uint256",
              "name": "lotteryID",
              "type": "uint256"
            },
            {
              "internalType": "uint256",
              "name": "ticketCostPoints",
              "type": "uint256"
            },
            {
              "internalType": "uint256",
              "name": "ticketCostTokens",
              "type": "uint256"
            }
          ],
          "internalType": "struct Lottery.LotteryInfo",
          "name": "_lotteryInfo",
          "type": "tuple"
        }
      ],
      "name": "createLottery",
      "outputs": [],
      "stateMutability": "nonpayable",
      "type": "function"
    },
    {
      "inputs": [
        {
          "components": [
            {
              "internalType": "uint32",
              "name": "startTime",
              "type": "uint32"
            },
            {
              "internalType": "uint32",
              "name": "closeTime",
              "type": "uint32"
            },
            {
              "internalType": "uint32",
              "name": "participantsCount",
              "type": "uint32"
            },
            {
              "internalType": "uint32",
              "name": "maxTickets",
              "type": "uint32"
            },
            {
              "internalType": "uint32",
              "name": "maxTicketsPerUser",
              "type": "uint32"
            },
            {
              "internalType": "uint32",
              "name": "numberOfTicketsSold",
              "type": "uint32"
            },
            {
              "internalType": "uint32",
              "name": "numberOfEditions",
              "type": "uint32"
            },
            {
              "internalType": "enum Lottery.Status",
              "name": "status",
              "type": "uint8"
            },
            {
              "internalType": "contract INFT",
              "name": "nftContract",
              "type": "address"
            },
            {
              "internalType": "uint256",
              "name": "lotteryID",
              "type": "uint256"
            },
            {
              "internalType": "uint256",
              "name": "ticketCostPoints",
              "type": "uint256"
            },
            {
              "internalType": "uint256",
              "name": "ticketCostTokens",
              "type": "uint256"
            }
          ],
          "internalType": "struct Lottery.LotteryInfo[]",
          "name": "_lotteries",
          "type": "tuple[]"
        }
      ],
      "name": "createLotteryBatch",
      "outputs": [],
      "stateMutability": "nonpayable",
      "type": "function"
    },
    {
      "inputs": [
        {
          "components": [
            {
              "internalType": "uint32",
              "name": "startTime",
              "type": "uint32"
            },
            {
              "internalType": "uint32",
              "name": "closeTime",
              "type": "uint32"
            },
            {
              "internalType": "uint32",
              "name": "participantsCount",
              "type": "uint32"
            },
            {
              "internalType": "uint32",
              "name": "maxTickets",
              "type": "uint32"
            },
            {
              "internalType": "uint32",
              "name": "maxTicketsPerUser",
              "type": "uint32"
            },
            {
              "internalType": "uint32",
              "name": "numberOfTicketsSold",
              "type": "uint32"
            },
            {
              "internalType": "uint32",
              "name": "numberOfEditions",
              "type": "uint32"
            },
            {
              "internalType": "enum Lottery.Status",
              "name": "status",
              "type": "uint8"
            },
            {
              "internalType": "contract INFT",
              "name": "nftContract",
              "type": "address"
            },
            {
              "internalType": "uint256",
              "name": "lotteryID",
              "type": "uint256"
            },
            {
              "internalType": "uint256",
              "name": "ticketCostPoints",
              "type": "uint256"
            },
            {
              "internalType": "uint256",
              "name": "ticketCostTokens",
              "type": "uint256"
            }
          ],
          "internalType": "struct Lottery.LotteryInfo",
          "name": "_lotteryInfo",
          "type": "tuple"
        },
        {
          "internalType": "address",
          "name": "_currency",
          "type": "address"
        }
      ],
      "name": "createLotteryWithCurrency",
      "outputs": [],
      "stateMutability": "nonpayable",
      "type": "function"
    },
    {
      "inputs": [],
      "name": "getLotteryCount",
      "outputs": [
        {
          "internalType": "uint256",
          "name": "",
          "type": "uint256"
        }
      ],
      "stateMutability": "view",
      "type": "function"
    },
    {
      "inputs": [
        {
          "internalType": "uint256",
          "name": "_lotteryId",
          "type": "uint256"
        }
      ],
      "name": "getLotteryInfo",
      "outputs": [
        {
          "components": [
            {
              "internalType": "uint32",
              "name": "startTime",
              "type": "uint32"
            },
            {
              "internalType": "uint32",
              "name": "closeTime",
              "type": "uint32"
            },
            {
              "internalType": "uint32",
              "name": "participantsCount",
              "type": "uint32"
            },
            {
              "internalType": "uint32",
              "name": "maxTickets",
              "type": "uint32"
            },
            {
              "internalType": "uint32",
              "name": "maxTicketsPerUser",
              "type": "uint32"
            },
            {
              "internalType": "uint32",
              "name": "numberOfTicketsSold",
              "type": "uint32"
            },
            {
              "internalType": "uint32",
              "name": "numberOfEditions",
              "type": "uint32"
            },
            {
              "internalType": "enum Lottery.Status",
              "name": "status",
              "type": "uint8"
            },
            {
              "internalType": "contract INFT",
              "name": "nftContract",
              "type": "address"
            },
            {
              "internalType": "uint256",
              "name": "lotteryID",
              "type": "uint256"
            },
            {
              "internalType": "uint256",
              "name": "ticketCostPoints",
              "type": "uint256"
            },
            {
              "internalType": "uint256",
              "name": "ticketCostTokens",
              "type": "uint256"
            }
          ],
          "internalType": "struct Lottery.LotteryInfo",
          "name": "",
          "type": "tuple"
        }
      ],
      "stateMutability": "view",
      "type": "function"
    },
    {
      "inputs": [
        {
          "internalType": "uint256",
          "name": "_lotteryId",
          "type": "uint256"
        }
      ],
      "name": "getLotteryTicketCount",
      "outputs": [
        {
          "internalType": "uint256",
          "name": "",
          "type": "uint256"
        }
      ],
      "stateMutability": "view",
      "type": "function"
    },
    {
      "inputs": [
        {
          "internalType": "uint256",
          "name": "_lotteryId",
          "type": "uint256"
        },
        {
          "internalType": "uint256",
          "name": "_from",
          "type": "uint256"
        },
        {
          "internalType": "uint256",
          "name": "_to",
          "type": "uint256"
        }
      ],
      "name": "getLotteryTickets",
      "outputs": [
        {
          "internalType": "address[]",
          "name": "",
          "type": "address[]"
        }
      ],
      "stateMutability": "view",
      "type": "function"
    },
    {
      "inputs": [
        {
          "internalType": "uint256",
          "name": "_lotteryId",
          "type": "uint256"
        }
      ],
      "name": "getParticipantsCount",
      "outputs": [
        {
          "internalType": "uint32",
          "name": "",
          "type": "uint32"
        }
      ],
      "stateMutability": "view",
      "type": "function"
    },
    {
      "inputs": [
        {
          "internalType": "uint256",
          "name": "_lotteryId",
          "type": "uint256"
        },
        {
          "internalType": "address",
          "name": "_user",
          "type": "address"
        }
      ],
      "name": "getTicketCountPerUser",
      "outputs": [
        {
          "internalType": "uint256",
          "name": "",
          "type": "uint256"
        }
      ],
      "stateMutability": "view",
      "type": "function"
    },
    {
      "inputs": [
        {
          "internalType": "uint256",
          "name": "_lotteryId",
          "type": "uint256"
        }
      ],
      "name": "getWhitelist",
      "outputs": [
        {
          "internalType": "address",
          "name": "",
          "type": "address"
        }
      ],
      "stateMutability": "view",
      "type": "function"
    },
    {
      "inputs": [
        {
          "internalType": "address",
          "name": "_rewardsContract",
          "type": "address"
        },
        {
          "internalType": "address",
          "name": "_admin",
          "type": "address"
        },
        {
          "internalType": "address",
          "name": "_token",
          "type": "address"
        },
        {
          "internalType": "address",
          "name": "_sageStorage",
          "type": "address"
        }
      ],
      "name": "initialize",
      "outputs": [],
      "stateMutability": "nonpayable",
      "type": "function"
    },
    {
      "inputs": [
        {
          "internalType": "uint256",
          "name": "",
          "type": "uint256"
        }
      ],
      "name": "lotteries",
      "outputs": [
        {
          "internalType": "uint256",
          "name": "",
          "type": "uint256"
        }
      ],
      "stateMutability": "view",
      "type": "function"
    },
    {
      "inputs": [
        {
          "internalType": "uint256",
          "name": "",
          "type": "uint256"
        }
      ],
      "name": "lotteryArtistShare",
      "outputs": [
        {
          "internalType": "uint256",
          "name": "",
          "type": "uint256"
        }
      ],
      "stateMutability": "view",
      "type": "function"
    },
    {
      "inputs": [
        {
          "internalType": "uint256",
          "name": "",
          "type": "uint256"
        }
      ],
      "name": "lotteryCurrency",
      "outputs": [
        {
          "internalType": "address",
          "name": "",
          "type": "address"
        }
      ],
      "stateMutability": "view",
      "type": "function"
    },
    {
      "inputs": [
        {
          "internalType": "uint256",
          "name": "",
          "type": "uint256"
        },
        {
          "internalType": "uint256",
          "name": "",
          "type": "uint256"
        }
      ],
      "name": "lotteryTickets",
      "outputs": [
        {
          "internalType": "address",
          "name": "",
          "type": "address"
        }
      ],
      "stateMutability": "view",
      "type": "function"
    },
    {
      "inputs": [
        {
          "internalType": "uint256",
          "name": "",
          "type": "uint256"
        },
        {
          "internalType": "address",
          "name": "",
          "type": "address"
        }
      ],
      "name": "participantTicketCount",
      "outputs": [
        {
          "internalType": "uint256",
          "name": "",
          "type": "uint256"
        }
      ],
      "stateMutability": "view",
      "type": "function"
    },
    {
      "inputs": [],
      "name": "pause",
      "outputs": [],
      "stateMutability": "nonpayable",
      "type": "function"
    },
    {
      "inputs": [],
      "name": "paused",
      "outputs": [
        {
          "internalType": "bool",
          "name": "",
          "type": "bool"
        }
      ],
      "stateMutability": "view",
      "type": "function"
    },
    {
      "inputs": [
        {
          "internalType": "address",
          "name": "",
          "type": "address"
        }
      ],
      "name": "pendingReturns",
      "outputs": [
        {
          "internalType": "uint256",
          "name": "",
          "type": "uint256"
        }
      ],
      "stateMutability": "view",
      "type": "function"
    },
    {
      "inputs": [
        {
          "internalType": "uint256",
          "name": "_lotteryId",
          "type": "uint256"
        },
        {
          "internalType": "uint256",
          "name": "_tokenId",
          "type": "uint256"
        }
      ],
      "name": "prizeClaimed",
      "outputs": [
        {
          "internalType": "bool",
          "name": "",
          "type": "bool"
        }
      ],
      "stateMutability": "view",
      "type": "function"
    },
    {
      "inputs": [
        {
          "internalType": "uint256",
          "name": "",
          "type": "uint256"
        }
      ],
      "name": "prizeMerkleRoots",
      "outputs": [
        {
          "internalType": "bytes32",
          "name": "",
          "type": "bytes32"
        }
      ],
      "stateMutability": "view",
      "type": "function"
    },
    {
      "inputs": [],
      "name": "proxiableUUID",
      "outputs": [
        {
          "internalType": "bytes32",
          "name": "",
          "type": "bytes32"
        }
      ],
      "stateMutability": "view",
      "type": "function"
    },
    {
      "inputs": [
        {
          "internalType": "uint256",
          "name": "",
          "type": "uint256"
        }
      ],
      "name": "randomSeeds",
      "outputs": [
        {
          "internalType": "uint256",
          "name": "",
          "type": "uint256"
        }
      ],
      "stateMutability": "view",
      "type": "function"
    },
    {
      "inputs": [
        {
          "internalType": "uint256",
          "name": "_lotteryId",
          "type": "uint256"
        },
        {
          "internalType": "uint256",
          "name": "_randomNumber",
          "type": "uint256"
        }
      ],
      "name": "receiveRandomNumber",
      "outputs": [],
      "stateMutability": "nonpayable",
      "type": "function"
    },
    {
      "inputs": [
        {
          "internalType": "address",
          "name": "_assetOwner",
          "type": "address"
        },
        {
          "internalType": "uint256",
          "name": "_lotteryId",
          "type": "uint256"
        },
        {
          "internalType": "uint256",
          "name": "_amount",
          "type": "uint256"
        }
      ],
      "name": "refund",
      "outputs": [],
      "stateMutability": "nonpayable",
      "type": "function"
    },
    {
      "inputs": [
        {
          "internalType": "address[]",
          "name": "_owners",
          "type": "address[]"
        },
        {
          "internalType": "uint256",
          "name": "_lotteryId",
          "type": "uint256"
        },
        {
          "internalType": "uint256[]",
          "name": "_amounts",
          "type": "uint256[]"
        }
      ],
      "name": "refundBatch",
      "outputs": [],
      "stateMutability": "nonpayable",
      "type": "function"
    },
    {
      "inputs": [
        {
          "internalType": "uint256",
          "name": "",
          "type": "uint256"
        },
        {
          "internalType": "address",
          "name": "",
          "type": "address"
        }
      ],
      "name": "refunds",
      "outputs": [
        {
          "internalType": "uint256",
          "name": "",
          "type": "uint256"
        }
      ],
      "stateMutability": "view",
      "type": "function"
    },
    {
      "inputs": [
        {
          "internalType": "uint256",
          "name": "_lotteryId",
          "type": "uint256"
        }
      ],
      "name": "requestRandomNumber",
      "outputs": [],
      "stateMutability": "nonpayable",
      "type": "function"
    },
    {
      "inputs": [],
      "name": "rewardsContract",
      "outputs": [
        {
          "internalType": "contract IRewards",
          "name": "",
          "type": "address"
        }
      ],
      "stateMutability": "view",
      "type": "function"
    },
    {
      "inputs": [
        {
          "internalType": "uint256",
          "name": "_lotteryId",
          "type": "uint256"
        },
        {
          "internalType": "uint256",
          "name": "_shareBps",
          "type": "uint256"
        }
      ],
      "name": "setLotteryArtistShare",
      "outputs": [],
      "stateMutability": "nonpayable",
      "type": "function"
    },
    {
      "inputs": [
        {
          "internalType": "uint256",
          "name": "_lotteryId",
          "type": "uint256"
        },
        {
          "internalType": "uint32",
          "name": "_maxTickets",
          "type": "uint32"
        }
      ],
      "name": "setMaxTickets",
      "outputs": [],
      "stateMutability": "nonpayable",
      "type": "function"
    },
    {
      "inputs": [
        {
          "internalType": "uint256",
          "name": "_lotteryId",
          "type": "uint256"
        },
        {
          "internalType": "uint32",
          "name": "_maxTicketsPerUser",
          "type": "uint32"
        }
      ],
      "name": "setMaxTicketsPerUser",
      "outputs": [],
      "stateMutability": "nonpayable",
      "type": "function"
    },
    {
      "inputs": [
        {
          "internalType": "uint256",
          "name": "_lotteryId",
          "type": "uint256"
        },
        {
          "internalType": "bytes32",
          "name": "_root",
          "type": "bytes32"
        }
      ],
      "name": "setPrizeMerkleRoot",
      "outputs": [],
      "stateMutability": "nonpayable",
      "type": "function"
    },
    {
      "inputs": [
        {
          "internalType": "address",
          "name": "_IRandomNumberGenerator",
          "type": "address"
        }
      ],
      "name": "setRandomGenerator",
      "outputs": [],
      "stateMutability": "nonpayable",
      "type": "function"
    },
    {
      "inputs": [
        {
          "internalType": "address",
          "name": "_rewardsContract",
          "type": "address"
        }
      ],
      "name": "setRewardsContract",
      "outputs": [],
      "stateMutability": "nonpayable",
      "type": "function"
    },
    {
      "inputs": [
        {
          "internalType": "address",
          "name": "_signer",
          "type": "address"
        }
      ],
      "name": "setSignerAddress",
      "outputs": [],
      "stateMutability": "nonpayable",
      "type": "function"
    },
    {
      "inputs": [
        {
          "internalType": "address",
          "name": "_token",
          "type": "address"
        }
      ],
      "name": "setToken",
      "outputs": [],
      "stateMutability": "nonpayable",
      "type": "function"
    },
    {
      "inputs": [
        {
          "internalType": "uint256",
          "name": "_lotteryId",
          "type": "uint256"
        },
        {
          "internalType": "address",
          "name": "_whitelist",
          "type": "address"
        }
      ],
      "name": "setWhitelist",
      "outputs": [],
      "stateMutability": "nonpayable",
      "type": "function"
    },
    {
      "inputs": [],
      "name": "token",
      "outputs": [
        {
          "internalType": "contract IERC20",
          "name": "",
          "type": "address"
        }
      ],
      "stateMutability": "view",
      "type": "function"
    },
    {
      "inputs": [],
      "name": "unpause",
      "outputs": [],
      "stateMutability": "nonpayable",
      "type": "function"
    },
    {
      "inputs": [
        {
          "internalType": "uint256",
          "name": "lotteryId",
          "type": "uint256"
        },
        {
          "internalType": "uint256",
          "name": "_ticketCostPoints",
          "type": "uint256"
        },
        {
          "internalType": "uint256",
          "name": "_ticketCostTokens",
          "type": "uint256"
        },
        {
          "internalType": "uint32",
          "name": "_startTime",
          "type": "uint32"
        },
        {
          "internalType": "uint32",
          "name": "_closeTime",
          "type": "uint32"
        },
        {
          "internalType": "contract INFT",
          "name": "_nftContract",
          "type": "address"
        },
        {
          "internalType": "uint16",
          "name": "_maxTickets",
          "type": "uint16"
        },
        {
          "internalType": "enum Lottery.Status",
          "name": "_status",
          "type": "uint8"
        },
        {
          "internalType": "uint32",
          "name": "_numberOfEditions",
          "type": "uint32"
        }
      ],
      "name": "updateLottery",
      "outputs": [],
      "stateMutability": "nonpayable",
      "type": "function"
    },
    {
      "inputs": [
        {
          "internalType": "address",
          "name": "newImplementation",
          "type": "address"
        }
      ],
      "name": "upgradeTo",
      "outputs": [],
      "stateMutability": "nonpayable",
      "type": "function"
    },
    {
      "inputs": [
        {
          "internalType": "address",
          "name": "newImplementation",
          "type": "address"
        },
        {
          "internalType": "bytes",
          "name": "data",
          "type": "bytes"
        }
      ],
      "name": "upgradeToAndCall",
      "outputs": [],
      "stateMutability": "payable",
      "type": "function"
    },
    {
      "inputs": [
        {
          "internalType": "uint256",
          "name": "",
          "type": "uint256"
        }
      ],
      "name": "whitelists",
      "outputs": [
        {
          "internalType": "address",
          "name": "",
          "type": "address"
        }
      ],
      "stateMutability": "view",
      "type": "function"
    },
    {
      "inputs": [
        {
          "internalType": "uint256",
          "name": "_amount",
          "type": "uint256"
        }
      ],
      "name": "withdraw",
      "outputs": [],
      "stateMutability": "nonpayable",
      "type": "function"
    },
    {
      "inputs": [
        {
          "internalType": "uint256",
          "name": "_amount",
          "type": "uint256"
        }
      ],
      "name": "withdrawNative",
      "outputs": [],
      "stateMutability": "nonpayable",
      "type": "function"
    },
    {
      "inputs": [],
      "name": "withdrawPendingReturns",
      "outputs": [],
      "stateMutability": "nonpayable",
      "type": "function"
    }
  ],
  "bytecode": "0x60a0604052306080523480156200001557600080fd5b506200002062000026565b620000e8565b600054610100900460ff1615620000935760405162461bcd60e51b815260206004820152602760248201527f496e697469616c697a61626c653a20636f6e747261637420697320696e697469604482015266616c697a696e6760c81b606482015260840160405180910390fd5b60005460ff9081161015620000e6576000805460ff191660ff9081179091556040519081527f7f26b83ff96e1f2b6a682f133852f6798a09c465da95921460cefb38474024989060200160405180910390a15b565b60805161575362000120600039600081816117c50152818161180501528181611cb501528181611cf50152611e3301526157536000f3fe6080604052600436106103505760003560e01c80636a6be315116101c6578063c730bba0116100f7578063ec29021511610095578063f8c8765e1161006f578063f8c8765e14610ac1578063f90328d514610ae1578063fc0c546a14610b1c578063fe4d5add14610b3c57600080fd5b8063ec29021514610a3d578063f4f46e3514610a52578063f5f4899814610a7257600080fd5b8063d89da286116100d1578063d89da286146109a2578063db2c0fd1146109c2578063dfa0dfa5146109fd578063eb1ea52114610a1d57600080fd5b8063c730bba01461091d578063d098a2f014610955578063d43cf0461461098257600080fd5b80638c8bf83b116101645780639b7fecc31161013e5780639b7fecc314610876578063b1eb96c9146108a3578063bf4002b2146108c3578063c11ab615146108e357600080fd5b80638c8bf83b146107f3578063937ccc4a1461081357806396db752a1461084057600080fd5b806376b3c8a8116101a057806376b3c8a81461077e57806384276d81146107ab5780638456cb59146107cb5780638627df46146107e057600080fd5b80636a6be3151461072b57806372f5b6c21461074b5780637350ab2c1461076b57600080fd5b80633659cfe6116102a05780634a0044671161023e57806350612da61161021857806350612da6146106b257806352d1902d146106d25780635c975abb146106e75780636013457f1461070b57600080fd5b80634a0044671461065f5780634bc19fee1461067f5780634f1ef2861461069f57600080fd5b80634538f2971161027a5780634538f297146105bf578063454cc4bc146105df57806349c0de881461061757806349f426501461063757600080fd5b80633659cfe6146105475780633f4ba83a1461056757806340cf23d91461057c57600080fd5b8063220cce971161030d57806327a38a9e116102e757806327a38a9e146104d25780632801f84a146104f25780632e1a7d4d146105125780632f9aa1fe1461053257600080fd5b8063220cce9714610458578063236804001461047857806326b387bb146104a557600080fd5b8063046dc166146103555780631398e07614610377578063144fa6d7146103aa57806317ffd172146103ca57806318fd890314610418578063214e24ec14610438575b600080fd5b34801561036157600080fd5b50610375610370366004614719565b610b72565b005b34801561038357600080fd5b50610397610392366004614736565b610c3a565b6040519081526020015b60405180910390f35b3480156103b657600080fd5b506103756103c5366004614719565b610c5b565b3480156103d657600080fd5b506104006103e5366004614736565b60d8602052600090815260409020546001600160a01b031681565b6040516001600160a01b0390911681526020016103a1565b34801561042457600080fd5b5061037561043336600461474f565b610d1a565b34801561044457600080fd5b5061037561045336600461479d565b610ef2565b34801561046457600080fd5b5060cd54610400906001600160a01b031681565b34801561048457600080fd5b50610397610493366004614736565b60d56020526000908152604090205481565b3480156104b157600080fd5b506103976104c0366004614719565b60d96020526000908152604090205481565b3480156104de57600080fd5b506103756104ed3660046147d7565b611042565b3480156104fe57600080fd5b5061037561050d366004614830565b611406565b34801561051e57600080fd5b5061037561052d366004614736565b611631565b34801561053e57600080fd5b5060ce54610397565b34801561055357600080fd5b50610375610562366004614719565b6117bb565b34801561057357600080fd5b5061037561189a565b34801561058857600080fd5b506103976105973660046148d8565b600091825260d3602090815260408084206001600160a01b0393909316845291905290205490565b3480156105cb57600080fd5b506103756105da366004614736565b611941565b3480156105eb57600080fd5b506103976105fa3660046148d8565b60d460209081526000928352604080842090915290825290205481565b34801561062357600080fd5b506104006106323660046148fd565b611a8e565b34801561064357600080fd5b5061040073eeeeeeeeeeeeeeeeeeeeeeeeeeeeeeeeeeeeeeee81565b34801561066b57600080fd5b5061037561067a36600461491f565b611ac6565b34801561068b57600080fd5b5061037561069a366004614719565b611b96565b6103756106ad366004614a09565b611cab565b3480156106be57600080fd5b506103756106cd3660046148fd565b611d77565b3480156106de57600080fd5b50610397611e26565b3480156106f357600080fd5b5060975460ff165b60405190151581526020016103a1565b34801561071757600080fd5b50610375610726366004614a6c565b611ed9565b34801561073757600080fd5b5061037561074636600461491f565b612157565b34801561075757600080fd5b50610375610766366004614a89565b61229e565b610375610779366004614afe565b61237e565b34801561078a57600080fd5b5061079e610799366004614736565b61253f565b6040516103a19190614bc2565b3480156107b757600080fd5b506103756107c6366004614736565b61269b565b3480156107d757600080fd5b5061037561283d565b6103756107ee3660046148fd565b6128e2565b3480156107ff57600080fd5b5061037561080e366004614cb0565b612ec3565b34801561081f57600080fd5b5061039761082e366004614736565b60d76020526000908152604090205481565b34801561084c57600080fd5b5061040061085b366004614736565b600090815260d060205260409020546001600160a01b031690565b34801561088257600080fd5b50610896610891366004614d12565b612f06565b6040516103a19190614d3e565b3480156108af57600080fd5b506103756108be366004614736565b612ff0565b3480156108cf57600080fd5b506103756108de36600461491f565b61329b565b3480156108ef57600080fd5b506103976108fe366004614736565b600090815260cf6020526040902054600160a01b900463ffffffff1690565b34801561092957600080fd5b506103976109383660046148d8565b60d360209081526000928352604080842090915290825290205481565b34801561096157600080fd5b50610397610970366004614736565b60d16020526000908152604090205481565b34801561098e57600080fd5b5061037561099d3660046148fd565b61336b565b3480156109ae57600080fd5b506103756109bd3660046148d8565b6134bc565b3480156109ce57600080fd5b506106fb6109dd3660046148fd565b600091825260d26020908152604080842092845291905290205460ff1690565b348015610a0957600080fd5b50610375610a18366004614719565b613587565b348015610a2957600080fd5b50610375610a383660046148fd565b613646565b348015610a4957600080fd5b50610375613745565b348015610a5e57600080fd5b50610375610a6d366004614e19565b6137b6565b348015610a7e57600080fd5b50610aac610a8d366004614736565b600090815260cf6020526040902054600160401b900463ffffffff1690565b60405163ffffffff90911681526020016103a1565b348015610acd57600080fd5b50610375610adc366004614ee3565b613859565b348015610aed57600080fd5b506106fb610afc3660046148fd565b60d260209081526000928352604080842090915290825290205460ff1681565b348015610b2857600080fd5b5060cb54610400906001600160a01b031681565b348015610b4857600080fd5b50610400610b57366004614736565b60d0602052600090815260409020546001600160a01b031681565b60c954604051632474521560e21b81526001600160a01b03909116906391d1485490610bb2906000805160206156fe833981519152903390600401614f3f565b602060405180830381865afa158015610bcf573d6000803e3d6000fd5b505050506040513d601f19601f82011682018060405250810190610bf39190614f56565b610c185760405162461bcd60e51b8152600401610c0f90614f78565b60405180910390fd5b60ca80546001600160a01b0319166001600160a01b0392909216919091179055565b60ce8181548110610c4a57600080fd5b600091825260209091200154905081565b60c954604051632474521560e21b81526001600160a01b03909116906391d1485490610c9b906000805160206156fe833981519152903390600401614f3f565b602060405180830381865afa158015610cb8573d6000803e3d6000fd5b505050506040513d601f19601f82011682018060405250810190610cdc9190614f56565b610cf85760405162461bcd60e51b8152600401610c0f90614f78565b60cb80546001600160a01b0319166001600160a01b0392909216919091179055565b610d226139bf565b600082815260cf6020526040902081610d6e5760405162461bcd60e51b815260206004820152600e60248201526d043616e277420726566756e6420360941b6044820152606401610c0f565b60008154600160e01b900460ff166003811115610d8d57610d8d614b8a565b03610dd25760405162461bcd60e51b8152602060048201526015602482015274496e76616c6964206c6f747465727920737461746560581b6044820152606401610c0f565b600083815260d4602090815260408083206001600160a01b0388168452909152902054821115610e4e5760405162461bcd60e51b815260206004820152602160248201527f43616e277420726566756e642074686520616d6f756e742072657175657374656044820152601960fa1b6064820152608401610c0f565b600083815260d4602090815260408083206001600160a01b038816845290915281208054849290610e80908490614fb8565b9091555050600083815260d86020526040902054610ea8906001600160a01b03168584613a05565b836001600160a01b0316837f7ca5472b7ea78c2c0141c5a12ee6d170cf4ce8ed06be3d22c8252ddfc7a6a2c484604051610ee491815260200190565b60405180910390a350505050565b60c954604051632474521560e21b81526001600160a01b03909116906391d1485490610f32906000805160206156fe833981519152903390600401614f3f565b602060405180830381865afa158015610f4f573d6000803e3d6000fd5b505050506040513d601f19601f82011682018060405250810190610f739190614f56565b610f8f5760405162461bcd60e51b8152600401610c0f90614f78565b6001600160a01b0381161580610fc157506001600160a01b03811673eeeeeeeeeeeeeeeeeeeeeeeeeeeeeeeeeeeeeeee145b6110045760405162461bcd60e51b8152602060048201526014602482015273556e737570706f727465642063757272656e637960601b6044820152606401610c0f565b61100d82611ed9565b6101209190910135600090815260d86020526040902080546001600160a01b0319166001600160a01b03909216919091179055565b61104a6139bf565b8035600081815260d26020908152604080832081860135845290915290205460ff16156110c35760405162461bcd60e51b815260206004820152602160248201527f5061727469636970616e7420616c726561647920636c61696d6564207072697a6044820152606560f81b6064820152608401610c0f565b61112a6110d76110d284614fcf565b613b46565b600083815260d160205260409020546110f36080860186615078565b80806020026020016040519081016040528093929190818152602001838360200280828437600092019190915250613b8c92505050565b61116d5760405162461bcd60e51b815260206004820152601460248201527324b73b30b634b21036b2b935b63290383937b7b360611b6044820152606401610c0f565b600081815260cf60209081526040808320600180820154600483015460d2865284872089860135885290955292909420805460ff19169094179093556001600160a01b031690801561133957600084815260d460209081526040808320338452909152812080548392906111e2908490614fb8565b9091555050600084815260d760205260408120549081900361120957611206613ba1565b90505b600061271061121883856150c1565b61122291906150e0565b600087815260d860209081526040918290205482516321de0b0960e11b815292519394506001600160a01b03908116936112ab938593928a16926343bc1612926004808401938290030181865afa158015611281573d6000803e3d6000fd5b505050506040513d601f19601f820116820180604052508101906112a59190615102565b84613a05565b6113358160c960009054906101000a90046001600160a01b03166001600160a01b0316634783c35b6040518163ffffffff1660e01b8152600401602060405180830381865afa158015611302573d6000803e3d6000fd5b505050506040513d601f19601f820116820180604052508101906113269190615102565b6113308588614fb8565b613a05565b5050505b6001600160a01b03821663d204c45e6113586040880160208901614719565b611365606089018961511f565b6040518463ffffffff1660e01b815260040161138393929190615165565b600060405180830381600087803b15801561139d57600080fd5b505af11580156113b1573d6000803e3d6000fd5b50505060408601803591506113c99060208801614719565b6001600160a01b0316857f4aa95f981a8337cb337de335b965507da0879c3b49f799d20058e913f5ad2c2660405160405180910390a45050505050565b60c954604051632474521560e21b81526001600160a01b03909116906391d1485490611446906000805160206156fe833981519152903390600401614f3f565b602060405180830381865afa158015611463573d6000803e3d6000fd5b505050506040513d601f19601f820116820180604052508101906114879190614f56565b6114a35760405162461bcd60e51b8152600401610c0f90614f78565b858560008263ffffffff16116114f05760405162461bcd60e51b8152602060048201526012602482015271496e76616c69642073746172742074696d6560701b6044820152606401610c0f565b8163ffffffff168163ffffffff161161151b5760405162461bcd60e51b8152600401610c0f906151a5565b60008b815260cf60205260409020805460038083018d9055600483018c90556001830180546001600160a01b038b166001600160a01b0319909116179055600160601b61ffff89160263ffffffff60601b1963ffffffff8c81166401000000000267ffffffffffffffff19909516908e161793909317928316811784558792849260ff60e01b1990921670ff000000000000000000000000ffffffff60601b199091161790600160e01b9084908111156115d7576115d7614b8a565b0217905550805463ffffffff60c01b1916600160c01b63ffffffff86160217815584600381111561160a5761160a614b8a565b6040518d9060008051602061569783398151915290600090a3505050505050505050505050565b60c954604051632474521560e21b81526001600160a01b03909116906391d1485490611671906000805160206156fe833981519152903390600401614f3f565b602060405180830381865afa15801561168e573d6000803e3d6000fd5b505050506040513d601f19601f820116820180604052508101906116b29190614f56565b6116ce5760405162461bcd60e51b8152600401610c0f90614f78565b60cb5460c95460408051634783c35b60e01b815290516001600160a01b039384169363a9059cbb931691634783c35b9160048083019260209291908290030181865afa158015611722573d6000803e3d6000fd5b505050506040513d601f19601f820116820180604052508101906117469190615102565b6040516001600160e01b031960e084901b1681526001600160a01b039091166004820152602481018490526044016020604051808303816000875af1158015611793573d6000803e3d6000fd5b505050506040513d601f19601f820116820180604052508101906117b79190614f56565b5050565b6001600160a01b037f00000000000000000000000000000000000000000000000000000000000000001630036118035760405162461bcd60e51b8152600401610c0f906151e8565b7f00000000000000000000000000000000000000000000000000000000000000006001600160a01b031661184c6000805160206156b7833981519152546001600160a01b031690565b6001600160a01b0316146118725760405162461bcd60e51b8152600401610c0f90615234565b61187b81613d2e565b6040805160008082526020820190925261189791839190613dc1565b50565b60c954604051632474521560e21b81526001600160a01b03909116906391d14854906118da906000805160206156fe833981519152903390600401614f3f565b602060405180830381865afa1580156118f7573d6000803e3d6000fd5b505050506040513d601f19601f8201168201806040525081019061191b9190614f56565b6119375760405162461bcd60e51b8152600401610c0f90614f78565b61193f613f2c565b565b60c954604051632474521560e21b81526001600160a01b03909116906391d1485490611981906000805160206156fe833981519152903390600401614f3f565b602060405180830381865afa15801561199e573d6000803e3d6000fd5b505050506040513d601f19601f820116820180604052508101906119c29190614f56565b6119de5760405162461bcd60e51b8152600401610c0f90614f78565b600081815260cf602052604090208054600160401b900463ffffffff1615611a485760405162461bcd60e51b815260206004820152601760248201527f4c6f747465727920616c726561647920737461727465640000000000000000006044820152606401610c0f565b805460ff60e01b1916600160e01b9081178083550460ff166003811115611a7157611a71614b8a565b604051839060008051602061569783398151915290600090a35050565b60d66020528160005260406000208181548110611aaa57600080fd5b6000918252602090912001546001600160a01b03169150829050565b60c954604051632474521560e21b81526001600160a01b03909116906391d1485490611b06906000805160206156fe833981519152903390600401614f3f565b602060405180830381865afa158015611b23573d6000803e3d6000fd5b505050506040513d601f19601f82011682018060405250810190611b479190614f56565b611b635760405162461bcd60e51b8152600401610c0f90614f78565b600091825260cf6020526040909120805463ffffffff909216600160801b0263ffffffff60801b19909216919091179055565b60c954604051632474521560e21b81526001600160a01b03909116906391d1485490611bd6906000805160206156fe833981519152903390600401614f3f565b602060405180830381865afa158015611bf3573d6000803e3d6000fd5b505050506040513d601f19601f82011682018060405250810190611c179190614f56565b611c335760405162461bcd60e51b8152600401610c0f90614f78565b6001600160a01b038116611c895760405162461bcd60e51b815260206004820152601d60248201527f436f6e7472616374732063616e6e6f74206265203020616464726573730000006044820152606401610c0f565b60cc80546001600160a01b0319166001600160a01b0392909216919091179055565b6001600160a01b037f0000000000000000000000000000000000000000000000000000000000000000163003611cf35760405162461bcd60e51b8152600401610c0f906151e8565b7f00000000000000000000000000000000000000000000000000000000000000006001600160a01b0316611d3c6000805160206156b7833981519152546001600160a01b031690565b6001600160a01b031614611d625760405162461bcd60e51b8152600401610c0f90615234565b611d6b82613d2e565b6117b782826001613dc1565b60c954604051632474521560e21b81526001600160a01b03909116906391d1485490611db7906000805160206156fe833981519152903390600401614f3f565b602060405180830381865afa158015611dd4573d6000803e3d6000fd5b505050506040513d601f19601f82011682018060405250810190611df89190614f56565b611e145760405162461bcd60e51b8152600401610c0f90614f78565b600091825260d1602052604090912055565b6000306001600160a01b037f00000000000000000000000000000000000000000000000000000000000000001614611ec65760405162461bcd60e51b815260206004820152603860248201527f555550535570677261646561626c653a206d757374206e6f742062652063616c60448201527f6c6564207468726f7567682064656c656761746563616c6c00000000000000006064820152608401610c0f565b506000805160206156b783398151915290565b60c954604051632474521560e21b81526001600160a01b03909116906391d1485490611f19906000805160206156fe833981519152903390600401614f3f565b602060405180830381865afa158015611f36573d6000803e3d6000fd5b505050506040513d601f19601f82011682018060405250810190611f5a9190614f56565b611f765760405162461bcd60e51b8152600401610c0f90614f78565b611f836020820182615280565b611f936040830160208401615280565b60008263ffffffff1611611fde5760405162461bcd60e51b8152602060048201526012602482015271496e76616c69642073746172742074696d6560701b6044820152606401610c0f565b8163ffffffff168163ffffffff16116120095760405162461bcd60e51b8152600401610c0f906151a5565b600061201b60e0850160c08601615280565b63ffffffff161161205f5760405162461bcd60e51b815260206004820152600e60248201526d496e76616c6964207072697a657360901b6044820152606401610c0f565b610120830135600090815260cf6020526040902054600160c01b900463ffffffff16156120c75760405162461bcd60e51b81526020600482015260166024820152754c6f747465727920616c72656164792065786973747360501b6044820152606401610c0f565b60ce8054600181019091556101208401357fd36cd1c74ef8d7326d8021b776c18fb5a5724b7f7bc93c2f42e43e10ef27d12a909101819055600090815260cf6020526040902083906121198282615305565b905050612124613ba1565b610120840135600081815260d76020526040808220939093559151600080516020615697833981519152908390a3505050565b60c954604051632474521560e21b81526001600160a01b03909116906391d1485490612197906000805160206156fe833981519152903390600401614f3f565b602060405180830381865afa1580156121b4573d6000803e3d6000fd5b505050506040513d601f19601f820116820180604052508101906121d89190614f56565b6121f45760405162461bcd60e51b8152600401610c0f90614f78565b600082815260cf60205260409020805463ffffffff1661224d5760405162461bcd60e51b8152602060048201526014602482015273131bdd1d195c9e481a59081b9bdd08199bdd5b9960621b6044820152606401610c0f565b805463ffffffff908116908316116122775760405162461bcd60e51b8152600401610c0f906151a5565b805463ffffffff9092166401000000000267ffffffff000000001990921691909117905550565b60c954604051632474521560e21b81526001600160a01b03909116906391d14854906122de906000805160206156fe833981519152903390600401614f3f565b602060405180830381865afa1580156122fb573d6000803e3d6000fd5b505050506040513d601f19601f8201168201806040525081019061231f9190614f56565b61233b5760405162461bcd60e51b8152600401610c0f90614f78565b8060005b818110156123785761236884848381811061235c5761235c6154cc565b90506101800201611ed9565b612371816154e2565b905061233f565b50505050565b6040805133602082018190529181018790526000906123b59060600160405160208183030381529060405280519060200120613f7e565b60ca54604080516020601f88018190048102820181019092528681529293506001600160a01b0390911691612407918491908890889081908401838280828437600092019190915250613fb992505050565b6001600160a01b0316146124515760405162461bcd60e51b8152602060048201526011602482015270496e76616c6964207369676e617475726560781b6044820152606401610c0f565b60cd5460405163f662781d60e01b81526001600160a01b0384811660048301528992169063f662781d90602401602060405180830381865afa15801561249b573d6000803e3d6000fd5b505050506040513d601f19601f820116820180604052508101906124bf91906154fb565b101561252c5760cd54604051630259ab7760e61b81526001600160a01b038481166004830152602482018a90529091169063966addc090604401600060405180830381600087803b15801561251357600080fd5b505af1158015612527573d6000803e3d6000fd5b505050505b61253686866128e2565b50505050505050565b6125ac6040805161018081018252600080825260208201819052918101829052606081018290526080810182905260a0810182905260c081018290529060e0820190815260200160006001600160a01b031681526020016000815260200160008152602001600081525090565b600082815260cf6020908152604091829020825161018081018452815463ffffffff80821683526401000000008204811694830194909452600160401b8104841694820194909452600160601b840483166060820152600160801b840483166080820152600160a01b8404831660a0820152600160c01b840490921660c0830152909160e0830190600160e01b900460ff16600381111561264f5761264f614b8a565b600381111561266057612660614b8a565b815260018201546001600160a01b03166020820152600282015460408201526003820154606082015260049091015460809091015292915050565b60c954604051632474521560e21b81526001600160a01b03909116906391d14854906126db906000805160206156fe833981519152903390600401614f3f565b602060405180830381865afa1580156126f8573d6000803e3d6000fd5b505050506040513d601f19601f8201168201806040525081019061271c9190614f56565b6127385760405162461bcd60e51b8152600401610c0f90614f78565b60c95460408051634783c35b60e01b815290516000926001600160a01b031691634783c35b9160048083019260209291908290030181865afa158015612782573d6000803e3d6000fd5b505050506040513d601f19601f820116820180604052508101906127a69190615102565b6001600160a01b0316826040515b60006040518083038185875af1925050503d80600081146127f1576040519150601f19603f3d011682016040523d82523d6000602084013e6127f6565b606091505b50509050806117b75760405162461bcd60e51b8152602060048201526013602482015272115512081d1c985b9cd9995c8819985a5b1959606a1b6044820152606401610c0f565b60c954604051632474521560e21b81526001600160a01b03909116906391d148549061287d906000805160206156fe833981519152903390600401614f3f565b602060405180830381865afa15801561289a573d6000803e3d6000fd5b505050506040513d601f19601f820116820180604052508101906128be9190614f56565b6128da5760405162461bcd60e51b8152600401610c0f90614f78565b61193f613fdd565b6128ea6139bf565b600082815260d0602052604090205482906001600160a01b0316156129c757600081815260d06020526040908190205490516320c18e6b60e21b8152336004820152602481018390526001600160a01b039091169063830639ac90604401602060405180830381865afa158015612965573d6000803e3d6000fd5b505050506040513d601f19601f820116820180604052508101906129899190614f56565b6129c75760405162461bcd60e51b815260206004820152600f60248201526e139bdd081dda1a5d195b1a5cdd1959608a1b6044820152606401610c0f565b600083815260cf60205260408120805490919081908190600160601b900463ffffffff1615612a5557835463ffffffff600160601b8204811691612a14918991600160a01b900416615514565b1115612a555760405162461bcd60e51b815260206004820152601060248201526f151a58dad95d1cc81cdbdb19081bdd5d60821b6044820152606401610c0f565b600087815260d3602090815260408083203384529091529020548454600160801b900463ffffffff1615612aea578454600160801b900463ffffffff16612a9c8883615514565b1115612aea5760405162461bcd60e51b815260206004820181905260248201527f43616e277420627579207468697320616d6f756e74206f66207469636b6574736044820152606401610c0f565b84544263ffffffff90911611801590612b12575084544264010000000090910463ffffffff16115b8015612b3b575060018554600160e01b900460ff166003811115612b3857612b38614b8a565b14155b612b7d5760405162461bcd60e51b81526020600482015260136024820152722637ba3a32b93c9034b9903737ba1037b832b760691b6044820152606401610c0f565b6003850154612b8c90886150c1565b92508215612ba057612b9e338461401a565b505b6004850154855490925087908690601490612bc9908490600160a01b900463ffffffff1661552c565b92506101000a81548163ffffffff021916908363ffffffff1602179055506000821115612d7657612bfa82886150c1565b600089815260d860205260409020549094506001600160a01b031673eeeeeeeeeeeeeeeeeeeeeeeeeeeeeeeeeeeeeeed1901612c7757833414612c725760405162461bcd60e51b815260206004820152601060248201526f15dc9bdb99c811551208185b5bdd5b9d60821b6044820152606401610c0f565b612d42565b3415612cc55760405162461bcd60e51b815260206004820152601c60248201527f4c6f7474657279206973206e6f742070726963656420696e20455448000000006044820152606401610c0f565b60cb546040516323b872dd60e01b8152336004820152306024820152604481018690526001600160a01b03909116906323b872dd906064016020604051808303816000875af1158015612d1c573d6000803e3d6000fd5b505050506040513d601f19601f82011682018060405250810190612d409190614f56565b505b600088815260d46020908152604080832033845290915281208054869290612d6b908490615514565b90915550612db79050565b3415612db75760405162461bcd60e51b815260206004820152601060248201526f5469636b65747320617265206672656560801b6044820152606401610c0f565b80600003612dfb5784548590600890612ddc90600160401b900463ffffffff16615554565b91906101000a81548163ffffffff021916908363ffffffff1602179055505b600088815260d3602090815260408083203384529091528120805461ffff8a169290612e28908490615514565b9091555050600088815260d660205260408120905b88811015612eb75781546001810183556000838152602090200180546001600160a01b0319163390811790915582546040518c917fc41bbb54d04f2268c7895b9330f18468c306a3f92698a92c4c86b2978739784891612e9f91815260200190565b60405180910390a3612eb0816154e2565b9050612e3d565b50505050505050505050565b8060005b8181101561237857612ef6848483818110612ee457612ee46154cc565b90506020028101906104ed9190615577565b612eff816154e2565b9050612ec7565b60606000612f148484614fb8565b612f1f906001615514565b6001600160401b03811115612f3657612f36614944565b604051908082528060200260200182016040528015612f5f578160200160208202803683370190505b509050835b838111612fe557600086815260d660205260409020805482908110612f8b57612f8b6154cc565b9060005260206000200160009054906101000a90046001600160a01b0316828281518110612fbb57612fbb6154cc565b6001600160a01b039092166020928302919091019091015280612fdd816154e2565b915050612f64565b5090505b9392505050565b60c954604051632474521560e21b81526001600160a01b03909116906391d1485490613030906000805160206156fe833981519152903390600401614f3f565b602060405180830381865afa15801561304d573d6000803e3d6000fd5b505050506040513d601f19601f820116820180604052508101906130719190614f56565b61308d5760405162461bcd60e51b8152600401610c0f90614f78565b600081815260cf60205260409020805463ffffffff166130e45760405162461bcd60e51b8152602060048201526012602482015271125b9d985b1a59081b1bdd1d195c9e481a5960721b6044820152606401610c0f565b80544264010000000090910463ffffffff161061313b5760405162461bcd60e51b8152602060048201526015602482015274131bdd1d195c9e481a5cc81b9bdd0818db1bdcd959605a1b6044820152606401610c0f565b8054600160e01b900460ff16600381600381111561315b5761315b614b8a565b036131a85760405162461bcd60e51b815260206004820152601d60248201527f4c6f7474657279206d757374206e6f7420626520636f6d706c657465640000006044820152606401610c0f565b815463ffffffff600160c01b82048116600160a01b90920416116131dc57815460ff60e01b1916600360e01b178255613260565b8154600160e11b60ff60e01b1990911617825560cc54604051632f215ddf60e21b8152600481018590526001600160a01b039091169063bc85777c906024016020604051808303816000875af115801561323a573d6000803e3d6000fd5b505050506040513d601f19601f8201168201806040525081019061325e91906154fb565b505b8154600160e01b900460ff16600381111561327d5761327d614b8a565b604051849060008051602061569783398151915290600090a3505050565b60c954604051632474521560e21b81526001600160a01b03909116906391d14854906132db906000805160206156fe833981519152903390600401614f3f565b602060405180830381865afa1580156132f8573d6000803e3d6000fd5b505050506040513d601f19601f8201168201806040525081019061331c9190614f56565b6133385760405162461bcd60e51b8152600401610c0f90614f78565b600091825260cf6020526040909120805463ffffffff909216600160601b0263ffffffff60601b19909216919091179055565b60c954604051632474521560e21b81526001600160a01b03909116906391d14854906133ab906000805160206156fe833981519152903390600401614f3f565b602060405180830381865afa1580156133c8573d6000803e3d6000fd5b505050506040513d601f19601f820116820180604052508101906133ec9190614f56565b6134085760405162461bcd60e51b8152600401610c0f90614f78565b61271081111561344a5760405162461bcd60e51b815260206004820152600d60248201526c496e76616c696420736861726560981b6044820152606401610c0f565b600082815260cf6020526040902054600160c01b900463ffffffff166134aa5760405162461bcd60e51b8152602060048201526015602482015274131bdd1d195c9e48191bd95cdb89dd08195e1a5cdd605a1b6044820152606401610c0f565b600091825260d7602052604090912055565b60c954604051632474521560e21b81526001600160a01b03909116906391d14854906134fc906000805160206156fe833981519152903390600401614f3f565b602060405180830381865afa158015613519573d6000803e3d6000fd5b505050506040513d601f19601f8201168201806040525081019061353d9190614f56565b6135595760405162461bcd60e51b8152600401610c0f90614f78565b600091825260d0602052604090912080546001600160a01b0319166001600160a01b03909216919091179055565b60c954604051632474521560e21b81526001600160a01b03909116906391d14854906135c7906000805160206156fe833981519152903390600401614f3f565b602060405180830381865afa1580156135e4573d6000803e3d6000fd5b505050506040513d601f19601f820116820180604052508101906136089190614f56565b6136245760405162461bcd60e51b8152600401610c0f90614f78565b60cd80546001600160a01b0319166001600160a01b0392909216919091179055565b60cc546001600160a01b031633146136935760405162461bcd60e51b815260206004820152601060248201526f4f6e6c7920524e47206164647265737360801b6044820152606401610c0f565b600082815260cf6020526040902060038154600160e01b900460ff1660038111156136c0576136c0614b8a565b036137065760405162461bcd60e51b8152602060048201526016602482015275131bdd1d195c9e481b5d5cdd0818994818db1bdcd95960521b6044820152606401610c0f565b805460ff60e01b1916600360e01b178155600083815260d5602052604090208290558054600160e01b900460ff16600381111561327d5761327d614b8a565b33600090815260d96020526040902054806137985760405162461bcd60e51b81526020600482015260136024820152724e6f7468696e6720746f20776974686472617760681b6044820152606401610c0f565b33600081815260d960205260408082208290555190919083906127b4565b8251815181146137fa5760405162461bcd60e51b815260206004820152600f60248201526e57726f6e6720617267756d656e747360881b6044820152606401610c0f565b60005b818110156138525761384285828151811061381a5761381a6154cc565b602002602001015185858481518110613835576138356154cc565b6020026020010151610d1a565b61384b816154e2565b90506137fd565b5050505050565b600054610100900460ff16158080156138795750600054600160ff909116105b806138935750303b158015613893575060005460ff166001145b6138f65760405162461bcd60e51b815260206004820152602e60248201527f496e697469616c697a61626c653a20636f6e747261637420697320616c72656160448201526d191e481a5b9a5d1a585b1a5e995960921b6064820152608401610c0f565b6000805460ff191660011790558015613919576000805461ff0019166101001790555b613921614092565b6139296140c1565b60cb80546001600160a01b038086166001600160a01b03199283161790925560ca805487841690831617905560cd805488841690831617905560c98054928516929091169190911790558015613852576000805461ff0019169055604051600181527f7f26b83ff96e1f2b6a682f133852f6798a09c465da95921460cefb38474024989060200160405180910390a15050505050565b60975460ff161561193f5760405162461bcd60e51b815260206004820152601060248201526f14185d5cd8589b194e881c185d5cd95960821b6044820152606401610c0f565b80600003613a1257505050565b73eeeeeeeeeeeeeeeeeeeeeeeeeeeeeeeeeeeeeeed196001600160a01b03841601613aca576000826001600160a01b03168261753090604051600060405180830381858888f193505050503d8060008114613a89576040519150601f19603f3d011682016040523d82523d6000602084013e613a8e565b606091505b5050905080612378576001600160a01b038316600090815260d9602052604081208054849290613abf908490615514565b909155505050505050565b60cb5460405163a9059cbb60e01b81526001600160a01b038481166004830152602482018490529091169063a9059cbb906044016020604051808303816000875af1158015613b1d573d6000803e3d6000fd5b505050506040513d601f19601f820116820180604052508101906123789190614f56565b505050565b60008160000151826020015183604001518460600151604051602001613b6f94939291906155ef565b604051602081830303815290604052805190602001209050919050565b6000613b998284866140e8565b949350505050565b60c9546040516d616464726573732e636f6e66696760901b602082015260009182916001600160a01b03909116906321f8a72190602e01604051602081830303815290604052805190602001206040518263ffffffff1660e01b8152600401613c0c91815260200190565b602060405180830381865afa158015613c29573d6000803e3d6000fd5b505050506040513d601f19601f82011682018060405250810190613c4d9190615102565b90506001600160a01b038116613c6657611f4091505090565b6000816001600160a01b031663bd02d0f5604051602001613ca090721cda185c994b9c1c9a5b585c9e505c9d1a5cdd606a1b815260130190565b604051602081830303815290604052805190602001206040518263ffffffff1660e01b8152600401613cd491815260200190565b602060405180830381865afa158015613cf1573d6000803e3d6000fd5b505050506040513d601f19601f82011682018060405250810190613d1591906154fb565b90508015613d235780613d27565b611f405b9250505090565b60c95460408051634783c35b60e01b8152905133926001600160a01b031691634783c35b9160048083019260209291908290030181865afa158015613d77573d6000803e3d6000fd5b505050506040513d601f19601f82011682018060405250810190613d9b9190615102565b6001600160a01b0316146118975760405162461bcd60e51b8152600401610c0f90614f78565b7f4910fdfa16fed3260ed0e7147f7cc6da11a60208b5b9406d12a635614ffd91435460ff1615613df457613b41836140fe565b826001600160a01b03166352d1902d6040518163ffffffff1660e01b8152600401602060405180830381865afa925050508015613e4e575060408051601f3d908101601f19168201909252613e4b918101906154fb565b60015b613eb15760405162461bcd60e51b815260206004820152602e60248201527f45524331393637557067726164653a206e657720696d706c656d656e7461746960448201526d6f6e206973206e6f74205555505360901b6064820152608401610c0f565b6000805160206156b78339815191528114613f205760405162461bcd60e51b815260206004820152602960248201527f45524331393637557067726164653a20756e737570706f727465642070726f786044820152681a58589b195555525160ba1b6064820152608401610c0f565b50613b4183838361419a565b613f346141bf565b6097805460ff191690557f5db9ee0a495bf2e6ff9c91a7834c1ba4fdd244a5e8aa4e537bd38aeae4b073aa335b6040516001600160a01b03909116815260200160405180910390a1565b6040517f19457468657265756d205369676e6564204d6573736167653a0a3332000000006020820152603c8101829052600090605c01613b6f565b6000806000613fc88585614208565b91509150613fd58161424d565b509392505050565b613fe56139bf565b6097805460ff191660011790557f62e78cea01bee320cd4e420270b5ea74000d11b0c9f74754ebdbfc544b05a258613f613390565b60cd54604051631e961d2760e01b81526001600160a01b038481166004830152602482018490526000921690631e961d27906044016020604051808303816000875af115801561406e573d6000803e3d6000fd5b505050506040513d601f19601f82011682018060405250810190612fe991906154fb565b600054610100900460ff166140b95760405162461bcd60e51b8152600401610c0f90615626565b61193f614403565b600054610100900460ff1661193f5760405162461bcd60e51b8152600401610c0f90615626565b6000826140f58584614436565b14949350505050565b6001600160a01b0381163b61416b5760405162461bcd60e51b815260206004820152602d60248201527f455243313936373a206e657720696d706c656d656e746174696f6e206973206e60448201526c1bdd08184818dbdb9d1c9858dd609a1b6064820152608401610c0f565b6000805160206156b783398151915280546001600160a01b0319166001600160a01b0392909216919091179055565b6141a38361447b565b6000825111806141b05750805b15613b415761237883836144bb565b60975460ff1661193f5760405162461bcd60e51b815260206004820152601460248201527314185d5cd8589b194e881b9bdd081c185d5cd95960621b6044820152606401610c0f565b600080825160410361423e5760208301516040840151606085015160001a614232878285856145af565b94509450505050614246565b506000905060025b9250929050565b600081600481111561426157614261614b8a565b036142695750565b600181600481111561427d5761427d614b8a565b036142ca5760405162461bcd60e51b815260206004820152601860248201527f45434453413a20696e76616c6964207369676e617475726500000000000000006044820152606401610c0f565b60028160048111156142de576142de614b8a565b0361432b5760405162461bcd60e51b815260206004820152601f60248201527f45434453413a20696e76616c6964207369676e6174757265206c656e677468006044820152606401610c0f565b600381600481111561433f5761433f614b8a565b036143975760405162461bcd60e51b815260206004820152602260248201527f45434453413a20696e76616c6964207369676e6174757265202773272076616c604482015261756560f01b6064820152608401610c0f565b60048160048111156143ab576143ab614b8a565b036118975760405162461bcd60e51b815260206004820152602260248201527f45434453413a20696e76616c6964207369676e6174757265202776272076616c604482015261756560f01b6064820152608401610c0f565b600054610100900460ff1661442a5760405162461bcd60e51b8152600401610c0f90615626565b6097805460ff19169055565b600081815b8451811015613fd5576144678286838151811061445a5761445a6154cc565b602002602001015161469c565b915080614473816154e2565b91505061443b565b614484816140fe565b6040516001600160a01b038216907fbc7cd75a20ee27fd9adebab32041f755214dbc6bffa90cc0225b39da2e5c2d3b90600090a250565b60606001600160a01b0383163b6145235760405162461bcd60e51b815260206004820152602660248201527f416464726573733a2064656c65676174652063616c6c20746f206e6f6e2d636f6044820152651b9d1c9858dd60d21b6064820152608401610c0f565b600080846001600160a01b03168460405161453e9190615671565b600060405180830381855af49150503d8060008114614579576040519150601f19603f3d011682016040523d82523d6000602084013e61457e565b606091505b50915091506145a682826040518060600160405280602781526020016156d7602791396146cb565b95945050505050565b6000807f7fffffffffffffffffffffffffffffff5d576e7357a4501ddfe92f46681b20a08311156145e65750600090506003614693565b8460ff16601b141580156145fe57508460ff16601c14155b1561460f5750600090506004614693565b6040805160008082526020820180845289905260ff881692820192909252606081018690526080810185905260019060a0016020604051602081039080840390855afa158015614663573d6000803e3d6000fd5b5050604051601f1901519150506001600160a01b03811661468c57600060019250925050614693565b9150600090505b94509492505050565b60008183106146b8576000828152602084905260409020612fe9565b6000838152602083905260409020612fe9565b606083156146da575081612fe9565b8251156146ea5782518084602001fd5b8160405162461bcd60e51b8152600401610c0f9190615683565b6001600160a01b038116811461189757600080fd5b60006020828403121561472b57600080fd5b8135612fe981614704565b60006020828403121561474857600080fd5b5035919050565b60008060006060848603121561476457600080fd5b833561476f81614704565b95602085013595506040909401359392505050565b6000610180828403121561479757600080fd5b50919050565b6000806101a083850312156147b157600080fd5b6147bb8484614784565b91506101808301356147cc81614704565b809150509250929050565b6000602082840312156147e957600080fd5b81356001600160401b038111156147ff57600080fd5b820160a08185031215612fe957600080fd5b63ffffffff8116811461189757600080fd5b6004811061189757600080fd5b60008060008060008060008060006101208a8c03121561484f57600080fd5b8935985060208a0135975060408a0135965060608a013561486f81614811565b955060808a013561487f81614811565b945060a08a013561488f81614704565b935060c08a013561ffff811681146148a657600080fd5b925060e08a01356148b681614823565b91506101008a01356148c781614811565b809150509295985092959850929598565b600080604083850312156148eb57600080fd5b8235915060208301356147cc81614704565b6000806040838503121561491057600080fd5b50508035926020909101359150565b6000806040838503121561493257600080fd5b8235915060208301356147cc81614811565b634e487b7160e01b600052604160045260246000fd5b60405160a081016001600160401b038111828210171561497c5761497c614944565b60405290565b604051601f8201601f191681016001600160401b03811182821017156149aa576149aa614944565b604052919050565b60006001600160401b038311156149cb576149cb614944565b6149de601f8401601f1916602001614982565b90508281528383830111156149f257600080fd5b828260208301376000602084830101529392505050565b60008060408385031215614a1c57600080fd5b8235614a2781614704565b915060208301356001600160401b03811115614a4257600080fd5b8301601f81018513614a5357600080fd5b614a62858235602084016149b2565b9150509250929050565b60006101808284031215614a7f57600080fd5b612fe98383614784565b60008060208385031215614a9c57600080fd5b82356001600160401b0380821115614ab357600080fd5b818501915085601f830112614ac757600080fd5b813581811115614ad657600080fd5b86602061018083028501011115614aec57600080fd5b60209290920196919550909350505050565b600080600080600060808688031215614b1657600080fd5b85359450602086013593506040860135925060608601356001600160401b0380821115614b4257600080fd5b818801915088601f830112614b5657600080fd5b813581811115614b6557600080fd5b896020828501011115614b7757600080fd5b9699959850939650602001949392505050565b634e487b7160e01b600052602160045260246000fd5b60048110614bbe57634e487b7160e01b600052602160045260246000fd5b9052565b815163ffffffff16815261018081016020830151614be8602084018263ffffffff169052565b506040830151614c00604084018263ffffffff169052565b506060830151614c18606084018263ffffffff169052565b506080830151614c30608084018263ffffffff169052565b5060a0830151614c4860a084018263ffffffff169052565b5060c0830151614c6060c084018263ffffffff169052565b5060e0830151614c7360e0840182614ba0565b50610100838101516001600160a01b0316908301526101208084015190830152610140808401519083015261016092830151929091019190915290565b60008060208385031215614cc357600080fd5b82356001600160401b0380821115614cda57600080fd5b818501915085601f830112614cee57600080fd5b813581811115614cfd57600080fd5b8660208260051b8501011115614aec57600080fd5b600080600060608486031215614d2757600080fd5b505081359360208301359350604090920135919050565b6020808252825182820181905260009190848201906040850190845b81811015614d7f5783516001600160a01b031683529284019291840191600101614d5a565b50909695505050505050565b60006001600160401b03821115614da457614da4614944565b5060051b60200190565b600082601f830112614dbf57600080fd5b81356020614dd4614dcf83614d8b565b614982565b82815260059290921b84018101918181019086841115614df357600080fd5b8286015b84811015614e0e5780358352918301918301614df7565b509695505050505050565b600080600060608486031215614e2e57600080fd5b83356001600160401b0380821115614e4557600080fd5b818601915086601f830112614e5957600080fd5b81356020614e69614dcf83614d8b565b82815260059290921b8401810191818101908a841115614e8857600080fd5b948201945b83861015614eaf578535614ea081614704565b82529482019490820190614e8d565b9750508701359450506040860135915080821115614ecc57600080fd5b50614ed986828701614dae565b9150509250925092565b60008060008060808587031215614ef957600080fd5b8435614f0481614704565b93506020850135614f1481614704565b92506040850135614f2481614704565b91506060850135614f3481614704565b939692955090935050565b9182526001600160a01b0316602082015260400190565b600060208284031215614f6857600080fd5b81518015158114612fe957600080fd5b60208082526010908201526f41646d696e2063616c6c73206f6e6c7960801b604082015260600190565b634e487b7160e01b600052601160045260246000fd5b600082821015614fca57614fca614fa2565b500390565b600060a08236031215614fe157600080fd5b614fe961495a565b823581526020830135614ffb81614704565b60208201526040838101359082015260608301356001600160401b038082111561502457600080fd5b9084019036601f83011261503757600080fd5b615046368335602085016149b2565b6060840152608085013591508082111561505f57600080fd5b5061506c36828601614dae565b60808301525092915050565b6000808335601e1984360301811261508f57600080fd5b8301803591506001600160401b038211156150a957600080fd5b6020019150600581901b360382131561424657600080fd5b60008160001904831182151516156150db576150db614fa2565b500290565b6000826150fd57634e487b7160e01b600052601260045260246000fd5b500490565b60006020828403121561511457600080fd5b8151612fe981614704565b6000808335601e1984360301811261513657600080fd5b8301803591506001600160401b0382111561515057600080fd5b60200191503681900382131561424657600080fd5b6001600160a01b03841681526040602082018190528101829052818360608301376000818301606090810191909152601f909201601f1916010192915050565b60208082526023908201527f436c6f73652074696d65206d7573742062652061667465722073746172742074604082015262696d6560e81b606082015260800190565b6020808252602c908201527f46756e6374696f6e206d7573742062652063616c6c6564207468726f7567682060408201526b19195b1959d85d1958d85b1b60a21b606082015260800190565b6020808252602c908201527f46756e6374696f6e206d7573742062652063616c6c6564207468726f7567682060408201526b6163746976652070726f787960a01b606082015260800190565b60006020828403121561529257600080fd5b8135612fe981614811565b600081356152aa81614811565b92915050565b600081356152aa81614823565b600482106152db57634e487b7160e01b600052602160045260246000fd5b805460ff60e01b191660e09290921b60ff60e01b16919091179055565b600081356152aa81614704565b6153286153118361529d565b825463ffffffff191663ffffffff91909116178255565b6153596153376020840161529d565b825467ffffffff00000000191660209190911b67ffffffff0000000016178255565b6153926153686040840161529d565b82546bffffffff0000000000000000191660409190911b6bffffffff000000000000000016178255565b6153c56153a16060840161529d565b82805463ffffffff60601b191660609290921b63ffffffff60601b16919091179055565b6153f86153d46080840161529d565b82805463ffffffff60801b191660809290921b63ffffffff60801b16919091179055565b61542b61540760a0840161529d565b82805463ffffffff60a01b191660a09290921b63ffffffff60a01b16919091179055565b61545e61543a60c0840161529d565b82805463ffffffff60c01b191660c09290921b63ffffffff60c01b16919091179055565b61547361546d60e084016152b0565b826152bd565b6154a761548361010084016152f8565b6001830180546001600160a01b0319166001600160a01b0392909216919091179055565b6101208201356002820155610140820135600382015561016082013560048201555050565b634e487b7160e01b600052603260045260246000fd5b6000600182016154f4576154f4614fa2565b5060010190565b60006020828403121561550d57600080fd5b5051919050565b6000821982111561552757615527614fa2565b500190565b600063ffffffff80831681851680830382111561554b5761554b614fa2565b01949350505050565b600063ffffffff80831681810361556d5761556d614fa2565b6001019392505050565b60008235609e1983360301811261558d57600080fd5b9190910192915050565b60005b838110156155b257818101518382015260200161559a565b838111156123785750506000910152565b600081518084526155db816020860160208601615597565b601f01601f19169290920160200192915050565b84815260018060a01b038416602082015282604082015260806060820152600061561c60808301846155c3565b9695505050505050565b6020808252602b908201527f496e697469616c697a61626c653a20636f6e7472616374206973206e6f74206960408201526a6e697469616c697a696e6760a81b606082015260800190565b6000825161558d818460208701615597565b602081526000612fe960208301846155c356fea3aca9ae20a0379d4094b84c749cbed6584ab20f0b71af75f63f6615d879c939360894a13ba1a3210667c828492db98dca3e2076cc3735a920a3ca505d382bbc416464726573733a206c6f772d6c6576656c2064656c65676174652063616c6c206661696c6564e303cb88ace8c9e6ba216f1aecb44b3206dcab364c60512ffc6cbc920a1bf9d1a26469706673582212203683ba79776d553ff7ce46e45c9d080ad19384b1915534551f8332be6d9672cf64736f6c634300080e0033",
  "linkReferences": {},
  "deployedLinkReferences": {}
}