{
  "_format": "hh-sol-artifact-1",
  "contractName": "Lottery",
  "sourceName": "contracts/Lottery/Lottery.sol",
  "abi": [
    {
      "inputs": [],
      "stateMutability": "nonpayable",
      "type": "constructor"
    },
    {
      "anonymous": false,
      "inputs": [
        {
          "indexed": false,
          "internalType": "address",
          "name": "previousAdmin",
          "type": "address"
        },
        {
          "indexed": false,
          "internalType": "address",
          "name": "newAdmin",
          "type": "address"
        }
      ],
      "name": "AdminChanged",
      "type": "event"
    },
    {
      "anonymous": false,
      "inputs": [
        {
          "indexed": true,
          "internalType": "address",
          "name": "beacon",
          "type": "address"
        }
      ],
      "name": "BeaconUpgraded",
      "type": "event"
    },
    {
      "anonymous": false,
      "inputs": [
        {
          "indexed": false,
          "internalType": "uint8",
          "name": "version",
          "type": "uint8"
        }
      ],
      "name": "Initialized",
      "type": "event"
    },
    {
      "anonymous": false,
      "inputs": [
        {
          "indexed": true,
          "internalType": "uint256",
          "name": "lotteryId",
          "type": "uint256"
        },
        {
          "indexed": true,
          "internalType": "enum Lottery.Status",
          "name": "status",
          "type": "uint8"
        }
      ],
      "name": "LotteryStatusChanged",
      "type": "event"
    },
    {
      "anonymous": false,
      "inputs": [
        {
          "indexed": false,
          "internalType": "address",
          "name": "account",
          "type": "address"
        }
      ],
      "name": "Paused",
      "type": "event"
    },
    {
      "anonymous": false,
      "inputs": [
        {
          "indexed": true,
          "internalType": "uint256",
          "name": "lotteryId",
          "type": "uint256"
        },
        {
          "indexed": true,
          "internalType": "address",
          "name": "participantAddress",
          "type": "address"
        },
        {
          "indexed": true,
          "internalType": "uint256",
          "name": "prizeId",
          "type": "uint256"
        }
      ],
      "name": "PrizeClaimed",
      "type": "event"
    },
    {
      "anonymous": false,
      "inputs": [
        {
          "indexed": true,
          "internalType": "uint256",
          "name": "lotteryId",
          "type": "uint256"
        },
        {
          "indexed": true,
          "internalType": "address",
          "name": "participantAddress",
          "type": "address"
        },
        {
          "indexed": false,
          "internalType": "uint256",
          "name": "amount",
          "type": "uint256"
        }
      ],
      "name": "Refunded",
      "type": "event"
    },
    {
      "anonymous": false,
      "inputs": [
        {
          "indexed": false,
          "internalType": "address",
          "name": "operator",
          "type": "address"
        },
        {
          "indexed": false,
          "internalType": "uint256",
          "name": "lotteryId",
          "type": "uint256"
        },
        {
          "indexed": false,
          "internalType": "uint256",
          "name": "priceOfTicket",
          "type": "uint256"
        }
      ],
      "name": "TicketCostChanged",
      "type": "event"
    },
    {
      "anonymous": false,
      "inputs": [
        {
          "indexed": true,
          "internalType": "uint256",
          "name": "lotteryId",
          "type": "uint256"
        },
        {
          "indexed": false,
          "internalType": "uint256",
          "name": "ticketNumber",
          "type": "uint256"
        },
        {
          "indexed": true,
          "internalType": "address",
          "name": "participantAddress",
          "type": "address"
        }
      ],
      "name": "TicketSold",
      "type": "event"
    },
    {
      "anonymous": false,
      "inputs": [
        {
          "indexed": false,
          "internalType": "address",
          "name": "account",
          "type": "address"
        }
      ],
      "name": "Unpaused",
      "type": "event"
    },
    {
      "anonymous": false,
      "inputs": [
        {
          "indexed": true,
          "internalType": "address",
          "name": "implementation",
          "type": "address"
        }
      ],
      "name": "Upgraded",
      "type": "event"
    },
    {
      "inputs": [
        {
          "internalType": "uint256",
          "name": "_lotteryId",
          "type": "uint256"
        },
        {
          "internalType": "uint256",
          "name": "_numberOfTicketsToBuy",
          "type": "uint256"
        }
      ],
      "name": "buyTickets",
      "outputs": [],
      "stateMutability": "nonpayable",
      "type": "function"
    },
    {
      "inputs": [
        {
          "internalType": "uint256",
          "name": "_points",
          "type": "uint256"
        },
        {
          "internalType": "uint256",
          "name": "_lotteryId",
          "type": "uint256"
        },
        {
          "internalType": "uint256",
          "name": "_numberOfTicketsToBuy",
          "type": "uint256"
        },
        {
          "internalType": "bytes",
          "name": "_sig",
          "type": "bytes"
        }
      ],
      "name": "buyTicketsWithSignedMessage",
      "outputs": [],
      "stateMutability": "nonpayable",
      "type": "function"
    },
    {
      "inputs": [
        {
          "internalType": "uint256",
          "name": "_lotteryId",
          "type": "uint256"
        }
      ],
      "name": "cancelLottery",
      "outputs": [],
      "stateMutability": "nonpayable",
      "type": "function"
    },
    {
      "inputs": [
        {
          "internalType": "uint256",
          "name": "_lotteryId",
          "type": "uint256"
        },
        {
          "internalType": "uint32",
          "name": "_time",
          "type": "uint32"
        }
      ],
      "name": "changeCloseTime",
      "outputs": [],
      "stateMutability": "nonpayable",
      "type": "function"
    },
    {
      "inputs": [
        {
          "components": [
            {
              "internalType": "uint256",
              "name": "lotteryId",
              "type": "uint256"
            },
            {
              "internalType": "address",
              "name": "winner",
              "type": "address"
            },
            {
              "internalType": "uint256",
              "name": "ticketNumber",
              "type": "uint256"
            },
            {
              "internalType": "string",
              "name": "uri",
              "type": "string"
            },
            {
              "internalType": "bytes32[]",
              "name": "proof",
              "type": "bytes32[]"
            }
          ],
          "internalType": "struct Lottery.ProofData",
          "name": "_proofData",
          "type": "tuple"
        }
      ],
      "name": "claimPrize",
      "outputs": [],
      "stateMutability": "nonpayable",
      "type": "function"
    },
    {
      "inputs": [
        {
          "components": [
            {
              "internalType": "uint256",
              "name": "lotteryId",
              "type": "uint256"
            },
            {
              "internalType": "address",
              "name": "winner",
              "type": "address"
            },
            {
              "internalType": "uint256",
              "name": "ticketNumber",
              "type": "uint256"
            },
            {
              "internalType": "string",
              "name": "uri",
              "type": "string"
            },
            {
              "internalType": "bytes32[]",
              "name": "proof",
              "type": "bytes32[]"
            }
          ],
          "internalType": "struct Lottery.ProofData[]",
          "name": "_proofData",
          "type": "tuple[]"
        }
      ],
      "name": "claimPrizeBatch",
      "outputs": [],
      "stateMutability": "nonpayable",
      "type": "function"
    },
    {
      "inputs": [
        {
          "internalType": "uint256",
          "name": "",
          "type": "uint256"
        },
        {
          "internalType": "uint256",
          "name": "",
          "type": "uint256"
        }
      ],
      "name": "claimedPrizes",
      "outputs": [
        {
          "internalType": "bool",
          "name": "",
          "type": "bool"
        }
      ],
      "stateMutability": "view",
      "type": "function"
    },
    {
      "inputs": [
        {
          "components": [
            {
              "internalType": "uint32",
              "name": "startTime",
              "type": "uint32"
            },
            {
              "internalType": "uint32",
              "name": "closeTime",
              "type": "uint32"
            },
            {
              "internalType": "uint32",
              "name": "participantsCount",
              "type": "uint32"
            },
            {
              "internalType": "uint32",
              "name": "maxTickets",
              "type": "uint32"
            },
            {
              "internalType": "uint32",
              "name": "maxTicketsPerUser",
              "type": "uint32"
            },
            {
              "internalType": "uint32",
              "name": "numberOfTicketsSold",
              "type": "uint32"
            },
            {
              "internalType": "uint32",
              "name": "numberOfEditions",
              "type": "uint32"
            },
            {
              "internalType": "enum Lottery.Status",
              "name": "status",
              "type": "uint8"
            },
            {
              "internalType": "contract INFT",
              "name": "nftContract",
              "type": "address"
            },
            {
              "internalType": "uint256",
              "name": "lotteryID",
              "type": "uint256"
            },
            {
              "internalType": "uint256",
              "name": "ticketCostPoints",
              "type": "uint256"
            },
            {
              "internalType": "uint256",
              "name": "ticketCostTokens",
              "type": "uint256"
            }
          ],
          "internalType": "struct Lottery.LotteryInfo",
          "name": "_lotteryInfo",
          "type": "tuple"
        }
      ],
      "name": "createLottery",
      "outputs": [],
      "stateMutability": "nonpayable",
      "type": "function"
    },
    {
      "inputs": [
        {
          "components": [
            {
              "internalType": "uint32",
              "name": "startTime",
              "type": "uint32"
            },
            {
              "internalType": "uint32",
              "name": "closeTime",
              "type": "uint32"
            },
            {
              "internalType": "uint32",
              "name": "participantsCount",
              "type": "uint32"
            },
            {
              "internalType": "uint32",
              "name": "maxTickets",
              "type": "uint32"
            },
            {
              "internalType": "uint32",
              "name": "maxTicketsPerUser",
              "type": "uint32"
            },
            {
              "internalType": "uint32",
              "name": "numberOfTicketsSold",
              "type": "uint32"
            },
            {
              "internalType": "uint32",
              "name": "numberOfEditions",
              "type": "uint32"
            },
            {
              "internalType": "enum Lottery.Status",
              "name": "status",
              "type": "uint8"
            },
            {
              "internalType": "contract INFT",
              "name": "nftContract",
              "type": "address"
            },
            {
              "internalType": "uint256",
              "name": "lotteryID",
              "type": "uint256"
            },
            {
              "internalType": "uint256",
              "name": "ticketCostPoints",
              "type": "uint256"
            },
            {
              "internalType": "uint256",
              "name": "ticketCostTokens",
              "type": "uint256"
            }
          ],
          "internalType": "struct Lottery.LotteryInfo[]",
          "name": "_lotteries",
          "type": "tuple[]"
        }
      ],
      "name": "createLotteryBatch",
      "outputs": [],
      "stateMutability": "nonpayable",
      "type": "function"
    },
    {
      "inputs": [],
      "name": "getLotteryCount",
      "outputs": [
        {
          "internalType": "uint256",
          "name": "",
          "type": "uint256"
        }
      ],
      "stateMutability": "view",
      "type": "function"
    },
    {
      "inputs": [
        {
          "internalType": "uint256",
          "name": "_lotteryId",
          "type": "uint256"
        }
      ],
      "name": "getLotteryInfo",
      "outputs": [
        {
          "components": [
            {
              "internalType": "uint32",
              "name": "startTime",
              "type": "uint32"
            },
            {
              "internalType": "uint32",
              "name": "closeTime",
              "type": "uint32"
            },
            {
              "internalType": "uint32",
              "name": "participantsCount",
              "type": "uint32"
            },
            {
              "internalType": "uint32",
              "name": "maxTickets",
              "type": "uint32"
            },
            {
              "internalType": "uint32",
              "name": "maxTicketsPerUser",
              "type": "uint32"
            },
            {
              "internalType": "uint32",
              "name": "numberOfTicketsSold",
              "type": "uint32"
            },
            {
              "internalType": "uint32",
              "name": "numberOfEditions",
              "type": "uint32"
            },
            {
              "internalType": "enum Lottery.Status",
              "name": "status",
              "type": "uint8"
            },
            {
              "internalType": "contract INFT",
              "name": "nftContract",
              "type": "address"
            },
            {
              "internalType": "uint256",
              "name": "lotteryID",
              "type": "uint256"
            },
            {
              "internalType": "uint256",
              "name": "ticketCostPoints",
              "type": "uint256"
            },
            {
              "internalType": "uint256",
              "name": "ticketCostTokens",
              "type": "uint256"
            }
          ],
          "internalType": "struct Lottery.LotteryInfo",
          "name": "",
          "type": "tuple"
        }
      ],
      "stateMutability": "view",
      "type": "function"
    },
    {
      "inputs": [
        {
          "internalType": "uint256",
          "name": "_lotteryId",
          "type": "uint256"
        }
      ],
      "name": "getLotteryTicketCount",
      "outputs": [
        {
          "internalType": "uint256",
          "name": "",
          "type": "uint256"
        }
      ],
      "stateMutability": "view",
      "type": "function"
    },
    {
      "inputs": [
        {
          "internalType": "uint256",
          "name": "_lotteryId",
          "type": "uint256"
        },
        {
          "internalType": "uint256",
          "name": "_from",
          "type": "uint256"
        },
        {
          "internalType": "uint256",
          "name": "_to",
          "type": "uint256"
        }
      ],
      "name": "getLotteryTickets",
      "outputs": [
        {
          "internalType": "address[]",
          "name": "",
          "type": "address[]"
        }
      ],
      "stateMutability": "view",
      "type": "function"
    },
    {
      "inputs": [
        {
          "internalType": "uint256",
          "name": "_lotteryId",
          "type": "uint256"
        }
      ],
      "name": "getParticipantsCount",
      "outputs": [
        {
          "internalType": "uint32",
          "name": "",
          "type": "uint32"
        }
      ],
      "stateMutability": "view",
      "type": "function"
    },
    {
      "inputs": [
        {
          "internalType": "uint256",
          "name": "_lotteryId",
          "type": "uint256"
        },
        {
          "internalType": "address",
          "name": "_user",
          "type": "address"
        }
      ],
      "name": "getTicketCountPerUser",
      "outputs": [
        {
          "internalType": "uint256",
          "name": "",
          "type": "uint256"
        }
      ],
      "stateMutability": "view",
      "type": "function"
    },
    {
      "inputs": [
        {
          "internalType": "uint256",
          "name": "_lotteryId",
          "type": "uint256"
        }
      ],
      "name": "getWhitelist",
      "outputs": [
        {
          "internalType": "address",
          "name": "",
          "type": "address"
        }
      ],
      "stateMutability": "view",
      "type": "function"
    },
    {
      "inputs": [
        {
          "internalType": "address",
          "name": "_rewardsContract",
          "type": "address"
        },
        {
          "internalType": "address",
          "name": "_admin",
          "type": "address"
        },
        {
          "internalType": "address",
          "name": "_token",
          "type": "address"
        },
        {
          "internalType": "address",
          "name": "_sageStorage",
          "type": "address"
        }
      ],
      "name": "initialize",
      "outputs": [],
      "stateMutability": "nonpayable",
      "type": "function"
    },
    {
      "inputs": [
        {
          "internalType": "uint256",
          "name": "",
          "type": "uint256"
        }
      ],
      "name": "lotteries",
      "outputs": [
        {
          "internalType": "uint256",
          "name": "",
          "type": "uint256"
        }
      ],
      "stateMutability": "view",
      "type": "function"
    },
    {
      "inputs": [
        {
          "internalType": "uint256",
          "name": "",
          "type": "uint256"
        }
      ],
      "name": "lotteryArtistShare",
      "outputs": [
        {
          "internalType": "uint256",
          "name": "",
          "type": "uint256"
        }
      ],
      "stateMutability": "view",
      "type": "function"
    },
    {
      "inputs": [
        {
          "internalType": "uint256",
          "name": "",
          "type": "uint256"
        },
        {
          "internalType": "uint256",
          "name": "",
          "type": "uint256"
        }
      ],
      "name": "lotteryTickets",
      "outputs": [
        {
          "internalType": "address",
          "name": "",
          "type": "address"
        }
      ],
      "stateMutability": "view",
      "type": "function"
    },
    {
      "inputs": [
        {
          "internalType": "uint256",
          "name": "",
          "type": "uint256"
        },
        {
          "internalType": "address",
          "name": "",
          "type": "address"
        }
      ],
      "name": "participantTicketCount",
      "outputs": [
        {
          "internalType": "uint256",
          "name": "",
          "type": "uint256"
        }
      ],
      "stateMutability": "view",
      "type": "function"
    },
    {
      "inputs": [],
      "name": "pause",
      "outputs": [],
      "stateMutability": "nonpayable",
      "type": "function"
    },
    {
      "inputs": [],
      "name": "paused",
      "outputs": [
        {
          "internalType": "bool",
          "name": "",
          "type": "bool"
        }
      ],
      "stateMutability": "view",
      "type": "function"
    },
    {
      "inputs": [
        {
          "internalType": "uint256",
          "name": "_lotteryId",
          "type": "uint256"
        },
        {
          "internalType": "uint256",
          "name": "_tokenId",
          "type": "uint256"
        }
      ],
      "name": "prizeClaimed",
      "outputs": [
        {
          "internalType": "bool",
          "name": "",
          "type": "bool"
        }
      ],
      "stateMutability": "view",
      "type": "function"
    },
    {
      "inputs": [
        {
          "internalType": "uint256",
          "name": "",
          "type": "uint256"
        }
      ],
      "name": "prizeMerkleRoots",
      "outputs": [
        {
          "internalType": "bytes32",
          "name": "",
          "type": "bytes32"
        }
      ],
      "stateMutability": "view",
      "type": "function"
    },
    {
      "inputs": [],
      "name": "proxiableUUID",
      "outputs": [
        {
          "internalType": "bytes32",
          "name": "",
          "type": "bytes32"
        }
      ],
      "stateMutability": "view",
      "type": "function"
    },
    {
      "inputs": [
        {
          "internalType": "uint256",
          "name": "",
          "type": "uint256"
        }
      ],
      "name": "randomSeeds",
      "outputs": [
        {
          "internalType": "uint256",
          "name": "",
          "type": "uint256"
        }
      ],
      "stateMutability": "view",
      "type": "function"
    },
    {
      "inputs": [
        {
          "internalType": "uint256",
          "name": "_lotteryId",
          "type": "uint256"
        },
        {
          "internalType": "uint256",
          "name": "_randomNumber",
          "type": "uint256"
        }
      ],
      "name": "receiveRandomNumber",
      "outputs": [],
      "stateMutability": "nonpayable",
      "type": "function"
    },
    {
      "inputs": [
        {
          "internalType": "address",
          "name": "_assetOwner",
          "type": "address"
        },
        {
          "internalType": "uint256",
          "name": "_lotteryId",
          "type": "uint256"
        },
        {
          "internalType": "uint256",
          "name": "_amount",
          "type": "uint256"
        }
      ],
      "name": "refund",
      "outputs": [],
      "stateMutability": "nonpayable",
      "type": "function"
    },
    {
      "inputs": [
        {
          "internalType": "address[]",
          "name": "_owners",
          "type": "address[]"
        },
        {
          "internalType": "uint256",
          "name": "_lotteryId",
          "type": "uint256"
        },
        {
          "internalType": "uint256[]",
          "name": "_amounts",
          "type": "uint256[]"
        }
      ],
      "name": "refundBatch",
      "outputs": [],
      "stateMutability": "nonpayable",
      "type": "function"
    },
    {
      "inputs": [
        {
          "internalType": "uint256",
          "name": "",
          "type": "uint256"
        },
        {
          "internalType": "address",
          "name": "",
          "type": "address"
        }
      ],
      "name": "refunds",
      "outputs": [
        {
          "internalType": "uint256",
          "name": "",
          "type": "uint256"
        }
      ],
      "stateMutability": "view",
      "type": "function"
    },
    {
      "inputs": [
        {
          "internalType": "uint256",
          "name": "_lotteryId",
          "type": "uint256"
        }
      ],
      "name": "requestRandomNumber",
      "outputs": [],
      "stateMutability": "nonpayable",
      "type": "function"
    },
    {
      "inputs": [],
      "name": "rewardsContract",
      "outputs": [
        {
          "internalType": "contract IRewards",
          "name": "",
          "type": "address"
        }
      ],
      "stateMutability": "view",
      "type": "function"
    },
    {
      "inputs": [
        {
          "internalType": "uint256",
          "name": "_lotteryId",
          "type": "uint256"
        },
        {
          "internalType": "uint256",
          "name": "_shareBps",
          "type": "uint256"
        }
      ],
      "name": "setLotteryArtistShare",
      "outputs": [],
      "stateMutability": "nonpayable",
      "type": "function"
    },
    {
      "inputs": [
        {
          "internalType": "uint256",
          "name": "_lotteryId",
          "type": "uint256"
        },
        {
          "internalType": "uint32",
          "name": "_maxTickets",
          "type": "uint32"
        }
      ],
      "name": "setMaxTickets",
      "outputs": [],
      "stateMutability": "nonpayable",
      "type": "function"
    },
    {
      "inputs": [
        {
          "internalType": "uint256",
          "name": "_lotteryId",
          "type": "uint256"
        },
        {
          "internalType": "uint32",
          "name": "_maxTicketsPerUser",
          "type": "uint32"
        }
      ],
      "name": "setMaxTicketsPerUser",
      "outputs": [],
      "stateMutability": "nonpayable",
      "type": "function"
    },
    {
      "inputs": [
        {
          "internalType": "uint256",
          "name": "_lotteryId",
          "type": "uint256"
        },
        {
          "internalType": "bytes32",
          "name": "_root",
          "type": "bytes32"
        }
      ],
      "name": "setPrizeMerkleRoot",
      "outputs": [],
      "stateMutability": "nonpayable",
      "type": "function"
    },
    {
      "inputs": [
        {
          "internalType": "address",
          "name": "_IRandomNumberGenerator",
          "type": "address"
        }
      ],
      "name": "setRandomGenerator",
      "outputs": [],
      "stateMutability": "nonpayable",
      "type": "function"
    },
    {
      "inputs": [
        {
          "internalType": "address",
          "name": "_rewardsContract",
          "type": "address"
        }
      ],
      "name": "setRewardsContract",
      "outputs": [],
      "stateMutability": "nonpayable",
      "type": "function"
    },
    {
      "inputs": [
        {
          "internalType": "address",
          "name": "_signer",
          "type": "address"
        }
      ],
      "name": "setSignerAddress",
      "outputs": [],
      "stateMutability": "nonpayable",
      "type": "function"
    },
    {
      "inputs": [
        {
          "internalType": "address",
          "name": "_token",
          "type": "address"
        }
      ],
      "name": "setToken",
      "outputs": [],
      "stateMutability": "nonpayable",
      "type": "function"
    },
    {
      "inputs": [
        {
          "internalType": "uint256",
          "name": "_lotteryId",
          "type": "uint256"
        },
        {
          "internalType": "address",
          "name": "_whitelist",
          "type": "address"
        }
      ],
      "name": "setWhitelist",
      "outputs": [],
      "stateMutability": "nonpayable",
      "type": "function"
    },
    {
      "inputs": [],
      "name": "token",
      "outputs": [
        {
          "internalType": "contract IERC20",
          "name": "",
          "type": "address"
        }
      ],
      "stateMutability": "view",
      "type": "function"
    },
    {
      "inputs": [],
      "name": "unpause",
      "outputs": [],
      "stateMutability": "nonpayable",
      "type": "function"
    },
    {
      "inputs": [
        {
          "internalType": "uint256",
          "name": "lotteryId",
          "type": "uint256"
        },
        {
          "internalType": "uint256",
          "name": "_ticketCostPoints",
          "type": "uint256"
        },
        {
          "internalType": "uint256",
          "name": "_ticketCostTokens",
          "type": "uint256"
        },
        {
          "internalType": "uint32",
          "name": "_startTime",
          "type": "uint32"
        },
        {
          "internalType": "uint32",
          "name": "_closeTime",
          "type": "uint32"
        },
        {
          "internalType": "contract INFT",
          "name": "_nftContract",
          "type": "address"
        },
        {
          "internalType": "uint16",
          "name": "_maxTickets",
          "type": "uint16"
        },
        {
          "internalType": "enum Lottery.Status",
          "name": "_status",
          "type": "uint8"
        },
        {
          "internalType": "uint32",
          "name": "_numberOfEditions",
          "type": "uint32"
        }
      ],
      "name": "updateLottery",
      "outputs": [],
      "stateMutability": "nonpayable",
      "type": "function"
    },
    {
      "inputs": [
        {
          "internalType": "address",
          "name": "newImplementation",
          "type": "address"
        }
      ],
      "name": "upgradeTo",
      "outputs": [],
      "stateMutability": "nonpayable",
      "type": "function"
    },
    {
      "inputs": [
        {
          "internalType": "address",
          "name": "newImplementation",
          "type": "address"
        },
        {
          "internalType": "bytes",
          "name": "data",
          "type": "bytes"
        }
      ],
      "name": "upgradeToAndCall",
      "outputs": [],
      "stateMutability": "payable",
      "type": "function"
    },
    {
      "inputs": [
        {
          "internalType": "uint256",
          "name": "",
          "type": "uint256"
        }
      ],
      "name": "whitelists",
      "outputs": [
        {
          "internalType": "address",
          "name": "",
          "type": "address"
        }
      ],
      "stateMutability": "view",
      "type": "function"
    },
    {
      "inputs": [
        {
          "internalType": "uint256",
          "name": "_amount",
          "type": "uint256"
        }
      ],
      "name": "withdraw",
      "outputs": [],
      "stateMutability": "nonpayable",
      "type": "function"
    }
  ],
  "bytecode": "0x60a0604052306080523480156200001557600080fd5b506200002062000026565b620000e8565b600054610100900460ff1615620000935760405162461bcd60e51b815260206004820152602760248201527f496e697469616c697a61626c653a20636f6e747261637420697320696e697469604482015266616c697a696e6760c81b606482015260840160405180910390fd5b60005460ff9081161015620000e6576000805460ff191660ff9081179091556040519081527f7f26b83ff96e1f2b6a682f133852f6798a09c465da95921460cefb38474024989060200160405180910390a15b565b608051615120620001206000396000818161163e0152818161167e01528181611b2e01528181611b6e0152611cac01526151206000f3fe6080604052600436106102ae5760003560e01c806372f5b6c211610175578063c730bba0116100dc578063eb1ea52111610095578063f8c8765e1161006f578063f8c8765e14610959578063f90328d514610979578063fc0c546a146109b4578063fe4d5add146109d457600080fd5b8063eb1ea521146108ca578063f4f46e35146108ea578063f5f489981461090a57600080fd5b8063c730bba0146107ca578063d098a2f014610802578063d43cf0461461082f578063d89da2861461084f578063db2c0fd11461086f578063dfa0dfa5146108aa57600080fd5b8063937ccc4a1161012e578063937ccc4a146106c057806396db752a146106ed5780639b7fecc314610723578063b1eb96c914610750578063bf4002b214610770578063c11ab6151461079057600080fd5b806372f5b6c2146105fe5780637350ab2c1461061e57806376b3c8a81461063e5780638456cb591461066b5780638627df46146106805780638c8bf83b146106a057600080fd5b806340cf23d9116102195780634f1ef286116101d25780634f1ef2861461055257806350612da61461056557806352d1902d146105855780635c975abb1461059a5780636013457f146105be5780636a6be315146105de57600080fd5b806340cf23d9146104575780634538f2971461049a578063454cc4bc146104ba57806349c0de88146104f25780634a004467146105125780634bc19fee1461053257600080fd5b806327a38a9e1161026b57806327a38a9e146103ad5780632801f84a146103cd5780632e1a7d4d146103ed5780632f9aa1fe1461040d5780633659cfe6146104225780633f4ba83a1461044257600080fd5b8063046dc166146102b35780631398e076146102d5578063144fa6d71461030857806318fd890314610328578063220cce97146103485780632368040014610380575b600080fd5b3480156102bf57600080fd5b506102d36102ce366004614132565b610a0a565b005b3480156102e157600080fd5b506102f56102f036600461414f565b610ad2565b6040519081526020015b60405180910390f35b34801561031457600080fd5b506102d3610323366004614132565b610af3565b34801561033457600080fd5b506102d3610343366004614168565b610bb2565b34801561035457600080fd5b5060cd54610368906001600160a01b031681565b6040516001600160a01b0390911681526020016102ff565b34801561038c57600080fd5b506102f561039b36600461414f565b60d56020526000908152604090205481565b3480156103b957600080fd5b506102d36103c836600461419d565b610ddf565b3480156103d957600080fd5b506102d36103e83660046141f6565b61127f565b3480156103f957600080fd5b506102d361040836600461414f565b6114aa565b34801561041957600080fd5b5060ce546102f5565b34801561042e57600080fd5b506102d361043d366004614132565b611634565b34801561044e57600080fd5b506102d3611713565b34801561046357600080fd5b506102f561047236600461429e565b600091825260d3602090815260408084206001600160a01b0393909316845291905290205490565b3480156104a657600080fd5b506102d36104b536600461414f565b6117ba565b3480156104c657600080fd5b506102f56104d536600461429e565b60d460209081526000928352604080842090915290825290205481565b3480156104fe57600080fd5b5061036861050d3660046142ce565b611907565b34801561051e57600080fd5b506102d361052d3660046142f0565b61193f565b34801561053e57600080fd5b506102d361054d366004614132565b611a0f565b6102d36105603660046143da565b611b24565b34801561057157600080fd5b506102d36105803660046142ce565b611bf0565b34801561059157600080fd5b506102f5611c9f565b3480156105a657600080fd5b5060975460ff165b60405190151581526020016102ff565b3480156105ca57600080fd5b506102d36105d936600461443d565b611d52565b3480156105ea57600080fd5b506102d36105f93660046142f0565b611fd0565b34801561060a57600080fd5b506102d3610619366004614456565b612117565b34801561062a57600080fd5b506102d36106393660046144cb565b6121f7565b34801561064a57600080fd5b5061065e61065936600461414f565b6123b8565b6040516102ff919061458f565b34801561067757600080fd5b506102d3612514565b34801561068c57600080fd5b506102d361069b3660046142ce565b6125b9565b3480156106ac57600080fd5b506102d36106bb36600461467d565b612a89565b3480156106cc57600080fd5b506102f56106db36600461414f565b60d76020526000908152604090205481565b3480156106f957600080fd5b5061036861070836600461414f565b600090815260d060205260409020546001600160a01b031690565b34801561072f57600080fd5b5061074361073e3660046146df565b612acc565b6040516102ff919061470b565b34801561075c57600080fd5b506102d361076b36600461414f565b612bb6565b34801561077c57600080fd5b506102d361078b3660046142f0565b612e61565b34801561079c57600080fd5b506102f56107ab36600461414f565b600090815260cf6020526040902054600160a01b900463ffffffff1690565b3480156107d657600080fd5b506102f56107e536600461429e565b60d360209081526000928352604080842090915290825290205481565b34801561080e57600080fd5b506102f561081d36600461414f565b60d16020526000908152604090205481565b34801561083b57600080fd5b506102d361084a3660046142ce565b612f31565b34801561085b57600080fd5b506102d361086a36600461429e565b613082565b34801561087b57600080fd5b506105ae61088a3660046142ce565b600091825260d26020908152604080842092845291905290205460ff1690565b3480156108b657600080fd5b506102d36108c5366004614132565b61314d565b3480156108d657600080fd5b506102d36108e53660046142ce565b61320c565b3480156108f657600080fd5b506102d36109053660046147e6565b61330b565b34801561091657600080fd5b5061094461092536600461414f565b600090815260cf6020526040902054600160401b900463ffffffff1690565b60405163ffffffff90911681526020016102ff565b34801561096557600080fd5b506102d36109743660046148b0565b6133ae565b34801561098557600080fd5b506105ae6109943660046142ce565b60d260209081526000928352604080842090915290825290205460ff1681565b3480156109c057600080fd5b5060cb54610368906001600160a01b031681565b3480156109e057600080fd5b506103686109ef36600461414f565b60d0602052600090815260409020546001600160a01b031681565b60c954604051632474521560e21b81526001600160a01b03909116906391d1485490610a4a906000805160206150cb83398151915290339060040161490c565b602060405180830381865afa158015610a67573d6000803e3d6000fd5b505050506040513d601f19601f82011682018060405250810190610a8b9190614923565b610ab05760405162461bcd60e51b8152600401610aa790614945565b60405180910390fd5b60ca80546001600160a01b0319166001600160a01b0392909216919091179055565b60ce8181548110610ae257600080fd5b600091825260209091200154905081565b60c954604051632474521560e21b81526001600160a01b03909116906391d1485490610b33906000805160206150cb83398151915290339060040161490c565b602060405180830381865afa158015610b50573d6000803e3d6000fd5b505050506040513d601f19601f82011682018060405250810190610b749190614923565b610b905760405162461bcd60e51b8152600401610aa790614945565b60cb80546001600160a01b0319166001600160a01b0392909216919091179055565b610bba613514565b600082815260cf6020526040902081610c065760405162461bcd60e51b815260206004820152600e60248201526d043616e277420726566756e6420360941b6044820152606401610aa7565b60008154600160e01b900460ff166003811115610c2557610c25614557565b03610c6a5760405162461bcd60e51b8152602060048201526015602482015274496e76616c6964206c6f747465727920737461746560581b6044820152606401610aa7565b600083815260d4602090815260408083206001600160a01b0388168452909152902054821115610ce65760405162461bcd60e51b815260206004820152602160248201527f43616e277420726566756e642074686520616d6f756e742072657175657374656044820152601960fa1b6064820152608401610aa7565b600083815260d4602090815260408083206001600160a01b038816845290915281208054849290610d18908490614985565b909155505060cb5460405163a9059cbb60e01b81526001600160a01b038681166004830152602482018590529091169063a9059cbb906044016020604051808303816000875af1158015610d70573d6000803e3d6000fd5b505050506040513d601f19601f82011682018060405250810190610d949190614923565b50836001600160a01b0316837f7ca5472b7ea78c2c0141c5a12ee6d170cf4ce8ed06be3d22c8252ddfc7a6a2c484604051610dd191815260200190565b60405180910390a350505050565b610de7613514565b8035600081815260d26020908152604080832081860135845290915290205460ff1615610e605760405162461bcd60e51b815260206004820152602160248201527f5061727469636970616e7420616c726561647920636c61696d6564207072697a6044820152606560f81b6064820152608401610aa7565b610ec7610e74610e6f8461499c565b61355a565b600083815260d16020526040902054610e906080860186614a45565b808060200260200160405190810160405280939291908181526020018383602002808284376000920191909152506135a092505050565b610f0a5760405162461bcd60e51b815260206004820152601460248201527324b73b30b634b21036b2b935b63290383937b7b360611b6044820152606401610aa7565b600081815260cf60205260409020600181015460048201546001600160a01b0390911690801561118c57600084815260d46020908152604080832033845290915281208054839290610f5d908490614985565b9091555050600084815260d7602052604081205490819003610f8457610f816135b5565b90505b6000612710610f938385614a8e565b610f9d9190614aad565b905060cb60009054906101000a90046001600160a01b03166001600160a01b031663a9059cbb856001600160a01b03166343bc16126040518163ffffffff1660e01b8152600401602060405180830381865afa158015611001573d6000803e3d6000fd5b505050506040513d601f19601f820116820180604052508101906110259190614acf565b6040516001600160e01b031960e084901b1681526001600160a01b039091166004820152602481018490526044016020604051808303816000875af1158015611072573d6000803e3d6000fd5b505050506040513d601f19601f820116820180604052508101906110969190614923565b5060cb5460c95460408051634783c35b60e01b815290516001600160a01b039384169363a9059cbb931691634783c35b9160048083019260209291908290030181865afa1580156110eb573d6000803e3d6000fd5b505050506040513d601f19601f8201168201806040525081019061110f9190614acf565b6111198487614985565b6040516001600160e01b031960e085901b1681526001600160a01b03909216600483015260248201526044016020604051808303816000875af1158015611164573d6000803e3d6000fd5b505050506040513d601f19601f820116820180604052508101906111889190614923565b5050505b600084815260d260209081526040808320888201803585529083529220805460ff191660011790556001600160a01b0384169163d204c45e916111d191908901614132565b6111de6060890189614aec565b6040518463ffffffff1660e01b81526004016111fc93929190614b32565b600060405180830381600087803b15801561121657600080fd5b505af115801561122a573d6000803e3d6000fd5b50505060408601803591506112429060208801614132565b6001600160a01b0316857f4aa95f981a8337cb337de335b965507da0879c3b49f799d20058e913f5ad2c2660405160405180910390a45050505050565b60c954604051632474521560e21b81526001600160a01b03909116906391d14854906112bf906000805160206150cb83398151915290339060040161490c565b602060405180830381865afa1580156112dc573d6000803e3d6000fd5b505050506040513d601f19601f820116820180604052508101906113009190614923565b61131c5760405162461bcd60e51b8152600401610aa790614945565b858560008263ffffffff16116113695760405162461bcd60e51b8152602060048201526012602482015271496e76616c69642073746172742074696d6560701b6044820152606401610aa7565b8163ffffffff168163ffffffff16116113945760405162461bcd60e51b8152600401610aa790614b72565b60008b815260cf60205260409020805460038083018d9055600483018c90556001830180546001600160a01b038b166001600160a01b0319909116179055600160601b61ffff89160263ffffffff60601b1963ffffffff8c81166401000000000267ffffffffffffffff19909516908e161793909317928316811784558792849260ff60e01b1990921670ff000000000000000000000000ffffffff60601b199091161790600160e01b90849081111561145057611450614557565b0217905550805463ffffffff60c01b1916600160c01b63ffffffff86160217815584600381111561148357611483614557565b6040518d9060008051602061506483398151915290600090a3505050505050505050505050565b60c954604051632474521560e21b81526001600160a01b03909116906391d14854906114ea906000805160206150cb83398151915290339060040161490c565b602060405180830381865afa158015611507573d6000803e3d6000fd5b505050506040513d601f19601f8201168201806040525081019061152b9190614923565b6115475760405162461bcd60e51b8152600401610aa790614945565b60cb5460c95460408051634783c35b60e01b815290516001600160a01b039384169363a9059cbb931691634783c35b9160048083019260209291908290030181865afa15801561159b573d6000803e3d6000fd5b505050506040513d601f19601f820116820180604052508101906115bf9190614acf565b6040516001600160e01b031960e084901b1681526001600160a01b039091166004820152602481018490526044016020604051808303816000875af115801561160c573d6000803e3d6000fd5b505050506040513d601f19601f820116820180604052508101906116309190614923565b5050565b6001600160a01b037f000000000000000000000000000000000000000000000000000000000000000016300361167c5760405162461bcd60e51b8152600401610aa790614bb5565b7f00000000000000000000000000000000000000000000000000000000000000006001600160a01b03166116c5600080516020615084833981519152546001600160a01b031690565b6001600160a01b0316146116eb5760405162461bcd60e51b8152600401610aa790614c01565b6116f481613742565b60408051600080825260208201909252611710918391906137d5565b50565b60c954604051632474521560e21b81526001600160a01b03909116906391d1485490611753906000805160206150cb83398151915290339060040161490c565b602060405180830381865afa158015611770573d6000803e3d6000fd5b505050506040513d601f19601f820116820180604052508101906117949190614923565b6117b05760405162461bcd60e51b8152600401610aa790614945565b6117b8613945565b565b60c954604051632474521560e21b81526001600160a01b03909116906391d14854906117fa906000805160206150cb83398151915290339060040161490c565b602060405180830381865afa158015611817573d6000803e3d6000fd5b505050506040513d601f19601f8201168201806040525081019061183b9190614923565b6118575760405162461bcd60e51b8152600401610aa790614945565b600081815260cf602052604090208054600160401b900463ffffffff16156118c15760405162461bcd60e51b815260206004820152601760248201527f4c6f747465727920616c726561647920737461727465640000000000000000006044820152606401610aa7565b805460ff60e01b1916600160e01b9081178083550460ff1660038111156118ea576118ea614557565b604051839060008051602061506483398151915290600090a35050565b60d6602052816000526040600020818154811061192357600080fd5b6000918252602090912001546001600160a01b03169150829050565b60c954604051632474521560e21b81526001600160a01b03909116906391d148549061197f906000805160206150cb83398151915290339060040161490c565b602060405180830381865afa15801561199c573d6000803e3d6000fd5b505050506040513d601f19601f820116820180604052508101906119c09190614923565b6119dc5760405162461bcd60e51b8152600401610aa790614945565b600091825260cf6020526040909120805463ffffffff909216600160801b0263ffffffff60801b19909216919091179055565b60c954604051632474521560e21b81526001600160a01b03909116906391d1485490611a4f906000805160206150cb83398151915290339060040161490c565b602060405180830381865afa158015611a6c573d6000803e3d6000fd5b505050506040513d601f19601f82011682018060405250810190611a909190614923565b611aac5760405162461bcd60e51b8152600401610aa790614945565b6001600160a01b038116611b025760405162461bcd60e51b815260206004820152601d60248201527f436f6e7472616374732063616e6e6f74206265203020616464726573730000006044820152606401610aa7565b60cc80546001600160a01b0319166001600160a01b0392909216919091179055565b6001600160a01b037f0000000000000000000000000000000000000000000000000000000000000000163003611b6c5760405162461bcd60e51b8152600401610aa790614bb5565b7f00000000000000000000000000000000000000000000000000000000000000006001600160a01b0316611bb5600080516020615084833981519152546001600160a01b031690565b6001600160a01b031614611bdb5760405162461bcd60e51b8152600401610aa790614c01565b611be482613742565b611630828260016137d5565b60c954604051632474521560e21b81526001600160a01b03909116906391d1485490611c30906000805160206150cb83398151915290339060040161490c565b602060405180830381865afa158015611c4d573d6000803e3d6000fd5b505050506040513d601f19601f82011682018060405250810190611c719190614923565b611c8d5760405162461bcd60e51b8152600401610aa790614945565b600091825260d1602052604090912055565b6000306001600160a01b037f00000000000000000000000000000000000000000000000000000000000000001614611d3f5760405162461bcd60e51b815260206004820152603860248201527f555550535570677261646561626c653a206d757374206e6f742062652063616c60448201527f6c6564207468726f7567682064656c656761746563616c6c00000000000000006064820152608401610aa7565b5060008051602061508483398151915290565b60c954604051632474521560e21b81526001600160a01b03909116906391d1485490611d92906000805160206150cb83398151915290339060040161490c565b602060405180830381865afa158015611daf573d6000803e3d6000fd5b505050506040513d601f19601f82011682018060405250810190611dd39190614923565b611def5760405162461bcd60e51b8152600401610aa790614945565b611dfc6020820182614c4d565b611e0c6040830160208401614c4d565b60008263ffffffff1611611e575760405162461bcd60e51b8152602060048201526012602482015271496e76616c69642073746172742074696d6560701b6044820152606401610aa7565b8163ffffffff168163ffffffff1611611e825760405162461bcd60e51b8152600401610aa790614b72565b6000611e9460e0850160c08601614c4d565b63ffffffff1611611ed85760405162461bcd60e51b815260206004820152600e60248201526d496e76616c6964207072697a657360901b6044820152606401610aa7565b610120830135600090815260cf6020526040902054600160c01b900463ffffffff1615611f405760405162461bcd60e51b81526020600482015260166024820152754c6f747465727920616c72656164792065786973747360501b6044820152606401610aa7565b60ce8054600181019091556101208401357fd36cd1c74ef8d7326d8021b776c18fb5a5724b7f7bc93c2f42e43e10ef27d12a909101819055600090815260cf602052604090208390611f928282614cd2565b905050611f9d6135b5565b610120840135600081815260d76020526040808220939093559151600080516020615064833981519152908390a3505050565b60c954604051632474521560e21b81526001600160a01b03909116906391d1485490612010906000805160206150cb83398151915290339060040161490c565b602060405180830381865afa15801561202d573d6000803e3d6000fd5b505050506040513d601f19601f820116820180604052508101906120519190614923565b61206d5760405162461bcd60e51b8152600401610aa790614945565b600082815260cf60205260409020805463ffffffff166120c65760405162461bcd60e51b8152602060048201526014602482015273131bdd1d195c9e481a59081b9bdd08199bdd5b9960621b6044820152606401610aa7565b805463ffffffff908116908316116120f05760405162461bcd60e51b8152600401610aa790614b72565b805463ffffffff9092166401000000000267ffffffff000000001990921691909117905550565b60c954604051632474521560e21b81526001600160a01b03909116906391d1485490612157906000805160206150cb83398151915290339060040161490c565b602060405180830381865afa158015612174573d6000803e3d6000fd5b505050506040513d601f19601f820116820180604052508101906121989190614923565b6121b45760405162461bcd60e51b8152600401610aa790614945565b8060005b818110156121f1576121e18484838181106121d5576121d5614e99565b90506101800201611d52565b6121ea81614eaf565b90506121b8565b50505050565b60408051336020820181905291810187905260009061222e9060600160405160208183030381529060405280519060200120613997565b60ca54604080516020601f88018190048102820181019092528681529293506001600160a01b03909116916122809184919088908890819084018382808284376000920191909152506139d292505050565b6001600160a01b0316146122ca5760405162461bcd60e51b8152602060048201526011602482015270496e76616c6964207369676e617475726560781b6044820152606401610aa7565b60cd5460405163f662781d60e01b81526001600160a01b0384811660048301528992169063f662781d90602401602060405180830381865afa158015612314573d6000803e3d6000fd5b505050506040513d601f19601f820116820180604052508101906123389190614ec8565b10156123a55760cd54604051630259ab7760e61b81526001600160a01b038481166004830152602482018a90529091169063966addc090604401600060405180830381600087803b15801561238c57600080fd5b505af11580156123a0573d6000803e3d6000fd5b505050505b6123af86866125b9565b50505050505050565b6124256040805161018081018252600080825260208201819052918101829052606081018290526080810182905260a0810182905260c081018290529060e0820190815260200160006001600160a01b031681526020016000815260200160008152602001600081525090565b600082815260cf6020908152604091829020825161018081018452815463ffffffff80821683526401000000008204811694830194909452600160401b8104841694820194909452600160601b840483166060820152600160801b840483166080820152600160a01b8404831660a0820152600160c01b840490921660c0830152909160e0830190600160e01b900460ff1660038111156124c8576124c8614557565b60038111156124d9576124d9614557565b815260018201546001600160a01b03166020820152600282015460408201526003820154606082015260049091015460809091015292915050565b60c954604051632474521560e21b81526001600160a01b03909116906391d1485490612554906000805160206150cb83398151915290339060040161490c565b602060405180830381865afa158015612571573d6000803e3d6000fd5b505050506040513d601f19601f820116820180604052508101906125959190614923565b6125b15760405162461bcd60e51b8152600401610aa790614945565b6117b86139f6565b6125c1613514565b600082815260d0602052604090205482906001600160a01b03161561269e57600081815260d06020526040908190205490516320c18e6b60e21b8152336004820152602481018390526001600160a01b039091169063830639ac90604401602060405180830381865afa15801561263c573d6000803e3d6000fd5b505050506040513d601f19601f820116820180604052508101906126609190614923565b61269e5760405162461bcd60e51b815260206004820152600f60248201526e139bdd081dda1a5d195b1a5cdd1959608a1b6044820152606401610aa7565b600083815260cf60205260408120805490919081908190600160601b900463ffffffff161561272c57835463ffffffff600160601b82048116916126eb918991600160a01b900416614ee1565b111561272c5760405162461bcd60e51b815260206004820152601060248201526f151a58dad95d1cc81cdbdb19081bdd5d60821b6044820152606401610aa7565b600087815260d3602090815260408083203384529091529020548454600160801b900463ffffffff16156127c1578454600160801b900463ffffffff166127738883614ee1565b11156127c15760405162461bcd60e51b815260206004820181905260248201527f43616e277420627579207468697320616d6f756e74206f66207469636b6574736044820152606401610aa7565b84544263ffffffff909116118015906127e9575084544264010000000090910463ffffffff16115b8015612812575060018554600160e01b900460ff16600381111561280f5761280f614557565b14155b6128545760405162461bcd60e51b81526020600482015260136024820152722637ba3a32b93c9034b9903737ba1037b832b760691b6044820152606401610aa7565b60038501546128639088614a8e565b92508215612877576128753384613a33565b505b60048501548554909250879086906014906128a0908490600160a01b900463ffffffff16614ef9565b92506101000a81548163ffffffff021916908363ffffffff160217905550600082111561297d576128d18288614a8e565b60cb546040516323b872dd60e01b8152336004820152306024820152604481018390529195506001600160a01b0316906323b872dd906064016020604051808303816000875af1158015612929573d6000803e3d6000fd5b505050506040513d601f19601f8201168201806040525081019061294d9190614923565b50600088815260d46020908152604080832033845290915281208054869290612977908490614ee1565b90915550505b806000036129c157845485906008906129a290600160401b900463ffffffff16614f21565b91906101000a81548163ffffffff021916908363ffffffff1602179055505b600088815260d3602090815260408083203384529091528120805461ffff8a1692906129ee908490614ee1565b9091555050600088815260d660205260408120905b88811015612a7d5781546001810183556000838152602090200180546001600160a01b0319163390811790915582546040518c917fc41bbb54d04f2268c7895b9330f18468c306a3f92698a92c4c86b2978739784891612a6591815260200190565b60405180910390a3612a7681614eaf565b9050612a03565b50505050505050505050565b8060005b818110156121f157612abc848483818110612aaa57612aaa614e99565b90506020028101906103c89190614f44565b612ac581614eaf565b9050612a8d565b60606000612ada8484614985565b612ae5906001614ee1565b6001600160401b03811115612afc57612afc614315565b604051908082528060200260200182016040528015612b25578160200160208202803683370190505b509050835b838111612bab57600086815260d660205260409020805482908110612b5157612b51614e99565b9060005260206000200160009054906101000a90046001600160a01b0316828281518110612b8157612b81614e99565b6001600160a01b039092166020928302919091019091015280612ba381614eaf565b915050612b2a565b5090505b9392505050565b60c954604051632474521560e21b81526001600160a01b03909116906391d1485490612bf6906000805160206150cb83398151915290339060040161490c565b602060405180830381865afa158015612c13573d6000803e3d6000fd5b505050506040513d601f19601f82011682018060405250810190612c379190614923565b612c535760405162461bcd60e51b8152600401610aa790614945565b600081815260cf60205260409020805463ffffffff16612caa5760405162461bcd60e51b8152602060048201526012602482015271125b9d985b1a59081b1bdd1d195c9e481a5960721b6044820152606401610aa7565b80544264010000000090910463ffffffff1610612d015760405162461bcd60e51b8152602060048201526015602482015274131bdd1d195c9e481a5cc81b9bdd0818db1bdcd959605a1b6044820152606401610aa7565b8054600160e01b900460ff166003816003811115612d2157612d21614557565b03612d6e5760405162461bcd60e51b815260206004820152601d60248201527f4c6f7474657279206d757374206e6f7420626520636f6d706c657465640000006044820152606401610aa7565b815463ffffffff600160c01b82048116600160a01b9092041611612da257815460ff60e01b1916600360e01b178255612e26565b8154600160e11b60ff60e01b1990911617825560cc54604051632f215ddf60e21b8152600481018590526001600160a01b039091169063bc85777c906024016020604051808303816000875af1158015612e00573d6000803e3d6000fd5b505050506040513d601f19601f82011682018060405250810190612e249190614ec8565b505b8154600160e01b900460ff166003811115612e4357612e43614557565b604051849060008051602061506483398151915290600090a3505050565b60c954604051632474521560e21b81526001600160a01b03909116906391d1485490612ea1906000805160206150cb83398151915290339060040161490c565b602060405180830381865afa158015612ebe573d6000803e3d6000fd5b505050506040513d601f19601f82011682018060405250810190612ee29190614923565b612efe5760405162461bcd60e51b8152600401610aa790614945565b600091825260cf6020526040909120805463ffffffff909216600160601b0263ffffffff60601b19909216919091179055565b60c954604051632474521560e21b81526001600160a01b03909116906391d1485490612f71906000805160206150cb83398151915290339060040161490c565b602060405180830381865afa158015612f8e573d6000803e3d6000fd5b505050506040513d601f19601f82011682018060405250810190612fb29190614923565b612fce5760405162461bcd60e51b8152600401610aa790614945565b6127108111156130105760405162461bcd60e51b815260206004820152600d60248201526c496e76616c696420736861726560981b6044820152606401610aa7565b600082815260cf6020526040902054600160c01b900463ffffffff166130705760405162461bcd60e51b8152602060048201526015602482015274131bdd1d195c9e48191bd95cdb89dd08195e1a5cdd605a1b6044820152606401610aa7565b600091825260d7602052604090912055565b60c954604051632474521560e21b81526001600160a01b03909116906391d14854906130c2906000805160206150cb83398151915290339060040161490c565b602060405180830381865afa1580156130df573d6000803e3d6000fd5b505050506040513d601f19601f820116820180604052508101906131039190614923565b61311f5760405162461bcd60e51b8152600401610aa790614945565b600091825260d0602052604090912080546001600160a01b0319166001600160a01b03909216919091179055565b60c954604051632474521560e21b81526001600160a01b03909116906391d148549061318d906000805160206150cb83398151915290339060040161490c565b602060405180830381865afa1580156131aa573d6000803e3d6000fd5b505050506040513d601f19601f820116820180604052508101906131ce9190614923565b6131ea5760405162461bcd60e51b8152600401610aa790614945565b60cd80546001600160a01b0319166001600160a01b0392909216919091179055565b60cc546001600160a01b031633146132595760405162461bcd60e51b815260206004820152601060248201526f4f6e6c7920524e47206164647265737360801b6044820152606401610aa7565b600082815260cf6020526040902060038154600160e01b900460ff16600381111561328657613286614557565b036132cc5760405162461bcd60e51b8152602060048201526016602482015275131bdd1d195c9e481b5d5cdd0818994818db1bdcd95960521b6044820152606401610aa7565b805460ff60e01b1916600360e01b178155600083815260d5602052604090208290558054600160e01b900460ff166003811115612e4357612e43614557565b82518151811461334f5760405162461bcd60e51b815260206004820152600f60248201526e57726f6e6720617267756d656e747360881b6044820152606401610aa7565b60005b818110156133a75761339785828151811061336f5761336f614e99565b60200260200101518585848151811061338a5761338a614e99565b6020026020010151610bb2565b6133a081614eaf565b9050613352565b5050505050565b600054610100900460ff16158080156133ce5750600054600160ff909116105b806133e85750303b1580156133e8575060005460ff166001145b61344b5760405162461bcd60e51b815260206004820152602e60248201527f496e697469616c697a61626c653a20636f6e747261637420697320616c72656160448201526d191e481a5b9a5d1a585b1a5e995960921b6064820152608401610aa7565b6000805460ff19166001179055801561346e576000805461ff0019166101001790555b613476613aab565b61347e613ada565b60cb80546001600160a01b038086166001600160a01b03199283161790925560ca805487841690831617905560cd805488841690831617905560c980549285169290911691909117905580156133a7576000805461ff0019169055604051600181527f7f26b83ff96e1f2b6a682f133852f6798a09c465da95921460cefb38474024989060200160405180910390a15050505050565b60975460ff16156117b85760405162461bcd60e51b815260206004820152601060248201526f14185d5cd8589b194e881c185d5cd95960821b6044820152606401610aa7565b600081600001518260200151836040015184606001516040516020016135839493929190614fbc565b604051602081830303815290604052805190602001209050919050565b60006135ad828486613b01565b949350505050565b60c9546040516d616464726573732e636f6e66696760901b602082015260009182916001600160a01b03909116906321f8a72190602e01604051602081830303815290604052805190602001206040518263ffffffff1660e01b815260040161362091815260200190565b602060405180830381865afa15801561363d573d6000803e3d6000fd5b505050506040513d601f19601f820116820180604052508101906136619190614acf565b90506001600160a01b03811661367a57611f4091505090565b6000816001600160a01b031663bd02d0f56040516020016136b490721cda185c994b9c1c9a5b585c9e505c9d1a5cdd606a1b815260130190565b604051602081830303815290604052805190602001206040518263ffffffff1660e01b81526004016136e891815260200190565b602060405180830381865afa158015613705573d6000803e3d6000fd5b505050506040513d601f19601f820116820180604052508101906137299190614ec8565b90508015613737578061373b565b611f405b9250505090565b60c95460408051634783c35b60e01b8152905133926001600160a01b031691634783c35b9160048083019260209291908290030181865afa15801561378b573d6000803e3d6000fd5b505050506040513d601f19601f820116820180604052508101906137af9190614acf565b6001600160a01b0316146117105760405162461bcd60e51b8152600401610aa790614945565b7f4910fdfa16fed3260ed0e7147f7cc6da11a60208b5b9406d12a635614ffd91435460ff161561380d5761380883613b17565b505050565b826001600160a01b03166352d1902d6040518163ffffffff1660e01b8152600401602060405180830381865afa925050508015613867575060408051601f3d908101601f1916820190925261386491810190614ec8565b60015b6138ca5760405162461bcd60e51b815260206004820152602e60248201527f45524331393637557067726164653a206e657720696d706c656d656e7461746960448201526d6f6e206973206e6f74205555505360901b6064820152608401610aa7565b60008051602061508483398151915281146139395760405162461bcd60e51b815260206004820152602960248201527f45524331393637557067726164653a20756e737570706f727465642070726f786044820152681a58589b195555525160ba1b6064820152608401610aa7565b50613808838383613bb3565b61394d613bd8565b6097805460ff191690557f5db9ee0a495bf2e6ff9c91a7834c1ba4fdd244a5e8aa4e537bd38aeae4b073aa335b6040516001600160a01b03909116815260200160405180910390a1565b6040517f19457468657265756d205369676e6564204d6573736167653a0a3332000000006020820152603c8101829052600090605c01613583565b60008060006139e18585613c21565b915091506139ee81613c66565b509392505050565b6139fe613514565b6097805460ff191660011790557f62e78cea01bee320cd4e420270b5ea74000d11b0c9f74754ebdbfc544b05a25861397a3390565b60cd54604051631e961d2760e01b81526001600160a01b038481166004830152602482018490526000921690631e961d27906044016020604051808303816000875af1158015613a87573d6000803e3d6000fd5b505050506040513d601f19601f82011682018060405250810190612baf9190614ec8565b600054610100900460ff16613ad25760405162461bcd60e51b8152600401610aa790614ff3565b6117b8613e1c565b600054610100900460ff166117b85760405162461bcd60e51b8152600401610aa790614ff3565b600082613b0e8584613e4f565b14949350505050565b6001600160a01b0381163b613b845760405162461bcd60e51b815260206004820152602d60248201527f455243313936373a206e657720696d706c656d656e746174696f6e206973206e60448201526c1bdd08184818dbdb9d1c9858dd609a1b6064820152608401610aa7565b60008051602061508483398151915280546001600160a01b0319166001600160a01b0392909216919091179055565b613bbc83613e94565b600082511180613bc95750805b15613808576121f18383613ed4565b60975460ff166117b85760405162461bcd60e51b815260206004820152601460248201527314185d5cd8589b194e881b9bdd081c185d5cd95960621b6044820152606401610aa7565b6000808251604103613c575760208301516040840151606085015160001a613c4b87828585613fc8565b94509450505050613c5f565b506000905060025b9250929050565b6000816004811115613c7a57613c7a614557565b03613c825750565b6001816004811115613c9657613c96614557565b03613ce35760405162461bcd60e51b815260206004820152601860248201527f45434453413a20696e76616c6964207369676e617475726500000000000000006044820152606401610aa7565b6002816004811115613cf757613cf7614557565b03613d445760405162461bcd60e51b815260206004820152601f60248201527f45434453413a20696e76616c6964207369676e6174757265206c656e677468006044820152606401610aa7565b6003816004811115613d5857613d58614557565b03613db05760405162461bcd60e51b815260206004820152602260248201527f45434453413a20696e76616c6964207369676e6174757265202773272076616c604482015261756560f01b6064820152608401610aa7565b6004816004811115613dc457613dc4614557565b036117105760405162461bcd60e51b815260206004820152602260248201527f45434453413a20696e76616c6964207369676e6174757265202776272076616c604482015261756560f01b6064820152608401610aa7565b600054610100900460ff16613e435760405162461bcd60e51b8152600401610aa790614ff3565b6097805460ff19169055565b600081815b84518110156139ee57613e8082868381518110613e7357613e73614e99565b60200260200101516140b5565b915080613e8c81614eaf565b915050613e54565b613e9d81613b17565b6040516001600160a01b038216907fbc7cd75a20ee27fd9adebab32041f755214dbc6bffa90cc0225b39da2e5c2d3b90600090a250565b60606001600160a01b0383163b613f3c5760405162461bcd60e51b815260206004820152602660248201527f416464726573733a2064656c65676174652063616c6c20746f206e6f6e2d636f6044820152651b9d1c9858dd60d21b6064820152608401610aa7565b600080846001600160a01b031684604051613f57919061503e565b600060405180830381855af49150503d8060008114613f92576040519150601f19603f3d011682016040523d82523d6000602084013e613f97565b606091505b5091509150613fbf82826040518060600160405280602781526020016150a4602791396140e4565b95945050505050565b6000807f7fffffffffffffffffffffffffffffff5d576e7357a4501ddfe92f46681b20a0831115613fff57506000905060036140ac565b8460ff16601b1415801561401757508460ff16601c14155b1561402857506000905060046140ac565b6040805160008082526020820180845289905260ff881692820192909252606081018690526080810185905260019060a0016020604051602081039080840390855afa15801561407c573d6000803e3d6000fd5b5050604051601f1901519150506001600160a01b0381166140a5576000600192509250506140ac565b9150600090505b94509492505050565b60008183106140d1576000828152602084905260409020612baf565b6000838152602083905260409020612baf565b606083156140f3575081612baf565b8251156141035782518084602001fd5b8160405162461bcd60e51b8152600401610aa79190615050565b6001600160a01b038116811461171057600080fd5b60006020828403121561414457600080fd5b8135612baf8161411d565b60006020828403121561416157600080fd5b5035919050565b60008060006060848603121561417d57600080fd5b83356141888161411d565b95602085013595506040909401359392505050565b6000602082840312156141af57600080fd5b81356001600160401b038111156141c557600080fd5b820160a08185031215612baf57600080fd5b63ffffffff8116811461171057600080fd5b6004811061171057600080fd5b60008060008060008060008060006101208a8c03121561421557600080fd5b8935985060208a0135975060408a0135965060608a0135614235816141d7565b955060808a0135614245816141d7565b945060a08a01356142558161411d565b935060c08a013561ffff8116811461426c57600080fd5b925060e08a013561427c816141e9565b91506101008a013561428d816141d7565b809150509295985092959850929598565b600080604083850312156142b157600080fd5b8235915060208301356142c38161411d565b809150509250929050565b600080604083850312156142e157600080fd5b50508035926020909101359150565b6000806040838503121561430357600080fd5b8235915060208301356142c3816141d7565b634e487b7160e01b600052604160045260246000fd5b60405160a081016001600160401b038111828210171561434d5761434d614315565b60405290565b604051601f8201601f191681016001600160401b038111828210171561437b5761437b614315565b604052919050565b60006001600160401b0383111561439c5761439c614315565b6143af601f8401601f1916602001614353565b90508281528383830111156143c357600080fd5b828260208301376000602084830101529392505050565b600080604083850312156143ed57600080fd5b82356143f88161411d565b915060208301356001600160401b0381111561441357600080fd5b8301601f8101851361442457600080fd5b61443385823560208401614383565b9150509250929050565b6000610180828403121561445057600080fd5b50919050565b6000806020838503121561446957600080fd5b82356001600160401b038082111561448057600080fd5b818501915085601f83011261449457600080fd5b8135818111156144a357600080fd5b866020610180830285010111156144b957600080fd5b60209290920196919550909350505050565b6000806000806000608086880312156144e357600080fd5b85359450602086013593506040860135925060608601356001600160401b038082111561450f57600080fd5b818801915088601f83011261452357600080fd5b81358181111561453257600080fd5b89602082850101111561454457600080fd5b9699959850939650602001949392505050565b634e487b7160e01b600052602160045260246000fd5b6004811061458b57634e487b7160e01b600052602160045260246000fd5b9052565b815163ffffffff168152610180810160208301516145b5602084018263ffffffff169052565b5060408301516145cd604084018263ffffffff169052565b5060608301516145e5606084018263ffffffff169052565b5060808301516145fd608084018263ffffffff169052565b5060a083015161461560a084018263ffffffff169052565b5060c083015161462d60c084018263ffffffff169052565b5060e083015161464060e084018261456d565b50610100838101516001600160a01b0316908301526101208084015190830152610140808401519083015261016092830151929091019190915290565b6000806020838503121561469057600080fd5b82356001600160401b03808211156146a757600080fd5b818501915085601f8301126146bb57600080fd5b8135818111156146ca57600080fd5b8660208260051b85010111156144b957600080fd5b6000806000606084860312156146f457600080fd5b505081359360208301359350604090920135919050565b6020808252825182820181905260009190848201906040850190845b8181101561474c5783516001600160a01b031683529284019291840191600101614727565b50909695505050505050565b60006001600160401b0382111561477157614771614315565b5060051b60200190565b600082601f83011261478c57600080fd5b813560206147a161479c83614758565b614353565b82815260059290921b840181019181810190868411156147c057600080fd5b8286015b848110156147db57803583529183019183016147c4565b509695505050505050565b6000806000606084860312156147fb57600080fd5b83356001600160401b038082111561481257600080fd5b818601915086601f83011261482657600080fd5b8135602061483661479c83614758565b82815260059290921b8401810191818101908a84111561485557600080fd5b948201945b8386101561487c57853561486d8161411d565b8252948201949082019061485a565b975050870135945050604086013591508082111561489957600080fd5b506148a68682870161477b565b9150509250925092565b600080600080608085870312156148c657600080fd5b84356148d18161411d565b935060208501356148e18161411d565b925060408501356148f18161411d565b915060608501356149018161411d565b939692955090935050565b9182526001600160a01b0316602082015260400190565b60006020828403121561493557600080fd5b81518015158114612baf57600080fd5b60208082526010908201526f41646d696e2063616c6c73206f6e6c7960801b604082015260600190565b634e487b7160e01b600052601160045260246000fd5b6000828210156149975761499761496f565b500390565b600060a082360312156149ae57600080fd5b6149b661432b565b8235815260208301356149c88161411d565b60208201526040838101359082015260608301356001600160401b03808211156149f157600080fd5b9084019036601f830112614a0457600080fd5b614a1336833560208501614383565b60608401526080850135915080821115614a2c57600080fd5b50614a393682860161477b565b60808301525092915050565b6000808335601e19843603018112614a5c57600080fd5b8301803591506001600160401b03821115614a7657600080fd5b6020019150600581901b3603821315613c5f57600080fd5b6000816000190483118215151615614aa857614aa861496f565b500290565b600082614aca57634e487b7160e01b600052601260045260246000fd5b500490565b600060208284031215614ae157600080fd5b8151612baf8161411d565b6000808335601e19843603018112614b0357600080fd5b8301803591506001600160401b03821115614b1d57600080fd5b602001915036819003821315613c5f57600080fd5b6001600160a01b03841681526040602082018190528101829052818360608301376000818301606090810191909152601f909201601f1916010192915050565b60208082526023908201527f436c6f73652074696d65206d7573742062652061667465722073746172742074604082015262696d6560e81b606082015260800190565b6020808252602c908201527f46756e6374696f6e206d7573742062652063616c6c6564207468726f7567682060408201526b19195b1959d85d1958d85b1b60a21b606082015260800190565b6020808252602c908201527f46756e6374696f6e206d7573742062652063616c6c6564207468726f7567682060408201526b6163746976652070726f787960a01b606082015260800190565b600060208284031215614c5f57600080fd5b8135612baf816141d7565b60008135614c77816141d7565b92915050565b60008135614c77816141e9565b60048210614ca857634e487b7160e01b600052602160045260246000fd5b805460ff60e01b191660e09290921b60ff60e01b16919091179055565b60008135614c778161411d565b614cf5614cde83614c6a565b825463ffffffff191663ffffffff91909116178255565b614d26614d0460208401614c6a565b825467ffffffff00000000191660209190911b67ffffffff0000000016178255565b614d5f614d3560408401614c6a565b82546bffffffff0000000000000000191660409190911b6bffffffff000000000000000016178255565b614d92614d6e60608401614c6a565b82805463ffffffff60601b191660609290921b63ffffffff60601b16919091179055565b614dc5614da160808401614c6a565b82805463ffffffff60801b191660809290921b63ffffffff60801b16919091179055565b614df8614dd460a08401614c6a565b82805463ffffffff60a01b191660a09290921b63ffffffff60a01b16919091179055565b614e2b614e0760c08401614c6a565b82805463ffffffff60c01b191660c09290921b63ffffffff60c01b16919091179055565b614e40614e3a60e08401614c7d565b82614c8a565b614e74614e506101008401614cc5565b6001830180546001600160a01b0319166001600160a01b0392909216919091179055565b6101208201356002820155610140820135600382015561016082013560048201555050565b634e487b7160e01b600052603260045260246000fd5b600060018201614ec157614ec161496f565b5060010190565b600060208284031215614eda57600080fd5b5051919050565b60008219821115614ef457614ef461496f565b500190565b600063ffffffff808316818516808303821115614f1857614f1861496f565b01949350505050565b600063ffffffff808316818103614f3a57614f3a61496f565b6001019392505050565b60008235609e19833603018112614f5a57600080fd5b9190910192915050565b60005b83811015614f7f578181015183820152602001614f67565b838111156121f15750506000910152565b60008151808452614fa8816020860160208601614f64565b601f01601f19169290920160200192915050565b84815260018060a01b0384166020820152826040820152608060608201526000614fe96080830184614f90565b9695505050505050565b6020808252602b908201527f496e697469616c697a61626c653a20636f6e7472616374206973206e6f74206960408201526a6e697469616c697a696e6760a81b606082015260800190565b60008251614f5a818460208701614f64565b602081526000612baf6020830184614f9056fea3aca9ae20a0379d4094b84c749cbed6584ab20f0b71af75f63f6615d879c939360894a13ba1a3210667c828492db98dca3e2076cc3735a920a3ca505d382bbc416464726573733a206c6f772d6c6576656c2064656c65676174652063616c6c206661696c6564e303cb88ace8c9e6ba216f1aecb44b3206dcab364c60512ffc6cbc920a1bf9d1a2646970667358221220ec8e8c7a93d2f05d7b48803bb034469ade4086921bced52c8133ce91ef72c5dd64736f6c634300080e0033",
  "linkReferences": {},
  "deployedLinkReferences": {}
}