{
  "_format": "hh-sol-artifact-1",
  "contractName": "MockMintable",
  "sourceName": "contracts/Social/MockMintable.sol",
  "abi": [
    {
      "inputs": [],
      "name": "lastTo",
      "outputs": [
        {
          "internalType": "address",
          "name": "",
          "type": "address"
        }
      ],
      "stateMutability": "view",
      "type": "function"
    },
    {
      "inputs": [],
      "name": "lastUri",
      "outputs": [
        {
          "internalType": "string",
          "name": "",
          "type": "string"
        }
      ],
      "stateMutability": "view",
      "type": "function"
    },
    {
      "inputs": [
        {
          "internalType": "address",
          "name": "to",
          "type": "address"
        },
        {
          "internalType": "string",
          "name": "uri",
          "type": "string"
        }
      ],
      "name": "safeMint",
      "outputs": [],
      "stateMutability": "nonpayable",
      "type": "function"
    }
  ],
  "bytecode": "0x608060405234801561001057600080fd5b5061034e806100206000396000f3fe608060405234801561001057600080fd5b50600436106100415760003560e01c806391cee86b14610046578063c146844714610064578063d204c45e1461008f575b600080fd5b61004e6100a4565b60405161005b91906101f8565b60405180910390f35b600054610077906001600160a01b031681565b6040516001600160a01b03909116815260200161005b565b6100a261009d36600461024d565b610132565b005b600180546100b1906102de565b80601f01602080910402602001604051908101604052809291908181526020018280546100dd906102de565b801561012a5780601f106100ff5761010080835404028352916020019161012a565b820191906000526020600020905b81548152906001019060200180831161010d57829003601f168201915b505050505081565b600080546001600160a01b0319166001600160a01b0385161790556101596001838361015f565b50505050565b82805461016b906102de565b90600052602060002090601f01602090048101928261018d57600085556101d3565b82601f106101a65782800160ff198235161785556101d3565b828001600101855582156101d3579182015b828111156101d35782358255916020019190600101906101b8565b506101df9291506101e3565b5090565b5b808211156101df57600081556001016101e4565b600060208083528351808285015260005b8181101561022557858101830151858201604001528201610209565b81811115610237576000604083870101525b50601f01601f1916929092016040019392505050565b60008060006040848603121561026257600080fd5b83356001600160a01b038116811461027957600080fd5b9250602084013567ffffffffffffffff8082111561029657600080fd5b818601915086601f8301126102aa57600080fd5b8135818111156102b957600080fd5b8760208285010111156102cb57600080fd5b6020830194508093505050509250925092565b600181811c908216806102f257607f821691505b60208210810361031257634e487b7160e01b600052602260045260246000fd5b5091905056fea2646970667358221220f86042ecea2a181f8d5edf4991aa13a094d7a9225b1e09693a1a2a9a0e844e1e64736f6c634300080e0033",
  "linkReferences": {},
  "deployedLinkReferences": {}
}