{
  "_format": "hh-sol-artifact-1",
  "contractName": "MockAuctionBidder",
  "sourceName": "contracts/Utils/MockAuctionBidder.sol",
  "abi": [
    {
      "inputs": [
        {
          "internalType": "address",
          "name": "_auction",
          "type": "address"
        }
      ],
      "stateMutability": "nonpayable",
      "type": "constructor"
    },
    {
      "inputs": [],
      "name": "acceptPayments",
      "outputs": [],
      "stateMutability": "nonpayable",
      "type": "function"
    },
    {
      "inputs": [],
      "name": "auction",
      "outputs": [
        {
          "internalType": "address",
          "name": "",
          "type": "address"
        }
      ],
      "stateMutability": "view",
      "type": "function"
    },
    {
      "inputs": [
        {
          "internalType": "uint256",
          "name": "auctionId",
          "type": "uint256"
        },
        {
          "internalType": "uint256",
          "name": "amount",
          "type": "uint256"
        },
        {
          "internalType": "bool",
          "name": "_rejectPayments",
          "type": "bool"
        }
      ],
      "name": "makeEthBid",
      "outputs": [],
      "stateMutability": "payable",
      "type": "function"
    },
    {
      "inputs": [],
      "name": "rejectPayments",
      "outputs": [
        {
          "internalType": "bool",
          "name": "",
          "type": "bool"
        }
      ],
      "stateMutability": "view",
      "type": "function"
    },
    {
      "inputs": [],
      "name": "withdrawPending",
      "outputs": [],
      "stateMutability": "nonpayable",
      "type": "function"
    },
    {
      "stateMutability": "payable",
      "type": "receive"
    }
  ],
  "bytecode": "0x608060405234801561001057600080fd5b5060405161047238038061047283398101604081905261002f91610054565b600080546001600160a01b0319166001600160a01b0392909216919091179055610084565b60006020828403121561006657600080fd5b81516001600160a01b038116811461007d57600080fd5b9392505050565b6103df806100936000396000f3fe60806040526004361061004e5760003560e01c80633ddd5313146100ac5780635a2056ba146100cb5780635fffe0fe146101015780637d9f6db5146101145780637edbceb11461014c57600080fd5b366100a757600054600160a01b900460ff16156100a55760405162461bcd60e51b815260206004820152601060248201526f1c99599d5cda5b99c81c185e5b595b9d60821b60448201526064015b60405180910390fd5b005b600080fd5b3480156100b857600080fd5b506100a56000805460ff60a01b19169055565b3480156100d757600080fd5b506000546100ec90600160a01b900460ff1681565b60405190151581526020015b60405180910390f35b6100a561010f366004610330565b610161565b34801561012057600080fd5b50600054610134906001600160a01b031681565b6040516001600160a01b0390911681526020016100f8565b34801561015857600080fd5b506100a5610264565b60008054821515600160a01b0260ff60a01b198216811783556040516001600160a01b0391821691909216179034906101a99087908790602401918252602082015260400190565b60408051601f198184030181529181526020820180516001600160e01b0316630b30c8ff60e31b179052516101de919061036e565b60006040518083038185875af1925050503d806000811461021b576040519150601f19603f3d011682016040523d82523d6000602084013e610220565b606091505b505090508061025e5760405162461bcd60e51b815260206004820152600a602482015269189a590819985a5b195960b21b604482015260640161009c565b50505050565b6000805460408051600481526024810182526020810180516001600160e01b031663ec29021560e01b17905290516001600160a01b03909216916102a8919061036e565b6000604051808303816000865af19150503d80600081146102e5576040519150601f19603f3d011682016040523d82523d6000602084013e6102ea565b606091505b505090508061032d5760405162461bcd60e51b815260206004820152600f60248201526e1dda5d1a191c985dc819985a5b1959608a1b604482015260640161009c565b50565b60008060006060848603121561034557600080fd5b83359250602084013591506040840135801515811461036357600080fd5b809150509250925092565b6000825160005b8181101561038f5760208186018101518583015201610375565b8181111561039e576000828501525b50919091019291505056fea2646970667358221220399bae49b659aa0b0da6f737d30798b70b63b1630898f2d8de39b22efa018b5964736f6c634300080e0033",
  "linkReferences": {},
  "deployedLinkReferences": {}
}