{
  "_format": "hh-sol-artifact-1",
  "contractName": "MockLotteryReceiver",
  "sourceName": "contracts/Utils/MockLotteryReceiver.sol",
  "abi": [
    {
      "inputs": [],
      "name": "callCount",
      "outputs": [
        {
          "internalType": "uint256",
          "name": "",
          "type": "uint256"
        }
      ],
      "stateMutability": "view",
      "type": "function"
    },
    {
      "inputs": [],
      "name": "lastLotteryId",
      "outputs": [
        {
          "internalType": "uint256",
          "name": "",
          "type": "uint256"
        }
      ],
      "stateMutability": "view",
      "type": "function"
    },
    {
      "inputs": [],
      "name": "lastRandomNumber",
      "outputs": [
        {
          "internalType": "uint256",
          "name": "",
          "type": "uint256"
        }
      ],
      "stateMutability": "view",
      "type": "function"
    },
    {
      "inputs": [
        {
          "internalType": "uint256",
          "name": "_lotteryId",
          "type": "uint256"
        },
        {
          "internalType": "uint256",
          "name": "_randomNumber",
          "type": "uint256"
        }
      ],
      "name": "receiveRandomNumber",
      "outputs": [],
      "stateMutability": "nonpayable",
      "type": "function"
    },
    {
      "inputs": [
        {
          "internalType": "contract IRandomNumberGenerator",
          "name": "rng",
          "type": "address"
        },
        {
          "internalType": "uint256",
          "name": "_lotteryId",
          "type": "uint256"
        }
      ],
      "name": "requestFrom",
      "outputs": [
        {
          "internalType": "uint256",
          "name": "",
          "type": "uint256"
        }
      ],
      "stateMutability": "nonpayable",
      "type": "function"
    }
  ],
  "bytecode": "0x608060405234801561001057600080fd5b50610217806100206000396000f3fe608060405234801561001057600080fd5b50600436106100575760003560e01c806321e1ba4e1461005c5780632af232ba146100775780634b28f9a21461008a5780634e3fb85d14610093578063eb1ea5211461009c575b600080fd5b61006560015481565b60405190815260200160405180910390f35b610065610085366004610147565b6100b1565b61006560025481565b61006560005481565b6100af6100aa36600461017f565b610126565b005b604051632f215ddf60e21b8152600481018290526000906001600160a01b0384169063bc85777c906024016020604051808303816000875af11580156100fb573d6000803e3d6000fd5b505050506040513d601f19601f8201168201806040525081019061011f91906101a1565b9392505050565b60008281556001829055600280549161013e836101ba565b91905055505050565b6000806040838503121561015a57600080fd5b82356001600160a01b038116811461017157600080fd5b946020939093013593505050565b6000806040838503121561019257600080fd5b50508035926020909101359150565b6000602082840312156101b357600080fd5b5051919050565b6000600182016101da57634e487b7160e01b600052601160045260246000fd5b506001019056fea2646970667358221220a945d4945a62029f78c6a7cf77f4bf2725db8fd56c23e7a77ac8a4dbfb087e9364736f6c634300080e0033",
  "linkReferences": {},
  "deployedLinkReferences": {}
}