{
  "_format": "hh-sol-artifact-1",
  "contractName": "SocialCollectMinter",
  "sourceName": "contracts/Social/SocialCollectMinter.sol",
  "abi": [
    {
      "inputs": [
        {
          "internalType": "address",
          "name": "_nft",
          "type": "address"
        },
        {
          "internalType": "address",
          "name": "_voucherSigner",
          "type": "address"
        }
      ],
      "stateMutability": "nonpayable",
      "type": "constructor"
    },
    {
      "anonymous": false,
      "inputs": [
        {
          "indexed": true,
          "internalType": "uint256",
          "name": "postId",
          "type": "uint256"
        },
        {
          "indexed": true,
          "internalType": "address",
          "name": "collector",
          "type": "address"
        }
      ],
      "name": "Collected",
      "type": "event"
    },
    {
      "inputs": [
        {
          "internalType": "uint256",
          "name": "postId",
          "type": "uint256"
        },
        {
          "internalType": "string",
          "name": "uri",
          "type": "string"
        },
        {
          "internalType": "bytes",
          "name": "signature",
          "type": "bytes"
        }
      ],
      "name": "mintWithVoucher",
      "outputs": [],
      "stateMutability": "nonpayable",
      "type": "function"
    },
    {
      "inputs": [],
      "name": "nft",
      "outputs": [
        {
          "internalType": "contract ISageNFT",
          "name": "",
          "type": "address"
        }
      ],
      "stateMutability": "view",
      "type": "function"
    },
    {
      "inputs": [
        {
          "internalType": "bytes32",
          "name": "",
          "type": "bytes32"
        }
      ],
      "name": "redeemed",
      "outputs": [
        {
          "internalType": "bool",
          "name": "",
          "type": "bool"
        }
      ],
      "stateMutability": "view",
      "type": "function"
    },
    {
      "inputs": [],
      "name": "voucherSigner",
      "outputs": [
        {
          "internalType": "address",
          "name": "",
          "type": "address"
        }
      ],
      "stateMutability": "view",
      "type": "function"
    }
  ],
  "bytecode": "0x61018060405234801561001157600080fd5b50604051610be9380380610be9833981016040819052610030916101b7565b604080518082018252601181527014d051d154dbd8da585b10dbdb1b1958dd607a1b6020808301918252835180850190945260018452603160f81b908401528151902060e08190527fc89efdaa54c0f20c7adf612882df0950f5a951637e0307cdcb4c672f298b8bc66101008190524660a0529192917f8b73c3c69bb8fe3d512ecc4cf759cc79239f7b179b0ffacaa9a75d522b39400f6101168184846040805160208101859052908101839052606081018290524660808201523060a082015260009060c0016040516020818303038152906040528051906020012090509392505050565b6080523060c05261012052505050506001600160a01b0382161580159061014557506001600160a01b03811615155b6101825760405162461bcd60e51b815260206004820152600a60248201526962616420706172616d7360b01b604482015260640160405180910390fd5b6001600160a01b039182166101405216610160526101ea565b80516001600160a01b03811681146101b257600080fd5b919050565b600080604083850312156101ca57600080fd5b6101d38361019b565b91506101e16020840161019b565b90509250929050565b60805160a05160c05160e0516101005161012051610140516101605161098e61025b6000396000818160cd0152610212015260008181608e01526102f201526000610495015260006104e4015260006104bf01526000610418015260006104420152600061046c015261098e6000f3fe608060405234801561001057600080fd5b506004361061004c5760003560e01c80633d8b9e071461005157806347ccca021461008957806388f4c137146100c8578063b5e1d9e4146100ef575b600080fd5b61007461005f36600461081d565b60006020819052908152604090205460ff1681565b60405190151581526020015b60405180910390f35b6100b07f000000000000000000000000000000000000000000000000000000000000000081565b6040516001600160a01b039091168152602001610080565b6100b07f000000000000000000000000000000000000000000000000000000000000000081565b6101026100fd366004610878565b610104565b005b6040805160208082018890523382840152825180830384018152606090920183528151918101919091206000818152918290529190205460ff16156101845760405162461bcd60e51b8152602060048201526011602482015270185b1c9958591e4818dbdb1b1958dd1959607a1b60448201526064015b60405180910390fd5b600061020e7f4ddc80eb13b3d413d72ffc2e4ddc7dc474d3730ba081eeb1844e94963ae1295c883389896040516101bc9291906108f2565b6040519081900381206101f39493929160200193845260208401929092526001600160a01b03166040830152606082015260800190565b60405160208183030381529060405280519060200120610393565b90507f00000000000000000000000000000000000000000000000000000000000000006001600160a01b031661027a8286868080601f0160208091040260200160405190810160405280939291908181526020018383808284376000920191909152506103e792505050565b6001600160a01b0316146102c25760405162461bcd60e51b815260206004820152600f60248201526e34b73b30b634b2103b37bab1b432b960891b604482015260640161017b565b60008281526020819052604090819020805460ff1916600117905551636902622f60e11b81526001600160a01b037f0000000000000000000000000000000000000000000000000000000000000000169063d204c45e9061032b9033908a908a90600401610902565b600060405180830381600087803b15801561034557600080fd5b505af1158015610359573d6000803e3d6000fd5b50506040513392508991507f754581136a3c2ab51aca2d58c0aaf816bbac838f0a9a700f866665de57bc909190600090a350505050505050565b60006103e16103a061040b565b8360405161190160f01b6020820152602281018390526042810182905260009060620160405160208183030381529060405280519060200120905092915050565b92915050565b60008060006103f68585610532565b9150915061040381610577565b509392505050565b6000306001600160a01b037f00000000000000000000000000000000000000000000000000000000000000001614801561046457507f000000000000000000000000000000000000000000000000000000000000000046145b1561048e57507f000000000000000000000000000000000000000000000000000000000000000090565b50604080517f00000000000000000000000000000000000000000000000000000000000000006020808301919091527f0000000000000000000000000000000000000000000000000000000000000000828401527f000000000000000000000000000000000000000000000000000000000000000060608301524660808301523060a0808401919091528351808403909101815260c0909201909252805191012090565b60008082516041036105685760208301516040840151606085015160001a61055c87828585610730565b94509450505050610570565b506000905060025b9250929050565b600081600481111561058b5761058b610942565b036105935750565b60018160048111156105a7576105a7610942565b036105f45760405162461bcd60e51b815260206004820152601860248201527f45434453413a20696e76616c6964207369676e61747572650000000000000000604482015260640161017b565b600281600481111561060857610608610942565b036106555760405162461bcd60e51b815260206004820152601f60248201527f45434453413a20696e76616c6964207369676e6174757265206c656e67746800604482015260640161017b565b600381600481111561066957610669610942565b036106c15760405162461bcd60e51b815260206004820152602260248201527f45434453413a20696e76616c6964207369676e6174757265202773272076616c604482015261756560f01b606482015260840161017b565b60048160048111156106d5576106d5610942565b0361072d5760405162461bcd60e51b815260206004820152602260248201527f45434453413a20696e76616c6964207369676e6174757265202776272076616c604482015261756560f01b606482015260840161017b565b50565b6000807f7fffffffffffffffffffffffffffffff5d576e7357a4501ddfe92f46681b20a08311156107675750600090506003610814565b8460ff16601b1415801561077f57508460ff16601c14155b156107905750600090506004610814565b6040805160008082526020820180845289905260ff881692820192909252606081018690526080810185905260019060a0016020604051602081039080840390855afa1580156107e4573d6000803e3d6000fd5b5050604051601f1901519150506001600160a01b03811661080d57600060019250925050610814565b9150600090505b94509492505050565b60006020828403121561082f57600080fd5b5035919050565b60008083601f84011261084857600080fd5b50813567ffffffffffffffff81111561086057600080fd5b60208301915083602082850101111561057057600080fd5b60008060008060006060868803121561089057600080fd5b85359450602086013567ffffffffffffffff808211156108af57600080fd5b6108bb89838a01610836565b909650945060408801359150808211156108d457600080fd5b506108e188828901610836565b969995985093965092949392505050565b8183823760009101908152919050565b6001600160a01b03841681526040602082018190528101829052818360608301376000818301606090810191909152601f909201601f1916010192915050565b634e487b7160e01b600052602160045260246000fdfea26469706673582212204ca54c8c5ddcb6fb5d6438c6de3db81c40fe48be6e1c7c53f404f4104abb48ae64736f6c634300080e0033",
  "linkReferences": {},
  "deployedLinkReferences": {}
}