{
  "_format": "hh-sol-artifact-1",
  "contractName": "SocialNFTLauncher",
  "sourceName": "contracts/Social/SocialNFTLauncher.sol",
  "abi": [
    {
      "inputs": [
        {
          "internalType": "address",
          "name": "_treasury",
          "type": "address"
        }
      ],
      "stateMutability": "nonpayable",
      "type": "constructor"
    },
    {
      "anonymous": false,
      "inputs": [
        {
          "indexed": true,
          "internalType": "address",
          "name": "edition",
          "type": "address"
        },
        {
          "indexed": true,
          "internalType": "address",
          "name": "artist",
          "type": "address"
        },
        {
          "indexed": false,
          "internalType": "string",
          "name": "name",
          "type": "string"
        },
        {
          "indexed": false,
          "internalType": "string",
          "name": "symbol",
          "type": "string"
        },
        {
          "indexed": false,
          "internalType": "uint256",
          "name": "priceWei",
          "type": "uint256"
        },
        {
          "indexed": false,
          "internalType": "uint256",
          "name": "maxSupply",
          "type": "uint256"
        }
      ],
      "name": "EditionCreated",
      "type": "event"
    },
    {
      "anonymous": false,
      "inputs": [
        {
          "indexed": true,
          "internalType": "address",
          "name": "edition",
          "type": "address"
        },
        {
          "indexed": true,
          "internalType": "address",
          "name": "minter",
          "type": "address"
        },
        {
          "indexed": false,
          "internalType": "uint256",
          "name": "tokenId",
          "type": "uint256"
        },
        {
          "indexed": false,
          "internalType": "uint256",
          "name": "paid",
          "type": "uint256"
        },
        {
          "indexed": false,
          "internalType": "uint256",
          "name": "fee",
          "type": "uint256"
        }
      ],
      "name": "Minted",
      "type": "event"
    },
    {
      "inputs": [],
      "name": "FEE_BPS",
      "outputs": [
        {
          "internalType": "uint16",
          "name": "",
          "type": "uint16"
        }
      ],
      "stateMutability": "view",
      "type": "function"
    },
    {
      "inputs": [
        {
          "internalType": "uint256",
          "name": "",
          "type": "uint256"
        }
      ],
      "name": "allEditions",
      "outputs": [
        {
          "internalType": "address",
          "name": "",
          "type": "address"
        }
      ],
      "stateMutability": "view",
      "type": "function"
    },
    {
      "inputs": [],
      "name": "allEditionsLength",
      "outputs": [
        {
          "internalType": "uint256",
          "name": "",
          "type": "uint256"
        }
      ],
      "stateMutability": "view",
      "type": "function"
    },
    {
      "inputs": [
        {
          "internalType": "string",
          "name": "name_",
          "type": "string"
        },
        {
          "internalType": "string",
          "name": "symbol_",
          "type": "string"
        },
        {
          "internalType": "string",
          "name": "uri_",
          "type": "string"
        },
        {
          "internalType": "uint256",
          "name": "maxSupply_",
          "type": "uint256"
        },
        {
          "internalType": "uint256",
          "name": "priceWei_",
          "type": "uint256"
        }
      ],
      "name": "createEdition",
      "outputs": [
        {
          "internalType": "address",
          "name": "edition",
          "type": "address"
        }
      ],
      "stateMutability": "nonpayable",
      "type": "function"
    },
    {
      "inputs": [
        {
          "internalType": "address",
          "name": "",
          "type": "address"
        }
      ],
      "name": "editions",
      "outputs": [
        {
          "internalType": "address",
          "name": "artist",
          "type": "address"
        },
        {
          "internalType": "uint256",
          "name": "priceWei",
          "type": "uint256"
        },
        {
          "internalType": "uint256",
          "name": "maxSupply",
          "type": "uint256"
        }
      ],
      "stateMutability": "view",
      "type": "function"
    },
    {
      "inputs": [
        {
          "internalType": "address",
          "name": "edition",
          "type": "address"
        }
      ],
      "name": "mint",
      "outputs": [
        {
          "internalType": "uint256",
          "name": "tokenId",
          "type": "uint256"
        }
      ],
      "stateMutability": "payable",
      "type": "function"
    },
    {
      "inputs": [
        {
          "internalType": "address",
          "name": "edition",
          "type": "address"
        }
      ],
      "name": "mintedOf",
      "outputs": [
        {
          "internalType": "uint256",
          "name": "",
          "type": "uint256"
        }
      ],
      "stateMutability": "view",
      "type": "function"
    },
    {
      "inputs": [],
      "name": "treasury",
      "outputs": [
        {
          "internalType": "address",
          "name": "",
          "type": "address"
        }
      ],
      "stateMutability": "view",
      "type": "function"
    }
  ],
  "bytecode": "0x60a060405234801561001057600080fd5b5060405161225638038061225683398101604081905261002f9161008e565b60016000556001600160a01b03811661007d5760405162461bcd60e51b815260206004820152600c60248201526b62616420747265617375727960a01b604482015260640160405180910390fd5b6001600160a01b03166080526100be565b6000602082840312156100a057600080fd5b81516001600160a01b03811681146100b757600080fd5b9392505050565b6080516121776100df6000396000818160d6015261042601526121776000f3fe608060405260043610620000855760003560e01c8063abac98ac1162000054578063abac98ac146200013f578063bf333f2c1462000164578063bfa57e0d146200018f578063eb29742814620001b457600080fd5b8063617692dd146200008a57806361d027b314620000c25780636a627842146200011157806393791ac81462000128575b600080fd5b3480156200009757600080fd5b50620000af620000a9366004620007e4565b62000225565b6040519081526020015b60405180910390f35b348015620000cf57600080fd5b50620000f87f000000000000000000000000000000000000000000000000000000000000000081565b6040516001600160a01b039091168152602001620000b9565b620000af62000122366004620007e4565b62000292565b3480156200013557600080fd5b50600254620000af565b3480156200014c57600080fd5b50620000f86200015e36600462000816565b620004c7565b3480156200017157600080fd5b506200017b606481565b60405161ffff9091168152602001620000b9565b3480156200019c57600080fd5b50620000f8620001ae3660046200087c565b620004f2565b348015620001c157600080fd5b50620001ff620001d3366004620007e4565b60016020819052600091825260409091208054918101546002909101546001600160a01b039092169183565b604080516001600160a01b039094168452602084019290925290820152606001620000b9565b6000816001600160a01b0316634f02c4206040518163ffffffff1660e01b8152600401602060405180830381865afa15801562000266573d6000803e3d6000fd5b505050506040513d601f19601f820116820180604052508101906200028c91906200092f565b92915050565b6000600260005403620002ec5760405162461bcd60e51b815260206004820152601f60248201527f5265656e7472616e637947756172643a207265656e7472616e742063616c6c0060448201526064015b60405180910390fd5b600260009081556001600160a01b0380841682526001602052604090912080549091166200034f5760405162461bcd60e51b815260206004820152600f60248201526e3ab735b737bbb71032b234ba34b7b760891b6044820152606401620002e3565b8060010154341015620003915760405162461bcd60e51b81526020600482015260096024820152681d5b99195c9c185a5960ba1b6044820152606401620002e3565b60405163755edd1760e01b81523360048201526001600160a01b0384169063755edd17906024016020604051808303816000875af1158015620003d8573d6000803e3d6000fd5b505050506040513d601f19601f82011682018060405250810190620003fe91906200092f565b91506000612710620004126064346200095f565b6200041e919062000981565b90506200044c7f00000000000000000000000000000000000000000000000000000000000000008262000727565b81546200046e906001600160a01b0316620004688334620009a4565b62000727565b6040805184815234602082015290810182905233906001600160a01b038616907f68c721f9a38584842eb66945b43c95066397ce5f2576fcc0588471c85d209d0c9060600160405180910390a350506001600055919050565b60028181548110620004d857600080fd5b6000918252602090912001546001600160a01b0316905081565b6000600260005403620005485760405162461bcd60e51b815260206004820152601f60248201527f5265656e7472616e637947756172643a207265656e7472616e742063616c6c006044820152606401620002e3565b600260005587158015906200055c57508515155b620005a15760405162461bcd60e51b81526020600482015260146024820152731b985b594bdcde5b589bdb081c995c5d5a5c995960621b6044820152606401620002e3565b600083118015620005b55750620f42408311155b620005f65760405162461bcd60e51b815260206004820152601060248201526f0737570706c7920312d313030303030360841b6044820152606401620002e3565b88888888888888336040516200060c90620007d6565b6200061f989796959493929190620009e7565b604051809103906000f0801580156200063c573d6000803e3d6000fd5b50604080516060810182523380825260208083018781528385018981526001600160a01b0380881660008181526001958690528881209751885493166001600160a01b0319938416178855935187860155915160029687015585549384018655949091527f405787fa12a823e0f2b7631cc41b3ba8828b3321ca811111fa75cd3aa3bb5ace90910180549093168117909255915192935090917f03bbe9bb9d0ada083274fd9fa90dddcaa6b1ca65483e5af660b9c92296624367906200070e908d908d908d908d908a908c9062000a4f565b60405180910390a3600160005598975050505050505050565b8060000362000734575050565b6000826001600160a01b03168260405160006040518083038185875af1925050503d806000811462000783576040519150601f19603f3d011682016040523d82523d6000602084013e62000788565b606091505b5050905080620007d15760405162461bcd60e51b8152602060048201526013602482015272195d1a081d1c985b9cd9995c8819985a5b1959606a1b6044820152606401620002e3565b505050565b6116b18062000a9183390190565b600060208284031215620007f757600080fd5b81356001600160a01b03811681146200080f57600080fd5b9392505050565b6000602082840312156200082957600080fd5b5035919050565b60008083601f8401126200084357600080fd5b50813567ffffffffffffffff8111156200085c57600080fd5b6020830191508360208285010111156200087557600080fd5b9250929050565b60008060008060008060008060a0898b0312156200089957600080fd5b883567ffffffffffffffff80821115620008b257600080fd5b620008c08c838d0162000830565b909a50985060208b0135915080821115620008da57600080fd5b620008e88c838d0162000830565b909850965060408b01359150808211156200090257600080fd5b50620009118b828c0162000830565b999c989b509699959896976060870135966080013595509350505050565b6000602082840312156200094257600080fd5b5051919050565b634e487b7160e01b600052601160045260246000fd5b60008160001904831182151516156200097c576200097c62000949565b500290565b6000826200099f57634e487b7160e01b600052601260045260246000fd5b500490565b600082821015620009b957620009b962000949565b500390565b81835281816020850137506000828201602090810191909152601f909101601f19169091010190565b60a081526000620009fd60a083018a8c620009be565b828103602084015262000a1281898b620009be565b9050828103604084015262000a29818789620009be565b606084019590955250506001600160a01b03919091166080909101529695505050505050565b60808152600062000a6560808301888a620009be565b828103602084015262000a7a818789620009be565b604084019590955250506060015294935050505056fe60e06040523480156200001157600080fd5b50604051620016b1380380620016b183398101604081905262000034916200020e565b8451859085906200004d9060009060208501906200009b565b508051620000639060019060208401906200009b565b505033608052506001600160a01b03811660a05282516200008c9060069060208601906200009b565b505060c0525062000309915050565b828054620000a990620002cd565b90600052602060002090601f016020900481019282620000cd576000855562000118565b82601f10620000e857805160ff191683800117855562000118565b8280016001018555821562000118579182015b8281111562000118578251825591602001919060010190620000fb565b50620001269291506200012a565b5090565b5b808211156200012657600081556001016200012b565b634e487b7160e01b600052604160045260246000fd5b600082601f8301126200016957600080fd5b81516001600160401b038082111562000186576200018662000141565b604051601f8301601f19908116603f01168101908282118183101715620001b157620001b162000141565b81604052838152602092508683858801011115620001ce57600080fd5b600091505b83821015620001f25785820183015181830184015290820190620001d3565b83821115620002045760008385830101525b9695505050505050565b600080600080600060a086880312156200022757600080fd5b85516001600160401b03808211156200023f57600080fd5b6200024d89838a0162000157565b965060208801519150808211156200026457600080fd5b6200027289838a0162000157565b955060408801519150808211156200028957600080fd5b50620002988882890162000157565b60608801516080890151919550935090506001600160a01b0381168114620002bf57600080fd5b809150509295509295909350565b600181811c90821680620002e257607f821691505b6020821081036200030357634e487b7160e01b600052602260045260246000fd5b50919050565b60805160a05160c05161136a62000347600039600081816102a201526106c3015260006101ea01526000818161019d0152610664015261136a6000f3fe608060405234801561001057600080fd5b50600436106101165760003560e01c80636352211e116100a2578063a22cb46511610071578063a22cb46514610264578063b88d4fde14610277578063c87b56dd1461028a578063d5abeb011461029d578063e985e9c5146102c457600080fd5b80636352211e1461022357806370a0823114610236578063755edd171461024957806395d89b411461025c57600080fd5b806316eebd1e116100e957806316eebd1e1461019857806323b872dd146101bf57806342842e0e146101d257806343bc1612146101e55780634f02c4201461020c57600080fd5b806301ffc9a71461011b57806306fdde0314610143578063081812fc14610158578063095ea7b314610183575b600080fd5b61012e610129366004610f0c565b610300565b60405190151581526020015b60405180910390f35b61014b610352565b60405161013a9190610f7d565b61016b610166366004610f90565b6103e4565b6040516001600160a01b03909116815260200161013a565b610196610191366004610fc0565b61040b565b005b61016b7f000000000000000000000000000000000000000000000000000000000000000081565b6101966101cd366004610fea565b610525565b6101966101e0366004610fea565b610556565b61016b7f000000000000000000000000000000000000000000000000000000000000000081565b61021560075481565b60405190815260200161013a565b61016b610231366004610f90565b610571565b610215610244366004611026565b6105d1565b610215610257366004611026565b610657565b61014b610742565b610196610272366004611041565b610751565b610196610285366004611093565b610760565b61014b610298366004610f90565b610798565b6102157f000000000000000000000000000000000000000000000000000000000000000081565b61012e6102d236600461116f565b6001600160a01b03918216600090815260056020908152604080832093909416825291909152205460ff1690565b60006001600160e01b031982166380ac58cd60e01b148061033157506001600160e01b03198216635b5e139f60e01b145b8061034c57506301ffc9a760e01b6001600160e01b03198316145b92915050565b606060008054610361906111a2565b80601f016020809104026020016040519081016040528092919081815260200182805461038d906111a2565b80156103da5780601f106103af576101008083540402835291602001916103da565b820191906000526020600020905b8154815290600101906020018083116103bd57829003601f168201915b5050505050905090565b60006103ef8261087a565b506000908152600460205260409020546001600160a01b031690565b600061041682610571565b9050806001600160a01b0316836001600160a01b0316036104885760405162461bcd60e51b815260206004820152602160248201527f4552433732313a20617070726f76616c20746f2063757272656e74206f776e656044820152603960f91b60648201526084015b60405180910390fd5b336001600160a01b03821614806104a457506104a481336102d2565b6105165760405162461bcd60e51b815260206004820152603e60248201527f4552433732313a20617070726f76652063616c6c6572206973206e6f7420746f60448201527f6b656e206f776e6572206e6f7220617070726f76656420666f7220616c6c0000606482015260840161047f565b61052083836108dc565b505050565b61052f338261094a565b61054b5760405162461bcd60e51b815260040161047f906111dc565b6105208383836109c9565b61052083838360405180602001604052806000815250610760565b6000818152600260205260408120546001600160a01b03168061034c5760405162461bcd60e51b8152602060048201526018602482015277115490cdcc8c4e881a5b9d985b1a59081d1bdad95b88125160421b604482015260640161047f565b60006001600160a01b03821661063b5760405162461bcd60e51b815260206004820152602960248201527f4552433732313a2061646472657373207a65726f206973206e6f7420612076616044820152683634b21037bbb732b960b91b606482015260840161047f565b506001600160a01b031660009081526003602052604090205490565b6000336001600160a01b037f000000000000000000000000000000000000000000000000000000000000000016146106c15760405162461bcd60e51b815260206004820152600d60248201526c6c61756e63686572206f6e6c7960981b604482015260640161047f565b7f00000000000000000000000000000000000000000000000000000000000000006007541061071d5760405162461bcd60e51b81526020600482015260086024820152671cdbdb19081bdd5d60c21b604482015260640161047f565b60076000815461072c90611240565b9182905550905061073d8282610b65565b919050565b606060018054610361906111a2565b61075c338383610b7f565b5050565b61076a338361094a565b6107865760405162461bcd60e51b815260040161047f906111dc565b61079284848484610c4d565b50505050565b60606000821180156107ac57506007548211155b6107e85760405162461bcd60e51b815260206004820152600d60248201526c37379039bab1b4103a37b5b2b760991b604482015260640161047f565b600680546107f5906111a2565b80601f0160208091040260200160405190810160405280929190818152602001828054610821906111a2565b801561086e5780601f106108435761010080835404028352916020019161086e565b820191906000526020600020905b81548152906001019060200180831161085157829003601f168201915b50505050509050919050565b6000818152600260205260409020546001600160a01b03166108d95760405162461bcd60e51b8152602060048201526018602482015277115490cdcc8c4e881a5b9d985b1a59081d1bdad95b88125160421b604482015260640161047f565b50565b600081815260046020526040902080546001600160a01b0319166001600160a01b038416908117909155819061091182610571565b6001600160a01b03167f8c5be1e5ebec7d5bd14f71427d1e84f3dd0314c0f7b2291e5b200ac8c7c3b92560405160405180910390a45050565b60008061095683610571565b9050806001600160a01b0316846001600160a01b0316148061099d57506001600160a01b0380821660009081526005602090815260408083209388168352929052205460ff165b806109c15750836001600160a01b03166109b6846103e4565b6001600160a01b0316145b949350505050565b826001600160a01b03166109dc82610571565b6001600160a01b031614610a405760405162461bcd60e51b815260206004820152602560248201527f4552433732313a207472616e736665722066726f6d20696e636f72726563742060448201526437bbb732b960d91b606482015260840161047f565b6001600160a01b038216610aa25760405162461bcd60e51b8152602060048201526024808201527f4552433732313a207472616e7366657220746f20746865207a65726f206164646044820152637265737360e01b606482015260840161047f565b610aad6000826108dc565b6001600160a01b0383166000908152600360205260408120805460019290610ad6908490611259565b90915550506001600160a01b0382166000908152600360205260408120805460019290610b04908490611270565b909155505060008181526002602052604080822080546001600160a01b0319166001600160a01b0386811691821790925591518493918716917fddf252ad1be2c89b69c2b068fc378daa952ba7f163c4a11628f55a4df523b3ef91a4505050565b61075c828260405180602001604052806000815250610c80565b816001600160a01b0316836001600160a01b031603610be05760405162461bcd60e51b815260206004820152601960248201527f4552433732313a20617070726f766520746f2063616c6c657200000000000000604482015260640161047f565b6001600160a01b03838116600081815260056020908152604080832094871680845294825291829020805460ff191686151590811790915591519182527f17307eab39ab6107e8899845ad3d59bd9653f200f220920489ca2b5937696c31910160405180910390a3505050565b610c588484846109c9565b610c6484848484610cb3565b6107925760405162461bcd60e51b815260040161047f90611288565b610c8a8383610db4565b610c976000848484610cb3565b6105205760405162461bcd60e51b815260040161047f90611288565b60006001600160a01b0384163b15610da957604051630a85bd0160e11b81526001600160a01b0385169063150b7a0290610cf79033908990889088906004016112da565b6020604051808303816000875af1925050508015610d32575060408051601f3d908101601f19168201909252610d2f91810190611317565b60015b610d8f573d808015610d60576040519150601f19603f3d011682016040523d82523d6000602084013e610d65565b606091505b508051600003610d875760405162461bcd60e51b815260040161047f90611288565b805181602001fd5b6001600160e01b031916630a85bd0160e11b1490506109c1565b506001949350505050565b6001600160a01b038216610e0a5760405162461bcd60e51b815260206004820181905260248201527f4552433732313a206d696e7420746f20746865207a65726f2061646472657373604482015260640161047f565b6000818152600260205260409020546001600160a01b031615610e6f5760405162461bcd60e51b815260206004820152601c60248201527f4552433732313a20746f6b656e20616c7265616479206d696e74656400000000604482015260640161047f565b6001600160a01b0382166000908152600360205260408120805460019290610e98908490611270565b909155505060008181526002602052604080822080546001600160a01b0319166001600160a01b03861690811790915590518392907fddf252ad1be2c89b69c2b068fc378daa952ba7f163c4a11628f55a4df523b3ef908290a45050565b6001600160e01b0319811681146108d957600080fd5b600060208284031215610f1e57600080fd5b8135610f2981610ef6565b9392505050565b6000815180845260005b81811015610f5657602081850181015186830182015201610f3a565b81811115610f68576000602083870101525b50601f01601f19169290920160200192915050565b602081526000610f296020830184610f30565b600060208284031215610fa257600080fd5b5035919050565b80356001600160a01b038116811461073d57600080fd5b60008060408385031215610fd357600080fd5b610fdc83610fa9565b946020939093013593505050565b600080600060608486031215610fff57600080fd5b61100884610fa9565b925061101660208501610fa9565b9150604084013590509250925092565b60006020828403121561103857600080fd5b610f2982610fa9565b6000806040838503121561105457600080fd5b61105d83610fa9565b91506020830135801515811461107257600080fd5b809150509250929050565b634e487b7160e01b600052604160045260246000fd5b600080600080608085870312156110a957600080fd5b6110b285610fa9565b93506110c060208601610fa9565b925060408501359150606085013567ffffffffffffffff808211156110e457600080fd5b818701915087601f8301126110f857600080fd5b81358181111561110a5761110a61107d565b604051601f8201601f19908116603f011681019083821181831017156111325761113261107d565b816040528281528a602084870101111561114b57600080fd5b82602086016020830137600060208483010152809550505050505092959194509250565b6000806040838503121561118257600080fd5b61118b83610fa9565b915061119960208401610fa9565b90509250929050565b600181811c908216806111b657607f821691505b6020821081036111d657634e487b7160e01b600052602260045260246000fd5b50919050565b6020808252602e908201527f4552433732313a2063616c6c6572206973206e6f7420746f6b656e206f776e6560408201526d1c881b9bdc88185c1c1c9bdd995960921b606082015260800190565b634e487b7160e01b600052601160045260246000fd5b6000600182016112525761125261122a565b5060010190565b60008282101561126b5761126b61122a565b500390565b600082198211156112835761128361122a565b500190565b60208082526032908201527f4552433732313a207472616e7366657220746f206e6f6e20455243373231526560408201527131b2b4bb32b91034b6b83632b6b2b73a32b960711b606082015260800190565b6001600160a01b038581168252841660208201526040810183905260806060820181905260009061130d90830184610f30565b9695505050505050565b60006020828403121561132957600080fd5b8151610f2981610ef656fea2646970667358221220d7d123fe831d59bdc81d1d4610db45c863b226538b1b0e41621fbd321c378d5964736f6c634300080e0033a2646970667358221220755879f482754b163f33593c1612487937c5aad5d27883359f41560ad85061d664736f6c634300080e0033",
  "linkReferences": {},
  "deployedLinkReferences": {}
}