{
  "_format": "hh-sol-artifact-1",
  "contractName": "SocialCollectionNFT",
  "sourceName": "contracts/Social/SocialNFTLauncher.sol",
  "abi": [
    {
      "inputs": [
        {
          "internalType": "string",
          "name": "name_",
          "type": "string"
        },
        {
          "internalType": "string",
          "name": "symbol_",
          "type": "string"
        },
        {
          "internalType": "string",
          "name": "baseUri_",
          "type": "string"
        },
        {
          "internalType": "uint256",
          "name": "maxSupply_",
          "type": "uint256"
        },
        {
          "internalType": "address",
          "name": "artist_",
          "type": "address"
        }
      ],
      "stateMutability": "nonpayable",
      "type": "constructor"
    },
    {
      "anonymous": false,
      "inputs": [
        {
          "indexed": true,
          "internalType": "address",
          "name": "owner",
          "type": "address"
        },
        {
          "indexed": true,
          "internalType": "address",
          "name": "approved",
          "type": "address"
        },
        {
          "indexed": true,
          "internalType": "uint256",
          "name": "tokenId",
          "type": "uint256"
        }
      ],
      "name": "Approval",
      "type": "event"
    },
    {
      "anonymous": false,
      "inputs": [
        {
          "indexed": true,
          "internalType": "address",
          "name": "owner",
          "type": "address"
        },
        {
          "indexed": true,
          "internalType": "address",
          "name": "operator",
          "type": "address"
        },
        {
          "indexed": false,
          "internalType": "bool",
          "name": "approved",
          "type": "bool"
        }
      ],
      "name": "ApprovalForAll",
      "type": "event"
    },
    {
      "anonymous": false,
      "inputs": [
        {
          "indexed": true,
          "internalType": "address",
          "name": "from",
          "type": "address"
        },
        {
          "indexed": true,
          "internalType": "address",
          "name": "to",
          "type": "address"
        },
        {
          "indexed": true,
          "internalType": "uint256",
          "name": "tokenId",
          "type": "uint256"
        }
      ],
      "name": "Transfer",
      "type": "event"
    },
    {
      "inputs": [
        {
          "internalType": "address",
          "name": "to",
          "type": "address"
        },
        {
          "internalType": "uint256",
          "name": "tokenId",
          "type": "uint256"
        }
      ],
      "name": "approve",
      "outputs": [],
      "stateMutability": "nonpayable",
      "type": "function"
    },
    {
      "inputs": [],
      "name": "artist",
      "outputs": [
        {
          "internalType": "address",
          "name": "",
          "type": "address"
        }
      ],
      "stateMutability": "view",
      "type": "function"
    },
    {
      "inputs": [
        {
          "internalType": "address",
          "name": "owner",
          "type": "address"
        }
      ],
      "name": "balanceOf",
      "outputs": [
        {
          "internalType": "uint256",
          "name": "",
          "type": "uint256"
        }
      ],
      "stateMutability": "view",
      "type": "function"
    },
    {
      "inputs": [],
      "name": "baseUri",
      "outputs": [
        {
          "internalType": "string",
          "name": "",
          "type": "string"
        }
      ],
      "stateMutability": "view",
      "type": "function"
    },
    {
      "inputs": [
        {
          "internalType": "uint256",
          "name": "tokenId",
          "type": "uint256"
        }
      ],
      "name": "getApproved",
      "outputs": [
        {
          "internalType": "address",
          "name": "",
          "type": "address"
        }
      ],
      "stateMutability": "view",
      "type": "function"
    },
    {
      "inputs": [
        {
          "internalType": "address",
          "name": "owner",
          "type": "address"
        },
        {
          "internalType": "address",
          "name": "operator",
          "type": "address"
        }
      ],
      "name": "isApprovedForAll",
      "outputs": [
        {
          "internalType": "bool",
          "name": "",
          "type": "bool"
        }
      ],
      "stateMutability": "view",
      "type": "function"
    },
    {
      "inputs": [],
      "name": "launcher",
      "outputs": [
        {
          "internalType": "address",
          "name": "",
          "type": "address"
        }
      ],
      "stateMutability": "view",
      "type": "function"
    },
    {
      "inputs": [],
      "name": "maxSupply",
      "outputs": [
        {
          "internalType": "uint256",
          "name": "",
          "type": "uint256"
        }
      ],
      "stateMutability": "view",
      "type": "function"
    },
    {
      "inputs": [
        {
          "internalType": "address",
          "name": "to",
          "type": "address"
        }
      ],
      "name": "mintTo",
      "outputs": [
        {
          "internalType": "uint256",
          "name": "tokenId",
          "type": "uint256"
        }
      ],
      "stateMutability": "nonpayable",
      "type": "function"
    },
    {
      "inputs": [],
      "name": "minted",
      "outputs": [
        {
          "internalType": "uint256",
          "name": "",
          "type": "uint256"
        }
      ],
      "stateMutability": "view",
      "type": "function"
    },
    {
      "inputs": [],
      "name": "name",
      "outputs": [
        {
          "internalType": "string",
          "name": "",
          "type": "string"
        }
      ],
      "stateMutability": "view",
      "type": "function"
    },
    {
      "inputs": [
        {
          "internalType": "uint256",
          "name": "tokenId",
          "type": "uint256"
        }
      ],
      "name": "ownerOf",
      "outputs": [
        {
          "internalType": "address",
          "name": "",
          "type": "address"
        }
      ],
      "stateMutability": "view",
      "type": "function"
    },
    {
      "inputs": [
        {
          "internalType": "address",
          "name": "from",
          "type": "address"
        },
        {
          "internalType": "address",
          "name": "to",
          "type": "address"
        },
        {
          "internalType": "uint256",
          "name": "tokenId",
          "type": "uint256"
        }
      ],
      "name": "safeTransferFrom",
      "outputs": [],
      "stateMutability": "nonpayable",
      "type": "function"
    },
    {
      "inputs": [
        {
          "internalType": "address",
          "name": "from",
          "type": "address"
        },
        {
          "internalType": "address",
          "name": "to",
          "type": "address"
        },
        {
          "internalType": "uint256",
          "name": "tokenId",
          "type": "uint256"
        },
        {
          "internalType": "bytes",
          "name": "data",
          "type": "bytes"
        }
      ],
      "name": "safeTransferFrom",
      "outputs": [],
      "stateMutability": "nonpayable",
      "type": "function"
    },
    {
      "inputs": [
        {
          "internalType": "address",
          "name": "operator",
          "type": "address"
        },
        {
          "internalType": "bool",
          "name": "approved",
          "type": "bool"
        }
      ],
      "name": "setApprovalForAll",
      "outputs": [],
      "stateMutability": "nonpayable",
      "type": "function"
    },
    {
      "inputs": [
        {
          "internalType": "bytes4",
          "name": "interfaceId",
          "type": "bytes4"
        }
      ],
      "name": "supportsInterface",
      "outputs": [
        {
          "internalType": "bool",
          "name": "",
          "type": "bool"
        }
      ],
      "stateMutability": "view",
      "type": "function"
    },
    {
      "inputs": [],
      "name": "symbol",
      "outputs": [
        {
          "internalType": "string",
          "name": "",
          "type": "string"
        }
      ],
      "stateMutability": "view",
      "type": "function"
    },
    {
      "inputs": [
        {
          "internalType": "uint256",
          "name": "tokenId",
          "type": "uint256"
        }
      ],
      "name": "tokenURI",
      "outputs": [
        {
          "internalType": "string",
          "name": "",
          "type": "string"
        }
      ],
      "stateMutability": "view",
      "type": "function"
    },
    {
      "inputs": [
        {
          "internalType": "address",
          "name": "from",
          "type": "address"
        },
        {
          "internalType": "address",
          "name": "to",
          "type": "address"
        },
        {
          "internalType": "uint256",
          "name": "tokenId",
          "type": "uint256"
        }
      ],
      "name": "transferFrom",
      "outputs": [],
      "stateMutability": "nonpayable",
      "type": "function"
    }
  ],
  "bytecode": "0x60e06040523480156200001157600080fd5b50604051620019283803806200192883398101604081905262000034916200020e565b8451859085906200004d9060009060208501906200009b565b508051620000639060019060208401906200009b565b505033608052506001600160a01b03811660a05282516200008c9060069060208601906200009b565b505060c0525062000309915050565b828054620000a990620002cd565b90600052602060002090601f016020900481019282620000cd576000855562000118565b82601f10620000e857805160ff191683800117855562000118565b8280016001018555821562000118579182015b8281111562000118578251825591602001919060010190620000fb565b50620001269291506200012a565b5090565b5b808211156200012657600081556001016200012b565b634e487b7160e01b600052604160045260246000fd5b600082601f8301126200016957600080fd5b81516001600160401b038082111562000186576200018662000141565b604051601f8301601f19908116603f01168101908282118183101715620001b157620001b162000141565b81604052838152602092508683858801011115620001ce57600080fd5b600091505b83821015620001f25785820183015181830184015290820190620001d3565b83821115620002045760008385830101525b9695505050505050565b600080600080600060a086880312156200022757600080fd5b85516001600160401b03808211156200023f57600080fd5b6200024d89838a0162000157565b965060208801519150808211156200026457600080fd5b6200027289838a0162000157565b955060408801519150808211156200028957600080fd5b50620002988882890162000157565b60608801516080890151919550935090506001600160a01b0381168114620002bf57600080fd5b809150509295509295909350565b600181811c90821680620002e257607f821691505b6020821081036200030357634e487b7160e01b600052602260045260246000fd5b50919050565b60805160a05160c0516115e162000347600039600081816102b501526106d6015260006101f50152600081816101a8015261067701526115e16000f3fe608060405234801561001057600080fd5b50600436106101215760003560e01c80636352211e116100ad578063a22cb46511610071578063a22cb46514610277578063b88d4fde1461028a578063c87b56dd1461029d578063d5abeb01146102b0578063e985e9c5146102d757600080fd5b80636352211e1461022e57806370a0823114610241578063755edd171461025457806395d89b41146102675780639abc83201461026f57600080fd5b806316eebd1e116100f457806316eebd1e146101a357806323b872dd146101ca57806342842e0e146101dd57806343bc1612146101f05780634f02c4201461021757600080fd5b806301ffc9a71461012657806306fdde031461014e578063081812fc14610163578063095ea7b31461018e575b600080fd5b61013961013436600461104e565b610313565b60405190151581526020015b60405180910390f35b610156610365565b60405161014591906110ca565b6101766101713660046110dd565b6103f7565b6040516001600160a01b039091168152602001610145565b6101a161019c36600461110d565b61041e565b005b6101767f000000000000000000000000000000000000000000000000000000000000000081565b6101a16101d8366004611137565b610538565b6101a16101eb366004611137565b610569565b6101767f000000000000000000000000000000000000000000000000000000000000000081565b61022060075481565b604051908152602001610145565b61017661023c3660046110dd565b610584565b61022061024f366004611173565b6105e4565b610220610262366004611173565b61066a565b610156610755565b610156610764565b6101a161028536600461118e565b6107f2565b6101a16102983660046111e0565b610801565b6101566102ab3660046110dd565b610839565b6102207f000000000000000000000000000000000000000000000000000000000000000081565b6101396102e53660046112bc565b6001600160a01b03918216600090815260056020908152604080832093909416825291909152205460ff1690565b60006001600160e01b031982166380ac58cd60e01b148061034457506001600160e01b03198216635b5e139f60e01b145b8061035f57506301ffc9a760e01b6001600160e01b03198316145b92915050565b606060008054610374906112ef565b80601f01602080910402602001604051908101604052809291908181526020018280546103a0906112ef565b80156103ed5780601f106103c2576101008083540402835291602001916103ed565b820191906000526020600020905b8154815290600101906020018083116103d057829003601f168201915b5050505050905090565b6000610402826108bb565b506000908152600460205260409020546001600160a01b031690565b600061042982610584565b9050806001600160a01b0316836001600160a01b03160361049b5760405162461bcd60e51b815260206004820152602160248201527f4552433732313a20617070726f76616c20746f2063757272656e74206f776e656044820152603960f91b60648201526084015b60405180910390fd5b336001600160a01b03821614806104b757506104b781336102e5565b6105295760405162461bcd60e51b815260206004820152603e60248201527f4552433732313a20617070726f76652063616c6c6572206973206e6f7420746f60448201527f6b656e206f776e6572206e6f7220617070726f76656420666f7220616c6c00006064820152608401610492565b610533838361091d565b505050565b610542338261098b565b61055e5760405162461bcd60e51b815260040161049290611329565b610533838383610a0a565b61053383838360405180602001604052806000815250610801565b6000818152600260205260408120546001600160a01b03168061035f5760405162461bcd60e51b8152602060048201526018602482015277115490cdcc8c4e881a5b9d985b1a59081d1bdad95b88125160421b6044820152606401610492565b60006001600160a01b03821661064e5760405162461bcd60e51b815260206004820152602960248201527f4552433732313a2061646472657373207a65726f206973206e6f7420612076616044820152683634b21037bbb732b960b91b6064820152608401610492565b506001600160a01b031660009081526003602052604090205490565b6000336001600160a01b037f000000000000000000000000000000000000000000000000000000000000000016146106d45760405162461bcd60e51b815260206004820152600d60248201526c6c61756e63686572206f6e6c7960981b6044820152606401610492565b7f0000000000000000000000000000000000000000000000000000000000000000600754106107305760405162461bcd60e51b81526020600482015260086024820152671cdbdb19081bdd5d60c21b6044820152606401610492565b60076000815461073f9061138d565b918290555090506107508282610ba6565b919050565b606060018054610374906112ef565b60068054610771906112ef565b80601f016020809104026020016040519081016040528092919081815260200182805461079d906112ef565b80156107ea5780601f106107bf576101008083540402835291602001916107ea565b820191906000526020600020905b8154815290600101906020018083116107cd57829003601f168201915b505050505081565b6107fd338383610bc0565b5050565b61080b338361098b565b6108275760405162461bcd60e51b815260040161049290611329565b61083384848484610c8e565b50505050565b606060008211801561084d57506007548211155b6108895760405162461bcd60e51b815260206004820152600d60248201526c37379039bab1b4103a37b5b2b760991b6044820152606401610492565b600661089483610cc1565b6040516020016108a59291906113c2565b6040516020818303038152906040529050919050565b6000818152600260205260409020546001600160a01b031661091a5760405162461bcd60e51b8152602060048201526018602482015277115490cdcc8c4e881a5b9d985b1a59081d1bdad95b88125160421b6044820152606401610492565b50565b600081815260046020526040902080546001600160a01b0319166001600160a01b038416908117909155819061095282610584565b6001600160a01b03167f8c5be1e5ebec7d5bd14f71427d1e84f3dd0314c0f7b2291e5b200ac8c7c3b92560405160405180910390a45050565b60008061099783610584565b9050806001600160a01b0316846001600160a01b031614806109de57506001600160a01b0380821660009081526005602090815260408083209388168352929052205460ff165b80610a025750836001600160a01b03166109f7846103f7565b6001600160a01b0316145b949350505050565b826001600160a01b0316610a1d82610584565b6001600160a01b031614610a815760405162461bcd60e51b815260206004820152602560248201527f4552433732313a207472616e736665722066726f6d20696e636f72726563742060448201526437bbb732b960d91b6064820152608401610492565b6001600160a01b038216610ae35760405162461bcd60e51b8152602060048201526024808201527f4552433732313a207472616e7366657220746f20746865207a65726f206164646044820152637265737360e01b6064820152608401610492565b610aee60008261091d565b6001600160a01b0383166000908152600360205260408120805460019290610b1790849061147c565b90915550506001600160a01b0382166000908152600360205260408120805460019290610b45908490611493565b909155505060008181526002602052604080822080546001600160a01b0319166001600160a01b0386811691821790925591518493918716917fddf252ad1be2c89b69c2b068fc378daa952ba7f163c4a11628f55a4df523b3ef91a4505050565b6107fd828260405180602001604052806000815250610dc2565b816001600160a01b0316836001600160a01b031603610c215760405162461bcd60e51b815260206004820152601960248201527f4552433732313a20617070726f766520746f2063616c6c6572000000000000006044820152606401610492565b6001600160a01b03838116600081815260056020908152604080832094871680845294825291829020805460ff191686151590811790915591519182527f17307eab39ab6107e8899845ad3d59bd9653f200f220920489ca2b5937696c31910160405180910390a3505050565b610c99848484610a0a565b610ca584848484610df5565b6108335760405162461bcd60e51b8152600401610492906114ab565b606081600003610ce85750506040805180820190915260018152600360fc1b602082015290565b8160005b8115610d125780610cfc8161138d565b9150610d0b9050600a83611513565b9150610cec565b60008167ffffffffffffffff811115610d2d57610d2d6111ca565b6040519080825280601f01601f191660200182016040528015610d57576020820181803683370190505b5090505b8415610a0257610d6c60018361147c565b9150610d79600a86611527565b610d84906030611493565b60f81b818381518110610d9957610d9961153b565b60200101906001600160f81b031916908160001a905350610dbb600a86611513565b9450610d5b565b610dcc8383610ef6565b610dd96000848484610df5565b6105335760405162461bcd60e51b8152600401610492906114ab565b60006001600160a01b0384163b15610eeb57604051630a85bd0160e11b81526001600160a01b0385169063150b7a0290610e39903390899088908890600401611551565b6020604051808303816000875af1925050508015610e74575060408051601f3d908101601f19168201909252610e719181019061158e565b60015b610ed1573d808015610ea2576040519150601f19603f3d011682016040523d82523d6000602084013e610ea7565b606091505b508051600003610ec95760405162461bcd60e51b8152600401610492906114ab565b805181602001fd5b6001600160e01b031916630a85bd0160e11b149050610a02565b506001949350505050565b6001600160a01b038216610f4c5760405162461bcd60e51b815260206004820181905260248201527f4552433732313a206d696e7420746f20746865207a65726f20616464726573736044820152606401610492565b6000818152600260205260409020546001600160a01b031615610fb15760405162461bcd60e51b815260206004820152601c60248201527f4552433732313a20746f6b656e20616c7265616479206d696e746564000000006044820152606401610492565b6001600160a01b0382166000908152600360205260408120805460019290610fda908490611493565b909155505060008181526002602052604080822080546001600160a01b0319166001600160a01b03861690811790915590518392907fddf252ad1be2c89b69c2b068fc378daa952ba7f163c4a11628f55a4df523b3ef908290a45050565b6001600160e01b03198116811461091a57600080fd5b60006020828403121561106057600080fd5b813561106b81611038565b9392505050565b60005b8381101561108d578181015183820152602001611075565b838111156108335750506000910152565b600081518084526110b6816020860160208601611072565b601f01601f19169290920160200192915050565b60208152600061106b602083018461109e565b6000602082840312156110ef57600080fd5b5035919050565b80356001600160a01b038116811461075057600080fd5b6000806040838503121561112057600080fd5b611129836110f6565b946020939093013593505050565b60008060006060848603121561114c57600080fd5b611155846110f6565b9250611163602085016110f6565b9150604084013590509250925092565b60006020828403121561118557600080fd5b61106b826110f6565b600080604083850312156111a157600080fd5b6111aa836110f6565b9150602083013580151581146111bf57600080fd5b809150509250929050565b634e487b7160e01b600052604160045260246000fd5b600080600080608085870312156111f657600080fd5b6111ff856110f6565b935061120d602086016110f6565b925060408501359150606085013567ffffffffffffffff8082111561123157600080fd5b818701915087601f83011261124557600080fd5b813581811115611257576112576111ca565b604051601f8201601f19908116603f0116810190838211818310171561127f5761127f6111ca565b816040528281528a602084870101111561129857600080fd5b82602086016020830137600060208483010152809550505050505092959194509250565b600080604083850312156112cf57600080fd5b6112d8836110f6565b91506112e6602084016110f6565b90509250929050565b600181811c9082168061130357607f821691505b60208210810361132357634e487b7160e01b600052602260045260246000fd5b50919050565b6020808252602e908201527f4552433732313a2063616c6c6572206973206e6f7420746f6b656e206f776e6560408201526d1c881b9bdc88185c1c1c9bdd995960921b606082015260800190565b634e487b7160e01b600052601160045260246000fd5b60006001820161139f5761139f611377565b5060010190565b600081516113b8818560208601611072565b9290920192915050565b600080845481600182811c9150808316806113de57607f831692505b602080841082036113fd57634e487b7160e01b86526022600452602486fd5b81801561141157600181146114225761144f565b60ff1986168952848901965061144f565b60008b81526020902060005b868110156114475781548b82015290850190830161142e565b505084890196505b50505050505061147361146282866113a6565b64173539b7b760d91b815260050190565b95945050505050565b60008282101561148e5761148e611377565b500390565b600082198211156114a6576114a6611377565b500190565b60208082526032908201527f4552433732313a207472616e7366657220746f206e6f6e20455243373231526560408201527131b2b4bb32b91034b6b83632b6b2b73a32b960711b606082015260800190565b634e487b7160e01b600052601260045260246000fd5b600082611522576115226114fd565b500490565b600082611536576115366114fd565b500690565b634e487b7160e01b600052603260045260246000fd5b6001600160a01b03858116825284166020820152604081018390526080606082018190526000906115849083018461109e565b9695505050505050565b6000602082840312156115a057600080fd5b815161106b8161103856fea264697066735822122023ae51c1317a53ce811aa1ac4af84015b4d0f14f9037be2969fe585fa310dd1364736f6c634300080e0033",
  "linkReferences": {},
  "deployedLinkReferences": {}
}