{
  "_format": "hh-sol-artifact-1",
  "contractName": "Marketplace",
  "sourceName": "contracts/Market/Marketplace.sol",
  "abi": [
    {
      "inputs": [
        {
          "internalType": "address",
          "name": "_storage",
          "type": "address"
        },
        {
          "internalType": "address",
          "name": "_token",
          "type": "address"
        }
      ],
      "stateMutability": "nonpayable",
      "type": "constructor"
    },
    {
      "anonymous": false,
      "inputs": [
        {
          "indexed": true,
          "internalType": "address",
          "name": "seller",
          "type": "address"
        },
        {
          "indexed": true,
          "internalType": "address",
          "name": "buyer",
          "type": "address"
        },
        {
          "indexed": true,
          "internalType": "address",
          "name": "contractAddress",
          "type": "address"
        },
        {
          "indexed": false,
          "internalType": "uint256",
          "name": "tokenId",
          "type": "uint256"
        },
        {
          "indexed": false,
          "internalType": "uint256",
          "name": "price",
          "type": "uint256"
        }
      ],
      "name": "ListedNFTSold",
      "type": "event"
    },
    {
      "inputs": [
        {
          "internalType": "address",
          "name": "signer",
          "type": "address"
        },
        {
          "internalType": "address",
          "name": "contractAddress",
          "type": "address"
        },
        {
          "internalType": "uint256",
          "name": "price",
          "type": "uint256"
        },
        {
          "internalType": "uint256",
          "name": "tokenId",
          "type": "uint256"
        },
        {
          "internalType": "uint256",
          "name": "expiresAt",
          "type": "uint256"
        },
        {
          "internalType": "uint256",
          "name": "chainId",
          "type": "uint256"
        },
        {
          "internalType": "bytes",
          "name": "signature",
          "type": "bytes"
        }
      ],
      "name": "buyFromSellOffer",
      "outputs": [],
      "stateMutability": "nonpayable",
      "type": "function"
    },
    {
      "inputs": [
        {
          "internalType": "address",
          "name": "signer",
          "type": "address"
        },
        {
          "internalType": "address",
          "name": "contractAddress",
          "type": "address"
        },
        {
          "internalType": "uint256",
          "name": "price",
          "type": "uint256"
        },
        {
          "internalType": "uint256",
          "name": "tokenId",
          "type": "uint256"
        },
        {
          "internalType": "uint256",
          "name": "expiresAt",
          "type": "uint256"
        },
        {
          "internalType": "uint256",
          "name": "chainId",
          "type": "uint256"
        },
        {
          "internalType": "bool",
          "name": "isSellOffer",
          "type": "bool"
        },
        {
          "internalType": "bytes",
          "name": "signature",
          "type": "bytes"
        }
      ],
      "name": "cancelSignedOffer",
      "outputs": [],
      "stateMutability": "nonpayable",
      "type": "function"
    },
    {
      "inputs": [
        {
          "internalType": "address",
          "name": "buyer",
          "type": "address"
        },
        {
          "internalType": "address",
          "name": "contractAddress",
          "type": "address"
        },
        {
          "internalType": "uint256",
          "name": "price",
          "type": "uint256"
        },
        {
          "internalType": "uint256",
          "name": "tokenId",
          "type": "uint256"
        },
        {
          "internalType": "uint256",
          "name": "expiresAt",
          "type": "uint256"
        },
        {
          "internalType": "uint256",
          "name": "chainId",
          "type": "uint256"
        },
        {
          "internalType": "bytes",
          "name": "signature",
          "type": "bytes"
        }
      ],
      "name": "sellFromBuyOffer",
      "outputs": [],
      "stateMutability": "nonpayable",
      "type": "function"
    },
    {
      "inputs": [],
      "name": "token",
      "outputs": [
        {
          "internalType": "contract IERC20",
          "name": "",
          "type": "address"
        }
      ],
      "stateMutability": "view",
      "type": "function"
    }
  ],
  "bytecode": "0x60a060405234801561001057600080fd5b506040516114ad3803806114ad83398101604081905261002f91610073565b6001600160a01b03918216608052600080546001600160a01b031916919092161790556100a6565b80516001600160a01b038116811461006e57600080fd5b919050565b6000806040838503121561008657600080fd5b61008f83610057565b915061009d60208401610057565b90509250929050565b6080516113e56100c8600039600081816108c20152610be101526113e56000f3fe608060405234801561001057600080fd5b506004361061004c5760003560e01c8063058698a7146100515780634fc5d8d81461006657806395425adc14610079578063fc0c546a1461008c575b600080fd5b61006461005f36600461114b565b6100bb565b005b6100646100743660046111f0565b610153565b6100646100873660046111f0565b6103cb565b60005461009f906001600160a01b031681565b6040516001600160a01b03909116815260200160405180910390f35b336001600160a01b038a16146101185760405162461bcd60e51b815260206004820152601a60248201527f43616e206f6e6c792063616e63656c206f776e206f666665727300000000000060448201526064015b60405180910390fd5b600061012b8a8a8a8a8a8a8a8a8a61062f565b6000908152600160208190526040909120805460ff1916909117905550505050505050505050565b4284116101925760405162461bcd60e51b815260206004820152600d60248201526c13d999995c88195e1c1a5c9959609a1b604482015260640161010f565b60006101a689898989898960008a8a61062f565b6040516331a9108f60e11b81526004810188905290915088906000906001600160a01b03831690636352211e90602401602060405180830381865afa1580156101f3573d6000803e3d6000fd5b505050506040513d601f19601f82011682018060405250810190610217919061127f565b9050336001600160a01b038216146102675760405162461bcd60e51b81526020600482015260136024820152722737ba103a3432903a37b5b2b71037bbb732b960691b604482015260640161010f565b60008381526001602052604090205460ff16156102bc5760405162461bcd60e51b815260206004820152601360248201527213d999995c881dd85cc818d85b98d95b1b1959606a1b604482015260640161010f565b6000838152600160208190526040808320805460ff191690921790915551635c46a7ef60e11b81526001600160a01b0383811660048301528d81166024830152604482018b90526080606483015260848201929092529083169063b88d4fde9060a401600060405180830381600087803b15801561033957600080fd5b505af115801561034d573d6000803e3d6000fd5b5050505061035e8b828c8b8d61078a565b896001600160a01b03168b6001600160a01b0316826001600160a01b03167f1290e46983831321879b11cac756bc8aa08901170f37c279f1537b1c65d51fba8b8d6040516103b6929190918252602082015260400190565b60405180910390a45050505050505050505050565b42841161040a5760405162461bcd60e51b815260206004820152600d60248201526c13d999995c88195e1c1a5c9959609a1b604482015260640161010f565b600061041e89898989898960018a8a61062f565b6040516331a9108f60e11b81526004810188905290915088906000906001600160a01b03831690636352211e90602401602060405180830381865afa15801561046b573d6000803e3d6000fd5b505050506040513d601f19601f8201168201806040525081019061048f919061127f565b9050806001600160a01b03168b6001600160a01b0316146104f25760405162461bcd60e51b815260206004820152601f60248201527f4f66666572206e6f74207369676e656420627920746f6b656e206f776e657200604482015260640161010f565b60008381526001602052604090205460ff16156105475760405162461bcd60e51b815260206004820152601360248201527213d999995c881dd85cc818d85b98d95b1b1959606a1b604482015260640161010f565b6000838152600160208190526040808320805460ff191690921790915551635c46a7ef60e11b81526001600160a01b038381166004830152336024830152604482018b90526080606483015260848201929092529083169063b88d4fde9060a401600060405180830381600087803b1580156105c257600080fd5b505af11580156105d6573d6000803e3d6000fd5b505050506105e7338c8c8b8d61078a565b60408051898152602081018b90526001600160a01b03808d16923392918516917f1290e46983831321879b11cac756bc8aa08901170f37c279f1537b1c65d51fba91016103b6565b604080516001600160a01b03808c1660208301528a1691810191909152606081018890526080810187905260a0810186905260c0810185905283151560e082015260009081906106e69061010001604051602081830303815290604052805190602001206040517f19457468657265756d205369676e6564204d6573736167653a0a3332000000006020820152603c8101829052600090605c01604051602081830303815290604052805190602001209050919050565b90508a6001600160a01b03166107328286868080601f016020809104026020016040519081016040528093929190818152602001838380828437600092019190915250610dd792505050565b6001600160a01b03161461077c5760405162461bcd60e51b8152602060048201526011602482015270496e76616c6964207369676e617475726560781b604482015260640161010f565b9a9950505050505050505050565b6000836001600160a01b03166343bc16126040518163ffffffff1660e01b8152600401602060405180830381865afa1580156107ca573d6000803e3d6000fd5b505050506040513d601f19601f820116820180604052508101906107ee919061127f565b9050806001600160a01b0316856001600160a01b0316036109b557600061271061081a611f40856112b9565b61082491906112d8565b6000546040516323b872dd60e01b81529192506001600160a01b0316906323b872dd90610859908a90869086906004016112fa565b6020604051808303816000875af1158015610878573d6000803e3d6000fd5b505050506040513d601f19601f8201168201806040525081019061089c919061131e565b5060008054906101000a90046001600160a01b03166001600160a01b03166323b872dd887f00000000000000000000000000000000000000000000000000000000000000006001600160a01b0316634783c35b6040518163ffffffff1660e01b8152600401602060405180830381865afa15801561091e573d6000803e3d6000fd5b505050506040513d601f19601f82011682018060405250810190610942919061127f565b61094c858861133b565b6040518463ffffffff1660e01b815260040161096a939291906112fa565b6020604051808303816000875af1158015610989573d6000803e3d6000fd5b505050506040513d601f19601f820116820180604052508101906109ad919061131e565b505050610dd0565b60405163152a902d60e11b8152600481018490526024810183905260009081906001600160a01b03871690632a55205a9060440160408051808303816000875af1158015610a07573d6000803e3d6000fd5b505050506040513d601f19601f82011682018060405250810190610a2b9190611352565b90925090508015610d4d57856001600160a01b0316826001600160a01b031603610cd457856001600160a01b031663cf933f866040518163ffffffff1660e01b8152600401602060405180830381865afa925050508015610aa9575060408051601f3d908101601f19168201909252610aa691810190611380565b60015b610b2a576000546040516323b872dd60e01b81526001600160a01b03909116906323b872dd90610ae1908b90869086906004016112fa565b6020604051808303816000875af1158015610b00573d6000803e3d6000fd5b505050506040513d601f19601f82011682018060405250810190610b24919061131e565b50610d4d565b6000612710610b3983856112b9565b610b4391906112d8565b6000546040516323b872dd60e01b81529192506001600160a01b0316906323b872dd90610b78908d90899086906004016112fa565b6020604051808303816000875af1158015610b97573d6000803e3d6000fd5b505050506040513d601f19601f82011682018060405250810190610bbb919061131e565b5060008054906101000a90046001600160a01b03166001600160a01b03166323b872dd8b7f00000000000000000000000000000000000000000000000000000000000000006001600160a01b0316634783c35b6040518163ffffffff1660e01b8152600401602060405180830381865afa158015610c3d573d6000803e3d6000fd5b505050506040513d601f19601f82011682018060405250810190610c61919061127f565b610c6b858861133b565b6040518463ffffffff1660e01b8152600401610c89939291906112fa565b6020604051808303816000875af1158015610ca8573d6000803e3d6000fd5b505050506040513d601f19601f82011682018060405250810190610ccc919061131e565b505050610d4d565b6000546040516323b872dd60e01b81526001600160a01b03909116906323b872dd90610d08908b90869086906004016112fa565b6020604051808303816000875af1158015610d27573d6000803e3d6000fd5b505050506040513d601f19601f82011682018060405250810190610d4b919061131e565b505b6000546001600160a01b03166323b872dd8989610d6a858961133b565b6040518463ffffffff1660e01b8152600401610d88939291906112fa565b6020604051808303816000875af1158015610da7573d6000803e3d6000fd5b505050506040513d601f19601f82011682018060405250810190610dcb919061131e565b505050505b5050505050565b6000806000610de68585610dfb565b91509150610df381610e40565b509392505050565b6000808251604103610e315760208301516040840151606085015160001a610e2587828585610ff9565b94509450505050610e39565b506000905060025b9250929050565b6000816004811115610e5457610e54611399565b03610e5c5750565b6001816004811115610e7057610e70611399565b03610ebd5760405162461bcd60e51b815260206004820152601860248201527f45434453413a20696e76616c6964207369676e61747572650000000000000000604482015260640161010f565b6002816004811115610ed157610ed1611399565b03610f1e5760405162461bcd60e51b815260206004820152601f60248201527f45434453413a20696e76616c6964207369676e6174757265206c656e67746800604482015260640161010f565b6003816004811115610f3257610f32611399565b03610f8a5760405162461bcd60e51b815260206004820152602260248201527f45434453413a20696e76616c6964207369676e6174757265202773272076616c604482015261756560f01b606482015260840161010f565b6004816004811115610f9e57610f9e611399565b03610ff65760405162461bcd60e51b815260206004820152602260248201527f45434453413a20696e76616c6964207369676e6174757265202776272076616c604482015261756560f01b606482015260840161010f565b50565b6000807f7fffffffffffffffffffffffffffffff5d576e7357a4501ddfe92f46681b20a083111561103057506000905060036110dd565b8460ff16601b1415801561104857508460ff16601c14155b1561105957506000905060046110dd565b6040805160008082526020820180845289905260ff881692820192909252606081018690526080810185905260019060a0016020604051602081039080840390855afa1580156110ad573d6000803e3d6000fd5b5050604051601f1901519150506001600160a01b0381166110d6576000600192509250506110dd565b9150600090505b94509492505050565b6001600160a01b0381168114610ff657600080fd5b8015158114610ff657600080fd5b60008083601f84011261111b57600080fd5b50813567ffffffffffffffff81111561113357600080fd5b602083019150836020828501011115610e3957600080fd5b60008060008060008060008060006101008a8c03121561116a57600080fd5b8935611175816110e6565b985060208a0135611185816110e6565b975060408a0135965060608a0135955060808a0135945060a08a0135935060c08a01356111b1816110fb565b925060e08a013567ffffffffffffffff8111156111cd57600080fd5b6111d98c828d01611109565b915080935050809150509295985092959850929598565b60008060008060008060008060e0898b03121561120c57600080fd5b8835611217816110e6565b97506020890135611227816110e6565b965060408901359550606089013594506080890135935060a0890135925060c089013567ffffffffffffffff81111561125f57600080fd5b61126b8b828c01611109565b999c989b5096995094979396929594505050565b60006020828403121561129157600080fd5b815161129c816110e6565b9392505050565b634e487b7160e01b600052601160045260246000fd5b60008160001904831182151516156112d3576112d36112a3565b500290565b6000826112f557634e487b7160e01b600052601260045260246000fd5b500490565b6001600160a01b039384168152919092166020820152604081019190915260600190565b60006020828403121561133057600080fd5b815161129c816110fb565b60008282101561134d5761134d6112a3565b500390565b6000806040838503121561136557600080fd5b8251611370816110e6565b6020939093015192949293505050565b60006020828403121561139257600080fd5b5051919050565b634e487b7160e01b600052602160045260246000fdfea264697066735822122014c58fcd34a74a0531565a81bcfe7d114f12fc932255da39c5509a1a4e5f8bb264736f6c634300080e0033",
  "linkReferences": {},
  "deployedLinkReferences": {}
}