{
  "_format": "hh-sol-artifact-1",
  "contractName": "Marketplace",
  "sourceName": "contracts/Market/Marketplace.sol",
  "abi": [
    {
      "inputs": [
        {
          "internalType": "address",
          "name": "_storage",
          "type": "address"
        },
        {
          "internalType": "address",
          "name": "_token",
          "type": "address"
        }
      ],
      "stateMutability": "nonpayable",
      "type": "constructor"
    },
    {
      "anonymous": false,
      "inputs": [
        {
          "indexed": true,
          "internalType": "address",
          "name": "seller",
          "type": "address"
        },
        {
          "indexed": true,
          "internalType": "address",
          "name": "buyer",
          "type": "address"
        },
        {
          "indexed": true,
          "internalType": "address",
          "name": "contractAddress",
          "type": "address"
        },
        {
          "indexed": false,
          "internalType": "uint256",
          "name": "tokenId",
          "type": "uint256"
        },
        {
          "indexed": false,
          "internalType": "uint256",
          "name": "price",
          "type": "uint256"
        }
      ],
      "name": "ListedNFTSold",
      "type": "event"
    },
    {
      "inputs": [],
      "name": "NATIVE_CURRENCY",
      "outputs": [
        {
          "internalType": "address",
          "name": "",
          "type": "address"
        }
      ],
      "stateMutability": "view",
      "type": "function"
    },
    {
      "inputs": [
        {
          "internalType": "address",
          "name": "signer",
          "type": "address"
        },
        {
          "internalType": "address",
          "name": "contractAddress",
          "type": "address"
        },
        {
          "internalType": "uint256",
          "name": "price",
          "type": "uint256"
        },
        {
          "internalType": "uint256",
          "name": "tokenId",
          "type": "uint256"
        },
        {
          "internalType": "uint256",
          "name": "expiresAt",
          "type": "uint256"
        },
        {
          "internalType": "uint256",
          "name": "chainId",
          "type": "uint256"
        },
        {
          "internalType": "address",
          "name": "currency",
          "type": "address"
        },
        {
          "internalType": "bytes",
          "name": "signature",
          "type": "bytes"
        }
      ],
      "name": "buyFromSellOffer",
      "outputs": [],
      "stateMutability": "payable",
      "type": "function"
    },
    {
      "inputs": [
        {
          "internalType": "address",
          "name": "signer",
          "type": "address"
        },
        {
          "internalType": "address",
          "name": "contractAddress",
          "type": "address"
        },
        {
          "internalType": "uint256",
          "name": "price",
          "type": "uint256"
        },
        {
          "internalType": "uint256",
          "name": "tokenId",
          "type": "uint256"
        },
        {
          "internalType": "uint256",
          "name": "expiresAt",
          "type": "uint256"
        },
        {
          "internalType": "uint256",
          "name": "chainId",
          "type": "uint256"
        },
        {
          "internalType": "address",
          "name": "currency",
          "type": "address"
        },
        {
          "internalType": "bool",
          "name": "isSellOffer",
          "type": "bool"
        },
        {
          "internalType": "bytes",
          "name": "signature",
          "type": "bytes"
        }
      ],
      "name": "cancelSignedOffer",
      "outputs": [],
      "stateMutability": "nonpayable",
      "type": "function"
    },
    {
      "inputs": [
        {
          "internalType": "address",
          "name": "buyer",
          "type": "address"
        },
        {
          "internalType": "address",
          "name": "contractAddress",
          "type": "address"
        },
        {
          "internalType": "uint256",
          "name": "price",
          "type": "uint256"
        },
        {
          "internalType": "uint256",
          "name": "tokenId",
          "type": "uint256"
        },
        {
          "internalType": "uint256",
          "name": "expiresAt",
          "type": "uint256"
        },
        {
          "internalType": "uint256",
          "name": "chainId",
          "type": "uint256"
        },
        {
          "internalType": "address",
          "name": "currency",
          "type": "address"
        },
        {
          "internalType": "bytes",
          "name": "signature",
          "type": "bytes"
        }
      ],
      "name": "sellFromBuyOffer",
      "outputs": [],
      "stateMutability": "nonpayable",
      "type": "function"
    },
    {
      "inputs": [],
      "name": "token",
      "outputs": [
        {
          "internalType": "contract IERC20",
          "name": "",
          "type": "address"
        }
      ],
      "stateMutability": "view",
      "type": "function"
    }
  ],
  "bytecode": "0x60a060405234801561001057600080fd5b506040516200175e3803806200175e83398101604081905261003191610075565b6001600160a01b03918216608052600080546001600160a01b031916919092161790556100a8565b80516001600160a01b038116811461007057600080fd5b919050565b6000806040838503121561008857600080fd5b61009183610059565b915061009f60208401610059565b90509250929050565b608051611685620000d9600039600081816109fd01528181610c3201528181610f2f015261100f01526116856000f3fe60806040526004361061004a5760003560e01c80630ae661c31461004f57806334d986401461007157806349f4265014610091578063c7cbd5fa146100d5578063fc0c546a146100e8575b600080fd5b34801561005b57600080fd5b5061006f61006a3660046113e5565b610108565b005b34801561007d57600080fd5b5061006f61008c36600461149e565b6101a2565b34801561009d57600080fd5b506100b973eeeeeeeeeeeeeeeeeeeeeeeeeeeeeeeeeeeeeeee81565b6040516001600160a01b03909116815260200160405180910390f35b61006f6100e336600461149e565b610474565b3480156100f457600080fd5b506000546100b9906001600160a01b031681565b336001600160a01b038b16146101655760405162461bcd60e51b815260206004820152601a60248201527f43616e206f6e6c792063616e63656c206f776e206f666665727300000000000060448201526064015b60405180910390fd5b60006101798b8b8b8b8b8b8b8b8b8b6107e2565b6000908152600160208190526040909120805460ff191690911790555050505050505050505050565b4285116101e15760405162461bcd60e51b815260206004820152600d60248201526c13d999995c88195e1c1a5c9959609a1b604482015260640161015c565b6001600160a01b038316156102385760405162461bcd60e51b815260206004820152601c60248201527f45544820627579206f6666657273206e6f7420737570706f7274656400000000604482015260640161015c565b600061024d8a8a8a8a8a8a8a60008b8b6107e2565b6040516331a9108f60e11b81526004810189905290915089906000906001600160a01b03831690636352211e90602401602060405180830381865afa15801561029a573d6000803e3d6000fd5b505050506040513d601f19601f820116820180604052508101906102be9190611543565b9050336001600160a01b0382161461030e5760405162461bcd60e51b81526020600482015260136024820152722737ba103a3432903a37b5b2b71037bbb732b960691b604482015260640161015c565b60008381526001602052604090205460ff16156103635760405162461bcd60e51b815260206004820152601360248201527213d999995c881dd85cc818d85b98d95b1b1959606a1b604482015260640161015c565b6000838152600160208190526040808320805460ff191690921790915551635c46a7ef60e11b81526001600160a01b0383811660048301528e81166024830152604482018c90526080606483015260848201929092529083169063b88d4fde9060a401600060405180830381600087803b1580156103e057600080fd5b505af11580156103f4573d6000803e3d6000fd5b505050506104068c828d8c8e8b610948565b8a6001600160a01b03168c6001600160a01b0316826001600160a01b03167f1290e46983831321879b11cac756bc8aa08901170f37c279f1537b1c65d51fba8c8e60405161045e929190918252602082015260400190565b60405180910390a4505050505050505050505050565b4285116104b35760405162461bcd60e51b815260206004820152600d60248201526c13d999995c88195e1c1a5c9959609a1b604482015260640161015c565b73eeeeeeeeeeeeeeeeeeeeeeeeeeeeeeeeeeeeeeed196001600160a01b0384160161051f5786341461051a5760405162461bcd60e51b815260206004820152601060248201526f15dc9bdb99c811551208185b5bdd5b9d60821b604482015260640161015c565b6105bb565b6001600160a01b0383161561056d5760405162461bcd60e51b8152602060048201526014602482015273556e737570706f727465642063757272656e637960601b604482015260640161015c565b34156105bb5760405162461bcd60e51b815260206004820152601c60248201527f4c697374696e67206973206e6f742070726963656420696e2045544800000000604482015260640161015c565b60006105d08a8a8a8a8a8a8a60018b8b6107e2565b6040516331a9108f60e11b81526004810189905290915089906000906001600160a01b03831690636352211e90602401602060405180830381865afa15801561061d573d6000803e3d6000fd5b505050506040513d601f19601f820116820180604052508101906106419190611543565b9050806001600160a01b03168c6001600160a01b0316146106a45760405162461bcd60e51b815260206004820152601f60248201527f4f66666572206e6f74207369676e656420627920746f6b656e206f776e657200604482015260640161015c565b60008381526001602052604090205460ff16156106f95760405162461bcd60e51b815260206004820152601360248201527213d999995c881dd85cc818d85b98d95b1b1959606a1b604482015260640161015c565b6000838152600160208190526040808320805460ff191690921790915551635c46a7ef60e11b81526001600160a01b038381166004830152336024830152604482018c90526080606483015260848201929092529083169063b88d4fde9060a401600060405180830381600087803b15801561077457600080fd5b505af1158015610788573d6000803e3d6000fd5b5050505061079a338d8d8c8e8b610948565b604080518a8152602081018c90526001600160a01b03808e16923392918516917f1290e46983831321879b11cac756bc8aa08901170f37c279f1537b1c65d51fba910161045e565b604080516001600160a01b03808d166020830152808c1692820192909252606081018a90526080810189905260a0810188905260c0810187905290851660e082015283151561010082015260009081906108a39061012001604051602081830303815290604052805190602001206040517f19457468657265756d205369676e6564204d6573736167653a0a3332000000006020820152603c8101829052600090605c01604051602081830303815290604052805190602001209050919050565b90508b6001600160a01b03166108ef8286868080601f016020809104026020016040519081016040528093929190818152602001838380828437600092019190915250610c0992505050565b6001600160a01b0316146109395760405162461bcd60e51b8152602060048201526011602482015270496e76616c6964207369676e617475726560781b604482015260640161015c565b9b9a5050505050505050505050565b6000846001600160a01b03166343bc16126040518163ffffffff1660e01b8152600401602060405180830381865afa158015610988573d6000803e3d6000fd5b505050506040513d601f19601f820116820180604052508101906109ac9190611543565b9050806001600160a01b0316866001600160a01b031603610a935760006127106109d4610c2d565b6109de908661157d565b6109e8919061159c565b90506109f683898484610dd9565b610a8c83897f00000000000000000000000000000000000000000000000000000000000000006001600160a01b0316634783c35b6040518163ffffffff1660e01b8152600401602060405180830381865afa158015610a59573d6000803e3d6000fd5b505050506040513d601f19601f82011682018060405250810190610a7d9190611543565b610a8785896115be565b610dd9565b5050610c01565b60405163152a902d60e11b8152600481018590526024810184905260009081906001600160a01b03881690632a55205a9060440160408051808303816000875af1158015610ae5573d6000803e3d6000fd5b505050506040513d601f19601f82011682018060405250810190610b0991906115d5565b90925090508015610bed57866001600160a01b0316826001600160a01b031603610be157866001600160a01b031663cf933f866040518163ffffffff1660e01b8152600401602060405180830381865afa925050508015610b87575060408051601f3d908101601f19168201909252610b8491810190611603565b60015b610b9c57610b97848a8484610dd9565b610bed565b6000612710610bab838561157d565b610bb5919061159c565b9050610bc3868c8784610dd9565b610bda868c610bd0610f2a565b610a8785886115be565b5050610bed565b610bed848a8484610dd9565b610bfd848a8a610a87858a6115be565b5050505b505050505050565b6000806000610c188585611095565b91509150610c25816110da565b509392505050565b6000807f00000000000000000000000000000000000000000000000000000000000000006001600160a01b03166321f8a721604051602001610c83906d616464726573732e636f6e66696760901b8152600e0190565b604051602081830303815290604052805190602001206040518263ffffffff1660e01b8152600401610cb791815260200190565b602060405180830381865afa158015610cd4573d6000803e3d6000fd5b505050506040513d601f19601f82011682018060405250810190610cf89190611543565b90506001600160a01b038116610d1157611f4091505090565b6000816001600160a01b031663bd02d0f5604051602001610d4b90721cda185c994b9c1c9a5b585c9e505c9d1a5cdd606a1b815260130190565b604051602081830303815290604052805190602001206040518263ffffffff1660e01b8152600401610d7f91815260200190565b602060405180830381865afa158015610d9c573d6000803e3d6000fd5b505050506040513d601f19601f82011682018060405250810190610dc09190611603565b90508015610dce5780610dd2565b611f405b9250505090565b8015610f245773eeeeeeeeeeeeeeeeeeeeeeeeeeeeeeeeeeeeeeed196001600160a01b03851601610ea3576000826001600160a01b03168260405160006040518083038185875af1925050503d8060008114610e51576040519150601f19603f3d011682016040523d82523d6000602084013e610e56565b606091505b5050905080610e9d5760405162461bcd60e51b8152602060048201526013602482015272115512081d1c985b9cd9995c8819985a5b1959606a1b604482015260640161015c565b50610f24565b6000546040516323b872dd60e01b81526001600160a01b038581166004830152848116602483015260448201849052909116906323b872dd906064016020604051808303816000875af1158015610efe573d6000803e3d6000fd5b505050506040513d601f19601f82011682018060405250810190610f22919061161c565b505b50505050565b6000807f00000000000000000000000000000000000000000000000000000000000000006001600160a01b03166321f8a721604051602001610f81906e616464726573732e726f79616c747960881b8152600f0190565b604051602081830303815290604052805190602001206040518263ffffffff1660e01b8152600401610fb591815260200190565b602060405180830381865afa158015610fd2573d6000803e3d6000fd5b505050506040513d601f19601f82011682018060405250810190610ff69190611543565b90506001600160a01b0381161561100d578061108f565b7f00000000000000000000000000000000000000000000000000000000000000006001600160a01b0316634783c35b6040518163ffffffff1660e01b8152600401602060405180830381865afa15801561106b573d6000803e3d6000fd5b505050506040513d601f19601f8201168201806040525081019061108f9190611543565b91505090565b60008082516041036110cb5760208301516040840151606085015160001a6110bf87828585611293565b945094505050506110d3565b506000905060025b9250929050565b60008160048111156110ee576110ee611639565b036110f65750565b600181600481111561110a5761110a611639565b036111575760405162461bcd60e51b815260206004820152601860248201527f45434453413a20696e76616c6964207369676e61747572650000000000000000604482015260640161015c565b600281600481111561116b5761116b611639565b036111b85760405162461bcd60e51b815260206004820152601f60248201527f45434453413a20696e76616c6964207369676e6174757265206c656e67746800604482015260640161015c565b60038160048111156111cc576111cc611639565b036112245760405162461bcd60e51b815260206004820152602260248201527f45434453413a20696e76616c6964207369676e6174757265202773272076616c604482015261756560f01b606482015260840161015c565b600481600481111561123857611238611639565b036112905760405162461bcd60e51b815260206004820152602260248201527f45434453413a20696e76616c6964207369676e6174757265202776272076616c604482015261756560f01b606482015260840161015c565b50565b6000807f7fffffffffffffffffffffffffffffff5d576e7357a4501ddfe92f46681b20a08311156112ca5750600090506003611377565b8460ff16601b141580156112e257508460ff16601c14155b156112f35750600090506004611377565b6040805160008082526020820180845289905260ff881692820192909252606081018690526080810185905260019060a0016020604051602081039080840390855afa158015611347573d6000803e3d6000fd5b5050604051601f1901519150506001600160a01b03811661137057600060019250925050611377565b9150600090505b94509492505050565b6001600160a01b038116811461129057600080fd5b801515811461129057600080fd5b60008083601f8401126113b557600080fd5b50813567ffffffffffffffff8111156113cd57600080fd5b6020830191508360208285010111156110d357600080fd5b6000806000806000806000806000806101208b8d03121561140557600080fd5b8a3561141081611380565b995060208b013561142081611380565b985060408b0135975060608b0135965060808b0135955060a08b0135945060c08b013561144c81611380565b935060e08b013561145c81611395565b92506101008b013567ffffffffffffffff81111561147957600080fd5b6114858d828e016113a3565b915080935050809150509295989b9194979a5092959850565b60008060008060008060008060006101008a8c0312156114bd57600080fd5b89356114c881611380565b985060208a01356114d881611380565b975060408a0135965060608a0135955060808a0135945060a08a0135935060c08a013561150481611380565b925060e08a013567ffffffffffffffff81111561152057600080fd5b61152c8c828d016113a3565b915080935050809150509295985092959850929598565b60006020828403121561155557600080fd5b815161156081611380565b9392505050565b634e487b7160e01b600052601160045260246000fd5b600081600019048311821515161561159757611597611567565b500290565b6000826115b957634e487b7160e01b600052601260045260246000fd5b500490565b6000828210156115d0576115d0611567565b500390565b600080604083850312156115e857600080fd5b82516115f381611380565b6020939093015192949293505050565b60006020828403121561161557600080fd5b5051919050565b60006020828403121561162e57600080fd5b815161156081611395565b634e487b7160e01b600052602160045260246000fdfea264697066735822122082e94c6e642d98150e43fbfc8be1a5b35bc5e5c8d4340286c7c4cacd4a865be264736f6c634300080e0033",
  "linkReferences": {},
  "deployedLinkReferences": {}
}