{
  "_format": "hh-sol-artifact-1",
  "contractName": "Marketplace",
  "sourceName": "contracts/Market/Marketplace.sol",
  "abi": [
    {
      "inputs": [
        {
          "internalType": "address",
          "name": "_storage",
          "type": "address"
        },
        {
          "internalType": "address",
          "name": "_token",
          "type": "address"
        }
      ],
      "stateMutability": "nonpayable",
      "type": "constructor"
    },
    {
      "anonymous": false,
      "inputs": [
        {
          "indexed": true,
          "internalType": "address",
          "name": "seller",
          "type": "address"
        },
        {
          "indexed": true,
          "internalType": "address",
          "name": "buyer",
          "type": "address"
        },
        {
          "indexed": true,
          "internalType": "address",
          "name": "contractAddress",
          "type": "address"
        },
        {
          "indexed": false,
          "internalType": "uint256",
          "name": "tokenId",
          "type": "uint256"
        },
        {
          "indexed": false,
          "internalType": "uint256",
          "name": "price",
          "type": "uint256"
        }
      ],
      "name": "ListedNFTSold",
      "type": "event"
    },
    {
      "inputs": [],
      "name": "NATIVE_CURRENCY",
      "outputs": [
        {
          "internalType": "address",
          "name": "",
          "type": "address"
        }
      ],
      "stateMutability": "view",
      "type": "function"
    },
    {
      "inputs": [
        {
          "internalType": "address",
          "name": "signer",
          "type": "address"
        },
        {
          "internalType": "address",
          "name": "contractAddress",
          "type": "address"
        },
        {
          "internalType": "uint256",
          "name": "price",
          "type": "uint256"
        },
        {
          "internalType": "uint256",
          "name": "tokenId",
          "type": "uint256"
        },
        {
          "internalType": "uint256",
          "name": "expiresAt",
          "type": "uint256"
        },
        {
          "internalType": "uint256",
          "name": "chainId",
          "type": "uint256"
        },
        {
          "internalType": "address",
          "name": "currency",
          "type": "address"
        },
        {
          "internalType": "bytes",
          "name": "signature",
          "type": "bytes"
        }
      ],
      "name": "buyFromSellOffer",
      "outputs": [],
      "stateMutability": "payable",
      "type": "function"
    },
    {
      "inputs": [
        {
          "internalType": "address",
          "name": "signer",
          "type": "address"
        },
        {
          "internalType": "address",
          "name": "contractAddress",
          "type": "address"
        },
        {
          "internalType": "uint256",
          "name": "price",
          "type": "uint256"
        },
        {
          "internalType": "uint256",
          "name": "tokenId",
          "type": "uint256"
        },
        {
          "internalType": "uint256",
          "name": "expiresAt",
          "type": "uint256"
        },
        {
          "internalType": "uint256",
          "name": "chainId",
          "type": "uint256"
        },
        {
          "internalType": "address",
          "name": "currency",
          "type": "address"
        },
        {
          "internalType": "bool",
          "name": "isSellOffer",
          "type": "bool"
        },
        {
          "internalType": "bytes",
          "name": "signature",
          "type": "bytes"
        }
      ],
      "name": "cancelSignedOffer",
      "outputs": [],
      "stateMutability": "nonpayable",
      "type": "function"
    },
    {
      "inputs": [
        {
          "internalType": "address",
          "name": "buyer",
          "type": "address"
        },
        {
          "internalType": "address",
          "name": "contractAddress",
          "type": "address"
        },
        {
          "internalType": "uint256",
          "name": "price",
          "type": "uint256"
        },
        {
          "internalType": "uint256",
          "name": "tokenId",
          "type": "uint256"
        },
        {
          "internalType": "uint256",
          "name": "expiresAt",
          "type": "uint256"
        },
        {
          "internalType": "uint256",
          "name": "chainId",
          "type": "uint256"
        },
        {
          "internalType": "address",
          "name": "currency",
          "type": "address"
        },
        {
          "internalType": "bytes",
          "name": "signature",
          "type": "bytes"
        }
      ],
      "name": "sellFromBuyOffer",
      "outputs": [],
      "stateMutability": "nonpayable",
      "type": "function"
    },
    {
      "inputs": [],
      "name": "token",
      "outputs": [
        {
          "internalType": "contract IERC20",
          "name": "",
          "type": "address"
        }
      ],
      "stateMutability": "view",
      "type": "function"
    }
  ],
  "bytecode": "0x60a060405234801561001057600080fd5b50604051620018223803806200182283398101604081905261003191610075565b6001600160a01b03918216608052600080546001600160a01b031916919092161790556100a8565b80516001600160a01b038116811461007057600080fd5b919050565b6000806040838503121561008857600080fd5b61009183610059565b915061009f60208401610059565b90509250929050565b608051611749620000d960003960008181610a5a01528181610c8f01528181610fce01526110ae01526117496000f3fe60806040526004361061004a5760003560e01c80630ae661c31461004f57806334d986401461007157806349f4265014610091578063c7cbd5fa146100d5578063fc0c546a146100e8575b600080fd5b34801561005b57600080fd5b5061006f61006a366004611484565b610108565b005b34801561007d57600080fd5b5061006f61008c36600461153d565b6101c1565b34801561009d57600080fd5b506100b973eeeeeeeeeeeeeeeeeeeeeeeeeeeeeeeeeeeeeeee81565b6040516001600160a01b03909116815260200160405180910390f35b61006f6100e336600461153d565b6104b2565b3480156100f457600080fd5b506000546100b9906001600160a01b031681565b336001600160a01b038b16146101655760405162461bcd60e51b815260206004820152601a60248201527f43616e206f6e6c792063616e63656c206f776e206f666665727300000000000060448201526064015b60405180910390fd5b4685146101845760405162461bcd60e51b815260040161015c906115e2565b60006101988b8b8b8b8b8b8b8b8b8b61083f565b6000908152600160208190526040909120805460ff191690911790555050505050505050505050565b4285116102005760405162461bcd60e51b815260206004820152600d60248201526c13d999995c88195e1c1a5c9959609a1b604482015260640161015c565b6001600160a01b038316156102575760405162461bcd60e51b815260206004820152601c60248201527f45544820627579206f6666657273206e6f7420737570706f7274656400000000604482015260640161015c565b4684146102765760405162461bcd60e51b815260040161015c906115e2565b600061028b8a8a8a8a8a8a8a60008b8b61083f565b6040516331a9108f60e11b81526004810189905290915089906000906001600160a01b03831690636352211e90602401602060405180830381865afa1580156102d8573d6000803e3d6000fd5b505050506040513d601f19601f820116820180604052508101906102fc9190611607565b9050336001600160a01b0382161461034c5760405162461bcd60e51b81526020600482015260136024820152722737ba103a3432903a37b5b2b71037bbb732b960691b604482015260640161015c565b60008381526001602052604090205460ff16156103a15760405162461bcd60e51b815260206004820152601360248201527213d999995c881dd85cc818d85b98d95b1b1959606a1b604482015260640161015c565b6000838152600160208190526040808320805460ff191690921790915551635c46a7ef60e11b81526001600160a01b0383811660048301528e81166024830152604482018c90526080606483015260848201929092529083169063b88d4fde9060a401600060405180830381600087803b15801561041e57600080fd5b505af1158015610432573d6000803e3d6000fd5b505050506104448c828d8c8e8b6109a5565b8a6001600160a01b03168c6001600160a01b0316826001600160a01b03167f1290e46983831321879b11cac756bc8aa08901170f37c279f1537b1c65d51fba8c8e60405161049c929190918252602082015260400190565b60405180910390a4505050505050505050505050565b4285116104f15760405162461bcd60e51b815260206004820152600d60248201526c13d999995c88195e1c1a5c9959609a1b604482015260640161015c565b73eeeeeeeeeeeeeeeeeeeeeeeeeeeeeeeeeeeeeeed196001600160a01b0384160161055d578634146105585760405162461bcd60e51b815260206004820152601060248201526f15dc9bdb99c811551208185b5bdd5b9d60821b604482015260640161015c565b6105f9565b6001600160a01b038316156105ab5760405162461bcd60e51b8152602060048201526014602482015273556e737570706f727465642063757272656e637960601b604482015260640161015c565b34156105f95760405162461bcd60e51b815260206004820152601c60248201527f4c697374696e67206973206e6f742070726963656420696e2045544800000000604482015260640161015c565b4684146106185760405162461bcd60e51b815260040161015c906115e2565b600061062d8a8a8a8a8a8a8a60018b8b61083f565b6040516331a9108f60e11b81526004810189905290915089906000906001600160a01b03831690636352211e90602401602060405180830381865afa15801561067a573d6000803e3d6000fd5b505050506040513d601f19601f8201168201806040525081019061069e9190611607565b9050806001600160a01b03168c6001600160a01b0316146107015760405162461bcd60e51b815260206004820152601f60248201527f4f66666572206e6f74207369676e656420627920746f6b656e206f776e657200604482015260640161015c565b60008381526001602052604090205460ff16156107565760405162461bcd60e51b815260206004820152601360248201527213d999995c881dd85cc818d85b98d95b1b1959606a1b604482015260640161015c565b6000838152600160208190526040808320805460ff191690921790915551635c46a7ef60e11b81526001600160a01b038381166004830152336024830152604482018c90526080606483015260848201929092529083169063b88d4fde9060a401600060405180830381600087803b1580156107d157600080fd5b505af11580156107e5573d6000803e3d6000fd5b505050506107f7338d8d8c8e8b6109a5565b604080518a8152602081018c90526001600160a01b03808e16923392918516917f1290e46983831321879b11cac756bc8aa08901170f37c279f1537b1c65d51fba910161049c565b604080516001600160a01b03808d166020830152808c1692820192909252606081018a90526080810189905260a0810188905260c0810187905290851660e082015283151561010082015260009081906109009061012001604051602081830303815290604052805190602001206040517f19457468657265756d205369676e6564204d6573736167653a0a3332000000006020820152603c8101829052600090605c01604051602081830303815290604052805190602001209050919050565b90508b6001600160a01b031661094c8286868080601f016020809104026020016040519081016040528093929190818152602001838380828437600092019190915250610c6692505050565b6001600160a01b0316146109965760405162461bcd60e51b8152602060048201526011602482015270496e76616c6964207369676e617475726560781b604482015260640161015c565b9b9a5050505050505050505050565b6000846001600160a01b03166343bc16126040518163ffffffff1660e01b8152600401602060405180830381865afa1580156109e5573d6000803e3d6000fd5b505050506040513d601f19601f82011682018060405250810190610a099190611607565b9050806001600160a01b0316866001600160a01b031603610af0576000612710610a31610c8a565b610a3b9086611641565b610a459190611660565b9050610a5383898484610e36565b610ae983897f00000000000000000000000000000000000000000000000000000000000000006001600160a01b0316634783c35b6040518163ffffffff1660e01b8152600401602060405180830381865afa158015610ab6573d6000803e3d6000fd5b505050506040513d601f19601f82011682018060405250810190610ada9190611607565b610ae48589611682565b610e36565b5050610c5e565b60405163152a902d60e11b8152600481018590526024810184905260009081906001600160a01b03881690632a55205a9060440160408051808303816000875af1158015610b42573d6000803e3d6000fd5b505050506040513d601f19601f82011682018060405250810190610b669190611699565b90925090508015610c4a57866001600160a01b0316826001600160a01b031603610c3e57866001600160a01b031663cf933f866040518163ffffffff1660e01b8152600401602060405180830381865afa925050508015610be4575060408051601f3d908101601f19168201909252610be1918101906116c7565b60015b610bf957610bf4848a8484610e36565b610c4a565b6000612710610c088385611641565b610c129190611660565b9050610c20868c8784610e36565b610c37868c610c2d610fc9565b610ae48588611682565b5050610c4a565b610c4a848a8484610e36565b610c5a848a8a610ae4858a611682565b5050505b505050505050565b6000806000610c758585611134565b91509150610c8281611179565b509392505050565b6000807f00000000000000000000000000000000000000000000000000000000000000006001600160a01b03166321f8a721604051602001610ce0906d616464726573732e636f6e66696760901b8152600e0190565b604051602081830303815290604052805190602001206040518263ffffffff1660e01b8152600401610d1491815260200190565b602060405180830381865afa158015610d31573d6000803e3d6000fd5b505050506040513d601f19601f82011682018060405250810190610d559190611607565b90506001600160a01b038116610d6e57611f4091505090565b6000816001600160a01b031663bd02d0f5604051602001610da890721cda185c994b9c1c9a5b585c9e505c9d1a5cdd606a1b815260130190565b604051602081830303815290604052805190602001206040518263ffffffff1660e01b8152600401610ddc91815260200190565b602060405180830381865afa158015610df9573d6000803e3d6000fd5b505050506040513d601f19601f82011682018060405250810190610e1d91906116c7565b90508015610e2b5780610e2f565b611f405b9250505090565b8015610fc35773eeeeeeeeeeeeeeeeeeeeeeeeeeeeeeeeeeeeeeed196001600160a01b03851601610f00576000826001600160a01b03168260405160006040518083038185875af1925050503d8060008114610eae576040519150601f19603f3d011682016040523d82523d6000602084013e610eb3565b606091505b5050905080610efa5760405162461bcd60e51b8152602060048201526013602482015272115512081d1c985b9cd9995c8819985a5b1959606a1b604482015260640161015c565b50610fc3565b6000546040516323b872dd60e01b81526001600160a01b038581166004830152848116602483015260448201849052909116906323b872dd906064016020604051808303816000875af1158015610f5b573d6000803e3d6000fd5b505050506040513d601f19601f82011682018060405250810190610f7f91906116e0565b610fc35760405162461bcd60e51b8152602060048201526015602482015274115490cc8c081d1c985b9cd9995c8819985a5b1959605a1b604482015260640161015c565b50505050565b6000807f00000000000000000000000000000000000000000000000000000000000000006001600160a01b03166321f8a721604051602001611020906e616464726573732e726f79616c747960881b8152600f0190565b604051602081830303815290604052805190602001206040518263ffffffff1660e01b815260040161105491815260200190565b602060405180830381865afa158015611071573d6000803e3d6000fd5b505050506040513d601f19601f820116820180604052508101906110959190611607565b90506001600160a01b038116156110ac578061112e565b7f00000000000000000000000000000000000000000000000000000000000000006001600160a01b0316634783c35b6040518163ffffffff1660e01b8152600401602060405180830381865afa15801561110a573d6000803e3d6000fd5b505050506040513d601f19601f8201168201806040525081019061112e9190611607565b91505090565b600080825160410361116a5760208301516040840151606085015160001a61115e87828585611332565b94509450505050611172565b506000905060025b9250929050565b600081600481111561118d5761118d6116fd565b036111955750565b60018160048111156111a9576111a96116fd565b036111f65760405162461bcd60e51b815260206004820152601860248201527f45434453413a20696e76616c6964207369676e61747572650000000000000000604482015260640161015c565b600281600481111561120a5761120a6116fd565b036112575760405162461bcd60e51b815260206004820152601f60248201527f45434453413a20696e76616c6964207369676e6174757265206c656e67746800604482015260640161015c565b600381600481111561126b5761126b6116fd565b036112c35760405162461bcd60e51b815260206004820152602260248201527f45434453413a20696e76616c6964207369676e6174757265202773272076616c604482015261756560f01b606482015260840161015c565b60048160048111156112d7576112d76116fd565b0361132f5760405162461bcd60e51b815260206004820152602260248201527f45434453413a20696e76616c6964207369676e6174757265202776272076616c604482015261756560f01b606482015260840161015c565b50565b6000807f7fffffffffffffffffffffffffffffff5d576e7357a4501ddfe92f46681b20a08311156113695750600090506003611416565b8460ff16601b1415801561138157508460ff16601c14155b156113925750600090506004611416565b6040805160008082526020820180845289905260ff881692820192909252606081018690526080810185905260019060a0016020604051602081039080840390855afa1580156113e6573d6000803e3d6000fd5b5050604051601f1901519150506001600160a01b03811661140f57600060019250925050611416565b9150600090505b94509492505050565b6001600160a01b038116811461132f57600080fd5b801515811461132f57600080fd5b60008083601f84011261145457600080fd5b50813567ffffffffffffffff81111561146c57600080fd5b60208301915083602082850101111561117257600080fd5b6000806000806000806000806000806101208b8d0312156114a457600080fd5b8a356114af8161141f565b995060208b01356114bf8161141f565b985060408b0135975060608b0135965060808b0135955060a08b0135945060c08b01356114eb8161141f565b935060e08b01356114fb81611434565b92506101008b013567ffffffffffffffff81111561151857600080fd5b6115248d828e01611442565b915080935050809150509295989b9194979a5092959850565b60008060008060008060008060006101008a8c03121561155c57600080fd5b89356115678161141f565b985060208a01356115778161141f565b975060408a0135965060608a0135955060808a0135945060a08a0135935060c08a01356115a38161141f565b925060e08a013567ffffffffffffffff8111156115bf57600080fd5b6115cb8c828d01611442565b915080935050809150509295985092959850929598565b6020808252600b908201526a2bb937b7339031b430b4b760a91b604082015260600190565b60006020828403121561161957600080fd5b81516116248161141f565b9392505050565b634e487b7160e01b600052601160045260246000fd5b600081600019048311821515161561165b5761165b61162b565b500290565b60008261167d57634e487b7160e01b600052601260045260246000fd5b500490565b6000828210156116945761169461162b565b500390565b600080604083850312156116ac57600080fd5b82516116b78161141f565b6020939093015192949293505050565b6000602082840312156116d957600080fd5b5051919050565b6000602082840312156116f257600080fd5b815161162481611434565b634e487b7160e01b600052602160045260246000fdfea2646970667358221220890f13e7582988b6549d01e002e66bf5b863359a9e7321ab3fd3280b5364127664736f6c634300080e0033",
  "linkReferences": {},
  "deployedLinkReferences": {}
}