{
  "_format": "hh-sol-artifact-1",
  "contractName": "Marketplace",
  "sourceName": "contracts/Market/Marketplace.sol",
  "abi": [
    {
      "inputs": [
        {
          "internalType": "address",
          "name": "_storage",
          "type": "address"
        },
        {
          "internalType": "address",
          "name": "_token",
          "type": "address"
        }
      ],
      "stateMutability": "nonpayable",
      "type": "constructor"
    },
    {
      "anonymous": false,
      "inputs": [
        {
          "indexed": true,
          "internalType": "address",
          "name": "seller",
          "type": "address"
        },
        {
          "indexed": true,
          "internalType": "address",
          "name": "buyer",
          "type": "address"
        },
        {
          "indexed": true,
          "internalType": "address",
          "name": "contractAddress",
          "type": "address"
        },
        {
          "indexed": false,
          "internalType": "uint256",
          "name": "tokenId",
          "type": "uint256"
        },
        {
          "indexed": false,
          "internalType": "uint256",
          "name": "price",
          "type": "uint256"
        }
      ],
      "name": "ListedNFTSold",
      "type": "event"
    },
    {
      "inputs": [
        {
          "internalType": "address",
          "name": "signer",
          "type": "address"
        },
        {
          "internalType": "address",
          "name": "contractAddress",
          "type": "address"
        },
        {
          "internalType": "uint256",
          "name": "price",
          "type": "uint256"
        },
        {
          "internalType": "uint256",
          "name": "tokenId",
          "type": "uint256"
        },
        {
          "internalType": "uint256",
          "name": "expiresAt",
          "type": "uint256"
        },
        {
          "internalType": "uint256",
          "name": "chainId",
          "type": "uint256"
        },
        {
          "internalType": "bytes",
          "name": "signature",
          "type": "bytes"
        }
      ],
      "name": "buyFromSellOffer",
      "outputs": [],
      "stateMutability": "nonpayable",
      "type": "function"
    },
    {
      "inputs": [
        {
          "internalType": "address",
          "name": "signer",
          "type": "address"
        },
        {
          "internalType": "address",
          "name": "contractAddress",
          "type": "address"
        },
        {
          "internalType": "uint256",
          "name": "price",
          "type": "uint256"
        },
        {
          "internalType": "uint256",
          "name": "tokenId",
          "type": "uint256"
        },
        {
          "internalType": "uint256",
          "name": "expiresAt",
          "type": "uint256"
        },
        {
          "internalType": "uint256",
          "name": "chainId",
          "type": "uint256"
        },
        {
          "internalType": "bool",
          "name": "isSellOffer",
          "type": "bool"
        },
        {
          "internalType": "bytes",
          "name": "signature",
          "type": "bytes"
        }
      ],
      "name": "cancelSignedOffer",
      "outputs": [],
      "stateMutability": "nonpayable",
      "type": "function"
    },
    {
      "inputs": [
        {
          "internalType": "address",
          "name": "buyer",
          "type": "address"
        },
        {
          "internalType": "address",
          "name": "contractAddress",
          "type": "address"
        },
        {
          "internalType": "uint256",
          "name": "price",
          "type": "uint256"
        },
        {
          "internalType": "uint256",
          "name": "tokenId",
          "type": "uint256"
        },
        {
          "internalType": "uint256",
          "name": "expiresAt",
          "type": "uint256"
        },
        {
          "internalType": "uint256",
          "name": "chainId",
          "type": "uint256"
        },
        {
          "internalType": "bytes",
          "name": "signature",
          "type": "bytes"
        }
      ],
      "name": "sellFromBuyOffer",
      "outputs": [],
      "stateMutability": "nonpayable",
      "type": "function"
    },
    {
      "inputs": [],
      "name": "token",
      "outputs": [
        {
          "internalType": "contract IERC20",
          "name": "",
          "type": "address"
        }
      ],
      "stateMutability": "view",
      "type": "function"
    }
  ],
  "bytecode": "0x60a060405234801561001057600080fd5b50604051620017503803806200175083398101604081905261003191610075565b6001600160a01b03918216608052600080546001600160a01b031916919092161790556100a8565b80516001600160a01b038116811461007057600080fd5b919050565b6000806040838503121561008857600080fd5b61009183610059565b915061009f60208401610059565b90509250929050565b608051611677620000d9600039600081816108c801528181610d7b01528181610f27015261100701526116776000f3fe608060405234801561001057600080fd5b506004361061004c5760003560e01c8063058698a7146100515780634fc5d8d81461006657806395425adc14610079578063fc0c546a1461008c575b600080fd5b61006461005f3660046113dd565b6100bb565b005b610064610074366004611482565b610153565b610064610087366004611482565b6103cb565b60005461009f906001600160a01b031681565b6040516001600160a01b03909116815260200160405180910390f35b336001600160a01b038a16146101185760405162461bcd60e51b815260206004820152601a60248201527f43616e206f6e6c792063616e63656c206f776e206f666665727300000000000060448201526064015b60405180910390fd5b600061012b8a8a8a8a8a8a8a8a8a61062f565b6000908152600160208190526040909120805460ff1916909117905550505050505050505050565b4284116101925760405162461bcd60e51b815260206004820152600d60248201526c13d999995c88195e1c1a5c9959609a1b604482015260640161010f565b60006101a689898989898960008a8a61062f565b6040516331a9108f60e11b81526004810188905290915088906000906001600160a01b03831690636352211e90602401602060405180830381865afa1580156101f3573d6000803e3d6000fd5b505050506040513d601f19601f820116820180604052508101906102179190611511565b9050336001600160a01b038216146102675760405162461bcd60e51b81526020600482015260136024820152722737ba103a3432903a37b5b2b71037bbb732b960691b604482015260640161010f565b60008381526001602052604090205460ff16156102bc5760405162461bcd60e51b815260206004820152601360248201527213d999995c881dd85cc818d85b98d95b1b1959606a1b604482015260640161010f565b6000838152600160208190526040808320805460ff191690921790915551635c46a7ef60e11b81526001600160a01b0383811660048301528d81166024830152604482018b90526080606483015260848201929092529083169063b88d4fde9060a401600060405180830381600087803b15801561033957600080fd5b505af115801561034d573d6000803e3d6000fd5b5050505061035e8b828c8b8d61078a565b896001600160a01b03168b6001600160a01b0316826001600160a01b03167f1290e46983831321879b11cac756bc8aa08901170f37c279f1537b1c65d51fba8b8d6040516103b6929190918252602082015260400190565b60405180910390a45050505050505050505050565b42841161040a5760405162461bcd60e51b815260206004820152600d60248201526c13d999995c88195e1c1a5c9959609a1b604482015260640161010f565b600061041e89898989898960018a8a61062f565b6040516331a9108f60e11b81526004810188905290915088906000906001600160a01b03831690636352211e90602401602060405180830381865afa15801561046b573d6000803e3d6000fd5b505050506040513d601f19601f8201168201806040525081019061048f9190611511565b9050806001600160a01b03168b6001600160a01b0316146104f25760405162461bcd60e51b815260206004820152601f60248201527f4f66666572206e6f74207369676e656420627920746f6b656e206f776e657200604482015260640161010f565b60008381526001602052604090205460ff16156105475760405162461bcd60e51b815260206004820152601360248201527213d999995c881dd85cc818d85b98d95b1b1959606a1b604482015260640161010f565b6000838152600160208190526040808320805460ff191690921790915551635c46a7ef60e11b81526001600160a01b038381166004830152336024830152604482018b90526080606483015260848201929092529083169063b88d4fde9060a401600060405180830381600087803b1580156105c257600080fd5b505af11580156105d6573d6000803e3d6000fd5b505050506105e7338c8c8b8d61078a565b60408051898152602081018b90526001600160a01b03808d16923392918516917f1290e46983831321879b11cac756bc8aa08901170f37c279f1537b1c65d51fba91016103b6565b604080516001600160a01b03808c1660208301528a1691810191909152606081018890526080810187905260a0810186905260c0810185905283151560e082015260009081906106e69061010001604051602081830303815290604052805190602001206040517f19457468657265756d205369676e6564204d6573736167653a0a3332000000006020820152603c8101829052600090605c01604051602081830303815290604052805190602001209050919050565b90508a6001600160a01b03166107328286868080601f016020809104026020016040519081016040528093929190818152602001838380828437600092019190915250610d5292505050565b6001600160a01b03161461077c5760405162461bcd60e51b8152602060048201526011602482015270496e76616c6964207369676e617475726560781b604482015260640161010f565b9a9950505050505050505050565b6000836001600160a01b03166343bc16126040518163ffffffff1660e01b8152600401602060405180830381865afa1580156107ca573d6000803e3d6000fd5b505050506040513d601f19601f820116820180604052508101906107ee9190611511565b9050806001600160a01b0316856001600160a01b0316036109bb576000612710610816610d76565b610820908561154b565b61082a919061156a565b6000546040516323b872dd60e01b81529192506001600160a01b0316906323b872dd9061085f908a908690869060040161158c565b6020604051808303816000875af115801561087e573d6000803e3d6000fd5b505050506040513d601f19601f820116820180604052508101906108a291906115b0565b5060008054906101000a90046001600160a01b03166001600160a01b03166323b872dd887f00000000000000000000000000000000000000000000000000000000000000006001600160a01b0316634783c35b6040518163ffffffff1660e01b8152600401602060405180830381865afa158015610924573d6000803e3d6000fd5b505050506040513d601f19601f820116820180604052508101906109489190611511565b61095285886115cd565b6040518463ffffffff1660e01b81526004016109709392919061158c565b6020604051808303816000875af115801561098f573d6000803e3d6000fd5b505050506040513d601f19601f820116820180604052508101906109b391906115b0565b505050610d4b565b60405163152a902d60e11b8152600481018490526024810183905260009081906001600160a01b03871690632a55205a9060440160408051808303816000875af1158015610a0d573d6000803e3d6000fd5b505050506040513d601f19601f82011682018060405250810190610a3191906115e4565b90925090508015610cc857856001600160a01b0316826001600160a01b031603610c4f57856001600160a01b031663cf933f866040518163ffffffff1660e01b8152600401602060405180830381865afa925050508015610aaf575060408051601f3d908101601f19168201909252610aac91810190611612565b60015b610b30576000546040516323b872dd60e01b81526001600160a01b03909116906323b872dd90610ae7908b908690869060040161158c565b6020604051808303816000875af1158015610b06573d6000803e3d6000fd5b505050506040513d601f19601f82011682018060405250810190610b2a91906115b0565b50610cc8565b6000612710610b3f838561154b565b610b49919061156a565b6000546040516323b872dd60e01b81529192506001600160a01b0316906323b872dd90610b7e908d908990869060040161158c565b6020604051808303816000875af1158015610b9d573d6000803e3d6000fd5b505050506040513d601f19601f82011682018060405250810190610bc191906115b0565b506000546001600160a01b03166323b872dd8b610bdc610f22565b610be685886115cd565b6040518463ffffffff1660e01b8152600401610c049392919061158c565b6020604051808303816000875af1158015610c23573d6000803e3d6000fd5b505050506040513d601f19601f82011682018060405250810190610c4791906115b0565b505050610cc8565b6000546040516323b872dd60e01b81526001600160a01b03909116906323b872dd90610c83908b908690869060040161158c565b6020604051808303816000875af1158015610ca2573d6000803e3d6000fd5b505050506040513d601f19601f82011682018060405250810190610cc691906115b0565b505b6000546001600160a01b03166323b872dd8989610ce585896115cd565b6040518463ffffffff1660e01b8152600401610d039392919061158c565b6020604051808303816000875af1158015610d22573d6000803e3d6000fd5b505050506040513d601f19601f82011682018060405250810190610d4691906115b0565b505050505b5050505050565b6000806000610d61858561108d565b91509150610d6e816110d2565b509392505050565b6000807f00000000000000000000000000000000000000000000000000000000000000006001600160a01b03166321f8a721604051602001610dcc906d616464726573732e636f6e66696760901b8152600e0190565b604051602081830303815290604052805190602001206040518263ffffffff1660e01b8152600401610e0091815260200190565b602060405180830381865afa158015610e1d573d6000803e3d6000fd5b505050506040513d601f19601f82011682018060405250810190610e419190611511565b90506001600160a01b038116610e5a57611f4091505090565b6000816001600160a01b031663bd02d0f5604051602001610e9490721cda185c994b9c1c9a5b585c9e505c9d1a5cdd606a1b815260130190565b604051602081830303815290604052805190602001206040518263ffffffff1660e01b8152600401610ec891815260200190565b602060405180830381865afa158015610ee5573d6000803e3d6000fd5b505050506040513d601f19601f82011682018060405250810190610f099190611612565b90508015610f175780610f1b565b611f405b9250505090565b6000807f00000000000000000000000000000000000000000000000000000000000000006001600160a01b03166321f8a721604051602001610f79906e616464726573732e726f79616c747960881b8152600f0190565b604051602081830303815290604052805190602001206040518263ffffffff1660e01b8152600401610fad91815260200190565b602060405180830381865afa158015610fca573d6000803e3d6000fd5b505050506040513d601f19601f82011682018060405250810190610fee9190611511565b90506001600160a01b038116156110055780611087565b7f00000000000000000000000000000000000000000000000000000000000000006001600160a01b0316634783c35b6040518163ffffffff1660e01b8152600401602060405180830381865afa158015611063573d6000803e3d6000fd5b505050506040513d601f19601f820116820180604052508101906110879190611511565b91505090565b60008082516041036110c35760208301516040840151606085015160001a6110b78782858561128b565b945094505050506110cb565b506000905060025b9250929050565b60008160048111156110e6576110e661162b565b036110ee5750565b60018160048111156111025761110261162b565b0361114f5760405162461bcd60e51b815260206004820152601860248201527f45434453413a20696e76616c6964207369676e61747572650000000000000000604482015260640161010f565b60028160048111156111635761116361162b565b036111b05760405162461bcd60e51b815260206004820152601f60248201527f45434453413a20696e76616c6964207369676e6174757265206c656e67746800604482015260640161010f565b60038160048111156111c4576111c461162b565b0361121c5760405162461bcd60e51b815260206004820152602260248201527f45434453413a20696e76616c6964207369676e6174757265202773272076616c604482015261756560f01b606482015260840161010f565b60048160048111156112305761123061162b565b036112885760405162461bcd60e51b815260206004820152602260248201527f45434453413a20696e76616c6964207369676e6174757265202776272076616c604482015261756560f01b606482015260840161010f565b50565b6000807f7fffffffffffffffffffffffffffffff5d576e7357a4501ddfe92f46681b20a08311156112c2575060009050600361136f565b8460ff16601b141580156112da57508460ff16601c14155b156112eb575060009050600461136f565b6040805160008082526020820180845289905260ff881692820192909252606081018690526080810185905260019060a0016020604051602081039080840390855afa15801561133f573d6000803e3d6000fd5b5050604051601f1901519150506001600160a01b0381166113685760006001925092505061136f565b9150600090505b94509492505050565b6001600160a01b038116811461128857600080fd5b801515811461128857600080fd5b60008083601f8401126113ad57600080fd5b50813567ffffffffffffffff8111156113c557600080fd5b6020830191508360208285010111156110cb57600080fd5b60008060008060008060008060006101008a8c0312156113fc57600080fd5b893561140781611378565b985060208a013561141781611378565b975060408a0135965060608a0135955060808a0135945060a08a0135935060c08a01356114438161138d565b925060e08a013567ffffffffffffffff81111561145f57600080fd5b61146b8c828d0161139b565b915080935050809150509295985092959850929598565b60008060008060008060008060e0898b03121561149e57600080fd5b88356114a981611378565b975060208901356114b981611378565b965060408901359550606089013594506080890135935060a0890135925060c089013567ffffffffffffffff8111156114f157600080fd5b6114fd8b828c0161139b565b999c989b5096995094979396929594505050565b60006020828403121561152357600080fd5b815161152e81611378565b9392505050565b634e487b7160e01b600052601160045260246000fd5b600081600019048311821515161561156557611565611535565b500290565b60008261158757634e487b7160e01b600052601260045260246000fd5b500490565b6001600160a01b039384168152919092166020820152604081019190915260600190565b6000602082840312156115c257600080fd5b815161152e8161138d565b6000828210156115df576115df611535565b500390565b600080604083850312156115f757600080fd5b825161160281611378565b6020939093015192949293505050565b60006020828403121561162457600080fd5b5051919050565b634e487b7160e01b600052602160045260246000fdfea26469706673582212200e0ab2eba30583c78cac6787bc32feeeba5b158043ed8b1d8e4792eb97d6f2fd64736f6c634300080e0033",
  "linkReferences": {},
  "deployedLinkReferences": {}
}