{
  "_format": "hh-sol-artifact-1",
  "contractName": "SocialFaucet",
  "sourceName": "contracts/Social/SocialFaucet.sol",
  "abi": [
    {
      "inputs": [
        {
          "internalType": "address",
          "name": "sageToken",
          "type": "address"
        },
        {
          "internalType": "uint256",
          "name": "initialDripAmount",
          "type": "uint256"
        },
        {
          "internalType": "address",
          "name": "_voucherSigner",
          "type": "address"
        }
      ],
      "stateMutability": "nonpayable",
      "type": "constructor"
    },
    {
      "anonymous": false,
      "inputs": [
        {
          "indexed": true,
          "internalType": "address",
          "name": "user",
          "type": "address"
        },
        {
          "indexed": false,
          "internalType": "uint256",
          "name": "amount",
          "type": "uint256"
        }
      ],
      "name": "Claimed",
      "type": "event"
    },
    {
      "anonymous": false,
      "inputs": [
        {
          "indexed": true,
          "internalType": "address",
          "name": "to",
          "type": "address"
        },
        {
          "indexed": false,
          "internalType": "uint256",
          "name": "amount",
          "type": "uint256"
        }
      ],
      "name": "Drained",
      "type": "event"
    },
    {
      "anonymous": false,
      "inputs": [
        {
          "indexed": false,
          "internalType": "uint256",
          "name": "amount",
          "type": "uint256"
        }
      ],
      "name": "DripAmountUpdated",
      "type": "event"
    },
    {
      "anonymous": false,
      "inputs": [
        {
          "indexed": false,
          "internalType": "bool",
          "name": "active",
          "type": "bool"
        }
      ],
      "name": "FaucetToggled",
      "type": "event"
    },
    {
      "anonymous": false,
      "inputs": [
        {
          "indexed": true,
          "internalType": "address",
          "name": "from",
          "type": "address"
        },
        {
          "indexed": false,
          "internalType": "uint256",
          "name": "amount",
          "type": "uint256"
        }
      ],
      "name": "Funded",
      "type": "event"
    },
    {
      "anonymous": false,
      "inputs": [
        {
          "indexed": true,
          "internalType": "address",
          "name": "previousOwner",
          "type": "address"
        },
        {
          "indexed": true,
          "internalType": "address",
          "name": "newOwner",
          "type": "address"
        }
      ],
      "name": "OwnershipTransferred",
      "type": "event"
    },
    {
      "anonymous": false,
      "inputs": [
        {
          "indexed": false,
          "internalType": "address",
          "name": "signer",
          "type": "address"
        }
      ],
      "name": "VoucherSignerUpdated",
      "type": "event"
    },
    {
      "inputs": [],
      "name": "active",
      "outputs": [
        {
          "internalType": "bool",
          "name": "",
          "type": "bool"
        }
      ],
      "stateMutability": "view",
      "type": "function"
    },
    {
      "inputs": [
        {
          "internalType": "bytes",
          "name": "signature",
          "type": "bytes"
        }
      ],
      "name": "claim",
      "outputs": [],
      "stateMutability": "nonpayable",
      "type": "function"
    },
    {
      "inputs": [
        {
          "internalType": "address",
          "name": "",
          "type": "address"
        }
      ],
      "name": "claimed",
      "outputs": [
        {
          "internalType": "bool",
          "name": "",
          "type": "bool"
        }
      ],
      "stateMutability": "view",
      "type": "function"
    },
    {
      "inputs": [
        {
          "internalType": "address",
          "name": "to",
          "type": "address"
        },
        {
          "internalType": "uint256",
          "name": "amount",
          "type": "uint256"
        }
      ],
      "name": "drain",
      "outputs": [],
      "stateMutability": "nonpayable",
      "type": "function"
    },
    {
      "inputs": [],
      "name": "dripAmount",
      "outputs": [
        {
          "internalType": "uint256",
          "name": "",
          "type": "uint256"
        }
      ],
      "stateMutability": "view",
      "type": "function"
    },
    {
      "inputs": [
        {
          "internalType": "uint256",
          "name": "amount",
          "type": "uint256"
        }
      ],
      "name": "fund",
      "outputs": [],
      "stateMutability": "nonpayable",
      "type": "function"
    },
    {
      "inputs": [],
      "name": "owner",
      "outputs": [
        {
          "internalType": "address",
          "name": "",
          "type": "address"
        }
      ],
      "stateMutability": "view",
      "type": "function"
    },
    {
      "inputs": [],
      "name": "renounceOwnership",
      "outputs": [],
      "stateMutability": "nonpayable",
      "type": "function"
    },
    {
      "inputs": [],
      "name": "sage",
      "outputs": [
        {
          "internalType": "contract IERC20",
          "name": "",
          "type": "address"
        }
      ],
      "stateMutability": "view",
      "type": "function"
    },
    {
      "inputs": [
        {
          "internalType": "bool",
          "name": "_active",
          "type": "bool"
        }
      ],
      "name": "setActive",
      "outputs": [],
      "stateMutability": "nonpayable",
      "type": "function"
    },
    {
      "inputs": [
        {
          "internalType": "uint256",
          "name": "amount",
          "type": "uint256"
        }
      ],
      "name": "setDripAmount",
      "outputs": [],
      "stateMutability": "nonpayable",
      "type": "function"
    },
    {
      "inputs": [
        {
          "internalType": "address",
          "name": "_voucherSigner",
          "type": "address"
        }
      ],
      "name": "setVoucherSigner",
      "outputs": [],
      "stateMutability": "nonpayable",
      "type": "function"
    },
    {
      "inputs": [
        {
          "internalType": "address",
          "name": "newOwner",
          "type": "address"
        }
      ],
      "name": "transferOwnership",
      "outputs": [],
      "stateMutability": "nonpayable",
      "type": "function"
    },
    {
      "inputs": [],
      "name": "voucherSigner",
      "outputs": [
        {
          "internalType": "address",
          "name": "",
          "type": "address"
        }
      ],
      "stateMutability": "view",
      "type": "function"
    }
  ],
  "bytecode": "0x6101606040526003805460ff191660011790553480156200001f57600080fd5b50604051620015e5380380620015e5833981016040819052620000429162000267565b6040518060400160405280601081526020016f14d051d154dbd8da585b11985d58d95d60821b815250604051806040016040528060018152602001603160f81b8152506200009f62000099620001f660201b60201c565b620001fa565b60018055815160209283012081519183019190912060e08290526101008190524660a0818152604080517f8b73c3c69bb8fe3d512ecc4cf759cc79239f7b179b0ffacaa9a75d522b39400f818801819052818301969096526060810194909452608080850193909352308483018190528151808603909301835260c094850190915281519190950120905291909152610120526001600160a01b0383166200017a5760405162461bcd60e51b81526020600482015260096024820152683130b2103a37b5b2b760b91b60448201526064015b60405180910390fd5b6001600160a01b038116620001bf5760405162461bcd60e51b815260206004820152600a6024820152693130b21039b4b3b732b960b11b604482015260640162000171565b6001600160a01b0392831661014052600291909155600380549190921661010002610100600160a81b0319909116179055620002a8565b3390565b600080546001600160a01b038381166001600160a01b0319831681178455604051919092169283917f8be0079c531659141344cd1fd0a4f28419497f9722a3daafe3b4186f6b6457e09190a35050565b80516001600160a01b03811681146200026257600080fd5b919050565b6000806000606084860312156200027d57600080fd5b62000288846200024a565b9250602084015191506200029f604085016200024a565b90509250925092565b60805160a05160c05160e0516101005161012051610140516112bf6200032660003960008181610116015281816104460152818161053c01528181610782015281816109700152610a8601526000610d9a01526000610de901526000610dc401526000610d1d01526000610d4701526000610d7101526112bf6000f3fe608060405234801561001057600080fd5b50600436106100ea5760003560e01c8063acec338a1161008c578063c63ff8dd11610066578063c63ff8dd146101e6578063c884ef83146101f9578063ca1d209d1461021c578063f2fde38b1461022f57600080fd5b8063acec338a146101ad578063af6e40d0146101c0578063b184be81146101d357600080fd5b8063543f8c58116100c8578063543f8c5814610167578063715018a61461017c57806388f4c137146101845780638da5cb5b1461019c57600080fd5b806302fb0c5e146100ef5780630bd49c581461011157806335a1529b14610150575b600080fd5b6003546100fc9060ff1681565b60405190151581526020015b60405180910390f35b6101387f000000000000000000000000000000000000000000000000000000000000000081565b6040516001600160a01b039091168152602001610108565b61015960025481565b604051908152602001610108565b61017a61017536600461111f565b610242565b005b61017a610286565b6003546101389061010090046001600160a01b031681565b6000546001600160a01b0316610138565b61017a6101bb366004611146565b61029a565b61017a6101ce366004611186565b6102e3565b61017a6101e13660046111a1565b610389565b61017a6101f43660046111cb565b610634565b6100fc610207366004611186565b60046020526000908152604090205460ff1681565b61017a61022a36600461111f565b610a64565b61017a61023d366004611186565b610b75565b61024a610bee565b60028190556040518181527f33f3faee0788ab897d8f674abe1dde6d93ba901e4a1502161294734ba178e3c7906020015b60405180910390a150565b61028e610bee565b6102986000610c48565b565b6102a2610bee565b6003805460ff19168215159081179091556040519081527f87e7975983dfa9eadba810a775cce04da400ce8dcc3f201b0e2def605d58911d9060200161027b565b6102eb610bee565b6001600160a01b0381166103335760405162461bcd60e51b815260206004820152600a6024820152693130b21039b4b3b732b960b11b60448201526064015b60405180910390fd5b60038054610100600160a81b0319166101006001600160a01b038416908102919091179091556040519081527f554873b3d130335723e7dcc9814c7c13843579681d5deb119dfeac0422ef59c89060200161027b565b610391610bee565b6002600154036103e35760405162461bcd60e51b815260206004820152601f60248201527f5265656e7472616e637947756172643a207265656e7472616e742063616c6c00604482015260640161032a565b60026001556001600160a01b03821661042e5760405162461bcd60e51b815260206004820152600d60248201526c189859081c9958da5c1a595b9d609a1b604482015260640161032a565b6040516370a0823160e01b81523060048201526000907f00000000000000000000000000000000000000000000000000000000000000006001600160a01b0316906370a0823190602401602060405180830381865afa158015610495573d6000803e3d6000fd5b505050506040513d601f19601f820116820180604052508101906104b9919061123d565b9050600082156104c957826104cb565b815b9050818111156105165760405162461bcd60e51b8152602060048201526016602482015275616d6f756e7420657863656564732062616c616e636560501b604482015260640161032a565b60405163a9059cbb60e01b81526001600160a01b038581166004830152602482018390527f0000000000000000000000000000000000000000000000000000000000000000169063a9059cbb906044016020604051808303816000875af1158015610585573d6000803e3d6000fd5b505050506040513d601f19601f820116820180604052508101906105a99190611256565b6105e75760405162461bcd60e51b815260206004820152600f60248201526e1d1c985b9cd9995c8819985a5b1959608a1b604482015260640161032a565b836001600160a01b03167fb2559daa129ad136aac2133ac6a0c75920abbef7d6663a017a94e181b13786c38260405161062291815260200190565b60405180910390a25050600180555050565b6002600154036106865760405162461bcd60e51b815260206004820152601f60248201527f5265656e7472616e637947756172643a207265656e7472616e742063616c6c00604482015260640161032a565b600260015560035460ff166106d05760405162461bcd60e51b815260206004820152601060248201526f19985d58d95d081a5cc81c185d5cd95960821b604482015260640161032a565b3360009081526004602052604090205460ff16156107225760405162461bcd60e51b815260206004820152600f60248201526e185b1c9958591e4818db185a5b5959608a1b604482015260640161032a565b60006002541161076a5760405162461bcd60e51b81526020600482015260136024820152726472697020616d6f756e74206973207a65726f60681b604482015260640161032a565b6002546040516370a0823160e01b81523060048201527f00000000000000000000000000000000000000000000000000000000000000006001600160a01b0316906370a0823190602401602060405180830381865afa1580156107d1573d6000803e3d6000fd5b505050506040513d601f19601f820116820180604052508101906107f5919061123d565b10156108355760405162461bcd60e51b815260206004820152600f60248201526e66617563657420697320656d70747960881b604482015260640161032a565b604080517f5ed1eacc8e5343bfe261dbe644f4f0aa350fc7c0c4e369589abb11171f6ab5da6020820152339181019190915260009061088c9060600160405160208183030381529060405280519060200120610c98565b9050600360019054906101000a90046001600160a01b03166001600160a01b03166108ed8285858080601f016020809104026020016040519081016040528093929190818152602001838380828437600092019190915250610cec92505050565b6001600160a01b0316146109355760405162461bcd60e51b815260206004820152600f60248201526e34b73b30b634b2103b37bab1b432b960891b604482015260640161032a565b33600081815260046020819052604091829020805460ff19166001179055600254915163a9059cbb60e01b81529081019290925260248201527f00000000000000000000000000000000000000000000000000000000000000006001600160a01b03169063a9059cbb906044016020604051808303816000875af11580156109c1573d6000803e3d6000fd5b505050506040513d601f19601f820116820180604052508101906109e59190611256565b610a235760405162461bcd60e51b815260206004820152600f60248201526e1d1c985b9cd9995c8819985a5b1959608a1b604482015260640161032a565b60025460405190815233907fd8138f8a3f377c5259ca548e70e4c2de94f129f5a11036a15b69513cba2b426a9060200160405180910390a250506001805550565b6040516323b872dd60e01b8152336004820152306024820152604481018290527f00000000000000000000000000000000000000000000000000000000000000006001600160a01b0316906323b872dd906064016020604051808303816000875af1158015610ad7573d6000803e3d6000fd5b505050506040513d601f19601f82011682018060405250810190610afb9190611256565b610b3d5760405162461bcd60e51b81526020600482015260136024820152721d1c985b9cd9995c919c9bdb4819985a5b1959606a1b604482015260640161032a565b60405181815233907f5af8184bef8e4b45eb9f6ed7734d04da38ced226495548f46e0c8ff8d7d9a5249060200160405180910390a250565b610b7d610bee565b6001600160a01b038116610be25760405162461bcd60e51b815260206004820152602660248201527f4f776e61626c653a206e6577206f776e657220697320746865207a65726f206160448201526564647265737360d01b606482015260840161032a565b610beb81610c48565b50565b6000546001600160a01b031633146102985760405162461bcd60e51b815260206004820181905260248201527f4f776e61626c653a2063616c6c6572206973206e6f7420746865206f776e6572604482015260640161032a565b600080546001600160a01b038381166001600160a01b0319831681178455604051919092169283917f8be0079c531659141344cd1fd0a4f28419497f9722a3daafe3b4186f6b6457e09190a35050565b6000610ce6610ca5610d10565b8360405161190160f01b6020820152602281018390526042810182905260009060620160405160208183030381529060405280519060200120905092915050565b92915050565b6000806000610cfb8585610e37565b91509150610d0881610e7c565b509392505050565b6000306001600160a01b037f000000000000000000000000000000000000000000000000000000000000000016148015610d6957507f000000000000000000000000000000000000000000000000000000000000000046145b15610d9357507f000000000000000000000000000000000000000000000000000000000000000090565b50604080517f00000000000000000000000000000000000000000000000000000000000000006020808301919091527f0000000000000000000000000000000000000000000000000000000000000000828401527f000000000000000000000000000000000000000000000000000000000000000060608301524660808301523060a0808401919091528351808403909101815260c0909201909252805191012090565b6000808251604103610e6d5760208301516040840151606085015160001a610e6187828585611032565b94509450505050610e75565b506000905060025b9250929050565b6000816004811115610e9057610e90611273565b03610e985750565b6001816004811115610eac57610eac611273565b03610ef95760405162461bcd60e51b815260206004820152601860248201527f45434453413a20696e76616c6964207369676e61747572650000000000000000604482015260640161032a565b6002816004811115610f0d57610f0d611273565b03610f5a5760405162461bcd60e51b815260206004820152601f60248201527f45434453413a20696e76616c6964207369676e6174757265206c656e67746800604482015260640161032a565b6003816004811115610f6e57610f6e611273565b03610fc65760405162461bcd60e51b815260206004820152602260248201527f45434453413a20696e76616c6964207369676e6174757265202773272076616c604482015261756560f01b606482015260840161032a565b6004816004811115610fda57610fda611273565b03610beb5760405162461bcd60e51b815260206004820152602260248201527f45434453413a20696e76616c6964207369676e6174757265202776272076616c604482015261756560f01b606482015260840161032a565b6000807f7fffffffffffffffffffffffffffffff5d576e7357a4501ddfe92f46681b20a08311156110695750600090506003611116565b8460ff16601b1415801561108157508460ff16601c14155b156110925750600090506004611116565b6040805160008082526020820180845289905260ff881692820192909252606081018690526080810185905260019060a0016020604051602081039080840390855afa1580156110e6573d6000803e3d6000fd5b5050604051601f1901519150506001600160a01b03811661110f57600060019250925050611116565b9150600090505b94509492505050565b60006020828403121561113157600080fd5b5035919050565b8015158114610beb57600080fd5b60006020828403121561115857600080fd5b813561116381611138565b9392505050565b80356001600160a01b038116811461118157600080fd5b919050565b60006020828403121561119857600080fd5b6111638261116a565b600080604083850312156111b457600080fd5b6111bd8361116a565b946020939093013593505050565b600080602083850312156111de57600080fd5b823567ffffffffffffffff808211156111f657600080fd5b818501915085601f83011261120a57600080fd5b81358181111561121957600080fd5b86602082850101111561122b57600080fd5b60209290920196919550909350505050565b60006020828403121561124f57600080fd5b5051919050565b60006020828403121561126857600080fd5b815161116381611138565b634e487b7160e01b600052602160045260246000fdfea2646970667358221220dbaf701d32b6ce52f210dbb37cddf512459e071331426c280111d1d16764766164736f6c634300080e0033",
  "linkReferences": {},
  "deployedLinkReferences": {}
}