{
  "_format": "hh-sol-artifact-1",
  "contractName": "SAGEOpenEdition",
  "sourceName": "contracts/OpenEdition/SAGEOpenEdition.sol",
  "abi": [
    {
      "inputs": [
        {
          "internalType": "address",
          "name": "_rewardsContract",
          "type": "address"
        },
        {
          "internalType": "address",
          "name": "_admin",
          "type": "address"
        },
        {
          "internalType": "address",
          "name": "_sageStorage",
          "type": "address"
        },
        {
          "internalType": "address",
          "name": "_token",
          "type": "address"
        }
      ],
      "stateMutability": "nonpayable",
      "type": "constructor"
    },
    {
      "anonymous": false,
      "inputs": [
        {
          "indexed": true,
          "internalType": "address",
          "name": "user",
          "type": "address"
        },
        {
          "indexed": true,
          "internalType": "uint256",
          "name": "id",
          "type": "uint256"
        },
        {
          "indexed": false,
          "internalType": "uint256",
          "name": "amount",
          "type": "uint256"
        }
      ],
      "name": "BatchMint",
      "type": "event"
    },
    {
      "anonymous": false,
      "inputs": [
        {
          "indexed": true,
          "internalType": "uint256",
          "name": "id",
          "type": "uint256"
        },
        {
          "indexed": true,
          "internalType": "address",
          "name": "nftContract",
          "type": "address"
        }
      ],
      "name": "OpenEditionCreated",
      "type": "event"
    },
    {
      "anonymous": false,
      "inputs": [
        {
          "indexed": false,
          "internalType": "address",
          "name": "account",
          "type": "address"
        }
      ],
      "name": "Paused",
      "type": "event"
    },
    {
      "anonymous": false,
      "inputs": [
        {
          "indexed": false,
          "internalType": "address",
          "name": "account",
          "type": "address"
        }
      ],
      "name": "Unpaused",
      "type": "event"
    },
    {
      "inputs": [
        {
          "internalType": "uint256",
          "name": "_id",
          "type": "uint256"
        },
        {
          "internalType": "uint256",
          "name": "_amount",
          "type": "uint256"
        }
      ],
      "name": "batchMint",
      "outputs": [],
      "stateMutability": "nonpayable",
      "type": "function"
    },
    {
      "inputs": [
        {
          "internalType": "uint256",
          "name": "_id",
          "type": "uint256"
        },
        {
          "internalType": "uint256",
          "name": "_amount",
          "type": "uint256"
        },
        {
          "internalType": "uint256",
          "name": "_points",
          "type": "uint256"
        },
        {
          "internalType": "bytes",
          "name": "_sig",
          "type": "bytes"
        }
      ],
      "name": "claimPointsAndMint",
      "outputs": [],
      "stateMutability": "nonpayable",
      "type": "function"
    },
    {
      "inputs": [
        {
          "components": [
            {
              "internalType": "uint32",
              "name": "startTime",
              "type": "uint32"
            },
            {
              "internalType": "uint32",
              "name": "closeTime",
              "type": "uint32"
            },
            {
              "internalType": "uint32",
              "name": "costPoints",
              "type": "uint32"
            },
            {
              "internalType": "uint32",
              "name": "limitPerUser",
              "type": "uint32"
            },
            {
              "internalType": "uint32",
              "name": "mintCount",
              "type": "uint32"
            },
            {
              "internalType": "string",
              "name": "nftUri",
              "type": "string"
            },
            {
              "internalType": "contract INFT",
              "name": "nftContract",
              "type": "address"
            },
            {
              "internalType": "contract IWhitelist",
              "name": "whitelist",
              "type": "address"
            },
            {
              "internalType": "uint256",
              "name": "costTokens",
              "type": "uint256"
            },
            {
              "internalType": "uint256",
              "name": "id",
              "type": "uint256"
            }
          ],
          "internalType": "struct SAGEOpenEdition.OpenEdition",
          "name": "oe",
          "type": "tuple"
        }
      ],
      "name": "createOpenEdition",
      "outputs": [],
      "stateMutability": "nonpayable",
      "type": "function"
    },
    {
      "inputs": [
        {
          "internalType": "uint256",
          "name": "_id",
          "type": "uint256"
        }
      ],
      "name": "getMintCount",
      "outputs": [
        {
          "internalType": "uint32",
          "name": "",
          "type": "uint32"
        }
      ],
      "stateMutability": "view",
      "type": "function"
    },
    {
      "inputs": [
        {
          "internalType": "uint256",
          "name": "_id",
          "type": "uint256"
        }
      ],
      "name": "getOpenEdition",
      "outputs": [
        {
          "components": [
            {
              "internalType": "uint32",
              "name": "startTime",
              "type": "uint32"
            },
            {
              "internalType": "uint32",
              "name": "closeTime",
              "type": "uint32"
            },
            {
              "internalType": "uint32",
              "name": "costPoints",
              "type": "uint32"
            },
            {
              "internalType": "uint32",
              "name": "limitPerUser",
              "type": "uint32"
            },
            {
              "internalType": "uint32",
              "name": "mintCount",
              "type": "uint32"
            },
            {
              "internalType": "string",
              "name": "nftUri",
              "type": "string"
            },
            {
              "internalType": "contract INFT",
              "name": "nftContract",
              "type": "address"
            },
            {
              "internalType": "contract IWhitelist",
              "name": "whitelist",
              "type": "address"
            },
            {
              "internalType": "uint256",
              "name": "costTokens",
              "type": "uint256"
            },
            {
              "internalType": "uint256",
              "name": "id",
              "type": "uint256"
            }
          ],
          "internalType": "struct SAGEOpenEdition.OpenEdition",
          "name": "",
          "type": "tuple"
        }
      ],
      "stateMutability": "view",
      "type": "function"
    },
    {
      "inputs": [
        {
          "internalType": "uint256",
          "name": "",
          "type": "uint256"
        },
        {
          "internalType": "address",
          "name": "",
          "type": "address"
        }
      ],
      "name": "mintedByUser",
      "outputs": [
        {
          "internalType": "uint256",
          "name": "",
          "type": "uint256"
        }
      ],
      "stateMutability": "view",
      "type": "function"
    },
    {
      "inputs": [
        {
          "internalType": "uint256",
          "name": "",
          "type": "uint256"
        }
      ],
      "name": "openEditions",
      "outputs": [
        {
          "internalType": "uint32",
          "name": "startTime",
          "type": "uint32"
        },
        {
          "internalType": "uint32",
          "name": "closeTime",
          "type": "uint32"
        },
        {
          "internalType": "uint32",
          "name": "costPoints",
          "type": "uint32"
        },
        {
          "internalType": "uint32",
          "name": "limitPerUser",
          "type": "uint32"
        },
        {
          "internalType": "uint32",
          "name": "mintCount",
          "type": "uint32"
        },
        {
          "internalType": "string",
          "name": "nftUri",
          "type": "string"
        },
        {
          "internalType": "contract INFT",
          "name": "nftContract",
          "type": "address"
        },
        {
          "internalType": "contract IWhitelist",
          "name": "whitelist",
          "type": "address"
        },
        {
          "internalType": "uint256",
          "name": "costTokens",
          "type": "uint256"
        },
        {
          "internalType": "uint256",
          "name": "id",
          "type": "uint256"
        }
      ],
      "stateMutability": "view",
      "type": "function"
    },
    {
      "inputs": [],
      "name": "paused",
      "outputs": [
        {
          "internalType": "bool",
          "name": "",
          "type": "bool"
        }
      ],
      "stateMutability": "view",
      "type": "function"
    },
    {
      "inputs": [],
      "name": "rewardsContract",
      "outputs": [
        {
          "internalType": "contract IRewards",
          "name": "",
          "type": "address"
        }
      ],
      "stateMutability": "view",
      "type": "function"
    },
    {
      "inputs": [
        {
          "internalType": "uint256",
          "name": "_id",
          "type": "uint256"
        },
        {
          "internalType": "address",
          "name": "_whitelist",
          "type": "address"
        }
      ],
      "name": "setWhitelist",
      "outputs": [],
      "stateMutability": "nonpayable",
      "type": "function"
    },
    {
      "inputs": [],
      "name": "token",
      "outputs": [
        {
          "internalType": "contract IERC20",
          "name": "",
          "type": "address"
        }
      ],
      "stateMutability": "view",
      "type": "function"
    }
  ],
  "bytecode": "0x60806040523480156200001157600080fd5b5060405162001eec38038062001eec8339810160408190526200003491620000ac565b600080546001600160a81b0319166101006001600160a01b0394851602179055600380546001600160a01b03199081169284169290921790556002805482169483169490941790935560018054909316911617905562000109565b80516001600160a01b0381168114620000a757600080fd5b919050565b60008060008060808587031215620000c357600080fd5b620000ce856200008f565b9350620000de602086016200008f565b9250620000ee604086016200008f565b9150620000fe606086016200008f565b905092959194509250565b611dd380620001196000396000f3fe608060405234801561001057600080fd5b50600436106100a95760003560e01c806363c060aa1161007157806363c060aa14610140578063a89c8f4f14610179578063c50caaa6146101a2578063d89da286146101b5578063db09a3f5146101c8578063fc0c546a1461020a57600080fd5b80630ed64eff146100ae5780631e6541c4146100c3578063220cce97146100ec57806328c622a5146101175780635c975abb1461012a575b600080fd5b6100c16100bc3660046115e7565b61021d565b005b6100d66100d1366004611609565b6108bc565b6040516100e3919061166f565b60405180910390f35b6002546100ff906001600160a01b031681565b6040516001600160a01b0390911681526020016100e3565b6100c1610125366004611748565b610a44565b60005460ff1660405190151581526020016100e3565b61016b61014e3660046117ea565b600460209081526000928352604080842090915290825290205481565b6040519081526020016100e3565b61018c610187366004611609565b610c3c565b6040516100e39a9998979695949392919061181a565b6100c16101b0366004611891565b610d3a565b6100c16101c33660046117ea565b610eb8565b6101f56101d6366004611609565b600090815260056020526040902054600160801b900463ffffffff1690565b60405163ffffffff90911681526020016100e3565b6003546100ff906001600160a01b031681565b610225610fbe565b600081116102695760405162461bcd60e51b815260206004820152600c60248201526b043616e2774206d696e7420360a41b60448201526064015b60405180910390fd5b600082815260056020526040902080544263ffffffff9091161180159061029f575080544264010000000090910463ffffffff16115b6102d65760405162461bcd60e51b81526020600482015260086024820152672737ba1037b832b760c11b6044820152606401610260565b6040805161014081018252825463ffffffff8082168352640100000000820481166020840152600160401b8204811693830193909352600160601b810483166060830152600160801b900490911660808201526001820180546104019291849160a084019190610345906118cd565b80601f0160208091040260200160405190810160405280929190818152602001828054610371906118cd565b80156103be5780601f10610393576101008083540402835291602001916103be565b820191906000526020600020905b8154815290600101906020018083116103a157829003601f168201915b505050918352505060028201546001600160a01b039081166020830152600383015416604082015260048201546060820152600590910154608090910152611006565b60008381526004602090815260408083203384529091529020548154600160601b900463ffffffff161561048b578154600160601b900463ffffffff16610448828561191d565b111561048b5760405162461bcd60e51b8152602060048201526012602482015271135a5b9d081b1a5b5a5d081c995858da195960721b6044820152606401610260565b6000848152600460209081526040808320338452909152812080548592906104b490849061191d565b90915550508154839083906010906104da908490600160801b900463ffffffff16611935565b92506101000a81548163ffffffff021916908363ffffffff1602179055506000826001018054610509906118cd565b80601f0160208091040260200160405190810160405280929190818152602001828054610535906118cd565b80156105825780601f1061055757610100808354040283529160200191610582565b820191906000526020600020905b81548152906001019060200180831161056557829003601f168201915b505086549394506000936105a89350600160401b900463ffffffff16915087905061195d565b905080156105bc576105ba33826110cb565b505b60008585600401546105ce919061195d565b905080156107f75760006127106105e361114a565b6105ed908461195d565b6105f7919061197c565b6003546002880154604080516321de0b0960e11b815290519394506001600160a01b03928316936323b872dd93339316916343bc16129160048083019260209291908290030181865afa158015610652573d6000803e3d6000fd5b505050506040513d601f19601f82011682018060405250810190610676919061199e565b6040516001600160e01b031960e085901b1681526001600160a01b03928316600482015291166024820152604481018490526064016020604051808303816000875af11580156106ca573d6000803e3d6000fd5b505050506040513d601f19601f820116820180604052508101906106ee91906119bb565b5060035460005460408051634783c35b60e01b815290516001600160a01b03938416936323b872dd93339361010090910490911691634783c35b916004808201926020929091908290030181865afa15801561074e573d6000803e3d6000fd5b505050506040513d601f19601f82011682018060405250810190610772919061199e565b61077c85876119dd565b6040516001600160e01b031960e086901b1681526001600160a01b03938416600482015292909116602483015260448201526064016020604051808303816000875af11580156107d0573d6000803e3d6000fd5b505050506040513d601f19601f820116820180604052508101906107f491906119bb565b50505b60005b8681101561087b576002860154604051636902622f60e11b81526001600160a01b039091169063d204c45e9061083690339088906004016119f4565b600060405180830381600087803b15801561085057600080fd5b505af1158015610864573d6000803e3d6000fd5b50505050808061087390611a20565b9150506107fa565b50604051868152879033907f63232c37f2c1fdcb4fc657df1cef6cabc7181c5b604530242590ffe5fa91ab749060200160405180910390a350505050505050565b604080516101408101825260008082526020820181905291810182905260608082018390526080820183905260a082015260c0810182905260e081018290526101008101829052610120810191909152600082815260056020908152604091829020825161014081018452815463ffffffff80821683526401000000008204811694830194909452600160401b8104841694820194909452600160601b840483166060820152600160801b909304909116608083015260018101805460a084019190610987906118cd565b80601f01602080910402602001604051908101604052809291908181526020018280546109b3906118cd565b8015610a005780601f106109d557610100808354040283529160200191610a00565b820191906000526020600020905b8154815290600101906020018083116109e357829003601f168201915b505050918352505060028201546001600160a01b03908116602083015260038301541660408201526004820154606082015260059091015460809091015292915050565b604080513360208083018290528284018790528351808403850181526060840185528051908201207f19457468657265756d205369676e6564204d6573736167653a0a3332000000006080850152609c808501919091528451808503909101815260bc840180865281519183019190912060015460dc601f890185900490940286018401909652868252929492936001600160a01b0390931692610b0492859291899189918291018382808284376000920191909152506112d892505050565b6001600160a01b031614610b4e5760405162461bcd60e51b8152602060048201526011602482015270496e76616c6964207369676e617475726560781b6044820152606401610260565b60025460405163f662781d60e01b81526001600160a01b0384811660048301528792169063f662781d90602401602060405180830381865afa158015610b98573d6000803e3d6000fd5b505050506040513d601f19601f82011682018060405250810190610bbc9190611a39565b1015610c2957600254604051630259ab7760e61b81526001600160a01b038481166004830152602482018890529091169063966addc090604401600060405180830381600087803b158015610c1057600080fd5b505af1158015610c24573d6000803e3d6000fd5b505050505b610c33878761021d565b50505050505050565b6005602052600090815260409020805460018201805463ffffffff808416946401000000008504821694600160401b8104831694600160601b8204841694600160801b9092049093169290610c90906118cd565b80601f0160208091040260200160405190810160405280929190818152602001828054610cbc906118cd565b8015610d095780601f10610cde57610100808354040283529160200191610d09565b820191906000526020600020905b815481529060010190602001808311610cec57829003601f168201915b5050505060028301546003840154600485015460059095015493946001600160a01b0392831694929091169250908a565b600054604051632474521560e21b81527fe303cb88ace8c9e6ba216f1aecb44b3206dcab364c60512ffc6cbc920a1bf9d160048201523360248201526101009091046001600160a01b0316906391d1485490604401602060405180830381865afa158015610dac573d6000803e3d6000fd5b505050506040513d601f19601f82011682018060405250810190610dd091906119bb565b610e0f5760405162461bcd60e51b815260206004820152601060248201526f41646d696e2063616c6c73206f6e6c7960801b6044820152606401610260565b6000610e1e6020830183611a64565b63ffffffff16118015610e575750610e396020820182611a64565b63ffffffff16610e4f6040830160208401611a64565b63ffffffff16115b610e935760405162461bcd60e51b815260206004820152600d60248201526c496e76616c69642074696d657360981b6044820152606401610260565b61012081013560009081526005602052604090208190610eb38282611c2d565b505050565b600054604051632474521560e21b81527fe303cb88ace8c9e6ba216f1aecb44b3206dcab364c60512ffc6cbc920a1bf9d160048201523360248201526101009091046001600160a01b0316906391d1485490604401602060405180830381865afa158015610f2a573d6000803e3d6000fd5b505050506040513d601f19601f82011682018060405250810190610f4e91906119bb565b610f8d5760405162461bcd60e51b815260206004820152601060248201526f41646d696e2063616c6c73206f6e6c7960801b6044820152606401610260565b60009182526005602052604090912060030180546001600160a01b0319166001600160a01b03909216919091179055565b60005460ff16156110045760405162461bcd60e51b815260206004820152601060248201526f14185d5cd8589b194e881c185d5cd95960821b6044820152606401610260565b565b60e08101516001600160a01b038116156110c7576040516320c18e6b60e21b8152336004820152600060248201526001600160a01b0382169063830639ac90604401602060405180830381865afa158015611065573d6000803e3d6000fd5b505050506040513d601f19601f8201168201806040525081019061108991906119bb565b6110c75760405162461bcd60e51b815260206004820152600f60248201526e139bdd081dda1a5d195b1a5cdd1959608a1b6044820152606401610260565b5050565b600254604051631e961d2760e01b81526001600160a01b038481166004830152602482018490526000921690631e961d27906044016020604051808303816000875af115801561111f573d6000803e3d6000fd5b505050506040513d601f19601f820116820180604052508101906111439190611a39565b9392505050565b600080546040516d616464726573732e636f6e66696760901b6020820152829161010090046001600160a01b0316906321f8a72190602e01604051602081830303815290604052805190602001206040518263ffffffff1660e01b81526004016111b691815260200190565b602060405180830381865afa1580156111d3573d6000803e3d6000fd5b505050506040513d601f19601f820116820180604052508101906111f7919061199e565b90506001600160a01b03811661121057611f4091505090565b6000816001600160a01b031663bd02d0f560405160200161124a90721cda185c994b9c1c9a5b585c9e505c9d1a5cdd606a1b815260130190565b604051602081830303815290604052805190602001206040518263ffffffff1660e01b815260040161127e91815260200190565b602060405180830381865afa15801561129b573d6000803e3d6000fd5b505050506040513d601f19601f820116820180604052508101906112bf9190611a39565b905080156112cd57806112d1565b611f405b9250505090565b60008060006112e785856112fc565b915091506112f481611341565b509392505050565b60008082516041036113325760208301516040840151606085015160001a611326878285856114fa565b9450945050505061133a565b506000905060025b9250929050565b600081600481111561135557611355611d87565b0361135d5750565b600181600481111561137157611371611d87565b036113be5760405162461bcd60e51b815260206004820152601860248201527f45434453413a20696e76616c6964207369676e617475726500000000000000006044820152606401610260565b60028160048111156113d2576113d2611d87565b0361141f5760405162461bcd60e51b815260206004820152601f60248201527f45434453413a20696e76616c6964207369676e6174757265206c656e677468006044820152606401610260565b600381600481111561143357611433611d87565b0361148b5760405162461bcd60e51b815260206004820152602260248201527f45434453413a20696e76616c6964207369676e6174757265202773272076616c604482015261756560f01b6064820152608401610260565b600481600481111561149f5761149f611d87565b036114f75760405162461bcd60e51b815260206004820152602260248201527f45434453413a20696e76616c6964207369676e6174757265202776272076616c604482015261756560f01b6064820152608401610260565b50565b6000807f7fffffffffffffffffffffffffffffff5d576e7357a4501ddfe92f46681b20a083111561153157506000905060036115de565b8460ff16601b1415801561154957508460ff16601c14155b1561155a57506000905060046115de565b6040805160008082526020820180845289905260ff881692820192909252606081018690526080810185905260019060a0016020604051602081039080840390855afa1580156115ae573d6000803e3d6000fd5b5050604051601f1901519150506001600160a01b0381166115d7576000600192509250506115de565b9150600090505b94509492505050565b600080604083850312156115fa57600080fd5b50508035926020909101359150565b60006020828403121561161b57600080fd5b5035919050565b6000815180845260005b818110156116485760208185018101518683018201520161162c565b8181111561165a576000602083870101525b50601f01601f19169290920160200192915050565b6020815261168660208201835163ffffffff169052565b6000602083015161169f604084018263ffffffff169052565b50604083015163ffffffff8116606084015250606083015163ffffffff8116608084015250608083015163ffffffff811660a08401525060a08301516101408060c08501526116f2610160850183611622565b915060c085015161170e60e08601826001600160a01b03169052565b5060e085015161010061172b818701836001600160a01b03169052565b860151610120868101919091529095015193019290925250919050565b60008060008060006080868803121561176057600080fd5b853594506020860135935060408601359250606086013567ffffffffffffffff8082111561178d57600080fd5b818801915088601f8301126117a157600080fd5b8135818111156117b057600080fd5b8960208285010111156117c257600080fd5b9699959850939650602001949392505050565b6001600160a01b03811681146114f757600080fd5b600080604083850312156117fd57600080fd5b82359150602083013561180f816117d5565b809150509250929050565b600061014063ffffffff808e168452808d166020850152808c166040850152808b166060850152808a166080850152508060a084015261185c81840189611622565b6001600160a01b0397881660c08501529590961660e08301525061010081019290925261012090910152979650505050505050565b6000602082840312156118a357600080fd5b813567ffffffffffffffff8111156118ba57600080fd5b8201610140818503121561114357600080fd5b600181811c908216806118e157607f821691505b60208210810361190157634e487b7160e01b600052602260045260246000fd5b50919050565b634e487b7160e01b600052601160045260246000fd5b6000821982111561193057611930611907565b500190565b600063ffffffff80831681851680830382111561195457611954611907565b01949350505050565b600081600019048311821515161561197757611977611907565b500290565b60008261199957634e487b7160e01b600052601260045260246000fd5b500490565b6000602082840312156119b057600080fd5b8151611143816117d5565b6000602082840312156119cd57600080fd5b8151801515811461114357600080fd5b6000828210156119ef576119ef611907565b500390565b6001600160a01b0383168152604060208201819052600090611a1890830184611622565b949350505050565b600060018201611a3257611a32611907565b5060010190565b600060208284031215611a4b57600080fd5b5051919050565b63ffffffff811681146114f757600080fd5b600060208284031215611a7657600080fd5b813561114381611a52565b60008135611a8e81611a52565b92915050565b6000808335601e19843603018112611aab57600080fd5b83018035915067ffffffffffffffff821115611ac657600080fd5b60200191503681900382131561133a57600080fd5b634e487b7160e01b600052604160045260246000fd5b601f821115610eb357600081815260208120601f850160051c81016020861015611b185750805b601f850160051c820191505b81811015611b3757828155600101611b24565b505050505050565b67ffffffffffffffff831115611b5757611b57611adb565b611b6b83611b6583546118cd565b83611af1565b6000601f841160018114611b9f5760008515611b875750838201355b600019600387901b1c1916600186901b178355611bf9565b600083815260209020601f19861690835b82811015611bd05786850135825560209485019460019092019101611bb0565b5086821015611bed5760001960f88860031b161c19848701351681555b505060018560011b0183555b5050505050565b60008135611a8e816117d5565b80546001600160a01b0319166001600160a01b0392909216919091179055565b611c50611c3983611a81565b825463ffffffff191663ffffffff91909116178255565b611c81611c5f60208401611a81565b825467ffffffff00000000191660209190911b67ffffffff0000000016178255565b611cba611c9060408401611a81565b82546bffffffff0000000000000000191660409190911b6bffffffff000000000000000016178255565b611ced611cc960608401611a81565b82805463ffffffff60601b191660609290921b63ffffffff60601b16919091179055565b611d20611cfc60808401611a81565b82805463ffffffff60801b191660809290921b63ffffffff60801b16919091179055565b611d2d60a0830183611a94565b611d3b818360018601611b3f565b5050611d55611d4c60c08401611c00565b60028301611c0d565b611d6d611d6460e08401611c00565b60038301611c0d565b610100820135600482015561012082013560058201555050565b634e487b7160e01b600052602160045260246000fdfea264697066735822122056cd281281d5556209c89219d345d91de223a61e98d0b958179398d22ab45ef764736f6c634300080e0033",
  "linkReferences": {},
  "deployedLinkReferences": {}
}