{
  "_format": "hh-sol-artifact-1",
  "contractName": "SAGEOpenEdition",
  "sourceName": "contracts/OpenEdition/SAGEOpenEdition.sol",
  "abi": [
    {
      "inputs": [
        {
          "internalType": "address",
          "name": "_rewardsContract",
          "type": "address"
        },
        {
          "internalType": "address",
          "name": "_admin",
          "type": "address"
        },
        {
          "internalType": "address",
          "name": "_sageStorage",
          "type": "address"
        },
        {
          "internalType": "address",
          "name": "_token",
          "type": "address"
        }
      ],
      "stateMutability": "nonpayable",
      "type": "constructor"
    },
    {
      "anonymous": false,
      "inputs": [
        {
          "indexed": true,
          "internalType": "address",
          "name": "user",
          "type": "address"
        },
        {
          "indexed": true,
          "internalType": "uint256",
          "name": "id",
          "type": "uint256"
        },
        {
          "indexed": false,
          "internalType": "uint256",
          "name": "amount",
          "type": "uint256"
        }
      ],
      "name": "BatchMint",
      "type": "event"
    },
    {
      "anonymous": false,
      "inputs": [
        {
          "indexed": true,
          "internalType": "uint256",
          "name": "id",
          "type": "uint256"
        },
        {
          "indexed": true,
          "internalType": "address",
          "name": "nftContract",
          "type": "address"
        }
      ],
      "name": "OpenEditionCreated",
      "type": "event"
    },
    {
      "anonymous": false,
      "inputs": [
        {
          "indexed": false,
          "internalType": "address",
          "name": "account",
          "type": "address"
        }
      ],
      "name": "Paused",
      "type": "event"
    },
    {
      "anonymous": false,
      "inputs": [
        {
          "indexed": false,
          "internalType": "address",
          "name": "account",
          "type": "address"
        }
      ],
      "name": "Unpaused",
      "type": "event"
    },
    {
      "inputs": [],
      "name": "NATIVE_CURRENCY",
      "outputs": [
        {
          "internalType": "address",
          "name": "",
          "type": "address"
        }
      ],
      "stateMutability": "view",
      "type": "function"
    },
    {
      "inputs": [
        {
          "internalType": "uint256",
          "name": "_id",
          "type": "uint256"
        },
        {
          "internalType": "uint256",
          "name": "_amount",
          "type": "uint256"
        }
      ],
      "name": "batchMint",
      "outputs": [],
      "stateMutability": "payable",
      "type": "function"
    },
    {
      "inputs": [
        {
          "internalType": "uint256",
          "name": "_id",
          "type": "uint256"
        },
        {
          "internalType": "uint256",
          "name": "_amount",
          "type": "uint256"
        },
        {
          "internalType": "uint256",
          "name": "_points",
          "type": "uint256"
        },
        {
          "internalType": "bytes",
          "name": "_sig",
          "type": "bytes"
        }
      ],
      "name": "claimPointsAndMint",
      "outputs": [],
      "stateMutability": "payable",
      "type": "function"
    },
    {
      "inputs": [
        {
          "components": [
            {
              "internalType": "uint32",
              "name": "startTime",
              "type": "uint32"
            },
            {
              "internalType": "uint32",
              "name": "closeTime",
              "type": "uint32"
            },
            {
              "internalType": "uint32",
              "name": "costPoints",
              "type": "uint32"
            },
            {
              "internalType": "uint32",
              "name": "limitPerUser",
              "type": "uint32"
            },
            {
              "internalType": "uint32",
              "name": "mintCount",
              "type": "uint32"
            },
            {
              "internalType": "string",
              "name": "nftUri",
              "type": "string"
            },
            {
              "internalType": "contract INFT",
              "name": "nftContract",
              "type": "address"
            },
            {
              "internalType": "contract IWhitelist",
              "name": "whitelist",
              "type": "address"
            },
            {
              "internalType": "uint256",
              "name": "costTokens",
              "type": "uint256"
            },
            {
              "internalType": "uint256",
              "name": "id",
              "type": "uint256"
            },
            {
              "internalType": "address",
              "name": "currency",
              "type": "address"
            }
          ],
          "internalType": "struct SAGEOpenEdition.OpenEdition",
          "name": "oe",
          "type": "tuple"
        }
      ],
      "name": "createOpenEdition",
      "outputs": [],
      "stateMutability": "nonpayable",
      "type": "function"
    },
    {
      "inputs": [
        {
          "internalType": "uint256",
          "name": "",
          "type": "uint256"
        }
      ],
      "name": "editionArtistShare",
      "outputs": [
        {
          "internalType": "uint256",
          "name": "",
          "type": "uint256"
        }
      ],
      "stateMutability": "view",
      "type": "function"
    },
    {
      "inputs": [
        {
          "internalType": "uint256",
          "name": "_id",
          "type": "uint256"
        }
      ],
      "name": "getMintCount",
      "outputs": [
        {
          "internalType": "uint32",
          "name": "",
          "type": "uint32"
        }
      ],
      "stateMutability": "view",
      "type": "function"
    },
    {
      "inputs": [
        {
          "internalType": "uint256",
          "name": "_id",
          "type": "uint256"
        }
      ],
      "name": "getOpenEdition",
      "outputs": [
        {
          "components": [
            {
              "internalType": "uint32",
              "name": "startTime",
              "type": "uint32"
            },
            {
              "internalType": "uint32",
              "name": "closeTime",
              "type": "uint32"
            },
            {
              "internalType": "uint32",
              "name": "costPoints",
              "type": "uint32"
            },
            {
              "internalType": "uint32",
              "name": "limitPerUser",
              "type": "uint32"
            },
            {
              "internalType": "uint32",
              "name": "mintCount",
              "type": "uint32"
            },
            {
              "internalType": "string",
              "name": "nftUri",
              "type": "string"
            },
            {
              "internalType": "contract INFT",
              "name": "nftContract",
              "type": "address"
            },
            {
              "internalType": "contract IWhitelist",
              "name": "whitelist",
              "type": "address"
            },
            {
              "internalType": "uint256",
              "name": "costTokens",
              "type": "uint256"
            },
            {
              "internalType": "uint256",
              "name": "id",
              "type": "uint256"
            },
            {
              "internalType": "address",
              "name": "currency",
              "type": "address"
            }
          ],
          "internalType": "struct SAGEOpenEdition.OpenEdition",
          "name": "",
          "type": "tuple"
        }
      ],
      "stateMutability": "view",
      "type": "function"
    },
    {
      "inputs": [
        {
          "internalType": "uint256",
          "name": "",
          "type": "uint256"
        },
        {
          "internalType": "address",
          "name": "",
          "type": "address"
        }
      ],
      "name": "mintedByUser",
      "outputs": [
        {
          "internalType": "uint256",
          "name": "",
          "type": "uint256"
        }
      ],
      "stateMutability": "view",
      "type": "function"
    },
    {
      "inputs": [
        {
          "internalType": "uint256",
          "name": "",
          "type": "uint256"
        }
      ],
      "name": "openEditions",
      "outputs": [
        {
          "internalType": "uint32",
          "name": "startTime",
          "type": "uint32"
        },
        {
          "internalType": "uint32",
          "name": "closeTime",
          "type": "uint32"
        },
        {
          "internalType": "uint32",
          "name": "costPoints",
          "type": "uint32"
        },
        {
          "internalType": "uint32",
          "name": "limitPerUser",
          "type": "uint32"
        },
        {
          "internalType": "uint32",
          "name": "mintCount",
          "type": "uint32"
        },
        {
          "internalType": "string",
          "name": "nftUri",
          "type": "string"
        },
        {
          "internalType": "contract INFT",
          "name": "nftContract",
          "type": "address"
        },
        {
          "internalType": "contract IWhitelist",
          "name": "whitelist",
          "type": "address"
        },
        {
          "internalType": "uint256",
          "name": "costTokens",
          "type": "uint256"
        },
        {
          "internalType": "uint256",
          "name": "id",
          "type": "uint256"
        },
        {
          "internalType": "address",
          "name": "currency",
          "type": "address"
        }
      ],
      "stateMutability": "view",
      "type": "function"
    },
    {
      "inputs": [],
      "name": "paused",
      "outputs": [
        {
          "internalType": "bool",
          "name": "",
          "type": "bool"
        }
      ],
      "stateMutability": "view",
      "type": "function"
    },
    {
      "inputs": [],
      "name": "rewardsContract",
      "outputs": [
        {
          "internalType": "contract IRewards",
          "name": "",
          "type": "address"
        }
      ],
      "stateMutability": "view",
      "type": "function"
    },
    {
      "inputs": [
        {
          "internalType": "uint256",
          "name": "_id",
          "type": "uint256"
        },
        {
          "internalType": "uint256",
          "name": "_shareBps",
          "type": "uint256"
        }
      ],
      "name": "setEditionArtistShare",
      "outputs": [],
      "stateMutability": "nonpayable",
      "type": "function"
    },
    {
      "inputs": [
        {
          "internalType": "uint256",
          "name": "_id",
          "type": "uint256"
        },
        {
          "internalType": "address",
          "name": "_whitelist",
          "type": "address"
        }
      ],
      "name": "setWhitelist",
      "outputs": [],
      "stateMutability": "nonpayable",
      "type": "function"
    },
    {
      "inputs": [],
      "name": "token",
      "outputs": [
        {
          "internalType": "contract IERC20",
          "name": "",
          "type": "address"
        }
      ],
      "stateMutability": "view",
      "type": "function"
    }
  ],
  "bytecode": "0x60806040523480156200001157600080fd5b50604051620025d3380380620025d38339810160408190526200003491620000ac565b600080546001600160a81b0319166101006001600160a01b0394851602179055600380546001600160a01b03199081169284169290921790556002805482169483169490941790935560018054909316911617905562000109565b80516001600160a01b0381168114620000a757600080fd5b919050565b60008060008060808587031215620000c357600080fd5b620000ce856200008f565b9350620000de602086016200008f565b9250620000ee604086016200008f565b9150620000fe606086016200008f565b905092959194509250565b6124ba80620001196000396000f3fe6080604052600436106100dd5760003560e01c8063693435271161007f578063bdbc97dd11610059578063bdbc97dd1461028d578063d89da286146102ad578063db09a3f5146102cd578063fc0c546a1461031c57600080fd5b80636934352714610209578063a753d98114610236578063a89c8f4f1461025657600080fd5b806328c622a5116100bb57806328c622a51461016557806349f42650146101785780635c975abb146101a057806363c060aa146101c357600080fd5b80630ed64eff146100e25780631e6541c4146100f7578063220cce971461012d575b600080fd5b6100f56100f0366004611c4d565b61033c565b005b34801561010357600080fd5b50610117610112366004611c6f565b610d35565b6040516101249190611cd5565b60405180910390f35b34801561013957600080fd5b5060025461014d906001600160a01b031681565b6040516001600160a01b039091168152602001610124565b6100f5610173366004611dc4565b610ed3565b34801561018457600080fd5b5061014d73eeeeeeeeeeeeeeeeeeeeeeeeeeeeeeeeeeeeeeee81565b3480156101ac57600080fd5b5060005460ff166040519015158152602001610124565b3480156101cf57600080fd5b506101fb6101de366004611e66565b600460209081526000928352604080842090915290825290205481565b604051908152602001610124565b34801561021557600080fd5b506101fb610224366004611c6f565b60066020526000908152604090205481565b34801561024257600080fd5b506100f5610251366004611c4d565b6110cb565b34801561026257600080fd5b50610276610271366004611c6f565b61122a565b6040516101249b9a99989796959493929190611e96565b34801561029957600080fd5b506100f56102a8366004611f1b565b61132f565b3480156102b957600080fd5b506100f56102c8366004611e66565b611541565b3480156102d957600080fd5b506103076102e8366004611c6f565b600090815260056020526040902054600160801b900463ffffffff1690565b60405163ffffffff9091168152602001610124565b34801561032857600080fd5b5060035461014d906001600160a01b031681565b610344611624565b600081116103885760405162461bcd60e51b815260206004820152600c60248201526b043616e2774206d696e7420360a41b60448201526064015b60405180910390fd5b600082815260056020526040902080544263ffffffff909116118015906103be575080544264010000000090910463ffffffff16115b6103f55760405162461bcd60e51b81526020600482015260086024820152672737ba1037b832b760c11b604482015260640161037f565b6040805161016081018252825463ffffffff8082168352640100000000820481166020840152600160401b8204811693830193909352600160601b810483166060830152600160801b9004909116608082015260018201805461052e9291849160a08401919061046490611f57565b80601f016020809104026020016040519081016040528092919081815260200182805461049090611f57565b80156104dd5780601f106104b2576101008083540402835291602001916104dd565b820191906000526020600020905b8154815290600101906020018083116104c057829003601f168201915b505050918352505060028201546001600160a01b039081166020830152600383015481166040830152600483015460608301526005830154608083015260069092015490911660a09091015261166c565b60008381526004602090815260408083203384529091529020548154600160601b900463ffffffff16156105b8578154600160601b900463ffffffff166105758285611fa7565b11156105b85760405162461bcd60e51b8152602060048201526012602482015271135a5b9d081b1a5b5a5d081c995858da195960721b604482015260640161037f565b6000848152600460209081526040808320338452909152812080548592906105e1908490611fa7565b9091555050815483908390601090610607908490600160801b900463ffffffff16611fbf565b92506101000a81548163ffffffff021916908363ffffffff160217905550600082600101805461063690611f57565b80601f016020809104026020016040519081016040528092919081815260200182805461066290611f57565b80156106af5780601f10610684576101008083540402835291602001916106af565b820191906000526020600020905b81548152906001019060200180831161069257829003601f168201915b505086549394506000936106d59350600160401b900463ffffffff169150879050611fe7565b905080156106e9576106e73382611731565b505b60008585600401546106fb9190611fe7565b90508015610c335760008781526006602052604081205490819003610725576107226117b0565b90505b60006127106107348385611fe7565b61073e9190612006565b60068801549091506001600160a01b031673eeeeeeeeeeeeeeeeeeeeeeeeeeeeeeeeeeeeeeed19016109e0578234146107ac5760405162461bcd60e51b815260206004820152601060248201526f15dc9bdb99c811551208185b5bdd5b9d60821b604482015260640161037f565b6002870154604080516321de0b0960e11b815290516000926001600160a01b0316916343bc16129160048083019260209291908290030181865afa1580156107f8573d6000803e3d6000fd5b505050506040513d601f19601f8201168201806040525081019061081c9190612028565b6001600160a01b03168260405160006040518083038185875af1925050503d8060008114610866576040519150601f19603f3d011682016040523d82523d6000602084013e61086b565b606091505b50509050806108bc5760405162461bcd60e51b815260206004820152601a60248201527f41727469737420455448207472616e73666572206661696c6564000000000000604482015260640161037f565b60008060019054906101000a90046001600160a01b03166001600160a01b0316634783c35b6040518163ffffffff1660e01b8152600401602060405180830381865afa158015610910573d6000803e3d6000fd5b505050506040513d601f19601f820116820180604052508101906109349190612028565b6001600160a01b03166109478487612045565b604051600081818185875af1925050503d8060008114610983576040519150601f19603f3d011682016040523d82523d6000602084013e610988565b606091505b50509050806109d95760405162461bcd60e51b815260206004820152601c60248201527f506c6174666f726d20455448207472616e73666572206661696c656400000000604482015260640161037f565b5050610c2c565b3415610a2e5760405162461bcd60e51b815260206004820152601c60248201527f45646974696f6e206973206e6f742070726963656420696e2045544800000000604482015260640161037f565b6003546002880154604080516321de0b0960e11b815290516001600160a01b03938416936323b872dd9333939116916343bc1612916004808201926020929091908290030181865afa158015610a88573d6000803e3d6000fd5b505050506040513d601f19601f82011682018060405250810190610aac9190612028565b6040516001600160e01b031960e085901b1681526001600160a01b03928316600482015291166024820152604481018490526064016020604051808303816000875af1158015610b00573d6000803e3d6000fd5b505050506040513d601f19601f82011682018060405250810190610b24919061205c565b5060035460005460408051634783c35b60e01b815290516001600160a01b03938416936323b872dd93339361010090910490911691634783c35b916004808201926020929091908290030181865afa158015610b84573d6000803e3d6000fd5b505050506040513d601f19601f82011682018060405250810190610ba89190612028565b610bb28588612045565b6040516001600160e01b031960e086901b1681526001600160a01b03938416600482015292909116602483015260448201526064016020604051808303816000875af1158015610c06573d6000803e3d6000fd5b505050506040513d601f19601f82011682018060405250810190610c2a919061205c565b505b5050610c70565b3415610c705760405162461bcd60e51b815260206004820152600c60248201526b4d696e74206973206672656560a01b604482015260640161037f565b60005b86811015610cf4576002860154604051636902622f60e11b81526001600160a01b039091169063d204c45e90610caf903390889060040161207e565b600060405180830381600087803b158015610cc957600080fd5b505af1158015610cdd573d6000803e3d6000fd5b505050508080610cec906120aa565b915050610c73565b50604051868152879033907f63232c37f2c1fdcb4fc657df1cef6cabc7181c5b604530242590ffe5fa91ab749060200160405180910390a350505050505050565b604080516101608101825260008082526020820181905291810182905260608082018390526080820183905260a082015260c0810182905260e0810182905261010081018290526101208101829052610140810191909152600082815260056020908152604091829020825161016081018452815463ffffffff80821683526401000000008204811694830194909452600160401b8104841694820194909452600160601b840483166060820152600160801b909304909116608083015260018101805460a084019190610e0890611f57565b80601f0160208091040260200160405190810160405280929190818152602001828054610e3490611f57565b8015610e815780601f10610e5657610100808354040283529160200191610e81565b820191906000526020600020905b815481529060010190602001808311610e6457829003601f168201915b505050918352505060028201546001600160a01b039081166020830152600383015481166040830152600483015460608301526005830154608083015260069092015490911660a09091015292915050565b604080513360208083018290528284018790528351808403850181526060840185528051908201207f19457468657265756d205369676e6564204d6573736167653a0a3332000000006080850152609c808501919091528451808503909101815260bc840180865281519183019190912060015460dc601f890185900490940286018401909652868252929492936001600160a01b0390931692610f93928592918991899182910183828082843760009201919091525061193e92505050565b6001600160a01b031614610fdd5760405162461bcd60e51b8152602060048201526011602482015270496e76616c6964207369676e617475726560781b604482015260640161037f565b60025460405163f662781d60e01b81526001600160a01b0384811660048301528792169063f662781d90602401602060405180830381865afa158015611027573d6000803e3d6000fd5b505050506040513d601f19601f8201168201806040525081019061104b91906120c3565b10156110b857600254604051630259ab7760e61b81526001600160a01b038481166004830152602482018890529091169063966addc090604401600060405180830381600087803b15801561109f57600080fd5b505af11580156110b3573d6000803e3d6000fd5b505050505b6110c2878761033c565b50505050505050565b600054604051632474521560e21b81527fe303cb88ace8c9e6ba216f1aecb44b3206dcab364c60512ffc6cbc920a1bf9d160048201523360248201526101009091046001600160a01b0316906391d1485490604401602060405180830381865afa15801561113d573d6000803e3d6000fd5b505050506040513d601f19601f82011682018060405250810190611161919061205c565b61117d5760405162461bcd60e51b815260040161037f906120dc565b6127108111156111bf5760405162461bcd60e51b815260206004820152600d60248201526c496e76616c696420736861726560981b604482015260640161037f565b60008281526005602052604090205463ffffffff166112185760405162461bcd60e51b815260206004820152601560248201527411591a5d1a5bdb88191bd95cdb89dd08195e1a5cdd605a1b604482015260640161037f565b60009182526006602052604090912055565b6005602052600090815260409020805460018201805463ffffffff808416946401000000008504821694600160401b8104831694600160601b8204841694600160801b909204909316929061127e90611f57565b80601f01602080910402602001604051908101604052809291908181526020018280546112aa90611f57565b80156112f75780601f106112cc576101008083540402835291602001916112f7565b820191906000526020600020905b8154815290600101906020018083116112da57829003601f168201915b505050600284015460038501546004860154600587015460069097015495966001600160a01b0393841696928416955090935091168b565b600054604051632474521560e21b81527fe303cb88ace8c9e6ba216f1aecb44b3206dcab364c60512ffc6cbc920a1bf9d160048201523360248201526101009091046001600160a01b0316906391d1485490604401602060405180830381865afa1580156113a1573d6000803e3d6000fd5b505050506040513d601f19601f820116820180604052508101906113c5919061205c565b6113e15760405162461bcd60e51b815260040161037f906120dc565b60006113f06020830183612118565b63ffffffff16118015611429575061140b6020820182612118565b63ffffffff166114216040830160208401612118565b63ffffffff16115b6114655760405162461bcd60e51b815260206004820152600d60248201526c496e76616c69642074696d657360981b604482015260640161037f565b600061147961016083016101408401612135565b6001600160a01b031614806114bb575073eeeeeeeeeeeeeeeeeeeeeeeeeeeeeeeeeeeeeeee6114b061016083016101408401612135565b6001600160a01b0316145b6114fe5760405162461bcd60e51b8152602060048201526014602482015273556e737570706f727465642063757272656e637960601b604482015260640161037f565b6101208101356000908152600560205260409020819061151e82826122ff565b9050506115296117b0565b61012090910135600090815260066020526040902055565b600054604051632474521560e21b81527fe303cb88ace8c9e6ba216f1aecb44b3206dcab364c60512ffc6cbc920a1bf9d160048201523360248201526101009091046001600160a01b0316906391d1485490604401602060405180830381865afa1580156115b3573d6000803e3d6000fd5b505050506040513d601f19601f820116820180604052508101906115d7919061205c565b6115f35760405162461bcd60e51b815260040161037f906120dc565b60009182526005602052604090912060030180546001600160a01b0319166001600160a01b03909216919091179055565b60005460ff161561166a5760405162461bcd60e51b815260206004820152601060248201526f14185d5cd8589b194e881c185d5cd95960821b604482015260640161037f565b565b60e08101516001600160a01b0381161561172d576040516320c18e6b60e21b8152336004820152600060248201526001600160a01b0382169063830639ac90604401602060405180830381865afa1580156116cb573d6000803e3d6000fd5b505050506040513d601f19601f820116820180604052508101906116ef919061205c565b61172d5760405162461bcd60e51b815260206004820152600f60248201526e139bdd081dda1a5d195b1a5cdd1959608a1b604482015260640161037f565b5050565b600254604051631e961d2760e01b81526001600160a01b038481166004830152602482018490526000921690631e961d27906044016020604051808303816000875af1158015611785573d6000803e3d6000fd5b505050506040513d601f19601f820116820180604052508101906117a991906120c3565b9392505050565b600080546040516d616464726573732e636f6e66696760901b6020820152829161010090046001600160a01b0316906321f8a72190602e01604051602081830303815290604052805190602001206040518263ffffffff1660e01b815260040161181c91815260200190565b602060405180830381865afa158015611839573d6000803e3d6000fd5b505050506040513d601f19601f8201168201806040525081019061185d9190612028565b90506001600160a01b03811661187657611f4091505090565b6000816001600160a01b031663bd02d0f56040516020016118b090721cda185c994b9c1c9a5b585c9e505c9d1a5cdd606a1b815260130190565b604051602081830303815290604052805190602001206040518263ffffffff1660e01b81526004016118e491815260200190565b602060405180830381865afa158015611901573d6000803e3d6000fd5b505050506040513d601f19601f8201168201806040525081019061192591906120c3565b905080156119335780611937565b611f405b9250505090565b600080600061194d8585611962565b9150915061195a816119a7565b509392505050565b60008082516041036119985760208301516040840151606085015160001a61198c87828585611b60565b945094505050506119a0565b506000905060025b9250929050565b60008160048111156119bb576119bb61246e565b036119c35750565b60018160048111156119d7576119d761246e565b03611a245760405162461bcd60e51b815260206004820152601860248201527f45434453413a20696e76616c6964207369676e61747572650000000000000000604482015260640161037f565b6002816004811115611a3857611a3861246e565b03611a855760405162461bcd60e51b815260206004820152601f60248201527f45434453413a20696e76616c6964207369676e6174757265206c656e67746800604482015260640161037f565b6003816004811115611a9957611a9961246e565b03611af15760405162461bcd60e51b815260206004820152602260248201527f45434453413a20696e76616c6964207369676e6174757265202773272076616c604482015261756560f01b606482015260840161037f565b6004816004811115611b0557611b0561246e565b03611b5d5760405162461bcd60e51b815260206004820152602260248201527f45434453413a20696e76616c6964207369676e6174757265202776272076616c604482015261756560f01b606482015260840161037f565b50565b6000807f7fffffffffffffffffffffffffffffff5d576e7357a4501ddfe92f46681b20a0831115611b975750600090506003611c44565b8460ff16601b14158015611baf57508460ff16601c14155b15611bc05750600090506004611c44565b6040805160008082526020820180845289905260ff881692820192909252606081018690526080810185905260019060a0016020604051602081039080840390855afa158015611c14573d6000803e3d6000fd5b5050604051601f1901519150506001600160a01b038116611c3d57600060019250925050611c44565b9150600090505b94509492505050565b60008060408385031215611c6057600080fd5b50508035926020909101359150565b600060208284031215611c8157600080fd5b5035919050565b6000815180845260005b81811015611cae57602081850181015186830182015201611c92565b81811115611cc0576000602083870101525b50601f01601f19169290920160200192915050565b60208152611cec60208201835163ffffffff169052565b60006020830151611d05604084018263ffffffff169052565b50604083015163ffffffff8116606084015250606083015163ffffffff8116608084015250608083015163ffffffff811660a08401525060a08301516101608060c0850152611d58610180850183611c88565b915060c0850151611d7460e08601826001600160a01b03169052565b5060e0850151610100611d91818701836001600160a01b03169052565b8601516101208681019190915286015161014080870191909152909501516001600160a01b031693019290925250919050565b600080600080600060808688031215611ddc57600080fd5b853594506020860135935060408601359250606086013567ffffffffffffffff80821115611e0957600080fd5b818801915088601f830112611e1d57600080fd5b813581811115611e2c57600080fd5b896020828501011115611e3e57600080fd5b9699959850939650602001949392505050565b6001600160a01b0381168114611b5d57600080fd5b60008060408385031215611e7957600080fd5b823591506020830135611e8b81611e51565b809150509250929050565b600061016063ffffffff808f168452808e166020850152808d166040850152808c166060850152808b166080850152508060a0840152611ed88184018a611c88565b6001600160a01b0398891660c085015296881660e08401525050610100810193909352610120830191909152909216610140909201919091529695505050505050565b600060208284031215611f2d57600080fd5b813567ffffffffffffffff811115611f4457600080fd5b820161016081850312156117a957600080fd5b600181811c90821680611f6b57607f821691505b602082108103611f8b57634e487b7160e01b600052602260045260246000fd5b50919050565b634e487b7160e01b600052601160045260246000fd5b60008219821115611fba57611fba611f91565b500190565b600063ffffffff808316818516808303821115611fde57611fde611f91565b01949350505050565b600081600019048311821515161561200157612001611f91565b500290565b60008261202357634e487b7160e01b600052601260045260246000fd5b500490565b60006020828403121561203a57600080fd5b81516117a981611e51565b60008282101561205757612057611f91565b500390565b60006020828403121561206e57600080fd5b815180151581146117a957600080fd5b6001600160a01b03831681526040602082018190526000906120a290830184611c88565b949350505050565b6000600182016120bc576120bc611f91565b5060010190565b6000602082840312156120d557600080fd5b5051919050565b60208082526010908201526f41646d696e2063616c6c73206f6e6c7960801b604082015260600190565b63ffffffff81168114611b5d57600080fd5b60006020828403121561212a57600080fd5b81356117a981612106565b60006020828403121561214757600080fd5b81356117a981611e51565b6000813561215f81612106565b92915050565b6000808335601e1984360301811261217c57600080fd5b83018035915067ffffffffffffffff82111561219757600080fd5b6020019150368190038213156119a057600080fd5b634e487b7160e01b600052604160045260246000fd5b601f82111561220c57600081815260208120601f850160051c810160208610156121e95750805b601f850160051c820191505b81811015612208578281556001016121f5565b5050505b505050565b67ffffffffffffffff831115612229576122296121ac565b61223d836122378354611f57565b836121c2565b6000601f84116001811461227157600085156122595750838201355b600019600387901b1c1916600186901b1783556122cb565b600083815260209020601f19861690835b828110156122a25786850135825560209485019460019092019101612282565b50868210156122bf5760001960f88860031b161c19848701351681555b505060018560011b0183555b5050505050565b6000813561215f81611e51565b80546001600160a01b0319166001600160a01b0392909216919091179055565b61232261230b83612152565b825463ffffffff191663ffffffff91909116178255565b61235361233160208401612152565b825467ffffffff00000000191660209190911b67ffffffff0000000016178255565b61238c61236260408401612152565b82546bffffffff0000000000000000191660409190911b6bffffffff000000000000000016178255565b6123bf61239b60608401612152565b82805463ffffffff60601b191660609290921b63ffffffff60601b16919091179055565b6123f26123ce60808401612152565b82805463ffffffff60801b191660809290921b63ffffffff60801b16919091179055565b6123ff60a0830183612165565b61240d818360018601612211565b505061242761241e60c084016122d2565b600283016122df565b61243f61243660e084016122d2565b600383016122df565b6101008201356004820155610120820135600582015561172d61246561014084016122d2565b600683016122df565b634e487b7160e01b600052602160045260246000fdfea2646970667358221220f37f217331bf3ccc30b28448a0372b408b6469a931da56b4b99ec4c4f86904c264736f6c634300080e0033",
  "linkReferences": {},
  "deployedLinkReferences": {}
}