{
  "_format": "hh-sol-artifact-1",
  "contractName": "SAGEOpenEdition",
  "sourceName": "contracts/OpenEdition/SAGEOpenEdition.sol",
  "abi": [
    {
      "inputs": [
        {
          "internalType": "address",
          "name": "_rewardsContract",
          "type": "address"
        },
        {
          "internalType": "address",
          "name": "_admin",
          "type": "address"
        },
        {
          "internalType": "address",
          "name": "_sageStorage",
          "type": "address"
        },
        {
          "internalType": "address",
          "name": "_token",
          "type": "address"
        }
      ],
      "stateMutability": "nonpayable",
      "type": "constructor"
    },
    {
      "anonymous": false,
      "inputs": [
        {
          "indexed": true,
          "internalType": "address",
          "name": "user",
          "type": "address"
        },
        {
          "indexed": true,
          "internalType": "uint256",
          "name": "id",
          "type": "uint256"
        },
        {
          "indexed": false,
          "internalType": "uint256",
          "name": "amount",
          "type": "uint256"
        }
      ],
      "name": "BatchMint",
      "type": "event"
    },
    {
      "anonymous": false,
      "inputs": [
        {
          "indexed": true,
          "internalType": "uint256",
          "name": "id",
          "type": "uint256"
        },
        {
          "indexed": true,
          "internalType": "address",
          "name": "nftContract",
          "type": "address"
        }
      ],
      "name": "OpenEditionCreated",
      "type": "event"
    },
    {
      "anonymous": false,
      "inputs": [
        {
          "indexed": false,
          "internalType": "address",
          "name": "account",
          "type": "address"
        }
      ],
      "name": "Paused",
      "type": "event"
    },
    {
      "anonymous": false,
      "inputs": [
        {
          "indexed": false,
          "internalType": "address",
          "name": "account",
          "type": "address"
        }
      ],
      "name": "Unpaused",
      "type": "event"
    },
    {
      "inputs": [],
      "name": "NATIVE_CURRENCY",
      "outputs": [
        {
          "internalType": "address",
          "name": "",
          "type": "address"
        }
      ],
      "stateMutability": "view",
      "type": "function"
    },
    {
      "inputs": [
        {
          "internalType": "uint256",
          "name": "_id",
          "type": "uint256"
        },
        {
          "internalType": "uint256",
          "name": "_amount",
          "type": "uint256"
        }
      ],
      "name": "batchMint",
      "outputs": [],
      "stateMutability": "payable",
      "type": "function"
    },
    {
      "inputs": [
        {
          "internalType": "uint256",
          "name": "_id",
          "type": "uint256"
        },
        {
          "internalType": "uint256",
          "name": "_amount",
          "type": "uint256"
        },
        {
          "internalType": "uint256",
          "name": "_deadline",
          "type": "uint256"
        },
        {
          "internalType": "bytes",
          "name": "_sig",
          "type": "bytes"
        }
      ],
      "name": "batchMintWithVoucher",
      "outputs": [],
      "stateMutability": "payable",
      "type": "function"
    },
    {
      "inputs": [
        {
          "internalType": "uint256",
          "name": "_id",
          "type": "uint256"
        },
        {
          "internalType": "uint256",
          "name": "_amount",
          "type": "uint256"
        },
        {
          "internalType": "uint256",
          "name": "_points",
          "type": "uint256"
        },
        {
          "internalType": "bytes",
          "name": "_sig",
          "type": "bytes"
        }
      ],
      "name": "claimPointsAndMint",
      "outputs": [],
      "stateMutability": "payable",
      "type": "function"
    },
    {
      "inputs": [
        {
          "components": [
            {
              "internalType": "uint32",
              "name": "startTime",
              "type": "uint32"
            },
            {
              "internalType": "uint32",
              "name": "closeTime",
              "type": "uint32"
            },
            {
              "internalType": "uint32",
              "name": "costPoints",
              "type": "uint32"
            },
            {
              "internalType": "uint32",
              "name": "limitPerUser",
              "type": "uint32"
            },
            {
              "internalType": "uint32",
              "name": "mintCount",
              "type": "uint32"
            },
            {
              "internalType": "string",
              "name": "nftUri",
              "type": "string"
            },
            {
              "internalType": "contract INFT",
              "name": "nftContract",
              "type": "address"
            },
            {
              "internalType": "contract IWhitelist",
              "name": "whitelist",
              "type": "address"
            },
            {
              "internalType": "uint256",
              "name": "costTokens",
              "type": "uint256"
            },
            {
              "internalType": "uint256",
              "name": "id",
              "type": "uint256"
            },
            {
              "internalType": "address",
              "name": "currency",
              "type": "address"
            },
            {
              "internalType": "bool",
              "name": "voucherGated",
              "type": "bool"
            }
          ],
          "internalType": "struct SAGEOpenEdition.OpenEdition",
          "name": "oe",
          "type": "tuple"
        }
      ],
      "name": "createOpenEdition",
      "outputs": [],
      "stateMutability": "nonpayable",
      "type": "function"
    },
    {
      "inputs": [
        {
          "internalType": "uint256",
          "name": "",
          "type": "uint256"
        }
      ],
      "name": "editionArtistShare",
      "outputs": [
        {
          "internalType": "uint256",
          "name": "",
          "type": "uint256"
        }
      ],
      "stateMutability": "view",
      "type": "function"
    },
    {
      "inputs": [
        {
          "internalType": "uint256",
          "name": "_id",
          "type": "uint256"
        }
      ],
      "name": "getMintCount",
      "outputs": [
        {
          "internalType": "uint32",
          "name": "",
          "type": "uint32"
        }
      ],
      "stateMutability": "view",
      "type": "function"
    },
    {
      "inputs": [
        {
          "internalType": "uint256",
          "name": "_id",
          "type": "uint256"
        }
      ],
      "name": "getOpenEdition",
      "outputs": [
        {
          "components": [
            {
              "internalType": "uint32",
              "name": "startTime",
              "type": "uint32"
            },
            {
              "internalType": "uint32",
              "name": "closeTime",
              "type": "uint32"
            },
            {
              "internalType": "uint32",
              "name": "costPoints",
              "type": "uint32"
            },
            {
              "internalType": "uint32",
              "name": "limitPerUser",
              "type": "uint32"
            },
            {
              "internalType": "uint32",
              "name": "mintCount",
              "type": "uint32"
            },
            {
              "internalType": "string",
              "name": "nftUri",
              "type": "string"
            },
            {
              "internalType": "contract INFT",
              "name": "nftContract",
              "type": "address"
            },
            {
              "internalType": "contract IWhitelist",
              "name": "whitelist",
              "type": "address"
            },
            {
              "internalType": "uint256",
              "name": "costTokens",
              "type": "uint256"
            },
            {
              "internalType": "uint256",
              "name": "id",
              "type": "uint256"
            },
            {
              "internalType": "address",
              "name": "currency",
              "type": "address"
            },
            {
              "internalType": "bool",
              "name": "voucherGated",
              "type": "bool"
            }
          ],
          "internalType": "struct SAGEOpenEdition.OpenEdition",
          "name": "",
          "type": "tuple"
        }
      ],
      "stateMutability": "view",
      "type": "function"
    },
    {
      "inputs": [
        {
          "internalType": "uint256",
          "name": "",
          "type": "uint256"
        },
        {
          "internalType": "address",
          "name": "",
          "type": "address"
        }
      ],
      "name": "mintedByUser",
      "outputs": [
        {
          "internalType": "uint256",
          "name": "",
          "type": "uint256"
        }
      ],
      "stateMutability": "view",
      "type": "function"
    },
    {
      "inputs": [
        {
          "internalType": "uint256",
          "name": "",
          "type": "uint256"
        }
      ],
      "name": "openEditions",
      "outputs": [
        {
          "internalType": "uint32",
          "name": "startTime",
          "type": "uint32"
        },
        {
          "internalType": "uint32",
          "name": "closeTime",
          "type": "uint32"
        },
        {
          "internalType": "uint32",
          "name": "costPoints",
          "type": "uint32"
        },
        {
          "internalType": "uint32",
          "name": "limitPerUser",
          "type": "uint32"
        },
        {
          "internalType": "uint32",
          "name": "mintCount",
          "type": "uint32"
        },
        {
          "internalType": "string",
          "name": "nftUri",
          "type": "string"
        },
        {
          "internalType": "contract INFT",
          "name": "nftContract",
          "type": "address"
        },
        {
          "internalType": "contract IWhitelist",
          "name": "whitelist",
          "type": "address"
        },
        {
          "internalType": "uint256",
          "name": "costTokens",
          "type": "uint256"
        },
        {
          "internalType": "uint256",
          "name": "id",
          "type": "uint256"
        },
        {
          "internalType": "address",
          "name": "currency",
          "type": "address"
        },
        {
          "internalType": "bool",
          "name": "voucherGated",
          "type": "bool"
        }
      ],
      "stateMutability": "view",
      "type": "function"
    },
    {
      "inputs": [],
      "name": "paused",
      "outputs": [
        {
          "internalType": "bool",
          "name": "",
          "type": "bool"
        }
      ],
      "stateMutability": "view",
      "type": "function"
    },
    {
      "inputs": [],
      "name": "rewardsContract",
      "outputs": [
        {
          "internalType": "contract IRewards",
          "name": "",
          "type": "address"
        }
      ],
      "stateMutability": "view",
      "type": "function"
    },
    {
      "inputs": [
        {
          "internalType": "uint256",
          "name": "_id",
          "type": "uint256"
        },
        {
          "internalType": "uint256",
          "name": "_shareBps",
          "type": "uint256"
        }
      ],
      "name": "setEditionArtistShare",
      "outputs": [],
      "stateMutability": "nonpayable",
      "type": "function"
    },
    {
      "inputs": [
        {
          "internalType": "address",
          "name": "_ref",
          "type": "address"
        }
      ],
      "name": "setTrustedNftReference",
      "outputs": [],
      "stateMutability": "nonpayable",
      "type": "function"
    },
    {
      "inputs": [
        {
          "internalType": "uint256",
          "name": "_id",
          "type": "uint256"
        },
        {
          "internalType": "address",
          "name": "_whitelist",
          "type": "address"
        }
      ],
      "name": "setWhitelist",
      "outputs": [],
      "stateMutability": "nonpayable",
      "type": "function"
    },
    {
      "inputs": [],
      "name": "token",
      "outputs": [
        {
          "internalType": "contract IERC20",
          "name": "",
          "type": "address"
        }
      ],
      "stateMutability": "view",
      "type": "function"
    },
    {
      "inputs": [],
      "name": "trustedNftReference",
      "outputs": [
        {
          "internalType": "address",
          "name": "",
          "type": "address"
        }
      ],
      "stateMutability": "view",
      "type": "function"
    }
  ],
  "bytecode": "0x60806040523480156200001157600080fd5b5060405162002cc838038062002cc88339810160408190526200003491620000ac565b600080546001600160a81b0319166101006001600160a01b0394851602179055600380546001600160a01b03199081169284169290921790556002805482169483169490941790935560018054909316911617905562000109565b80516001600160a01b0381168114620000a757600080fd5b919050565b60008060008060808587031215620000c357600080fd5b620000ce856200008f565b9350620000de602086016200008f565b9250620000ee604086016200008f565b9150620000fe606086016200008f565b905092959194509250565b612baf80620001196000396000f3fe6080604052600436106100fe5760003560e01c806363c060aa11610095578063ae1ef84f11610064578063ae1ef84f146102ef578063d89da28614610302578063daeec67614610322578063db09a3f514610342578063fc0c546a1461039157600080fd5b806363c060aa14610224578063693435271461026a578063a753d98114610297578063a89c8f4f146102b757600080fd5b806329a9c277116100d157806329a9c2771461019957806347464d2b146101b957806349f42650146101d95780635c975abb1461020157600080fd5b80630ed64eff146101035780631e6541c414610118578063220cce971461014e57806328c622a514610186575b600080fd5b6101166101113660046122c1565b6103b1565b005b34801561012457600080fd5b506101386101333660046122e3565b61056d565b6040516101459190612349565b60405180910390f35b34801561015a57600080fd5b5060025461016e906001600160a01b031681565b6040516001600160a01b039091168152602001610145565b61011661019436600461244d565b610725565b3480156101a557600080fd5b5060075461016e906001600160a01b031681565b3480156101c557600080fd5b506101166101d43660046124da565b61092c565b3480156101e557600080fd5b5061016e73eeeeeeeeeeeeeeeeeeeeeeeeeeeeeeeeeeeeeeee81565b34801561020d57600080fd5b5060005460ff166040519015158152602001610145565b34801561023057600080fd5b5061025c61023f36600461252b565b600460209081526000928352604080842090915290825290205481565b604051908152602001610145565b34801561027657600080fd5b5061025c6102853660046122e3565b60066020526000908152604090205481565b3480156102a357600080fd5b506101166102b23660046122c1565b610c2e565b3480156102c357600080fd5b506102d76102d23660046122e3565b610e11565b6040516101459c9b9a9998979695949392919061255b565b6101166102fd36600461244d565b610f23565b34801561030e57600080fd5b5061011661031d36600461252b565b61106f565b34801561032e57600080fd5b5061011661033d3660046125e9565b61122f565b34801561034e57600080fd5b5061037c61035d3660046122e3565b600090815260056020526040902054600160801b900463ffffffff1690565b60405163ffffffff9091168152602001610145565b34801561039d57600080fd5b5060035461016e906001600160a01b031681565b60008281526005602052604090206006810154600160a01b900460ff16156104135760405162461bcd60e51b815260206004820152601060248201526f159bdd58da195c881c995c5d5a5c995960821b60448201526064015b60405180910390fd5b6040805161018081018252825463ffffffff8082168352640100000000820481166020840152600160401b8204811693830193909352600160601b810483166060830152600160801b9004909116608082015260018201805461055e9291849160a08401919061048290612606565b80601f01602080910402602001604051908101604052809291908181526020018280546104ae90612606565b80156104fb5780601f106104d0576101008083540402835291602001916104fb565b820191906000526020600020905b8154815290600101906020018083116104de57829003601f168201915b505050918352505060028201546001600160a01b039081166020830152600383015481166040830152600483015460608301526005830154608083015260069092015491821660a0820152600160a01b90910460ff16151560c090910152611314565b61056883836113d9565b505050565b604080516101808101825260008082526020820181905291810182905260608082018390526080820183905260a082015260c0810182905260e08101829052610100810182905261012081018290526101408101829052610160810191909152600082815260056020908152604091829020825161018081018452815463ffffffff80821683526401000000008204811694830194909452600160401b8104841694820194909452600160601b840483166060820152600160801b909304909116608083015260018101805460a08401919061064890612606565b80601f016020809104026020016040519081016040528092919081815260200182805461067490612606565b80156106c15780601f10610696576101008083540402835291602001916106c1565b820191906000526020600020905b8154815290600101906020018083116106a457829003601f168201915b505050918352505060028201546001600160a01b039081166020830152600383015481166040830152600483015460608301526005830154608083015260069092015491821660a0820152600160a01b90910460ff16151560c09091015292915050565b6040805133602082018190529181018590526000906107a2906060015b60408051601f1981840301815282825280516020918201207f19457468657265756d205369676e6564204d6573736167653a0a33320000000084830152603c8085019190915282518085039091018152605c909301909152815191012090565b600154604080516020601f88018190048102820181019092528681529293506001600160a01b03909116916107f4918491908890889081908401838280828437600092019190915250611d1592505050565b6001600160a01b03161461083e5760405162461bcd60e51b8152602060048201526011602482015270496e76616c6964207369676e617475726560781b604482015260640161040a565b60025460405163f662781d60e01b81526001600160a01b0384811660048301528792169063f662781d90602401602060405180830381865afa158015610888573d6000803e3d6000fd5b505050506040513d601f19601f820116820180604052508101906108ac9190612640565b101561091957600254604051630259ab7760e61b81526001600160a01b038481166004830152602482018890529091169063966addc090604401600060405180830381600087803b15801561090057600080fd5b505af1158015610914573d6000803e3d6000fd5b505050505b61092387876103b1565b50505050505050565b61093c60e0820160c083016125e9565b600054604051632474521560e21b8152600080516020612b5a83398151915260048201523360248201526101009091046001600160a01b0316906391d1485490604401602060405180830381865afa15801561099c573d6000803e3d6000fd5b505050506040513d601f19601f820116820180604052508101906109c09190612667565b80610a4d57506109cf81611d39565b8015610a4d5750806001600160a01b03166343bc16126040518163ffffffff1660e01b8152600401602060405180830381865afa158015610a14573d6000803e3d6000fd5b505050506040513d601f19601f82011682018060405250810190610a389190612684565b6001600160a01b0316336001600160a01b0316145b610a695760405162461bcd60e51b815260040161040a906126a1565b6000610a7860208401846126ea565b63ffffffff16118015610ab15750610a9360208301836126ea565b63ffffffff16610aa960408401602085016126ea565b63ffffffff16115b610aed5760405162461bcd60e51b815260206004820152600d60248201526c496e76616c69642074696d657360981b604482015260640161040a565b6000610b01610160840161014085016125e9565b6001600160a01b03161480610b43575073eeeeeeeeeeeeeeeeeeeeeeeeeeeeeeeeeeeeeeee610b38610160840161014085016125e9565b6001600160a01b0316145b610b865760405162461bcd60e51b8152602060048201526014602482015273556e737570706f727465642063757272656e637960601b604482015260640161040a565b61012082013560009081526005602052604090205463ffffffff1615610be75760405162461bcd60e51b815260206004820152601660248201527545646974696f6e20616c72656164792065786973747360501b604482015260640161040a565b61012082013560009081526005602052604090208290610c0782826128b2565b905050610c12611d81565b6101209092013560009081526006602052604090209190915550565b60008281526005602052604090205463ffffffff16610c875760405162461bcd60e51b815260206004820152601560248201527411591a5d1a5bdb88191bd95cdb89dd08195e1a5cdd605a1b604482015260640161040a565b600054604051632474521560e21b8152600080516020612b5a83398151915260048201523360248201526101009091046001600160a01b0316906391d1485490604401602060405180830381865afa158015610ce7573d6000803e3d6000fd5b505050506040513d601f19601f82011682018060405250810190610d0b9190612667565b80610da157506000828152600560209081526040918290206002015482516321de0b0960e11b815292516001600160a01b03909116926343bc16129260048083019391928290030181865afa158015610d68573d6000803e3d6000fd5b505050506040513d601f19601f82011682018060405250810190610d8c9190612684565b6001600160a01b0316336001600160a01b0316145b610dbd5760405162461bcd60e51b815260040161040a906126a1565b612710811115610dff5760405162461bcd60e51b815260206004820152600d60248201526c496e76616c696420736861726560981b604482015260640161040a565b60009182526006602052604090912055565b6005602052600090815260409020805460018201805463ffffffff808416946401000000008504821694600160401b8104831694600160601b8204841694600160801b9092049093169290610e6590612606565b80601f0160208091040260200160405190810160405280929190818152602001828054610e9190612606565b8015610ede5780601f10610eb357610100808354040283529160200191610ede565b820191906000526020600020905b815481529060010190602001808311610ec157829003601f168201915b505050600284015460038501546004860154600587015460069097015495966001600160a01b039384169692841695509093509181169060ff600160a01b909104168c565b82421115610f655760405162461bcd60e51b815260206004820152600f60248201526e159bdd58da195c88195e1c1a5c9959608a1b604482015260640161040a565b6040805160c060208201819052600f60e08301526e29a0a3a2afa7a2afab27aaa1a422a960891b610100830152469282019290925230606082015233608082015260a08101879052908101849052600090610fc39061012001610742565b600154604080516020601f87018190048102820181019092528581529293506001600160a01b0390911691611015918491908790879081908401838280828437600092019190915250611d1592505050565b6001600160a01b03161461105d5760405162461bcd60e51b815260206004820152600f60248201526e24b73b30b634b2103b37bab1b432b960891b604482015260640161040a565b61106786866113d9565b505050505050565b60008281526005602052604090205463ffffffff166110c85760405162461bcd60e51b815260206004820152601560248201527411591a5d1a5bdb88191bd95cdb89dd08195e1a5cdd605a1b604482015260640161040a565b600054604051632474521560e21b8152600080516020612b5a83398151915260048201523360248201526101009091046001600160a01b0316906391d1485490604401602060405180830381865afa158015611128573d6000803e3d6000fd5b505050506040513d601f19601f8201168201806040525081019061114c9190612667565b806111e257506000828152600560209081526040918290206002015482516321de0b0960e11b815292516001600160a01b03909116926343bc16129260048083019391928290030181865afa1580156111a9573d6000803e3d6000fd5b505050506040513d601f19601f820116820180604052508101906111cd9190612684565b6001600160a01b0316336001600160a01b0316145b6111fe5760405162461bcd60e51b815260040161040a906126a1565b60009182526005602052604090912060030180546001600160a01b0319166001600160a01b03909216919091179055565b600054604051632474521560e21b8152600080516020612b5a83398151915260048201523360248201526101009091046001600160a01b0316906391d1485490604401602060405180830381865afa15801561128f573d6000803e3d6000fd5b505050506040513d601f19601f820116820180604052508101906112b39190612667565b6112f25760405162461bcd60e51b815260206004820152601060248201526f41646d696e2063616c6c73206f6e6c7960801b604482015260640161040a565b600780546001600160a01b0319166001600160a01b0392909216919091179055565b60e08101516001600160a01b038116156113d5576040516320c18e6b60e21b8152336004820152600060248201526001600160a01b0382169063830639ac90604401602060405180830381865afa158015611373573d6000803e3d6000fd5b505050506040513d601f19601f820116820180604052508101906113979190612667565b6113d55760405162461bcd60e51b815260206004820152600f60248201526e139bdd081dda1a5d195b1a5cdd1959608a1b604482015260640161040a565b5050565b6113e1611f0f565b600081116114205760405162461bcd60e51b815260206004820152600c60248201526b043616e2774206d696e7420360a41b604482015260640161040a565b600082815260056020526040902080544263ffffffff90911611801590611456575080544264010000000090910463ffffffff16115b61148d5760405162461bcd60e51b81526020600482015260086024820152672737ba1037b832b760c11b604482015260640161040a565b60008381526004602090815260408083203384529091529020548154600160601b900463ffffffff1615611517578154600160601b900463ffffffff166114d48285612a66565b11156115175760405162461bcd60e51b8152602060048201526012602482015271135a5b9d081b1a5b5a5d081c995858da195960721b604482015260640161040a565b600084815260046020908152604080832033845290915281208054859290611540908490612a66565b9091555050815483908390601090611566908490600160801b900463ffffffff16612a7e565b92506101000a81548163ffffffff021916908363ffffffff160217905550600082600101805461159590612606565b80601f01602080910402602001604051908101604052809291908181526020018280546115c190612606565b801561160e5780601f106115e35761010080835404028352916020019161160e565b820191906000526020600020905b8154815290600101906020018083116115f157829003601f168201915b505086549394506000936116349350600160401b900463ffffffff169150879050612aa6565b90508015611648576116463382611f57565b505b600085856004015461165a9190612aa6565b90508015611c13576000878152600660205260408120549081900361168457611681611d81565b90505b60006127106116938385612aa6565b61169d9190612ac5565b60068801549091506001600160a01b031673eeeeeeeeeeeeeeeeeeeeeeeeeeeeeeeeeeeeeeed190161193f5782341461170b5760405162461bcd60e51b815260206004820152601060248201526f15dc9bdb99c811551208185b5bdd5b9d60821b604482015260640161040a565b6002870154604080516321de0b0960e11b815290516000926001600160a01b0316916343bc16129160048083019260209291908290030181865afa158015611757573d6000803e3d6000fd5b505050506040513d601f19601f8201168201806040525081019061177b9190612684565b6001600160a01b03168260405160006040518083038185875af1925050503d80600081146117c5576040519150601f19603f3d011682016040523d82523d6000602084013e6117ca565b606091505b505090508061181b5760405162461bcd60e51b815260206004820152601a60248201527f41727469737420455448207472616e73666572206661696c6564000000000000604482015260640161040a565b60008060019054906101000a90046001600160a01b03166001600160a01b0316634783c35b6040518163ffffffff1660e01b8152600401602060405180830381865afa15801561186f573d6000803e3d6000fd5b505050506040513d601f19601f820116820180604052508101906118939190612684565b6001600160a01b03166118a68487612ae7565b604051600081818185875af1925050503d80600081146118e2576040519150601f19603f3d011682016040523d82523d6000602084013e6118e7565b606091505b50509050806119385760405162461bcd60e51b815260206004820152601c60248201527f506c6174666f726d20455448207472616e73666572206661696c656400000000604482015260640161040a565b5050611c0c565b341561198d5760405162461bcd60e51b815260206004820152601c60248201527f45646974696f6e206973206e6f742070726963656420696e2045544800000000604482015260640161040a565b6003546002880154604080516321de0b0960e11b815290516001600160a01b03938416936323b872dd9333939116916343bc1612916004808201926020929091908290030181865afa1580156119e7573d6000803e3d6000fd5b505050506040513d601f19601f82011682018060405250810190611a0b9190612684565b6040516001600160e01b031960e085901b1681526001600160a01b03928316600482015291166024820152604481018490526064016020604051808303816000875af1158015611a5f573d6000803e3d6000fd5b505050506040513d601f19601f82011682018060405250810190611a839190612667565b611ac55760405162461bcd60e51b8152602060048201526013602482015272115490cc8c081c185e5bdd5d0819985a5b1959606a1b604482015260640161040a565b60035460005460408051634783c35b60e01b815290516001600160a01b03938416936323b872dd93339361010090910490911691634783c35b916004808201926020929091908290030181865afa158015611b24573d6000803e3d6000fd5b505050506040513d601f19601f82011682018060405250810190611b489190612684565b611b528588612ae7565b6040516001600160e01b031960e086901b1681526001600160a01b03938416600482015292909116602483015260448201526064016020604051808303816000875af1158015611ba6573d6000803e3d6000fd5b505050506040513d601f19601f82011682018060405250810190611bca9190612667565b611c0c5760405162461bcd60e51b8152602060048201526013602482015272115490cc8c081c185e5bdd5d0819985a5b1959606a1b604482015260640161040a565b5050611c50565b3415611c505760405162461bcd60e51b815260206004820152600c60248201526b4d696e74206973206672656560a01b604482015260640161040a565b60005b86811015611cd4576002860154604051636902622f60e11b81526001600160a01b039091169063d204c45e90611c8f9033908890600401612afe565b600060405180830381600087803b158015611ca957600080fd5b505af1158015611cbd573d6000803e3d6000fd5b505050508080611ccc90612b2a565b915050611c53565b50604051868152879033907f63232c37f2c1fdcb4fc657df1cef6cabc7181c5b604530242590ffe5fa91ab749060200160405180910390a350505050505050565b6000806000611d248585611fd6565b91509150611d318161201b565b509392505050565b6007546000906001600160a01b031615801590611d6057506000826001600160a01b03163b115b8015611d7b57506007546001600160a01b038381163f91163f145b92915050565b600080546040516d616464726573732e636f6e66696760901b6020820152829161010090046001600160a01b0316906321f8a72190602e01604051602081830303815290604052805190602001206040518263ffffffff1660e01b8152600401611ded91815260200190565b602060405180830381865afa158015611e0a573d6000803e3d6000fd5b505050506040513d601f19601f82011682018060405250810190611e2e9190612684565b90506001600160a01b038116611e4757611f4091505090565b6000816001600160a01b031663bd02d0f5604051602001611e8190721cda185c994b9c1c9a5b585c9e505c9d1a5cdd606a1b815260130190565b604051602081830303815290604052805190602001206040518263ffffffff1660e01b8152600401611eb591815260200190565b602060405180830381865afa158015611ed2573d6000803e3d6000fd5b505050506040513d601f19601f82011682018060405250810190611ef69190612640565b90508015611f045780611f08565b611f405b9250505090565b60005460ff1615611f555760405162461bcd60e51b815260206004820152601060248201526f14185d5cd8589b194e881c185d5cd95960821b604482015260640161040a565b565b600254604051631e961d2760e01b81526001600160a01b038481166004830152602482018490526000921690631e961d27906044016020604051808303816000875af1158015611fab573d6000803e3d6000fd5b505050506040513d601f19601f82011682018060405250810190611fcf9190612640565b9392505050565b600080825160410361200c5760208301516040840151606085015160001a612000878285856121d4565b94509450505050612014565b506000905060025b9250929050565b600081600481111561202f5761202f612b43565b036120375750565b600181600481111561204b5761204b612b43565b036120985760405162461bcd60e51b815260206004820152601860248201527f45434453413a20696e76616c6964207369676e61747572650000000000000000604482015260640161040a565b60028160048111156120ac576120ac612b43565b036120f95760405162461bcd60e51b815260206004820152601f60248201527f45434453413a20696e76616c6964207369676e6174757265206c656e67746800604482015260640161040a565b600381600481111561210d5761210d612b43565b036121655760405162461bcd60e51b815260206004820152602260248201527f45434453413a20696e76616c6964207369676e6174757265202773272076616c604482015261756560f01b606482015260840161040a565b600481600481111561217957612179612b43565b036121d15760405162461bcd60e51b815260206004820152602260248201527f45434453413a20696e76616c6964207369676e6174757265202776272076616c604482015261756560f01b606482015260840161040a565b50565b6000807f7fffffffffffffffffffffffffffffff5d576e7357a4501ddfe92f46681b20a083111561220b57506000905060036122b8565b8460ff16601b1415801561222357508460ff16601c14155b1561223457506000905060046122b8565b6040805160008082526020820180845289905260ff881692820192909252606081018690526080810185905260019060a0016020604051602081039080840390855afa158015612288573d6000803e3d6000fd5b5050604051601f1901519150506001600160a01b0381166122b1576000600192509250506122b8565b9150600090505b94509492505050565b600080604083850312156122d457600080fd5b50508035926020909101359150565b6000602082840312156122f557600080fd5b5035919050565b6000815180845260005b8181101561232257602081850181015186830182015201612306565b81811115612334576000602083870101525b50601f01601f19169290920160200192915050565b6020815261236060208201835163ffffffff169052565b60006020830151612379604084018263ffffffff169052565b50604083015163ffffffff8116606084015250606083015163ffffffff8116608084015250608083015163ffffffff811660a08401525060a08301516101808060c08501526123cc6101a08501836122fc565b915060c08501516123e860e08601826001600160a01b03169052565b5060e0850151610100612405818701836001600160a01b03169052565b8601516101208681019190915286015161014080870191909152860151905061016061243b818701836001600160a01b03169052565b90950151151593019290925250919050565b60008060008060006080868803121561246557600080fd5b853594506020860135935060408601359250606086013567ffffffffffffffff8082111561249257600080fd5b818801915088601f8301126124a657600080fd5b8135818111156124b557600080fd5b8960208285010111156124c757600080fd5b9699959850939650602001949392505050565b6000602082840312156124ec57600080fd5b813567ffffffffffffffff81111561250357600080fd5b82016101808185031215611fcf57600080fd5b6001600160a01b03811681146121d157600080fd5b6000806040838503121561253e57600080fd5b82359150602083013561255081612516565b809150509250929050565b600063ffffffff808f168352808e166020840152808d166040840152808c166060840152808b1660808401525061018060a083015261259e61018083018a6122fc565b6001600160a01b0398891660c084015296881660e083015250610100810194909452610120840192909252909316610140820152911515610160909201919091529695505050505050565b6000602082840312156125fb57600080fd5b8135611fcf81612516565b600181811c9082168061261a57607f821691505b60208210810361263a57634e487b7160e01b600052602260045260246000fd5b50919050565b60006020828403121561265257600080fd5b5051919050565b80151581146121d157600080fd5b60006020828403121561267957600080fd5b8151611fcf81612659565b60006020828403121561269657600080fd5b8151611fcf81612516565b6020808252601e908201527f41646d696e206f7220746865204e4654277320617274697374206f6e6c790000604082015260600190565b63ffffffff811681146121d157600080fd5b6000602082840312156126fc57600080fd5b8135611fcf816126d8565b60008135611d7b816126d8565b6000808335601e1984360301811261272b57600080fd5b83018035915067ffffffffffffffff82111561274657600080fd5b60200191503681900382131561201457600080fd5b634e487b7160e01b600052604160045260246000fd5b601f82111561056857600081815260208120601f850160051c810160208610156127985750805b601f850160051c820191505b81811015611067578281556001016127a4565b67ffffffffffffffff8311156127cf576127cf61275b565b6127e3836127dd8354612606565b83612771565b6000601f84116001811461281757600085156127ff5750838201355b600019600387901b1c1916600186901b178355612871565b600083815260209020601f19861690835b828110156128485786850135825560209485019460019092019101612828565b50868210156128655760001960f88860031b161c19848701351681555b505060018560011b0183555b5050505050565b60008135611d7b81612516565b80546001600160a01b0319166001600160a01b0392909216919091179055565b60008135611d7b81612659565b6128d56128be83612707565b825463ffffffff191663ffffffff91909116178255565b6129066128e460208401612707565b825467ffffffff00000000191660209190911b67ffffffff0000000016178255565b61293f61291560408401612707565b82546bffffffff0000000000000000191660409190911b6bffffffff000000000000000016178255565b61297261294e60608401612707565b82805463ffffffff60601b191660609290921b63ffffffff60601b16919091179055565b6129a561298160808401612707565b82805463ffffffff60801b191660809290921b63ffffffff60801b16919091179055565b6129b260a0830183612714565b6129c08183600186016127b7565b50506129da6129d160c08401612878565b60028301612885565b6129f26129e960e08401612878565b60038301612885565b6101008201356004820155610120820135600582015560068101612a22612a1c6101408501612878565b82612885565b610568612a3261016085016128a5565b82805460ff60a01b191691151560a01b60ff60a01b16919091179055565b634e487b7160e01b600052601160045260246000fd5b60008219821115612a7957612a79612a50565b500190565b600063ffffffff808316818516808303821115612a9d57612a9d612a50565b01949350505050565b6000816000190483118215151615612ac057612ac0612a50565b500290565b600082612ae257634e487b7160e01b600052601260045260246000fd5b500490565b600082821015612af957612af9612a50565b500390565b6001600160a01b0383168152604060208201819052600090612b22908301846122fc565b949350505050565b600060018201612b3c57612b3c612a50565b5060010190565b634e487b7160e01b600052602160045260246000fdfee303cb88ace8c9e6ba216f1aecb44b3206dcab364c60512ffc6cbc920a1bf9d1a2646970667358221220ca08b69d4f5018ba465603d84543b0d2e709b1e42718f98660818ea5a18672b564736f6c634300080e0033",
  "linkReferences": {},
  "deployedLinkReferences": {}
}