{
  "_format": "hh-sol-artifact-1",
  "contractName": "SAGEOpenEdition",
  "sourceName": "contracts/OpenEdition/SAGEOpenEdition.sol",
  "abi": [
    {
      "inputs": [
        {
          "internalType": "address",
          "name": "_rewardsContract",
          "type": "address"
        },
        {
          "internalType": "address",
          "name": "_admin",
          "type": "address"
        },
        {
          "internalType": "address",
          "name": "_sageStorage",
          "type": "address"
        },
        {
          "internalType": "address",
          "name": "_token",
          "type": "address"
        }
      ],
      "stateMutability": "nonpayable",
      "type": "constructor"
    },
    {
      "anonymous": false,
      "inputs": [
        {
          "indexed": true,
          "internalType": "address",
          "name": "user",
          "type": "address"
        },
        {
          "indexed": true,
          "internalType": "uint256",
          "name": "id",
          "type": "uint256"
        },
        {
          "indexed": false,
          "internalType": "uint256",
          "name": "amount",
          "type": "uint256"
        }
      ],
      "name": "BatchMint",
      "type": "event"
    },
    {
      "anonymous": false,
      "inputs": [
        {
          "indexed": true,
          "internalType": "uint256",
          "name": "id",
          "type": "uint256"
        },
        {
          "indexed": true,
          "internalType": "address",
          "name": "nftContract",
          "type": "address"
        }
      ],
      "name": "OpenEditionCreated",
      "type": "event"
    },
    {
      "anonymous": false,
      "inputs": [
        {
          "indexed": false,
          "internalType": "address",
          "name": "account",
          "type": "address"
        }
      ],
      "name": "Paused",
      "type": "event"
    },
    {
      "anonymous": false,
      "inputs": [
        {
          "indexed": false,
          "internalType": "address",
          "name": "account",
          "type": "address"
        }
      ],
      "name": "Unpaused",
      "type": "event"
    },
    {
      "inputs": [],
      "name": "NATIVE_CURRENCY",
      "outputs": [
        {
          "internalType": "address",
          "name": "",
          "type": "address"
        }
      ],
      "stateMutability": "view",
      "type": "function"
    },
    {
      "inputs": [
        {
          "internalType": "uint256",
          "name": "_id",
          "type": "uint256"
        },
        {
          "internalType": "uint256",
          "name": "_amount",
          "type": "uint256"
        }
      ],
      "name": "batchMint",
      "outputs": [],
      "stateMutability": "payable",
      "type": "function"
    },
    {
      "inputs": [
        {
          "internalType": "uint256",
          "name": "_id",
          "type": "uint256"
        },
        {
          "internalType": "uint256",
          "name": "_amount",
          "type": "uint256"
        },
        {
          "internalType": "uint256",
          "name": "_points",
          "type": "uint256"
        },
        {
          "internalType": "bytes",
          "name": "_sig",
          "type": "bytes"
        }
      ],
      "name": "claimPointsAndMint",
      "outputs": [],
      "stateMutability": "payable",
      "type": "function"
    },
    {
      "inputs": [
        {
          "components": [
            {
              "internalType": "uint32",
              "name": "startTime",
              "type": "uint32"
            },
            {
              "internalType": "uint32",
              "name": "closeTime",
              "type": "uint32"
            },
            {
              "internalType": "uint32",
              "name": "costPoints",
              "type": "uint32"
            },
            {
              "internalType": "uint32",
              "name": "limitPerUser",
              "type": "uint32"
            },
            {
              "internalType": "uint32",
              "name": "mintCount",
              "type": "uint32"
            },
            {
              "internalType": "string",
              "name": "nftUri",
              "type": "string"
            },
            {
              "internalType": "contract INFT",
              "name": "nftContract",
              "type": "address"
            },
            {
              "internalType": "contract IWhitelist",
              "name": "whitelist",
              "type": "address"
            },
            {
              "internalType": "uint256",
              "name": "costTokens",
              "type": "uint256"
            },
            {
              "internalType": "uint256",
              "name": "id",
              "type": "uint256"
            },
            {
              "internalType": "address",
              "name": "currency",
              "type": "address"
            }
          ],
          "internalType": "struct SAGEOpenEdition.OpenEdition",
          "name": "oe",
          "type": "tuple"
        }
      ],
      "name": "createOpenEdition",
      "outputs": [],
      "stateMutability": "nonpayable",
      "type": "function"
    },
    {
      "inputs": [
        {
          "internalType": "uint256",
          "name": "",
          "type": "uint256"
        }
      ],
      "name": "editionArtistShare",
      "outputs": [
        {
          "internalType": "uint256",
          "name": "",
          "type": "uint256"
        }
      ],
      "stateMutability": "view",
      "type": "function"
    },
    {
      "inputs": [
        {
          "internalType": "uint256",
          "name": "_id",
          "type": "uint256"
        }
      ],
      "name": "getMintCount",
      "outputs": [
        {
          "internalType": "uint32",
          "name": "",
          "type": "uint32"
        }
      ],
      "stateMutability": "view",
      "type": "function"
    },
    {
      "inputs": [
        {
          "internalType": "uint256",
          "name": "_id",
          "type": "uint256"
        }
      ],
      "name": "getOpenEdition",
      "outputs": [
        {
          "components": [
            {
              "internalType": "uint32",
              "name": "startTime",
              "type": "uint32"
            },
            {
              "internalType": "uint32",
              "name": "closeTime",
              "type": "uint32"
            },
            {
              "internalType": "uint32",
              "name": "costPoints",
              "type": "uint32"
            },
            {
              "internalType": "uint32",
              "name": "limitPerUser",
              "type": "uint32"
            },
            {
              "internalType": "uint32",
              "name": "mintCount",
              "type": "uint32"
            },
            {
              "internalType": "string",
              "name": "nftUri",
              "type": "string"
            },
            {
              "internalType": "contract INFT",
              "name": "nftContract",
              "type": "address"
            },
            {
              "internalType": "contract IWhitelist",
              "name": "whitelist",
              "type": "address"
            },
            {
              "internalType": "uint256",
              "name": "costTokens",
              "type": "uint256"
            },
            {
              "internalType": "uint256",
              "name": "id",
              "type": "uint256"
            },
            {
              "internalType": "address",
              "name": "currency",
              "type": "address"
            }
          ],
          "internalType": "struct SAGEOpenEdition.OpenEdition",
          "name": "",
          "type": "tuple"
        }
      ],
      "stateMutability": "view",
      "type": "function"
    },
    {
      "inputs": [
        {
          "internalType": "uint256",
          "name": "",
          "type": "uint256"
        },
        {
          "internalType": "address",
          "name": "",
          "type": "address"
        }
      ],
      "name": "mintedByUser",
      "outputs": [
        {
          "internalType": "uint256",
          "name": "",
          "type": "uint256"
        }
      ],
      "stateMutability": "view",
      "type": "function"
    },
    {
      "inputs": [
        {
          "internalType": "uint256",
          "name": "",
          "type": "uint256"
        }
      ],
      "name": "openEditions",
      "outputs": [
        {
          "internalType": "uint32",
          "name": "startTime",
          "type": "uint32"
        },
        {
          "internalType": "uint32",
          "name": "closeTime",
          "type": "uint32"
        },
        {
          "internalType": "uint32",
          "name": "costPoints",
          "type": "uint32"
        },
        {
          "internalType": "uint32",
          "name": "limitPerUser",
          "type": "uint32"
        },
        {
          "internalType": "uint32",
          "name": "mintCount",
          "type": "uint32"
        },
        {
          "internalType": "string",
          "name": "nftUri",
          "type": "string"
        },
        {
          "internalType": "contract INFT",
          "name": "nftContract",
          "type": "address"
        },
        {
          "internalType": "contract IWhitelist",
          "name": "whitelist",
          "type": "address"
        },
        {
          "internalType": "uint256",
          "name": "costTokens",
          "type": "uint256"
        },
        {
          "internalType": "uint256",
          "name": "id",
          "type": "uint256"
        },
        {
          "internalType": "address",
          "name": "currency",
          "type": "address"
        }
      ],
      "stateMutability": "view",
      "type": "function"
    },
    {
      "inputs": [],
      "name": "paused",
      "outputs": [
        {
          "internalType": "bool",
          "name": "",
          "type": "bool"
        }
      ],
      "stateMutability": "view",
      "type": "function"
    },
    {
      "inputs": [],
      "name": "rewardsContract",
      "outputs": [
        {
          "internalType": "contract IRewards",
          "name": "",
          "type": "address"
        }
      ],
      "stateMutability": "view",
      "type": "function"
    },
    {
      "inputs": [
        {
          "internalType": "uint256",
          "name": "_id",
          "type": "uint256"
        },
        {
          "internalType": "uint256",
          "name": "_shareBps",
          "type": "uint256"
        }
      ],
      "name": "setEditionArtistShare",
      "outputs": [],
      "stateMutability": "nonpayable",
      "type": "function"
    },
    {
      "inputs": [
        {
          "internalType": "uint256",
          "name": "_id",
          "type": "uint256"
        },
        {
          "internalType": "address",
          "name": "_whitelist",
          "type": "address"
        }
      ],
      "name": "setWhitelist",
      "outputs": [],
      "stateMutability": "nonpayable",
      "type": "function"
    },
    {
      "inputs": [],
      "name": "token",
      "outputs": [
        {
          "internalType": "contract IERC20",
          "name": "",
          "type": "address"
        }
      ],
      "stateMutability": "view",
      "type": "function"
    }
  ],
  "bytecode": "0x60806040523480156200001157600080fd5b5060405162002857380380620028578339810160408190526200003491620000ac565b600080546001600160a81b0319166101006001600160a01b0394851602179055600380546001600160a01b03199081169284169290921790556002805482169483169490941790935560018054909316911617905562000109565b80516001600160a01b0381168114620000a757600080fd5b919050565b60008060008060808587031215620000c357600080fd5b620000ce856200008f565b9350620000de602086016200008f565b9250620000ee604086016200008f565b9150620000fe606086016200008f565b905092959194509250565b61273e80620001196000396000f3fe6080604052600436106100dd5760003560e01c8063693435271161007f578063bdbc97dd11610059578063bdbc97dd1461028d578063d89da286146102ad578063db09a3f5146102cd578063fc0c546a1461031c57600080fd5b80636934352714610209578063a753d98114610236578063a89c8f4f1461025657600080fd5b806328c622a5116100bb57806328c622a51461016557806349f42650146101785780635c975abb146101a057806363c060aa146101c357600080fd5b80630ed64eff146100e25780631e6541c4146100f7578063220cce971461012d575b600080fd5b6100f56100f0366004611ec4565b61033c565b005b34801561010357600080fd5b50610117610112366004611ee6565b610d35565b6040516101249190611f4c565b60405180910390f35b34801561013957600080fd5b5060025461014d906001600160a01b031681565b6040516001600160a01b039091168152602001610124565b6100f561017336600461203b565b610ed3565b34801561018457600080fd5b5061014d73eeeeeeeeeeeeeeeeeeeeeeeeeeeeeeeeeeeeeeee81565b3480156101ac57600080fd5b5060005460ff166040519015158152602001610124565b3480156101cf57600080fd5b506101fb6101de3660046120dd565b600460209081526000928352604080842090915290825290205481565b604051908152602001610124565b34801561021557600080fd5b506101fb610224366004611ee6565b60066020526000908152604090205481565b34801561024257600080fd5b506100f5610251366004611ec4565b6110cb565b34801561026257600080fd5b50610276610271366004611ee6565b6112c0565b6040516101249b9a9998979695949392919061210d565b34801561029957600080fd5b506100f56102a8366004612192565b6113c5565b3480156102b957600080fd5b506100f56102c83660046120dd565b6116c9565b3480156102d957600080fd5b506103076102e8366004611ee6565b600090815260056020526040902054600160801b900463ffffffff1690565b60405163ffffffff9091168152602001610124565b34801561032857600080fd5b5060035461014d906001600160a01b031681565b61034461189b565b600081116103885760405162461bcd60e51b815260206004820152600c60248201526b043616e2774206d696e7420360a41b60448201526064015b60405180910390fd5b600082815260056020526040902080544263ffffffff909116118015906103be575080544264010000000090910463ffffffff16115b6103f55760405162461bcd60e51b81526020600482015260086024820152672737ba1037b832b760c11b604482015260640161037f565b6040805161016081018252825463ffffffff8082168352640100000000820481166020840152600160401b8204811693830193909352600160601b810483166060830152600160801b9004909116608082015260018201805461052e9291849160a084019190610464906121ce565b80601f0160208091040260200160405190810160405280929190818152602001828054610490906121ce565b80156104dd5780601f106104b2576101008083540402835291602001916104dd565b820191906000526020600020905b8154815290600101906020018083116104c057829003601f168201915b505050918352505060028201546001600160a01b039081166020830152600383015481166040830152600483015460608301526005830154608083015260069092015490911660a0909101526118e3565b60008381526004602090815260408083203384529091529020548154600160601b900463ffffffff16156105b8578154600160601b900463ffffffff16610575828561221e565b11156105b85760405162461bcd60e51b8152602060048201526012602482015271135a5b9d081b1a5b5a5d081c995858da195960721b604482015260640161037f565b6000848152600460209081526040808320338452909152812080548592906105e190849061221e565b9091555050815483908390601090610607908490600160801b900463ffffffff16612236565b92506101000a81548163ffffffff021916908363ffffffff1602179055506000826001018054610636906121ce565b80601f0160208091040260200160405190810160405280929190818152602001828054610662906121ce565b80156106af5780601f10610684576101008083540402835291602001916106af565b820191906000526020600020905b81548152906001019060200180831161069257829003601f168201915b505086549394506000936106d59350600160401b900463ffffffff16915087905061225e565b905080156106e9576106e733826119a8565b505b60008585600401546106fb919061225e565b90508015610c33576000878152600660205260408120549081900361072557610722611a27565b90505b6000612710610734838561225e565b61073e919061227d565b60068801549091506001600160a01b031673eeeeeeeeeeeeeeeeeeeeeeeeeeeeeeeeeeeeeeed19016109e0578234146107ac5760405162461bcd60e51b815260206004820152601060248201526f15dc9bdb99c811551208185b5bdd5b9d60821b604482015260640161037f565b6002870154604080516321de0b0960e11b815290516000926001600160a01b0316916343bc16129160048083019260209291908290030181865afa1580156107f8573d6000803e3d6000fd5b505050506040513d601f19601f8201168201806040525081019061081c919061229f565b6001600160a01b03168260405160006040518083038185875af1925050503d8060008114610866576040519150601f19603f3d011682016040523d82523d6000602084013e61086b565b606091505b50509050806108bc5760405162461bcd60e51b815260206004820152601a60248201527f41727469737420455448207472616e73666572206661696c6564000000000000604482015260640161037f565b60008060019054906101000a90046001600160a01b03166001600160a01b0316634783c35b6040518163ffffffff1660e01b8152600401602060405180830381865afa158015610910573d6000803e3d6000fd5b505050506040513d601f19601f82011682018060405250810190610934919061229f565b6001600160a01b031661094784876122bc565b604051600081818185875af1925050503d8060008114610983576040519150601f19603f3d011682016040523d82523d6000602084013e610988565b606091505b50509050806109d95760405162461bcd60e51b815260206004820152601c60248201527f506c6174666f726d20455448207472616e73666572206661696c656400000000604482015260640161037f565b5050610c2c565b3415610a2e5760405162461bcd60e51b815260206004820152601c60248201527f45646974696f6e206973206e6f742070726963656420696e2045544800000000604482015260640161037f565b6003546002880154604080516321de0b0960e11b815290516001600160a01b03938416936323b872dd9333939116916343bc1612916004808201926020929091908290030181865afa158015610a88573d6000803e3d6000fd5b505050506040513d601f19601f82011682018060405250810190610aac919061229f565b6040516001600160e01b031960e085901b1681526001600160a01b03928316600482015291166024820152604481018490526064016020604051808303816000875af1158015610b00573d6000803e3d6000fd5b505050506040513d601f19601f82011682018060405250810190610b2491906122d3565b5060035460005460408051634783c35b60e01b815290516001600160a01b03938416936323b872dd93339361010090910490911691634783c35b916004808201926020929091908290030181865afa158015610b84573d6000803e3d6000fd5b505050506040513d601f19601f82011682018060405250810190610ba8919061229f565b610bb285886122bc565b6040516001600160e01b031960e086901b1681526001600160a01b03938416600482015292909116602483015260448201526064016020604051808303816000875af1158015610c06573d6000803e3d6000fd5b505050506040513d601f19601f82011682018060405250810190610c2a91906122d3565b505b5050610c70565b3415610c705760405162461bcd60e51b815260206004820152600c60248201526b4d696e74206973206672656560a01b604482015260640161037f565b60005b86811015610cf4576002860154604051636902622f60e11b81526001600160a01b039091169063d204c45e90610caf90339088906004016122f5565b600060405180830381600087803b158015610cc957600080fd5b505af1158015610cdd573d6000803e3d6000fd5b505050508080610cec90612321565b915050610c73565b50604051868152879033907f63232c37f2c1fdcb4fc657df1cef6cabc7181c5b604530242590ffe5fa91ab749060200160405180910390a350505050505050565b604080516101608101825260008082526020820181905291810182905260608082018390526080820183905260a082015260c0810182905260e0810182905261010081018290526101208101829052610140810191909152600082815260056020908152604091829020825161016081018452815463ffffffff80821683526401000000008204811694830194909452600160401b8104841694820194909452600160601b840483166060820152600160801b909304909116608083015260018101805460a084019190610e08906121ce565b80601f0160208091040260200160405190810160405280929190818152602001828054610e34906121ce565b8015610e815780601f10610e5657610100808354040283529160200191610e81565b820191906000526020600020905b815481529060010190602001808311610e6457829003601f168201915b505050918352505060028201546001600160a01b039081166020830152600383015481166040830152600483015460608301526005830154608083015260069092015490911660a09091015292915050565b604080513360208083018290528284018790528351808403850181526060840185528051908201207f19457468657265756d205369676e6564204d6573736167653a0a3332000000006080850152609c808501919091528451808503909101815260bc840180865281519183019190912060015460dc601f890185900490940286018401909652868252929492936001600160a01b0390931692610f939285929189918991829101838280828437600092019190915250611bb592505050565b6001600160a01b031614610fdd5760405162461bcd60e51b8152602060048201526011602482015270496e76616c6964207369676e617475726560781b604482015260640161037f565b60025460405163f662781d60e01b81526001600160a01b0384811660048301528792169063f662781d90602401602060405180830381865afa158015611027573d6000803e3d6000fd5b505050506040513d601f19601f8201168201806040525081019061104b919061233a565b10156110b857600254604051630259ab7760e61b81526001600160a01b038481166004830152602482018890529091169063966addc090604401600060405180830381600087803b15801561109f57600080fd5b505af11580156110b3573d6000803e3d6000fd5b505050505b6110c2878761033c565b50505050505050565b60008281526005602052604090205463ffffffff166111245760405162461bcd60e51b815260206004820152601560248201527411591a5d1a5bdb88191bd95cdb89dd08195e1a5cdd605a1b604482015260640161037f565b600054604051632474521560e21b81527fe303cb88ace8c9e6ba216f1aecb44b3206dcab364c60512ffc6cbc920a1bf9d160048201523360248201526101009091046001600160a01b0316906391d1485490604401602060405180830381865afa158015611196573d6000803e3d6000fd5b505050506040513d601f19601f820116820180604052508101906111ba91906122d3565b8061125057506000828152600560209081526040918290206002015482516321de0b0960e11b815292516001600160a01b03909116926343bc16129260048083019391928290030181865afa158015611217573d6000803e3d6000fd5b505050506040513d601f19601f8201168201806040525081019061123b919061229f565b6001600160a01b0316336001600160a01b0316145b61126c5760405162461bcd60e51b815260040161037f90612353565b6127108111156112ae5760405162461bcd60e51b815260206004820152600d60248201526c496e76616c696420736861726560981b604482015260640161037f565b60009182526006602052604090912055565b6005602052600090815260409020805460018201805463ffffffff808416946401000000008504821694600160401b8104831694600160601b8204841694600160801b9092049093169290611314906121ce565b80601f0160208091040260200160405190810160405280929190818152602001828054611340906121ce565b801561138d5780601f106113625761010080835404028352916020019161138d565b820191906000526020600020905b81548152906001019060200180831161137057829003601f168201915b505050600284015460038501546004860154600587015460069097015495966001600160a01b0393841696928416955090935091168b565b6113d560e0820160c0830161238a565b600054604051632474521560e21b81527fe303cb88ace8c9e6ba216f1aecb44b3206dcab364c60512ffc6cbc920a1bf9d160048201523360248201526101009091046001600160a01b0316906391d1485490604401602060405180830381865afa158015611447573d6000803e3d6000fd5b505050506040513d601f19601f8201168201806040525081019061146b91906122d3565b806114e85750806001600160a01b03166343bc16126040518163ffffffff1660e01b8152600401602060405180830381865afa1580156114af573d6000803e3d6000fd5b505050506040513d601f19601f820116820180604052508101906114d3919061229f565b6001600160a01b0316336001600160a01b0316145b6115045760405162461bcd60e51b815260040161037f90612353565b600061151360208401846123b9565b63ffffffff1611801561154c575061152e60208301836123b9565b63ffffffff1661154460408401602085016123b9565b63ffffffff16115b6115885760405162461bcd60e51b815260206004820152600d60248201526c496e76616c69642074696d657360981b604482015260640161037f565b600061159c6101608401610140850161238a565b6001600160a01b031614806115de575073eeeeeeeeeeeeeeeeeeeeeeeeeeeeeeeeeeeeeeee6115d36101608401610140850161238a565b6001600160a01b0316145b6116215760405162461bcd60e51b8152602060048201526014602482015273556e737570706f727465642063757272656e637960601b604482015260640161037f565b61012082013560009081526005602052604090205463ffffffff16156116825760405162461bcd60e51b815260206004820152601660248201527545646974696f6e20616c72656164792065786973747360501b604482015260640161037f565b610120820135600090815260056020526040902082906116a28282612583565b9050506116ad611a27565b6101209092013560009081526006602052604090209190915550565b60008281526005602052604090205463ffffffff166117225760405162461bcd60e51b815260206004820152601560248201527411591a5d1a5bdb88191bd95cdb89dd08195e1a5cdd605a1b604482015260640161037f565b600054604051632474521560e21b81527fe303cb88ace8c9e6ba216f1aecb44b3206dcab364c60512ffc6cbc920a1bf9d160048201523360248201526101009091046001600160a01b0316906391d1485490604401602060405180830381865afa158015611794573d6000803e3d6000fd5b505050506040513d601f19601f820116820180604052508101906117b891906122d3565b8061184e57506000828152600560209081526040918290206002015482516321de0b0960e11b815292516001600160a01b03909116926343bc16129260048083019391928290030181865afa158015611815573d6000803e3d6000fd5b505050506040513d601f19601f82011682018060405250810190611839919061229f565b6001600160a01b0316336001600160a01b0316145b61186a5760405162461bcd60e51b815260040161037f90612353565b60009182526005602052604090912060030180546001600160a01b0319166001600160a01b03909216919091179055565b60005460ff16156118e15760405162461bcd60e51b815260206004820152601060248201526f14185d5cd8589b194e881c185d5cd95960821b604482015260640161037f565b565b60e08101516001600160a01b038116156119a4576040516320c18e6b60e21b8152336004820152600060248201526001600160a01b0382169063830639ac90604401602060405180830381865afa158015611942573d6000803e3d6000fd5b505050506040513d601f19601f8201168201806040525081019061196691906122d3565b6119a45760405162461bcd60e51b815260206004820152600f60248201526e139bdd081dda1a5d195b1a5cdd1959608a1b604482015260640161037f565b5050565b600254604051631e961d2760e01b81526001600160a01b038481166004830152602482018490526000921690631e961d27906044016020604051808303816000875af11580156119fc573d6000803e3d6000fd5b505050506040513d601f19601f82011682018060405250810190611a20919061233a565b9392505050565b600080546040516d616464726573732e636f6e66696760901b6020820152829161010090046001600160a01b0316906321f8a72190602e01604051602081830303815290604052805190602001206040518263ffffffff1660e01b8152600401611a9391815260200190565b602060405180830381865afa158015611ab0573d6000803e3d6000fd5b505050506040513d601f19601f82011682018060405250810190611ad4919061229f565b90506001600160a01b038116611aed57611f4091505090565b6000816001600160a01b031663bd02d0f5604051602001611b2790721cda185c994b9c1c9a5b585c9e505c9d1a5cdd606a1b815260130190565b604051602081830303815290604052805190602001206040518263ffffffff1660e01b8152600401611b5b91815260200190565b602060405180830381865afa158015611b78573d6000803e3d6000fd5b505050506040513d601f19601f82011682018060405250810190611b9c919061233a565b90508015611baa5780611bae565b611f405b9250505090565b6000806000611bc48585611bd9565b91509150611bd181611c1e565b509392505050565b6000808251604103611c0f5760208301516040840151606085015160001a611c0387828585611dd7565b94509450505050611c17565b506000905060025b9250929050565b6000816004811115611c3257611c326126f2565b03611c3a5750565b6001816004811115611c4e57611c4e6126f2565b03611c9b5760405162461bcd60e51b815260206004820152601860248201527f45434453413a20696e76616c6964207369676e61747572650000000000000000604482015260640161037f565b6002816004811115611caf57611caf6126f2565b03611cfc5760405162461bcd60e51b815260206004820152601f60248201527f45434453413a20696e76616c6964207369676e6174757265206c656e67746800604482015260640161037f565b6003816004811115611d1057611d106126f2565b03611d685760405162461bcd60e51b815260206004820152602260248201527f45434453413a20696e76616c6964207369676e6174757265202773272076616c604482015261756560f01b606482015260840161037f565b6004816004811115611d7c57611d7c6126f2565b03611dd45760405162461bcd60e51b815260206004820152602260248201527f45434453413a20696e76616c6964207369676e6174757265202776272076616c604482015261756560f01b606482015260840161037f565b50565b6000807f7fffffffffffffffffffffffffffffff5d576e7357a4501ddfe92f46681b20a0831115611e0e5750600090506003611ebb565b8460ff16601b14158015611e2657508460ff16601c14155b15611e375750600090506004611ebb565b6040805160008082526020820180845289905260ff881692820192909252606081018690526080810185905260019060a0016020604051602081039080840390855afa158015611e8b573d6000803e3d6000fd5b5050604051601f1901519150506001600160a01b038116611eb457600060019250925050611ebb565b9150600090505b94509492505050565b60008060408385031215611ed757600080fd5b50508035926020909101359150565b600060208284031215611ef857600080fd5b5035919050565b6000815180845260005b81811015611f2557602081850181015186830182015201611f09565b81811115611f37576000602083870101525b50601f01601f19169290920160200192915050565b60208152611f6360208201835163ffffffff169052565b60006020830151611f7c604084018263ffffffff169052565b50604083015163ffffffff8116606084015250606083015163ffffffff8116608084015250608083015163ffffffff811660a08401525060a08301516101608060c0850152611fcf610180850183611eff565b915060c0850151611feb60e08601826001600160a01b03169052565b5060e0850151610100612008818701836001600160a01b03169052565b8601516101208681019190915286015161014080870191909152909501516001600160a01b031693019290925250919050565b60008060008060006080868803121561205357600080fd5b853594506020860135935060408601359250606086013567ffffffffffffffff8082111561208057600080fd5b818801915088601f83011261209457600080fd5b8135818111156120a357600080fd5b8960208285010111156120b557600080fd5b9699959850939650602001949392505050565b6001600160a01b0381168114611dd457600080fd5b600080604083850312156120f057600080fd5b823591506020830135612102816120c8565b809150509250929050565b600061016063ffffffff808f168452808e166020850152808d166040850152808c166060850152808b166080850152508060a084015261214f8184018a611eff565b6001600160a01b0398891660c085015296881660e08401525050610100810193909352610120830191909152909216610140909201919091529695505050505050565b6000602082840312156121a457600080fd5b813567ffffffffffffffff8111156121bb57600080fd5b82016101608185031215611a2057600080fd5b600181811c908216806121e257607f821691505b60208210810361220257634e487b7160e01b600052602260045260246000fd5b50919050565b634e487b7160e01b600052601160045260246000fd5b6000821982111561223157612231612208565b500190565b600063ffffffff80831681851680830382111561225557612255612208565b01949350505050565b600081600019048311821515161561227857612278612208565b500290565b60008261229a57634e487b7160e01b600052601260045260246000fd5b500490565b6000602082840312156122b157600080fd5b8151611a20816120c8565b6000828210156122ce576122ce612208565b500390565b6000602082840312156122e557600080fd5b81518015158114611a2057600080fd5b6001600160a01b038316815260406020820181905260009061231990830184611eff565b949350505050565b60006001820161233357612333612208565b5060010190565b60006020828403121561234c57600080fd5b5051919050565b6020808252601e908201527f41646d696e206f7220746865204e4654277320617274697374206f6e6c790000604082015260600190565b60006020828403121561239c57600080fd5b8135611a20816120c8565b63ffffffff81168114611dd457600080fd5b6000602082840312156123cb57600080fd5b8135611a20816123a7565b600081356123e3816123a7565b92915050565b6000808335601e1984360301811261240057600080fd5b83018035915067ffffffffffffffff82111561241b57600080fd5b602001915036819003821315611c1757600080fd5b634e487b7160e01b600052604160045260246000fd5b601f82111561249057600081815260208120601f850160051c8101602086101561246d5750805b601f850160051c820191505b8181101561248c57828155600101612479565b5050505b505050565b67ffffffffffffffff8311156124ad576124ad612430565b6124c1836124bb83546121ce565b83612446565b6000601f8411600181146124f557600085156124dd5750838201355b600019600387901b1c1916600186901b17835561254f565b600083815260209020601f19861690835b828110156125265786850135825560209485019460019092019101612506565b50868210156125435760001960f88860031b161c19848701351681555b505060018560011b0183555b5050505050565b600081356123e3816120c8565b80546001600160a01b0319166001600160a01b0392909216919091179055565b6125a661258f836123d6565b825463ffffffff191663ffffffff91909116178255565b6125d76125b5602084016123d6565b825467ffffffff00000000191660209190911b67ffffffff0000000016178255565b6126106125e6604084016123d6565b82546bffffffff0000000000000000191660409190911b6bffffffff000000000000000016178255565b61264361261f606084016123d6565b82805463ffffffff60601b191660609290921b63ffffffff60601b16919091179055565b612676612652608084016123d6565b82805463ffffffff60801b191660809290921b63ffffffff60801b16919091179055565b61268360a08301836123e9565b612691818360018601612495565b50506126ab6126a260c08401612556565b60028301612563565b6126c36126ba60e08401612556565b60038301612563565b610100820135600482015561012082013560058201556119a46126e96101408401612556565b60068301612563565b634e487b7160e01b600052602160045260246000fdfea2646970667358221220bfd06d6aa19c160c392466f895d763b7743d801ef42246fd27b907604a4a517164736f6c634300080e0033",
  "linkReferences": {},
  "deployedLinkReferences": {}
}