{
  "_format": "hh-sol-artifact-1",
  "contractName": "SAGEOpenEdition",
  "sourceName": "contracts/OpenEdition/SAGEOpenEdition.sol",
  "abi": [
    {
      "inputs": [
        {
          "internalType": "address",
          "name": "_rewardsContract",
          "type": "address"
        },
        {
          "internalType": "address",
          "name": "_admin",
          "type": "address"
        },
        {
          "internalType": "address",
          "name": "_sageStorage",
          "type": "address"
        },
        {
          "internalType": "address",
          "name": "_token",
          "type": "address"
        }
      ],
      "stateMutability": "nonpayable",
      "type": "constructor"
    },
    {
      "anonymous": false,
      "inputs": [
        {
          "indexed": true,
          "internalType": "address",
          "name": "user",
          "type": "address"
        },
        {
          "indexed": true,
          "internalType": "uint256",
          "name": "id",
          "type": "uint256"
        },
        {
          "indexed": false,
          "internalType": "uint256",
          "name": "amount",
          "type": "uint256"
        }
      ],
      "name": "BatchMint",
      "type": "event"
    },
    {
      "anonymous": false,
      "inputs": [
        {
          "indexed": true,
          "internalType": "uint256",
          "name": "id",
          "type": "uint256"
        },
        {
          "indexed": true,
          "internalType": "address",
          "name": "nftContract",
          "type": "address"
        }
      ],
      "name": "OpenEditionCreated",
      "type": "event"
    },
    {
      "anonymous": false,
      "inputs": [
        {
          "indexed": false,
          "internalType": "address",
          "name": "account",
          "type": "address"
        }
      ],
      "name": "Paused",
      "type": "event"
    },
    {
      "anonymous": false,
      "inputs": [
        {
          "indexed": false,
          "internalType": "address",
          "name": "account",
          "type": "address"
        }
      ],
      "name": "Unpaused",
      "type": "event"
    },
    {
      "inputs": [
        {
          "internalType": "uint256",
          "name": "_id",
          "type": "uint256"
        },
        {
          "internalType": "uint256",
          "name": "_amount",
          "type": "uint256"
        }
      ],
      "name": "batchMint",
      "outputs": [],
      "stateMutability": "nonpayable",
      "type": "function"
    },
    {
      "inputs": [
        {
          "internalType": "uint256",
          "name": "_id",
          "type": "uint256"
        },
        {
          "internalType": "uint256",
          "name": "_amount",
          "type": "uint256"
        },
        {
          "internalType": "uint256",
          "name": "_points",
          "type": "uint256"
        },
        {
          "internalType": "bytes",
          "name": "_sig",
          "type": "bytes"
        }
      ],
      "name": "claimPointsAndMint",
      "outputs": [],
      "stateMutability": "nonpayable",
      "type": "function"
    },
    {
      "inputs": [
        {
          "components": [
            {
              "internalType": "uint32",
              "name": "startTime",
              "type": "uint32"
            },
            {
              "internalType": "uint32",
              "name": "closeTime",
              "type": "uint32"
            },
            {
              "internalType": "uint32",
              "name": "costPoints",
              "type": "uint32"
            },
            {
              "internalType": "uint32",
              "name": "limitPerUser",
              "type": "uint32"
            },
            {
              "internalType": "uint32",
              "name": "mintCount",
              "type": "uint32"
            },
            {
              "internalType": "string",
              "name": "nftUri",
              "type": "string"
            },
            {
              "internalType": "contract INFT",
              "name": "nftContract",
              "type": "address"
            },
            {
              "internalType": "contract IWhitelist",
              "name": "whitelist",
              "type": "address"
            },
            {
              "internalType": "uint256",
              "name": "costTokens",
              "type": "uint256"
            },
            {
              "internalType": "uint256",
              "name": "id",
              "type": "uint256"
            }
          ],
          "internalType": "struct SAGEOpenEdition.OpenEdition",
          "name": "oe",
          "type": "tuple"
        }
      ],
      "name": "createOpenEdition",
      "outputs": [],
      "stateMutability": "nonpayable",
      "type": "function"
    },
    {
      "inputs": [
        {
          "internalType": "uint256",
          "name": "_id",
          "type": "uint256"
        }
      ],
      "name": "getMintCount",
      "outputs": [
        {
          "internalType": "uint32",
          "name": "",
          "type": "uint32"
        }
      ],
      "stateMutability": "view",
      "type": "function"
    },
    {
      "inputs": [
        {
          "internalType": "uint256",
          "name": "_id",
          "type": "uint256"
        }
      ],
      "name": "getOpenEdition",
      "outputs": [
        {
          "components": [
            {
              "internalType": "uint32",
              "name": "startTime",
              "type": "uint32"
            },
            {
              "internalType": "uint32",
              "name": "closeTime",
              "type": "uint32"
            },
            {
              "internalType": "uint32",
              "name": "costPoints",
              "type": "uint32"
            },
            {
              "internalType": "uint32",
              "name": "limitPerUser",
              "type": "uint32"
            },
            {
              "internalType": "uint32",
              "name": "mintCount",
              "type": "uint32"
            },
            {
              "internalType": "string",
              "name": "nftUri",
              "type": "string"
            },
            {
              "internalType": "contract INFT",
              "name": "nftContract",
              "type": "address"
            },
            {
              "internalType": "contract IWhitelist",
              "name": "whitelist",
              "type": "address"
            },
            {
              "internalType": "uint256",
              "name": "costTokens",
              "type": "uint256"
            },
            {
              "internalType": "uint256",
              "name": "id",
              "type": "uint256"
            }
          ],
          "internalType": "struct SAGEOpenEdition.OpenEdition",
          "name": "",
          "type": "tuple"
        }
      ],
      "stateMutability": "view",
      "type": "function"
    },
    {
      "inputs": [
        {
          "internalType": "uint256",
          "name": "",
          "type": "uint256"
        },
        {
          "internalType": "address",
          "name": "",
          "type": "address"
        }
      ],
      "name": "mintedByUser",
      "outputs": [
        {
          "internalType": "uint256",
          "name": "",
          "type": "uint256"
        }
      ],
      "stateMutability": "view",
      "type": "function"
    },
    {
      "inputs": [
        {
          "internalType": "uint256",
          "name": "",
          "type": "uint256"
        }
      ],
      "name": "openEditions",
      "outputs": [
        {
          "internalType": "uint32",
          "name": "startTime",
          "type": "uint32"
        },
        {
          "internalType": "uint32",
          "name": "closeTime",
          "type": "uint32"
        },
        {
          "internalType": "uint32",
          "name": "costPoints",
          "type": "uint32"
        },
        {
          "internalType": "uint32",
          "name": "limitPerUser",
          "type": "uint32"
        },
        {
          "internalType": "uint32",
          "name": "mintCount",
          "type": "uint32"
        },
        {
          "internalType": "string",
          "name": "nftUri",
          "type": "string"
        },
        {
          "internalType": "contract INFT",
          "name": "nftContract",
          "type": "address"
        },
        {
          "internalType": "contract IWhitelist",
          "name": "whitelist",
          "type": "address"
        },
        {
          "internalType": "uint256",
          "name": "costTokens",
          "type": "uint256"
        },
        {
          "internalType": "uint256",
          "name": "id",
          "type": "uint256"
        }
      ],
      "stateMutability": "view",
      "type": "function"
    },
    {
      "inputs": [],
      "name": "paused",
      "outputs": [
        {
          "internalType": "bool",
          "name": "",
          "type": "bool"
        }
      ],
      "stateMutability": "view",
      "type": "function"
    },
    {
      "inputs": [],
      "name": "rewardsContract",
      "outputs": [
        {
          "internalType": "contract IRewards",
          "name": "",
          "type": "address"
        }
      ],
      "stateMutability": "view",
      "type": "function"
    },
    {
      "inputs": [
        {
          "internalType": "uint256",
          "name": "_id",
          "type": "uint256"
        },
        {
          "internalType": "address",
          "name": "_whitelist",
          "type": "address"
        }
      ],
      "name": "setWhitelist",
      "outputs": [],
      "stateMutability": "nonpayable",
      "type": "function"
    },
    {
      "inputs": [],
      "name": "token",
      "outputs": [
        {
          "internalType": "contract IERC20",
          "name": "",
          "type": "address"
        }
      ],
      "stateMutability": "view",
      "type": "function"
    }
  ],
  "bytecode": "0x60806040523480156200001157600080fd5b5060405162001d5838038062001d588339810160408190526200003491620000ac565b600080546001600160a81b0319166101006001600160a01b0394851602179055600380546001600160a01b03199081169284169290921790556002805482169483169490941790935560018054909316911617905562000109565b80516001600160a01b0381168114620000a757600080fd5b919050565b60008060008060808587031215620000c357600080fd5b620000ce856200008f565b9350620000de602086016200008f565b9250620000ee604086016200008f565b9150620000fe606086016200008f565b905092959194509250565b611c3f80620001196000396000f3fe608060405234801561001057600080fd5b50600436106100a95760003560e01c806363c060aa1161007157806363c060aa14610140578063a89c8f4f14610179578063c50caaa6146101a2578063d89da286146101b5578063db09a3f5146101c8578063fc0c546a1461020a57600080fd5b80630ed64eff146100ae5780631e6541c4146100c3578063220cce97146100ec57806328c622a5146101175780635c975abb1461012a575b600080fd5b6100c16100bc366004611453565b61021d565b005b6100d66100d1366004611475565b6108b6565b6040516100e391906114db565b60405180910390f35b6002546100ff906001600160a01b031681565b6040516001600160a01b0390911681526020016100e3565b6100c16101253660046115b4565b610a3e565b60005460ff1660405190151581526020016100e3565b61016b61014e366004611656565b600460209081526000928352604080842090915290825290205481565b6040519081526020016100e3565b61018c610187366004611475565b610c36565b6040516100e39a99989796959493929190611686565b6100c16101b03660046116fd565b610d34565b6100c16101c3366004611656565b610eb2565b6101f56101d6366004611475565b600090815260056020526040902054600160801b900463ffffffff1690565b60405163ffffffff90911681526020016100e3565b6003546100ff906001600160a01b031681565b610225610fb8565b600081116102695760405162461bcd60e51b815260206004820152600c60248201526b043616e2774206d696e7420360a41b60448201526064015b60405180910390fd5b600082815260056020526040902080544263ffffffff9091161180159061029f575080544264010000000090910463ffffffff16115b6102d65760405162461bcd60e51b81526020600482015260086024820152672737ba1037b832b760c11b6044820152606401610260565b6040805161014081018252825463ffffffff8082168352640100000000820481166020840152600160401b8204811693830193909352600160601b810483166060830152600160801b900490911660808201526001820180546104019291849160a08401919061034590611739565b80601f016020809104026020016040519081016040528092919081815260200182805461037190611739565b80156103be5780601f10610393576101008083540402835291602001916103be565b820191906000526020600020905b8154815290600101906020018083116103a157829003601f168201915b505050918352505060028201546001600160a01b039081166020830152600383015416604082015260048201546060820152600590910154608090910152611000565b60008381526004602090815260408083203384529091529020548154600160601b900463ffffffff161561048b578154600160601b900463ffffffff166104488285611789565b111561048b5760405162461bcd60e51b8152602060048201526012602482015271135a5b9d081b1a5b5a5d081c995858da195960721b6044820152606401610260565b6000848152600460209081526040808320338452909152812080548592906104b4908490611789565b90915550508154839083906010906104da908490600160801b900463ffffffff166117a1565b92506101000a81548163ffffffff021916908363ffffffff160217905550600082600101805461050990611739565b80601f016020809104026020016040519081016040528092919081815260200182805461053590611739565b80156105825780601f1061055757610100808354040283529160200191610582565b820191906000526020600020905b81548152906001019060200180831161056557829003601f168201915b505086549394506000936105a89350600160401b900463ffffffff1691508790506117c9565b905080156105bc576105ba33826110c5565b505b60008585600401546105ce91906117c9565b905080156107f15760006127106105e7611f40846117c9565b6105f191906117e8565b6003546002880154604080516321de0b0960e11b815290519394506001600160a01b03928316936323b872dd93339316916343bc16129160048083019260209291908290030181865afa15801561064c573d6000803e3d6000fd5b505050506040513d601f19601f82011682018060405250810190610670919061180a565b6040516001600160e01b031960e085901b1681526001600160a01b03928316600482015291166024820152604481018490526064016020604051808303816000875af11580156106c4573d6000803e3d6000fd5b505050506040513d601f19601f820116820180604052508101906106e89190611827565b5060035460005460408051634783c35b60e01b815290516001600160a01b03938416936323b872dd93339361010090910490911691634783c35b916004808201926020929091908290030181865afa158015610748573d6000803e3d6000fd5b505050506040513d601f19601f8201168201806040525081019061076c919061180a565b6107768587611849565b6040516001600160e01b031960e086901b1681526001600160a01b03938416600482015292909116602483015260448201526064016020604051808303816000875af11580156107ca573d6000803e3d6000fd5b505050506040513d601f19601f820116820180604052508101906107ee9190611827565b50505b60005b86811015610875576002860154604051636902622f60e11b81526001600160a01b039091169063d204c45e906108309033908890600401611860565b600060405180830381600087803b15801561084a57600080fd5b505af115801561085e573d6000803e3d6000fd5b50505050808061086d9061188c565b9150506107f4565b50604051868152879033907f63232c37f2c1fdcb4fc657df1cef6cabc7181c5b604530242590ffe5fa91ab749060200160405180910390a350505050505050565b604080516101408101825260008082526020820181905291810182905260608082018390526080820183905260a082015260c0810182905260e081018290526101008101829052610120810191909152600082815260056020908152604091829020825161014081018452815463ffffffff80821683526401000000008204811694830194909452600160401b8104841694820194909452600160601b840483166060820152600160801b909304909116608083015260018101805460a08401919061098190611739565b80601f01602080910402602001604051908101604052809291908181526020018280546109ad90611739565b80156109fa5780601f106109cf576101008083540402835291602001916109fa565b820191906000526020600020905b8154815290600101906020018083116109dd57829003601f168201915b505050918352505060028201546001600160a01b03908116602083015260038301541660408201526004820154606082015260059091015460809091015292915050565b604080513360208083018290528284018790528351808403850181526060840185528051908201207f19457468657265756d205369676e6564204d6573736167653a0a3332000000006080850152609c808501919091528451808503909101815260bc840180865281519183019190912060015460dc601f890185900490940286018401909652868252929492936001600160a01b0390931692610afe928592918991899182910183828082843760009201919091525061114492505050565b6001600160a01b031614610b485760405162461bcd60e51b8152602060048201526011602482015270496e76616c6964207369676e617475726560781b6044820152606401610260565b60025460405163f662781d60e01b81526001600160a01b0384811660048301528792169063f662781d90602401602060405180830381865afa158015610b92573d6000803e3d6000fd5b505050506040513d601f19601f82011682018060405250810190610bb691906118a5565b1015610c2357600254604051630259ab7760e61b81526001600160a01b038481166004830152602482018890529091169063966addc090604401600060405180830381600087803b158015610c0a57600080fd5b505af1158015610c1e573d6000803e3d6000fd5b505050505b610c2d878761021d565b50505050505050565b6005602052600090815260409020805460018201805463ffffffff808416946401000000008504821694600160401b8104831694600160601b8204841694600160801b9092049093169290610c8a90611739565b80601f0160208091040260200160405190810160405280929190818152602001828054610cb690611739565b8015610d035780601f10610cd857610100808354040283529160200191610d03565b820191906000526020600020905b815481529060010190602001808311610ce657829003601f168201915b5050505060028301546003840154600485015460059095015493946001600160a01b0392831694929091169250908a565b600054604051632474521560e21b81527fe303cb88ace8c9e6ba216f1aecb44b3206dcab364c60512ffc6cbc920a1bf9d160048201523360248201526101009091046001600160a01b0316906391d1485490604401602060405180830381865afa158015610da6573d6000803e3d6000fd5b505050506040513d601f19601f82011682018060405250810190610dca9190611827565b610e095760405162461bcd60e51b815260206004820152601060248201526f41646d696e2063616c6c73206f6e6c7960801b6044820152606401610260565b6000610e1860208301836118d0565b63ffffffff16118015610e515750610e3360208201826118d0565b63ffffffff16610e4960408301602084016118d0565b63ffffffff16115b610e8d5760405162461bcd60e51b815260206004820152600d60248201526c496e76616c69642074696d657360981b6044820152606401610260565b61012081013560009081526005602052604090208190610ead8282611a99565b505050565b600054604051632474521560e21b81527fe303cb88ace8c9e6ba216f1aecb44b3206dcab364c60512ffc6cbc920a1bf9d160048201523360248201526101009091046001600160a01b0316906391d1485490604401602060405180830381865afa158015610f24573d6000803e3d6000fd5b505050506040513d601f19601f82011682018060405250810190610f489190611827565b610f875760405162461bcd60e51b815260206004820152601060248201526f41646d696e2063616c6c73206f6e6c7960801b6044820152606401610260565b60009182526005602052604090912060030180546001600160a01b0319166001600160a01b03909216919091179055565b60005460ff1615610ffe5760405162461bcd60e51b815260206004820152601060248201526f14185d5cd8589b194e881c185d5cd95960821b6044820152606401610260565b565b60e08101516001600160a01b038116156110c1576040516320c18e6b60e21b8152336004820152600060248201526001600160a01b0382169063830639ac90604401602060405180830381865afa15801561105f573d6000803e3d6000fd5b505050506040513d601f19601f820116820180604052508101906110839190611827565b6110c15760405162461bcd60e51b815260206004820152600f60248201526e139bdd081dda1a5d195b1a5cdd1959608a1b6044820152606401610260565b5050565b600254604051631e961d2760e01b81526001600160a01b038481166004830152602482018490526000921690631e961d27906044016020604051808303816000875af1158015611119573d6000803e3d6000fd5b505050506040513d601f19601f8201168201806040525081019061113d91906118a5565b9392505050565b60008060006111538585611168565b91509150611160816111ad565b509392505050565b600080825160410361119e5760208301516040840151606085015160001a61119287828585611366565b945094505050506111a6565b506000905060025b9250929050565b60008160048111156111c1576111c1611bf3565b036111c95750565b60018160048111156111dd576111dd611bf3565b0361122a5760405162461bcd60e51b815260206004820152601860248201527f45434453413a20696e76616c6964207369676e617475726500000000000000006044820152606401610260565b600281600481111561123e5761123e611bf3565b0361128b5760405162461bcd60e51b815260206004820152601f60248201527f45434453413a20696e76616c6964207369676e6174757265206c656e677468006044820152606401610260565b600381600481111561129f5761129f611bf3565b036112f75760405162461bcd60e51b815260206004820152602260248201527f45434453413a20696e76616c6964207369676e6174757265202773272076616c604482015261756560f01b6064820152608401610260565b600481600481111561130b5761130b611bf3565b036113635760405162461bcd60e51b815260206004820152602260248201527f45434453413a20696e76616c6964207369676e6174757265202776272076616c604482015261756560f01b6064820152608401610260565b50565b6000807f7fffffffffffffffffffffffffffffff5d576e7357a4501ddfe92f46681b20a083111561139d575060009050600361144a565b8460ff16601b141580156113b557508460ff16601c14155b156113c6575060009050600461144a565b6040805160008082526020820180845289905260ff881692820192909252606081018690526080810185905260019060a0016020604051602081039080840390855afa15801561141a573d6000803e3d6000fd5b5050604051601f1901519150506001600160a01b0381166114435760006001925092505061144a565b9150600090505b94509492505050565b6000806040838503121561146657600080fd5b50508035926020909101359150565b60006020828403121561148757600080fd5b5035919050565b6000815180845260005b818110156114b457602081850181015186830182015201611498565b818111156114c6576000602083870101525b50601f01601f19169290920160200192915050565b602081526114f260208201835163ffffffff169052565b6000602083015161150b604084018263ffffffff169052565b50604083015163ffffffff8116606084015250606083015163ffffffff8116608084015250608083015163ffffffff811660a08401525060a08301516101408060c085015261155e61016085018361148e565b915060c085015161157a60e08601826001600160a01b03169052565b5060e0850151610100611597818701836001600160a01b03169052565b860151610120868101919091529095015193019290925250919050565b6000806000806000608086880312156115cc57600080fd5b853594506020860135935060408601359250606086013567ffffffffffffffff808211156115f957600080fd5b818801915088601f83011261160d57600080fd5b81358181111561161c57600080fd5b89602082850101111561162e57600080fd5b9699959850939650602001949392505050565b6001600160a01b038116811461136357600080fd5b6000806040838503121561166957600080fd5b82359150602083013561167b81611641565b809150509250929050565b600061014063ffffffff808e168452808d166020850152808c166040850152808b166060850152808a166080850152508060a08401526116c88184018961148e565b6001600160a01b0397881660c08501529590961660e08301525061010081019290925261012090910152979650505050505050565b60006020828403121561170f57600080fd5b813567ffffffffffffffff81111561172657600080fd5b8201610140818503121561113d57600080fd5b600181811c9082168061174d57607f821691505b60208210810361176d57634e487b7160e01b600052602260045260246000fd5b50919050565b634e487b7160e01b600052601160045260246000fd5b6000821982111561179c5761179c611773565b500190565b600063ffffffff8083168185168083038211156117c0576117c0611773565b01949350505050565b60008160001904831182151516156117e3576117e3611773565b500290565b60008261180557634e487b7160e01b600052601260045260246000fd5b500490565b60006020828403121561181c57600080fd5b815161113d81611641565b60006020828403121561183957600080fd5b8151801515811461113d57600080fd5b60008282101561185b5761185b611773565b500390565b6001600160a01b03831681526040602082018190526000906118849083018461148e565b949350505050565b60006001820161189e5761189e611773565b5060010190565b6000602082840312156118b757600080fd5b5051919050565b63ffffffff8116811461136357600080fd5b6000602082840312156118e257600080fd5b813561113d816118be565b600081356118fa816118be565b92915050565b6000808335601e1984360301811261191757600080fd5b83018035915067ffffffffffffffff82111561193257600080fd5b6020019150368190038213156111a657600080fd5b634e487b7160e01b600052604160045260246000fd5b601f821115610ead57600081815260208120601f850160051c810160208610156119845750805b601f850160051c820191505b818110156119a357828155600101611990565b505050505050565b67ffffffffffffffff8311156119c3576119c3611947565b6119d7836119d18354611739565b8361195d565b6000601f841160018114611a0b57600085156119f35750838201355b600019600387901b1c1916600186901b178355611a65565b600083815260209020601f19861690835b82811015611a3c5786850135825560209485019460019092019101611a1c565b5086821015611a595760001960f88860031b161c19848701351681555b505060018560011b0183555b5050505050565b600081356118fa81611641565b80546001600160a01b0319166001600160a01b0392909216919091179055565b611abc611aa5836118ed565b825463ffffffff191663ffffffff91909116178255565b611aed611acb602084016118ed565b825467ffffffff00000000191660209190911b67ffffffff0000000016178255565b611b26611afc604084016118ed565b82546bffffffff0000000000000000191660409190911b6bffffffff000000000000000016178255565b611b59611b35606084016118ed565b82805463ffffffff60601b191660609290921b63ffffffff60601b16919091179055565b611b8c611b68608084016118ed565b82805463ffffffff60801b191660809290921b63ffffffff60801b16919091179055565b611b9960a0830183611900565b611ba78183600186016119ab565b5050611bc1611bb860c08401611a6c565b60028301611a79565b611bd9611bd060e08401611a6c565b60038301611a79565b610100820135600482015561012082013560058201555050565b634e487b7160e01b600052602160045260246000fdfea2646970667358221220b6b997d412a3e3899fa5f2b4d95f35576b237939a134f91f769c9361133d6f3a64736f6c634300080e0033",
  "linkReferences": {},
  "deployedLinkReferences": {}
}