{
  "_format": "hh-sol-artifact-1",
  "contractName": "SAGEOpenEdition",
  "sourceName": "contracts/OpenEdition/SAGEOpenEdition.sol",
  "abi": [
    {
      "inputs": [
        {
          "internalType": "address",
          "name": "_rewardsContract",
          "type": "address"
        },
        {
          "internalType": "address",
          "name": "_admin",
          "type": "address"
        },
        {
          "internalType": "address",
          "name": "_sageStorage",
          "type": "address"
        },
        {
          "internalType": "address",
          "name": "_token",
          "type": "address"
        }
      ],
      "stateMutability": "nonpayable",
      "type": "constructor"
    },
    {
      "anonymous": false,
      "inputs": [
        {
          "indexed": true,
          "internalType": "address",
          "name": "user",
          "type": "address"
        },
        {
          "indexed": true,
          "internalType": "uint256",
          "name": "id",
          "type": "uint256"
        },
        {
          "indexed": false,
          "internalType": "uint256",
          "name": "amount",
          "type": "uint256"
        }
      ],
      "name": "BatchMint",
      "type": "event"
    },
    {
      "anonymous": false,
      "inputs": [
        {
          "indexed": true,
          "internalType": "uint256",
          "name": "id",
          "type": "uint256"
        },
        {
          "indexed": true,
          "internalType": "address",
          "name": "nftContract",
          "type": "address"
        }
      ],
      "name": "OpenEditionCreated",
      "type": "event"
    },
    {
      "anonymous": false,
      "inputs": [
        {
          "indexed": false,
          "internalType": "address",
          "name": "account",
          "type": "address"
        }
      ],
      "name": "Paused",
      "type": "event"
    },
    {
      "anonymous": false,
      "inputs": [
        {
          "indexed": false,
          "internalType": "address",
          "name": "account",
          "type": "address"
        }
      ],
      "name": "Unpaused",
      "type": "event"
    },
    {
      "inputs": [],
      "name": "NATIVE_CURRENCY",
      "outputs": [
        {
          "internalType": "address",
          "name": "",
          "type": "address"
        }
      ],
      "stateMutability": "view",
      "type": "function"
    },
    {
      "inputs": [
        {
          "internalType": "uint256",
          "name": "_id",
          "type": "uint256"
        },
        {
          "internalType": "uint256",
          "name": "_amount",
          "type": "uint256"
        }
      ],
      "name": "batchMint",
      "outputs": [],
      "stateMutability": "payable",
      "type": "function"
    },
    {
      "inputs": [
        {
          "internalType": "uint256",
          "name": "_id",
          "type": "uint256"
        },
        {
          "internalType": "uint256",
          "name": "_amount",
          "type": "uint256"
        },
        {
          "internalType": "uint256",
          "name": "_points",
          "type": "uint256"
        },
        {
          "internalType": "bytes",
          "name": "_sig",
          "type": "bytes"
        }
      ],
      "name": "claimPointsAndMint",
      "outputs": [],
      "stateMutability": "payable",
      "type": "function"
    },
    {
      "inputs": [
        {
          "components": [
            {
              "internalType": "uint32",
              "name": "startTime",
              "type": "uint32"
            },
            {
              "internalType": "uint32",
              "name": "closeTime",
              "type": "uint32"
            },
            {
              "internalType": "uint32",
              "name": "costPoints",
              "type": "uint32"
            },
            {
              "internalType": "uint32",
              "name": "limitPerUser",
              "type": "uint32"
            },
            {
              "internalType": "uint32",
              "name": "mintCount",
              "type": "uint32"
            },
            {
              "internalType": "string",
              "name": "nftUri",
              "type": "string"
            },
            {
              "internalType": "contract INFT",
              "name": "nftContract",
              "type": "address"
            },
            {
              "internalType": "contract IWhitelist",
              "name": "whitelist",
              "type": "address"
            },
            {
              "internalType": "uint256",
              "name": "costTokens",
              "type": "uint256"
            },
            {
              "internalType": "uint256",
              "name": "id",
              "type": "uint256"
            },
            {
              "internalType": "address",
              "name": "currency",
              "type": "address"
            }
          ],
          "internalType": "struct SAGEOpenEdition.OpenEdition",
          "name": "oe",
          "type": "tuple"
        }
      ],
      "name": "createOpenEdition",
      "outputs": [],
      "stateMutability": "nonpayable",
      "type": "function"
    },
    {
      "inputs": [
        {
          "internalType": "uint256",
          "name": "",
          "type": "uint256"
        }
      ],
      "name": "editionArtistShare",
      "outputs": [
        {
          "internalType": "uint256",
          "name": "",
          "type": "uint256"
        }
      ],
      "stateMutability": "view",
      "type": "function"
    },
    {
      "inputs": [
        {
          "internalType": "uint256",
          "name": "_id",
          "type": "uint256"
        }
      ],
      "name": "getMintCount",
      "outputs": [
        {
          "internalType": "uint32",
          "name": "",
          "type": "uint32"
        }
      ],
      "stateMutability": "view",
      "type": "function"
    },
    {
      "inputs": [
        {
          "internalType": "uint256",
          "name": "_id",
          "type": "uint256"
        }
      ],
      "name": "getOpenEdition",
      "outputs": [
        {
          "components": [
            {
              "internalType": "uint32",
              "name": "startTime",
              "type": "uint32"
            },
            {
              "internalType": "uint32",
              "name": "closeTime",
              "type": "uint32"
            },
            {
              "internalType": "uint32",
              "name": "costPoints",
              "type": "uint32"
            },
            {
              "internalType": "uint32",
              "name": "limitPerUser",
              "type": "uint32"
            },
            {
              "internalType": "uint32",
              "name": "mintCount",
              "type": "uint32"
            },
            {
              "internalType": "string",
              "name": "nftUri",
              "type": "string"
            },
            {
              "internalType": "contract INFT",
              "name": "nftContract",
              "type": "address"
            },
            {
              "internalType": "contract IWhitelist",
              "name": "whitelist",
              "type": "address"
            },
            {
              "internalType": "uint256",
              "name": "costTokens",
              "type": "uint256"
            },
            {
              "internalType": "uint256",
              "name": "id",
              "type": "uint256"
            },
            {
              "internalType": "address",
              "name": "currency",
              "type": "address"
            }
          ],
          "internalType": "struct SAGEOpenEdition.OpenEdition",
          "name": "",
          "type": "tuple"
        }
      ],
      "stateMutability": "view",
      "type": "function"
    },
    {
      "inputs": [
        {
          "internalType": "uint256",
          "name": "",
          "type": "uint256"
        },
        {
          "internalType": "address",
          "name": "",
          "type": "address"
        }
      ],
      "name": "mintedByUser",
      "outputs": [
        {
          "internalType": "uint256",
          "name": "",
          "type": "uint256"
        }
      ],
      "stateMutability": "view",
      "type": "function"
    },
    {
      "inputs": [
        {
          "internalType": "uint256",
          "name": "",
          "type": "uint256"
        }
      ],
      "name": "openEditions",
      "outputs": [
        {
          "internalType": "uint32",
          "name": "startTime",
          "type": "uint32"
        },
        {
          "internalType": "uint32",
          "name": "closeTime",
          "type": "uint32"
        },
        {
          "internalType": "uint32",
          "name": "costPoints",
          "type": "uint32"
        },
        {
          "internalType": "uint32",
          "name": "limitPerUser",
          "type": "uint32"
        },
        {
          "internalType": "uint32",
          "name": "mintCount",
          "type": "uint32"
        },
        {
          "internalType": "string",
          "name": "nftUri",
          "type": "string"
        },
        {
          "internalType": "contract INFT",
          "name": "nftContract",
          "type": "address"
        },
        {
          "internalType": "contract IWhitelist",
          "name": "whitelist",
          "type": "address"
        },
        {
          "internalType": "uint256",
          "name": "costTokens",
          "type": "uint256"
        },
        {
          "internalType": "uint256",
          "name": "id",
          "type": "uint256"
        },
        {
          "internalType": "address",
          "name": "currency",
          "type": "address"
        }
      ],
      "stateMutability": "view",
      "type": "function"
    },
    {
      "inputs": [],
      "name": "paused",
      "outputs": [
        {
          "internalType": "bool",
          "name": "",
          "type": "bool"
        }
      ],
      "stateMutability": "view",
      "type": "function"
    },
    {
      "inputs": [],
      "name": "rewardsContract",
      "outputs": [
        {
          "internalType": "contract IRewards",
          "name": "",
          "type": "address"
        }
      ],
      "stateMutability": "view",
      "type": "function"
    },
    {
      "inputs": [
        {
          "internalType": "uint256",
          "name": "_id",
          "type": "uint256"
        },
        {
          "internalType": "uint256",
          "name": "_shareBps",
          "type": "uint256"
        }
      ],
      "name": "setEditionArtistShare",
      "outputs": [],
      "stateMutability": "nonpayable",
      "type": "function"
    },
    {
      "inputs": [
        {
          "internalType": "address",
          "name": "_ref",
          "type": "address"
        }
      ],
      "name": "setTrustedNftReference",
      "outputs": [],
      "stateMutability": "nonpayable",
      "type": "function"
    },
    {
      "inputs": [
        {
          "internalType": "uint256",
          "name": "_id",
          "type": "uint256"
        },
        {
          "internalType": "address",
          "name": "_whitelist",
          "type": "address"
        }
      ],
      "name": "setWhitelist",
      "outputs": [],
      "stateMutability": "nonpayable",
      "type": "function"
    },
    {
      "inputs": [],
      "name": "token",
      "outputs": [
        {
          "internalType": "contract IERC20",
          "name": "",
          "type": "address"
        }
      ],
      "stateMutability": "view",
      "type": "function"
    },
    {
      "inputs": [],
      "name": "trustedNftReference",
      "outputs": [
        {
          "internalType": "address",
          "name": "",
          "type": "address"
        }
      ],
      "stateMutability": "view",
      "type": "function"
    }
  ],
  "bytecode": "0x60806040523480156200001157600080fd5b50604051620029ce380380620029ce8339810160408190526200003491620000ac565b600080546001600160a81b0319166101006001600160a01b0394851602179055600380546001600160a01b03199081169284169290921790556002805482169483169490941790935560018054909316911617905562000109565b80516001600160a01b0381168114620000a757600080fd5b919050565b60008060008060808587031215620000c357600080fd5b620000ce856200008f565b9350620000de602086016200008f565b9250620000ee604086016200008f565b9150620000fe606086016200008f565b905092959194509250565b6128b580620001196000396000f3fe6080604052600436106100f35760003560e01c8063693435271161008a578063d89da28611610059578063d89da286146102e3578063daeec67614610303578063db09a3f514610323578063fc0c546a1461037257600080fd5b8063693435271461023f578063a753d9811461026c578063a89c8f4f1461028c578063bdbc97dd146102c357600080fd5b806329a9c277116100c657806329a9c2771461018e57806349f42650146101ae5780635c975abb146101d657806363c060aa146101f957600080fd5b80630ed64eff146100f85780631e6541c41461010d578063220cce971461014357806328c622a51461017b575b600080fd5b61010b610106366004612021565b610392565b005b34801561011957600080fd5b5061012d610128366004612043565b610d8b565b60405161013a91906120a9565b60405180910390f35b34801561014f57600080fd5b50600254610163906001600160a01b031681565b6040516001600160a01b03909116815260200161013a565b61010b610189366004612198565b610f29565b34801561019a57600080fd5b50600754610163906001600160a01b031681565b3480156101ba57600080fd5b5061016373eeeeeeeeeeeeeeeeeeeeeeeeeeeeeeeeeeeeeeee81565b3480156101e257600080fd5b5060005460ff16604051901515815260200161013a565b34801561020557600080fd5b5061023161021436600461223a565b600460209081526000928352604080842090915290825290205481565b60405190815260200161013a565b34801561024b57600080fd5b5061023161025a366004612043565b60066020526000908152604090205481565b34801561027857600080fd5b5061010b610287366004612021565b611121565b34801561029857600080fd5b506102ac6102a7366004612043565b611304565b60405161013a9b9a9998979695949392919061226a565b3480156102cf57600080fd5b5061010b6102de3660046122ef565b611409565b3480156102ef57600080fd5b5061010b6102fe36600461223a565b61170b565b34801561030f57600080fd5b5061010b61031e36600461232b565b6118cb565b34801561032f57600080fd5b5061035d61033e366004612043565b600090815260056020526040902054600160801b900463ffffffff1690565b60405163ffffffff909116815260200161013a565b34801561037e57600080fd5b50600354610163906001600160a01b031681565b61039a6119b0565b600081116103de5760405162461bcd60e51b815260206004820152600c60248201526b043616e2774206d696e7420360a41b60448201526064015b60405180910390fd5b600082815260056020526040902080544263ffffffff90911611801590610414575080544264010000000090910463ffffffff16115b61044b5760405162461bcd60e51b81526020600482015260086024820152672737ba1037b832b760c11b60448201526064016103d5565b6040805161016081018252825463ffffffff8082168352640100000000820481166020840152600160401b8204811693830193909352600160601b810483166060830152600160801b900490911660808201526001820180546105849291849160a0840191906104ba90612348565b80601f01602080910402602001604051908101604052809291908181526020018280546104e690612348565b80156105335780601f1061050857610100808354040283529160200191610533565b820191906000526020600020905b81548152906001019060200180831161051657829003601f168201915b505050918352505060028201546001600160a01b039081166020830152600383015481166040830152600483015460608301526005830154608083015260069092015490911660a0909101526119f8565b60008381526004602090815260408083203384529091529020548154600160601b900463ffffffff161561060e578154600160601b900463ffffffff166105cb8285612398565b111561060e5760405162461bcd60e51b8152602060048201526012602482015271135a5b9d081b1a5b5a5d081c995858da195960721b60448201526064016103d5565b600084815260046020908152604080832033845290915281208054859290610637908490612398565b909155505081548390839060109061065d908490600160801b900463ffffffff166123b0565b92506101000a81548163ffffffff021916908363ffffffff160217905550600082600101805461068c90612348565b80601f01602080910402602001604051908101604052809291908181526020018280546106b890612348565b80156107055780601f106106da57610100808354040283529160200191610705565b820191906000526020600020905b8154815290600101906020018083116106e857829003601f168201915b5050865493945060009361072b9350600160401b900463ffffffff1691508790506123d8565b9050801561073f5761073d3382611abd565b505b600085856004015461075191906123d8565b90508015610c89576000878152600660205260408120549081900361077b57610778611b3c565b90505b600061271061078a83856123d8565b61079491906123f7565b60068801549091506001600160a01b031673eeeeeeeeeeeeeeeeeeeeeeeeeeeeeeeeeeeeeeed1901610a36578234146108025760405162461bcd60e51b815260206004820152601060248201526f15dc9bdb99c811551208185b5bdd5b9d60821b60448201526064016103d5565b6002870154604080516321de0b0960e11b815290516000926001600160a01b0316916343bc16129160048083019260209291908290030181865afa15801561084e573d6000803e3d6000fd5b505050506040513d601f19601f820116820180604052508101906108729190612419565b6001600160a01b03168260405160006040518083038185875af1925050503d80600081146108bc576040519150601f19603f3d011682016040523d82523d6000602084013e6108c1565b606091505b50509050806109125760405162461bcd60e51b815260206004820152601a60248201527f41727469737420455448207472616e73666572206661696c656400000000000060448201526064016103d5565b60008060019054906101000a90046001600160a01b03166001600160a01b0316634783c35b6040518163ffffffff1660e01b8152600401602060405180830381865afa158015610966573d6000803e3d6000fd5b505050506040513d601f19601f8201168201806040525081019061098a9190612419565b6001600160a01b031661099d8487612436565b604051600081818185875af1925050503d80600081146109d9576040519150601f19603f3d011682016040523d82523d6000602084013e6109de565b606091505b5050905080610a2f5760405162461bcd60e51b815260206004820152601c60248201527f506c6174666f726d20455448207472616e73666572206661696c65640000000060448201526064016103d5565b5050610c82565b3415610a845760405162461bcd60e51b815260206004820152601c60248201527f45646974696f6e206973206e6f742070726963656420696e204554480000000060448201526064016103d5565b6003546002880154604080516321de0b0960e11b815290516001600160a01b03938416936323b872dd9333939116916343bc1612916004808201926020929091908290030181865afa158015610ade573d6000803e3d6000fd5b505050506040513d601f19601f82011682018060405250810190610b029190612419565b6040516001600160e01b031960e085901b1681526001600160a01b03928316600482015291166024820152604481018490526064016020604051808303816000875af1158015610b56573d6000803e3d6000fd5b505050506040513d601f19601f82011682018060405250810190610b7a919061244d565b5060035460005460408051634783c35b60e01b815290516001600160a01b03938416936323b872dd93339361010090910490911691634783c35b916004808201926020929091908290030181865afa158015610bda573d6000803e3d6000fd5b505050506040513d601f19601f82011682018060405250810190610bfe9190612419565b610c088588612436565b6040516001600160e01b031960e086901b1681526001600160a01b03938416600482015292909116602483015260448201526064016020604051808303816000875af1158015610c5c573d6000803e3d6000fd5b505050506040513d601f19601f82011682018060405250810190610c80919061244d565b505b5050610cc6565b3415610cc65760405162461bcd60e51b815260206004820152600c60248201526b4d696e74206973206672656560a01b60448201526064016103d5565b60005b86811015610d4a576002860154604051636902622f60e11b81526001600160a01b039091169063d204c45e90610d05903390889060040161246f565b600060405180830381600087803b158015610d1f57600080fd5b505af1158015610d33573d6000803e3d6000fd5b505050508080610d429061249b565b915050610cc9565b50604051868152879033907f63232c37f2c1fdcb4fc657df1cef6cabc7181c5b604530242590ffe5fa91ab749060200160405180910390a350505050505050565b604080516101608101825260008082526020820181905291810182905260608082018390526080820183905260a082015260c0810182905260e0810182905261010081018290526101208101829052610140810191909152600082815260056020908152604091829020825161016081018452815463ffffffff80821683526401000000008204811694830194909452600160401b8104841694820194909452600160601b840483166060820152600160801b909304909116608083015260018101805460a084019190610e5e90612348565b80601f0160208091040260200160405190810160405280929190818152602001828054610e8a90612348565b8015610ed75780601f10610eac57610100808354040283529160200191610ed7565b820191906000526020600020905b815481529060010190602001808311610eba57829003601f168201915b505050918352505060028201546001600160a01b039081166020830152600383015481166040830152600483015460608301526005830154608083015260069092015490911660a09091015292915050565b604080513360208083018290528284018790528351808403850181526060840185528051908201207f19457468657265756d205369676e6564204d6573736167653a0a3332000000006080850152609c808501919091528451808503909101815260bc840180865281519183019190912060015460dc601f890185900490940286018401909652868252929492936001600160a01b0390931692610fe99285929189918991829101838280828437600092019190915250611cca92505050565b6001600160a01b0316146110335760405162461bcd60e51b8152602060048201526011602482015270496e76616c6964207369676e617475726560781b60448201526064016103d5565b60025460405163f662781d60e01b81526001600160a01b0384811660048301528792169063f662781d90602401602060405180830381865afa15801561107d573d6000803e3d6000fd5b505050506040513d601f19601f820116820180604052508101906110a191906124b4565b101561110e57600254604051630259ab7760e61b81526001600160a01b038481166004830152602482018890529091169063966addc090604401600060405180830381600087803b1580156110f557600080fd5b505af1158015611109573d6000803e3d6000fd5b505050505b6111188787610392565b50505050505050565b60008281526005602052604090205463ffffffff1661117a5760405162461bcd60e51b815260206004820152601560248201527411591a5d1a5bdb88191bd95cdb89dd08195e1a5cdd605a1b60448201526064016103d5565b600054604051632474521560e21b815260008051602061286083398151915260048201523360248201526101009091046001600160a01b0316906391d1485490604401602060405180830381865afa1580156111da573d6000803e3d6000fd5b505050506040513d601f19601f820116820180604052508101906111fe919061244d565b8061129457506000828152600560209081526040918290206002015482516321de0b0960e11b815292516001600160a01b03909116926343bc16129260048083019391928290030181865afa15801561125b573d6000803e3d6000fd5b505050506040513d601f19601f8201168201806040525081019061127f9190612419565b6001600160a01b0316336001600160a01b0316145b6112b05760405162461bcd60e51b81526004016103d5906124cd565b6127108111156112f25760405162461bcd60e51b815260206004820152600d60248201526c496e76616c696420736861726560981b60448201526064016103d5565b60009182526006602052604090912055565b6005602052600090815260409020805460018201805463ffffffff808416946401000000008504821694600160401b8104831694600160601b8204841694600160801b909204909316929061135890612348565b80601f016020809104026020016040519081016040528092919081815260200182805461138490612348565b80156113d15780601f106113a6576101008083540402835291602001916113d1565b820191906000526020600020905b8154815290600101906020018083116113b457829003601f168201915b505050600284015460038501546004860154600587015460069097015495966001600160a01b0393841696928416955090935091168b565b61141960e0820160c0830161232b565b600054604051632474521560e21b815260008051602061286083398151915260048201523360248201526101009091046001600160a01b0316906391d1485490604401602060405180830381865afa158015611479573d6000803e3d6000fd5b505050506040513d601f19601f8201168201806040525081019061149d919061244d565b8061152a57506114ac81611cee565b801561152a5750806001600160a01b03166343bc16126040518163ffffffff1660e01b8152600401602060405180830381865afa1580156114f1573d6000803e3d6000fd5b505050506040513d601f19601f820116820180604052508101906115159190612419565b6001600160a01b0316336001600160a01b0316145b6115465760405162461bcd60e51b81526004016103d5906124cd565b60006115556020840184612516565b63ffffffff1611801561158e57506115706020830183612516565b63ffffffff166115866040840160208501612516565b63ffffffff16115b6115ca5760405162461bcd60e51b815260206004820152600d60248201526c496e76616c69642074696d657360981b60448201526064016103d5565b60006115de6101608401610140850161232b565b6001600160a01b03161480611620575073eeeeeeeeeeeeeeeeeeeeeeeeeeeeeeeeeeeeeeee6116156101608401610140850161232b565b6001600160a01b0316145b6116635760405162461bcd60e51b8152602060048201526014602482015273556e737570706f727465642063757272656e637960601b60448201526064016103d5565b61012082013560009081526005602052604090205463ffffffff16156116c45760405162461bcd60e51b815260206004820152601660248201527545646974696f6e20616c72656164792065786973747360501b60448201526064016103d5565b610120820135600090815260056020526040902082906116e482826126da565b9050506116ef611b3c565b6101209092013560009081526006602052604090209190915550565b60008281526005602052604090205463ffffffff166117645760405162461bcd60e51b815260206004820152601560248201527411591a5d1a5bdb88191bd95cdb89dd08195e1a5cdd605a1b60448201526064016103d5565b600054604051632474521560e21b815260008051602061286083398151915260048201523360248201526101009091046001600160a01b0316906391d1485490604401602060405180830381865afa1580156117c4573d6000803e3d6000fd5b505050506040513d601f19601f820116820180604052508101906117e8919061244d565b8061187e57506000828152600560209081526040918290206002015482516321de0b0960e11b815292516001600160a01b03909116926343bc16129260048083019391928290030181865afa158015611845573d6000803e3d6000fd5b505050506040513d601f19601f820116820180604052508101906118699190612419565b6001600160a01b0316336001600160a01b0316145b61189a5760405162461bcd60e51b81526004016103d5906124cd565b60009182526005602052604090912060030180546001600160a01b0319166001600160a01b03909216919091179055565b600054604051632474521560e21b815260008051602061286083398151915260048201523360248201526101009091046001600160a01b0316906391d1485490604401602060405180830381865afa15801561192b573d6000803e3d6000fd5b505050506040513d601f19601f8201168201806040525081019061194f919061244d565b61198e5760405162461bcd60e51b815260206004820152601060248201526f41646d696e2063616c6c73206f6e6c7960801b60448201526064016103d5565b600780546001600160a01b0319166001600160a01b0392909216919091179055565b60005460ff16156119f65760405162461bcd60e51b815260206004820152601060248201526f14185d5cd8589b194e881c185d5cd95960821b60448201526064016103d5565b565b60e08101516001600160a01b03811615611ab9576040516320c18e6b60e21b8152336004820152600060248201526001600160a01b0382169063830639ac90604401602060405180830381865afa158015611a57573d6000803e3d6000fd5b505050506040513d601f19601f82011682018060405250810190611a7b919061244d565b611ab95760405162461bcd60e51b815260206004820152600f60248201526e139bdd081dda1a5d195b1a5cdd1959608a1b60448201526064016103d5565b5050565b600254604051631e961d2760e01b81526001600160a01b038481166004830152602482018490526000921690631e961d27906044016020604051808303816000875af1158015611b11573d6000803e3d6000fd5b505050506040513d601f19601f82011682018060405250810190611b3591906124b4565b9392505050565b600080546040516d616464726573732e636f6e66696760901b6020820152829161010090046001600160a01b0316906321f8a72190602e01604051602081830303815290604052805190602001206040518263ffffffff1660e01b8152600401611ba891815260200190565b602060405180830381865afa158015611bc5573d6000803e3d6000fd5b505050506040513d601f19601f82011682018060405250810190611be99190612419565b90506001600160a01b038116611c0257611f4091505090565b6000816001600160a01b031663bd02d0f5604051602001611c3c90721cda185c994b9c1c9a5b585c9e505c9d1a5cdd606a1b815260130190565b604051602081830303815290604052805190602001206040518263ffffffff1660e01b8152600401611c7091815260200190565b602060405180830381865afa158015611c8d573d6000803e3d6000fd5b505050506040513d601f19601f82011682018060405250810190611cb191906124b4565b90508015611cbf5780611cc3565b611f405b9250505090565b6000806000611cd98585611d36565b91509150611ce681611d7b565b509392505050565b6007546000906001600160a01b031615801590611d1557506000826001600160a01b03163b115b8015611d3057506007546001600160a01b038381163f91163f145b92915050565b6000808251604103611d6c5760208301516040840151606085015160001a611d6087828585611f34565b94509450505050611d74565b506000905060025b9250929050565b6000816004811115611d8f57611d8f612849565b03611d975750565b6001816004811115611dab57611dab612849565b03611df85760405162461bcd60e51b815260206004820152601860248201527f45434453413a20696e76616c6964207369676e6174757265000000000000000060448201526064016103d5565b6002816004811115611e0c57611e0c612849565b03611e595760405162461bcd60e51b815260206004820152601f60248201527f45434453413a20696e76616c6964207369676e6174757265206c656e6774680060448201526064016103d5565b6003816004811115611e6d57611e6d612849565b03611ec55760405162461bcd60e51b815260206004820152602260248201527f45434453413a20696e76616c6964207369676e6174757265202773272076616c604482015261756560f01b60648201526084016103d5565b6004816004811115611ed957611ed9612849565b03611f315760405162461bcd60e51b815260206004820152602260248201527f45434453413a20696e76616c6964207369676e6174757265202776272076616c604482015261756560f01b60648201526084016103d5565b50565b6000807f7fffffffffffffffffffffffffffffff5d576e7357a4501ddfe92f46681b20a0831115611f6b5750600090506003612018565b8460ff16601b14158015611f8357508460ff16601c14155b15611f945750600090506004612018565b6040805160008082526020820180845289905260ff881692820192909252606081018690526080810185905260019060a0016020604051602081039080840390855afa158015611fe8573d6000803e3d6000fd5b5050604051601f1901519150506001600160a01b03811661201157600060019250925050612018565b9150600090505b94509492505050565b6000806040838503121561203457600080fd5b50508035926020909101359150565b60006020828403121561205557600080fd5b5035919050565b6000815180845260005b8181101561208257602081850181015186830182015201612066565b81811115612094576000602083870101525b50601f01601f19169290920160200192915050565b602081526120c060208201835163ffffffff169052565b600060208301516120d9604084018263ffffffff169052565b50604083015163ffffffff8116606084015250606083015163ffffffff8116608084015250608083015163ffffffff811660a08401525060a08301516101608060c085015261212c61018085018361205c565b915060c085015161214860e08601826001600160a01b03169052565b5060e0850151610100612165818701836001600160a01b03169052565b8601516101208681019190915286015161014080870191909152909501516001600160a01b031693019290925250919050565b6000806000806000608086880312156121b057600080fd5b853594506020860135935060408601359250606086013567ffffffffffffffff808211156121dd57600080fd5b818801915088601f8301126121f157600080fd5b81358181111561220057600080fd5b89602082850101111561221257600080fd5b9699959850939650602001949392505050565b6001600160a01b0381168114611f3157600080fd5b6000806040838503121561224d57600080fd5b82359150602083013561225f81612225565b809150509250929050565b600061016063ffffffff808f168452808e166020850152808d166040850152808c166060850152808b166080850152508060a08401526122ac8184018a61205c565b6001600160a01b0398891660c085015296881660e08401525050610100810193909352610120830191909152909216610140909201919091529695505050505050565b60006020828403121561230157600080fd5b813567ffffffffffffffff81111561231857600080fd5b82016101608185031215611b3557600080fd5b60006020828403121561233d57600080fd5b8135611b3581612225565b600181811c9082168061235c57607f821691505b60208210810361237c57634e487b7160e01b600052602260045260246000fd5b50919050565b634e487b7160e01b600052601160045260246000fd5b600082198211156123ab576123ab612382565b500190565b600063ffffffff8083168185168083038211156123cf576123cf612382565b01949350505050565b60008160001904831182151516156123f2576123f2612382565b500290565b60008261241457634e487b7160e01b600052601260045260246000fd5b500490565b60006020828403121561242b57600080fd5b8151611b3581612225565b60008282101561244857612448612382565b500390565b60006020828403121561245f57600080fd5b81518015158114611b3557600080fd5b6001600160a01b03831681526040602082018190526000906124939083018461205c565b949350505050565b6000600182016124ad576124ad612382565b5060010190565b6000602082840312156124c657600080fd5b5051919050565b6020808252601e908201527f41646d696e206f7220746865204e4654277320617274697374206f6e6c790000604082015260600190565b63ffffffff81168114611f3157600080fd5b60006020828403121561252857600080fd5b8135611b3581612504565b60008135611d3081612504565b6000808335601e1984360301811261255757600080fd5b83018035915067ffffffffffffffff82111561257257600080fd5b602001915036819003821315611d7457600080fd5b634e487b7160e01b600052604160045260246000fd5b601f8211156125e757600081815260208120601f850160051c810160208610156125c45750805b601f850160051c820191505b818110156125e3578281556001016125d0565b5050505b505050565b67ffffffffffffffff83111561260457612604612587565b612618836126128354612348565b8361259d565b6000601f84116001811461264c57600085156126345750838201355b600019600387901b1c1916600186901b1783556126a6565b600083815260209020601f19861690835b8281101561267d578685013582556020948501946001909201910161265d565b508682101561269a5760001960f88860031b161c19848701351681555b505060018560011b0183555b5050505050565b60008135611d3081612225565b80546001600160a01b0319166001600160a01b0392909216919091179055565b6126fd6126e683612533565b825463ffffffff191663ffffffff91909116178255565b61272e61270c60208401612533565b825467ffffffff00000000191660209190911b67ffffffff0000000016178255565b61276761273d60408401612533565b82546bffffffff0000000000000000191660409190911b6bffffffff000000000000000016178255565b61279a61277660608401612533565b82805463ffffffff60601b191660609290921b63ffffffff60601b16919091179055565b6127cd6127a960808401612533565b82805463ffffffff60801b191660809290921b63ffffffff60801b16919091179055565b6127da60a0830183612540565b6127e88183600186016125ec565b50506128026127f960c084016126ad565b600283016126ba565b61281a61281160e084016126ad565b600383016126ba565b61010082013560048201556101208201356005820155611ab961284061014084016126ad565b600683016126ba565b634e487b7160e01b600052602160045260246000fdfee303cb88ace8c9e6ba216f1aecb44b3206dcab364c60512ffc6cbc920a1bf9d1a264697066735822122079ba0a69801c868358ed32d6468f1a396cdbe5b51037ebe532a5a39bc885df4864736f6c634300080e0033",
  "linkReferences": {},
  "deployedLinkReferences": {}
}