{
  "_format": "hh-sol-artifact-1",
  "contractName": "SAGEOpenEdition",
  "sourceName": "contracts/OpenEdition/SAGEOpenEdition.sol",
  "abi": [
    {
      "inputs": [
        {
          "internalType": "address",
          "name": "_rewardsContract",
          "type": "address"
        },
        {
          "internalType": "address",
          "name": "_admin",
          "type": "address"
        },
        {
          "internalType": "address",
          "name": "_sageStorage",
          "type": "address"
        },
        {
          "internalType": "address",
          "name": "_token",
          "type": "address"
        }
      ],
      "stateMutability": "nonpayable",
      "type": "constructor"
    },
    {
      "anonymous": false,
      "inputs": [
        {
          "indexed": true,
          "internalType": "address",
          "name": "user",
          "type": "address"
        },
        {
          "indexed": true,
          "internalType": "uint256",
          "name": "id",
          "type": "uint256"
        },
        {
          "indexed": false,
          "internalType": "uint256",
          "name": "amount",
          "type": "uint256"
        }
      ],
      "name": "BatchMint",
      "type": "event"
    },
    {
      "anonymous": false,
      "inputs": [
        {
          "indexed": true,
          "internalType": "uint256",
          "name": "id",
          "type": "uint256"
        },
        {
          "indexed": true,
          "internalType": "address",
          "name": "nftContract",
          "type": "address"
        }
      ],
      "name": "OpenEditionCreated",
      "type": "event"
    },
    {
      "anonymous": false,
      "inputs": [
        {
          "indexed": false,
          "internalType": "address",
          "name": "account",
          "type": "address"
        }
      ],
      "name": "Paused",
      "type": "event"
    },
    {
      "anonymous": false,
      "inputs": [
        {
          "indexed": false,
          "internalType": "address",
          "name": "account",
          "type": "address"
        }
      ],
      "name": "Unpaused",
      "type": "event"
    },
    {
      "inputs": [
        {
          "internalType": "uint256",
          "name": "_id",
          "type": "uint256"
        },
        {
          "internalType": "uint256",
          "name": "_amount",
          "type": "uint256"
        }
      ],
      "name": "batchMint",
      "outputs": [],
      "stateMutability": "nonpayable",
      "type": "function"
    },
    {
      "inputs": [
        {
          "internalType": "uint256",
          "name": "_id",
          "type": "uint256"
        },
        {
          "internalType": "uint256",
          "name": "_amount",
          "type": "uint256"
        },
        {
          "internalType": "uint256",
          "name": "_points",
          "type": "uint256"
        },
        {
          "internalType": "bytes",
          "name": "_sig",
          "type": "bytes"
        }
      ],
      "name": "claimPointsAndMint",
      "outputs": [],
      "stateMutability": "nonpayable",
      "type": "function"
    },
    {
      "inputs": [
        {
          "components": [
            {
              "internalType": "uint32",
              "name": "startTime",
              "type": "uint32"
            },
            {
              "internalType": "uint32",
              "name": "closeTime",
              "type": "uint32"
            },
            {
              "internalType": "uint32",
              "name": "costPoints",
              "type": "uint32"
            },
            {
              "internalType": "uint32",
              "name": "limitPerUser",
              "type": "uint32"
            },
            {
              "internalType": "uint32",
              "name": "mintCount",
              "type": "uint32"
            },
            {
              "internalType": "string",
              "name": "nftUri",
              "type": "string"
            },
            {
              "internalType": "contract INFT",
              "name": "nftContract",
              "type": "address"
            },
            {
              "internalType": "contract IWhitelist",
              "name": "whitelist",
              "type": "address"
            },
            {
              "internalType": "uint256",
              "name": "costTokens",
              "type": "uint256"
            },
            {
              "internalType": "uint256",
              "name": "id",
              "type": "uint256"
            }
          ],
          "internalType": "struct SAGEOpenEdition.OpenEdition",
          "name": "oe",
          "type": "tuple"
        }
      ],
      "name": "createOpenEdition",
      "outputs": [],
      "stateMutability": "nonpayable",
      "type": "function"
    },
    {
      "inputs": [
        {
          "internalType": "uint256",
          "name": "",
          "type": "uint256"
        }
      ],
      "name": "editionArtistShare",
      "outputs": [
        {
          "internalType": "uint256",
          "name": "",
          "type": "uint256"
        }
      ],
      "stateMutability": "view",
      "type": "function"
    },
    {
      "inputs": [
        {
          "internalType": "uint256",
          "name": "_id",
          "type": "uint256"
        }
      ],
      "name": "getMintCount",
      "outputs": [
        {
          "internalType": "uint32",
          "name": "",
          "type": "uint32"
        }
      ],
      "stateMutability": "view",
      "type": "function"
    },
    {
      "inputs": [
        {
          "internalType": "uint256",
          "name": "_id",
          "type": "uint256"
        }
      ],
      "name": "getOpenEdition",
      "outputs": [
        {
          "components": [
            {
              "internalType": "uint32",
              "name": "startTime",
              "type": "uint32"
            },
            {
              "internalType": "uint32",
              "name": "closeTime",
              "type": "uint32"
            },
            {
              "internalType": "uint32",
              "name": "costPoints",
              "type": "uint32"
            },
            {
              "internalType": "uint32",
              "name": "limitPerUser",
              "type": "uint32"
            },
            {
              "internalType": "uint32",
              "name": "mintCount",
              "type": "uint32"
            },
            {
              "internalType": "string",
              "name": "nftUri",
              "type": "string"
            },
            {
              "internalType": "contract INFT",
              "name": "nftContract",
              "type": "address"
            },
            {
              "internalType": "contract IWhitelist",
              "name": "whitelist",
              "type": "address"
            },
            {
              "internalType": "uint256",
              "name": "costTokens",
              "type": "uint256"
            },
            {
              "internalType": "uint256",
              "name": "id",
              "type": "uint256"
            }
          ],
          "internalType": "struct SAGEOpenEdition.OpenEdition",
          "name": "",
          "type": "tuple"
        }
      ],
      "stateMutability": "view",
      "type": "function"
    },
    {
      "inputs": [
        {
          "internalType": "uint256",
          "name": "",
          "type": "uint256"
        },
        {
          "internalType": "address",
          "name": "",
          "type": "address"
        }
      ],
      "name": "mintedByUser",
      "outputs": [
        {
          "internalType": "uint256",
          "name": "",
          "type": "uint256"
        }
      ],
      "stateMutability": "view",
      "type": "function"
    },
    {
      "inputs": [
        {
          "internalType": "uint256",
          "name": "",
          "type": "uint256"
        }
      ],
      "name": "openEditions",
      "outputs": [
        {
          "internalType": "uint32",
          "name": "startTime",
          "type": "uint32"
        },
        {
          "internalType": "uint32",
          "name": "closeTime",
          "type": "uint32"
        },
        {
          "internalType": "uint32",
          "name": "costPoints",
          "type": "uint32"
        },
        {
          "internalType": "uint32",
          "name": "limitPerUser",
          "type": "uint32"
        },
        {
          "internalType": "uint32",
          "name": "mintCount",
          "type": "uint32"
        },
        {
          "internalType": "string",
          "name": "nftUri",
          "type": "string"
        },
        {
          "internalType": "contract INFT",
          "name": "nftContract",
          "type": "address"
        },
        {
          "internalType": "contract IWhitelist",
          "name": "whitelist",
          "type": "address"
        },
        {
          "internalType": "uint256",
          "name": "costTokens",
          "type": "uint256"
        },
        {
          "internalType": "uint256",
          "name": "id",
          "type": "uint256"
        }
      ],
      "stateMutability": "view",
      "type": "function"
    },
    {
      "inputs": [],
      "name": "paused",
      "outputs": [
        {
          "internalType": "bool",
          "name": "",
          "type": "bool"
        }
      ],
      "stateMutability": "view",
      "type": "function"
    },
    {
      "inputs": [],
      "name": "rewardsContract",
      "outputs": [
        {
          "internalType": "contract IRewards",
          "name": "",
          "type": "address"
        }
      ],
      "stateMutability": "view",
      "type": "function"
    },
    {
      "inputs": [
        {
          "internalType": "uint256",
          "name": "_id",
          "type": "uint256"
        },
        {
          "internalType": "uint256",
          "name": "_shareBps",
          "type": "uint256"
        }
      ],
      "name": "setEditionArtistShare",
      "outputs": [],
      "stateMutability": "nonpayable",
      "type": "function"
    },
    {
      "inputs": [
        {
          "internalType": "uint256",
          "name": "_id",
          "type": "uint256"
        },
        {
          "internalType": "address",
          "name": "_whitelist",
          "type": "address"
        }
      ],
      "name": "setWhitelist",
      "outputs": [],
      "stateMutability": "nonpayable",
      "type": "function"
    },
    {
      "inputs": [],
      "name": "token",
      "outputs": [
        {
          "internalType": "contract IERC20",
          "name": "",
          "type": "address"
        }
      ],
      "stateMutability": "view",
      "type": "function"
    }
  ],
  "bytecode": "0x60806040523480156200001157600080fd5b50604051620020c2380380620020c28339810160408190526200003491620000ac565b600080546001600160a81b0319166101006001600160a01b0394851602179055600380546001600160a01b03199081169284169290921790556002805482169483169490941790935560018054909316911617905562000109565b80516001600160a01b0381168114620000a757600080fd5b919050565b60008060008060808587031215620000c357600080fd5b620000ce856200008f565b9350620000de602086016200008f565b9250620000ee604086016200008f565b9150620000fe606086016200008f565b905092959194509250565b611fa980620001196000396000f3fe608060405234801561001057600080fd5b50600436106100cf5760003560e01c8063693435271161008c578063c50caaa611610066578063c50caaa6146101fb578063d89da2861461020e578063db09a3f514610221578063fc0c546a1461026357600080fd5b8063693435271461019f578063a753d981146101bf578063a89c8f4f146101d257600080fd5b80630ed64eff146100d45780631e6541c4146100e9578063220cce971461011257806328c622a51461013d5780635c975abb1461015057806363c060aa14610166575b600080fd5b6100e76100e2366004611792565b610276565b005b6100fc6100f73660046117b4565b610930565b604051610109919061181a565b60405180910390f35b600254610125906001600160a01b031681565b6040516001600160a01b039091168152602001610109565b6100e761014b3660046118f3565b610ab8565b60005460ff166040519015158152602001610109565b610191610174366004611995565b600460209081526000928352604080842090915290825290205481565b604051908152602001610109565b6101916101ad3660046117b4565b60066020526000908152604090205481565b6100e76101cd366004611792565b610cb0565b6101e56101e03660046117b4565b610e0f565b6040516101099a999897969594939291906119c5565b6100e7610209366004611a3c565b610f0d565b6100e761021c366004611995565b611086565b61024e61022f3660046117b4565b600090815260056020526040902054600160801b900463ffffffff1690565b60405163ffffffff9091168152602001610109565b600354610125906001600160a01b031681565b61027e611169565b600081116102c25760405162461bcd60e51b815260206004820152600c60248201526b043616e2774206d696e7420360a41b60448201526064015b60405180910390fd5b600082815260056020526040902080544263ffffffff909116118015906102f8575080544264010000000090910463ffffffff16115b61032f5760405162461bcd60e51b81526020600482015260086024820152672737ba1037b832b760c11b60448201526064016102b9565b6040805161014081018252825463ffffffff8082168352640100000000820481166020840152600160401b8204811693830193909352600160601b810483166060830152600160801b9004909116608082015260018201805461045a9291849160a08401919061039e90611a78565b80601f01602080910402602001604051908101604052809291908181526020018280546103ca90611a78565b80156104175780601f106103ec57610100808354040283529160200191610417565b820191906000526020600020905b8154815290600101906020018083116103fa57829003601f168201915b505050918352505060028201546001600160a01b0390811660208301526003830154166040820152600482015460608201526005909101546080909101526111b1565b60008381526004602090815260408083203384529091529020548154600160601b900463ffffffff16156104e4578154600160601b900463ffffffff166104a18285611ac8565b11156104e45760405162461bcd60e51b8152602060048201526012602482015271135a5b9d081b1a5b5a5d081c995858da195960721b60448201526064016102b9565b60008481526004602090815260408083203384529091528120805485929061050d908490611ac8565b9091555050815483908390601090610533908490600160801b900463ffffffff16611ae0565b92506101000a81548163ffffffff021916908363ffffffff160217905550600082600101805461056290611a78565b80601f016020809104026020016040519081016040528092919081815260200182805461058e90611a78565b80156105db5780601f106105b0576101008083540402835291602001916105db565b820191906000526020600020905b8154815290600101906020018083116105be57829003601f168201915b505086549394506000936106019350600160401b900463ffffffff169150879050611b08565b90508015610615576106133382611276565b505b60008585600401546106279190611b08565b9050801561086b57600087815260066020526040812054908190036106515761064e6112f5565b90505b60006127106106608385611b08565b61066a9190611b27565b6003546002890154604080516321de0b0960e11b815290519394506001600160a01b03928316936323b872dd93339316916343bc16129160048083019260209291908290030181865afa1580156106c5573d6000803e3d6000fd5b505050506040513d601f19601f820116820180604052508101906106e99190611b49565b6040516001600160e01b031960e085901b1681526001600160a01b03928316600482015291166024820152604481018490526064016020604051808303816000875af115801561073d573d6000803e3d6000fd5b505050506040513d601f19601f820116820180604052508101906107619190611b66565b5060035460005460408051634783c35b60e01b815290516001600160a01b03938416936323b872dd93339361010090910490911691634783c35b916004808201926020929091908290030181865afa1580156107c1573d6000803e3d6000fd5b505050506040513d601f19601f820116820180604052508101906107e59190611b49565b6107ef8588611b88565b6040516001600160e01b031960e086901b1681526001600160a01b03938416600482015292909116602483015260448201526064016020604051808303816000875af1158015610843573d6000803e3d6000fd5b505050506040513d601f19601f820116820180604052508101906108679190611b66565b5050505b60005b868110156108ef576002860154604051636902622f60e11b81526001600160a01b039091169063d204c45e906108aa9033908890600401611b9f565b600060405180830381600087803b1580156108c457600080fd5b505af11580156108d8573d6000803e3d6000fd5b5050505080806108e790611bcb565b91505061086e565b50604051868152879033907f63232c37f2c1fdcb4fc657df1cef6cabc7181c5b604530242590ffe5fa91ab749060200160405180910390a350505050505050565b604080516101408101825260008082526020820181905291810182905260608082018390526080820183905260a082015260c0810182905260e081018290526101008101829052610120810191909152600082815260056020908152604091829020825161014081018452815463ffffffff80821683526401000000008204811694830194909452600160401b8104841694820194909452600160601b840483166060820152600160801b909304909116608083015260018101805460a0840191906109fb90611a78565b80601f0160208091040260200160405190810160405280929190818152602001828054610a2790611a78565b8015610a745780601f10610a4957610100808354040283529160200191610a74565b820191906000526020600020905b815481529060010190602001808311610a5757829003601f168201915b505050918352505060028201546001600160a01b03908116602083015260038301541660408201526004820154606082015260059091015460809091015292915050565b604080513360208083018290528284018790528351808403850181526060840185528051908201207f19457468657265756d205369676e6564204d6573736167653a0a3332000000006080850152609c808501919091528451808503909101815260bc840180865281519183019190912060015460dc601f890185900490940286018401909652868252929492936001600160a01b0390931692610b78928592918991899182910183828082843760009201919091525061148392505050565b6001600160a01b031614610bc25760405162461bcd60e51b8152602060048201526011602482015270496e76616c6964207369676e617475726560781b60448201526064016102b9565b60025460405163f662781d60e01b81526001600160a01b0384811660048301528792169063f662781d90602401602060405180830381865afa158015610c0c573d6000803e3d6000fd5b505050506040513d601f19601f82011682018060405250810190610c309190611be4565b1015610c9d57600254604051630259ab7760e61b81526001600160a01b038481166004830152602482018890529091169063966addc090604401600060405180830381600087803b158015610c8457600080fd5b505af1158015610c98573d6000803e3d6000fd5b505050505b610ca78787610276565b50505050505050565b600054604051632474521560e21b81527fe303cb88ace8c9e6ba216f1aecb44b3206dcab364c60512ffc6cbc920a1bf9d160048201523360248201526101009091046001600160a01b0316906391d1485490604401602060405180830381865afa158015610d22573d6000803e3d6000fd5b505050506040513d601f19601f82011682018060405250810190610d469190611b66565b610d625760405162461bcd60e51b81526004016102b990611bfd565b612710811115610da45760405162461bcd60e51b815260206004820152600d60248201526c496e76616c696420736861726560981b60448201526064016102b9565b60008281526005602052604090205463ffffffff16610dfd5760405162461bcd60e51b815260206004820152601560248201527411591a5d1a5bdb88191bd95cdb89dd08195e1a5cdd605a1b60448201526064016102b9565b60009182526006602052604090912055565b6005602052600090815260409020805460018201805463ffffffff808416946401000000008504821694600160401b8104831694600160601b8204841694600160801b9092049093169290610e6390611a78565b80601f0160208091040260200160405190810160405280929190818152602001828054610e8f90611a78565b8015610edc5780601f10610eb157610100808354040283529160200191610edc565b820191906000526020600020905b815481529060010190602001808311610ebf57829003601f168201915b5050505060028301546003840154600485015460059095015493946001600160a01b0392831694929091169250908a565b600054604051632474521560e21b81527fe303cb88ace8c9e6ba216f1aecb44b3206dcab364c60512ffc6cbc920a1bf9d160048201523360248201526101009091046001600160a01b0316906391d1485490604401602060405180830381865afa158015610f7f573d6000803e3d6000fd5b505050506040513d601f19601f82011682018060405250810190610fa39190611b66565b610fbf5760405162461bcd60e51b81526004016102b990611bfd565b6000610fce6020830183611c39565b63ffffffff161180156110075750610fe96020820182611c39565b63ffffffff16610fff6040830160208401611c39565b63ffffffff16115b6110435760405162461bcd60e51b815260206004820152600d60248201526c496e76616c69642074696d657360981b60448201526064016102b9565b610120810135600090815260056020526040902081906110638282611e03565b90505061106e6112f5565b61012090910135600090815260066020526040902055565b600054604051632474521560e21b81527fe303cb88ace8c9e6ba216f1aecb44b3206dcab364c60512ffc6cbc920a1bf9d160048201523360248201526101009091046001600160a01b0316906391d1485490604401602060405180830381865afa1580156110f8573d6000803e3d6000fd5b505050506040513d601f19601f8201168201806040525081019061111c9190611b66565b6111385760405162461bcd60e51b81526004016102b990611bfd565b60009182526005602052604090912060030180546001600160a01b0319166001600160a01b03909216919091179055565b60005460ff16156111af5760405162461bcd60e51b815260206004820152601060248201526f14185d5cd8589b194e881c185d5cd95960821b60448201526064016102b9565b565b60e08101516001600160a01b03811615611272576040516320c18e6b60e21b8152336004820152600060248201526001600160a01b0382169063830639ac90604401602060405180830381865afa158015611210573d6000803e3d6000fd5b505050506040513d601f19601f820116820180604052508101906112349190611b66565b6112725760405162461bcd60e51b815260206004820152600f60248201526e139bdd081dda1a5d195b1a5cdd1959608a1b60448201526064016102b9565b5050565b600254604051631e961d2760e01b81526001600160a01b038481166004830152602482018490526000921690631e961d27906044016020604051808303816000875af11580156112ca573d6000803e3d6000fd5b505050506040513d601f19601f820116820180604052508101906112ee9190611be4565b9392505050565b600080546040516d616464726573732e636f6e66696760901b6020820152829161010090046001600160a01b0316906321f8a72190602e01604051602081830303815290604052805190602001206040518263ffffffff1660e01b815260040161136191815260200190565b602060405180830381865afa15801561137e573d6000803e3d6000fd5b505050506040513d601f19601f820116820180604052508101906113a29190611b49565b90506001600160a01b0381166113bb57611f4091505090565b6000816001600160a01b031663bd02d0f56040516020016113f590721cda185c994b9c1c9a5b585c9e505c9d1a5cdd606a1b815260130190565b604051602081830303815290604052805190602001206040518263ffffffff1660e01b815260040161142991815260200190565b602060405180830381865afa158015611446573d6000803e3d6000fd5b505050506040513d601f19601f8201168201806040525081019061146a9190611be4565b90508015611478578061147c565b611f405b9250505090565b600080600061149285856114a7565b9150915061149f816114ec565b509392505050565b60008082516041036114dd5760208301516040840151606085015160001a6114d1878285856116a5565b945094505050506114e5565b506000905060025b9250929050565b600081600481111561150057611500611f5d565b036115085750565b600181600481111561151c5761151c611f5d565b036115695760405162461bcd60e51b815260206004820152601860248201527f45434453413a20696e76616c6964207369676e6174757265000000000000000060448201526064016102b9565b600281600481111561157d5761157d611f5d565b036115ca5760405162461bcd60e51b815260206004820152601f60248201527f45434453413a20696e76616c6964207369676e6174757265206c656e6774680060448201526064016102b9565b60038160048111156115de576115de611f5d565b036116365760405162461bcd60e51b815260206004820152602260248201527f45434453413a20696e76616c6964207369676e6174757265202773272076616c604482015261756560f01b60648201526084016102b9565b600481600481111561164a5761164a611f5d565b036116a25760405162461bcd60e51b815260206004820152602260248201527f45434453413a20696e76616c6964207369676e6174757265202776272076616c604482015261756560f01b60648201526084016102b9565b50565b6000807f7fffffffffffffffffffffffffffffff5d576e7357a4501ddfe92f46681b20a08311156116dc5750600090506003611789565b8460ff16601b141580156116f457508460ff16601c14155b156117055750600090506004611789565b6040805160008082526020820180845289905260ff881692820192909252606081018690526080810185905260019060a0016020604051602081039080840390855afa158015611759573d6000803e3d6000fd5b5050604051601f1901519150506001600160a01b03811661178257600060019250925050611789565b9150600090505b94509492505050565b600080604083850312156117a557600080fd5b50508035926020909101359150565b6000602082840312156117c657600080fd5b5035919050565b6000815180845260005b818110156117f3576020818501810151868301820152016117d7565b81811115611805576000602083870101525b50601f01601f19169290920160200192915050565b6020815261183160208201835163ffffffff169052565b6000602083015161184a604084018263ffffffff169052565b50604083015163ffffffff8116606084015250606083015163ffffffff8116608084015250608083015163ffffffff811660a08401525060a08301516101408060c085015261189d6101608501836117cd565b915060c08501516118b960e08601826001600160a01b03169052565b5060e08501516101006118d6818701836001600160a01b03169052565b860151610120868101919091529095015193019290925250919050565b60008060008060006080868803121561190b57600080fd5b853594506020860135935060408601359250606086013567ffffffffffffffff8082111561193857600080fd5b818801915088601f83011261194c57600080fd5b81358181111561195b57600080fd5b89602082850101111561196d57600080fd5b9699959850939650602001949392505050565b6001600160a01b03811681146116a257600080fd5b600080604083850312156119a857600080fd5b8235915060208301356119ba81611980565b809150509250929050565b600061014063ffffffff808e168452808d166020850152808c166040850152808b166060850152808a166080850152508060a0840152611a07818401896117cd565b6001600160a01b0397881660c08501529590961660e08301525061010081019290925261012090910152979650505050505050565b600060208284031215611a4e57600080fd5b813567ffffffffffffffff811115611a6557600080fd5b820161014081850312156112ee57600080fd5b600181811c90821680611a8c57607f821691505b602082108103611aac57634e487b7160e01b600052602260045260246000fd5b50919050565b634e487b7160e01b600052601160045260246000fd5b60008219821115611adb57611adb611ab2565b500190565b600063ffffffff808316818516808303821115611aff57611aff611ab2565b01949350505050565b6000816000190483118215151615611b2257611b22611ab2565b500290565b600082611b4457634e487b7160e01b600052601260045260246000fd5b500490565b600060208284031215611b5b57600080fd5b81516112ee81611980565b600060208284031215611b7857600080fd5b815180151581146112ee57600080fd5b600082821015611b9a57611b9a611ab2565b500390565b6001600160a01b0383168152604060208201819052600090611bc3908301846117cd565b949350505050565b600060018201611bdd57611bdd611ab2565b5060010190565b600060208284031215611bf657600080fd5b5051919050565b60208082526010908201526f41646d696e2063616c6c73206f6e6c7960801b604082015260600190565b63ffffffff811681146116a257600080fd5b600060208284031215611c4b57600080fd5b81356112ee81611c27565b60008135611c6381611c27565b92915050565b6000808335601e19843603018112611c8057600080fd5b83018035915067ffffffffffffffff821115611c9b57600080fd5b6020019150368190038213156114e557600080fd5b634e487b7160e01b600052604160045260246000fd5b601f821115611d1057600081815260208120601f850160051c81016020861015611ced5750805b601f850160051c820191505b81811015611d0c57828155600101611cf9565b5050505b505050565b67ffffffffffffffff831115611d2d57611d2d611cb0565b611d4183611d3b8354611a78565b83611cc6565b6000601f841160018114611d755760008515611d5d5750838201355b600019600387901b1c1916600186901b178355611dcf565b600083815260209020601f19861690835b82811015611da65786850135825560209485019460019092019101611d86565b5086821015611dc35760001960f88860031b161c19848701351681555b505060018560011b0183555b5050505050565b60008135611c6381611980565b80546001600160a01b0319166001600160a01b0392909216919091179055565b611e26611e0f83611c56565b825463ffffffff191663ffffffff91909116178255565b611e57611e3560208401611c56565b825467ffffffff00000000191660209190911b67ffffffff0000000016178255565b611e90611e6660408401611c56565b82546bffffffff0000000000000000191660409190911b6bffffffff000000000000000016178255565b611ec3611e9f60608401611c56565b82805463ffffffff60601b191660609290921b63ffffffff60601b16919091179055565b611ef6611ed260808401611c56565b82805463ffffffff60801b191660809290921b63ffffffff60801b16919091179055565b611f0360a0830183611c69565b611f11818360018601611d15565b5050611f2b611f2260c08401611dd6565b60028301611de3565b611f43611f3a60e08401611dd6565b60038301611de3565b610100820135600482015561012082013560058201555050565b634e487b7160e01b600052602160045260246000fdfea2646970667358221220b4efc9f91296621940430ac798b4e8c48dba393fa4e3576f05999edce48cf10064736f6c634300080e0033",
  "linkReferences": {},
  "deployedLinkReferences": {}
}