{
  "_format": "hh-sol-artifact-1",
  "contractName": "SageNFT",
  "sourceName": "contracts/NFT/SageNFT.sol",
  "abi": [
    {
      "inputs": [
        {
          "internalType": "string",
          "name": "_name",
          "type": "string"
        },
        {
          "internalType": "string",
          "name": "_symbol",
          "type": "string"
        },
        {
          "internalType": "address",
          "name": "_sageStorage",
          "type": "address"
        },
        {
          "internalType": "address",
          "name": "_artist",
          "type": "address"
        },
        {
          "internalType": "uint256",
          "name": "_artistShare",
          "type": "uint256"
        },
        {
          "internalType": "uint96",
          "name": "_defaultRoyaltyBps",
          "type": "uint96"
        }
      ],
      "stateMutability": "nonpayable",
      "type": "constructor"
    },
    {
      "anonymous": false,
      "inputs": [
        {
          "indexed": true,
          "internalType": "address",
          "name": "owner",
          "type": "address"
        },
        {
          "indexed": true,
          "internalType": "address",
          "name": "approved",
          "type": "address"
        },
        {
          "indexed": true,
          "internalType": "uint256",
          "name": "tokenId",
          "type": "uint256"
        }
      ],
      "name": "Approval",
      "type": "event"
    },
    {
      "anonymous": false,
      "inputs": [
        {
          "indexed": true,
          "internalType": "address",
          "name": "owner",
          "type": "address"
        },
        {
          "indexed": true,
          "internalType": "address",
          "name": "operator",
          "type": "address"
        },
        {
          "indexed": false,
          "internalType": "bool",
          "name": "approved",
          "type": "bool"
        }
      ],
      "name": "ApprovalForAll",
      "type": "event"
    },
    {
      "anonymous": false,
      "inputs": [
        {
          "indexed": false,
          "internalType": "uint96",
          "name": "bps",
          "type": "uint96"
        }
      ],
      "name": "DefaultRoyaltyChanged",
      "type": "event"
    },
    {
      "anonymous": false,
      "inputs": [
        {
          "indexed": true,
          "internalType": "address",
          "name": "previousOwner",
          "type": "address"
        },
        {
          "indexed": true,
          "internalType": "address",
          "name": "newOwner",
          "type": "address"
        }
      ],
      "name": "OwnershipTransferred",
      "type": "event"
    },
    {
      "anonymous": false,
      "inputs": [
        {
          "indexed": true,
          "internalType": "uint256",
          "name": "tokenId",
          "type": "uint256"
        },
        {
          "indexed": false,
          "internalType": "uint96",
          "name": "bps",
          "type": "uint96"
        }
      ],
      "name": "TokenRoyaltySet",
      "type": "event"
    },
    {
      "anonymous": false,
      "inputs": [
        {
          "indexed": true,
          "internalType": "address",
          "name": "from",
          "type": "address"
        },
        {
          "indexed": true,
          "internalType": "address",
          "name": "to",
          "type": "address"
        },
        {
          "indexed": true,
          "internalType": "uint256",
          "name": "tokenId",
          "type": "uint256"
        }
      ],
      "name": "Transfer",
      "type": "event"
    },
    {
      "inputs": [],
      "name": "ADMIN_ROLE",
      "outputs": [
        {
          "internalType": "bytes32",
          "name": "",
          "type": "bytes32"
        }
      ],
      "stateMutability": "view",
      "type": "function"
    },
    {
      "inputs": [],
      "name": "BURNER_ROLE",
      "outputs": [
        {
          "internalType": "bytes32",
          "name": "",
          "type": "bytes32"
        }
      ],
      "stateMutability": "view",
      "type": "function"
    },
    {
      "inputs": [],
      "name": "DEFAULT_ADMIN_ROLE",
      "outputs": [
        {
          "internalType": "bytes32",
          "name": "",
          "type": "bytes32"
        }
      ],
      "stateMutability": "view",
      "type": "function"
    },
    {
      "inputs": [],
      "name": "MAX_ROYALTY_BPS",
      "outputs": [
        {
          "internalType": "uint96",
          "name": "",
          "type": "uint96"
        }
      ],
      "stateMutability": "view",
      "type": "function"
    },
    {
      "inputs": [],
      "name": "MINTER_ROLE",
      "outputs": [
        {
          "internalType": "bytes32",
          "name": "",
          "type": "bytes32"
        }
      ],
      "stateMutability": "view",
      "type": "function"
    },
    {
      "inputs": [
        {
          "internalType": "address",
          "name": "to",
          "type": "address"
        },
        {
          "internalType": "uint256",
          "name": "tokenId",
          "type": "uint256"
        }
      ],
      "name": "approve",
      "outputs": [],
      "stateMutability": "nonpayable",
      "type": "function"
    },
    {
      "inputs": [],
      "name": "artist",
      "outputs": [
        {
          "internalType": "address",
          "name": "",
          "type": "address"
        }
      ],
      "stateMutability": "view",
      "type": "function"
    },
    {
      "inputs": [
        {
          "internalType": "string",
          "name": "uri",
          "type": "string"
        }
      ],
      "name": "artistMint",
      "outputs": [],
      "stateMutability": "nonpayable",
      "type": "function"
    },
    {
      "inputs": [],
      "name": "artistShare",
      "outputs": [
        {
          "internalType": "uint256",
          "name": "",
          "type": "uint256"
        }
      ],
      "stateMutability": "view",
      "type": "function"
    },
    {
      "inputs": [
        {
          "internalType": "address",
          "name": "owner",
          "type": "address"
        }
      ],
      "name": "balanceOf",
      "outputs": [
        {
          "internalType": "uint256",
          "name": "",
          "type": "uint256"
        }
      ],
      "stateMutability": "view",
      "type": "function"
    },
    {
      "inputs": [
        {
          "internalType": "uint256",
          "name": "tokenId",
          "type": "uint256"
        }
      ],
      "name": "burn",
      "outputs": [],
      "stateMutability": "nonpayable",
      "type": "function"
    },
    {
      "inputs": [
        {
          "internalType": "uint256",
          "name": "_id",
          "type": "uint256"
        }
      ],
      "name": "burnFromAuthorizedAddress",
      "outputs": [],
      "stateMutability": "nonpayable",
      "type": "function"
    },
    {
      "inputs": [],
      "name": "contractURI",
      "outputs": [
        {
          "internalType": "string",
          "name": "",
          "type": "string"
        }
      ],
      "stateMutability": "view",
      "type": "function"
    },
    {
      "inputs": [],
      "name": "defaultRoyaltyBps",
      "outputs": [
        {
          "internalType": "uint96",
          "name": "",
          "type": "uint96"
        }
      ],
      "stateMutability": "view",
      "type": "function"
    },
    {
      "inputs": [
        {
          "internalType": "uint256",
          "name": "tokenId",
          "type": "uint256"
        }
      ],
      "name": "getApproved",
      "outputs": [
        {
          "internalType": "address",
          "name": "",
          "type": "address"
        }
      ],
      "stateMutability": "view",
      "type": "function"
    },
    {
      "inputs": [
        {
          "internalType": "address",
          "name": "owner",
          "type": "address"
        },
        {
          "internalType": "address",
          "name": "operator",
          "type": "address"
        }
      ],
      "name": "isApprovedForAll",
      "outputs": [
        {
          "internalType": "bool",
          "name": "",
          "type": "bool"
        }
      ],
      "stateMutability": "view",
      "type": "function"
    },
    {
      "inputs": [],
      "name": "name",
      "outputs": [
        {
          "internalType": "string",
          "name": "",
          "type": "string"
        }
      ],
      "stateMutability": "view",
      "type": "function"
    },
    {
      "inputs": [],
      "name": "nextTokenId",
      "outputs": [
        {
          "internalType": "uint256",
          "name": "_value",
          "type": "uint256"
        }
      ],
      "stateMutability": "view",
      "type": "function"
    },
    {
      "inputs": [],
      "name": "owner",
      "outputs": [
        {
          "internalType": "address",
          "name": "",
          "type": "address"
        }
      ],
      "stateMutability": "view",
      "type": "function"
    },
    {
      "inputs": [
        {
          "internalType": "uint256",
          "name": "tokenId",
          "type": "uint256"
        }
      ],
      "name": "ownerOf",
      "outputs": [
        {
          "internalType": "address",
          "name": "",
          "type": "address"
        }
      ],
      "stateMutability": "view",
      "type": "function"
    },
    {
      "inputs": [],
      "name": "renounceOwnership",
      "outputs": [],
      "stateMutability": "nonpayable",
      "type": "function"
    },
    {
      "inputs": [
        {
          "internalType": "uint256",
          "name": "tokenId",
          "type": "uint256"
        },
        {
          "internalType": "uint256",
          "name": "salePrice",
          "type": "uint256"
        }
      ],
      "name": "royaltyInfo",
      "outputs": [
        {
          "internalType": "address",
          "name": "",
          "type": "address"
        },
        {
          "internalType": "uint256",
          "name": "",
          "type": "uint256"
        }
      ],
      "stateMutability": "view",
      "type": "function"
    },
    {
      "inputs": [
        {
          "internalType": "address",
          "name": "to",
          "type": "address"
        },
        {
          "internalType": "string",
          "name": "uri",
          "type": "string"
        }
      ],
      "name": "safeMint",
      "outputs": [],
      "stateMutability": "nonpayable",
      "type": "function"
    },
    {
      "inputs": [
        {
          "internalType": "address",
          "name": "from",
          "type": "address"
        },
        {
          "internalType": "address",
          "name": "to",
          "type": "address"
        },
        {
          "internalType": "uint256",
          "name": "tokenId",
          "type": "uint256"
        }
      ],
      "name": "safeTransferFrom",
      "outputs": [],
      "stateMutability": "nonpayable",
      "type": "function"
    },
    {
      "inputs": [
        {
          "internalType": "address",
          "name": "from",
          "type": "address"
        },
        {
          "internalType": "address",
          "name": "to",
          "type": "address"
        },
        {
          "internalType": "uint256",
          "name": "tokenId",
          "type": "uint256"
        },
        {
          "internalType": "bytes",
          "name": "data",
          "type": "bytes"
        }
      ],
      "name": "safeTransferFrom",
      "outputs": [],
      "stateMutability": "nonpayable",
      "type": "function"
    },
    {
      "inputs": [
        {
          "internalType": "address",
          "name": "operator",
          "type": "address"
        },
        {
          "internalType": "bool",
          "name": "approved",
          "type": "bool"
        }
      ],
      "name": "setApprovalForAll",
      "outputs": [],
      "stateMutability": "nonpayable",
      "type": "function"
    },
    {
      "inputs": [
        {
          "internalType": "address",
          "name": "_artist",
          "type": "address"
        }
      ],
      "name": "setArtist",
      "outputs": [],
      "stateMutability": "nonpayable",
      "type": "function"
    },
    {
      "inputs": [
        {
          "internalType": "uint256",
          "name": "_artistShare",
          "type": "uint256"
        }
      ],
      "name": "setArtistShare",
      "outputs": [],
      "stateMutability": "nonpayable",
      "type": "function"
    },
    {
      "inputs": [
        {
          "internalType": "string",
          "name": "_contractMetadata",
          "type": "string"
        }
      ],
      "name": "setContractMetadata",
      "outputs": [],
      "stateMutability": "nonpayable",
      "type": "function"
    },
    {
      "inputs": [
        {
          "internalType": "uint96",
          "name": "_bps",
          "type": "uint96"
        }
      ],
      "name": "setDefaultRoyalty",
      "outputs": [],
      "stateMutability": "nonpayable",
      "type": "function"
    },
    {
      "inputs": [
        {
          "internalType": "uint256",
          "name": "_tokenId",
          "type": "uint256"
        },
        {
          "internalType": "uint96",
          "name": "_bps",
          "type": "uint96"
        }
      ],
      "name": "setTokenRoyalty",
      "outputs": [],
      "stateMutability": "nonpayable",
      "type": "function"
    },
    {
      "inputs": [
        {
          "internalType": "uint256",
          "name": "_tokenId",
          "type": "uint256"
        },
        {
          "internalType": "string",
          "name": "_uri",
          "type": "string"
        }
      ],
      "name": "setTokenURI",
      "outputs": [],
      "stateMutability": "nonpayable",
      "type": "function"
    },
    {
      "inputs": [
        {
          "internalType": "bytes4",
          "name": "interfaceId",
          "type": "bytes4"
        }
      ],
      "name": "supportsInterface",
      "outputs": [
        {
          "internalType": "bool",
          "name": "",
          "type": "bool"
        }
      ],
      "stateMutability": "view",
      "type": "function"
    },
    {
      "inputs": [],
      "name": "symbol",
      "outputs": [
        {
          "internalType": "string",
          "name": "",
          "type": "string"
        }
      ],
      "stateMutability": "view",
      "type": "function"
    },
    {
      "inputs": [
        {
          "internalType": "uint256",
          "name": "index",
          "type": "uint256"
        }
      ],
      "name": "tokenByIndex",
      "outputs": [
        {
          "internalType": "uint256",
          "name": "",
          "type": "uint256"
        }
      ],
      "stateMutability": "view",
      "type": "function"
    },
    {
      "inputs": [
        {
          "internalType": "address",
          "name": "owner",
          "type": "address"
        },
        {
          "internalType": "uint256",
          "name": "index",
          "type": "uint256"
        }
      ],
      "name": "tokenOfOwnerByIndex",
      "outputs": [
        {
          "internalType": "uint256",
          "name": "",
          "type": "uint256"
        }
      ],
      "stateMutability": "view",
      "type": "function"
    },
    {
      "inputs": [
        {
          "internalType": "uint256",
          "name": "",
          "type": "uint256"
        }
      ],
      "name": "tokenRoyaltyBps",
      "outputs": [
        {
          "internalType": "uint96",
          "name": "",
          "type": "uint96"
        }
      ],
      "stateMutability": "view",
      "type": "function"
    },
    {
      "inputs": [
        {
          "internalType": "uint256",
          "name": "tokenId",
          "type": "uint256"
        }
      ],
      "name": "tokenURI",
      "outputs": [
        {
          "internalType": "string",
          "name": "",
          "type": "string"
        }
      ],
      "stateMutability": "view",
      "type": "function"
    },
    {
      "inputs": [],
      "name": "totalSupply",
      "outputs": [
        {
          "internalType": "uint256",
          "name": "",
          "type": "uint256"
        }
      ],
      "stateMutability": "view",
      "type": "function"
    },
    {
      "inputs": [
        {
          "internalType": "address",
          "name": "from",
          "type": "address"
        },
        {
          "internalType": "address",
          "name": "to",
          "type": "address"
        },
        {
          "internalType": "uint256",
          "name": "tokenId",
          "type": "uint256"
        }
      ],
      "name": "transferFrom",
      "outputs": [],
      "stateMutability": "nonpayable",
      "type": "function"
    },
    {
      "inputs": [
        {
          "internalType": "address",
          "name": "newOwner",
          "type": "address"
        }
      ],
      "name": "transferOwnership",
      "outputs": [],
      "stateMutability": "nonpayable",
      "type": "function"
    },
    {
      "inputs": [],
      "name": "withdraw",
      "outputs": [],
      "stateMutability": "nonpayable",
      "type": "function"
    },
    {
      "inputs": [
        {
          "internalType": "address",
          "name": "erc20",
          "type": "address"
        }
      ],
      "name": "withdrawERC20",
      "outputs": [],
      "stateMutability": "nonpayable",
      "type": "function"
    },
    {
      "stateMutability": "payable",
      "type": "receive"
    }
  ],
  "bytecode": "0x60a06040523480156200001157600080fd5b5060405162003a4d38038062003a4d833981016040819052620000349162000338565b8551869086906200004d906000906020850190620001a8565b50805162000063906001906020840190620001a8565b505050620000806200007a6200014960201b60201c565b6200014d565b6107d06001600160601b0382161115620000e05760405162461bcd60e51b815260206004820152601360248201527f526f79616c747920657863656564732063617000000000000000000000000000604482015260640160405180910390fd5b6001600160a01b03848116608052600c80546001600160a01b031916918516919091179055600d829055601080546001600160601b0319166001600160601b0383161790556200013d600f6200019f602090811b62001d2517901c565b5050505050506200042e565b3390565b600b80546001600160a01b038381166001600160a01b0319831681179093556040519116919082907f8be0079c531659141344cd1fd0a4f28419497f9722a3daafe3b4186f6b6457e090600090a35050565b80546001019055565b828054620001b690620003f2565b90600052602060002090601f016020900481019282620001da576000855562000225565b82601f10620001f557805160ff191683800117855562000225565b8280016001018555821562000225579182015b828111156200022557825182559160200191906001019062000208565b506200023392915062000237565b5090565b5b8082111562000233576000815560010162000238565b634e487b7160e01b600052604160045260246000fd5b600082601f8301126200027657600080fd5b81516001600160401b03808211156200029357620002936200024e565b604051601f8301601f19908116603f01168101908282118183101715620002be57620002be6200024e565b81604052838152602092508683858801011115620002db57600080fd5b600091505b83821015620002ff5785820183015181830184015290820190620002e0565b83821115620003115760008385830101525b9695505050505050565b80516001600160a01b03811681146200033357600080fd5b919050565b60008060008060008060c087890312156200035257600080fd5b86516001600160401b03808211156200036a57600080fd5b620003788a838b0162000264565b975060208901519150808211156200038f57600080fd5b506200039e89828a0162000264565b955050620003af604088016200031b565b9350620003bf606088016200031b565b608088015160a089015191945092506001600160601b0381168114620003e457600080fd5b809150509295509295509295565b600181811c908216806200040757607f821691505b6020821081036200042857634e487b7160e01b600052602260045260246000fd5b50919050565b6080516135a8620004a560003960008181610a3901528181610eef01528181610f74015281816111ce015281816112ce015281816113ff015281816114c9015281816115cc01528181611651015281816117ba015281816118d801528181611c2e01528181612158015261223801526135a86000f3fe6080604052600436106102605760003560e01c806370a0823111610144578063c87b56dd116100b6578063d6948b751161007a578063d6948b751461077a578063e8a3d4851461079a578063e985e9c5146107af578063f2fde38b146107cf578063f4f3b200146107ef578063fce550371461080f57600080fd5b8063c87b56dd146106d0578063cf933f86146106f0578063d204c45e14610706578063d4c9753314610726578063d53913931461074657600080fd5b80638da5cb5b116101085780638da5cb5b1461062857806395d89b4114610646578063a217fddf1461065b578063a22cb46514610670578063a82670d314610690578063b88d4fde146106b057600080fd5b806370a0823114610588578063715018a6146105a857806375794a3c146105bd57806375b238fc146105d45780637eeab0951461060857600080fd5b80632a0befc2116101dd57806342842e0e116101a157806342842e0e146104c857806342966c68146104e857806343bc1612146105085780634f6ccce7146105285780636352211e1461054857806367a4f4a91461056857600080fd5b80632a0befc21461041e5780632a55205a1461043e5780632f745c591461047d5780633ccfd60b1461049d5780633dca40e6146104b257600080fd5b806318160ddd1161022457806318160ddd1461033d57806318d33e411461035c5780631bdd03111461039457806323b872dd146103ca578063282c51f3146103ea57600080fd5b806301ffc9a71461026c57806306fdde03146102a1578063081812fc146102c3578063095ea7b3146102fb578063162094c41461031d57600080fd5b3661026757005b600080fd5b34801561027857600080fd5b5061028c610287366004612e6f565b61082f565b60405190151581526020015b60405180910390f35b3480156102ad57600080fd5b506102b661085a565b6040516102989190612ee4565b3480156102cf57600080fd5b506102e36102de366004612ef7565b6108ec565b6040516001600160a01b039091168152602001610298565b34801561030757600080fd5b5061031b610316366004612f25565b610913565b005b34801561032957600080fd5b5061031b610338366004612f93565b610a2d565b34801561034957600080fd5b506008545b604051908152602001610298565b34801561036857600080fd5b5060105461037c906001600160601b031681565b6040516001600160601b039091168152602001610298565b3480156103a057600080fd5b5061037c6103af366004612ef7565b6011602052600090815260409020546001600160601b031681565b3480156103d657600080fd5b5061031b6103e5366004612fdf565b610b1f565b3480156103f657600080fd5b5061034e7f3b25106add3a89098ef82030314e486ca1f967bd742e45817c5014c5ef3e806481565b34801561042a57600080fd5b5061031b610439366004613020565b610b51565b34801561044a57600080fd5b5061045e610459366004613062565b610bae565b604080516001600160a01b039093168352602083019190915201610298565b34801561048957600080fd5b5061034e610498366004612f25565b610bee565b3480156104a957600080fd5b5061031b610c84565b3480156104be57600080fd5b5061037c6107d081565b3480156104d457600080fd5b5061031b6104e3366004612fdf565b610d75565b3480156104f457600080fd5b5061031b610503366004612ef7565b610d90565b34801561051457600080fd5b50600c546102e3906001600160a01b031681565b34801561053457600080fd5b5061034e610543366004612ef7565b610dc1565b34801561055457600080fd5b506102e3610563366004612ef7565b610e54565b34801561057457600080fd5b5061031b6105833660046130a0565b610eb4565b34801561059457600080fd5b5061034e6105a33660046130cc565b611128565b3480156105b457600080fd5b5061031b6111ae565b3480156105c957600080fd5b50600f5461034e9081565b3480156105e057600080fd5b5061034e7fe303cb88ace8c9e6ba216f1aecb44b3206dcab364c60512ffc6cbc920a1bf9d181565b34801561061457600080fd5b5061031b610623366004612ef7565b6111c2565b34801561063457600080fd5b50600b546001600160a01b03166102e3565b34801561065257600080fd5b506102b6611279565b34801561066757600080fd5b5061034e600081565b34801561067c57600080fd5b5061031b61068b3660046130f7565b611288565b34801561069c57600080fd5b5061031b6106ab366004612ef7565b611293565b3480156106bc57600080fd5b5061031b6106cb366004613146565b611381565b3480156106dc57600080fd5b506102b66106eb366004612ef7565b6113b9565b3480156106fc57600080fd5b5061034e600d5481565b34801561071257600080fd5b5061031b610721366004613226565b6113c4565b34801561073257600080fd5b5061031b6107413660046130cc565b6114bd565b34801561075257600080fd5b5061034e7f43c12360602d49748153591f2df5a853821ec8410115f225b90a7a49bd5d2bb981565b34801561078657600080fd5b5061031b610795366004613262565b611591565b3480156107a657600080fd5b506102b661179d565b3480156107bb57600080fd5b5061028c6107ca36600461327d565b6117ac565b3480156107db57600080fd5b5061031b6107ea3660046130cc565b6118cc565b3480156107fb57600080fd5b5061031b61080a3660046130cc565b6119ec565b34801561081b57600080fd5b5061031b61082a366004613020565b611c12565b60006001600160e01b0319821663152a902d60e11b1480610854575061085482611d2e565b92915050565b606060008054610869906132ab565b80601f0160208091040260200160405190810160405280929190818152602001828054610895906132ab565b80156108e25780601f106108b7576101008083540402835291602001916108e2565b820191906000526020600020905b8154815290600101906020018083116108c557829003601f168201915b5050505050905090565b60006108f782611d53565b506000908152600460205260409020546001600160a01b031690565b600061091e82610e54565b9050806001600160a01b0316836001600160a01b0316036109905760405162461bcd60e51b815260206004820152602160248201527f4552433732313a20617070726f76616c20746f2063757272656e74206f776e656044820152603960f91b60648201526084015b60405180910390fd5b336001600160a01b03821614806109ac57506109ac81336117ac565b610a1e5760405162461bcd60e51b815260206004820152603e60248201527f4552433732313a20617070726f76652063616c6c6572206973206e6f7420746f60448201527f6b656e206f776e6572206e6f7220617070726f76656420666f7220616c6c00006064820152608401610987565b610a288383611db2565b505050565b336001600160a01b03167f00000000000000000000000000000000000000000000000000000000000000006001600160a01b0316634783c35b6040518163ffffffff1660e01b8152600401602060405180830381865afa158015610a95573d6000803e3d6000fd5b505050506040513d601f19601f82011682018060405250810190610ab991906132e5565b6001600160a01b031614610adf5760405162461bcd60e51b815260040161098790613302565b610a288383838080601f016020809104026020016040519081016040528093929190818152602001838380828437600092019190915250611e2092505050565b610b2a335b82611eba565b610b465760405162461bcd60e51b81526004016109879061332c565b610a28838383611f19565b600c546001600160a01b03163314610b9f5760405162461bcd60e51b81526020600482015260116024820152704f6e6c79206172746973742063616c6c7360781b6044820152606401610987565b610baa3383836120c0565b5050565b6000828152601160205260408120548190309061271090610bd8906001600160601b031686613390565b610be291906133c5565b915091505b9250929050565b6000610bf983611128565b8210610c5b5760405162461bcd60e51b815260206004820152602b60248201527f455243373231456e756d657261626c653a206f776e657220696e646578206f7560448201526a74206f6620626f756e647360a81b6064820152608401610987565b506001600160a01b03919091166000908152600660209081526040808320938352929052205490565b600d54479060009061271090610c9a9084613390565b610ca491906133c5565b600c546040519192506000916001600160a01b039091169083908381818185875af1925050503d8060008114610cf6576040519150601f19603f3d011682016040523d82523d6000602084013e610cfb565b606091505b5050905080610d0957600080fd5b610d11612153565b6001600160a01b0316610d2483856133d9565b604051600081818185875af1925050503d8060008114610d60576040519150601f19603f3d011682016040523d82523d6000602084013e610d65565b606091505b50508091505080610a2857600080fd5b610a2883838360405180602001604052806000815250611381565b610d9933610b24565b610db55760405162461bcd60e51b81526004016109879061332c565b610dbe816122be565b50565b6000610dcc60085490565b8210610e2f5760405162461bcd60e51b815260206004820152602c60248201527f455243373231456e756d657261626c653a20676c6f62616c20696e646578206f60448201526b7574206f6620626f756e647360a01b6064820152608401610987565b60088281548110610e4257610e426133f0565b90600052602060002001549050919050565b6000818152600260205260408120546001600160a01b0316806108545760405162461bcd60e51b8152602060048201526018602482015277115490cdcc8c4e881a5b9d985b1a59081d1bdad95b88125160421b6044820152606401610987565b604051632474521560e21b81527fe303cb88ace8c9e6ba216f1aecb44b3206dcab364c60512ffc6cbc920a1bf9d160048201523360248201527f00000000000000000000000000000000000000000000000000000000000000006001600160a01b0316906391d1485490604401602060405180830381865afa158015610f3e573d6000803e3d6000fd5b505050506040513d601f19601f82011682018060405250810190610f629190613406565b80610fff5750336001600160a01b03167f00000000000000000000000000000000000000000000000000000000000000006001600160a01b0316634783c35b6040518163ffffffff1660e01b8152600401602060405180830381865afa158015610fd0573d6000803e3d6000fd5b505050506040513d601f19601f82011682018060405250810190610ff491906132e5565b6001600160a01b0316145b61101b5760405162461bcd60e51b815260040161098790613302565b6000828152600260205260409020546001600160a01b03166110735760405162461bcd60e51b81526020600482015260116024820152702737b732bc34b9ba32b73a103a37b5b2b760791b6044820152606401610987565b6107d06001600160601b03821611156110c45760405162461bcd60e51b81526020600482015260136024820152720526f79616c747920657863656564732063617606c1b6044820152606401610987565b60008281526011602090815260409182902080546001600160601b0319166001600160601b038516908117909155915191825283917f6cb0641251594fc9401685041580b10a71fb138bca581fb7bace1c50e57dc354910160405180910390a25050565b60006001600160a01b0382166111925760405162461bcd60e51b815260206004820152602960248201527f4552433732313a2061646472657373207a65726f206973206e6f7420612076616044820152683634b21037bbb732b960b91b6064820152608401610987565b506001600160a01b031660009081526003602052604090205490565b6111b66122c7565b6111c06000612321565b565b336001600160a01b03167f00000000000000000000000000000000000000000000000000000000000000006001600160a01b0316634783c35b6040518163ffffffff1660e01b8152600401602060405180830381865afa15801561122a573d6000803e3d6000fd5b505050506040513d601f19601f8201168201806040525081019061124e91906132e5565b6001600160a01b0316146112745760405162461bcd60e51b815260040161098790613302565b600d55565b606060018054610869906132ab565b610baa338383612373565b604051632474521560e21b81527f3b25106add3a89098ef82030314e486ca1f967bd742e45817c5014c5ef3e806460048201523360248201527f00000000000000000000000000000000000000000000000000000000000000006001600160a01b0316906391d1485490604401602060405180830381865afa15801561131d573d6000803e3d6000fd5b505050506040513d601f19601f820116820180604052508101906113419190613406565b610db55760405162461bcd60e51b81526020600482015260116024820152704e6f206275726e696e672072696768747360781b6044820152606401610987565b61138b3383611eba565b6113a75760405162461bcd60e51b81526004016109879061332c565b6113b384848484612441565b50505050565b606061085482612474565b604051632474521560e21b81527f43c12360602d49748153591f2df5a853821ec8410115f225b90a7a49bd5d2bb960048201523360248201527f00000000000000000000000000000000000000000000000000000000000000006001600160a01b0316906391d1485490604401602060405180830381865afa15801561144e573d6000803e3d6000fd5b505050506040513d601f19601f820116820180604052508101906114729190613406565b6114b25760405162461bcd60e51b81526020600482015260116024820152704e6f206d696e74696e672072696768747360781b6044820152606401610987565b610a288383836120c0565b336001600160a01b03167f00000000000000000000000000000000000000000000000000000000000000006001600160a01b0316634783c35b6040518163ffffffff1660e01b8152600401602060405180830381865afa158015611525573d6000803e3d6000fd5b505050506040513d601f19601f8201168201806040525081019061154991906132e5565b6001600160a01b03161461156f5760405162461bcd60e51b815260040161098790613302565b600c80546001600160a01b0319166001600160a01b0392909216919091179055565b604051632474521560e21b81527fe303cb88ace8c9e6ba216f1aecb44b3206dcab364c60512ffc6cbc920a1bf9d160048201523360248201527f00000000000000000000000000000000000000000000000000000000000000006001600160a01b0316906391d1485490604401602060405180830381865afa15801561161b573d6000803e3d6000fd5b505050506040513d601f19601f8201168201806040525081019061163f9190613406565b806116dc5750336001600160a01b03167f00000000000000000000000000000000000000000000000000000000000000006001600160a01b0316634783c35b6040518163ffffffff1660e01b8152600401602060405180830381865afa1580156116ad573d6000803e3d6000fd5b505050506040513d601f19601f820116820180604052508101906116d191906132e5565b6001600160a01b0316145b6116f85760405162461bcd60e51b815260040161098790613302565b6107d06001600160601b03821611156117495760405162461bcd60e51b81526020600482015260136024820152720526f79616c747920657863656564732063617606c1b6044820152606401610987565b601080546001600160601b0319166001600160601b0383169081179091556040519081527fc69c3f6a5f2063adf3c2cba2d755e50c2ce8145a4b85728f120863cc80bdc4149060200160405180910390a150565b6060600e8054610869906132ab565b6000816001600160a01b03167f00000000000000000000000000000000000000000000000000000000000000006001600160a01b03166321f8a7216040516020016118109072616464726573732e6d61726b6574706c61636560681b815260130190565b604051602081830303815290604052805190602001206040518263ffffffff1660e01b815260040161184491815260200190565b602060405180830381865afa158015611861573d6000803e3d6000fd5b505050506040513d601f19601f8201168201806040525081019061188591906132e5565b6001600160a01b03160361189b57506001610854565b6001600160a01b0380841660009081526005602090815260408083209386168352929052205460ff165b9392505050565b336001600160a01b03167f00000000000000000000000000000000000000000000000000000000000000006001600160a01b0316634783c35b6040518163ffffffff1660e01b8152600401602060405180830381865afa158015611934573d6000803e3d6000fd5b505050506040513d601f19601f8201168201806040525081019061195891906132e5565b6001600160a01b03161461197e5760405162461bcd60e51b815260040161098790613302565b6001600160a01b0381166119e35760405162461bcd60e51b815260206004820152602660248201527f4f776e61626c653a206e6577206f776e657220697320746865207a65726f206160448201526564647265737360d01b6064820152608401610987565b610dbe81612321565b6040516370a0823160e01b815230600482015281906000906001600160a01b038316906370a0823190602401602060405180830381865afa158015611a35573d6000803e3d6000fd5b505050506040513d601f19601f82011682018060405250810190611a599190613423565b90506000612710600d5483611a6e9190613390565b611a7891906133c5565b600c5460405163a9059cbb60e01b81526001600160a01b0391821660048201526024810183905291925084169063a9059cbb906044016020604051808303816000875af1158015611acd573d6000803e3d6000fd5b505050506040513d601f19601f82011682018060405250810190611af19190613406565b611b365760405162461bcd60e51b8152602060048201526016602482015275185c9d1a5cdd081d1c985b9cd9995c8819985a5b195960521b6044820152606401610987565b826001600160a01b031663a9059cbb611b4d612153565b611b5784866133d9565b6040516001600160e01b031960e085901b1681526001600160a01b03909216600483015260248201526044016020604051808303816000875af1158015611ba2573d6000803e3d6000fd5b505050506040513d601f19601f82011682018060405250810190611bc69190613406565b6113b35760405162461bcd60e51b815260206004820152601860248201527f706c6174666f726d207472616e73666572206661696c656400000000000000006044820152606401610987565b604051632474521560e21b8152600060048201523360248201527f00000000000000000000000000000000000000000000000000000000000000006001600160a01b0316906391d1485490604401602060405180830381865afa158015611c7d573d6000803e3d6000fd5b505050506040513d601f19601f82011682018060405250810190611ca19190613406565b80611ccd5750600c546001600160a01b031633148015611ccd5750600e8054611cc9906132ab565b1590505b611d195760405162461bcd60e51b815260206004820152601b60248201527f4f6e6c792063726561746f72206f722061646d696e2063616c6c7300000000006044820152606401610987565b610a28600e8383612d16565b80546001019055565b60006001600160e01b0319821663780e9d6360e01b148061085457506108548261257c565b6000818152600260205260409020546001600160a01b0316610dbe5760405162461bcd60e51b8152602060048201526018602482015277115490cdcc8c4e881a5b9d985b1a59081d1bdad95b88125160421b6044820152606401610987565b600081815260046020526040902080546001600160a01b0319166001600160a01b0384169081179091558190611de782610e54565b6001600160a01b03167f8c5be1e5ebec7d5bd14f71427d1e84f3dd0314c0f7b2291e5b200ac8c7c3b92560405160405180910390a45050565b6000828152600260205260409020546001600160a01b0316611e9b5760405162461bcd60e51b815260206004820152602e60248201527f45524337323155524953746f726167653a2055524920736574206f66206e6f6e60448201526d32bc34b9ba32b73a103a37b5b2b760911b6064820152608401610987565b6000828152600a602090815260409091208251610a2892840190612d9a565b600080611ec683610e54565b9050806001600160a01b0316846001600160a01b03161480611eed5750611eed81856117ac565b80611f115750836001600160a01b0316611f06846108ec565b6001600160a01b0316145b949350505050565b826001600160a01b0316611f2c82610e54565b6001600160a01b031614611f905760405162461bcd60e51b815260206004820152602560248201527f4552433732313a207472616e736665722066726f6d20696e636f72726563742060448201526437bbb732b960d91b6064820152608401610987565b6001600160a01b038216611ff25760405162461bcd60e51b8152602060048201526024808201527f4552433732313a207472616e7366657220746f20746865207a65726f206164646044820152637265737360e01b6064820152608401610987565b611ffd8383836125cc565b612008600082611db2565b6001600160a01b03831660009081526003602052604081208054600192906120319084906133d9565b90915550506001600160a01b038216600090815260036020526040812080546001929061205f90849061343c565b909155505060008181526002602052604080822080546001600160a01b0319166001600160a01b0386811691821790925591518493918716917fddf252ad1be2c89b69c2b068fc378daa952ba7f163c4a11628f55a4df523b3ef91a4505050565b60006120cb600f5490565b90506120db600f80546001019055565b601054600082815260116020526040902080546001600160601b0319166001600160601b0390921691909117905561211384826125d7565b6113b38184848080601f016020809104026020016040519081016040528093929190818152602001838380828437600092019190915250611e2092505050565b6000807f00000000000000000000000000000000000000000000000000000000000000006001600160a01b03166321f8a7216040516020016121aa906e616464726573732e726f79616c747960881b8152600f0190565b604051602081830303815290604052805190602001206040518263ffffffff1660e01b81526004016121de91815260200190565b602060405180830381865afa1580156121fb573d6000803e3d6000fd5b505050506040513d601f19601f8201168201806040525081019061221f91906132e5565b90506001600160a01b0381161561223657806122b8565b7f00000000000000000000000000000000000000000000000000000000000000006001600160a01b0316634783c35b6040518163ffffffff1660e01b8152600401602060405180830381865afa158015612294573d6000803e3d6000fd5b505050506040513d601f19601f820116820180604052508101906122b891906132e5565b91505090565b610dbe816125f1565b600b546001600160a01b031633146111c05760405162461bcd60e51b815260206004820181905260248201527f4f776e61626c653a2063616c6c6572206973206e6f7420746865206f776e65726044820152606401610987565b600b80546001600160a01b038381166001600160a01b0319831681179093556040519116919082907f8be0079c531659141344cd1fd0a4f28419497f9722a3daafe3b4186f6b6457e090600090a35050565b816001600160a01b0316836001600160a01b0316036123d45760405162461bcd60e51b815260206004820152601960248201527f4552433732313a20617070726f766520746f2063616c6c6572000000000000006044820152606401610987565b6001600160a01b03838116600081815260056020908152604080832094871680845294825291829020805460ff191686151590811790915591519182527f17307eab39ab6107e8899845ad3d59bd9653f200f220920489ca2b5937696c31910160405180910390a3505050565b61244c848484611f19565b61245884848484612631565b6113b35760405162461bcd60e51b815260040161098790613454565b606061247f82611d53565b6000828152600a602052604081208054612498906132ab565b80601f01602080910402602001604051908101604052809291908181526020018280546124c4906132ab565b80156125115780601f106124e657610100808354040283529160200191612511565b820191906000526020600020905b8154815290600101906020018083116124f457829003601f168201915b50505050509050600061252f60408051602081019091526000815290565b90508051600003612541575092915050565b81511561257357808260405160200161255b9291906134a6565b60405160208183030381529060405292505050919050565b611f1184612732565b60006001600160e01b031982166380ac58cd60e01b14806125ad57506001600160e01b03198216635b5e139f60e01b145b8061085457506301ffc9a760e01b6001600160e01b0319831614610854565b610a288383836127a5565b610baa82826040518060200160405280600081525061285d565b6125fa81612890565b6000818152600a602052604090208054612613906132ab565b159050610dbe576000818152600a60205260408120610dbe91612e0e565b60006001600160a01b0384163b1561272757604051630a85bd0160e11b81526001600160a01b0385169063150b7a02906126759033908990889088906004016134d5565b6020604051808303816000875af19250505080156126b0575060408051601f3d908101601f191682019092526126ad91810190613512565b60015b61270d573d8080156126de576040519150601f19603f3d011682016040523d82523d6000602084013e6126e3565b606091505b5080516000036127055760405162461bcd60e51b815260040161098790613454565b805181602001fd5b6001600160e01b031916630a85bd0160e11b149050611f11565b506001949350505050565b606061273d82611d53565b600061275460408051602081019091526000815290565b9050600081511161277457604051806020016040528060008152506118c5565b8061277e84612937565b60405160200161278f9291906134a6565b6040516020818303038152906040529392505050565b6001600160a01b038316612800576127fb81600880546000838152600960205260408120829055600182018355919091527ff3f7a9fe364faab93b216da50a3214154f22a0a2b415b23a84c8169e8b636ee30155565b612823565b816001600160a01b0316836001600160a01b031614612823576128238382612a38565b6001600160a01b03821661283a57610a2881612ad5565b826001600160a01b0316826001600160a01b031614610a2857610a288282612b84565b6128678383612bc8565b6128746000848484612631565b610a285760405162461bcd60e51b815260040161098790613454565b600061289b82610e54565b90506128a9816000846125cc565b6128b4600083611db2565b6001600160a01b03811660009081526003602052604081208054600192906128dd9084906133d9565b909155505060008281526002602052604080822080546001600160a01b0319169055518391906001600160a01b038416907fddf252ad1be2c89b69c2b068fc378daa952ba7f163c4a11628f55a4df523b3ef908390a45050565b60608160000361295e5750506040805180820190915260018152600360fc1b602082015290565b8160005b811561298857806129728161352f565b91506129819050600a836133c5565b9150612962565b60008167ffffffffffffffff8111156129a3576129a3613130565b6040519080825280601f01601f1916602001820160405280156129cd576020820181803683370190505b5090505b8415611f11576129e26001836133d9565b91506129ef600a86613548565b6129fa90603061343c565b60f81b818381518110612a0f57612a0f6133f0565b60200101906001600160f81b031916908160001a905350612a31600a866133c5565b94506129d1565b60006001612a4584611128565b612a4f91906133d9565b600083815260076020526040902054909150808214612aa2576001600160a01b03841660009081526006602090815260408083208584528252808320548484528184208190558352600790915290208190555b5060009182526007602090815260408084208490556001600160a01b039094168352600681528383209183525290812055565b600854600090612ae7906001906133d9565b60008381526009602052604081205460088054939450909284908110612b0f57612b0f6133f0565b906000526020600020015490508060088381548110612b3057612b306133f0565b6000918252602080832090910192909255828152600990915260408082208490558582528120556008805480612b6857612b6861355c565b6001900381819060005260206000200160009055905550505050565b6000612b8f83611128565b6001600160a01b039093166000908152600660209081526040808320868452825280832085905593825260079052919091209190915550565b6001600160a01b038216612c1e5760405162461bcd60e51b815260206004820181905260248201527f4552433732313a206d696e7420746f20746865207a65726f20616464726573736044820152606401610987565b6000818152600260205260409020546001600160a01b031615612c835760405162461bcd60e51b815260206004820152601c60248201527f4552433732313a20746f6b656e20616c7265616479206d696e746564000000006044820152606401610987565b612c8f600083836125cc565b6001600160a01b0382166000908152600360205260408120805460019290612cb890849061343c565b909155505060008181526002602052604080822080546001600160a01b0319166001600160a01b03861690811790915590518392907fddf252ad1be2c89b69c2b068fc378daa952ba7f163c4a11628f55a4df523b3ef908290a45050565b828054612d22906132ab565b90600052602060002090601f016020900481019282612d445760008555612d8a565b82601f10612d5d5782800160ff19823516178555612d8a565b82800160010185558215612d8a579182015b82811115612d8a578235825591602001919060010190612d6f565b50612d96929150612e44565b5090565b828054612da6906132ab565b90600052602060002090601f016020900481019282612dc85760008555612d8a565b82601f10612de157805160ff1916838001178555612d8a565b82800160010185558215612d8a579182015b82811115612d8a578251825591602001919060010190612df3565b508054612e1a906132ab565b6000825580601f10612e2a575050565b601f016020900490600052602060002090810190610dbe91905b5b80821115612d965760008155600101612e45565b6001600160e01b031981168114610dbe57600080fd5b600060208284031215612e8157600080fd5b81356118c581612e59565b60005b83811015612ea7578181015183820152602001612e8f565b838111156113b35750506000910152565b60008151808452612ed0816020860160208601612e8c565b601f01601f19169290920160200192915050565b6020815260006118c56020830184612eb8565b600060208284031215612f0957600080fd5b5035919050565b6001600160a01b0381168114610dbe57600080fd5b60008060408385031215612f3857600080fd5b8235612f4381612f10565b946020939093013593505050565b60008083601f840112612f6357600080fd5b50813567ffffffffffffffff811115612f7b57600080fd5b602083019150836020828501011115610be757600080fd5b600080600060408486031215612fa857600080fd5b83359250602084013567ffffffffffffffff811115612fc657600080fd5b612fd286828701612f51565b9497909650939450505050565b600080600060608486031215612ff457600080fd5b8335612fff81612f10565b9250602084013561300f81612f10565b929592945050506040919091013590565b6000806020838503121561303357600080fd5b823567ffffffffffffffff81111561304a57600080fd5b61305685828601612f51565b90969095509350505050565b6000806040838503121561307557600080fd5b50508035926020909101359150565b80356001600160601b038116811461309b57600080fd5b919050565b600080604083850312156130b357600080fd5b823591506130c360208401613084565b90509250929050565b6000602082840312156130de57600080fd5b81356118c581612f10565b8015158114610dbe57600080fd5b6000806040838503121561310a57600080fd5b823561311581612f10565b91506020830135613125816130e9565b809150509250929050565b634e487b7160e01b600052604160045260246000fd5b6000806000806080858703121561315c57600080fd5b843561316781612f10565b9350602085013561317781612f10565b925060408501359150606085013567ffffffffffffffff8082111561319b57600080fd5b818701915087601f8301126131af57600080fd5b8135818111156131c1576131c1613130565b604051601f8201601f19908116603f011681019083821181831017156131e9576131e9613130565b816040528281528a602084870101111561320257600080fd5b82602086016020830137600060208483010152809550505050505092959194509250565b60008060006040848603121561323b57600080fd5b833561324681612f10565b9250602084013567ffffffffffffffff811115612fc657600080fd5b60006020828403121561327457600080fd5b6118c582613084565b6000806040838503121561329057600080fd5b823561329b81612f10565b9150602083013561312581612f10565b600181811c908216806132bf57607f821691505b6020821081036132df57634e487b7160e01b600052602260045260246000fd5b50919050565b6000602082840312156132f757600080fd5b81516118c581612f10565b60208082526010908201526f41646d696e2063616c6c73206f6e6c7960801b604082015260600190565b6020808252602e908201527f4552433732313a2063616c6c6572206973206e6f7420746f6b656e206f776e6560408201526d1c881b9bdc88185c1c1c9bdd995960921b606082015260800190565b634e487b7160e01b600052601160045260246000fd5b60008160001904831182151516156133aa576133aa61337a565b500290565b634e487b7160e01b600052601260045260246000fd5b6000826133d4576133d46133af565b500490565b6000828210156133eb576133eb61337a565b500390565b634e487b7160e01b600052603260045260246000fd5b60006020828403121561341857600080fd5b81516118c5816130e9565b60006020828403121561343557600080fd5b5051919050565b6000821982111561344f5761344f61337a565b500190565b60208082526032908201527f4552433732313a207472616e7366657220746f206e6f6e20455243373231526560408201527131b2b4bb32b91034b6b83632b6b2b73a32b960711b606082015260800190565b600083516134b8818460208801612e8c565b8351908301906134cc818360208801612e8c565b01949350505050565b6001600160a01b038581168252841660208201526040810183905260806060820181905260009061350890830184612eb8565b9695505050505050565b60006020828403121561352457600080fd5b81516118c581612e59565b6000600182016135415761354161337a565b5060010190565b600082613557576135576133af565b500690565b634e487b7160e01b600052603160045260246000fdfea26469706673582212201c21903a7393ef95d78e0d4476b0c6719ca8854311f51fe6b3bd00d928c01d3c64736f6c634300080e0033",
  "linkReferences": {},
  "deployedLinkReferences": {}
}