{
  "_format": "hh-sol-artifact-1",
  "contractName": "SageNFT",
  "sourceName": "contracts/NFT/SageNFT.sol",
  "abi": [
    {
      "inputs": [
        {
          "internalType": "string",
          "name": "_name",
          "type": "string"
        },
        {
          "internalType": "string",
          "name": "_symbol",
          "type": "string"
        },
        {
          "internalType": "address",
          "name": "_sageStorage",
          "type": "address"
        },
        {
          "internalType": "address",
          "name": "_artist",
          "type": "address"
        },
        {
          "internalType": "uint256",
          "name": "_artistShare",
          "type": "uint256"
        }
      ],
      "stateMutability": "nonpayable",
      "type": "constructor"
    },
    {
      "anonymous": false,
      "inputs": [
        {
          "indexed": true,
          "internalType": "address",
          "name": "owner",
          "type": "address"
        },
        {
          "indexed": true,
          "internalType": "address",
          "name": "approved",
          "type": "address"
        },
        {
          "indexed": true,
          "internalType": "uint256",
          "name": "tokenId",
          "type": "uint256"
        }
      ],
      "name": "Approval",
      "type": "event"
    },
    {
      "anonymous": false,
      "inputs": [
        {
          "indexed": true,
          "internalType": "address",
          "name": "owner",
          "type": "address"
        },
        {
          "indexed": true,
          "internalType": "address",
          "name": "operator",
          "type": "address"
        },
        {
          "indexed": false,
          "internalType": "bool",
          "name": "approved",
          "type": "bool"
        }
      ],
      "name": "ApprovalForAll",
      "type": "event"
    },
    {
      "anonymous": false,
      "inputs": [
        {
          "indexed": true,
          "internalType": "address",
          "name": "previousOwner",
          "type": "address"
        },
        {
          "indexed": true,
          "internalType": "address",
          "name": "newOwner",
          "type": "address"
        }
      ],
      "name": "OwnershipTransferred",
      "type": "event"
    },
    {
      "anonymous": false,
      "inputs": [
        {
          "indexed": true,
          "internalType": "address",
          "name": "from",
          "type": "address"
        },
        {
          "indexed": true,
          "internalType": "address",
          "name": "to",
          "type": "address"
        },
        {
          "indexed": true,
          "internalType": "uint256",
          "name": "tokenId",
          "type": "uint256"
        }
      ],
      "name": "Transfer",
      "type": "event"
    },
    {
      "inputs": [],
      "name": "BURNER_ROLE",
      "outputs": [
        {
          "internalType": "bytes32",
          "name": "",
          "type": "bytes32"
        }
      ],
      "stateMutability": "view",
      "type": "function"
    },
    {
      "inputs": [],
      "name": "DEFAULT_ADMIN_ROLE",
      "outputs": [
        {
          "internalType": "bytes32",
          "name": "",
          "type": "bytes32"
        }
      ],
      "stateMutability": "view",
      "type": "function"
    },
    {
      "inputs": [],
      "name": "MINTER_ROLE",
      "outputs": [
        {
          "internalType": "bytes32",
          "name": "",
          "type": "bytes32"
        }
      ],
      "stateMutability": "view",
      "type": "function"
    },
    {
      "inputs": [
        {
          "internalType": "address",
          "name": "to",
          "type": "address"
        },
        {
          "internalType": "uint256",
          "name": "tokenId",
          "type": "uint256"
        }
      ],
      "name": "approve",
      "outputs": [],
      "stateMutability": "nonpayable",
      "type": "function"
    },
    {
      "inputs": [],
      "name": "artist",
      "outputs": [
        {
          "internalType": "address",
          "name": "",
          "type": "address"
        }
      ],
      "stateMutability": "view",
      "type": "function"
    },
    {
      "inputs": [
        {
          "internalType": "string",
          "name": "uri",
          "type": "string"
        }
      ],
      "name": "artistMint",
      "outputs": [],
      "stateMutability": "nonpayable",
      "type": "function"
    },
    {
      "inputs": [
        {
          "internalType": "address",
          "name": "owner",
          "type": "address"
        }
      ],
      "name": "balanceOf",
      "outputs": [
        {
          "internalType": "uint256",
          "name": "",
          "type": "uint256"
        }
      ],
      "stateMutability": "view",
      "type": "function"
    },
    {
      "inputs": [
        {
          "internalType": "uint256",
          "name": "tokenId",
          "type": "uint256"
        }
      ],
      "name": "burn",
      "outputs": [],
      "stateMutability": "nonpayable",
      "type": "function"
    },
    {
      "inputs": [
        {
          "internalType": "uint256",
          "name": "_id",
          "type": "uint256"
        }
      ],
      "name": "burnFromAuthorizedAddress",
      "outputs": [],
      "stateMutability": "nonpayable",
      "type": "function"
    },
    {
      "inputs": [],
      "name": "contractURI",
      "outputs": [
        {
          "internalType": "string",
          "name": "",
          "type": "string"
        }
      ],
      "stateMutability": "view",
      "type": "function"
    },
    {
      "inputs": [
        {
          "internalType": "uint256",
          "name": "tokenId",
          "type": "uint256"
        }
      ],
      "name": "getApproved",
      "outputs": [
        {
          "internalType": "address",
          "name": "",
          "type": "address"
        }
      ],
      "stateMutability": "view",
      "type": "function"
    },
    {
      "inputs": [
        {
          "internalType": "address",
          "name": "owner",
          "type": "address"
        },
        {
          "internalType": "address",
          "name": "operator",
          "type": "address"
        }
      ],
      "name": "isApprovedForAll",
      "outputs": [
        {
          "internalType": "bool",
          "name": "",
          "type": "bool"
        }
      ],
      "stateMutability": "view",
      "type": "function"
    },
    {
      "inputs": [],
      "name": "name",
      "outputs": [
        {
          "internalType": "string",
          "name": "",
          "type": "string"
        }
      ],
      "stateMutability": "view",
      "type": "function"
    },
    {
      "inputs": [],
      "name": "nextTokenId",
      "outputs": [
        {
          "internalType": "uint256",
          "name": "_value",
          "type": "uint256"
        }
      ],
      "stateMutability": "view",
      "type": "function"
    },
    {
      "inputs": [],
      "name": "owner",
      "outputs": [
        {
          "internalType": "address",
          "name": "",
          "type": "address"
        }
      ],
      "stateMutability": "view",
      "type": "function"
    },
    {
      "inputs": [
        {
          "internalType": "uint256",
          "name": "tokenId",
          "type": "uint256"
        }
      ],
      "name": "ownerOf",
      "outputs": [
        {
          "internalType": "address",
          "name": "",
          "type": "address"
        }
      ],
      "stateMutability": "view",
      "type": "function"
    },
    {
      "inputs": [],
      "name": "renounceOwnership",
      "outputs": [],
      "stateMutability": "nonpayable",
      "type": "function"
    },
    {
      "inputs": [
        {
          "internalType": "uint256",
          "name": "tokenId",
          "type": "uint256"
        },
        {
          "internalType": "uint256",
          "name": "salePrice",
          "type": "uint256"
        }
      ],
      "name": "royaltyInfo",
      "outputs": [
        {
          "internalType": "address",
          "name": "",
          "type": "address"
        },
        {
          "internalType": "uint256",
          "name": "",
          "type": "uint256"
        }
      ],
      "stateMutability": "view",
      "type": "function"
    },
    {
      "inputs": [
        {
          "internalType": "address",
          "name": "to",
          "type": "address"
        },
        {
          "internalType": "string",
          "name": "uri",
          "type": "string"
        }
      ],
      "name": "safeMint",
      "outputs": [],
      "stateMutability": "nonpayable",
      "type": "function"
    },
    {
      "inputs": [
        {
          "internalType": "address",
          "name": "from",
          "type": "address"
        },
        {
          "internalType": "address",
          "name": "to",
          "type": "address"
        },
        {
          "internalType": "uint256",
          "name": "tokenId",
          "type": "uint256"
        }
      ],
      "name": "safeTransferFrom",
      "outputs": [],
      "stateMutability": "nonpayable",
      "type": "function"
    },
    {
      "inputs": [
        {
          "internalType": "address",
          "name": "from",
          "type": "address"
        },
        {
          "internalType": "address",
          "name": "to",
          "type": "address"
        },
        {
          "internalType": "uint256",
          "name": "tokenId",
          "type": "uint256"
        },
        {
          "internalType": "bytes",
          "name": "data",
          "type": "bytes"
        }
      ],
      "name": "safeTransferFrom",
      "outputs": [],
      "stateMutability": "nonpayable",
      "type": "function"
    },
    {
      "inputs": [
        {
          "internalType": "address",
          "name": "operator",
          "type": "address"
        },
        {
          "internalType": "bool",
          "name": "approved",
          "type": "bool"
        }
      ],
      "name": "setApprovalForAll",
      "outputs": [],
      "stateMutability": "nonpayable",
      "type": "function"
    },
    {
      "inputs": [
        {
          "internalType": "address",
          "name": "_artist",
          "type": "address"
        }
      ],
      "name": "setArtist",
      "outputs": [],
      "stateMutability": "nonpayable",
      "type": "function"
    },
    {
      "inputs": [
        {
          "internalType": "uint256",
          "name": "_artistShare",
          "type": "uint256"
        }
      ],
      "name": "setArtistShare",
      "outputs": [],
      "stateMutability": "nonpayable",
      "type": "function"
    },
    {
      "inputs": [
        {
          "internalType": "string",
          "name": "_contractMetadata",
          "type": "string"
        }
      ],
      "name": "setContractMetadata",
      "outputs": [],
      "stateMutability": "nonpayable",
      "type": "function"
    },
    {
      "inputs": [
        {
          "internalType": "uint256",
          "name": "_tokenId",
          "type": "uint256"
        },
        {
          "internalType": "string",
          "name": "_uri",
          "type": "string"
        }
      ],
      "name": "setTokenURI",
      "outputs": [],
      "stateMutability": "nonpayable",
      "type": "function"
    },
    {
      "inputs": [
        {
          "internalType": "bytes4",
          "name": "interfaceId",
          "type": "bytes4"
        }
      ],
      "name": "supportsInterface",
      "outputs": [
        {
          "internalType": "bool",
          "name": "",
          "type": "bool"
        }
      ],
      "stateMutability": "view",
      "type": "function"
    },
    {
      "inputs": [],
      "name": "symbol",
      "outputs": [
        {
          "internalType": "string",
          "name": "",
          "type": "string"
        }
      ],
      "stateMutability": "view",
      "type": "function"
    },
    {
      "inputs": [
        {
          "internalType": "uint256",
          "name": "index",
          "type": "uint256"
        }
      ],
      "name": "tokenByIndex",
      "outputs": [
        {
          "internalType": "uint256",
          "name": "",
          "type": "uint256"
        }
      ],
      "stateMutability": "view",
      "type": "function"
    },
    {
      "inputs": [
        {
          "internalType": "address",
          "name": "owner",
          "type": "address"
        },
        {
          "internalType": "uint256",
          "name": "index",
          "type": "uint256"
        }
      ],
      "name": "tokenOfOwnerByIndex",
      "outputs": [
        {
          "internalType": "uint256",
          "name": "",
          "type": "uint256"
        }
      ],
      "stateMutability": "view",
      "type": "function"
    },
    {
      "inputs": [
        {
          "internalType": "uint256",
          "name": "tokenId",
          "type": "uint256"
        }
      ],
      "name": "tokenURI",
      "outputs": [
        {
          "internalType": "string",
          "name": "",
          "type": "string"
        }
      ],
      "stateMutability": "view",
      "type": "function"
    },
    {
      "inputs": [],
      "name": "totalSupply",
      "outputs": [
        {
          "internalType": "uint256",
          "name": "",
          "type": "uint256"
        }
      ],
      "stateMutability": "view",
      "type": "function"
    },
    {
      "inputs": [
        {
          "internalType": "address",
          "name": "from",
          "type": "address"
        },
        {
          "internalType": "address",
          "name": "to",
          "type": "address"
        },
        {
          "internalType": "uint256",
          "name": "tokenId",
          "type": "uint256"
        }
      ],
      "name": "transferFrom",
      "outputs": [],
      "stateMutability": "nonpayable",
      "type": "function"
    },
    {
      "inputs": [
        {
          "internalType": "address",
          "name": "newOwner",
          "type": "address"
        }
      ],
      "name": "transferOwnership",
      "outputs": [],
      "stateMutability": "nonpayable",
      "type": "function"
    },
    {
      "inputs": [],
      "name": "withdraw",
      "outputs": [],
      "stateMutability": "nonpayable",
      "type": "function"
    },
    {
      "inputs": [
        {
          "internalType": "address",
          "name": "erc20",
          "type": "address"
        }
      ],
      "name": "withdrawERC20",
      "outputs": [],
      "stateMutability": "nonpayable",
      "type": "function"
    },
    {
      "stateMutability": "payable",
      "type": "receive"
    }
  ],
  "bytecode": "0x60a06040523480156200001157600080fd5b5060405162003211380380620032118339810160408190526200003491620002bc565b8451859085906200004d9060009060208501906200012c565b508051620000639060019060208401906200012c565b505050620000806200007a620000cd60201b60201c565b620000d1565b6001600160a01b03838116608052600c80546001600160a01b031916918416919091179055600d819055620000c2600f62000123602090811b6200179e17901c565b505050505062000391565b3390565b600b80546001600160a01b038381166001600160a01b0319831681179093556040519116919082907f8be0079c531659141344cd1fd0a4f28419497f9722a3daafe3b4186f6b6457e090600090a35050565b80546001019055565b8280546200013a9062000355565b90600052602060002090601f0160209004810192826200015e5760008555620001a9565b82601f106200017957805160ff1916838001178555620001a9565b82800160010185558215620001a9579182015b82811115620001a95782518255916020019190600101906200018c565b50620001b7929150620001bb565b5090565b5b80821115620001b75760008155600101620001bc565b634e487b7160e01b600052604160045260246000fd5b600082601f830112620001fa57600080fd5b81516001600160401b0380821115620002175762000217620001d2565b604051601f8301601f19908116603f01168101908282118183101715620002425762000242620001d2565b816040528381526020925086838588010111156200025f57600080fd5b600091505b8382101562000283578582018301518183018401529082019062000264565b83821115620002955760008385830101525b9695505050505050565b80516001600160a01b0381168114620002b757600080fd5b919050565b600080600080600060a08688031215620002d557600080fd5b85516001600160401b0380821115620002ed57600080fd5b620002fb89838a01620001e8565b965060208801519150808211156200031257600080fd5b506200032188828901620001e8565b94505062000332604087016200029f565b925062000342606087016200029f565b9150608086015190509295509295909350565b600181811c908216806200036a57607f821691505b6020821081036200038b57634e487b7160e01b600052602260045260246000fd5b50919050565b608051612e25620003ec600039600081816108de01528181610b9901528181610e6201528181610f62015281816110930152818161115d01528181611242015281816113600152818161158b01526116a70152612e256000f3fe6080604052600436106102135760003560e01c8063715018a611610118578063c87b56dd116100a0578063e8a3d4851161006f578063e8a3d4851461063f578063e985e9c514610654578063f2fde38b14610674578063f4f3b20014610694578063fce55037146106b457600080fd5b8063c87b56dd146105ab578063d204c45e146105cb578063d4c97533146105eb578063d53913931461060b57600080fd5b806395d89b41116100e757806395d89b4114610521578063a217fddf14610536578063a22cb4651461054b578063a82670d31461056b578063b88d4fde1461058b57600080fd5b8063715018a6146104b757806375794a3c146104cc5780637eeab095146104e35780638da5cb5b1461050357600080fd5b80632a55205a1161019b57806342966c681161016a57806342966c681461041757806343bc1612146104375780634f6ccce7146104575780636352211e1461047757806370a082311461049757600080fd5b80632a55205a146103835780632f745c59146103c25780633ccfd60b146103e257806342842e0e146103f757600080fd5b8063162094c4116101e2578063162094c4146102d057806318160ddd146102f057806323b872dd1461030f578063282c51f31461032f5780632a0befc21461036357600080fd5b806301ffc9a71461021f57806306fdde0314610254578063081812fc14610276578063095ea7b3146102ae57600080fd5b3661021a57005b600080fd5b34801561022b57600080fd5b5061023f61023a36600461274f565b6106d4565b60405190151581526020015b60405180910390f35b34801561026057600080fd5b506102696106ff565b60405161024b91906127c4565b34801561028257600080fd5b506102966102913660046127d7565b610791565b6040516001600160a01b03909116815260200161024b565b3480156102ba57600080fd5b506102ce6102c9366004612805565b6107b8565b005b3480156102dc57600080fd5b506102ce6102eb366004612873565b6108d2565b3480156102fc57600080fd5b506008545b60405190815260200161024b565b34801561031b57600080fd5b506102ce61032a3660046128bf565b6109c4565b34801561033b57600080fd5b506103017f3b25106add3a89098ef82030314e486ca1f967bd742e45817c5014c5ef3e806481565b34801561036f57600080fd5b506102ce61037e366004612900565b6109f6565b34801561038f57600080fd5b506103a361039e366004612942565b610a53565b604080516001600160a01b03909316835260208301919091520161024b565b3480156103ce57600080fd5b506103016103dd366004612805565b610a7c565b3480156103ee57600080fd5b506102ce610b12565b34801561040357600080fd5b506102ce6104123660046128bf565b610c7d565b34801561042357600080fd5b506102ce6104323660046127d7565b610c98565b34801561044357600080fd5b50600c54610296906001600160a01b031681565b34801561046357600080fd5b506103016104723660046127d7565b610cc9565b34801561048357600080fd5b506102966104923660046127d7565b610d5c565b3480156104a357600080fd5b506103016104b2366004612964565b610dbc565b3480156104c357600080fd5b506102ce610e42565b3480156104d857600080fd5b50600f546103019081565b3480156104ef57600080fd5b506102ce6104fe3660046127d7565b610e56565b34801561050f57600080fd5b50600b546001600160a01b0316610296565b34801561052d57600080fd5b50610269610f0d565b34801561054257600080fd5b50610301600081565b34801561055757600080fd5b506102ce61056636600461298f565b610f1c565b34801561057757600080fd5b506102ce6105863660046127d7565b610f27565b34801561059757600080fd5b506102ce6105a63660046129de565b611015565b3480156105b757600080fd5b506102696105c63660046127d7565b61104d565b3480156105d757600080fd5b506102ce6105e6366004612abe565b611058565b3480156105f757600080fd5b506102ce610606366004612964565b611151565b34801561061757600080fd5b506103017f43c12360602d49748153591f2df5a853821ec8410115f225b90a7a49bd5d2bb981565b34801561064b57600080fd5b50610269611225565b34801561066057600080fd5b5061023f61066f366004612afa565b611234565b34801561068057600080fd5b506102ce61068f366004612964565b611354565b3480156106a057600080fd5b506102ce6106af366004612964565b611474565b3480156106c057600080fd5b506102ce6106cf366004612900565b61168b565b60006001600160e01b0319821663152a902d60e11b14806106f957506106f9826117a7565b92915050565b60606000805461070e90612b28565b80601f016020809104026020016040519081016040528092919081815260200182805461073a90612b28565b80156107875780601f1061075c57610100808354040283529160200191610787565b820191906000526020600020905b81548152906001019060200180831161076a57829003601f168201915b5050505050905090565b600061079c826117cc565b506000908152600460205260409020546001600160a01b031690565b60006107c382610d5c565b9050806001600160a01b0316836001600160a01b0316036108355760405162461bcd60e51b815260206004820152602160248201527f4552433732313a20617070726f76616c20746f2063757272656e74206f776e656044820152603960f91b60648201526084015b60405180910390fd5b336001600160a01b038216148061085157506108518133611234565b6108c35760405162461bcd60e51b815260206004820152603e60248201527f4552433732313a20617070726f76652063616c6c6572206973206e6f7420746f60448201527f6b656e206f776e6572206e6f7220617070726f76656420666f7220616c6c0000606482015260840161082c565b6108cd838361182b565b505050565b336001600160a01b03167f00000000000000000000000000000000000000000000000000000000000000006001600160a01b0316634783c35b6040518163ffffffff1660e01b8152600401602060405180830381865afa15801561093a573d6000803e3d6000fd5b505050506040513d601f19601f8201168201806040525081019061095e9190612b62565b6001600160a01b0316146109845760405162461bcd60e51b815260040161082c90612b7f565b6108cd8383838080601f01602080910402602001604051908101604052809392919081815260200183838082843760009201919091525061189992505050565b6109cf335b82611933565b6109eb5760405162461bcd60e51b815260040161082c90612ba9565b6108cd838383611992565b600c546001600160a01b03163314610a445760405162461bcd60e51b81526020600482015260116024820152704f6e6c79206172746973742063616c6c7360781b604482015260640161082c565b610a4f338383611b39565b5050565b60008030612710610a666104b086612c0d565b610a709190612c42565b915091505b9250929050565b6000610a8783610dbc565b8210610ae95760405162461bcd60e51b815260206004820152602b60248201527f455243373231456e756d657261626c653a206f776e657220696e646578206f7560448201526a74206f6620626f756e647360a81b606482015260840161082c565b506001600160a01b03919091166000908152600660209081526040808320938352929052205490565b600d54479060009061271090610b289084612c0d565b610b329190612c42565b600c546040519192506000916001600160a01b039091169083908381818185875af1925050503d8060008114610b84576040519150601f19603f3d011682016040523d82523d6000602084013e610b89565b606091505b5050905080610b9757600080fd5b7f00000000000000000000000000000000000000000000000000000000000000006001600160a01b0316634783c35b6040518163ffffffff1660e01b8152600401602060405180830381865afa158015610bf5573d6000803e3d6000fd5b505050506040513d601f19601f82011682018060405250810190610c199190612b62565b6001600160a01b0316610c2c8385612c56565b604051600081818185875af1925050503d8060008114610c68576040519150601f19603f3d011682016040523d82523d6000602084013e610c6d565b606091505b505080915050806108cd57600080fd5b6108cd83838360405180602001604052806000815250611015565b610ca1336109c9565b610cbd5760405162461bcd60e51b815260040161082c90612ba9565b610cc681611b9e565b50565b6000610cd460085490565b8210610d375760405162461bcd60e51b815260206004820152602c60248201527f455243373231456e756d657261626c653a20676c6f62616c20696e646578206f60448201526b7574206f6620626f756e647360a01b606482015260840161082c565b60088281548110610d4a57610d4a612c6d565b90600052602060002001549050919050565b6000818152600260205260408120546001600160a01b0316806106f95760405162461bcd60e51b8152602060048201526018602482015277115490cdcc8c4e881a5b9d985b1a59081d1bdad95b88125160421b604482015260640161082c565b60006001600160a01b038216610e265760405162461bcd60e51b815260206004820152602960248201527f4552433732313a2061646472657373207a65726f206973206e6f7420612076616044820152683634b21037bbb732b960b91b606482015260840161082c565b506001600160a01b031660009081526003602052604090205490565b610e4a611ba7565b610e546000611c01565b565b336001600160a01b03167f00000000000000000000000000000000000000000000000000000000000000006001600160a01b0316634783c35b6040518163ffffffff1660e01b8152600401602060405180830381865afa158015610ebe573d6000803e3d6000fd5b505050506040513d601f19601f82011682018060405250810190610ee29190612b62565b6001600160a01b031614610f085760405162461bcd60e51b815260040161082c90612b7f565b600d55565b60606001805461070e90612b28565b610a4f338383611c53565b604051632474521560e21b81527f3b25106add3a89098ef82030314e486ca1f967bd742e45817c5014c5ef3e806460048201523360248201527f00000000000000000000000000000000000000000000000000000000000000006001600160a01b0316906391d1485490604401602060405180830381865afa158015610fb1573d6000803e3d6000fd5b505050506040513d601f19601f82011682018060405250810190610fd59190612c83565b610cbd5760405162461bcd60e51b81526020600482015260116024820152704e6f206275726e696e672072696768747360781b604482015260640161082c565b61101f3383611933565b61103b5760405162461bcd60e51b815260040161082c90612ba9565b61104784848484611d21565b50505050565b60606106f982611d54565b604051632474521560e21b81527f43c12360602d49748153591f2df5a853821ec8410115f225b90a7a49bd5d2bb960048201523360248201527f00000000000000000000000000000000000000000000000000000000000000006001600160a01b0316906391d1485490604401602060405180830381865afa1580156110e2573d6000803e3d6000fd5b505050506040513d601f19601f820116820180604052508101906111069190612c83565b6111465760405162461bcd60e51b81526020600482015260116024820152704e6f206d696e74696e672072696768747360781b604482015260640161082c565b6108cd838383611b39565b336001600160a01b03167f00000000000000000000000000000000000000000000000000000000000000006001600160a01b0316634783c35b6040518163ffffffff1660e01b8152600401602060405180830381865afa1580156111b9573d6000803e3d6000fd5b505050506040513d601f19601f820116820180604052508101906111dd9190612b62565b6001600160a01b0316146112035760405162461bcd60e51b815260040161082c90612b7f565b600c80546001600160a01b0319166001600160a01b0392909216919091179055565b6060600e805461070e90612b28565b6000816001600160a01b03167f00000000000000000000000000000000000000000000000000000000000000006001600160a01b03166321f8a7216040516020016112989072616464726573732e6d61726b6574706c61636560681b815260130190565b604051602081830303815290604052805190602001206040518263ffffffff1660e01b81526004016112cc91815260200190565b602060405180830381865afa1580156112e9573d6000803e3d6000fd5b505050506040513d601f19601f8201168201806040525081019061130d9190612b62565b6001600160a01b031603611323575060016106f9565b6001600160a01b0380841660009081526005602090815260408083209386168352929052205460ff165b9392505050565b336001600160a01b03167f00000000000000000000000000000000000000000000000000000000000000006001600160a01b0316634783c35b6040518163ffffffff1660e01b8152600401602060405180830381865afa1580156113bc573d6000803e3d6000fd5b505050506040513d601f19601f820116820180604052508101906113e09190612b62565b6001600160a01b0316146114065760405162461bcd60e51b815260040161082c90612b7f565b6001600160a01b03811661146b5760405162461bcd60e51b815260206004820152602660248201527f4f776e61626c653a206e6577206f776e657220697320746865207a65726f206160448201526564647265737360d01b606482015260840161082c565b610cc681611c01565b6040516370a0823160e01b815230600482015281906000906001600160a01b038316906370a0823190602401602060405180830381865afa1580156114bd573d6000803e3d6000fd5b505050506040513d601f19601f820116820180604052508101906114e19190612ca0565b90506000612710600d54836114f69190612c0d565b6115009190612c42565b600c5460405163a9059cbb60e01b81526001600160a01b0391821660048201526024810183905291925084169063a9059cbb906044016020604051808303816000875af1158015611555573d6000803e3d6000fd5b505050506040513d601f19601f820116820180604052508101906115799190612c83565b50826001600160a01b031663a9059cbb7f00000000000000000000000000000000000000000000000000000000000000006001600160a01b0316634783c35b6040518163ffffffff1660e01b8152600401602060405180830381865afa1580156115e7573d6000803e3d6000fd5b505050506040513d601f19601f8201168201806040525081019061160b9190612b62565b6116158486612c56565b6040516001600160e01b031960e085901b1681526001600160a01b03909216600483015260248201526044016020604051808303816000875af1158015611660573d6000803e3d6000fd5b505050506040513d601f19601f820116820180604052508101906116849190612c83565b5050505050565b604051632474521560e21b8152600060048201523360248201527f00000000000000000000000000000000000000000000000000000000000000006001600160a01b0316906391d1485490604401602060405180830381865afa1580156116f6573d6000803e3d6000fd5b505050506040513d601f19601f8201168201806040525081019061171a9190612c83565b806117465750600c546001600160a01b0316331480156117465750600e805461174290612b28565b1590505b6117925760405162461bcd60e51b815260206004820152601b60248201527f4f6e6c792063726561746f72206f722061646d696e2063616c6c730000000000604482015260640161082c565b6108cd600e83836125f6565b80546001019055565b60006001600160e01b0319821663780e9d6360e01b14806106f957506106f982611e5c565b6000818152600260205260409020546001600160a01b0316610cc65760405162461bcd60e51b8152602060048201526018602482015277115490cdcc8c4e881a5b9d985b1a59081d1bdad95b88125160421b604482015260640161082c565b600081815260046020526040902080546001600160a01b0319166001600160a01b038416908117909155819061186082610d5c565b6001600160a01b03167f8c5be1e5ebec7d5bd14f71427d1e84f3dd0314c0f7b2291e5b200ac8c7c3b92560405160405180910390a45050565b6000828152600260205260409020546001600160a01b03166119145760405162461bcd60e51b815260206004820152602e60248201527f45524337323155524953746f726167653a2055524920736574206f66206e6f6e60448201526d32bc34b9ba32b73a103a37b5b2b760911b606482015260840161082c565b6000828152600a6020908152604090912082516108cd9284019061267a565b60008061193f83610d5c565b9050806001600160a01b0316846001600160a01b0316148061196657506119668185611234565b8061198a5750836001600160a01b031661197f84610791565b6001600160a01b0316145b949350505050565b826001600160a01b03166119a582610d5c565b6001600160a01b031614611a095760405162461bcd60e51b815260206004820152602560248201527f4552433732313a207472616e736665722066726f6d20696e636f72726563742060448201526437bbb732b960d91b606482015260840161082c565b6001600160a01b038216611a6b5760405162461bcd60e51b8152602060048201526024808201527f4552433732313a207472616e7366657220746f20746865207a65726f206164646044820152637265737360e01b606482015260840161082c565b611a76838383611eac565b611a8160008261182b565b6001600160a01b0383166000908152600360205260408120805460019290611aaa908490612c56565b90915550506001600160a01b0382166000908152600360205260408120805460019290611ad8908490612cb9565b909155505060008181526002602052604080822080546001600160a01b0319166001600160a01b0386811691821790925591518493918716917fddf252ad1be2c89b69c2b068fc378daa952ba7f163c4a11628f55a4df523b3ef91a4505050565b6000611b44600f5490565b9050611b54600f80546001019055565b611b5e8482611eb7565b6110478184848080601f01602080910402602001604051908101604052809392919081815260200183838082843760009201919091525061189992505050565b610cc681611ed1565b600b546001600160a01b03163314610e545760405162461bcd60e51b815260206004820181905260248201527f4f776e61626c653a2063616c6c6572206973206e6f7420746865206f776e6572604482015260640161082c565b600b80546001600160a01b038381166001600160a01b0319831681179093556040519116919082907f8be0079c531659141344cd1fd0a4f28419497f9722a3daafe3b4186f6b6457e090600090a35050565b816001600160a01b0316836001600160a01b031603611cb45760405162461bcd60e51b815260206004820152601960248201527f4552433732313a20617070726f766520746f2063616c6c657200000000000000604482015260640161082c565b6001600160a01b03838116600081815260056020908152604080832094871680845294825291829020805460ff191686151590811790915591519182527f17307eab39ab6107e8899845ad3d59bd9653f200f220920489ca2b5937696c31910160405180910390a3505050565b611d2c848484611992565b611d3884848484611f11565b6110475760405162461bcd60e51b815260040161082c90612cd1565b6060611d5f826117cc565b6000828152600a602052604081208054611d7890612b28565b80601f0160208091040260200160405190810160405280929190818152602001828054611da490612b28565b8015611df15780601f10611dc657610100808354040283529160200191611df1565b820191906000526020600020905b815481529060010190602001808311611dd457829003601f168201915b505050505090506000611e0f60408051602081019091526000815290565b90508051600003611e21575092915050565b815115611e53578082604051602001611e3b929190612d23565b60405160208183030381529060405292505050919050565b61198a84612012565b60006001600160e01b031982166380ac58cd60e01b1480611e8d57506001600160e01b03198216635b5e139f60e01b145b806106f957506301ffc9a760e01b6001600160e01b03198316146106f9565b6108cd838383612085565b610a4f82826040518060200160405280600081525061213d565b611eda81612170565b6000818152600a602052604090208054611ef390612b28565b159050610cc6576000818152600a60205260408120610cc6916126ee565b60006001600160a01b0384163b1561200757604051630a85bd0160e11b81526001600160a01b0385169063150b7a0290611f55903390899088908890600401612d52565b6020604051808303816000875af1925050508015611f90575060408051601f3d908101601f19168201909252611f8d91810190612d8f565b60015b611fed573d808015611fbe576040519150601f19603f3d011682016040523d82523d6000602084013e611fc3565b606091505b508051600003611fe55760405162461bcd60e51b815260040161082c90612cd1565b805181602001fd5b6001600160e01b031916630a85bd0160e11b14905061198a565b506001949350505050565b606061201d826117cc565b600061203460408051602081019091526000815290565b90506000815111612054576040518060200160405280600081525061134d565b8061205e84612217565b60405160200161206f929190612d23565b6040516020818303038152906040529392505050565b6001600160a01b0383166120e0576120db81600880546000838152600960205260408120829055600182018355919091527ff3f7a9fe364faab93b216da50a3214154f22a0a2b415b23a84c8169e8b636ee30155565b612103565b816001600160a01b0316836001600160a01b031614612103576121038382612318565b6001600160a01b03821661211a576108cd816123b5565b826001600160a01b0316826001600160a01b0316146108cd576108cd8282612464565b61214783836124a8565b6121546000848484611f11565b6108cd5760405162461bcd60e51b815260040161082c90612cd1565b600061217b82610d5c565b905061218981600084611eac565b61219460008361182b565b6001600160a01b03811660009081526003602052604081208054600192906121bd908490612c56565b909155505060008281526002602052604080822080546001600160a01b0319169055518391906001600160a01b038416907fddf252ad1be2c89b69c2b068fc378daa952ba7f163c4a11628f55a4df523b3ef908390a45050565b60608160000361223e5750506040805180820190915260018152600360fc1b602082015290565b8160005b8115612268578061225281612dac565b91506122619050600a83612c42565b9150612242565b60008167ffffffffffffffff811115612283576122836129c8565b6040519080825280601f01601f1916602001820160405280156122ad576020820181803683370190505b5090505b841561198a576122c2600183612c56565b91506122cf600a86612dc5565b6122da906030612cb9565b60f81b8183815181106122ef576122ef612c6d565b60200101906001600160f81b031916908160001a905350612311600a86612c42565b94506122b1565b6000600161232584610dbc565b61232f9190612c56565b600083815260076020526040902054909150808214612382576001600160a01b03841660009081526006602090815260408083208584528252808320548484528184208190558352600790915290208190555b5060009182526007602090815260408084208490556001600160a01b039094168352600681528383209183525290812055565b6008546000906123c790600190612c56565b600083815260096020526040812054600880549394509092849081106123ef576123ef612c6d565b90600052602060002001549050806008838154811061241057612410612c6d565b600091825260208083209091019290925582815260099091526040808220849055858252812055600880548061244857612448612dd9565b6001900381819060005260206000200160009055905550505050565b600061246f83610dbc565b6001600160a01b039093166000908152600660209081526040808320868452825280832085905593825260079052919091209190915550565b6001600160a01b0382166124fe5760405162461bcd60e51b815260206004820181905260248201527f4552433732313a206d696e7420746f20746865207a65726f2061646472657373604482015260640161082c565b6000818152600260205260409020546001600160a01b0316156125635760405162461bcd60e51b815260206004820152601c60248201527f4552433732313a20746f6b656e20616c7265616479206d696e74656400000000604482015260640161082c565b61256f60008383611eac565b6001600160a01b0382166000908152600360205260408120805460019290612598908490612cb9565b909155505060008181526002602052604080822080546001600160a01b0319166001600160a01b03861690811790915590518392907fddf252ad1be2c89b69c2b068fc378daa952ba7f163c4a11628f55a4df523b3ef908290a45050565b82805461260290612b28565b90600052602060002090601f016020900481019282612624576000855561266a565b82601f1061263d5782800160ff1982351617855561266a565b8280016001018555821561266a579182015b8281111561266a57823582559160200191906001019061264f565b50612676929150612724565b5090565b82805461268690612b28565b90600052602060002090601f0160209004810192826126a8576000855561266a565b82601f106126c157805160ff191683800117855561266a565b8280016001018555821561266a579182015b8281111561266a5782518255916020019190600101906126d3565b5080546126fa90612b28565b6000825580601f1061270a575050565b601f016020900490600052602060002090810190610cc691905b5b808211156126765760008155600101612725565b6001600160e01b031981168114610cc657600080fd5b60006020828403121561276157600080fd5b813561134d81612739565b60005b8381101561278757818101518382015260200161276f565b838111156110475750506000910152565b600081518084526127b081602086016020860161276c565b601f01601f19169290920160200192915050565b60208152600061134d6020830184612798565b6000602082840312156127e957600080fd5b5035919050565b6001600160a01b0381168114610cc657600080fd5b6000806040838503121561281857600080fd5b8235612823816127f0565b946020939093013593505050565b60008083601f84011261284357600080fd5b50813567ffffffffffffffff81111561285b57600080fd5b602083019150836020828501011115610a7557600080fd5b60008060006040848603121561288857600080fd5b83359250602084013567ffffffffffffffff8111156128a657600080fd5b6128b286828701612831565b9497909650939450505050565b6000806000606084860312156128d457600080fd5b83356128df816127f0565b925060208401356128ef816127f0565b929592945050506040919091013590565b6000806020838503121561291357600080fd5b823567ffffffffffffffff81111561292a57600080fd5b61293685828601612831565b90969095509350505050565b6000806040838503121561295557600080fd5b50508035926020909101359150565b60006020828403121561297657600080fd5b813561134d816127f0565b8015158114610cc657600080fd5b600080604083850312156129a257600080fd5b82356129ad816127f0565b915060208301356129bd81612981565b809150509250929050565b634e487b7160e01b600052604160045260246000fd5b600080600080608085870312156129f457600080fd5b84356129ff816127f0565b93506020850135612a0f816127f0565b925060408501359150606085013567ffffffffffffffff80821115612a3357600080fd5b818701915087601f830112612a4757600080fd5b813581811115612a5957612a596129c8565b604051601f8201601f19908116603f01168101908382118183101715612a8157612a816129c8565b816040528281528a6020848701011115612a9a57600080fd5b82602086016020830137600060208483010152809550505050505092959194509250565b600080600060408486031215612ad357600080fd5b8335612ade816127f0565b9250602084013567ffffffffffffffff8111156128a657600080fd5b60008060408385031215612b0d57600080fd5b8235612b18816127f0565b915060208301356129bd816127f0565b600181811c90821680612b3c57607f821691505b602082108103612b5c57634e487b7160e01b600052602260045260246000fd5b50919050565b600060208284031215612b7457600080fd5b815161134d816127f0565b60208082526010908201526f41646d696e2063616c6c73206f6e6c7960801b604082015260600190565b6020808252602e908201527f4552433732313a2063616c6c6572206973206e6f7420746f6b656e206f776e6560408201526d1c881b9bdc88185c1c1c9bdd995960921b606082015260800190565b634e487b7160e01b600052601160045260246000fd5b6000816000190483118215151615612c2757612c27612bf7565b500290565b634e487b7160e01b600052601260045260246000fd5b600082612c5157612c51612c2c565b500490565b600082821015612c6857612c68612bf7565b500390565b634e487b7160e01b600052603260045260246000fd5b600060208284031215612c9557600080fd5b815161134d81612981565b600060208284031215612cb257600080fd5b5051919050565b60008219821115612ccc57612ccc612bf7565b500190565b60208082526032908201527f4552433732313a207472616e7366657220746f206e6f6e20455243373231526560408201527131b2b4bb32b91034b6b83632b6b2b73a32b960711b606082015260800190565b60008351612d3581846020880161276c565b835190830190612d4981836020880161276c565b01949350505050565b6001600160a01b0385811682528416602082015260408101839052608060608201819052600090612d8590830184612798565b9695505050505050565b600060208284031215612da157600080fd5b815161134d81612739565b600060018201612dbe57612dbe612bf7565b5060010190565b600082612dd457612dd4612c2c565b500690565b634e487b7160e01b600052603160045260246000fdfea2646970667358221220ba687ace694e8f5db970821cfa1e4d6a06100e254448b6307cb4a2e3d05aefe864736f6c634300080e0033",
  "linkReferences": {},
  "deployedLinkReferences": {}
}