{
  "_format": "hh-sol-artifact-1",
  "contractName": "SageConfig",
  "sourceName": "contracts/Utils/SageConfig.sol",
  "abi": [
    {
      "inputs": [
        {
          "internalType": "address",
          "name": "_sageStorage",
          "type": "address"
        }
      ],
      "stateMutability": "nonpayable",
      "type": "constructor"
    },
    {
      "anonymous": false,
      "inputs": [
        {
          "indexed": true,
          "internalType": "bytes32",
          "name": "key",
          "type": "bytes32"
        },
        {
          "indexed": false,
          "internalType": "uint256",
          "name": "value",
          "type": "uint256"
        }
      ],
      "name": "UintSet",
      "type": "event"
    },
    {
      "inputs": [
        {
          "internalType": "bytes32",
          "name": "_key",
          "type": "bytes32"
        }
      ],
      "name": "getUint",
      "outputs": [
        {
          "internalType": "uint256",
          "name": "",
          "type": "uint256"
        }
      ],
      "stateMutability": "view",
      "type": "function"
    },
    {
      "inputs": [
        {
          "internalType": "bytes32",
          "name": "_key",
          "type": "bytes32"
        },
        {
          "internalType": "uint256",
          "name": "_value",
          "type": "uint256"
        }
      ],
      "name": "setUint",
      "outputs": [],
      "stateMutability": "nonpayable",
      "type": "function"
    }
  ],
  "bytecode": "0x60a060405234801561001057600080fd5b506040516103ad3803806103ad83398101604081905261002f91610040565b6001600160a01b0316608052610070565b60006020828403121561005257600080fd5b81516001600160a01b038116811461006957600080fd5b9392505050565b60805161031c6100916000396000818160bd0152610142015261031c6000f3fe608060405234801561001057600080fd5b50600436106100365760003560e01c8063bd02d0f51461003b578063e2a4853a1461006d575b600080fd5b61005b610049366004610259565b60009081526020819052604090205490565b60405190815260200160405180910390f35b61008061007b366004610272565b610082565b005b604051632474521560e21b81527fe303cb88ace8c9e6ba216f1aecb44b3206dcab364c60512ffc6cbc920a1bf9d160048201523360248201527f00000000000000000000000000000000000000000000000000000000000000006001600160a01b0316906391d1485490604401602060405180830381865afa15801561010c573d6000803e3d6000fd5b505050506040513d601f19601f820116820180604052508101906101309190610294565b806101cd5750336001600160a01b03167f00000000000000000000000000000000000000000000000000000000000000006001600160a01b0316634783c35b6040518163ffffffff1660e01b8152600401602060405180830381865afa15801561019e573d6000803e3d6000fd5b505050506040513d601f19601f820116820180604052508101906101c291906102bd565b6001600160a01b0316145b6102105760405162461bcd60e51b815260206004820152601060248201526f41646d696e2063616c6c73206f6e6c7960801b604482015260640160405180910390fd5b60008281526020818152604091829020839055905182815283917fdfe633a6a8d59fad9066cdc5e822206790f068f0807e428f42ae5c43e1c165ff910160405180910390a25050565b60006020828403121561026b57600080fd5b5035919050565b6000806040838503121561028557600080fd5b50508035926020909101359150565b6000602082840312156102a657600080fd5b815180151581146102b657600080fd5b9392505050565b6000602082840312156102cf57600080fd5b81516001600160a01b03811681146102b657600080fdfea264697066735822122002f360f53b42ba28335b869ca6be0ebad75bef6923b988e60712f5398e3fc0de64736f6c634300080e0033",
  "linkReferences": {},
  "deployedLinkReferences": {}
}