{
  "_format": "hh-sol-artifact-1",
  "contractName": "WhitelistAlpha",
  "sourceName": "contracts/Utils/WhitelistAlpha copy.sol",
  "abi": [
    {
      "inputs": [],
      "stateMutability": "nonpayable",
      "type": "constructor"
    },
    {
      "inputs": [
        {
          "internalType": "address",
          "name": "_address",
          "type": "address"
        },
        {
          "internalType": "uint256",
          "name": "_collectionId",
          "type": "uint256"
        }
      ],
      "name": "isWhitelisted",
      "outputs": [
        {
          "internalType": "bool",
          "name": "",
          "type": "bool"
        }
      ],
      "stateMutability": "view",
      "type": "function"
    }
  ],
  "bytecode": "0x608060405234801561001057600080fd5b50610167806100206000396000f3fe608060405234801561001057600080fd5b506004361061002b5760003560e01c8063830639ac14610030575b600080fd5b61004361003e3660046100e0565b610057565b604051901515815260200160405180910390f35b6040516370a0823160e01b81526001600160a01b038316600482015260009081907348af7b1c9dac8871c064f62fcec0d9d6f7c269f5906370a0823190602401602060405180830381865afa1580156100b4573d6000803e3d6000fd5b505050506040513d601f19601f820116820180604052508101906100d89190610118565b119392505050565b600080604083850312156100f357600080fd5b82356001600160a01b038116811461010a57600080fd5b946020939093013593505050565b60006020828403121561012a57600080fd5b505191905056fea2646970667358221220e21ebb76bd40c3f450965a18a812175237a3fc8c966d05031de0112534a50cc664736f6c634300080e0033",
  "linkReferences": {},
  "deployedLinkReferences": {}
}