{
  "_format": "hh-sol-artifact-1",
  "contractName": "WhitelistIntern",
  "sourceName": "contracts/Utils/WhitelistIntern.sol",
  "abi": [
    {
      "inputs": [],
      "stateMutability": "nonpayable",
      "type": "constructor"
    },
    {
      "inputs": [
        {
          "internalType": "address",
          "name": "_address",
          "type": "address"
        },
        {
          "internalType": "uint256",
          "name": "_collectionId",
          "type": "uint256"
        }
      ],
      "name": "isWhitelisted",
      "outputs": [
        {
          "internalType": "bool",
          "name": "",
          "type": "bool"
        }
      ],
      "stateMutability": "view",
      "type": "function"
    }
  ],
  "bytecode": "0x608060405234801561001057600080fd5b5061016c806100206000396000f3fe608060405234801561001057600080fd5b506004361061002b5760003560e01c8063830639ac14610030575b600080fd5b61004361003e3660046100e5565b610057565b604051901515815260200160405180910390f35b604051627eeac760e11b81526001600160a01b038316600482015260016024820152600090819073a25bf81aacdb5e610eaf91a889975bba43398cf19062fdd58e90604401602060405180830381865afa1580156100b9573d6000803e3d6000fd5b505050506040513d601f19601f820116820180604052508101906100dd919061011d565b119392505050565b600080604083850312156100f857600080fd5b82356001600160a01b038116811461010f57600080fd5b946020939093013593505050565b60006020828403121561012f57600080fd5b505191905056fea26469706673582212209825929783bf5a77587f82823531b6de1c7a4971662097e69b8b89bd4a8d5fde64736f6c634300080e0033",
  "linkReferences": {},
  "deployedLinkReferences": {}
}