{
  "_format": "hh-sol-artifact-1",
  "contractName": "Whitelist",
  "sourceName": "contracts/Utils/Whitelist.sol",
  "abi": [
    {
      "inputs": [],
      "stateMutability": "nonpayable",
      "type": "constructor"
    },
    {
      "inputs": [
        {
          "internalType": "address",
          "name": "_address",
          "type": "address"
        }
      ],
      "name": "addAddress",
      "outputs": [],
      "stateMutability": "nonpayable",
      "type": "function"
    },
    {
      "inputs": [
        {
          "internalType": "address",
          "name": "_address",
          "type": "address"
        },
        {
          "internalType": "uint256",
          "name": "_collectionId",
          "type": "uint256"
        }
      ],
      "name": "isWhitelisted",
      "outputs": [
        {
          "internalType": "bool",
          "name": "",
          "type": "bool"
        }
      ],
      "stateMutability": "view",
      "type": "function"
    }
  ],
  "bytecode": "0x608060405234801561001057600080fd5b5061014e806100206000396000f3fe608060405234801561001057600080fd5b50600436106100365760003560e01c806338eada1c1461003b578063830639ac1461006f575b600080fd5b61006d6100493660046100cc565b6001600160a01b03166000908152602081905260409020805460ff19166001179055565b005b61009c61007d3660046100ee565b506001600160a01b031660009081526020819052604090205460ff1690565b604051901515815260200160405180910390f35b80356001600160a01b03811681146100c757600080fd5b919050565b6000602082840312156100de57600080fd5b6100e7826100b0565b9392505050565b6000806040838503121561010157600080fd5b61010a836100b0565b94602093909301359350505056fea264697066735822122038bfeb779806f845756ff0b26729a5190d1a7d4b46ca1ca87ca4ebbe83849b7464736f6c634300080e0033",
  "linkReferences": {},
  "deployedLinkReferences": {}
}