{
  "_format": "hh-sol-artifact-1",
  "contractName": "LegacySageNFT",
  "sourceName": "contracts/Utils/LegacySageNFT.sol",
  "abi": [
    {
      "inputs": [
        {
          "internalType": "address",
          "name": "_sageStorage",
          "type": "address"
        },
        {
          "internalType": "address",
          "name": "_artist",
          "type": "address"
        },
        {
          "internalType": "uint256",
          "name": "_artistShare",
          "type": "uint256"
        }
      ],
      "stateMutability": "nonpayable",
      "type": "constructor"
    },
    {
      "anonymous": false,
      "inputs": [
        {
          "indexed": true,
          "internalType": "address",
          "name": "owner",
          "type": "address"
        },
        {
          "indexed": true,
          "internalType": "address",
          "name": "approved",
          "type": "address"
        },
        {
          "indexed": true,
          "internalType": "uint256",
          "name": "tokenId",
          "type": "uint256"
        }
      ],
      "name": "Approval",
      "type": "event"
    },
    {
      "anonymous": false,
      "inputs": [
        {
          "indexed": true,
          "internalType": "address",
          "name": "owner",
          "type": "address"
        },
        {
          "indexed": true,
          "internalType": "address",
          "name": "operator",
          "type": "address"
        },
        {
          "indexed": false,
          "internalType": "bool",
          "name": "approved",
          "type": "bool"
        }
      ],
      "name": "ApprovalForAll",
      "type": "event"
    },
    {
      "anonymous": false,
      "inputs": [
        {
          "indexed": true,
          "internalType": "address",
          "name": "from",
          "type": "address"
        },
        {
          "indexed": true,
          "internalType": "address",
          "name": "to",
          "type": "address"
        },
        {
          "indexed": true,
          "internalType": "uint256",
          "name": "tokenId",
          "type": "uint256"
        }
      ],
      "name": "Transfer",
      "type": "event"
    },
    {
      "inputs": [
        {
          "internalType": "address",
          "name": "to",
          "type": "address"
        },
        {
          "internalType": "uint256",
          "name": "tokenId",
          "type": "uint256"
        }
      ],
      "name": "approve",
      "outputs": [],
      "stateMutability": "nonpayable",
      "type": "function"
    },
    {
      "inputs": [],
      "name": "artist",
      "outputs": [
        {
          "internalType": "address",
          "name": "",
          "type": "address"
        }
      ],
      "stateMutability": "view",
      "type": "function"
    },
    {
      "inputs": [
        {
          "internalType": "address",
          "name": "owner",
          "type": "address"
        }
      ],
      "name": "balanceOf",
      "outputs": [
        {
          "internalType": "uint256",
          "name": "",
          "type": "uint256"
        }
      ],
      "stateMutability": "view",
      "type": "function"
    },
    {
      "inputs": [
        {
          "internalType": "uint256",
          "name": "tokenId",
          "type": "uint256"
        }
      ],
      "name": "getApproved",
      "outputs": [
        {
          "internalType": "address",
          "name": "",
          "type": "address"
        }
      ],
      "stateMutability": "view",
      "type": "function"
    },
    {
      "inputs": [
        {
          "internalType": "address",
          "name": "owner",
          "type": "address"
        },
        {
          "internalType": "address",
          "name": "operator",
          "type": "address"
        }
      ],
      "name": "isApprovedForAll",
      "outputs": [
        {
          "internalType": "bool",
          "name": "",
          "type": "bool"
        }
      ],
      "stateMutability": "view",
      "type": "function"
    },
    {
      "inputs": [
        {
          "internalType": "address",
          "name": "to",
          "type": "address"
        },
        {
          "internalType": "string",
          "name": "uri",
          "type": "string"
        }
      ],
      "name": "mint",
      "outputs": [],
      "stateMutability": "nonpayable",
      "type": "function"
    },
    {
      "inputs": [],
      "name": "name",
      "outputs": [
        {
          "internalType": "string",
          "name": "",
          "type": "string"
        }
      ],
      "stateMutability": "view",
      "type": "function"
    },
    {
      "inputs": [
        {
          "internalType": "uint256",
          "name": "tokenId",
          "type": "uint256"
        }
      ],
      "name": "ownerOf",
      "outputs": [
        {
          "internalType": "address",
          "name": "",
          "type": "address"
        }
      ],
      "stateMutability": "view",
      "type": "function"
    },
    {
      "inputs": [
        {
          "internalType": "uint256",
          "name": "",
          "type": "uint256"
        },
        {
          "internalType": "uint256",
          "name": "salePrice",
          "type": "uint256"
        }
      ],
      "name": "royaltyInfo",
      "outputs": [
        {
          "internalType": "address",
          "name": "",
          "type": "address"
        },
        {
          "internalType": "uint256",
          "name": "",
          "type": "uint256"
        }
      ],
      "stateMutability": "view",
      "type": "function"
    },
    {
      "inputs": [
        {
          "internalType": "address",
          "name": "from",
          "type": "address"
        },
        {
          "internalType": "address",
          "name": "to",
          "type": "address"
        },
        {
          "internalType": "uint256",
          "name": "tokenId",
          "type": "uint256"
        }
      ],
      "name": "safeTransferFrom",
      "outputs": [],
      "stateMutability": "nonpayable",
      "type": "function"
    },
    {
      "inputs": [
        {
          "internalType": "address",
          "name": "from",
          "type": "address"
        },
        {
          "internalType": "address",
          "name": "to",
          "type": "address"
        },
        {
          "internalType": "uint256",
          "name": "tokenId",
          "type": "uint256"
        },
        {
          "internalType": "bytes",
          "name": "data",
          "type": "bytes"
        }
      ],
      "name": "safeTransferFrom",
      "outputs": [],
      "stateMutability": "nonpayable",
      "type": "function"
    },
    {
      "inputs": [
        {
          "internalType": "address",
          "name": "operator",
          "type": "address"
        },
        {
          "internalType": "bool",
          "name": "approved",
          "type": "bool"
        }
      ],
      "name": "setApprovalForAll",
      "outputs": [],
      "stateMutability": "nonpayable",
      "type": "function"
    },
    {
      "inputs": [
        {
          "internalType": "bytes4",
          "name": "interfaceId",
          "type": "bytes4"
        }
      ],
      "name": "supportsInterface",
      "outputs": [
        {
          "internalType": "bool",
          "name": "",
          "type": "bool"
        }
      ],
      "stateMutability": "view",
      "type": "function"
    },
    {
      "inputs": [],
      "name": "symbol",
      "outputs": [
        {
          "internalType": "string",
          "name": "",
          "type": "string"
        }
      ],
      "stateMutability": "view",
      "type": "function"
    },
    {
      "inputs": [
        {
          "internalType": "uint256",
          "name": "tokenId",
          "type": "uint256"
        }
      ],
      "name": "tokenURI",
      "outputs": [
        {
          "internalType": "string",
          "name": "",
          "type": "string"
        }
      ],
      "stateMutability": "view",
      "type": "function"
    },
    {
      "inputs": [
        {
          "internalType": "address",
          "name": "from",
          "type": "address"
        },
        {
          "internalType": "address",
          "name": "to",
          "type": "address"
        },
        {
          "internalType": "uint256",
          "name": "tokenId",
          "type": "uint256"
        }
      ],
      "name": "transferFrom",
      "outputs": [],
      "stateMutability": "nonpayable",
      "type": "function"
    },
    {
      "inputs": [
        {
          "internalType": "address",
          "name": "erc20",
          "type": "address"
        }
      ],
      "name": "withdrawERC20",
      "outputs": [],
      "stateMutability": "nonpayable",
      "type": "function"
    }
  ],
  "bytecode": "0x60a060405260016009553480156200001657600080fd5b5060405162001c7f38038062001c7f83398101604081905262000039916200018e565b60408051808201825260068152654c656761637960d01b6020808301918252835180850190945260038452624c454760e81b9084015281519192916200008291600091620000cb565b50805162000098906001906020840190620000cb565b5050506001600160a01b03928316608052600780546001600160a01b03191692909316919091179091556008556200020b565b828054620000d990620001cf565b90600052602060002090601f016020900481019282620000fd576000855562000148565b82601f106200011857805160ff191683800117855562000148565b8280016001018555821562000148579182015b82811115620001485782518255916020019190600101906200012b565b50620001569291506200015a565b5090565b5b808211156200015657600081556001016200015b565b80516001600160a01b03811681146200018957600080fd5b919050565b600080600060608486031215620001a457600080fd5b620001af8462000171565b9250620001bf6020850162000171565b9150604084015190509250925092565b600181811c90821680620001e457607f821691505b6020821081036200020557634e487b7160e01b600052602260045260246000fd5b50919050565b608051611a516200022e600039600081816108010152610a2a0152611a516000f3fe608060405234801561001057600080fd5b506004361061010b5760003560e01c80636352211e116100a2578063b88d4fde11610071578063b88d4fde14610247578063c87b56dd1461025a578063d0def5211461026d578063e985e9c514610280578063f4f3b2001461029357600080fd5b80636352211e146101f857806370a082311461020b57806395d89b411461022c578063a22cb4651461023457600080fd5b806323b872dd116100de57806323b872dd1461018d5780632a55205a146101a057806342842e0e146101d257806343bc1612146101e557600080fd5b806301ffc9a71461011057806306fdde0314610138578063081812fc1461014d578063095ea7b314610178575b600080fd5b61012361011e366004611442565b6102a6565b60405190151581526020015b60405180910390f35b6101406102f8565b60405161012f91906114b7565b61016061015b3660046114ca565b61038a565b6040516001600160a01b03909116815260200161012f565b61018b6101863660046114f8565b6103b1565b005b61018b61019b366004611524565b6104cb565b6101b36101ae366004611565565b6104fc565b604080516001600160a01b03909316835260208301919091520161012f565b61018b6101e0366004611524565b610524565b600754610160906001600160a01b031681565b6101606102063660046114ca565b61053f565b61021e610219366004611587565b61059f565b60405190815260200161012f565b610140610625565b61018b6102423660046115b2565b610634565b61018b610255366004611601565b610643565b6101406102683660046114ca565b61067b565b61018b61027b3660046116e1565b61078b565b61012361028e366004611766565b6107f3565b61018b6102a1366004611587565b610913565b60006001600160e01b031982166380ac58cd60e01b14806102d757506001600160e01b03198216635b5e139f60e01b145b806102f257506301ffc9a760e01b6001600160e01b03198316145b92915050565b60606000805461030790611794565b80601f016020809104026020016040519081016040528092919081815260200182805461033390611794565b80156103805780601f1061035557610100808354040283529160200191610380565b820191906000526020600020905b81548152906001019060200180831161036357829003601f168201915b5050505050905090565b600061039582610b2a565b506000908152600460205260409020546001600160a01b031690565b60006103bc8261053f565b9050806001600160a01b0316836001600160a01b03160361042e5760405162461bcd60e51b815260206004820152602160248201527f4552433732313a20617070726f76616c20746f2063757272656e74206f776e656044820152603960f91b60648201526084015b60405180910390fd5b336001600160a01b038216148061044a575061044a81336107f3565b6104bc5760405162461bcd60e51b815260206004820152603e60248201527f4552433732313a20617070726f76652063616c6c6572206973206e6f7420746f60448201527f6b656e206f776e6572206e6f7220617070726f76656420666f7220616c6c00006064820152608401610425565b6104c68383610b8c565b505050565b6104d53382610bfa565b6104f15760405162461bcd60e51b8152600401610425906117ce565b6104c6838383610c58565b6000803061271061050f6104b086611832565b6105199190611867565b915091509250929050565b6104c683838360405180602001604052806000815250610643565b6000818152600260205260408120546001600160a01b0316806102f25760405162461bcd60e51b8152602060048201526018602482015277115490cdcc8c4e881a5b9d985b1a59081d1bdad95b88125160421b6044820152606401610425565b60006001600160a01b0382166106095760405162461bcd60e51b815260206004820152602960248201527f4552433732313a2061646472657373207a65726f206973206e6f7420612076616044820152683634b21037bbb732b960b91b6064820152608401610425565b506001600160a01b031660009081526003602052604090205490565b60606001805461030790611794565b61063f338383610df4565b5050565b61064d3383610bfa565b6106695760405162461bcd60e51b8152600401610425906117ce565b61067584848484610ec2565b50505050565b606061068682610b2a565b6000828152600660205260408120805461069f90611794565b80601f01602080910402602001604051908101604052809291908181526020018280546106cb90611794565b80156107185780601f106106ed57610100808354040283529160200191610718565b820191906000526020600020905b8154815290600101906020018083116106fb57829003601f168201915b50505050509050600061073660408051602081019091526000815290565b90508051600003610748575092915050565b81511561077a57808260405160200161076292919061187b565b60405160208183030381529060405292505050919050565b61078384610ef5565b949350505050565b61079783600954610f68565b6107d960095483838080601f016020809104026020016040519081016040528093929190818152602001838380828437600092019190915250610f8292505050565b600980549060006107e9836118aa565b9190505550505050565b6000816001600160a01b03167f00000000000000000000000000000000000000000000000000000000000000006001600160a01b03166321f8a7216040516020016108579072616464726573732e6d61726b6574706c61636560681b815260130190565b604051602081830303815290604052805190602001206040518263ffffffff1660e01b815260040161088b91815260200190565b602060405180830381865afa1580156108a8573d6000803e3d6000fd5b505050506040513d601f19601f820116820180604052508101906108cc91906118c3565b6001600160a01b0316036108e2575060016102f2565b6001600160a01b0380841660009081526005602090815260408083209386168352929052205460ff165b9392505050565b6040516370a0823160e01b815230600482015281906000906001600160a01b038316906370a0823190602401602060405180830381865afa15801561095c573d6000803e3d6000fd5b505050506040513d601f19601f8201168201806040525081019061098091906118e0565b90506000612710600854836109959190611832565b61099f9190611867565b60075460405163a9059cbb60e01b81526001600160a01b0391821660048201526024810183905291925084169063a9059cbb906044016020604051808303816000875af11580156109f4573d6000803e3d6000fd5b505050506040513d601f19601f82011682018060405250810190610a1891906118f9565b50826001600160a01b031663a9059cbb7f00000000000000000000000000000000000000000000000000000000000000006001600160a01b0316634783c35b6040518163ffffffff1660e01b8152600401602060405180830381865afa158015610a86573d6000803e3d6000fd5b505050506040513d601f19601f82011682018060405250810190610aaa91906118c3565b610ab48486611916565b6040516001600160e01b031960e085901b1681526001600160a01b03909216600483015260248201526044016020604051808303816000875af1158015610aff573d6000803e3d6000fd5b505050506040513d601f19601f82011682018060405250810190610b2391906118f9565b5050505050565b6000818152600260205260409020546001600160a01b0316610b895760405162461bcd60e51b8152602060048201526018602482015277115490cdcc8c4e881a5b9d985b1a59081d1bdad95b88125160421b6044820152606401610425565b50565b600081815260046020526040902080546001600160a01b0319166001600160a01b0384169081179091558190610bc18261053f565b6001600160a01b03167f8c5be1e5ebec7d5bd14f71427d1e84f3dd0314c0f7b2291e5b200ac8c7c3b92560405160405180910390a45050565b600080610c068361053f565b9050806001600160a01b0316846001600160a01b03161480610c2d5750610c2d81856107f3565b806107835750836001600160a01b0316610c468461038a565b6001600160a01b031614949350505050565b826001600160a01b0316610c6b8261053f565b6001600160a01b031614610ccf5760405162461bcd60e51b815260206004820152602560248201527f4552433732313a207472616e736665722066726f6d20696e636f72726563742060448201526437bbb732b960d91b6064820152608401610425565b6001600160a01b038216610d315760405162461bcd60e51b8152602060048201526024808201527f4552433732313a207472616e7366657220746f20746865207a65726f206164646044820152637265737360e01b6064820152608401610425565b610d3c600082610b8c565b6001600160a01b0383166000908152600360205260408120805460019290610d65908490611916565b90915550506001600160a01b0382166000908152600360205260408120805460019290610d9390849061192d565b909155505060008181526002602052604080822080546001600160a01b0319166001600160a01b0386811691821790925591518493918716917fddf252ad1be2c89b69c2b068fc378daa952ba7f163c4a11628f55a4df523b3ef91a4505050565b816001600160a01b0316836001600160a01b031603610e555760405162461bcd60e51b815260206004820152601960248201527f4552433732313a20617070726f766520746f2063616c6c6572000000000000006044820152606401610425565b6001600160a01b03838116600081815260056020908152604080832094871680845294825291829020805460ff191686151590811790915591519182527f17307eab39ab6107e8899845ad3d59bd9653f200f220920489ca2b5937696c31910160405180910390a3505050565b610ecd848484610c58565b610ed98484848461101c565b6106755760405162461bcd60e51b815260040161042590611945565b6060610f0082610b2a565b6000610f1760408051602081019091526000815290565b90506000815111610f37576040518060200160405280600081525061090c565b80610f418461111d565b604051602001610f5292919061187b565b6040516020818303038152906040529392505050565b61063f82826040518060200160405280600081525061121e565b6000828152600260205260409020546001600160a01b0316610ffd5760405162461bcd60e51b815260206004820152602e60248201527f45524337323155524953746f726167653a2055524920736574206f66206e6f6e60448201526d32bc34b9ba32b73a103a37b5b2b760911b6064820152608401610425565b600082815260066020908152604090912082516104c692840190611393565b60006001600160a01b0384163b1561111257604051630a85bd0160e11b81526001600160a01b0385169063150b7a0290611060903390899088908890600401611997565b6020604051808303816000875af192505050801561109b575060408051601f3d908101601f19168201909252611098918101906119d4565b60015b6110f8573d8080156110c9576040519150601f19603f3d011682016040523d82523d6000602084013e6110ce565b606091505b5080516000036110f05760405162461bcd60e51b815260040161042590611945565b805181602001fd5b6001600160e01b031916630a85bd0160e11b149050610783565b506001949350505050565b6060816000036111445750506040805180820190915260018152600360fc1b602082015290565b8160005b811561116e5780611158816118aa565b91506111679050600a83611867565b9150611148565b60008167ffffffffffffffff811115611189576111896115eb565b6040519080825280601f01601f1916602001820160405280156111b3576020820181803683370190505b5090505b8415610783576111c8600183611916565b91506111d5600a866119f1565b6111e090603061192d565b60f81b8183815181106111f5576111f5611a05565b60200101906001600160f81b031916908160001a905350611217600a86611867565b94506111b7565b6112288383611251565b611235600084848461101c565b6104c65760405162461bcd60e51b815260040161042590611945565b6001600160a01b0382166112a75760405162461bcd60e51b815260206004820181905260248201527f4552433732313a206d696e7420746f20746865207a65726f20616464726573736044820152606401610425565b6000818152600260205260409020546001600160a01b03161561130c5760405162461bcd60e51b815260206004820152601c60248201527f4552433732313a20746f6b656e20616c7265616479206d696e746564000000006044820152606401610425565b6001600160a01b038216600090815260036020526040812080546001929061133590849061192d565b909155505060008181526002602052604080822080546001600160a01b0319166001600160a01b03861690811790915590518392907fddf252ad1be2c89b69c2b068fc378daa952ba7f163c4a11628f55a4df523b3ef908290a45050565b82805461139f90611794565b90600052602060002090601f0160209004810192826113c15760008555611407565b82601f106113da57805160ff1916838001178555611407565b82800160010185558215611407579182015b828111156114075782518255916020019190600101906113ec565b50611413929150611417565b5090565b5b808211156114135760008155600101611418565b6001600160e01b031981168114610b8957600080fd5b60006020828403121561145457600080fd5b813561090c8161142c565b60005b8381101561147a578181015183820152602001611462565b838111156106755750506000910152565b600081518084526114a381602086016020860161145f565b601f01601f19169290920160200192915050565b60208152600061090c602083018461148b565b6000602082840312156114dc57600080fd5b5035919050565b6001600160a01b0381168114610b8957600080fd5b6000806040838503121561150b57600080fd5b8235611516816114e3565b946020939093013593505050565b60008060006060848603121561153957600080fd5b8335611544816114e3565b92506020840135611554816114e3565b929592945050506040919091013590565b6000806040838503121561157857600080fd5b50508035926020909101359150565b60006020828403121561159957600080fd5b813561090c816114e3565b8015158114610b8957600080fd5b600080604083850312156115c557600080fd5b82356115d0816114e3565b915060208301356115e0816115a4565b809150509250929050565b634e487b7160e01b600052604160045260246000fd5b6000806000806080858703121561161757600080fd5b8435611622816114e3565b93506020850135611632816114e3565b925060408501359150606085013567ffffffffffffffff8082111561165657600080fd5b818701915087601f83011261166a57600080fd5b81358181111561167c5761167c6115eb565b604051601f8201601f19908116603f011681019083821181831017156116a4576116a46115eb565b816040528281528a60208487010111156116bd57600080fd5b82602086016020830137600060208483010152809550505050505092959194509250565b6000806000604084860312156116f657600080fd5b8335611701816114e3565b9250602084013567ffffffffffffffff8082111561171e57600080fd5b818601915086601f83011261173257600080fd5b81358181111561174157600080fd5b87602082850101111561175357600080fd5b6020830194508093505050509250925092565b6000806040838503121561177957600080fd5b8235611784816114e3565b915060208301356115e0816114e3565b600181811c908216806117a857607f821691505b6020821081036117c857634e487b7160e01b600052602260045260246000fd5b50919050565b6020808252602e908201527f4552433732313a2063616c6c6572206973206e6f7420746f6b656e206f776e6560408201526d1c881b9bdc88185c1c1c9bdd995960921b606082015260800190565b634e487b7160e01b600052601160045260246000fd5b600081600019048311821515161561184c5761184c61181c565b500290565b634e487b7160e01b600052601260045260246000fd5b60008261187657611876611851565b500490565b6000835161188d81846020880161145f565b8351908301906118a181836020880161145f565b01949350505050565b6000600182016118bc576118bc61181c565b5060010190565b6000602082840312156118d557600080fd5b815161090c816114e3565b6000602082840312156118f257600080fd5b5051919050565b60006020828403121561190b57600080fd5b815161090c816115a4565b6000828210156119285761192861181c565b500390565b600082198211156119405761194061181c565b500190565b60208082526032908201527f4552433732313a207472616e7366657220746f206e6f6e20455243373231526560408201527131b2b4bb32b91034b6b83632b6b2b73a32b960711b606082015260800190565b6001600160a01b03858116825284166020820152604081018390526080606082018190526000906119ca9083018461148b565b9695505050505050565b6000602082840312156119e657600080fd5b815161090c8161142c565b600082611a0057611a00611851565b500690565b634e487b7160e01b600052603260045260246000fdfea26469706673582212209970d7c9521272e06803957d64bae7003c852199fa3b02eb90ec906802a3339b64736f6c634300080e0033",
  "linkReferences": {},
  "deployedLinkReferences": {}
}