{
  "_format": "hh-sol-artifact-1",
  "contractName": "SageToken",
  "sourceName": "contracts/Utils/SageToken.sol",
  "abi": [
    {
      "inputs": [
        {
          "internalType": "string",
          "name": "name_",
          "type": "string"
        },
        {
          "internalType": "string",
          "name": "symbol_",
          "type": "string"
        },
        {
          "internalType": "uint256",
          "name": "supply_",
          "type": "uint256"
        },
        {
          "internalType": "address",
          "name": "owner_",
          "type": "address"
        },
        {
          "internalType": "address",
          "name": "treasury_",
          "type": "address"
        },
        {
          "internalType": "uint256",
          "name": "buyFeeBps_",
          "type": "uint256"
        },
        {
          "internalType": "uint256",
          "name": "sellFeeBps_",
          "type": "uint256"
        }
      ],
      "stateMutability": "nonpayable",
      "type": "constructor"
    },
    {
      "anonymous": false,
      "inputs": [
        {
          "indexed": true,
          "internalType": "address",
          "name": "pair",
          "type": "address"
        },
        {
          "indexed": false,
          "internalType": "bool",
          "name": "isPair",
          "type": "bool"
        }
      ],
      "name": "AMMPairSet",
      "type": "event"
    },
    {
      "anonymous": false,
      "inputs": [
        {
          "indexed": true,
          "internalType": "address",
          "name": "owner",
          "type": "address"
        },
        {
          "indexed": true,
          "internalType": "address",
          "name": "spender",
          "type": "address"
        },
        {
          "indexed": false,
          "internalType": "uint256",
          "name": "value",
          "type": "uint256"
        }
      ],
      "name": "Approval",
      "type": "event"
    },
    {
      "anonymous": false,
      "inputs": [
        {
          "indexed": true,
          "internalType": "address",
          "name": "account",
          "type": "address"
        },
        {
          "indexed": false,
          "internalType": "bool",
          "name": "exempt",
          "type": "bool"
        }
      ],
      "name": "FeeExemptSet",
      "type": "event"
    },
    {
      "anonymous": false,
      "inputs": [
        {
          "indexed": false,
          "internalType": "uint256",
          "name": "buyFeeBps",
          "type": "uint256"
        },
        {
          "indexed": false,
          "internalType": "uint256",
          "name": "sellFeeBps",
          "type": "uint256"
        }
      ],
      "name": "FeesSet",
      "type": "event"
    },
    {
      "anonymous": false,
      "inputs": [
        {
          "indexed": true,
          "internalType": "address",
          "name": "previousOwner",
          "type": "address"
        },
        {
          "indexed": true,
          "internalType": "address",
          "name": "newOwner",
          "type": "address"
        }
      ],
      "name": "OwnershipTransferred",
      "type": "event"
    },
    {
      "anonymous": false,
      "inputs": [
        {
          "indexed": true,
          "internalType": "address",
          "name": "from",
          "type": "address"
        },
        {
          "indexed": true,
          "internalType": "address",
          "name": "to",
          "type": "address"
        },
        {
          "indexed": false,
          "internalType": "uint256",
          "name": "value",
          "type": "uint256"
        }
      ],
      "name": "Transfer",
      "type": "event"
    },
    {
      "anonymous": false,
      "inputs": [
        {
          "indexed": true,
          "internalType": "address",
          "name": "treasury",
          "type": "address"
        }
      ],
      "name": "TreasurySet",
      "type": "event"
    },
    {
      "inputs": [],
      "name": "MAX_FEE",
      "outputs": [
        {
          "internalType": "uint256",
          "name": "",
          "type": "uint256"
        }
      ],
      "stateMutability": "view",
      "type": "function"
    },
    {
      "inputs": [
        {
          "internalType": "address",
          "name": "owner",
          "type": "address"
        },
        {
          "internalType": "address",
          "name": "spender",
          "type": "address"
        }
      ],
      "name": "allowance",
      "outputs": [
        {
          "internalType": "uint256",
          "name": "",
          "type": "uint256"
        }
      ],
      "stateMutability": "view",
      "type": "function"
    },
    {
      "inputs": [
        {
          "internalType": "address",
          "name": "spender",
          "type": "address"
        },
        {
          "internalType": "uint256",
          "name": "amount",
          "type": "uint256"
        }
      ],
      "name": "approve",
      "outputs": [
        {
          "internalType": "bool",
          "name": "",
          "type": "bool"
        }
      ],
      "stateMutability": "nonpayable",
      "type": "function"
    },
    {
      "inputs": [
        {
          "internalType": "address",
          "name": "account",
          "type": "address"
        }
      ],
      "name": "balanceOf",
      "outputs": [
        {
          "internalType": "uint256",
          "name": "",
          "type": "uint256"
        }
      ],
      "stateMutability": "view",
      "type": "function"
    },
    {
      "inputs": [],
      "name": "buyFeeBps",
      "outputs": [
        {
          "internalType": "uint256",
          "name": "",
          "type": "uint256"
        }
      ],
      "stateMutability": "view",
      "type": "function"
    },
    {
      "inputs": [],
      "name": "decimals",
      "outputs": [
        {
          "internalType": "uint8",
          "name": "",
          "type": "uint8"
        }
      ],
      "stateMutability": "view",
      "type": "function"
    },
    {
      "inputs": [
        {
          "internalType": "address",
          "name": "spender",
          "type": "address"
        },
        {
          "internalType": "uint256",
          "name": "subtractedValue",
          "type": "uint256"
        }
      ],
      "name": "decreaseAllowance",
      "outputs": [
        {
          "internalType": "bool",
          "name": "",
          "type": "bool"
        }
      ],
      "stateMutability": "nonpayable",
      "type": "function"
    },
    {
      "inputs": [
        {
          "internalType": "address",
          "name": "spender",
          "type": "address"
        },
        {
          "internalType": "uint256",
          "name": "addedValue",
          "type": "uint256"
        }
      ],
      "name": "increaseAllowance",
      "outputs": [
        {
          "internalType": "bool",
          "name": "",
          "type": "bool"
        }
      ],
      "stateMutability": "nonpayable",
      "type": "function"
    },
    {
      "inputs": [
        {
          "internalType": "address",
          "name": "",
          "type": "address"
        }
      ],
      "name": "isAMMPair",
      "outputs": [
        {
          "internalType": "bool",
          "name": "",
          "type": "bool"
        }
      ],
      "stateMutability": "view",
      "type": "function"
    },
    {
      "inputs": [
        {
          "internalType": "address",
          "name": "",
          "type": "address"
        }
      ],
      "name": "isFeeExempt",
      "outputs": [
        {
          "internalType": "bool",
          "name": "",
          "type": "bool"
        }
      ],
      "stateMutability": "view",
      "type": "function"
    },
    {
      "inputs": [],
      "name": "name",
      "outputs": [
        {
          "internalType": "string",
          "name": "",
          "type": "string"
        }
      ],
      "stateMutability": "view",
      "type": "function"
    },
    {
      "inputs": [],
      "name": "owner",
      "outputs": [
        {
          "internalType": "address",
          "name": "",
          "type": "address"
        }
      ],
      "stateMutability": "view",
      "type": "function"
    },
    {
      "inputs": [],
      "name": "renounceOwnership",
      "outputs": [],
      "stateMutability": "nonpayable",
      "type": "function"
    },
    {
      "inputs": [],
      "name": "sellFeeBps",
      "outputs": [
        {
          "internalType": "uint256",
          "name": "",
          "type": "uint256"
        }
      ],
      "stateMutability": "view",
      "type": "function"
    },
    {
      "inputs": [
        {
          "internalType": "address",
          "name": "pair",
          "type": "address"
        },
        {
          "internalType": "bool",
          "name": "isPair",
          "type": "bool"
        }
      ],
      "name": "setAMMPair",
      "outputs": [],
      "stateMutability": "nonpayable",
      "type": "function"
    },
    {
      "inputs": [
        {
          "internalType": "address",
          "name": "account",
          "type": "address"
        },
        {
          "internalType": "bool",
          "name": "exempt",
          "type": "bool"
        }
      ],
      "name": "setFeeExempt",
      "outputs": [],
      "stateMutability": "nonpayable",
      "type": "function"
    },
    {
      "inputs": [
        {
          "internalType": "uint256",
          "name": "buyFeeBps_",
          "type": "uint256"
        },
        {
          "internalType": "uint256",
          "name": "sellFeeBps_",
          "type": "uint256"
        }
      ],
      "name": "setFees",
      "outputs": [],
      "stateMutability": "nonpayable",
      "type": "function"
    },
    {
      "inputs": [
        {
          "internalType": "address",
          "name": "treasury_",
          "type": "address"
        }
      ],
      "name": "setTreasury",
      "outputs": [],
      "stateMutability": "nonpayable",
      "type": "function"
    },
    {
      "inputs": [],
      "name": "symbol",
      "outputs": [
        {
          "internalType": "string",
          "name": "",
          "type": "string"
        }
      ],
      "stateMutability": "view",
      "type": "function"
    },
    {
      "inputs": [],
      "name": "totalSupply",
      "outputs": [
        {
          "internalType": "uint256",
          "name": "",
          "type": "uint256"
        }
      ],
      "stateMutability": "view",
      "type": "function"
    },
    {
      "inputs": [
        {
          "internalType": "address",
          "name": "to",
          "type": "address"
        },
        {
          "internalType": "uint256",
          "name": "amount",
          "type": "uint256"
        }
      ],
      "name": "transfer",
      "outputs": [
        {
          "internalType": "bool",
          "name": "",
          "type": "bool"
        }
      ],
      "stateMutability": "nonpayable",
      "type": "function"
    },
    {
      "inputs": [
        {
          "internalType": "address",
          "name": "from",
          "type": "address"
        },
        {
          "internalType": "address",
          "name": "to",
          "type": "address"
        },
        {
          "internalType": "uint256",
          "name": "amount",
          "type": "uint256"
        }
      ],
      "name": "transferFrom",
      "outputs": [
        {
          "internalType": "bool",
          "name": "",
          "type": "bool"
        }
      ],
      "stateMutability": "nonpayable",
      "type": "function"
    },
    {
      "inputs": [
        {
          "internalType": "address",
          "name": "newOwner",
          "type": "address"
        }
      ],
      "name": "transferOwnership",
      "outputs": [],
      "stateMutability": "nonpayable",
      "type": "function"
    },
    {
      "inputs": [],
      "name": "treasury",
      "outputs": [
        {
          "internalType": "address",
          "name": "",
          "type": "address"
        }
      ],
      "stateMutability": "view",
      "type": "function"
    }
  ],
  "bytecode": "0x60806040523480156200001157600080fd5b506040516200169d3803806200169d8339810160408190526200003491620004cc565b8651879087906200004d9060039060208501906200033c565b508051620000639060049060208401906200033c565b505050620000806200007a6200020160201b60201c565b62000205565b6001600160a01b038416620000c65760405162461bcd60e51b815260206004820152600760248201526606f776e65723d360cc1b60448201526064015b60405180910390fd5b6001600160a01b0383166200010b5760405162461bcd60e51b815260206004820152600a602482015269074726561737572793d360b41b6044820152606401620000bd565b606482111580156200011e575060648111155b620001565760405162461bcd60e51b81526020600482015260076024820152660cccaca7cdac2f60cb1b6044820152606401620000bd565b60068290556007819055600880546001600160a01b0319166001600160a01b038581169182179092559085166000908152600a6020526040808220805460ff199081166001908117909255938352818320805485168217905530835291208054909216179055620001e984620001ca601290565b620001d790600a6200068d565b620001e39088620006a5565b62000257565b620001f48462000205565b505050505050506200071e565b3390565b600580546001600160a01b038381166001600160a01b0319831681179093556040519116919082907f8be0079c531659141344cd1fd0a4f28419497f9722a3daafe3b4186f6b6457e090600090a35050565b6001600160a01b038216620002af5760405162461bcd60e51b815260206004820152601f60248201527f45524332303a206d696e7420746f20746865207a65726f2061646472657373006044820152606401620000bd565b8060026000828254620002c39190620006c7565b90915550506001600160a01b03821660009081526020819052604081208054839290620002f2908490620006c7565b90915550506040518181526001600160a01b038316906000907fddf252ad1be2c89b69c2b068fc378daa952ba7f163c4a11628f55a4df523b3ef9060200160405180910390a35050565b8280546200034a90620006e2565b90600052602060002090601f0160209004810192826200036e5760008555620003b9565b82601f106200038957805160ff1916838001178555620003b9565b82800160010185558215620003b9579182015b82811115620003b95782518255916020019190600101906200039c565b50620003c7929150620003cb565b5090565b5b80821115620003c75760008155600101620003cc565b634e487b7160e01b600052604160045260246000fd5b600082601f8301126200040a57600080fd5b81516001600160401b0380821115620004275762000427620003e2565b604051601f8301601f19908116603f01168101908282118183101715620004525762000452620003e2565b816040528381526020925086838588010111156200046f57600080fd5b600091505b8382101562000493578582018301518183018401529082019062000474565b83821115620004a55760008385830101525b9695505050505050565b80516001600160a01b0381168114620004c757600080fd5b919050565b600080600080600080600060e0888a031215620004e857600080fd5b87516001600160401b03808211156200050057600080fd5b6200050e8b838c01620003f8565b985060208a01519150808211156200052557600080fd5b50620005348a828b01620003f8565b965050604088015194506200054c60608901620004af565b93506200055c60808901620004af565b925060a0880151915060c0880151905092959891949750929550565b634e487b7160e01b600052601160045260246000fd5b600181815b80851115620005cf578160001904821115620005b357620005b362000578565b80851615620005c157918102915b93841c939080029062000593565b509250929050565b600082620005e85750600162000687565b81620005f75750600062000687565b81600181146200061057600281146200061b576200063b565b600191505062000687565b60ff8411156200062f576200062f62000578565b50506001821b62000687565b5060208310610133831016604e8410600b841016171562000660575081810a62000687565b6200066c83836200058e565b806000190482111562000683576200068362000578565b0290505b92915050565b60006200069e60ff841683620005d7565b9392505050565b6000816000190483118215151615620006c257620006c262000578565b500290565b60008219821115620006dd57620006dd62000578565b500190565b600181811c90821680620006f757607f821691505b6020821081036200071857634e487b7160e01b600052602260045260246000fd5b50919050565b610f6f806200072e6000396000f3fe608060405234801561001057600080fd5b50600436106101585760003560e01c8063715018a6116100c3578063a9059cbb1161007c578063a9059cbb146102dd578063b0249cc6146102f0578063bc063e1a14610313578063dd62ed3e1461031b578063f0f442601461032e578063f2fde38b1461034157600080fd5b8063715018a61461028d57806377d2300e146102955780638da5cb5b1461029e5780638ebfc796146102af57806395d89b41146102c2578063a457c2d7146102ca57600080fd5b80632d99d32e116101155780632d99d32e146101e1578063313ce567146101f457806339509351146102035780633f4218e01461021657806361d027b31461023957806370a082311461026457600080fd5b806306fdde031461015d578063095ea7b31461017b5780630b78f9c01461019e57806318160ddd146101b357806323b872dd146101c557806323cbe1f3146101d8575b600080fd5b610165610354565b6040516101729190610cef565b60405180910390f35b61018e610189366004610d60565b6103e6565b6040519015158152602001610172565b6101b16101ac366004610d8a565b6103fe565b005b6002545b604051908152602001610172565b61018e6101d3366004610dac565b61049a565b6101b760075481565b6101b16101ef366004610de8565b6104be565b60405160128152602001610172565b61018e610211366004610d60565b610565565b61018e610224366004610e24565b600a6020526000908152604090205460ff1681565b60085461024c906001600160a01b031681565b6040516001600160a01b039091168152602001610172565b6101b7610272366004610e24565b6001600160a01b031660009081526020819052604090205490565b6101b1610587565b6101b760065481565b6005546001600160a01b031661024c565b6101b16102bd366004610de8565b61059b565b6101656105fb565b61018e6102d8366004610d60565b61060a565b61018e6102eb366004610d60565b610685565b61018e6102fe366004610e24565b60096020526000908152604090205460ff1681565b6101b7606481565b6101b7610329366004610e46565b610693565b6101b161033c366004610e24565b6106be565b6101b161034f366004610e24565b610753565b60606003805461036390610e79565b80601f016020809104026020016040519081016040528092919081815260200182805461038f90610e79565b80156103dc5780601f106103b1576101008083540402835291602001916103dc565b820191906000526020600020905b8154815290600101906020018083116103bf57829003601f168201915b5050505050905090565b6000336103f48185856107cc565b5060019392505050565b6104066108f0565b60648211158015610418575060648111155b6104535760405162461bcd60e51b81526020600482015260076024820152660cccaca7cdac2f60cb1b60448201526064015b60405180910390fd5b6006829055600781905560408051838152602081018390527f93525d3c7f4fafe56faedbca6d501a13c63f47857d8b30d8282ec2dd806259a7910160405180910390a15050565b6000336104a885828561094a565b6104b38585856109c4565b506001949350505050565b6104c66108f0565b6001600160a01b0382166105055760405162461bcd60e51b81526020600482015260066024820152650706169723d360d41b604482015260640161044a565b6001600160a01b038216600081815260096020908152604091829020805460ff191685151590811790915591519182527ff9f3066792ece7dadd967a9482836e4b52c2f9d93bb1a3db2e245bbee91db83291015b60405180910390a25050565b6000336103f48185856105788383610693565b6105829190610ec9565b6107cc565b61058f6108f0565b6105996000610acf565b565b6105a36108f0565b6001600160a01b0382166000818152600a6020908152604091829020805460ff191685151590811790915591519182527f5a8cf666a272afd6dec6788d33967c676fffa92e289eee1b38172982c4b4914d9101610559565b60606004805461036390610e79565b600033816106188286610693565b9050838110156106785760405162461bcd60e51b815260206004820152602560248201527f45524332303a2064656372656173656420616c6c6f77616e63652062656c6f77604482015264207a65726f60d81b606482015260840161044a565b6104b382868684036107cc565b6000336103f48185856109c4565b6001600160a01b03918216600090815260016020908152604080832093909416825291909152205490565b6106c66108f0565b6001600160a01b0381166107095760405162461bcd60e51b815260206004820152600a602482015269074726561737572793d360b41b604482015260640161044a565b600880546001600160a01b0319166001600160a01b0383169081179091556040517f3c864541ef71378c6229510ed90f376565ee42d9c5e0904a984a9e863e6db44f90600090a250565b61075b6108f0565b6001600160a01b0381166107c05760405162461bcd60e51b815260206004820152602660248201527f4f776e61626c653a206e6577206f776e657220697320746865207a65726f206160448201526564647265737360d01b606482015260840161044a565b6107c981610acf565b50565b6001600160a01b03831661082e5760405162461bcd60e51b8152602060048201526024808201527f45524332303a20617070726f76652066726f6d20746865207a65726f206164646044820152637265737360e01b606482015260840161044a565b6001600160a01b03821661088f5760405162461bcd60e51b815260206004820152602260248201527f45524332303a20617070726f766520746f20746865207a65726f206164647265604482015261737360f01b606482015260840161044a565b6001600160a01b0383811660008181526001602090815260408083209487168084529482529182902085905590518481527f8c5be1e5ebec7d5bd14f71427d1e84f3dd0314c0f7b2291e5b200ac8c7c3b925910160405180910390a3505050565b6005546001600160a01b031633146105995760405162461bcd60e51b815260206004820181905260248201527f4f776e61626c653a2063616c6c6572206973206e6f7420746865206f776e6572604482015260640161044a565b60006109568484610693565b905060001981146109be57818110156109b15760405162461bcd60e51b815260206004820152601d60248201527f45524332303a20696e73756666696369656e7420616c6c6f77616e6365000000604482015260640161044a565b6109be84848484036107cc565b50505050565b6001600160a01b0383166000908152600a602052604081205460ff16158015610a0657506001600160a01b0383166000908152600a602052604090205460ff16155b15610a8d576001600160a01b03841660009081526009602052604090205460ff1615610a4e5761271060065483610a3d9190610ee1565b610a479190610f00565b9050610a8d565b6001600160a01b03831660009081526009602052604090205460ff1615610a8d5761271060075483610a809190610ee1565b610a8a9190610f00565b90505b8015610ac457600854610aab9085906001600160a01b031683610b21565b610abf8484610aba8486610f22565b610b21565b6109be565b6109be848484610b21565b600580546001600160a01b038381166001600160a01b0319831681179093556040519116919082907f8be0079c531659141344cd1fd0a4f28419497f9722a3daafe3b4186f6b6457e090600090a35050565b6001600160a01b038316610b855760405162461bcd60e51b815260206004820152602560248201527f45524332303a207472616e736665722066726f6d20746865207a65726f206164604482015264647265737360d81b606482015260840161044a565b6001600160a01b038216610be75760405162461bcd60e51b815260206004820152602360248201527f45524332303a207472616e7366657220746f20746865207a65726f206164647260448201526265737360e81b606482015260840161044a565b6001600160a01b03831660009081526020819052604090205481811015610c5f5760405162461bcd60e51b815260206004820152602660248201527f45524332303a207472616e7366657220616d6f756e7420657863656564732062604482015265616c616e636560d01b606482015260840161044a565b6001600160a01b03808516600090815260208190526040808220858503905591851681529081208054849290610c96908490610ec9565b92505081905550826001600160a01b0316846001600160a01b03167fddf252ad1be2c89b69c2b068fc378daa952ba7f163c4a11628f55a4df523b3ef84604051610ce291815260200190565b60405180910390a36109be565b600060208083528351808285015260005b81811015610d1c57858101830151858201604001528201610d00565b81811115610d2e576000604083870101525b50601f01601f1916929092016040019392505050565b80356001600160a01b0381168114610d5b57600080fd5b919050565b60008060408385031215610d7357600080fd5b610d7c83610d44565b946020939093013593505050565b60008060408385031215610d9d57600080fd5b50508035926020909101359150565b600080600060608486031215610dc157600080fd5b610dca84610d44565b9250610dd860208501610d44565b9150604084013590509250925092565b60008060408385031215610dfb57600080fd5b610e0483610d44565b915060208301358015158114610e1957600080fd5b809150509250929050565b600060208284031215610e3657600080fd5b610e3f82610d44565b9392505050565b60008060408385031215610e5957600080fd5b610e6283610d44565b9150610e7060208401610d44565b90509250929050565b600181811c90821680610e8d57607f821691505b602082108103610ead57634e487b7160e01b600052602260045260246000fd5b50919050565b634e487b7160e01b600052601160045260246000fd5b60008219821115610edc57610edc610eb3565b500190565b6000816000190483118215151615610efb57610efb610eb3565b500290565b600082610f1d57634e487b7160e01b600052601260045260246000fd5b500490565b600082821015610f3457610f34610eb3565b50039056fea2646970667358221220a5dd7781592ecf364a13ab199b62222b24ac9006eae8be236587673d6ada110264736f6c634300080e0033",
  "linkReferences": {},
  "deployedLinkReferences": {}
}