{
  "_format": "hh-sol-artifact-1",
  "contractName": "SageSwapRouter",
  "sourceName": "contracts/Social/SageSwapRouter.sol",
  "abi": [
    {
      "inputs": [
        {
          "internalType": "address",
          "name": "_curveFactory",
          "type": "address"
        },
        {
          "internalType": "address",
          "name": "_weth",
          "type": "address"
        },
        {
          "internalType": "address",
          "name": "_treasury",
          "type": "address"
        }
      ],
      "stateMutability": "nonpayable",
      "type": "constructor"
    },
    {
      "anonymous": false,
      "inputs": [
        {
          "indexed": true,
          "internalType": "address",
          "name": "token",
          "type": "address"
        },
        {
          "indexed": true,
          "internalType": "address",
          "name": "buyer",
          "type": "address"
        },
        {
          "indexed": false,
          "internalType": "uint256",
          "name": "ethIn",
          "type": "uint256"
        },
        {
          "indexed": false,
          "internalType": "uint256",
          "name": "tokensOut",
          "type": "uint256"
        },
        {
          "indexed": false,
          "internalType": "uint256",
          "name": "fee",
          "type": "uint256"
        },
        {
          "indexed": false,
          "internalType": "uint256",
          "name": "creatorFee",
          "type": "uint256"
        }
      ],
      "name": "Bought",
      "type": "event"
    },
    {
      "anonymous": false,
      "inputs": [
        {
          "indexed": true,
          "internalType": "address",
          "name": "token",
          "type": "address"
        },
        {
          "indexed": true,
          "internalType": "address",
          "name": "creator",
          "type": "address"
        },
        {
          "indexed": false,
          "internalType": "uint256",
          "name": "amount",
          "type": "uint256"
        }
      ],
      "name": "CreatorFeesClaimed",
      "type": "event"
    },
    {
      "anonymous": false,
      "inputs": [
        {
          "indexed": false,
          "internalType": "uint256",
          "name": "tier1",
          "type": "uint256"
        },
        {
          "indexed": false,
          "internalType": "uint256",
          "name": "tier2",
          "type": "uint256"
        }
      ],
      "name": "FeeTiersUpdated",
      "type": "event"
    },
    {
      "anonymous": false,
      "inputs": [
        {
          "indexed": true,
          "internalType": "address",
          "name": "token",
          "type": "address"
        },
        {
          "indexed": true,
          "internalType": "address",
          "name": "seller",
          "type": "address"
        },
        {
          "indexed": false,
          "internalType": "uint256",
          "name": "tokensIn",
          "type": "uint256"
        },
        {
          "indexed": false,
          "internalType": "uint256",
          "name": "ethOut",
          "type": "uint256"
        },
        {
          "indexed": false,
          "internalType": "uint256",
          "name": "fee",
          "type": "uint256"
        },
        {
          "indexed": false,
          "internalType": "uint256",
          "name": "creatorFee",
          "type": "uint256"
        }
      ],
      "name": "Sold",
      "type": "event"
    },
    {
      "inputs": [
        {
          "internalType": "address",
          "name": "token",
          "type": "address"
        },
        {
          "internalType": "uint256",
          "name": "minTokensOut",
          "type": "uint256"
        }
      ],
      "name": "buy",
      "outputs": [],
      "stateMutability": "payable",
      "type": "function"
    },
    {
      "inputs": [
        {
          "internalType": "address",
          "name": "token",
          "type": "address"
        }
      ],
      "name": "claimCreatorFees",
      "outputs": [],
      "stateMutability": "nonpayable",
      "type": "function"
    },
    {
      "inputs": [
        {
          "internalType": "address",
          "name": "",
          "type": "address"
        }
      ],
      "name": "creatorFees",
      "outputs": [
        {
          "internalType": "uint256",
          "name": "",
          "type": "uint256"
        }
      ],
      "stateMutability": "view",
      "type": "function"
    },
    {
      "inputs": [
        {
          "internalType": "address",
          "name": "",
          "type": "address"
        }
      ],
      "name": "creatorFeesLifetime",
      "outputs": [
        {
          "internalType": "uint256",
          "name": "",
          "type": "uint256"
        }
      ],
      "stateMutability": "view",
      "type": "function"
    },
    {
      "inputs": [],
      "name": "curveFactory",
      "outputs": [
        {
          "internalType": "contract ISocialTokenFactoryMin",
          "name": "",
          "type": "address"
        }
      ],
      "stateMutability": "view",
      "type": "function"
    },
    {
      "inputs": [
        {
          "internalType": "address",
          "name": "token",
          "type": "address"
        }
      ],
      "name": "feeBpsFor",
      "outputs": [
        {
          "internalType": "uint16",
          "name": "totalBps",
          "type": "uint16"
        },
        {
          "internalType": "uint16",
          "name": "creatorBps",
          "type": "uint16"
        }
      ],
      "stateMutability": "view",
      "type": "function"
    },
    {
      "inputs": [],
      "name": "feeTier1McapWei",
      "outputs": [
        {
          "internalType": "uint256",
          "name": "",
          "type": "uint256"
        }
      ],
      "stateMutability": "view",
      "type": "function"
    },
    {
      "inputs": [],
      "name": "feeTier2McapWei",
      "outputs": [
        {
          "internalType": "uint256",
          "name": "",
          "type": "uint256"
        }
      ],
      "stateMutability": "view",
      "type": "function"
    },
    {
      "inputs": [
        {
          "internalType": "address",
          "name": "token",
          "type": "address"
        }
      ],
      "name": "poolMcapWei",
      "outputs": [
        {
          "internalType": "uint256",
          "name": "",
          "type": "uint256"
        }
      ],
      "stateMutability": "view",
      "type": "function"
    },
    {
      "inputs": [
        {
          "internalType": "address",
          "name": "token",
          "type": "address"
        }
      ],
      "name": "poolPriceWei",
      "outputs": [
        {
          "internalType": "uint256",
          "name": "",
          "type": "uint256"
        }
      ],
      "stateMutability": "view",
      "type": "function"
    },
    {
      "inputs": [
        {
          "internalType": "address",
          "name": "token",
          "type": "address"
        },
        {
          "internalType": "uint256",
          "name": "ethIn",
          "type": "uint256"
        }
      ],
      "name": "quoteBuy",
      "outputs": [
        {
          "internalType": "uint256",
          "name": "",
          "type": "uint256"
        }
      ],
      "stateMutability": "view",
      "type": "function"
    },
    {
      "inputs": [
        {
          "internalType": "address",
          "name": "token",
          "type": "address"
        },
        {
          "internalType": "uint256",
          "name": "amountIn",
          "type": "uint256"
        },
        {
          "internalType": "uint256",
          "name": "minEthOut",
          "type": "uint256"
        }
      ],
      "name": "sell",
      "outputs": [],
      "stateMutability": "nonpayable",
      "type": "function"
    },
    {
      "inputs": [
        {
          "internalType": "uint256",
          "name": "tier1",
          "type": "uint256"
        },
        {
          "internalType": "uint256",
          "name": "tier2",
          "type": "uint256"
        }
      ],
      "name": "setFeeTiers",
      "outputs": [],
      "stateMutability": "nonpayable",
      "type": "function"
    },
    {
      "inputs": [],
      "name": "treasury",
      "outputs": [
        {
          "internalType": "address",
          "name": "",
          "type": "address"
        }
      ],
      "stateMutability": "view",
      "type": "function"
    },
    {
      "inputs": [],
      "name": "weth",
      "outputs": [
        {
          "internalType": "address",
          "name": "",
          "type": "address"
        }
      ],
      "stateMutability": "view",
      "type": "function"
    },
    {
      "stateMutability": "payable",
      "type": "receive"
    }
  ],
  "bytecode": "0x60e06040523480156200001157600080fd5b506040516200187e3803806200187e833981016040819052620000349162000102565b60016000556001600160a01b038316158015906200005a57506001600160a01b03821615155b80156200006f57506001600160a01b03811615155b620000ad5760405162461bcd60e51b815260206004820152600a60248201526962616420706172616d7360b01b604482015260640160405180910390fd5b6001600160a01b0392831660805290821660a0521660c0526804a97d605a3b980000600155680f810c1cb501b800006002556200014c565b80516001600160a01b0381168114620000fd57600080fd5b919050565b6000806000606084860312156200011857600080fd5b6200012384620000e5565b92506200013360208501620000e5565b91506200014360408501620000e5565b90509250925092565b60805160a05160c0516116ca620001b460003960008181610249015281816104c1015281816109640152610b6901526000818161018e0152818161080601528181610bef0152610c840152600081816102ea0152818161101d015261131001526116ca6000f3fe6080604052600436106100ec5760003560e01c806361d027b31161008a578063ae6836d611610059578063ae6836d6146102d8578063cce7ec131461030c578063d6ae6e441461031f578063fdf2e7511461033f57600080fd5b806361d027b3146102375780636a2724621461026b5780639016af091461028b578063a8825af1146102b857600080fd5b80633fc8cef3116100c65780633fc8cef31461017c578063413ec35e146101c85780634d2afb65146101f557806359db46f81461021557600080fd5b80630d7a94f6146100f85780632c10dc751461012b5780632fc1c4001461014157600080fd5b366100f357005b600080fd5b34801561010457600080fd5b506101186101133660046113a2565b610355565b6040519081526020015b60405180910390f35b34801561013757600080fd5b5061011860025481565b34801561014d57600080fd5b5061016161015c3660046113ce565b6103bc565b6040805161ffff938416815292909116602083015201610122565b34801561018857600080fd5b506101b07f000000000000000000000000000000000000000000000000000000000000000081565b6040516001600160a01b039091168152602001610122565b3480156101d457600080fd5b506101186101e33660046113ce565b60046020526000908152604090205481565b34801561020157600080fd5b506101186102103660046113ce565b610456565b34801561022157600080fd5b506102356102303660046113f2565b6104b6565b005b34801561024357600080fd5b506101b07f000000000000000000000000000000000000000000000000000000000000000081565b34801561027757600080fd5b50610235610286366004611414565b6105a6565b34801561029757600080fd5b506101186102a63660046113ce565b60036020526000908152604090205481565b3480156102c457600080fd5b506101186102d33660046113ce565b610a05565b3480156102e457600080fd5b506101b07f000000000000000000000000000000000000000000000000000000000000000081565b61023561031a3660046113a2565b610a3f565b34801561032b57600080fd5b5061023561033a3660046113ce565b610eaa565b34801561034b57600080fd5b5061011860015481565b600080610361846103bc565b509050600061271061037761ffff84168661145f565b610381919061147e565b905060008061039861039288610ffb565b886110d7565b90925090506103b16103aa84886114a0565b82846111ff565b979650505050505050565b6000806000806103d46103ce86610ffb565b866110d7565b9150915060008260001461041257826103f183633b9aca0061145f565b61040390670de0b6b3a764000061145f565b61040d919061147e565b610415565b60005b9050600254811061042f5750601495600c95509350505050565b60015481106104475750603295602395509350505050565b50605f95604195509350505050565b600080600061046d61046785610ffb565b856110d7565b9150915081600003610483575060009392505050565b8161049282633b9aca0061145f565b6104a490670de0b6b3a764000061145f565b6104ae919061147e565b949350505050565b336001600160a01b037f000000000000000000000000000000000000000000000000000000000000000016146105235760405162461bcd60e51b815260206004820152600d60248201526c6f6e6c7920747265617375727960981b60448201526064015b60405180910390fd5b80821061055f5760405162461bcd60e51b815260206004820152600a6024820152693a34b2b91037b93232b960b11b604482015260640161051a565b6001829055600281905560408051838152602081018390527fb6fcf03a7798207fe3d07cd63b04d4670bbb5da76d2fe3f4faa2282e8ced86d6910160405180910390a15050565b6002600054036105c85760405162461bcd60e51b815260040161051a906114b7565b6002600055816106065760405162461bcd60e51b81526020600482015260096024820152686e6f20746f6b656e7360b81b604482015260640161051a565b600061061184610ffb565b905060008061062083876110d7565b9150915060006106318684846111ff565b6040516323b872dd60e01b81523360048201526001600160a01b03868116602483015260448201899052919250908816906323b872dd906064016020604051808303816000875af115801561068a573d6000803e3d6000fd5b505050506040513d601f19601f820116820180604052508101906106ae91906114fe565b6106e85760405162461bcd60e51b815260206004820152600b60248201526a1c1d5b1b0819985a5b195960aa1b604482015260640161051a565b6000876001600160a01b0316856001600160a01b0316630dfe16816040518163ffffffff1660e01b8152600401602060405180830381865afa158015610732573d6000803e3d6000fd5b505050506040513d601f19601f820116820180604052508101906107569190611519565b6001600160a01b0316149050846001600160a01b031663022c0d9f8261077c578361077f565b60005b8361078b57600061078d565b845b604080516000815260208101918290526001600160e01b031960e086901b169091526107c0929190309060248101611536565b600060405180830381600087803b1580156107da57600080fd5b505af11580156107ee573d6000803e3d6000fd5b5050604051632e1a7d4d60e01b8152600481018590527f00000000000000000000000000000000000000000000000000000000000000006001600160a01b03169250632e1a7d4d9150602401600060405180830381600087803b15801561085457600080fd5b505af1158015610868573d6000803e3d6000fd5b505050506000806108788a6103bc565b9092509050600061271061089061ffff85168761145f565b61089a919061147e565b905060006127106108af61ffff85168861145f565b6108b9919061147e565b905060006108c783886114a0565b90508a8110156109045760405162461bcd60e51b8152602060048201526008602482015267736c69707061676560c01b604482015260640161051a565b6001600160a01b038d166000908152600360205260408120805484929061092c9084906115a9565b90915550506001600160a01b038d16600090815260046020526040812080548492906109599084906115a9565b9091555061099290507f000000000000000000000000000000000000000000000000000000000000000061098d84866114a0565b611244565b61099c3382611244565b604080518d8152602081018390529081018490526060810183905233906001600160a01b038f16907f89bc96e242cf3b1e6040a8f5123c29dbf1e48d876ded5856f1668191a8a7658e9060800160405180910390a3505060016000555050505050505050505050565b6000806000610a1661046785610ffb565b9150915081600003610a2c575060009392505050565b816104a482670de0b6b3a764000061145f565b600260005403610a615760405162461bcd60e51b815260040161051a906114b7565b600260005534610a9c5760405162461bcd60e51b81526020600482015260066024820152650dcde40cae8d60d31b604482015260640161051a565b6000610aa783610ffb565b9050600080610ab5856103bc565b90925090506000612710610acd61ffff85163461145f565b610ad7919061147e565b90506000612710610aec61ffff85163461145f565b610af6919061147e565b90506000610b0483346114a0565b6001600160a01b038916600090815260036020526040812080549293508492909190610b319084906115a9565b90915550506001600160a01b03881660009081526004602052604081208054849290610b5e9084906115a9565b90915550610b9290507f000000000000000000000000000000000000000000000000000000000000000061098d84866114a0565b600080610b9f888b6110d7565b915091506000610bb08483856111ff565b905089811015610bed5760405162461bcd60e51b8152602060048201526008602482015267736c69707061676560c01b604482015260640161051a565b7f00000000000000000000000000000000000000000000000000000000000000006001600160a01b031663d0e30db0856040518263ffffffff1660e01b81526004016000604051808303818588803b158015610c4857600080fd5b505af1158015610c5c573d6000803e3d6000fd5b505060405163a9059cbb60e01b81526001600160a01b038d81166004830152602482018990527f000000000000000000000000000000000000000000000000000000000000000016935063a9059cbb925060440190506020604051808303816000875af1158015610cd1573d6000803e3d6000fd5b505050506040513d601f19601f82011682018060405250810190610cf591906114fe565b610d385760405162461bcd60e51b81526020600482015260146024820152731dd95d1a081d1c985b9cd9995c8819985a5b195960621b604482015260640161051a565b60008b6001600160a01b03168a6001600160a01b0316630dfe16816040518163ffffffff1660e01b8152600401602060405180830381865afa158015610d82573d6000803e3d6000fd5b505050506040513d601f19601f82011682018060405250810190610da69190611519565b6001600160a01b0316149050896001600160a01b031663022c0d9f82610dcd576000610dcf565b835b83610dda5784610ddd565b60005b604080516000815260208101918290526001600160e01b031960e086901b16909152610e10929190339060248101611536565b600060405180830381600087803b158015610e2a57600080fd5b505af1158015610e3e573d6000803e3d6000fd5b505060408051888152602081018690529081018a9052606081018990523392506001600160a01b038f1691507f2683a506cc521e11c368ce9c068585a91786a3cb7ab4089b602eb2835acb16399060800160405180910390a35050600160005550505050505050505050565b600260005403610ecc5760405162461bcd60e51b815260040161051a906114b7565b60026000908155610edc826112ee565b9050336001600160a01b03821614610f285760405162461bcd60e51b815260206004820152600f60248201526e3737ba103a34329031b932b0ba37b960891b604482015260640161051a565b6001600160a01b03821660009081526003602052604090205480610f815760405162461bcd60e51b815260206004820152601060248201526f6e6f7468696e6720746f20636c61696d60801b604482015260640161051a565b6001600160a01b038316600090815260036020526040812055610fa48282611244565b816001600160a01b0316836001600160a01b03167faa4ecfd5324d73e3b54d038b3ae8ac8f88866d49dc334dc1f02fe36e0f93574883604051610fe991815260200190565b60405180910390a35050600160005550565b60405163a7465bdb60e01b81526001600160a01b0382811660048301526000917f00000000000000000000000000000000000000000000000000000000000000009091169063a7465bdb90602401602060405180830381865afa158015611066573d6000803e3d6000fd5b505050506040513d601f19601f8201168201806040525081019061108a9190611519565b90506001600160a01b0381166110d25760405162461bcd60e51b815260206004820152600d60248201526c1b9bdd0819dc98591d585d1959609a1b604482015260640161051a565b919050565b600080600080856001600160a01b0316630902f1ac6040518163ffffffff1660e01b8152600401606060405180830381865afa15801561111b573d6000803e3d6000fd5b505050506040513d601f19601f8201168201806040525081019061113f91906115d8565b50915091506000856001600160a01b0316876001600160a01b0316630dfe16816040518163ffffffff1660e01b8152600401602060405180830381865afa15801561118e573d6000803e3d6000fd5b505050506040513d601f19601f820116820180604052508101906111b29190611519565b6001600160a01b0316149050806111dc57816001600160701b0316836001600160701b03166111f1565b826001600160701b0316826001600160701b03165b909890975095505050505050565b60008061120e856103e561145f565b90508061121d856103e861145f565b61122791906115a9565b611231848361145f565b61123b919061147e565b95945050505050565b80600003611250575050565b6000826001600160a01b03168260405160006040518083038185875af1925050503d806000811461129d576040519150601f19603f3d011682016040523d82523d6000602084013e6112a2565b606091505b50509050806112e95760405162461bcd60e51b8152602060048201526013602482015272195d1a081d1c985b9cd9995c8819985a5b1959606a1b604482015260640161051a565b505050565b604051631661ee3760e11b81526001600160a01b0382811660048301526000917f000000000000000000000000000000000000000000000000000000000000000090911690632cc3dc6e9060240160e060405180830381865afa158015611359573d6000803e3d6000fd5b505050506040513d601f19601f8201168201806040525081019061137d9190611628565b5090979650505050505050565b6001600160a01b038116811461139f57600080fd5b50565b600080604083850312156113b557600080fd5b82356113c08161138a565b946020939093013593505050565b6000602082840312156113e057600080fd5b81356113eb8161138a565b9392505050565b6000806040838503121561140557600080fd5b50508035926020909101359150565b60008060006060848603121561142957600080fd5b83356114348161138a565b95602085013595506040909401359392505050565b634e487b7160e01b600052601160045260246000fd5b600081600019048311821515161561147957611479611449565b500290565b60008261149b57634e487b7160e01b600052601260045260246000fd5b500490565b6000828210156114b2576114b2611449565b500390565b6020808252601f908201527f5265656e7472616e637947756172643a207265656e7472616e742063616c6c00604082015260600190565b805180151581146110d257600080fd5b60006020828403121561151057600080fd5b6113eb826114ee565b60006020828403121561152b57600080fd5b81516113eb8161138a565b84815260006020858184015260018060a01b038516604084015260806060840152835180608085015260005b8181101561157e5785810183015185820160a001528201611562565b8181111561159057600060a083870101525b50601f01601f19169290920160a0019695505050505050565b600082198211156115bc576115bc611449565b500190565b80516001600160701b03811681146110d257600080fd5b6000806000606084860312156115ed57600080fd5b6115f6846115c1565b9250611604602085016115c1565b9150604084015163ffffffff8116811461161d57600080fd5b809150509250925092565b600080600080600080600060e0888a03121561164357600080fd5b87519650602088015195506040880151945060608801519350608088015161166a8161138a565b925061167860a089016114ee565b915061168660c089016114ee565b90509295989194975092955056fea2646970667358221220f1d533d0331e24a3c42656de0302807a0392bac8368f846717b60e97dd75a94c64736f6c634300080e0033",
  "linkReferences": {},
  "deployedLinkReferences": {}
}