{
  "_format": "hh-sol-artifact-1",
  "contractName": "SageSwapRouter",
  "sourceName": "contracts/Social/SageSwapRouter.sol",
  "abi": [
    {
      "inputs": [
        {
          "internalType": "address",
          "name": "_curveFactory",
          "type": "address"
        },
        {
          "internalType": "address",
          "name": "_weth",
          "type": "address"
        },
        {
          "internalType": "address",
          "name": "_treasury",
          "type": "address"
        }
      ],
      "stateMutability": "nonpayable",
      "type": "constructor"
    },
    {
      "anonymous": false,
      "inputs": [
        {
          "indexed": true,
          "internalType": "address",
          "name": "token",
          "type": "address"
        },
        {
          "indexed": true,
          "internalType": "address",
          "name": "buyer",
          "type": "address"
        },
        {
          "indexed": false,
          "internalType": "uint256",
          "name": "ethIn",
          "type": "uint256"
        },
        {
          "indexed": false,
          "internalType": "uint256",
          "name": "tokensOut",
          "type": "uint256"
        },
        {
          "indexed": false,
          "internalType": "uint256",
          "name": "fee",
          "type": "uint256"
        },
        {
          "indexed": false,
          "internalType": "uint256",
          "name": "creatorFee",
          "type": "uint256"
        }
      ],
      "name": "Bought",
      "type": "event"
    },
    {
      "anonymous": false,
      "inputs": [
        {
          "indexed": true,
          "internalType": "address",
          "name": "token",
          "type": "address"
        },
        {
          "indexed": true,
          "internalType": "address",
          "name": "creator",
          "type": "address"
        },
        {
          "indexed": false,
          "internalType": "uint256",
          "name": "amount",
          "type": "uint256"
        }
      ],
      "name": "CreatorFeesClaimed",
      "type": "event"
    },
    {
      "anonymous": false,
      "inputs": [
        {
          "indexed": true,
          "internalType": "address",
          "name": "token",
          "type": "address"
        },
        {
          "indexed": true,
          "internalType": "address",
          "name": "seller",
          "type": "address"
        },
        {
          "indexed": false,
          "internalType": "uint256",
          "name": "tokensIn",
          "type": "uint256"
        },
        {
          "indexed": false,
          "internalType": "uint256",
          "name": "ethOut",
          "type": "uint256"
        },
        {
          "indexed": false,
          "internalType": "uint256",
          "name": "fee",
          "type": "uint256"
        },
        {
          "indexed": false,
          "internalType": "uint256",
          "name": "creatorFee",
          "type": "uint256"
        }
      ],
      "name": "Sold",
      "type": "event"
    },
    {
      "inputs": [],
      "name": "CREATOR_FEE_BPS",
      "outputs": [
        {
          "internalType": "uint16",
          "name": "",
          "type": "uint16"
        }
      ],
      "stateMutability": "view",
      "type": "function"
    },
    {
      "inputs": [],
      "name": "ROUTER_FEE_BPS",
      "outputs": [
        {
          "internalType": "uint16",
          "name": "",
          "type": "uint16"
        }
      ],
      "stateMutability": "view",
      "type": "function"
    },
    {
      "inputs": [
        {
          "internalType": "address",
          "name": "token",
          "type": "address"
        },
        {
          "internalType": "uint256",
          "name": "minTokensOut",
          "type": "uint256"
        }
      ],
      "name": "buy",
      "outputs": [],
      "stateMutability": "payable",
      "type": "function"
    },
    {
      "inputs": [
        {
          "internalType": "address",
          "name": "token",
          "type": "address"
        }
      ],
      "name": "claimCreatorFees",
      "outputs": [],
      "stateMutability": "nonpayable",
      "type": "function"
    },
    {
      "inputs": [
        {
          "internalType": "address",
          "name": "",
          "type": "address"
        }
      ],
      "name": "creatorFees",
      "outputs": [
        {
          "internalType": "uint256",
          "name": "",
          "type": "uint256"
        }
      ],
      "stateMutability": "view",
      "type": "function"
    },
    {
      "inputs": [
        {
          "internalType": "address",
          "name": "",
          "type": "address"
        }
      ],
      "name": "creatorFeesLifetime",
      "outputs": [
        {
          "internalType": "uint256",
          "name": "",
          "type": "uint256"
        }
      ],
      "stateMutability": "view",
      "type": "function"
    },
    {
      "inputs": [],
      "name": "curveFactory",
      "outputs": [
        {
          "internalType": "contract ISocialTokenFactoryMin",
          "name": "",
          "type": "address"
        }
      ],
      "stateMutability": "view",
      "type": "function"
    },
    {
      "inputs": [
        {
          "internalType": "address",
          "name": "token",
          "type": "address"
        }
      ],
      "name": "poolPriceWei",
      "outputs": [
        {
          "internalType": "uint256",
          "name": "",
          "type": "uint256"
        }
      ],
      "stateMutability": "view",
      "type": "function"
    },
    {
      "inputs": [
        {
          "internalType": "address",
          "name": "token",
          "type": "address"
        },
        {
          "internalType": "uint256",
          "name": "ethIn",
          "type": "uint256"
        }
      ],
      "name": "quoteBuy",
      "outputs": [
        {
          "internalType": "uint256",
          "name": "",
          "type": "uint256"
        }
      ],
      "stateMutability": "view",
      "type": "function"
    },
    {
      "inputs": [
        {
          "internalType": "address",
          "name": "token",
          "type": "address"
        },
        {
          "internalType": "uint256",
          "name": "amountIn",
          "type": "uint256"
        },
        {
          "internalType": "uint256",
          "name": "minEthOut",
          "type": "uint256"
        }
      ],
      "name": "sell",
      "outputs": [],
      "stateMutability": "nonpayable",
      "type": "function"
    },
    {
      "inputs": [],
      "name": "treasury",
      "outputs": [
        {
          "internalType": "address",
          "name": "",
          "type": "address"
        }
      ],
      "stateMutability": "view",
      "type": "function"
    },
    {
      "inputs": [],
      "name": "weth",
      "outputs": [
        {
          "internalType": "address",
          "name": "",
          "type": "address"
        }
      ],
      "stateMutability": "view",
      "type": "function"
    },
    {
      "stateMutability": "payable",
      "type": "receive"
    }
  ],
  "bytecode": "0x60e06040523480156200001157600080fd5b5060405162001585380380620015858339810160408190526200003491620000e8565b60016000556001600160a01b038316158015906200005a57506001600160a01b03821615155b80156200006f57506001600160a01b03811615155b620000ad5760405162461bcd60e51b815260206004820152600a60248201526962616420706172616d7360b01b604482015260640160405180910390fd5b6001600160a01b0392831660805290821660a0521660c05262000132565b80516001600160a01b0381168114620000e357600080fd5b919050565b600080600060608486031215620000fe57600080fd5b6200010984620000cb565b92506200011960208501620000cb565b91506200012960408501620000cb565b90509250925092565b60805160a05160c0516113f36200019260003960008181610175015281816106b201526108b601526000818160fc015281816105680152818161093c01526109d101526000818161021801528181610d68015261105b01526113f36000f3fe6080604052600436106100ab5760003560e01c8063a8825af111610064578063a8825af1146101e6578063ae6836d614610206578063cc3cbd2a1461023a578063cce7ec1314610262578063d6ae6e4414610275578063dacd968d1461029557600080fd5b80630d7a94f6146100b75780633fc8cef3146100ea578063413ec35e1461013657806361d027b3146101635780636a272462146101975780639016af09146101b957600080fd5b366100b257005b600080fd5b3480156100c357600080fd5b506100d76100d23660046110ed565b6102aa565b6040519081526020015b60405180910390f35b3480156100f657600080fd5b5061011e7f000000000000000000000000000000000000000000000000000000000000000081565b6040516001600160a01b0390911681526020016100e1565b34801561014257600080fd5b506100d7610151366004611119565b60026020526000908152604090205481565b34801561016f57600080fd5b5061011e7f000000000000000000000000000000000000000000000000000000000000000081565b3480156101a357600080fd5b506101b76101b236600461113d565b6102ff565b005b3480156101c557600080fd5b506100d76101d4366004611119565b60016020526000908152604090205481565b3480156101f257600080fd5b506100d7610201366004611119565b610751565b34801561021257600080fd5b5061011e7f000000000000000000000000000000000000000000000000000000000000000081565b34801561024657600080fd5b5061024f600581565b60405161ffff90911681526020016100e1565b6101b76102703660046110ed565b6107a3565b34801561028157600080fd5b506101b7610290366004611119565b610bf5565b3480156102a157600080fd5b5061024f601981565b6000806127106102bb601985611188565b6102c591906111a7565b90506000806102dc6102d687610d46565b87610e22565b90925090506102f56102ee84876111c9565b8284610f4a565b9695505050505050565b60026000540361032a5760405162461bcd60e51b8152600401610321906111e0565b60405180910390fd5b6002600055816103685760405162461bcd60e51b81526020600482015260096024820152686e6f20746f6b656e7360b81b6044820152606401610321565b600061037384610d46565b90506000806103828387610e22565b915091506000610393868484610f4a565b6040516323b872dd60e01b81523360048201526001600160a01b03868116602483015260448201899052919250908816906323b872dd906064016020604051808303816000875af11580156103ec573d6000803e3d6000fd5b505050506040513d601f19601f820116820180604052508101906104109190611227565b61044a5760405162461bcd60e51b815260206004820152600b60248201526a1c1d5b1b0819985a5b195960aa1b6044820152606401610321565b6000876001600160a01b0316856001600160a01b0316630dfe16816040518163ffffffff1660e01b8152600401602060405180830381865afa158015610494573d6000803e3d6000fd5b505050506040513d601f19601f820116820180604052508101906104b89190611242565b6001600160a01b0316149050846001600160a01b031663022c0d9f826104de57836104e1565b60005b836104ed5760006104ef565b845b604080516000815260208101918290526001600160e01b031960e086901b1690915261052292919030906024810161125f565b600060405180830381600087803b15801561053c57600080fd5b505af1158015610550573d6000803e3d6000fd5b5050604051632e1a7d4d60e01b8152600481018590527f00000000000000000000000000000000000000000000000000000000000000006001600160a01b03169250632e1a7d4d9150602401600060405180830381600087803b1580156105b657600080fd5b505af11580156105ca573d6000803e3d6000fd5b506000925061271091506105e19050601985611188565b6105eb91906111a7565b905060006127106105fd600586611188565b61060791906111a7565b9050600061061583866111c9565b9050888110156106525760405162461bcd60e51b8152602060048201526008602482015267736c69707061676560c01b6044820152606401610321565b6001600160a01b038b166000908152600160205260408120805484929061067a9084906112d2565b90915550506001600160a01b038b16600090815260026020526040812080548492906106a79084906112d2565b909155506106e090507f00000000000000000000000000000000000000000000000000000000000000006106db84866111c9565b610f8f565b6106ea3382610f8f565b604080518b8152602081018390529081018490526060810183905233906001600160a01b038d16907f89bc96e242cf3b1e6040a8f5123c29dbf1e48d876ded5856f1668191a8a7658e9060800160405180910390a350506001600055505050505050505050565b600080600061076861076285610d46565b85610e22565b915091508160000361077e575060009392505050565b8161079182670de0b6b3a7640000611188565b61079b91906111a7565b949350505050565b6002600054036107c55760405162461bcd60e51b8152600401610321906111e0565b6002600055346108005760405162461bcd60e51b81526020600482015260066024820152650dcde40cae8d60d31b6044820152606401610321565b600061080b83610d46565b9050600061271061081d601934611188565b61082791906111a7565b90506000612710610839600534611188565b61084391906111a7565b9050600061085183346111c9565b6001600160a01b03871660009081526001602052604081208054929350849290919061087e9084906112d2565b90915550506001600160a01b038616600090815260026020526040812080548492906108ab9084906112d2565b909155506108df90507f00000000000000000000000000000000000000000000000000000000000000006106db84866111c9565b6000806108ec8689610e22565b9150915060006108fd848385610f4a565b90508781101561093a5760405162461bcd60e51b8152602060048201526008602482015267736c69707061676560c01b6044820152606401610321565b7f00000000000000000000000000000000000000000000000000000000000000006001600160a01b031663d0e30db0856040518263ffffffff1660e01b81526004016000604051808303818588803b15801561099557600080fd5b505af11580156109a9573d6000803e3d6000fd5b505060405163a9059cbb60e01b81526001600160a01b038b81166004830152602482018990527f000000000000000000000000000000000000000000000000000000000000000016935063a9059cbb925060440190506020604051808303816000875af1158015610a1e573d6000803e3d6000fd5b505050506040513d601f19601f82011682018060405250810190610a429190611227565b610a855760405162461bcd60e51b81526020600482015260146024820152731dd95d1a081d1c985b9cd9995c8819985a5b195960621b6044820152606401610321565b6000896001600160a01b0316886001600160a01b0316630dfe16816040518163ffffffff1660e01b8152600401602060405180830381865afa158015610acf573d6000803e3d6000fd5b505050506040513d601f19601f82011682018060405250810190610af39190611242565b6001600160a01b0316149050876001600160a01b031663022c0d9f82610b1a576000610b1c565b835b83610b275784610b2a565b60005b604080516000815260208101918290526001600160e01b031960e086901b16909152610b5d92919033906024810161125f565b600060405180830381600087803b158015610b7757600080fd5b505af1158015610b8b573d6000803e3d6000fd5b505060408051888152602081018690529081018a9052606081018990523392506001600160a01b038d1691507f2683a506cc521e11c368ce9c068585a91786a3cb7ab4089b602eb2835acb16399060800160405180910390a3505060016000555050505050505050565b600260005403610c175760405162461bcd60e51b8152600401610321906111e0565b60026000908155610c2782611039565b9050336001600160a01b03821614610c735760405162461bcd60e51b815260206004820152600f60248201526e3737ba103a34329031b932b0ba37b960891b6044820152606401610321565b6001600160a01b03821660009081526001602052604090205480610ccc5760405162461bcd60e51b815260206004820152601060248201526f6e6f7468696e6720746f20636c61696d60801b6044820152606401610321565b6001600160a01b038316600090815260016020526040812055610cef8282610f8f565b816001600160a01b0316836001600160a01b03167faa4ecfd5324d73e3b54d038b3ae8ac8f88866d49dc334dc1f02fe36e0f93574883604051610d3491815260200190565b60405180910390a35050600160005550565b60405163a7465bdb60e01b81526001600160a01b0382811660048301526000917f00000000000000000000000000000000000000000000000000000000000000009091169063a7465bdb90602401602060405180830381865afa158015610db1573d6000803e3d6000fd5b505050506040513d601f19601f82011682018060405250810190610dd59190611242565b90506001600160a01b038116610e1d5760405162461bcd60e51b815260206004820152600d60248201526c1b9bdd0819dc98591d585d1959609a1b6044820152606401610321565b919050565b600080600080856001600160a01b0316630902f1ac6040518163ffffffff1660e01b8152600401606060405180830381865afa158015610e66573d6000803e3d6000fd5b505050506040513d601f19601f82011682018060405250810190610e8a9190611301565b50915091506000856001600160a01b0316876001600160a01b0316630dfe16816040518163ffffffff1660e01b8152600401602060405180830381865afa158015610ed9573d6000803e3d6000fd5b505050506040513d601f19601f82011682018060405250810190610efd9190611242565b6001600160a01b031614905080610f2757816001600160701b0316836001600160701b0316610f3c565b826001600160701b0316826001600160701b03165b909890975095505050505050565b600080610f59856103e5611188565b905080610f68856103e8611188565b610f7291906112d2565b610f7c8483611188565b610f8691906111a7565b95945050505050565b80600003610f9b575050565b6000826001600160a01b03168260405160006040518083038185875af1925050503d8060008114610fe8576040519150601f19603f3d011682016040523d82523d6000602084013e610fed565b606091505b50509050806110345760405162461bcd60e51b8152602060048201526013602482015272195d1a081d1c985b9cd9995c8819985a5b1959606a1b6044820152606401610321565b505050565b604051631661ee3760e11b81526001600160a01b0382811660048301526000917f000000000000000000000000000000000000000000000000000000000000000090911690632cc3dc6e9060240160e060405180830381865afa1580156110a4573d6000803e3d6000fd5b505050506040513d601f19601f820116820180604052508101906110c89190611351565b5090979650505050505050565b6001600160a01b03811681146110ea57600080fd5b50565b6000806040838503121561110057600080fd5b823561110b816110d5565b946020939093013593505050565b60006020828403121561112b57600080fd5b8135611136816110d5565b9392505050565b60008060006060848603121561115257600080fd5b833561115d816110d5565b95602085013595506040909401359392505050565b634e487b7160e01b600052601160045260246000fd5b60008160001904831182151516156111a2576111a2611172565b500290565b6000826111c457634e487b7160e01b600052601260045260246000fd5b500490565b6000828210156111db576111db611172565b500390565b6020808252601f908201527f5265656e7472616e637947756172643a207265656e7472616e742063616c6c00604082015260600190565b80518015158114610e1d57600080fd5b60006020828403121561123957600080fd5b61113682611217565b60006020828403121561125457600080fd5b8151611136816110d5565b84815260006020858184015260018060a01b038516604084015260806060840152835180608085015260005b818110156112a75785810183015185820160a00152820161128b565b818111156112b957600060a083870101525b50601f01601f19169290920160a0019695505050505050565b600082198211156112e5576112e5611172565b500190565b80516001600160701b0381168114610e1d57600080fd5b60008060006060848603121561131657600080fd5b61131f846112ea565b925061132d602085016112ea565b9150604084015163ffffffff8116811461134657600080fd5b809150509250925092565b600080600080600080600060e0888a03121561136c57600080fd5b875196506020880151955060408801519450606088015193506080880151611393816110d5565b92506113a160a08901611217565b91506113af60c08901611217565b90509295989194975092955056fea26469706673582212205673415cc313c5c69475566ce38bcda11b3e5b7d9d9b411fbbffa5031c4ae10864736f6c634300080e0033",
  "linkReferences": {},
  "deployedLinkReferences": {}
}