{
  "_format": "hh-sol-artifact-1",
  "contractName": "Auction",
  "sourceName": "contracts/Auction/Auction.sol",
  "abi": [
    {
      "inputs": [],
      "stateMutability": "nonpayable",
      "type": "constructor"
    },
    {
      "anonymous": false,
      "inputs": [
        {
          "indexed": false,
          "internalType": "address",
          "name": "previousAdmin",
          "type": "address"
        },
        {
          "indexed": false,
          "internalType": "address",
          "name": "newAdmin",
          "type": "address"
        }
      ],
      "name": "AdminChanged",
      "type": "event"
    },
    {
      "anonymous": false,
      "inputs": [
        {
          "indexed": true,
          "internalType": "uint256",
          "name": "auctionId",
          "type": "uint256"
        },
        {
          "indexed": true,
          "internalType": "address",
          "name": "previousBidder",
          "type": "address"
        }
      ],
      "name": "AuctionCancelled",
      "type": "event"
    },
    {
      "anonymous": false,
      "inputs": [
        {
          "indexed": false,
          "internalType": "uint256",
          "name": "auctionId",
          "type": "uint256"
        },
        {
          "indexed": false,
          "internalType": "address",
          "name": "nftContract",
          "type": "address"
        }
      ],
      "name": "AuctionCreated",
      "type": "event"
    },
    {
      "anonymous": false,
      "inputs": [
        {
          "indexed": true,
          "internalType": "uint256",
          "name": "auctionId",
          "type": "uint256"
        },
        {
          "indexed": true,
          "internalType": "address",
          "name": "highestBidder",
          "type": "address"
        },
        {
          "indexed": false,
          "internalType": "uint256",
          "name": "highestBid",
          "type": "uint256"
        }
      ],
      "name": "AuctionSettled",
      "type": "event"
    },
    {
      "anonymous": false,
      "inputs": [
        {
          "indexed": true,
          "internalType": "address",
          "name": "beacon",
          "type": "address"
        }
      ],
      "name": "BeaconUpgraded",
      "type": "event"
    },
    {
      "anonymous": false,
      "inputs": [
        {
          "indexed": true,
          "internalType": "uint256",
          "name": "auctionId",
          "type": "uint256"
        },
        {
          "indexed": true,
          "internalType": "address",
          "name": "newBidder",
          "type": "address"
        },
        {
          "indexed": true,
          "internalType": "address",
          "name": "previousBidder",
          "type": "address"
        },
        {
          "indexed": false,
          "internalType": "uint256",
          "name": "bidAmount",
          "type": "uint256"
        },
        {
          "indexed": false,
          "internalType": "uint256",
          "name": "newEndTime",
          "type": "uint256"
        }
      ],
      "name": "BidPlaced",
      "type": "event"
    },
    {
      "anonymous": false,
      "inputs": [
        {
          "indexed": false,
          "internalType": "uint8",
          "name": "version",
          "type": "uint8"
        }
      ],
      "name": "Initialized",
      "type": "event"
    },
    {
      "anonymous": false,
      "inputs": [
        {
          "indexed": false,
          "internalType": "address",
          "name": "account",
          "type": "address"
        }
      ],
      "name": "Paused",
      "type": "event"
    },
    {
      "anonymous": false,
      "inputs": [
        {
          "indexed": false,
          "internalType": "address",
          "name": "account",
          "type": "address"
        }
      ],
      "name": "Unpaused",
      "type": "event"
    },
    {
      "anonymous": false,
      "inputs": [
        {
          "indexed": true,
          "internalType": "address",
          "name": "implementation",
          "type": "address"
        }
      ],
      "name": "Upgraded",
      "type": "event"
    },
    {
      "inputs": [],
      "name": "DEFAULT_EXTENSION",
      "outputs": [
        {
          "internalType": "uint256",
          "name": "",
          "type": "uint256"
        }
      ],
      "stateMutability": "view",
      "type": "function"
    },
    {
      "inputs": [
        {
          "internalType": "uint256",
          "name": "",
          "type": "uint256"
        }
      ],
      "name": "auctionArtistShare",
      "outputs": [
        {
          "internalType": "uint256",
          "name": "",
          "type": "uint256"
        }
      ],
      "stateMutability": "view",
      "type": "function"
    },
    {
      "inputs": [
        {
          "internalType": "uint256",
          "name": "",
          "type": "uint256"
        }
      ],
      "name": "auctions",
      "outputs": [
        {
          "internalType": "address",
          "name": "highestBidder",
          "type": "address"
        },
        {
          "internalType": "contract INFT",
          "name": "nftContract",
          "type": "address"
        },
        {
          "internalType": "uint32",
          "name": "startTime",
          "type": "uint32"
        },
        {
          "internalType": "uint32",
          "name": "endTime",
          "type": "uint32"
        },
        {
          "internalType": "uint32",
          "name": "duration",
          "type": "uint32"
        },
        {
          "internalType": "bool",
          "name": "settled",
          "type": "bool"
        },
        {
          "internalType": "uint256",
          "name": "minimumPrice",
          "type": "uint256"
        },
        {
          "internalType": "uint256",
          "name": "highestBid",
          "type": "uint256"
        },
        {
          "internalType": "uint256",
          "name": "auctionId",
          "type": "uint256"
        },
        {
          "internalType": "string",
          "name": "nftUri",
          "type": "string"
        }
      ],
      "stateMutability": "view",
      "type": "function"
    },
    {
      "inputs": [
        {
          "internalType": "uint256",
          "name": "_auctionId",
          "type": "uint256"
        },
        {
          "internalType": "uint256",
          "name": "_amount",
          "type": "uint256"
        }
      ],
      "name": "bid",
      "outputs": [],
      "stateMutability": "nonpayable",
      "type": "function"
    },
    {
      "inputs": [
        {
          "internalType": "uint256",
          "name": "_auctionId",
          "type": "uint256"
        }
      ],
      "name": "cancelAuction",
      "outputs": [],
      "stateMutability": "nonpayable",
      "type": "function"
    },
    {
      "inputs": [
        {
          "components": [
            {
              "internalType": "address",
              "name": "highestBidder",
              "type": "address"
            },
            {
              "internalType": "contract INFT",
              "name": "nftContract",
              "type": "address"
            },
            {
              "internalType": "uint32",
              "name": "startTime",
              "type": "uint32"
            },
            {
              "internalType": "uint32",
              "name": "endTime",
              "type": "uint32"
            },
            {
              "internalType": "uint32",
              "name": "duration",
              "type": "uint32"
            },
            {
              "internalType": "bool",
              "name": "settled",
              "type": "bool"
            },
            {
              "internalType": "uint256",
              "name": "minimumPrice",
              "type": "uint256"
            },
            {
              "internalType": "uint256",
              "name": "highestBid",
              "type": "uint256"
            },
            {
              "internalType": "uint256",
              "name": "auctionId",
              "type": "uint256"
            },
            {
              "internalType": "string",
              "name": "nftUri",
              "type": "string"
            }
          ],
          "internalType": "struct Auction.AuctionInfo",
          "name": "_auctionInfo",
          "type": "tuple"
        }
      ],
      "name": "createAuction",
      "outputs": [],
      "stateMutability": "nonpayable",
      "type": "function"
    },
    {
      "inputs": [
        {
          "components": [
            {
              "internalType": "address",
              "name": "highestBidder",
              "type": "address"
            },
            {
              "internalType": "contract INFT",
              "name": "nftContract",
              "type": "address"
            },
            {
              "internalType": "uint32",
              "name": "startTime",
              "type": "uint32"
            },
            {
              "internalType": "uint32",
              "name": "endTime",
              "type": "uint32"
            },
            {
              "internalType": "uint32",
              "name": "duration",
              "type": "uint32"
            },
            {
              "internalType": "bool",
              "name": "settled",
              "type": "bool"
            },
            {
              "internalType": "uint256",
              "name": "minimumPrice",
              "type": "uint256"
            },
            {
              "internalType": "uint256",
              "name": "highestBid",
              "type": "uint256"
            },
            {
              "internalType": "uint256",
              "name": "auctionId",
              "type": "uint256"
            },
            {
              "internalType": "string",
              "name": "nftUri",
              "type": "string"
            }
          ],
          "internalType": "struct Auction.AuctionInfo[]",
          "name": "_auctions",
          "type": "tuple[]"
        }
      ],
      "name": "createAuctionBatch",
      "outputs": [],
      "stateMutability": "nonpayable",
      "type": "function"
    },
    {
      "inputs": [
        {
          "internalType": "uint256",
          "name": "_auctionId",
          "type": "uint256"
        }
      ],
      "name": "getAuction",
      "outputs": [
        {
          "components": [
            {
              "internalType": "address",
              "name": "highestBidder",
              "type": "address"
            },
            {
              "internalType": "contract INFT",
              "name": "nftContract",
              "type": "address"
            },
            {
              "internalType": "uint32",
              "name": "startTime",
              "type": "uint32"
            },
            {
              "internalType": "uint32",
              "name": "endTime",
              "type": "uint32"
            },
            {
              "internalType": "uint32",
              "name": "duration",
              "type": "uint32"
            },
            {
              "internalType": "bool",
              "name": "settled",
              "type": "bool"
            },
            {
              "internalType": "uint256",
              "name": "minimumPrice",
              "type": "uint256"
            },
            {
              "internalType": "uint256",
              "name": "highestBid",
              "type": "uint256"
            },
            {
              "internalType": "uint256",
              "name": "auctionId",
              "type": "uint256"
            },
            {
              "internalType": "string",
              "name": "nftUri",
              "type": "string"
            }
          ],
          "internalType": "struct Auction.AuctionInfo",
          "name": "",
          "type": "tuple"
        }
      ],
      "stateMutability": "view",
      "type": "function"
    },
    {
      "inputs": [],
      "name": "getBidIncrementPercentage",
      "outputs": [
        {
          "internalType": "uint256",
          "name": "",
          "type": "uint256"
        }
      ],
      "stateMutability": "pure",
      "type": "function"
    },
    {
      "inputs": [
        {
          "internalType": "address",
          "name": "_token",
          "type": "address"
        },
        {
          "internalType": "address",
          "name": "_storage",
          "type": "address"
        }
      ],
      "name": "initialize",
      "outputs": [],
      "stateMutability": "nonpayable",
      "type": "function"
    },
    {
      "inputs": [],
      "name": "pause",
      "outputs": [],
      "stateMutability": "nonpayable",
      "type": "function"
    },
    {
      "inputs": [],
      "name": "paused",
      "outputs": [
        {
          "internalType": "bool",
          "name": "",
          "type": "bool"
        }
      ],
      "stateMutability": "view",
      "type": "function"
    },
    {
      "inputs": [],
      "name": "proxiableUUID",
      "outputs": [
        {
          "internalType": "bytes32",
          "name": "",
          "type": "bytes32"
        }
      ],
      "stateMutability": "view",
      "type": "function"
    },
    {
      "inputs": [
        {
          "internalType": "uint256",
          "name": "_auctionId",
          "type": "uint256"
        },
        {
          "internalType": "uint256",
          "name": "_shareBps",
          "type": "uint256"
        }
      ],
      "name": "setAuctionArtistShare",
      "outputs": [],
      "stateMutability": "nonpayable",
      "type": "function"
    },
    {
      "inputs": [
        {
          "internalType": "uint256",
          "name": "_auctionId",
          "type": "uint256"
        }
      ],
      "name": "settleAuction",
      "outputs": [],
      "stateMutability": "nonpayable",
      "type": "function"
    },
    {
      "inputs": [],
      "name": "token",
      "outputs": [
        {
          "internalType": "contract IERC20",
          "name": "",
          "type": "address"
        }
      ],
      "stateMutability": "view",
      "type": "function"
    },
    {
      "inputs": [],
      "name": "unpause",
      "outputs": [],
      "stateMutability": "nonpayable",
      "type": "function"
    },
    {
      "inputs": [
        {
          "internalType": "uint256",
          "name": "_auctionId",
          "type": "uint256"
        },
        {
          "internalType": "uint256",
          "name": "_minimumPrice",
          "type": "uint256"
        },
        {
          "internalType": "uint32",
          "name": "_endTime",
          "type": "uint32"
        }
      ],
      "name": "updateAuction",
      "outputs": [],
      "stateMutability": "nonpayable",
      "type": "function"
    },
    {
      "inputs": [
        {
          "internalType": "address",
          "name": "newImplementation",
          "type": "address"
        }
      ],
      "name": "upgradeTo",
      "outputs": [],
      "stateMutability": "nonpayable",
      "type": "function"
    },
    {
      "inputs": [
        {
          "internalType": "address",
          "name": "newImplementation",
          "type": "address"
        },
        {
          "internalType": "bytes",
          "name": "data",
          "type": "bytes"
        }
      ],
      "name": "upgradeToAndCall",
      "outputs": [],
      "stateMutability": "payable",
      "type": "function"
    }
  ],
  "bytecode": "0x60a0604052306080523480156200001557600080fd5b506200002062000026565b620000e8565b600054610100900460ff1615620000935760405162461bcd60e51b815260206004820152602760248201527f496e697469616c697a61626c653a20636f6e747261637420697320696e697469604482015266616c697a696e6760c81b606482015260840160405180910390fd5b60005460ff9081161015620000e6576000805460ff191660ff9081179091556040519081527f7f26b83ff96e1f2b6a682f133852f6798a09c465da95921460cefb38474024989060200160405180910390a15b565b608051612d936200012060003960008181610862015281816108a201528181610b3201528181610b720152610c050152612d936000f3fe60806040526004361061011f5760003560e01c80635c975abb116100a057806396b5a7551161006457806396b5a75514610301578063a473205c14610321578063d4a22c3214610337578063ede9590514610357578063fc0c546a1461038457600080fd5b80635c975abb1461025c5780635e6c1d631461027f57806378bd79351461029f5780638456cb59146102cc5780638f803842146102e157600080fd5b8063485cc955116100e7578063485cc955146101be5780634f1ef286146101de57806352d1902d146101f1578063571a26a014610206578063598647f81461023c57600080fd5b80632bb36adc146101245780632e993611146101465780633659cfe6146101665780633f4ba83a14610186578063481b13d21461019b575b600080fd5b34801561013057600080fd5b5061014461013f366004612297565b6103bc565b005b34801561015257600080fd5b5061014461016136600461230c565b6104aa565b34801561017257600080fd5b5061014461018136600461233a565b610858565b34801561019257600080fd5b50610144610937565b3480156101a757600080fd5b5060645b6040519081526020015b60405180910390f35b3480156101ca57600080fd5b506101446101d9366004612357565b6109dd565b6101446101ec3660046123a6565b610b28565b3480156101fd57600080fd5b506101ab610bf8565b34801561021257600080fd5b5061022661022136600461230c565b610cab565b6040516101b59a999897969594939291906124c2565b34801561024857600080fd5b5061014461025736600461253b565b610da7565b34801561026857600080fd5b5060975460ff1660405190151581526020016101b5565b34801561028b57600080fd5b5061014461029a36600461255d565b61121b565b3480156102ab57600080fd5b506102bf6102ba36600461230c565b61144a565b6040516101b59190612599565b3480156102d857600080fd5b506101446115d9565b3480156102ed57600080fd5b506101446102fc36600461266e565b61167d565b34801561030d57600080fd5b5061014461031c36600461230c565b6117e8565b34801561032d57600080fd5b506101ab61025881565b34801561034357600080fd5b5061014461035236600461253b565b6119e1565b34801561036357600080fd5b506101ab61037236600461230c565b60fe6020526000908152604090205481565b34801561039057600080fd5b5060fd546103a4906001600160a01b031681565b6040516001600160a01b0390911681526020016101b5565b60fb54604051632474521560e21b8152600080516020612d3e83398151915260048201523360248201526001600160a01b03909116906391d1485490604401602060405180830381865afa158015610418573d6000803e3d6000fd5b505050506040513d601f19601f8201168201806040525081019061043c91906126b5565b6104615760405162461bcd60e51b8152600401610458906126d2565b60405180910390fd5b8060005b818110156104a457610494848483818110610482576104826126fc565b905060200281019061029a9190612712565b61049d81612749565b9050610465565b50505050565b6104b2611b34565b600081815260fc60205260409020600281015460ff16156104e55760405162461bcd60e51b815260040161045890612762565b6004810154815460018301546001600160a01b0390911690600160c01b900463ffffffff16801580159061051857508042115b6105645760405162461bcd60e51b815260206004820152601860248201527f41756374696f6e206973207374696c6c2072756e6e696e6700000000000000006044820152606401610458565b60028401805460ff191660011790556001600160a01b0382161561080d576001840154604051636902622f60e11b81526001600160a01b039091169063d204c45e906105b990859060068901906004016127d3565b600060405180830381600087803b1580156105d357600080fd5b505af11580156105e7573d6000803e3d6000fd5b505050600086815260fe6020526040812054915081900361060d5761060a611b7a565b90505b600061271061061c8387612868565b6106269190612887565b60fd546001880154604080516321de0b0960e11b815290519394506001600160a01b039283169363a9059cbb93909216916343bc1612916004808201926020929091908290030181865afa158015610682573d6000803e3d6000fd5b505050506040513d601f19601f820116820180604052508101906106a691906128a9565b6040516001600160e01b031960e084901b1681526001600160a01b039091166004820152602481018490526044016020604051808303816000875af11580156106f3573d6000803e3d6000fd5b505050506040513d601f19601f8201168201806040525081019061071791906126b5565b5060fd5460fb5460408051634783c35b60e01b815290516001600160a01b039384169363a9059cbb931691634783c35b9160048083019260209291908290030181865afa15801561076c573d6000803e3d6000fd5b505050506040513d601f19601f8201168201806040525081019061079091906128a9565b61079a84896128c6565b6040516001600160e01b031960e085901b1681526001600160a01b03909216600483015260248201526044016020604051808303816000875af11580156107e5573d6000803e3d6000fd5b505050506040513d601f19601f8201168201806040525081019061080991906126b5565b5050505b816001600160a01b0316857fc9f72b276a388619c6d185d146697036241880c36654b1a3ffdad07c24038d998560405161084991815260200190565b60405180910390a35050505050565b6001600160a01b037f00000000000000000000000000000000000000000000000000000000000000001630036108a05760405162461bcd60e51b8152600401610458906128dd565b7f00000000000000000000000000000000000000000000000000000000000000006001600160a01b03166108e9600080516020612cf7833981519152546001600160a01b031690565b6001600160a01b03161461090f5760405162461bcd60e51b815260040161045890612929565b61091881611d07565b6040805160008082526020820190925261093491839190611d96565b50565b60fb54604051632474521560e21b8152600080516020612d3e83398151915260048201523360248201526001600160a01b03909116906391d1485490604401602060405180830381865afa158015610993573d6000803e3d6000fd5b505050506040513d601f19601f820116820180604052508101906109b791906126b5565b6109d35760405162461bcd60e51b8152600401610458906126d2565b6109db611f01565b565b600054610100900460ff16158080156109fd5750600054600160ff909116105b80610a175750303b158015610a17575060005460ff166001145b610a7a5760405162461bcd60e51b815260206004820152602e60248201527f496e697469616c697a61626c653a20636f6e747261637420697320616c72656160448201526d191e481a5b9a5d1a585b1a5e995960921b6064820152608401610458565b6000805460ff191660011790558015610a9d576000805461ff0019166101001790555b610aa5611f53565b610aad611f82565b60fd80546001600160a01b038086166001600160a01b03199283161790925560fb8054928516929091169190911790558015610b23576000805461ff0019169055604051600181527f7f26b83ff96e1f2b6a682f133852f6798a09c465da95921460cefb38474024989060200160405180910390a15b505050565b6001600160a01b037f0000000000000000000000000000000000000000000000000000000000000000163003610b705760405162461bcd60e51b8152600401610458906128dd565b7f00000000000000000000000000000000000000000000000000000000000000006001600160a01b0316610bb9600080516020612cf7833981519152546001600160a01b031690565b6001600160a01b031614610bdf5760405162461bcd60e51b815260040161045890612929565b610be882611d07565b610bf482826001611d96565b5050565b6000306001600160a01b037f00000000000000000000000000000000000000000000000000000000000000001614610c985760405162461bcd60e51b815260206004820152603860248201527f555550535570677261646561626c653a206d757374206e6f742062652063616c60448201527f6c6564207468726f7567682064656c656761746563616c6c00000000000000006064820152608401610458565b50600080516020612cf783398151915290565b60fc6020526000908152604090208054600182015460028301546003840154600485015460058601546006870180546001600160a01b03978816989787169763ffffffff600160a01b8904811698600160c01b8104821698600160e01b9091049091169660ff90911695909490939092610d2490612799565b80601f0160208091040260200160405190810160405280929190818152602001828054610d5090612799565b8015610d9d5780601f10610d7257610100808354040283529160200191610d9d565b820191906000526020600020905b815481529060010190602001808311610d8057829003601f168201915b505050505090508a565b600260c95403610df95760405162461bcd60e51b815260206004820152601f60248201527f5265656e7472616e637947756172643a207265656e7472616e742063616c6c006044820152606401610458565b600260c955610e06611b34565b600082815260fc60205260409020600181015463ffffffff600160c01b8204811691600160a01b9004164281610e765760405162461bcd60e51b8152602060048201526015602482015274105d58dd1a5bdb88191bd95cdb89dd08195e1a5cdd605a1b6044820152606401610458565b81811015610ebe5760405162461bcd60e51b815260206004820152601560248201527441756374696f6e206e6f7420617661696c61626c6560581b6044820152606401610458565b821580610eca57508083115b610f0a5760405162461bcd60e51b8152602060048201526011602482015270105d58dd1a5bdb881a185cc8195b991959607a1b6044820152606401610458565b600284015460ff1615610f2f5760405162461bcd60e51b815260040161045890612762565b600085118015610f43575083600301548510155b610f8f5760405162461bcd60e51b815260206004820152601960248201527f426964206973206c6f776572207468616e206d696e696d756d000000000000006044820152606401610458565b612710610f9d606482612975565b8560040154610fac9190612868565b610fb69190612887565b8510156110155760405162461bcd60e51b815260206004820152602760248201527f426964206973206c6f776572207468616e20686967686573742062696420696e60448201526618dc995b595b9d60ca1b6064820152608401610458565b60fd546040516323b872dd60e01b8152336004820152306024820152604481018790526001600160a01b03909116906323b872dd906064016020604051808303816000875af115801561106c573d6000803e3d6000fd5b505050506040513d601f19601f8201168201806040525081019061109091906126b5565b5083546004850180546001600160a01b0319831633178755908790556001600160a01b039091169081156111375760fd5460405163a9059cbb60e01b81526001600160a01b038481166004830152602482018490529091169063a9059cbb906044016020604051808303816000875af1158015611111573d6000803e3d6000fd5b505050506040513d601f19601f8201168201806040525081019061113591906126b5565b505b8460000361118257600186015461115b90600160e01b900463ffffffff1684612975565b8660010160186101000a81548163ffffffff021916908363ffffffff1602179055506111c4565b61025861118f84876128c6565b10156111c4576111a161025884612975565b60018701805463ffffffff60c01b1916600160c01b63ffffffff84160217905594505b60408051888152602081018790526001600160a01b0384169133918b917f2808decb743a25d04efe1bd3dc192acde3be644e2f6ad1dce5d3c46643e1c602910160405180910390a45050600160c955505050505050565b60fb54604051632474521560e21b8152600080516020612d3e83398151915260048201523360248201526001600160a01b03909116906391d1485490604401602060405180830381865afa158015611277573d6000803e3d6000fd5b505050506040513d601f19601f8201168201806040525081019061129b91906126b5565b6112b75760405162461bcd60e51b8152600401610458906126d2565b6112c7608082016060830161298d565b63ffffffff16158061130257506112e4606082016040830161298d565b63ffffffff166112fa608083016060840161298d565b63ffffffff16115b6113455760405162461bcd60e51b8152602060048201526014602482015273496e76616c69642061756374696f6e2074696d6560601b6044820152606401610458565b610100810135600090815260fc6020526040902060010154600160a01b900463ffffffff16156113b05760405162461bcd60e51b815260206004820152601660248201527541756374696f6e20616c72656164792065786973747360501b6044820152606401610458565b610100810135600090815260fc6020526040902081906113d08282612b34565b9050506113db611b7a565b610100820135600081815260fe6020908152604091829020939093557f5d551e2a2cc977fd8c530317059b4f2d9f504fb82f7dfad736f8d56679bcdfd09261142791850190850161233a565b604080519283526001600160a01b0390911660208301520160405180910390a150565b604080516101408101825260008082526020820181905291810182905260608082018390526080820183905260a0820183905260c0820183905260e08201839052610100820192909252610120810191909152600082815260fc602090815260409182902082516101408101845281546001600160a01b03908116825260018301549081169382019390935263ffffffff600160a01b8404811694820194909452600160c01b830484166060820152600160e01b9092049092166080820152600282015460ff16151560a0820152600382015460c0820152600482015460e082015260058201546101008201526006820180549192916101208401919061155090612799565b80601f016020809104026020016040519081016040528092919081815260200182805461157c90612799565b80156115c95780601f1061159e576101008083540402835291602001916115c9565b820191906000526020600020905b8154815290600101906020018083116115ac57829003601f168201915b5050505050815250509050919050565b60fb54604051632474521560e21b8152600080516020612d3e83398151915260048201523360248201526001600160a01b03909116906391d1485490604401602060405180830381865afa158015611635573d6000803e3d6000fd5b505050506040513d601f19601f8201168201806040525081019061165991906126b5565b6116755760405162461bcd60e51b8152600401610458906126d2565b6109db611fa9565b60fb54604051632474521560e21b8152600080516020612d3e83398151915260048201523360248201526001600160a01b03909116906391d1485490604401602060405180830381865afa1580156116d9573d6000803e3d6000fd5b505050506040513d601f19601f820116820180604052508101906116fd91906126b5565b6117195760405162461bcd60e51b8152600401610458906126d2565b600083815260fc602052604090206002015460ff161561174b5760405162461bcd60e51b815260040161045890612762565b600083815260fc6020526040902060010154600160a01b900463ffffffff166117aa5760405162461bcd60e51b8152602060048201526011602482015270105d58dd1a5bdb881b9bdd08199bdd5b99607a1b6044820152606401610458565b600092835260fc60205260409092206003810191909155600101805463ffffffff909216600160c01b0263ffffffff60c01b19909216919091179055565b60fb54604051632474521560e21b8152600080516020612d3e83398151915260048201523360248201526001600160a01b03909116906391d1485490604401602060405180830381865afa158015611844573d6000803e3d6000fd5b505050506040513d601f19601f8201168201806040525081019061186891906126b5565b6118845760405162461bcd60e51b8152600401610458906126d2565b600081815260fc60205260409020600281015460ff16156118e75760405162461bcd60e51b815260206004820152601b60248201527f41756374696f6e20697320616c72656164792066696e697368656400000000006044820152606401610458565b80546004820180546001600160a01b03198316845560009091556001600160a01b0390911690811561198c5760fd5460405163a9059cbb60e01b81526001600160a01b038481166004830152602482018490529091169063a9059cbb906044016020604051808303816000875af1158015611966573d6000803e3d6000fd5b505050506040513d601f19601f8201168201806040525081019061198a91906126b5565b505b600084815260fc6020526040808220600201805460ff19166001179055516001600160a01b0384169186917f10ac9f0bb365b5d22d7bec500408692f23fdf83eadfec71615ef88b4c1134f0e9190a350505050565b60fb54604051632474521560e21b8152600080516020612d3e83398151915260048201523360248201526001600160a01b03909116906391d1485490604401602060405180830381865afa158015611a3d573d6000803e3d6000fd5b505050506040513d601f19601f82011682018060405250810190611a6191906126b5565b611a7d5760405162461bcd60e51b8152600401610458906126d2565b612710811115611abf5760405162461bcd60e51b815260206004820152600d60248201526c496e76616c696420736861726560981b6044820152606401610458565b600082815260fc6020526040902060010154600160a01b900463ffffffff16611b225760405162461bcd60e51b8152602060048201526015602482015274105d58dd1a5bdb88191bd95cdb89dd08195e1a5cdd605a1b6044820152606401610458565b600091825260fe602052604090912055565b60975460ff16156109db5760405162461bcd60e51b815260206004820152601060248201526f14185d5cd8589b194e881c185d5cd95960821b6044820152606401610458565b60fb546040516d616464726573732e636f6e66696760901b602082015260009182916001600160a01b03909116906321f8a72190602e01604051602081830303815290604052805190602001206040518263ffffffff1660e01b8152600401611be591815260200190565b602060405180830381865afa158015611c02573d6000803e3d6000fd5b505050506040513d601f19601f82011682018060405250810190611c2691906128a9565b90506001600160a01b038116611c3f57611f4091505090565b6000816001600160a01b031663bd02d0f5604051602001611c7990721cda185c994b9c1c9a5b585c9e505c9d1a5cdd606a1b815260130190565b604051602081830303815290604052805190602001206040518263ffffffff1660e01b8152600401611cad91815260200190565b602060405180830381865afa158015611cca573d6000803e3d6000fd5b505050506040513d601f19601f82011682018060405250810190611cee9190612c6d565b90508015611cfc5780611d00565b611f405b9250505090565b60fb54604051632474521560e21b8152600060048201523360248201526001600160a01b03909116906391d1485490604401602060405180830381865afa158015611d56573d6000803e3d6000fd5b505050506040513d601f19601f82011682018060405250810190611d7a91906126b5565b6109345760405162461bcd60e51b8152600401610458906126d2565b7f4910fdfa16fed3260ed0e7147f7cc6da11a60208b5b9406d12a635614ffd91435460ff1615611dc957610b2383611fe6565b826001600160a01b03166352d1902d6040518163ffffffff1660e01b8152600401602060405180830381865afa925050508015611e23575060408051601f3d908101601f19168201909252611e2091810190612c6d565b60015b611e865760405162461bcd60e51b815260206004820152602e60248201527f45524331393637557067726164653a206e657720696d706c656d656e7461746960448201526d6f6e206973206e6f74205555505360901b6064820152608401610458565b600080516020612cf78339815191528114611ef55760405162461bcd60e51b815260206004820152602960248201527f45524331393637557067726164653a20756e737570706f727465642070726f786044820152681a58589b195555525160ba1b6064820152608401610458565b50610b23838383612082565b611f096120a7565b6097805460ff191690557f5db9ee0a495bf2e6ff9c91a7834c1ba4fdd244a5e8aa4e537bd38aeae4b073aa335b6040516001600160a01b03909116815260200160405180910390a1565b600054610100900460ff16611f7a5760405162461bcd60e51b815260040161045890612c86565b6109db6120f0565b600054610100900460ff166109db5760405162461bcd60e51b815260040161045890612c86565b611fb1611b34565b6097805460ff191660011790557f62e78cea01bee320cd4e420270b5ea74000d11b0c9f74754ebdbfc544b05a258611f363390565b6001600160a01b0381163b6120535760405162461bcd60e51b815260206004820152602d60248201527f455243313936373a206e657720696d706c656d656e746174696f6e206973206e60448201526c1bdd08184818dbdb9d1c9858dd609a1b6064820152608401610458565b600080516020612cf783398151915280546001600160a01b0319166001600160a01b0392909216919091179055565b61208b83612123565b6000825111806120985750805b15610b23576104a48383612163565b60975460ff166109db5760405162461bcd60e51b815260206004820152601460248201527314185d5cd8589b194e881b9bdd081c185d5cd95960621b6044820152606401610458565b600054610100900460ff166121175760405162461bcd60e51b815260040161045890612c86565b6097805460ff19169055565b61212c81611fe6565b6040516001600160a01b038216907fbc7cd75a20ee27fd9adebab32041f755214dbc6bffa90cc0225b39da2e5c2d3b90600090a250565b60606001600160a01b0383163b6121cb5760405162461bcd60e51b815260206004820152602660248201527f416464726573733a2064656c65676174652063616c6c20746f206e6f6e2d636f6044820152651b9d1c9858dd60d21b6064820152608401610458565b600080846001600160a01b0316846040516121e69190612cd1565b600060405180830381855af49150503d8060008114612221576040519150601f19603f3d011682016040523d82523d6000602084013e612226565b606091505b509150915061224e8282604051806060016040528060278152602001612d1760279139612257565b95945050505050565b60608315612266575081612290565b8251156122765782518084602001fd5b8160405162461bcd60e51b81526004016104589190612ce3565b9392505050565b600080602083850312156122aa57600080fd5b823567ffffffffffffffff808211156122c257600080fd5b818501915085601f8301126122d657600080fd5b8135818111156122e557600080fd5b8660208260051b85010111156122fa57600080fd5b60209290920196919550909350505050565b60006020828403121561231e57600080fd5b5035919050565b6001600160a01b038116811461093457600080fd5b60006020828403121561234c57600080fd5b813561229081612325565b6000806040838503121561236a57600080fd5b823561237581612325565b9150602083013561238581612325565b809150509250929050565b634e487b7160e01b600052604160045260246000fd5b600080604083850312156123b957600080fd5b82356123c481612325565b9150602083013567ffffffffffffffff808211156123e157600080fd5b818501915085601f8301126123f557600080fd5b81358181111561240757612407612390565b604051601f8201601f19908116603f0116810190838211818310171561242f5761242f612390565b8160405282815288602084870101111561244857600080fd5b8260208601602083013760006020848301015280955050505050509250929050565b60005b8381101561248557818101518382015260200161246d565b838111156104a45750506000910152565b600081518084526124ae81602086016020860161246a565b601f01601f19169290920160200192915050565b6001600160a01b038b811682528a16602082015263ffffffff898116604083015288811660608301528716608082015285151560a082015260c0810185905260e081018490526101008101839052610140610120820181905260009061252a83820185612496565b9d9c50505050505050505050505050565b6000806040838503121561254e57600080fd5b50508035926020909101359150565b60006020828403121561256f57600080fd5b813567ffffffffffffffff81111561258657600080fd5b8201610140818503121561229057600080fd5b602081526125b36020820183516001600160a01b03169052565b600060208301516125cf60408401826001600160a01b03169052565b50604083015163ffffffff8116606084015250606083015163ffffffff8116608084015250608083015163ffffffff811660a08401525060a083015180151560c08401525060c083015160e083810191909152830151610100808401919091528301516101208084019190915283015161014080840152612654610160840182612496565b949350505050565b63ffffffff8116811461093457600080fd5b60008060006060848603121561268357600080fd5b8335925060208401359150604084013561269c8161265c565b809150509250925092565b801515811461093457600080fd5b6000602082840312156126c757600080fd5b8151612290816126a7565b60208082526010908201526f41646d696e2063616c6c73206f6e6c7960801b604082015260600190565b634e487b7160e01b600052603260045260246000fd5b6000823561013e1983360301811261272957600080fd5b9190910192915050565b634e487b7160e01b600052601160045260246000fd5b60006001820161275b5761275b612733565b5060010190565b60208082526017908201527f41756374696f6e20616c726561647920736574746c6564000000000000000000604082015260600190565b600181811c908216806127ad57607f821691505b6020821081036127cd57634e487b7160e01b600052602260045260246000fd5b50919050565b60018060a01b038316815260006020604081840152600084546127f581612799565b8060408701526060600180841660008114612817576001811461282b57612859565b60ff19851689840152608089019550612859565b896000528660002060005b858110156128515781548b8201860152908301908801612836565b8a0184019650505b50939998505050505050505050565b600081600019048311821515161561288257612882612733565b500290565b6000826128a457634e487b7160e01b600052601260045260246000fd5b500490565b6000602082840312156128bb57600080fd5b815161229081612325565b6000828210156128d8576128d8612733565b500390565b6020808252602c908201527f46756e6374696f6e206d7573742062652063616c6c6564207468726f7567682060408201526b19195b1959d85d1958d85b1b60a21b606082015260800190565b6020808252602c908201527f46756e6374696f6e206d7573742062652063616c6c6564207468726f7567682060408201526b6163746976652070726f787960a01b606082015260800190565b6000821982111561298857612988612733565b500190565b60006020828403121561299f57600080fd5b81356122908161265c565b600081356129b781612325565b92915050565b600081356129b78161265c565b600081356129b7816126a7565b6000808335601e198436030181126129ee57600080fd5b83018035915067ffffffffffffffff821115612a0957600080fd5b602001915036819003821315612a1e57600080fd5b9250929050565b601f821115610b2357600081815260208120601f850160051c81016020861015612a4c5750805b601f850160051c820191505b81811015612a6b57828155600101612a58565b505050505050565b67ffffffffffffffff831115612a8b57612a8b612390565b612a9f83612a998354612799565b83612a25565b6000601f841160018114612ad35760008515612abb5750838201355b600019600387901b1c1916600186901b178355612b2d565b600083815260209020601f19861690835b82811015612b045786850135825560209485019460019092019101612ae4565b5086821015612b215760001960f88860031b161c19848701351681555b505060018560011b0183555b5050505050565b612b5d612b40836129aa565b82546001600160a01b0319166001600160a01b0391909116178255565b60018101612b70612b40602085016129aa565b612ba3612b7f604085016129bd565b82805463ffffffff60a01b191660a09290921b63ffffffff60a01b16919091179055565b612bd6612bb2606085016129bd565b82805463ffffffff60c01b191660c09290921b63ffffffff60c01b16919091179055565b612c09612be5608085016129bd565b8280546001600160e01b031660e09290921b6001600160e01b031916919091179055565b50612c32612c1960a084016129ca565b6002830160ff1981541660ff8315151681178255505050565b60c0820135600382015560e082013560048201556101008201356005820155612c5f6101208301836129d7565b6104a4818360068601612a73565b600060208284031215612c7f57600080fd5b5051919050565b6020808252602b908201527f496e697469616c697a61626c653a20636f6e7472616374206973206e6f74206960408201526a6e697469616c697a696e6760a81b606082015260800190565b6000825161272981846020870161246a565b602081526000612290602083018461249656fe360894a13ba1a3210667c828492db98dca3e2076cc3735a920a3ca505d382bbc416464726573733a206c6f772d6c6576656c2064656c65676174652063616c6c206661696c6564e303cb88ace8c9e6ba216f1aecb44b3206dcab364c60512ffc6cbc920a1bf9d1a2646970667358221220d47ab6c147f372e7e6ad2fc9df0fdd9bbef6a2bbd1f1a70500d7c15e70ca77f864736f6c634300080e0033",
  "linkReferences": {},
  "deployedLinkReferences": {}
}