{
  "_format": "hh-sol-artifact-1",
  "contractName": "Auction",
  "sourceName": "contracts/Auction/Auction.sol",
  "abi": [
    {
      "inputs": [],
      "stateMutability": "nonpayable",
      "type": "constructor"
    },
    {
      "anonymous": false,
      "inputs": [
        {
          "indexed": false,
          "internalType": "address",
          "name": "previousAdmin",
          "type": "address"
        },
        {
          "indexed": false,
          "internalType": "address",
          "name": "newAdmin",
          "type": "address"
        }
      ],
      "name": "AdminChanged",
      "type": "event"
    },
    {
      "anonymous": false,
      "inputs": [
        {
          "indexed": true,
          "internalType": "uint256",
          "name": "auctionId",
          "type": "uint256"
        },
        {
          "indexed": true,
          "internalType": "address",
          "name": "previousBidder",
          "type": "address"
        }
      ],
      "name": "AuctionCancelled",
      "type": "event"
    },
    {
      "anonymous": false,
      "inputs": [
        {
          "indexed": false,
          "internalType": "uint256",
          "name": "auctionId",
          "type": "uint256"
        },
        {
          "indexed": false,
          "internalType": "address",
          "name": "nftContract",
          "type": "address"
        }
      ],
      "name": "AuctionCreated",
      "type": "event"
    },
    {
      "anonymous": false,
      "inputs": [
        {
          "indexed": true,
          "internalType": "uint256",
          "name": "auctionId",
          "type": "uint256"
        },
        {
          "indexed": true,
          "internalType": "address",
          "name": "highestBidder",
          "type": "address"
        },
        {
          "indexed": false,
          "internalType": "uint256",
          "name": "highestBid",
          "type": "uint256"
        }
      ],
      "name": "AuctionSettled",
      "type": "event"
    },
    {
      "anonymous": false,
      "inputs": [
        {
          "indexed": true,
          "internalType": "address",
          "name": "beacon",
          "type": "address"
        }
      ],
      "name": "BeaconUpgraded",
      "type": "event"
    },
    {
      "anonymous": false,
      "inputs": [
        {
          "indexed": true,
          "internalType": "uint256",
          "name": "auctionId",
          "type": "uint256"
        },
        {
          "indexed": true,
          "internalType": "address",
          "name": "newBidder",
          "type": "address"
        },
        {
          "indexed": true,
          "internalType": "address",
          "name": "previousBidder",
          "type": "address"
        },
        {
          "indexed": false,
          "internalType": "uint256",
          "name": "bidAmount",
          "type": "uint256"
        },
        {
          "indexed": false,
          "internalType": "uint256",
          "name": "newEndTime",
          "type": "uint256"
        }
      ],
      "name": "BidPlaced",
      "type": "event"
    },
    {
      "anonymous": false,
      "inputs": [
        {
          "indexed": false,
          "internalType": "uint8",
          "name": "version",
          "type": "uint8"
        }
      ],
      "name": "Initialized",
      "type": "event"
    },
    {
      "anonymous": false,
      "inputs": [
        {
          "indexed": false,
          "internalType": "address",
          "name": "account",
          "type": "address"
        }
      ],
      "name": "Paused",
      "type": "event"
    },
    {
      "anonymous": false,
      "inputs": [
        {
          "indexed": false,
          "internalType": "address",
          "name": "account",
          "type": "address"
        }
      ],
      "name": "Unpaused",
      "type": "event"
    },
    {
      "anonymous": false,
      "inputs": [
        {
          "indexed": true,
          "internalType": "address",
          "name": "implementation",
          "type": "address"
        }
      ],
      "name": "Upgraded",
      "type": "event"
    },
    {
      "inputs": [],
      "name": "DEFAULT_EXTENSION",
      "outputs": [
        {
          "internalType": "uint256",
          "name": "",
          "type": "uint256"
        }
      ],
      "stateMutability": "view",
      "type": "function"
    },
    {
      "inputs": [],
      "name": "NATIVE_CURRENCY",
      "outputs": [
        {
          "internalType": "address",
          "name": "",
          "type": "address"
        }
      ],
      "stateMutability": "view",
      "type": "function"
    },
    {
      "inputs": [
        {
          "internalType": "uint256",
          "name": "",
          "type": "uint256"
        }
      ],
      "name": "auctionArtistShare",
      "outputs": [
        {
          "internalType": "uint256",
          "name": "",
          "type": "uint256"
        }
      ],
      "stateMutability": "view",
      "type": "function"
    },
    {
      "inputs": [
        {
          "internalType": "uint256",
          "name": "",
          "type": "uint256"
        }
      ],
      "name": "auctionCurrency",
      "outputs": [
        {
          "internalType": "address",
          "name": "",
          "type": "address"
        }
      ],
      "stateMutability": "view",
      "type": "function"
    },
    {
      "inputs": [
        {
          "internalType": "uint256",
          "name": "",
          "type": "uint256"
        }
      ],
      "name": "auctions",
      "outputs": [
        {
          "internalType": "address",
          "name": "highestBidder",
          "type": "address"
        },
        {
          "internalType": "contract INFT",
          "name": "nftContract",
          "type": "address"
        },
        {
          "internalType": "uint32",
          "name": "startTime",
          "type": "uint32"
        },
        {
          "internalType": "uint32",
          "name": "endTime",
          "type": "uint32"
        },
        {
          "internalType": "uint32",
          "name": "duration",
          "type": "uint32"
        },
        {
          "internalType": "bool",
          "name": "settled",
          "type": "bool"
        },
        {
          "internalType": "uint256",
          "name": "minimumPrice",
          "type": "uint256"
        },
        {
          "internalType": "uint256",
          "name": "highestBid",
          "type": "uint256"
        },
        {
          "internalType": "uint256",
          "name": "auctionId",
          "type": "uint256"
        },
        {
          "internalType": "string",
          "name": "nftUri",
          "type": "string"
        }
      ],
      "stateMutability": "view",
      "type": "function"
    },
    {
      "inputs": [
        {
          "internalType": "uint256",
          "name": "_auctionId",
          "type": "uint256"
        },
        {
          "internalType": "uint256",
          "name": "_amount",
          "type": "uint256"
        }
      ],
      "name": "bid",
      "outputs": [],
      "stateMutability": "payable",
      "type": "function"
    },
    {
      "inputs": [
        {
          "internalType": "uint256",
          "name": "_auctionId",
          "type": "uint256"
        }
      ],
      "name": "cancelAuction",
      "outputs": [],
      "stateMutability": "nonpayable",
      "type": "function"
    },
    {
      "inputs": [
        {
          "components": [
            {
              "internalType": "address",
              "name": "highestBidder",
              "type": "address"
            },
            {
              "internalType": "contract INFT",
              "name": "nftContract",
              "type": "address"
            },
            {
              "internalType": "uint32",
              "name": "startTime",
              "type": "uint32"
            },
            {
              "internalType": "uint32",
              "name": "endTime",
              "type": "uint32"
            },
            {
              "internalType": "uint32",
              "name": "duration",
              "type": "uint32"
            },
            {
              "internalType": "bool",
              "name": "settled",
              "type": "bool"
            },
            {
              "internalType": "uint256",
              "name": "minimumPrice",
              "type": "uint256"
            },
            {
              "internalType": "uint256",
              "name": "highestBid",
              "type": "uint256"
            },
            {
              "internalType": "uint256",
              "name": "auctionId",
              "type": "uint256"
            },
            {
              "internalType": "string",
              "name": "nftUri",
              "type": "string"
            }
          ],
          "internalType": "struct Auction.AuctionInfo",
          "name": "_auctionInfo",
          "type": "tuple"
        }
      ],
      "name": "createAuction",
      "outputs": [],
      "stateMutability": "nonpayable",
      "type": "function"
    },
    {
      "inputs": [
        {
          "components": [
            {
              "internalType": "address",
              "name": "highestBidder",
              "type": "address"
            },
            {
              "internalType": "contract INFT",
              "name": "nftContract",
              "type": "address"
            },
            {
              "internalType": "uint32",
              "name": "startTime",
              "type": "uint32"
            },
            {
              "internalType": "uint32",
              "name": "endTime",
              "type": "uint32"
            },
            {
              "internalType": "uint32",
              "name": "duration",
              "type": "uint32"
            },
            {
              "internalType": "bool",
              "name": "settled",
              "type": "bool"
            },
            {
              "internalType": "uint256",
              "name": "minimumPrice",
              "type": "uint256"
            },
            {
              "internalType": "uint256",
              "name": "highestBid",
              "type": "uint256"
            },
            {
              "internalType": "uint256",
              "name": "auctionId",
              "type": "uint256"
            },
            {
              "internalType": "string",
              "name": "nftUri",
              "type": "string"
            }
          ],
          "internalType": "struct Auction.AuctionInfo[]",
          "name": "_auctions",
          "type": "tuple[]"
        }
      ],
      "name": "createAuctionBatch",
      "outputs": [],
      "stateMutability": "nonpayable",
      "type": "function"
    },
    {
      "inputs": [
        {
          "components": [
            {
              "internalType": "address",
              "name": "highestBidder",
              "type": "address"
            },
            {
              "internalType": "contract INFT",
              "name": "nftContract",
              "type": "address"
            },
            {
              "internalType": "uint32",
              "name": "startTime",
              "type": "uint32"
            },
            {
              "internalType": "uint32",
              "name": "endTime",
              "type": "uint32"
            },
            {
              "internalType": "uint32",
              "name": "duration",
              "type": "uint32"
            },
            {
              "internalType": "bool",
              "name": "settled",
              "type": "bool"
            },
            {
              "internalType": "uint256",
              "name": "minimumPrice",
              "type": "uint256"
            },
            {
              "internalType": "uint256",
              "name": "highestBid",
              "type": "uint256"
            },
            {
              "internalType": "uint256",
              "name": "auctionId",
              "type": "uint256"
            },
            {
              "internalType": "string",
              "name": "nftUri",
              "type": "string"
            }
          ],
          "internalType": "struct Auction.AuctionInfo",
          "name": "_auctionInfo",
          "type": "tuple"
        },
        {
          "internalType": "address",
          "name": "_currency",
          "type": "address"
        }
      ],
      "name": "createAuctionWithCurrency",
      "outputs": [],
      "stateMutability": "nonpayable",
      "type": "function"
    },
    {
      "inputs": [
        {
          "internalType": "uint256",
          "name": "_auctionId",
          "type": "uint256"
        }
      ],
      "name": "getAuction",
      "outputs": [
        {
          "components": [
            {
              "internalType": "address",
              "name": "highestBidder",
              "type": "address"
            },
            {
              "internalType": "contract INFT",
              "name": "nftContract",
              "type": "address"
            },
            {
              "internalType": "uint32",
              "name": "startTime",
              "type": "uint32"
            },
            {
              "internalType": "uint32",
              "name": "endTime",
              "type": "uint32"
            },
            {
              "internalType": "uint32",
              "name": "duration",
              "type": "uint32"
            },
            {
              "internalType": "bool",
              "name": "settled",
              "type": "bool"
            },
            {
              "internalType": "uint256",
              "name": "minimumPrice",
              "type": "uint256"
            },
            {
              "internalType": "uint256",
              "name": "highestBid",
              "type": "uint256"
            },
            {
              "internalType": "uint256",
              "name": "auctionId",
              "type": "uint256"
            },
            {
              "internalType": "string",
              "name": "nftUri",
              "type": "string"
            }
          ],
          "internalType": "struct Auction.AuctionInfo",
          "name": "",
          "type": "tuple"
        }
      ],
      "stateMutability": "view",
      "type": "function"
    },
    {
      "inputs": [],
      "name": "getBidIncrementPercentage",
      "outputs": [
        {
          "internalType": "uint256",
          "name": "",
          "type": "uint256"
        }
      ],
      "stateMutability": "pure",
      "type": "function"
    },
    {
      "inputs": [
        {
          "internalType": "address",
          "name": "_token",
          "type": "address"
        },
        {
          "internalType": "address",
          "name": "_storage",
          "type": "address"
        }
      ],
      "name": "initialize",
      "outputs": [],
      "stateMutability": "nonpayable",
      "type": "function"
    },
    {
      "inputs": [],
      "name": "pause",
      "outputs": [],
      "stateMutability": "nonpayable",
      "type": "function"
    },
    {
      "inputs": [],
      "name": "paused",
      "outputs": [
        {
          "internalType": "bool",
          "name": "",
          "type": "bool"
        }
      ],
      "stateMutability": "view",
      "type": "function"
    },
    {
      "inputs": [
        {
          "internalType": "address",
          "name": "",
          "type": "address"
        }
      ],
      "name": "pendingReturns",
      "outputs": [
        {
          "internalType": "uint256",
          "name": "",
          "type": "uint256"
        }
      ],
      "stateMutability": "view",
      "type": "function"
    },
    {
      "inputs": [],
      "name": "proxiableUUID",
      "outputs": [
        {
          "internalType": "bytes32",
          "name": "",
          "type": "bytes32"
        }
      ],
      "stateMutability": "view",
      "type": "function"
    },
    {
      "inputs": [
        {
          "internalType": "uint256",
          "name": "_auctionId",
          "type": "uint256"
        },
        {
          "internalType": "uint256",
          "name": "_shareBps",
          "type": "uint256"
        }
      ],
      "name": "setAuctionArtistShare",
      "outputs": [],
      "stateMutability": "nonpayable",
      "type": "function"
    },
    {
      "inputs": [
        {
          "internalType": "address",
          "name": "_ref",
          "type": "address"
        }
      ],
      "name": "setTrustedNftReference",
      "outputs": [],
      "stateMutability": "nonpayable",
      "type": "function"
    },
    {
      "inputs": [
        {
          "internalType": "uint256",
          "name": "_auctionId",
          "type": "uint256"
        }
      ],
      "name": "settleAuction",
      "outputs": [],
      "stateMutability": "nonpayable",
      "type": "function"
    },
    {
      "inputs": [],
      "name": "token",
      "outputs": [
        {
          "internalType": "contract IERC20",
          "name": "",
          "type": "address"
        }
      ],
      "stateMutability": "view",
      "type": "function"
    },
    {
      "inputs": [],
      "name": "trustedNftReference",
      "outputs": [
        {
          "internalType": "address",
          "name": "",
          "type": "address"
        }
      ],
      "stateMutability": "view",
      "type": "function"
    },
    {
      "inputs": [],
      "name": "unpause",
      "outputs": [],
      "stateMutability": "nonpayable",
      "type": "function"
    },
    {
      "inputs": [
        {
          "internalType": "uint256",
          "name": "_auctionId",
          "type": "uint256"
        },
        {
          "internalType": "uint256",
          "name": "_minimumPrice",
          "type": "uint256"
        },
        {
          "internalType": "uint32",
          "name": "_endTime",
          "type": "uint32"
        }
      ],
      "name": "updateAuction",
      "outputs": [],
      "stateMutability": "nonpayable",
      "type": "function"
    },
    {
      "inputs": [
        {
          "internalType": "address",
          "name": "newImplementation",
          "type": "address"
        }
      ],
      "name": "upgradeTo",
      "outputs": [],
      "stateMutability": "nonpayable",
      "type": "function"
    },
    {
      "inputs": [
        {
          "internalType": "address",
          "name": "newImplementation",
          "type": "address"
        },
        {
          "internalType": "bytes",
          "name": "data",
          "type": "bytes"
        }
      ],
      "name": "upgradeToAndCall",
      "outputs": [],
      "stateMutability": "payable",
      "type": "function"
    },
    {
      "inputs": [],
      "name": "withdrawPendingReturns",
      "outputs": [],
      "stateMutability": "nonpayable",
      "type": "function"
    }
  ],
  "bytecode": "0x60a0604052306080523480156200001557600080fd5b506200002062000026565b620000e8565b600054610100900460ff1615620000935760405162461bcd60e51b815260206004820152602760248201527f496e697469616c697a61626c653a20636f6e747261637420697320696e697469604482015266616c697a696e6760c81b606482015260840160405180910390fd5b60005460ff9081161015620000e6576000805460ff191660ff9081179091556040519081527f7f26b83ff96e1f2b6a682f133852f6798a09c465da95921460cefb38474024989060200160405180910390a15b565b60805161350d6200012060003960008181610a8c01528181610acc01528181610d5c01528181610d9c0152610e2f015261350d6000f3fe60806040526004361061019c5760003560e01c8063598647f8116100ec5780639a096a501161008a578063daeec67611610064578063daeec676146104b0578063ec290215146104d0578063ede95905146104e5578063fc0c546a1461051257600080fd5b80639a096a5014610444578063a473205c1461047a578063d4a22c321461049057600080fd5b806378bd7935116100c657806378bd7935146103c25780638456cb59146103ef5780638f8038421461040457806396b5a7551461042457600080fd5b8063598647f81461036c5780635c975abb1461037f5780635e6c1d63146103a257600080fd5b80633f4ba83a1161015957806349f426501161013357806349f42650146102e65780634f1ef2861461030e57806352d1902d14610321578063571a26a01461033657600080fd5b80633f4ba83a1461029d578063481b13d2146102b2578063485cc955146102c657600080fd5b806306ef081f146101a157806326b387bb146101c357806329a9c277146102045780632bb36adc1461023d5780632e9936111461025d5780633659cfe61461027d575b600080fd5b3480156101ad57600080fd5b506101c16101bc366004612984565b610532565b005b3480156101cf57600080fd5b506101f16101de3660046129d6565b6101006020526000908152604090205481565b6040519081526020015b60405180910390f35b34801561021057600080fd5b5061010154610225906001600160a01b031681565b6040516001600160a01b0390911681526020016101fb565b34801561024957600080fd5b506101c16102583660046129f3565b610728565b34801561026957600080fd5b506101c1610278366004612a68565b610771565b34801561028957600080fd5b506101c16102983660046129d6565b610a82565b3480156102a957600080fd5b506101c1610b61565b3480156102be57600080fd5b5060646101f1565b3480156102d257600080fd5b506101c16102e1366004612a81565b610c07565b3480156102f257600080fd5b5061022573eeeeeeeeeeeeeeeeeeeeeeeeeeeeeeeeeeeeeeee81565b6101c161031c366004612ac5565b610d52565b34801561032d57600080fd5b506101f1610e22565b34801561034257600080fd5b50610356610351366004612a68565b610ed5565b6040516101fb9a99989796959493929190612be1565b6101c161037a366004612c5a565b610fd1565b34801561038b57600080fd5b5060975460ff1660405190151581526020016101fb565b3480156103ae57600080fd5b506101c16103bd366004612c7c565b611472565b3480156103ce57600080fd5b506103e26103dd366004612a68565b61173f565b6040516101fb9190612cb9565b3480156103fb57600080fd5b506101c16118ce565b34801561041057600080fd5b506101c161041f366004612d86565b611972565b34801561043057600080fd5b506101c161043f366004612a68565b611add565b34801561045057600080fd5b5061022561045f366004612a68565b60ff602052600090815260409020546001600160a01b031681565b34801561048657600080fd5b506101f161025881565b34801561049c57600080fd5b506101c16104ab366004612c5a565b611ca2565b3480156104bc57600080fd5b506101c16104cb3660046129d6565b611e8b565b3480156104dc57600080fd5b506101c1611f4a565b3480156104f157600080fd5b506101f1610500366004612a68565b60fe6020526000908152604090205481565b34801561051e57600080fd5b5060fd54610225906001600160a01b031681565b61054260408301602084016129d6565b60fb54604051632474521560e21b81526000805160206134b883398151915260048201523360248201526001600160a01b03909116906391d1485490604401602060405180830381865afa15801561059e573d6000803e3d6000fd5b505050506040513d601f19601f820116820180604052508101906105c29190612dcd565b8061064f57506105d18161206c565b801561064f5750806001600160a01b03166343bc16126040518163ffffffff1660e01b8152600401602060405180830381865afa158015610616573d6000803e3d6000fd5b505050506040513d601f19601f8201168201806040525081019061063a9190612dea565b6001600160a01b0316336001600160a01b0316145b6106745760405162461bcd60e51b815260040161066b90612e07565b60405180910390fd5b6001600160a01b03821615806106a657506001600160a01b03821673eeeeeeeeeeeeeeeeeeeeeeeeeeeeeeeeeeeeeeee145b6106e95760405162461bcd60e51b8152602060048201526014602482015273556e737570706f727465642063757272656e637960601b604482015260640161066b565b6106f283611472565b506101009190910135600090815260ff6020526040902080546001600160a01b0319166001600160a01b03909216919091179055565b8060005b8181101561076b5761075b84848381811061074957610749612e3e565b90506020028101906103bd9190612e54565b61076481612e8b565b905061072c565b50505050565b600260c954036107935760405162461bcd60e51b815260040161066b90612ea4565b600260c9556107a06120b6565b600081815260fc60205260409020600281015460ff16156107d35760405162461bcd60e51b815260040161066b90612edb565b6004810154815460018301546001600160a01b0390911690600160c01b900463ffffffff16801580159061080657508042115b6108525760405162461bcd60e51b815260206004820152601860248201527f41756374696f6e206973207374696c6c2072756e6e696e670000000000000000604482015260640161066b565b60028401805460ff191660011790556001600160a01b03821615610a32576001840154604051636902622f60e11b81526001600160a01b039091169063d204c45e906108a79085906006890190600401612f46565b600060405180830381600087803b1580156108c157600080fd5b505af11580156108d5573d6000803e3d6000fd5b505050600086815260fe602052604081205491508190036108fb576108f86120fc565b90505b600061271061090a8387612fdb565b6109149190612ffa565b600088815260ff60209081526040918290205460018a015483516321de0b0960e11b815293519495506001600160a01b03918216946109a494869493909216926343bc161292600480820193918290030181865afa15801561097a573d6000803e3d6000fd5b505050506040513d601f19601f8201168201806040525081019061099e9190612dea565b84612289565b610a2e8160fb60009054906101000a90046001600160a01b03166001600160a01b0316634783c35b6040518163ffffffff1660e01b8152600401602060405180830381865afa1580156109fb573d6000803e3d6000fd5b505050506040513d601f19601f82011682018060405250810190610a1f9190612dea565b610a29858a61301c565b612289565b5050505b816001600160a01b0316857fc9f72b276a388619c6d185d146697036241880c36654b1a3ffdad07c24038d9985604051610a6e91815260200190565b60405180910390a35050600160c955505050565b6001600160a01b037f0000000000000000000000000000000000000000000000000000000000000000163003610aca5760405162461bcd60e51b815260040161066b90613033565b7f00000000000000000000000000000000000000000000000000000000000000006001600160a01b0316610b13600080516020613471833981519152546001600160a01b031690565b6001600160a01b031614610b395760405162461bcd60e51b815260040161066b9061307f565b610b42816123c6565b60408051600080825260208201909252610b5e91839190612455565b50565b60fb54604051632474521560e21b81526000805160206134b883398151915260048201523360248201526001600160a01b03909116906391d1485490604401602060405180830381865afa158015610bbd573d6000803e3d6000fd5b505050506040513d601f19601f82011682018060405250810190610be19190612dcd565b610bfd5760405162461bcd60e51b815260040161066b906130cb565b610c056125c0565b565b600054610100900460ff1615808015610c275750600054600160ff909116105b80610c415750303b158015610c41575060005460ff166001145b610ca45760405162461bcd60e51b815260206004820152602e60248201527f496e697469616c697a61626c653a20636f6e747261637420697320616c72656160448201526d191e481a5b9a5d1a585b1a5e995960921b606482015260840161066b565b6000805460ff191660011790558015610cc7576000805461ff0019166101001790555b610ccf612612565b610cd7612641565b60fd80546001600160a01b038086166001600160a01b03199283161790925560fb8054928516929091169190911790558015610d4d576000805461ff0019169055604051600181527f7f26b83ff96e1f2b6a682f133852f6798a09c465da95921460cefb38474024989060200160405180910390a15b505050565b6001600160a01b037f0000000000000000000000000000000000000000000000000000000000000000163003610d9a5760405162461bcd60e51b815260040161066b90613033565b7f00000000000000000000000000000000000000000000000000000000000000006001600160a01b0316610de3600080516020613471833981519152546001600160a01b031690565b6001600160a01b031614610e095760405162461bcd60e51b815260040161066b9061307f565b610e12826123c6565b610e1e82826001612455565b5050565b6000306001600160a01b037f00000000000000000000000000000000000000000000000000000000000000001614610ec25760405162461bcd60e51b815260206004820152603860248201527f555550535570677261646561626c653a206d757374206e6f742062652063616c60448201527f6c6564207468726f7567682064656c656761746563616c6c0000000000000000606482015260840161066b565b5060008051602061347183398151915290565b60fc6020526000908152604090208054600182015460028301546003840154600485015460058601546006870180546001600160a01b03978816989787169763ffffffff600160a01b8904811698600160c01b8104821698600160e01b9091049091169660ff90911695909490939092610f4e90612f12565b80601f0160208091040260200160405190810160405280929190818152602001828054610f7a90612f12565b8015610fc75780601f10610f9c57610100808354040283529160200191610fc7565b820191906000526020600020905b815481529060010190602001808311610faa57829003601f168201915b505050505090508a565b600260c95403610ff35760405162461bcd60e51b815260040161066b90612ea4565b600260c9556110006120b6565b600082815260fc60205260409020600181015463ffffffff600160c01b8204811691600160a01b90041642816110705760405162461bcd60e51b8152602060048201526015602482015274105d58dd1a5bdb88191bd95cdb89dd08195e1a5cdd605a1b604482015260640161066b565b818110156110b85760405162461bcd60e51b815260206004820152601560248201527441756374696f6e206e6f7420617661696c61626c6560581b604482015260640161066b565b8215806110c457508083115b6111045760405162461bcd60e51b8152602060048201526011602482015270105d58dd1a5bdb881a185cc8195b991959607a1b604482015260640161066b565b600284015460ff16156111295760405162461bcd60e51b815260040161066b90612edb565b60008511801561113d575083600301548510155b6111895760405162461bcd60e51b815260206004820152601960248201527f426964206973206c6f776572207468616e206d696e696d756d00000000000000604482015260640161066b565b6127106111976064826130f5565b85600401546111a69190612fdb565b6111b09190612ffa565b85101561120f5760405162461bcd60e51b815260206004820152602760248201527f426964206973206c6f776572207468616e20686967686573742062696420696e60448201526618dc995b595b9d60ca1b606482015260840161066b565b600086815260ff60205260409020546001600160a01b031673eeeeeeeeeeeeeeeeeeeeeeeeeeeeeeeeeeeeeeed19810161128a578534146112855760405162461bcd60e51b815260206004820152601060248201526f15dc9bdb99c811551208185b5bdd5b9d60821b604482015260640161066b565b611355565b34156112d85760405162461bcd60e51b815260206004820152601c60248201527f41756374696f6e206973206e6f742070726963656420696e2045544800000000604482015260640161066b565b60fd546040516323b872dd60e01b8152336004820152306024820152604481018890526001600160a01b03909116906323b872dd906064016020604051808303816000875af115801561132f573d6000803e3d6000fd5b505050506040513d601f19601f820116820180604052508101906113539190612dcd565b505b84546004860180546001600160a01b0319831633178855908890556001600160a01b0390911690811561138d5761138d838383612289565b856000036113d85760018701546113b190600160e01b900463ffffffff16856130f5565b8760010160186101000a81548163ffffffff021916908363ffffffff16021790555061141a565b6102586113e5858861301c565b101561141a576113f7610258856130f5565b60018801805463ffffffff60c01b1916600160c01b63ffffffff84160217905595505b60408051898152602081018890526001600160a01b0384169133918c917f2808decb743a25d04efe1bd3dc192acde3be644e2f6ad1dce5d3c46643e1c602910160405180910390a45050600160c95550505050505050565b61148260408201602083016129d6565b60fb54604051632474521560e21b81526000805160206134b883398151915260048201523360248201526001600160a01b03909116906391d1485490604401602060405180830381865afa1580156114de573d6000803e3d6000fd5b505050506040513d601f19601f820116820180604052508101906115029190612dcd565b8061158f57506115118161206c565b801561158f5750806001600160a01b03166343bc16126040518163ffffffff1660e01b8152600401602060405180830381865afa158015611556573d6000803e3d6000fd5b505050506040513d601f19601f8201168201806040525081019061157a9190612dea565b6001600160a01b0316336001600160a01b0316145b6115ab5760405162461bcd60e51b815260040161066b90612e07565b6115bb608083016060840161310d565b63ffffffff1615806115f657506115d8606083016040840161310d565b63ffffffff166115ee608084016060850161310d565b63ffffffff16115b6116395760405162461bcd60e51b8152602060048201526014602482015273496e76616c69642061756374696f6e2074696d6560601b604482015260640161066b565b610100820135600090815260fc6020526040902060010154600160a01b900463ffffffff16156116a45760405162461bcd60e51b815260206004820152601660248201527541756374696f6e20616c72656164792065786973747360501b604482015260640161066b565b610100820135600090815260fc6020526040902082906116c482826132ae565b9050506116cf6120fc565b610100830135600081815260fe6020908152604091829020939093557f5d551e2a2cc977fd8c530317059b4f2d9f504fb82f7dfad736f8d56679bcdfd09261171b9186019086016129d6565b604080519283526001600160a01b0390911660208301520160405180910390a15050565b604080516101408101825260008082526020820181905291810182905260608082018390526080820183905260a0820183905260c0820183905260e08201839052610100820192909252610120810191909152600082815260fc602090815260409182902082516101408101845281546001600160a01b03908116825260018301549081169382019390935263ffffffff600160a01b8404811694820194909452600160c01b830484166060820152600160e01b9092049092166080820152600282015460ff16151560a0820152600382015460c0820152600482015460e082015260058201546101008201526006820180549192916101208401919061184590612f12565b80601f016020809104026020016040519081016040528092919081815260200182805461187190612f12565b80156118be5780601f10611893576101008083540402835291602001916118be565b820191906000526020600020905b8154815290600101906020018083116118a157829003601f168201915b5050505050815250509050919050565b60fb54604051632474521560e21b81526000805160206134b883398151915260048201523360248201526001600160a01b03909116906391d1485490604401602060405180830381865afa15801561192a573d6000803e3d6000fd5b505050506040513d601f19601f8201168201806040525081019061194e9190612dcd565b61196a5760405162461bcd60e51b815260040161066b906130cb565b610c05612668565b60fb54604051632474521560e21b81526000805160206134b883398151915260048201523360248201526001600160a01b03909116906391d1485490604401602060405180830381865afa1580156119ce573d6000803e3d6000fd5b505050506040513d601f19601f820116820180604052508101906119f29190612dcd565b611a0e5760405162461bcd60e51b815260040161066b906130cb565b600083815260fc602052604090206002015460ff1615611a405760405162461bcd60e51b815260040161066b90612edb565b600083815260fc6020526040902060010154600160a01b900463ffffffff16611a9f5760405162461bcd60e51b8152602060048201526011602482015270105d58dd1a5bdb881b9bdd08199bdd5b99607a1b604482015260640161066b565b600092835260fc60205260409092206003810191909155600101805463ffffffff909216600160c01b0263ffffffff60c01b19909216919091179055565b600260c95403611aff5760405162461bcd60e51b815260040161066b90612ea4565b600260c95560fb54604051632474521560e21b81526000805160206134b883398151915260048201523360248201526001600160a01b03909116906391d1485490604401602060405180830381865afa158015611b60573d6000803e3d6000fd5b505050506040513d601f19601f82011682018060405250810190611b849190612dcd565b611ba05760405162461bcd60e51b815260040161066b906130cb565b600081815260fc60205260409020600281015460ff1615611c035760405162461bcd60e51b815260206004820152601b60248201527f41756374696f6e20697320616c72656164792066696e69736865640000000000604482015260640161066b565b80546004820180546001600160a01b031983168455600090915560028301805460ff191660011790556001600160a01b03909116908115611c6157600084815260ff6020526040902054611c61906001600160a01b03168383612289565b6040516001600160a01b0383169085907f10ac9f0bb365b5d22d7bec500408692f23fdf83eadfec71615ef88b4c1134f0e90600090a35050600160c9555050565b600082815260fc6020526040902060010154600160a01b900463ffffffff16611d055760405162461bcd60e51b8152602060048201526015602482015274105d58dd1a5bdb88191bd95cdb89dd08195e1a5cdd605a1b604482015260640161066b565b60fb54604051632474521560e21b81526000805160206134b883398151915260048201523360248201526001600160a01b03909116906391d1485490604401602060405180830381865afa158015611d61573d6000803e3d6000fd5b505050506040513d601f19601f82011682018060405250810190611d859190612dcd565b80611e1b5750600082815260fc60209081526040918290206001015482516321de0b0960e11b815292516001600160a01b03909116926343bc16129260048083019391928290030181865afa158015611de2573d6000803e3d6000fd5b505050506040513d601f19601f82011682018060405250810190611e069190612dea565b6001600160a01b0316336001600160a01b0316145b611e375760405162461bcd60e51b815260040161066b90612e07565b612710811115611e795760405162461bcd60e51b815260206004820152600d60248201526c496e76616c696420736861726560981b604482015260640161066b565b600091825260fe602052604090912055565b60fb54604051632474521560e21b81526000805160206134b883398151915260048201523360248201526001600160a01b03909116906391d1485490604401602060405180830381865afa158015611ee7573d6000803e3d6000fd5b505050506040513d601f19601f82011682018060405250810190611f0b9190612dcd565b611f275760405162461bcd60e51b815260040161066b906130cb565b61010180546001600160a01b0319166001600160a01b0392909216919091179055565b600260c95403611f6c5760405162461bcd60e51b815260040161066b90612ea4565b600260c955336000908152610100602052604090205480611fc55760405162461bcd60e51b81526020600482015260136024820152724e6f7468696e6720746f20776974686472617760681b604482015260640161066b565b33600081815261010060205260408082208290555190919083908381818185875af1925050503d8060008114612017576040519150601f19603f3d011682016040523d82523d6000602084013e61201c565b606091505b50509050806120635760405162461bcd60e51b8152602060048201526013602482015272115512081d1c985b9cd9995c8819985a5b1959606a1b604482015260640161066b565b5050600160c955565b610101546000906001600160a01b03161580159061209457506000826001600160a01b03163b115b80156120b05750610101546001600160a01b038381163f91163f145b92915050565b60975460ff1615610c055760405162461bcd60e51b815260206004820152601060248201526f14185d5cd8589b194e881c185d5cd95960821b604482015260640161066b565b60fb546040516d616464726573732e636f6e66696760901b602082015260009182916001600160a01b03909116906321f8a72190602e01604051602081830303815290604052805190602001206040518263ffffffff1660e01b815260040161216791815260200190565b602060405180830381865afa158015612184573d6000803e3d6000fd5b505050506040513d601f19601f820116820180604052508101906121a89190612dea565b90506001600160a01b0381166121c157611f4091505090565b6000816001600160a01b031663bd02d0f56040516020016121fb90721cda185c994b9c1c9a5b585c9e505c9d1a5cdd606a1b815260130190565b604051602081830303815290604052805190602001206040518263ffffffff1660e01b815260040161222f91815260200190565b602060405180830381865afa15801561224c573d6000803e3d6000fd5b505050506040513d601f19601f8201168201806040525081019061227091906133e7565b9050801561227e5780612282565b611f405b9250505090565b8060000361229657505050565b73eeeeeeeeeeeeeeeeeeeeeeeeeeeeeeeeeeeeeeed196001600160a01b0384160161234f576000826001600160a01b03168261753090604051600060405180830381858888f193505050503d806000811461230d576040519150601f19603f3d011682016040523d82523d6000602084013e612312565b606091505b505090508061076b576001600160a01b03831660009081526101006020526040812080548492906123449084906130f5565b909155505050505050565b60fd5460405163a9059cbb60e01b81526001600160a01b038481166004830152602482018490529091169063a9059cbb906044016020604051808303816000875af11580156123a2573d6000803e3d6000fd5b505050506040513d601f19601f8201168201806040525081019061076b9190612dcd565b60fb54604051632474521560e21b8152600060048201523360248201526001600160a01b03909116906391d1485490604401602060405180830381865afa158015612415573d6000803e3d6000fd5b505050506040513d601f19601f820116820180604052508101906124399190612dcd565b610b5e5760405162461bcd60e51b815260040161066b906130cb565b7f4910fdfa16fed3260ed0e7147f7cc6da11a60208b5b9406d12a635614ffd91435460ff161561248857610d4d836126a5565b826001600160a01b03166352d1902d6040518163ffffffff1660e01b8152600401602060405180830381865afa9250505080156124e2575060408051601f3d908101601f191682019092526124df918101906133e7565b60015b6125455760405162461bcd60e51b815260206004820152602e60248201527f45524331393637557067726164653a206e657720696d706c656d656e7461746960448201526d6f6e206973206e6f74205555505360901b606482015260840161066b565b60008051602061347183398151915281146125b45760405162461bcd60e51b815260206004820152602960248201527f45524331393637557067726164653a20756e737570706f727465642070726f786044820152681a58589b195555525160ba1b606482015260840161066b565b50610d4d838383612741565b6125c8612766565b6097805460ff191690557f5db9ee0a495bf2e6ff9c91a7834c1ba4fdd244a5e8aa4e537bd38aeae4b073aa335b6040516001600160a01b03909116815260200160405180910390a1565b600054610100900460ff166126395760405162461bcd60e51b815260040161066b90613400565b610c056127af565b600054610100900460ff16610c055760405162461bcd60e51b815260040161066b90613400565b6126706120b6565b6097805460ff191660011790557f62e78cea01bee320cd4e420270b5ea74000d11b0c9f74754ebdbfc544b05a2586125f53390565b6001600160a01b0381163b6127125760405162461bcd60e51b815260206004820152602d60248201527f455243313936373a206e657720696d706c656d656e746174696f6e206973206e60448201526c1bdd08184818dbdb9d1c9858dd609a1b606482015260840161066b565b60008051602061347183398151915280546001600160a01b0319166001600160a01b0392909216919091179055565b61274a836127e2565b6000825111806127575750805b15610d4d5761076b8383612822565b60975460ff16610c055760405162461bcd60e51b815260206004820152601460248201527314185d5cd8589b194e881b9bdd081c185d5cd95960621b604482015260640161066b565b600054610100900460ff166127d65760405162461bcd60e51b815260040161066b90613400565b6097805460ff19169055565b6127eb816126a5565b6040516001600160a01b038216907fbc7cd75a20ee27fd9adebab32041f755214dbc6bffa90cc0225b39da2e5c2d3b90600090a250565b60606001600160a01b0383163b61288a5760405162461bcd60e51b815260206004820152602660248201527f416464726573733a2064656c65676174652063616c6c20746f206e6f6e2d636f6044820152651b9d1c9858dd60d21b606482015260840161066b565b600080846001600160a01b0316846040516128a5919061344b565b600060405180830381855af49150503d80600081146128e0576040519150601f19603f3d011682016040523d82523d6000602084013e6128e5565b606091505b509150915061290d828260405180606001604052806027815260200161349160279139612916565b95945050505050565b6060831561292557508161294f565b8251156129355782518084602001fd5b8160405162461bcd60e51b815260040161066b919061345d565b9392505050565b6000610140828403121561296957600080fd5b50919050565b6001600160a01b0381168114610b5e57600080fd5b6000806040838503121561299757600080fd5b823567ffffffffffffffff8111156129ae57600080fd5b6129ba85828601612956565b92505060208301356129cb8161296f565b809150509250929050565b6000602082840312156129e857600080fd5b813561294f8161296f565b60008060208385031215612a0657600080fd5b823567ffffffffffffffff80821115612a1e57600080fd5b818501915085601f830112612a3257600080fd5b813581811115612a4157600080fd5b8660208260051b8501011115612a5657600080fd5b60209290920196919550909350505050565b600060208284031215612a7a57600080fd5b5035919050565b60008060408385031215612a9457600080fd5b8235612a9f8161296f565b915060208301356129cb8161296f565b634e487b7160e01b600052604160045260246000fd5b60008060408385031215612ad857600080fd5b8235612ae38161296f565b9150602083013567ffffffffffffffff80821115612b0057600080fd5b818501915085601f830112612b1457600080fd5b813581811115612b2657612b26612aaf565b604051601f8201601f19908116603f01168101908382118183101715612b4e57612b4e612aaf565b81604052828152886020848701011115612b6757600080fd5b8260208601602083013760006020848301015280955050505050509250929050565b60005b83811015612ba4578181015183820152602001612b8c565b8381111561076b5750506000910152565b60008151808452612bcd816020860160208601612b89565b601f01601f19169290920160200192915050565b6001600160a01b038b811682528a16602082015263ffffffff898116604083015288811660608301528716608082015285151560a082015260c0810185905260e0810184905261010081018390526101406101208201819052600090612c4983820185612bb5565b9d9c50505050505050505050505050565b60008060408385031215612c6d57600080fd5b50508035926020909101359150565b600060208284031215612c8e57600080fd5b813567ffffffffffffffff811115612ca557600080fd5b612cb184828501612956565b949350505050565b60208152612cd36020820183516001600160a01b03169052565b60006020830151612cef60408401826001600160a01b03169052565b50604083015163ffffffff8116606084015250606083015163ffffffff8116608084015250608083015163ffffffff811660a08401525060a083015180151560c08401525060c083015160e083810191909152830151610100808401919091528301516101208084019190915283015161014080840152612cb1610160840182612bb5565b63ffffffff81168114610b5e57600080fd5b600080600060608486031215612d9b57600080fd5b83359250602084013591506040840135612db481612d74565b809150509250925092565b8015158114610b5e57600080fd5b600060208284031215612ddf57600080fd5b815161294f81612dbf565b600060208284031215612dfc57600080fd5b815161294f8161296f565b6020808252601e908201527f41646d696e206f7220746865204e4654277320617274697374206f6e6c790000604082015260600190565b634e487b7160e01b600052603260045260246000fd5b6000823561013e19833603018112612e6b57600080fd5b9190910192915050565b634e487b7160e01b600052601160045260246000fd5b600060018201612e9d57612e9d612e75565b5060010190565b6020808252601f908201527f5265656e7472616e637947756172643a207265656e7472616e742063616c6c00604082015260600190565b60208082526017908201527f41756374696f6e20616c726561647920736574746c6564000000000000000000604082015260600190565b600181811c90821680612f2657607f821691505b60208210810361296957634e487b7160e01b600052602260045260246000fd5b60018060a01b03831681526000602060408184015260008454612f6881612f12565b8060408701526060600180841660008114612f8a5760018114612f9e57612fcc565b60ff19851689840152608089019550612fcc565b896000528660002060005b85811015612fc45781548b8201860152908301908801612fa9565b8a0184019650505b50939998505050505050505050565b6000816000190483118215151615612ff557612ff5612e75565b500290565b60008261301757634e487b7160e01b600052601260045260246000fd5b500490565b60008282101561302e5761302e612e75565b500390565b6020808252602c908201527f46756e6374696f6e206d7573742062652063616c6c6564207468726f7567682060408201526b19195b1959d85d1958d85b1b60a21b606082015260800190565b6020808252602c908201527f46756e6374696f6e206d7573742062652063616c6c6564207468726f7567682060408201526b6163746976652070726f787960a01b606082015260800190565b60208082526010908201526f41646d696e2063616c6c73206f6e6c7960801b604082015260600190565b6000821982111561310857613108612e75565b500190565b60006020828403121561311f57600080fd5b813561294f81612d74565b600081356120b08161296f565b600081356120b081612d74565b600081356120b081612dbf565b6000808335601e1984360301811261316857600080fd5b83018035915067ffffffffffffffff82111561318357600080fd5b60200191503681900382131561319857600080fd5b9250929050565b601f821115610d4d57600081815260208120601f850160051c810160208610156131c65750805b601f850160051c820191505b818110156131e5578281556001016131d2565b505050505050565b67ffffffffffffffff83111561320557613205612aaf565b613219836132138354612f12565b8361319f565b6000601f84116001811461324d57600085156132355750838201355b600019600387901b1c1916600186901b1783556132a7565b600083815260209020601f19861690835b8281101561327e578685013582556020948501946001909201910161325e565b508682101561329b5760001960f88860031b161c19848701351681555b505060018560011b0183555b5050505050565b6132d76132ba8361312a565b82546001600160a01b0319166001600160a01b0391909116178255565b600181016132ea6132ba6020850161312a565b61331d6132f960408501613137565b82805463ffffffff60a01b191660a09290921b63ffffffff60a01b16919091179055565b61335061332c60608501613137565b82805463ffffffff60c01b191660c09290921b63ffffffff60c01b16919091179055565b61338361335f60808501613137565b8280546001600160e01b031660e09290921b6001600160e01b031916919091179055565b506133ac61339360a08401613144565b6002830160ff1981541660ff8315151681178255505050565b60c0820135600382015560e0820135600482015561010082013560058201556133d9610120830183613151565b61076b8183600686016131ed565b6000602082840312156133f957600080fd5b5051919050565b6020808252602b908201527f496e697469616c697a61626c653a20636f6e7472616374206973206e6f74206960408201526a6e697469616c697a696e6760a81b606082015260800190565b60008251612e6b818460208701612b89565b60208152600061294f6020830184612bb556fe360894a13ba1a3210667c828492db98dca3e2076cc3735a920a3ca505d382bbc416464726573733a206c6f772d6c6576656c2064656c65676174652063616c6c206661696c6564e303cb88ace8c9e6ba216f1aecb44b3206dcab364c60512ffc6cbc920a1bf9d1a26469706673582212202b6bb6883d3d31d94324336cbeebccbbfe1febf3559b220bb2f2c2fb8b429cc964736f6c634300080e0033",
  "linkReferences": {},
  "deployedLinkReferences": {}
}