{
  "_format": "hh-sol-artifact-1",
  "contractName": "Auction",
  "sourceName": "contracts/Auction/Auction.sol",
  "abi": [
    {
      "inputs": [],
      "stateMutability": "nonpayable",
      "type": "constructor"
    },
    {
      "anonymous": false,
      "inputs": [
        {
          "indexed": false,
          "internalType": "address",
          "name": "previousAdmin",
          "type": "address"
        },
        {
          "indexed": false,
          "internalType": "address",
          "name": "newAdmin",
          "type": "address"
        }
      ],
      "name": "AdminChanged",
      "type": "event"
    },
    {
      "anonymous": false,
      "inputs": [
        {
          "indexed": true,
          "internalType": "uint256",
          "name": "auctionId",
          "type": "uint256"
        },
        {
          "indexed": true,
          "internalType": "address",
          "name": "previousBidder",
          "type": "address"
        }
      ],
      "name": "AuctionCancelled",
      "type": "event"
    },
    {
      "anonymous": false,
      "inputs": [
        {
          "indexed": false,
          "internalType": "uint256",
          "name": "auctionId",
          "type": "uint256"
        },
        {
          "indexed": false,
          "internalType": "address",
          "name": "nftContract",
          "type": "address"
        }
      ],
      "name": "AuctionCreated",
      "type": "event"
    },
    {
      "anonymous": false,
      "inputs": [
        {
          "indexed": true,
          "internalType": "uint256",
          "name": "auctionId",
          "type": "uint256"
        },
        {
          "indexed": true,
          "internalType": "address",
          "name": "highestBidder",
          "type": "address"
        },
        {
          "indexed": false,
          "internalType": "uint256",
          "name": "highestBid",
          "type": "uint256"
        }
      ],
      "name": "AuctionSettled",
      "type": "event"
    },
    {
      "anonymous": false,
      "inputs": [
        {
          "indexed": true,
          "internalType": "address",
          "name": "beacon",
          "type": "address"
        }
      ],
      "name": "BeaconUpgraded",
      "type": "event"
    },
    {
      "anonymous": false,
      "inputs": [
        {
          "indexed": true,
          "internalType": "uint256",
          "name": "auctionId",
          "type": "uint256"
        },
        {
          "indexed": true,
          "internalType": "address",
          "name": "newBidder",
          "type": "address"
        },
        {
          "indexed": true,
          "internalType": "address",
          "name": "previousBidder",
          "type": "address"
        },
        {
          "indexed": false,
          "internalType": "uint256",
          "name": "bidAmount",
          "type": "uint256"
        },
        {
          "indexed": false,
          "internalType": "uint256",
          "name": "newEndTime",
          "type": "uint256"
        }
      ],
      "name": "BidPlaced",
      "type": "event"
    },
    {
      "anonymous": false,
      "inputs": [
        {
          "indexed": false,
          "internalType": "uint8",
          "name": "version",
          "type": "uint8"
        }
      ],
      "name": "Initialized",
      "type": "event"
    },
    {
      "anonymous": false,
      "inputs": [
        {
          "indexed": false,
          "internalType": "address",
          "name": "account",
          "type": "address"
        }
      ],
      "name": "Paused",
      "type": "event"
    },
    {
      "anonymous": false,
      "inputs": [
        {
          "indexed": false,
          "internalType": "address",
          "name": "account",
          "type": "address"
        }
      ],
      "name": "Unpaused",
      "type": "event"
    },
    {
      "anonymous": false,
      "inputs": [
        {
          "indexed": true,
          "internalType": "address",
          "name": "implementation",
          "type": "address"
        }
      ],
      "name": "Upgraded",
      "type": "event"
    },
    {
      "inputs": [],
      "name": "DEFAULT_EXTENSION",
      "outputs": [
        {
          "internalType": "uint256",
          "name": "",
          "type": "uint256"
        }
      ],
      "stateMutability": "view",
      "type": "function"
    },
    {
      "inputs": [],
      "name": "NATIVE_CURRENCY",
      "outputs": [
        {
          "internalType": "address",
          "name": "",
          "type": "address"
        }
      ],
      "stateMutability": "view",
      "type": "function"
    },
    {
      "inputs": [
        {
          "internalType": "uint256",
          "name": "",
          "type": "uint256"
        }
      ],
      "name": "auctionArtistShare",
      "outputs": [
        {
          "internalType": "uint256",
          "name": "",
          "type": "uint256"
        }
      ],
      "stateMutability": "view",
      "type": "function"
    },
    {
      "inputs": [
        {
          "internalType": "uint256",
          "name": "",
          "type": "uint256"
        }
      ],
      "name": "auctionCurrency",
      "outputs": [
        {
          "internalType": "address",
          "name": "",
          "type": "address"
        }
      ],
      "stateMutability": "view",
      "type": "function"
    },
    {
      "inputs": [
        {
          "internalType": "uint256",
          "name": "",
          "type": "uint256"
        }
      ],
      "name": "auctions",
      "outputs": [
        {
          "internalType": "address",
          "name": "highestBidder",
          "type": "address"
        },
        {
          "internalType": "contract INFT",
          "name": "nftContract",
          "type": "address"
        },
        {
          "internalType": "uint32",
          "name": "startTime",
          "type": "uint32"
        },
        {
          "internalType": "uint32",
          "name": "endTime",
          "type": "uint32"
        },
        {
          "internalType": "uint32",
          "name": "duration",
          "type": "uint32"
        },
        {
          "internalType": "bool",
          "name": "settled",
          "type": "bool"
        },
        {
          "internalType": "uint256",
          "name": "minimumPrice",
          "type": "uint256"
        },
        {
          "internalType": "uint256",
          "name": "highestBid",
          "type": "uint256"
        },
        {
          "internalType": "uint256",
          "name": "auctionId",
          "type": "uint256"
        },
        {
          "internalType": "string",
          "name": "nftUri",
          "type": "string"
        }
      ],
      "stateMutability": "view",
      "type": "function"
    },
    {
      "inputs": [
        {
          "internalType": "uint256",
          "name": "_auctionId",
          "type": "uint256"
        },
        {
          "internalType": "uint256",
          "name": "_amount",
          "type": "uint256"
        }
      ],
      "name": "bid",
      "outputs": [],
      "stateMutability": "payable",
      "type": "function"
    },
    {
      "inputs": [
        {
          "internalType": "uint256",
          "name": "_auctionId",
          "type": "uint256"
        }
      ],
      "name": "cancelAuction",
      "outputs": [],
      "stateMutability": "nonpayable",
      "type": "function"
    },
    {
      "inputs": [
        {
          "components": [
            {
              "internalType": "address",
              "name": "highestBidder",
              "type": "address"
            },
            {
              "internalType": "contract INFT",
              "name": "nftContract",
              "type": "address"
            },
            {
              "internalType": "uint32",
              "name": "startTime",
              "type": "uint32"
            },
            {
              "internalType": "uint32",
              "name": "endTime",
              "type": "uint32"
            },
            {
              "internalType": "uint32",
              "name": "duration",
              "type": "uint32"
            },
            {
              "internalType": "bool",
              "name": "settled",
              "type": "bool"
            },
            {
              "internalType": "uint256",
              "name": "minimumPrice",
              "type": "uint256"
            },
            {
              "internalType": "uint256",
              "name": "highestBid",
              "type": "uint256"
            },
            {
              "internalType": "uint256",
              "name": "auctionId",
              "type": "uint256"
            },
            {
              "internalType": "string",
              "name": "nftUri",
              "type": "string"
            }
          ],
          "internalType": "struct Auction.AuctionInfo",
          "name": "_auctionInfo",
          "type": "tuple"
        }
      ],
      "name": "createAuction",
      "outputs": [],
      "stateMutability": "nonpayable",
      "type": "function"
    },
    {
      "inputs": [
        {
          "components": [
            {
              "internalType": "address",
              "name": "highestBidder",
              "type": "address"
            },
            {
              "internalType": "contract INFT",
              "name": "nftContract",
              "type": "address"
            },
            {
              "internalType": "uint32",
              "name": "startTime",
              "type": "uint32"
            },
            {
              "internalType": "uint32",
              "name": "endTime",
              "type": "uint32"
            },
            {
              "internalType": "uint32",
              "name": "duration",
              "type": "uint32"
            },
            {
              "internalType": "bool",
              "name": "settled",
              "type": "bool"
            },
            {
              "internalType": "uint256",
              "name": "minimumPrice",
              "type": "uint256"
            },
            {
              "internalType": "uint256",
              "name": "highestBid",
              "type": "uint256"
            },
            {
              "internalType": "uint256",
              "name": "auctionId",
              "type": "uint256"
            },
            {
              "internalType": "string",
              "name": "nftUri",
              "type": "string"
            }
          ],
          "internalType": "struct Auction.AuctionInfo[]",
          "name": "_auctions",
          "type": "tuple[]"
        }
      ],
      "name": "createAuctionBatch",
      "outputs": [],
      "stateMutability": "nonpayable",
      "type": "function"
    },
    {
      "inputs": [
        {
          "components": [
            {
              "internalType": "address",
              "name": "highestBidder",
              "type": "address"
            },
            {
              "internalType": "contract INFT",
              "name": "nftContract",
              "type": "address"
            },
            {
              "internalType": "uint32",
              "name": "startTime",
              "type": "uint32"
            },
            {
              "internalType": "uint32",
              "name": "endTime",
              "type": "uint32"
            },
            {
              "internalType": "uint32",
              "name": "duration",
              "type": "uint32"
            },
            {
              "internalType": "bool",
              "name": "settled",
              "type": "bool"
            },
            {
              "internalType": "uint256",
              "name": "minimumPrice",
              "type": "uint256"
            },
            {
              "internalType": "uint256",
              "name": "highestBid",
              "type": "uint256"
            },
            {
              "internalType": "uint256",
              "name": "auctionId",
              "type": "uint256"
            },
            {
              "internalType": "string",
              "name": "nftUri",
              "type": "string"
            }
          ],
          "internalType": "struct Auction.AuctionInfo",
          "name": "_auctionInfo",
          "type": "tuple"
        },
        {
          "internalType": "address",
          "name": "_currency",
          "type": "address"
        }
      ],
      "name": "createAuctionWithCurrency",
      "outputs": [],
      "stateMutability": "nonpayable",
      "type": "function"
    },
    {
      "inputs": [
        {
          "internalType": "uint256",
          "name": "_auctionId",
          "type": "uint256"
        }
      ],
      "name": "getAuction",
      "outputs": [
        {
          "components": [
            {
              "internalType": "address",
              "name": "highestBidder",
              "type": "address"
            },
            {
              "internalType": "contract INFT",
              "name": "nftContract",
              "type": "address"
            },
            {
              "internalType": "uint32",
              "name": "startTime",
              "type": "uint32"
            },
            {
              "internalType": "uint32",
              "name": "endTime",
              "type": "uint32"
            },
            {
              "internalType": "uint32",
              "name": "duration",
              "type": "uint32"
            },
            {
              "internalType": "bool",
              "name": "settled",
              "type": "bool"
            },
            {
              "internalType": "uint256",
              "name": "minimumPrice",
              "type": "uint256"
            },
            {
              "internalType": "uint256",
              "name": "highestBid",
              "type": "uint256"
            },
            {
              "internalType": "uint256",
              "name": "auctionId",
              "type": "uint256"
            },
            {
              "internalType": "string",
              "name": "nftUri",
              "type": "string"
            }
          ],
          "internalType": "struct Auction.AuctionInfo",
          "name": "",
          "type": "tuple"
        }
      ],
      "stateMutability": "view",
      "type": "function"
    },
    {
      "inputs": [],
      "name": "getBidIncrementPercentage",
      "outputs": [
        {
          "internalType": "uint256",
          "name": "",
          "type": "uint256"
        }
      ],
      "stateMutability": "pure",
      "type": "function"
    },
    {
      "inputs": [
        {
          "internalType": "address",
          "name": "_token",
          "type": "address"
        },
        {
          "internalType": "address",
          "name": "_storage",
          "type": "address"
        }
      ],
      "name": "initialize",
      "outputs": [],
      "stateMutability": "nonpayable",
      "type": "function"
    },
    {
      "inputs": [],
      "name": "pause",
      "outputs": [],
      "stateMutability": "nonpayable",
      "type": "function"
    },
    {
      "inputs": [],
      "name": "paused",
      "outputs": [
        {
          "internalType": "bool",
          "name": "",
          "type": "bool"
        }
      ],
      "stateMutability": "view",
      "type": "function"
    },
    {
      "inputs": [
        {
          "internalType": "address",
          "name": "",
          "type": "address"
        }
      ],
      "name": "pendingReturns",
      "outputs": [
        {
          "internalType": "uint256",
          "name": "",
          "type": "uint256"
        }
      ],
      "stateMutability": "view",
      "type": "function"
    },
    {
      "inputs": [],
      "name": "proxiableUUID",
      "outputs": [
        {
          "internalType": "bytes32",
          "name": "",
          "type": "bytes32"
        }
      ],
      "stateMutability": "view",
      "type": "function"
    },
    {
      "inputs": [
        {
          "internalType": "uint256",
          "name": "_auctionId",
          "type": "uint256"
        },
        {
          "internalType": "uint256",
          "name": "_shareBps",
          "type": "uint256"
        }
      ],
      "name": "setAuctionArtistShare",
      "outputs": [],
      "stateMutability": "nonpayable",
      "type": "function"
    },
    {
      "inputs": [
        {
          "internalType": "uint256",
          "name": "_auctionId",
          "type": "uint256"
        }
      ],
      "name": "settleAuction",
      "outputs": [],
      "stateMutability": "nonpayable",
      "type": "function"
    },
    {
      "inputs": [],
      "name": "token",
      "outputs": [
        {
          "internalType": "contract IERC20",
          "name": "",
          "type": "address"
        }
      ],
      "stateMutability": "view",
      "type": "function"
    },
    {
      "inputs": [],
      "name": "unpause",
      "outputs": [],
      "stateMutability": "nonpayable",
      "type": "function"
    },
    {
      "inputs": [
        {
          "internalType": "uint256",
          "name": "_auctionId",
          "type": "uint256"
        },
        {
          "internalType": "uint256",
          "name": "_minimumPrice",
          "type": "uint256"
        },
        {
          "internalType": "uint32",
          "name": "_endTime",
          "type": "uint32"
        }
      ],
      "name": "updateAuction",
      "outputs": [],
      "stateMutability": "nonpayable",
      "type": "function"
    },
    {
      "inputs": [
        {
          "internalType": "address",
          "name": "newImplementation",
          "type": "address"
        }
      ],
      "name": "upgradeTo",
      "outputs": [],
      "stateMutability": "nonpayable",
      "type": "function"
    },
    {
      "inputs": [
        {
          "internalType": "address",
          "name": "newImplementation",
          "type": "address"
        },
        {
          "internalType": "bytes",
          "name": "data",
          "type": "bytes"
        }
      ],
      "name": "upgradeToAndCall",
      "outputs": [],
      "stateMutability": "payable",
      "type": "function"
    },
    {
      "inputs": [],
      "name": "withdrawPendingReturns",
      "outputs": [],
      "stateMutability": "nonpayable",
      "type": "function"
    }
  ],
  "bytecode": "0x60a0604052306080523480156200001557600080fd5b506200002062000026565b620000e8565b600054610100900460ff1615620000935760405162461bcd60e51b815260206004820152602760248201527f496e697469616c697a61626c653a20636f6e747261637420697320696e697469604482015266616c697a696e6760c81b606482015260840160405180910390fd5b60005460ff9081161015620000e6576000805460ff191660ff9081179091556040519081527f7f26b83ff96e1f2b6a682f133852f6798a09c465da95921460cefb38474024989060200160405180910390a15b565b6080516133736200012060003960008181610a0501528181610a4501528181610cd501528181610d150152610da801526133736000f3fe6080604052600436106101665760003560e01c8063598647f8116100d157806396b5a7551161008a578063d4a22c3211610064578063d4a22c3214610439578063ec29021514610459578063ede959051461046e578063fc0c546a1461049b57600080fd5b806396b5a755146103cd5780639a096a50146103ed578063a473205c1461042357600080fd5b8063598647f8146103155780635c975abb146103285780635e6c1d631461034b57806378bd79351461036b5780638456cb59146103985780638f803842146103ad57600080fd5b8063481b13d211610123578063481b13d214610243578063485cc9551461025757806349f42650146102775780634f1ef286146102b757806352d1902d146102ca578063571a26a0146102df57600080fd5b806306ef081f1461016b57806326b387bb1461018d5780632bb36adc146101ce5780632e993611146101ee5780633659cfe61461020e5780633f4ba83a1461022e575b600080fd5b34801561017757600080fd5b5061018b6101863660046127e4565b6104bb565b005b34801561019957600080fd5b506101bb6101a8366004612836565b6101006020526000908152604090205481565b6040519081526020015b60405180910390f35b3480156101da57600080fd5b5061018b6101e9366004612853565b6106a1565b3480156101fa57600080fd5b5061018b6102093660046128c8565b6106ea565b34801561021a57600080fd5b5061018b610229366004612836565b6109fb565b34801561023a57600080fd5b5061018b610ada565b34801561024f57600080fd5b5060646101bb565b34801561026357600080fd5b5061018b6102723660046128e1565b610b80565b34801561028357600080fd5b5061029f73eeeeeeeeeeeeeeeeeeeeeeeeeeeeeeeeeeeeeeee81565b6040516001600160a01b0390911681526020016101c5565b61018b6102c5366004612925565b610ccb565b3480156102d657600080fd5b506101bb610d9b565b3480156102eb57600080fd5b506102ff6102fa3660046128c8565b610e4e565b6040516101c59a99989796959493929190612a41565b61018b610323366004612aba565b610f4a565b34801561033457600080fd5b5060975460ff1660405190151581526020016101c5565b34801561035757600080fd5b5061018b610366366004612adc565b6113eb565b34801561037757600080fd5b5061038b6103863660046128c8565b6116a8565b6040516101c59190612b19565b3480156103a457600080fd5b5061018b611837565b3480156103b957600080fd5b5061018b6103c8366004612be6565b6118db565b3480156103d957600080fd5b5061018b6103e83660046128c8565b611a46565b3480156103f957600080fd5b5061029f6104083660046128c8565b60ff602052600090815260409020546001600160a01b031681565b34801561042f57600080fd5b506101bb61025881565b34801561044557600080fd5b5061018b610454366004612aba565b611c0b565b34801561046557600080fd5b5061018b611df4565b34801561047a57600080fd5b506101bb6104893660046128c8565b60fe6020526000908152604090205481565b3480156104a757600080fd5b5060fd5461029f906001600160a01b031681565b6104cb6040830160208401612836565b60fb54604051632474521560e21b815260008051602061331e83398151915260048201523360248201526001600160a01b03909116906391d1485490604401602060405180830381865afa158015610527573d6000803e3d6000fd5b505050506040513d601f19601f8201168201806040525081019061054b9190612c2d565b806105c85750806001600160a01b03166343bc16126040518163ffffffff1660e01b8152600401602060405180830381865afa15801561058f573d6000803e3d6000fd5b505050506040513d601f19601f820116820180604052508101906105b39190612c4a565b6001600160a01b0316336001600160a01b0316145b6105ed5760405162461bcd60e51b81526004016105e490612c67565b60405180910390fd5b6001600160a01b038216158061061f57506001600160a01b03821673eeeeeeeeeeeeeeeeeeeeeeeeeeeeeeeeeeeeeeee145b6106625760405162461bcd60e51b8152602060048201526014602482015273556e737570706f727465642063757272656e637960601b60448201526064016105e4565b61066b836113eb565b506101009190910135600090815260ff6020526040902080546001600160a01b0319166001600160a01b03909216919091179055565b8060005b818110156106e4576106d48484838181106106c2576106c2612c9e565b90506020028101906103669190612cb4565b6106dd81612ceb565b90506106a5565b50505050565b600260c9540361070c5760405162461bcd60e51b81526004016105e490612d04565b600260c955610719611f16565b600081815260fc60205260409020600281015460ff161561074c5760405162461bcd60e51b81526004016105e490612d3b565b6004810154815460018301546001600160a01b0390911690600160c01b900463ffffffff16801580159061077f57508042115b6107cb5760405162461bcd60e51b815260206004820152601860248201527f41756374696f6e206973207374696c6c2072756e6e696e67000000000000000060448201526064016105e4565b60028401805460ff191660011790556001600160a01b038216156109ab576001840154604051636902622f60e11b81526001600160a01b039091169063d204c45e906108209085906006890190600401612da6565b600060405180830381600087803b15801561083a57600080fd5b505af115801561084e573d6000803e3d6000fd5b505050600086815260fe6020526040812054915081900361087457610871611f5c565b90505b60006127106108838387612e3b565b61088d9190612e5a565b600088815260ff60209081526040918290205460018a015483516321de0b0960e11b815293519495506001600160a01b039182169461091d94869493909216926343bc161292600480820193918290030181865afa1580156108f3573d6000803e3d6000fd5b505050506040513d601f19601f820116820180604052508101906109179190612c4a565b846120e9565b6109a78160fb60009054906101000a90046001600160a01b03166001600160a01b0316634783c35b6040518163ffffffff1660e01b8152600401602060405180830381865afa158015610974573d6000803e3d6000fd5b505050506040513d601f19601f820116820180604052508101906109989190612c4a565b6109a2858a612e7c565b6120e9565b5050505b816001600160a01b0316857fc9f72b276a388619c6d185d146697036241880c36654b1a3ffdad07c24038d99856040516109e791815260200190565b60405180910390a35050600160c955505050565b6001600160a01b037f0000000000000000000000000000000000000000000000000000000000000000163003610a435760405162461bcd60e51b81526004016105e490612e93565b7f00000000000000000000000000000000000000000000000000000000000000006001600160a01b0316610a8c6000805160206132d7833981519152546001600160a01b031690565b6001600160a01b031614610ab25760405162461bcd60e51b81526004016105e490612edf565b610abb81612226565b60408051600080825260208201909252610ad7918391906122b5565b50565b60fb54604051632474521560e21b815260008051602061331e83398151915260048201523360248201526001600160a01b03909116906391d1485490604401602060405180830381865afa158015610b36573d6000803e3d6000fd5b505050506040513d601f19601f82011682018060405250810190610b5a9190612c2d565b610b765760405162461bcd60e51b81526004016105e490612f2b565b610b7e612420565b565b600054610100900460ff1615808015610ba05750600054600160ff909116105b80610bba5750303b158015610bba575060005460ff166001145b610c1d5760405162461bcd60e51b815260206004820152602e60248201527f496e697469616c697a61626c653a20636f6e747261637420697320616c72656160448201526d191e481a5b9a5d1a585b1a5e995960921b60648201526084016105e4565b6000805460ff191660011790558015610c40576000805461ff0019166101001790555b610c48612472565b610c506124a1565b60fd80546001600160a01b038086166001600160a01b03199283161790925560fb8054928516929091169190911790558015610cc6576000805461ff0019169055604051600181527f7f26b83ff96e1f2b6a682f133852f6798a09c465da95921460cefb38474024989060200160405180910390a15b505050565b6001600160a01b037f0000000000000000000000000000000000000000000000000000000000000000163003610d135760405162461bcd60e51b81526004016105e490612e93565b7f00000000000000000000000000000000000000000000000000000000000000006001600160a01b0316610d5c6000805160206132d7833981519152546001600160a01b031690565b6001600160a01b031614610d825760405162461bcd60e51b81526004016105e490612edf565b610d8b82612226565b610d97828260016122b5565b5050565b6000306001600160a01b037f00000000000000000000000000000000000000000000000000000000000000001614610e3b5760405162461bcd60e51b815260206004820152603860248201527f555550535570677261646561626c653a206d757374206e6f742062652063616c60448201527f6c6564207468726f7567682064656c656761746563616c6c000000000000000060648201526084016105e4565b506000805160206132d783398151915290565b60fc6020526000908152604090208054600182015460028301546003840154600485015460058601546006870180546001600160a01b03978816989787169763ffffffff600160a01b8904811698600160c01b8104821698600160e01b9091049091169660ff90911695909490939092610ec790612d72565b80601f0160208091040260200160405190810160405280929190818152602001828054610ef390612d72565b8015610f405780601f10610f1557610100808354040283529160200191610f40565b820191906000526020600020905b815481529060010190602001808311610f2357829003601f168201915b505050505090508a565b600260c95403610f6c5760405162461bcd60e51b81526004016105e490612d04565b600260c955610f79611f16565b600082815260fc60205260409020600181015463ffffffff600160c01b8204811691600160a01b9004164281610fe95760405162461bcd60e51b8152602060048201526015602482015274105d58dd1a5bdb88191bd95cdb89dd08195e1a5cdd605a1b60448201526064016105e4565b818110156110315760405162461bcd60e51b815260206004820152601560248201527441756374696f6e206e6f7420617661696c61626c6560581b60448201526064016105e4565b82158061103d57508083115b61107d5760405162461bcd60e51b8152602060048201526011602482015270105d58dd1a5bdb881a185cc8195b991959607a1b60448201526064016105e4565b600284015460ff16156110a25760405162461bcd60e51b81526004016105e490612d3b565b6000851180156110b6575083600301548510155b6111025760405162461bcd60e51b815260206004820152601960248201527f426964206973206c6f776572207468616e206d696e696d756d0000000000000060448201526064016105e4565b612710611110606482612f55565b856004015461111f9190612e3b565b6111299190612e5a565b8510156111885760405162461bcd60e51b815260206004820152602760248201527f426964206973206c6f776572207468616e20686967686573742062696420696e60448201526618dc995b595b9d60ca1b60648201526084016105e4565b600086815260ff60205260409020546001600160a01b031673eeeeeeeeeeeeeeeeeeeeeeeeeeeeeeeeeeeeeeed198101611203578534146111fe5760405162461bcd60e51b815260206004820152601060248201526f15dc9bdb99c811551208185b5bdd5b9d60821b60448201526064016105e4565b6112ce565b34156112515760405162461bcd60e51b815260206004820152601c60248201527f41756374696f6e206973206e6f742070726963656420696e204554480000000060448201526064016105e4565b60fd546040516323b872dd60e01b8152336004820152306024820152604481018890526001600160a01b03909116906323b872dd906064016020604051808303816000875af11580156112a8573d6000803e3d6000fd5b505050506040513d601f19601f820116820180604052508101906112cc9190612c2d565b505b84546004860180546001600160a01b0319831633178855908890556001600160a01b03909116908115611306576113068383836120e9565b8560000361135157600187015461132a90600160e01b900463ffffffff1685612f55565b8760010160186101000a81548163ffffffff021916908363ffffffff160217905550611393565b61025861135e8588612e7c565b10156113935761137061025885612f55565b60018801805463ffffffff60c01b1916600160c01b63ffffffff84160217905595505b60408051898152602081018890526001600160a01b0384169133918c917f2808decb743a25d04efe1bd3dc192acde3be644e2f6ad1dce5d3c46643e1c602910160405180910390a45050600160c95550505050505050565b6113fb6040820160208301612836565b60fb54604051632474521560e21b815260008051602061331e83398151915260048201523360248201526001600160a01b03909116906391d1485490604401602060405180830381865afa158015611457573d6000803e3d6000fd5b505050506040513d601f19601f8201168201806040525081019061147b9190612c2d565b806114f85750806001600160a01b03166343bc16126040518163ffffffff1660e01b8152600401602060405180830381865afa1580156114bf573d6000803e3d6000fd5b505050506040513d601f19601f820116820180604052508101906114e39190612c4a565b6001600160a01b0316336001600160a01b0316145b6115145760405162461bcd60e51b81526004016105e490612c67565b6115246080830160608401612f6d565b63ffffffff16158061155f57506115416060830160408401612f6d565b63ffffffff166115576080840160608501612f6d565b63ffffffff16115b6115a25760405162461bcd60e51b8152602060048201526014602482015273496e76616c69642061756374696f6e2074696d6560601b60448201526064016105e4565b610100820135600090815260fc6020526040902060010154600160a01b900463ffffffff161561160d5760405162461bcd60e51b815260206004820152601660248201527541756374696f6e20616c72656164792065786973747360501b60448201526064016105e4565b610100820135600090815260fc60205260409020829061162d8282613114565b905050611638611f5c565b610100830135600081815260fe6020908152604091829020939093557f5d551e2a2cc977fd8c530317059b4f2d9f504fb82f7dfad736f8d56679bcdfd092611684918601908601612836565b604080519283526001600160a01b0390911660208301520160405180910390a15050565b604080516101408101825260008082526020820181905291810182905260608082018390526080820183905260a0820183905260c0820183905260e08201839052610100820192909252610120810191909152600082815260fc602090815260409182902082516101408101845281546001600160a01b03908116825260018301549081169382019390935263ffffffff600160a01b8404811694820194909452600160c01b830484166060820152600160e01b9092049092166080820152600282015460ff16151560a0820152600382015460c0820152600482015460e08201526005820154610100820152600682018054919291610120840191906117ae90612d72565b80601f01602080910402602001604051908101604052809291908181526020018280546117da90612d72565b80156118275780601f106117fc57610100808354040283529160200191611827565b820191906000526020600020905b81548152906001019060200180831161180a57829003601f168201915b5050505050815250509050919050565b60fb54604051632474521560e21b815260008051602061331e83398151915260048201523360248201526001600160a01b03909116906391d1485490604401602060405180830381865afa158015611893573d6000803e3d6000fd5b505050506040513d601f19601f820116820180604052508101906118b79190612c2d565b6118d35760405162461bcd60e51b81526004016105e490612f2b565b610b7e6124c8565b60fb54604051632474521560e21b815260008051602061331e83398151915260048201523360248201526001600160a01b03909116906391d1485490604401602060405180830381865afa158015611937573d6000803e3d6000fd5b505050506040513d601f19601f8201168201806040525081019061195b9190612c2d565b6119775760405162461bcd60e51b81526004016105e490612f2b565b600083815260fc602052604090206002015460ff16156119a95760405162461bcd60e51b81526004016105e490612d3b565b600083815260fc6020526040902060010154600160a01b900463ffffffff16611a085760405162461bcd60e51b8152602060048201526011602482015270105d58dd1a5bdb881b9bdd08199bdd5b99607a1b60448201526064016105e4565b600092835260fc60205260409092206003810191909155600101805463ffffffff909216600160c01b0263ffffffff60c01b19909216919091179055565b600260c95403611a685760405162461bcd60e51b81526004016105e490612d04565b600260c95560fb54604051632474521560e21b815260008051602061331e83398151915260048201523360248201526001600160a01b03909116906391d1485490604401602060405180830381865afa158015611ac9573d6000803e3d6000fd5b505050506040513d601f19601f82011682018060405250810190611aed9190612c2d565b611b095760405162461bcd60e51b81526004016105e490612f2b565b600081815260fc60205260409020600281015460ff1615611b6c5760405162461bcd60e51b815260206004820152601b60248201527f41756374696f6e20697320616c72656164792066696e6973686564000000000060448201526064016105e4565b80546004820180546001600160a01b031983168455600090915560028301805460ff191660011790556001600160a01b03909116908115611bca57600084815260ff6020526040902054611bca906001600160a01b031683836120e9565b6040516001600160a01b0383169085907f10ac9f0bb365b5d22d7bec500408692f23fdf83eadfec71615ef88b4c1134f0e90600090a35050600160c9555050565b600082815260fc6020526040902060010154600160a01b900463ffffffff16611c6e5760405162461bcd60e51b8152602060048201526015602482015274105d58dd1a5bdb88191bd95cdb89dd08195e1a5cdd605a1b60448201526064016105e4565b60fb54604051632474521560e21b815260008051602061331e83398151915260048201523360248201526001600160a01b03909116906391d1485490604401602060405180830381865afa158015611cca573d6000803e3d6000fd5b505050506040513d601f19601f82011682018060405250810190611cee9190612c2d565b80611d845750600082815260fc60209081526040918290206001015482516321de0b0960e11b815292516001600160a01b03909116926343bc16129260048083019391928290030181865afa158015611d4b573d6000803e3d6000fd5b505050506040513d601f19601f82011682018060405250810190611d6f9190612c4a565b6001600160a01b0316336001600160a01b0316145b611da05760405162461bcd60e51b81526004016105e490612c67565b612710811115611de25760405162461bcd60e51b815260206004820152600d60248201526c496e76616c696420736861726560981b60448201526064016105e4565b600091825260fe602052604090912055565b600260c95403611e165760405162461bcd60e51b81526004016105e490612d04565b600260c955336000908152610100602052604090205480611e6f5760405162461bcd60e51b81526020600482015260136024820152724e6f7468696e6720746f20776974686472617760681b60448201526064016105e4565b33600081815261010060205260408082208290555190919083908381818185875af1925050503d8060008114611ec1576040519150601f19603f3d011682016040523d82523d6000602084013e611ec6565b606091505b5050905080611f0d5760405162461bcd60e51b8152602060048201526013602482015272115512081d1c985b9cd9995c8819985a5b1959606a1b60448201526064016105e4565b5050600160c955565b60975460ff1615610b7e5760405162461bcd60e51b815260206004820152601060248201526f14185d5cd8589b194e881c185d5cd95960821b60448201526064016105e4565b60fb546040516d616464726573732e636f6e66696760901b602082015260009182916001600160a01b03909116906321f8a72190602e01604051602081830303815290604052805190602001206040518263ffffffff1660e01b8152600401611fc791815260200190565b602060405180830381865afa158015611fe4573d6000803e3d6000fd5b505050506040513d601f19601f820116820180604052508101906120089190612c4a565b90506001600160a01b03811661202157611f4091505090565b6000816001600160a01b031663bd02d0f560405160200161205b90721cda185c994b9c1c9a5b585c9e505c9d1a5cdd606a1b815260130190565b604051602081830303815290604052805190602001206040518263ffffffff1660e01b815260040161208f91815260200190565b602060405180830381865afa1580156120ac573d6000803e3d6000fd5b505050506040513d601f19601f820116820180604052508101906120d0919061324d565b905080156120de57806120e2565b611f405b9250505090565b806000036120f657505050565b73eeeeeeeeeeeeeeeeeeeeeeeeeeeeeeeeeeeeeeed196001600160a01b038416016121af576000826001600160a01b03168261753090604051600060405180830381858888f193505050503d806000811461216d576040519150601f19603f3d011682016040523d82523d6000602084013e612172565b606091505b50509050806106e4576001600160a01b03831660009081526101006020526040812080548492906121a4908490612f55565b909155505050505050565b60fd5460405163a9059cbb60e01b81526001600160a01b038481166004830152602482018490529091169063a9059cbb906044016020604051808303816000875af1158015612202573d6000803e3d6000fd5b505050506040513d601f19601f820116820180604052508101906106e49190612c2d565b60fb54604051632474521560e21b8152600060048201523360248201526001600160a01b03909116906391d1485490604401602060405180830381865afa158015612275573d6000803e3d6000fd5b505050506040513d601f19601f820116820180604052508101906122999190612c2d565b610ad75760405162461bcd60e51b81526004016105e490612f2b565b7f4910fdfa16fed3260ed0e7147f7cc6da11a60208b5b9406d12a635614ffd91435460ff16156122e857610cc683612505565b826001600160a01b03166352d1902d6040518163ffffffff1660e01b8152600401602060405180830381865afa925050508015612342575060408051601f3d908101601f1916820190925261233f9181019061324d565b60015b6123a55760405162461bcd60e51b815260206004820152602e60248201527f45524331393637557067726164653a206e657720696d706c656d656e7461746960448201526d6f6e206973206e6f74205555505360901b60648201526084016105e4565b6000805160206132d783398151915281146124145760405162461bcd60e51b815260206004820152602960248201527f45524331393637557067726164653a20756e737570706f727465642070726f786044820152681a58589b195555525160ba1b60648201526084016105e4565b50610cc68383836125a1565b6124286125c6565b6097805460ff191690557f5db9ee0a495bf2e6ff9c91a7834c1ba4fdd244a5e8aa4e537bd38aeae4b073aa335b6040516001600160a01b03909116815260200160405180910390a1565b600054610100900460ff166124995760405162461bcd60e51b81526004016105e490613266565b610b7e61260f565b600054610100900460ff16610b7e5760405162461bcd60e51b81526004016105e490613266565b6124d0611f16565b6097805460ff191660011790557f62e78cea01bee320cd4e420270b5ea74000d11b0c9f74754ebdbfc544b05a2586124553390565b6001600160a01b0381163b6125725760405162461bcd60e51b815260206004820152602d60248201527f455243313936373a206e657720696d706c656d656e746174696f6e206973206e60448201526c1bdd08184818dbdb9d1c9858dd609a1b60648201526084016105e4565b6000805160206132d783398151915280546001600160a01b0319166001600160a01b0392909216919091179055565b6125aa83612642565b6000825111806125b75750805b15610cc6576106e48383612682565b60975460ff16610b7e5760405162461bcd60e51b815260206004820152601460248201527314185d5cd8589b194e881b9bdd081c185d5cd95960621b60448201526064016105e4565b600054610100900460ff166126365760405162461bcd60e51b81526004016105e490613266565b6097805460ff19169055565b61264b81612505565b6040516001600160a01b038216907fbc7cd75a20ee27fd9adebab32041f755214dbc6bffa90cc0225b39da2e5c2d3b90600090a250565b60606001600160a01b0383163b6126ea5760405162461bcd60e51b815260206004820152602660248201527f416464726573733a2064656c65676174652063616c6c20746f206e6f6e2d636f6044820152651b9d1c9858dd60d21b60648201526084016105e4565b600080846001600160a01b03168460405161270591906132b1565b600060405180830381855af49150503d8060008114612740576040519150601f19603f3d011682016040523d82523d6000602084013e612745565b606091505b509150915061276d82826040518060600160405280602781526020016132f760279139612776565b95945050505050565b606083156127855750816127af565b8251156127955782518084602001fd5b8160405162461bcd60e51b81526004016105e491906132c3565b9392505050565b600061014082840312156127c957600080fd5b50919050565b6001600160a01b0381168114610ad757600080fd5b600080604083850312156127f757600080fd5b823567ffffffffffffffff81111561280e57600080fd5b61281a858286016127b6565b925050602083013561282b816127cf565b809150509250929050565b60006020828403121561284857600080fd5b81356127af816127cf565b6000806020838503121561286657600080fd5b823567ffffffffffffffff8082111561287e57600080fd5b818501915085601f83011261289257600080fd5b8135818111156128a157600080fd5b8660208260051b85010111156128b657600080fd5b60209290920196919550909350505050565b6000602082840312156128da57600080fd5b5035919050565b600080604083850312156128f457600080fd5b82356128ff816127cf565b9150602083013561282b816127cf565b634e487b7160e01b600052604160045260246000fd5b6000806040838503121561293857600080fd5b8235612943816127cf565b9150602083013567ffffffffffffffff8082111561296057600080fd5b818501915085601f83011261297457600080fd5b8135818111156129865761298661290f565b604051601f8201601f19908116603f011681019083821181831017156129ae576129ae61290f565b816040528281528860208487010111156129c757600080fd5b8260208601602083013760006020848301015280955050505050509250929050565b60005b83811015612a045781810151838201526020016129ec565b838111156106e45750506000910152565b60008151808452612a2d8160208601602086016129e9565b601f01601f19169290920160200192915050565b6001600160a01b038b811682528a16602082015263ffffffff898116604083015288811660608301528716608082015285151560a082015260c0810185905260e0810184905261010081018390526101406101208201819052600090612aa983820185612a15565b9d9c50505050505050505050505050565b60008060408385031215612acd57600080fd5b50508035926020909101359150565b600060208284031215612aee57600080fd5b813567ffffffffffffffff811115612b0557600080fd5b612b11848285016127b6565b949350505050565b60208152612b336020820183516001600160a01b03169052565b60006020830151612b4f60408401826001600160a01b03169052565b50604083015163ffffffff8116606084015250606083015163ffffffff8116608084015250608083015163ffffffff811660a08401525060a083015180151560c08401525060c083015160e083810191909152830151610100808401919091528301516101208084019190915283015161014080840152612b11610160840182612a15565b63ffffffff81168114610ad757600080fd5b600080600060608486031215612bfb57600080fd5b83359250602084013591506040840135612c1481612bd4565b809150509250925092565b8015158114610ad757600080fd5b600060208284031215612c3f57600080fd5b81516127af81612c1f565b600060208284031215612c5c57600080fd5b81516127af816127cf565b6020808252601e908201527f41646d696e206f7220746865204e4654277320617274697374206f6e6c790000604082015260600190565b634e487b7160e01b600052603260045260246000fd5b6000823561013e19833603018112612ccb57600080fd5b9190910192915050565b634e487b7160e01b600052601160045260246000fd5b600060018201612cfd57612cfd612cd5565b5060010190565b6020808252601f908201527f5265656e7472616e637947756172643a207265656e7472616e742063616c6c00604082015260600190565b60208082526017908201527f41756374696f6e20616c726561647920736574746c6564000000000000000000604082015260600190565b600181811c90821680612d8657607f821691505b6020821081036127c957634e487b7160e01b600052602260045260246000fd5b60018060a01b03831681526000602060408184015260008454612dc881612d72565b8060408701526060600180841660008114612dea5760018114612dfe57612e2c565b60ff19851689840152608089019550612e2c565b896000528660002060005b85811015612e245781548b8201860152908301908801612e09565b8a0184019650505b50939998505050505050505050565b6000816000190483118215151615612e5557612e55612cd5565b500290565b600082612e7757634e487b7160e01b600052601260045260246000fd5b500490565b600082821015612e8e57612e8e612cd5565b500390565b6020808252602c908201527f46756e6374696f6e206d7573742062652063616c6c6564207468726f7567682060408201526b19195b1959d85d1958d85b1b60a21b606082015260800190565b6020808252602c908201527f46756e6374696f6e206d7573742062652063616c6c6564207468726f7567682060408201526b6163746976652070726f787960a01b606082015260800190565b60208082526010908201526f41646d696e2063616c6c73206f6e6c7960801b604082015260600190565b60008219821115612f6857612f68612cd5565b500190565b600060208284031215612f7f57600080fd5b81356127af81612bd4565b60008135612f97816127cf565b92915050565b60008135612f9781612bd4565b60008135612f9781612c1f565b6000808335601e19843603018112612fce57600080fd5b83018035915067ffffffffffffffff821115612fe957600080fd5b602001915036819003821315612ffe57600080fd5b9250929050565b601f821115610cc657600081815260208120601f850160051c8101602086101561302c5750805b601f850160051c820191505b8181101561304b57828155600101613038565b505050505050565b67ffffffffffffffff83111561306b5761306b61290f565b61307f836130798354612d72565b83613005565b6000601f8411600181146130b3576000851561309b5750838201355b600019600387901b1c1916600186901b17835561310d565b600083815260209020601f19861690835b828110156130e457868501358255602094850194600190920191016130c4565b50868210156131015760001960f88860031b161c19848701351681555b505060018560011b0183555b5050505050565b61313d61312083612f8a565b82546001600160a01b0319166001600160a01b0391909116178255565b6001810161315061312060208501612f8a565b61318361315f60408501612f9d565b82805463ffffffff60a01b191660a09290921b63ffffffff60a01b16919091179055565b6131b661319260608501612f9d565b82805463ffffffff60c01b191660c09290921b63ffffffff60c01b16919091179055565b6131e96131c560808501612f9d565b8280546001600160e01b031660e09290921b6001600160e01b031916919091179055565b506132126131f960a08401612faa565b6002830160ff1981541660ff8315151681178255505050565b60c0820135600382015560e08201356004820155610100820135600582015561323f610120830183612fb7565b6106e4818360068601613053565b60006020828403121561325f57600080fd5b5051919050565b6020808252602b908201527f496e697469616c697a61626c653a20636f6e7472616374206973206e6f74206960408201526a6e697469616c697a696e6760a81b606082015260800190565b60008251612ccb8184602087016129e9565b6020815260006127af6020830184612a1556fe360894a13ba1a3210667c828492db98dca3e2076cc3735a920a3ca505d382bbc416464726573733a206c6f772d6c6576656c2064656c65676174652063616c6c206661696c6564e303cb88ace8c9e6ba216f1aecb44b3206dcab364c60512ffc6cbc920a1bf9d1a26469706673582212206b86c86c2381b90277a02d3620dfcb543a45f414acf0d15f02b3f5a338fe5ff464736f6c634300080e0033",
  "linkReferences": {},
  "deployedLinkReferences": {}
}