{
  "_format": "hh-sol-artifact-1",
  "contractName": "Auction",
  "sourceName": "contracts/Auction/Auction.sol",
  "abi": [
    {
      "inputs": [],
      "stateMutability": "nonpayable",
      "type": "constructor"
    },
    {
      "anonymous": false,
      "inputs": [
        {
          "indexed": false,
          "internalType": "address",
          "name": "previousAdmin",
          "type": "address"
        },
        {
          "indexed": false,
          "internalType": "address",
          "name": "newAdmin",
          "type": "address"
        }
      ],
      "name": "AdminChanged",
      "type": "event"
    },
    {
      "anonymous": false,
      "inputs": [
        {
          "indexed": true,
          "internalType": "uint256",
          "name": "auctionId",
          "type": "uint256"
        },
        {
          "indexed": true,
          "internalType": "address",
          "name": "previousBidder",
          "type": "address"
        }
      ],
      "name": "AuctionCancelled",
      "type": "event"
    },
    {
      "anonymous": false,
      "inputs": [
        {
          "indexed": false,
          "internalType": "uint256",
          "name": "auctionId",
          "type": "uint256"
        },
        {
          "indexed": false,
          "internalType": "address",
          "name": "nftContract",
          "type": "address"
        }
      ],
      "name": "AuctionCreated",
      "type": "event"
    },
    {
      "anonymous": false,
      "inputs": [
        {
          "indexed": true,
          "internalType": "uint256",
          "name": "auctionId",
          "type": "uint256"
        },
        {
          "indexed": true,
          "internalType": "address",
          "name": "highestBidder",
          "type": "address"
        },
        {
          "indexed": false,
          "internalType": "uint256",
          "name": "highestBid",
          "type": "uint256"
        }
      ],
      "name": "AuctionSettled",
      "type": "event"
    },
    {
      "anonymous": false,
      "inputs": [
        {
          "indexed": true,
          "internalType": "address",
          "name": "beacon",
          "type": "address"
        }
      ],
      "name": "BeaconUpgraded",
      "type": "event"
    },
    {
      "anonymous": false,
      "inputs": [
        {
          "indexed": true,
          "internalType": "uint256",
          "name": "auctionId",
          "type": "uint256"
        },
        {
          "indexed": true,
          "internalType": "address",
          "name": "newBidder",
          "type": "address"
        },
        {
          "indexed": true,
          "internalType": "address",
          "name": "previousBidder",
          "type": "address"
        },
        {
          "indexed": false,
          "internalType": "uint256",
          "name": "bidAmount",
          "type": "uint256"
        },
        {
          "indexed": false,
          "internalType": "uint256",
          "name": "newEndTime",
          "type": "uint256"
        }
      ],
      "name": "BidPlaced",
      "type": "event"
    },
    {
      "anonymous": false,
      "inputs": [
        {
          "indexed": false,
          "internalType": "uint8",
          "name": "version",
          "type": "uint8"
        }
      ],
      "name": "Initialized",
      "type": "event"
    },
    {
      "anonymous": false,
      "inputs": [
        {
          "indexed": false,
          "internalType": "address",
          "name": "account",
          "type": "address"
        }
      ],
      "name": "Paused",
      "type": "event"
    },
    {
      "anonymous": false,
      "inputs": [
        {
          "indexed": false,
          "internalType": "address",
          "name": "account",
          "type": "address"
        }
      ],
      "name": "Unpaused",
      "type": "event"
    },
    {
      "anonymous": false,
      "inputs": [
        {
          "indexed": true,
          "internalType": "address",
          "name": "implementation",
          "type": "address"
        }
      ],
      "name": "Upgraded",
      "type": "event"
    },
    {
      "inputs": [],
      "name": "DEFAULT_EXTENSION",
      "outputs": [
        {
          "internalType": "uint256",
          "name": "",
          "type": "uint256"
        }
      ],
      "stateMutability": "view",
      "type": "function"
    },
    {
      "inputs": [],
      "name": "NATIVE_CURRENCY",
      "outputs": [
        {
          "internalType": "address",
          "name": "",
          "type": "address"
        }
      ],
      "stateMutability": "view",
      "type": "function"
    },
    {
      "inputs": [
        {
          "internalType": "uint256",
          "name": "",
          "type": "uint256"
        }
      ],
      "name": "auctionArtistShare",
      "outputs": [
        {
          "internalType": "uint256",
          "name": "",
          "type": "uint256"
        }
      ],
      "stateMutability": "view",
      "type": "function"
    },
    {
      "inputs": [
        {
          "internalType": "uint256",
          "name": "",
          "type": "uint256"
        }
      ],
      "name": "auctionCurrency",
      "outputs": [
        {
          "internalType": "address",
          "name": "",
          "type": "address"
        }
      ],
      "stateMutability": "view",
      "type": "function"
    },
    {
      "inputs": [
        {
          "internalType": "uint256",
          "name": "",
          "type": "uint256"
        }
      ],
      "name": "auctions",
      "outputs": [
        {
          "internalType": "address",
          "name": "highestBidder",
          "type": "address"
        },
        {
          "internalType": "contract INFT",
          "name": "nftContract",
          "type": "address"
        },
        {
          "internalType": "uint32",
          "name": "startTime",
          "type": "uint32"
        },
        {
          "internalType": "uint32",
          "name": "endTime",
          "type": "uint32"
        },
        {
          "internalType": "uint32",
          "name": "duration",
          "type": "uint32"
        },
        {
          "internalType": "bool",
          "name": "settled",
          "type": "bool"
        },
        {
          "internalType": "uint256",
          "name": "minimumPrice",
          "type": "uint256"
        },
        {
          "internalType": "uint256",
          "name": "highestBid",
          "type": "uint256"
        },
        {
          "internalType": "uint256",
          "name": "auctionId",
          "type": "uint256"
        },
        {
          "internalType": "string",
          "name": "nftUri",
          "type": "string"
        }
      ],
      "stateMutability": "view",
      "type": "function"
    },
    {
      "inputs": [
        {
          "internalType": "uint256",
          "name": "_auctionId",
          "type": "uint256"
        },
        {
          "internalType": "uint256",
          "name": "_amount",
          "type": "uint256"
        }
      ],
      "name": "bid",
      "outputs": [],
      "stateMutability": "payable",
      "type": "function"
    },
    {
      "inputs": [
        {
          "internalType": "uint256",
          "name": "_auctionId",
          "type": "uint256"
        }
      ],
      "name": "cancelAuction",
      "outputs": [],
      "stateMutability": "nonpayable",
      "type": "function"
    },
    {
      "inputs": [
        {
          "components": [
            {
              "internalType": "address",
              "name": "highestBidder",
              "type": "address"
            },
            {
              "internalType": "contract INFT",
              "name": "nftContract",
              "type": "address"
            },
            {
              "internalType": "uint32",
              "name": "startTime",
              "type": "uint32"
            },
            {
              "internalType": "uint32",
              "name": "endTime",
              "type": "uint32"
            },
            {
              "internalType": "uint32",
              "name": "duration",
              "type": "uint32"
            },
            {
              "internalType": "bool",
              "name": "settled",
              "type": "bool"
            },
            {
              "internalType": "uint256",
              "name": "minimumPrice",
              "type": "uint256"
            },
            {
              "internalType": "uint256",
              "name": "highestBid",
              "type": "uint256"
            },
            {
              "internalType": "uint256",
              "name": "auctionId",
              "type": "uint256"
            },
            {
              "internalType": "string",
              "name": "nftUri",
              "type": "string"
            }
          ],
          "internalType": "struct Auction.AuctionInfo",
          "name": "_auctionInfo",
          "type": "tuple"
        }
      ],
      "name": "createAuction",
      "outputs": [],
      "stateMutability": "nonpayable",
      "type": "function"
    },
    {
      "inputs": [
        {
          "components": [
            {
              "internalType": "address",
              "name": "highestBidder",
              "type": "address"
            },
            {
              "internalType": "contract INFT",
              "name": "nftContract",
              "type": "address"
            },
            {
              "internalType": "uint32",
              "name": "startTime",
              "type": "uint32"
            },
            {
              "internalType": "uint32",
              "name": "endTime",
              "type": "uint32"
            },
            {
              "internalType": "uint32",
              "name": "duration",
              "type": "uint32"
            },
            {
              "internalType": "bool",
              "name": "settled",
              "type": "bool"
            },
            {
              "internalType": "uint256",
              "name": "minimumPrice",
              "type": "uint256"
            },
            {
              "internalType": "uint256",
              "name": "highestBid",
              "type": "uint256"
            },
            {
              "internalType": "uint256",
              "name": "auctionId",
              "type": "uint256"
            },
            {
              "internalType": "string",
              "name": "nftUri",
              "type": "string"
            }
          ],
          "internalType": "struct Auction.AuctionInfo[]",
          "name": "_auctions",
          "type": "tuple[]"
        }
      ],
      "name": "createAuctionBatch",
      "outputs": [],
      "stateMutability": "nonpayable",
      "type": "function"
    },
    {
      "inputs": [
        {
          "components": [
            {
              "internalType": "address",
              "name": "highestBidder",
              "type": "address"
            },
            {
              "internalType": "contract INFT",
              "name": "nftContract",
              "type": "address"
            },
            {
              "internalType": "uint32",
              "name": "startTime",
              "type": "uint32"
            },
            {
              "internalType": "uint32",
              "name": "endTime",
              "type": "uint32"
            },
            {
              "internalType": "uint32",
              "name": "duration",
              "type": "uint32"
            },
            {
              "internalType": "bool",
              "name": "settled",
              "type": "bool"
            },
            {
              "internalType": "uint256",
              "name": "minimumPrice",
              "type": "uint256"
            },
            {
              "internalType": "uint256",
              "name": "highestBid",
              "type": "uint256"
            },
            {
              "internalType": "uint256",
              "name": "auctionId",
              "type": "uint256"
            },
            {
              "internalType": "string",
              "name": "nftUri",
              "type": "string"
            }
          ],
          "internalType": "struct Auction.AuctionInfo",
          "name": "_auctionInfo",
          "type": "tuple"
        },
        {
          "internalType": "address",
          "name": "_currency",
          "type": "address"
        }
      ],
      "name": "createAuctionWithCurrency",
      "outputs": [],
      "stateMutability": "nonpayable",
      "type": "function"
    },
    {
      "inputs": [
        {
          "internalType": "uint256",
          "name": "_auctionId",
          "type": "uint256"
        }
      ],
      "name": "getAuction",
      "outputs": [
        {
          "components": [
            {
              "internalType": "address",
              "name": "highestBidder",
              "type": "address"
            },
            {
              "internalType": "contract INFT",
              "name": "nftContract",
              "type": "address"
            },
            {
              "internalType": "uint32",
              "name": "startTime",
              "type": "uint32"
            },
            {
              "internalType": "uint32",
              "name": "endTime",
              "type": "uint32"
            },
            {
              "internalType": "uint32",
              "name": "duration",
              "type": "uint32"
            },
            {
              "internalType": "bool",
              "name": "settled",
              "type": "bool"
            },
            {
              "internalType": "uint256",
              "name": "minimumPrice",
              "type": "uint256"
            },
            {
              "internalType": "uint256",
              "name": "highestBid",
              "type": "uint256"
            },
            {
              "internalType": "uint256",
              "name": "auctionId",
              "type": "uint256"
            },
            {
              "internalType": "string",
              "name": "nftUri",
              "type": "string"
            }
          ],
          "internalType": "struct Auction.AuctionInfo",
          "name": "",
          "type": "tuple"
        }
      ],
      "stateMutability": "view",
      "type": "function"
    },
    {
      "inputs": [],
      "name": "getBidIncrementPercentage",
      "outputs": [
        {
          "internalType": "uint256",
          "name": "",
          "type": "uint256"
        }
      ],
      "stateMutability": "pure",
      "type": "function"
    },
    {
      "inputs": [
        {
          "internalType": "address",
          "name": "_token",
          "type": "address"
        },
        {
          "internalType": "address",
          "name": "_storage",
          "type": "address"
        }
      ],
      "name": "initialize",
      "outputs": [],
      "stateMutability": "nonpayable",
      "type": "function"
    },
    {
      "inputs": [],
      "name": "pause",
      "outputs": [],
      "stateMutability": "nonpayable",
      "type": "function"
    },
    {
      "inputs": [],
      "name": "paused",
      "outputs": [
        {
          "internalType": "bool",
          "name": "",
          "type": "bool"
        }
      ],
      "stateMutability": "view",
      "type": "function"
    },
    {
      "inputs": [
        {
          "internalType": "address",
          "name": "",
          "type": "address"
        }
      ],
      "name": "pendingReturns",
      "outputs": [
        {
          "internalType": "uint256",
          "name": "",
          "type": "uint256"
        }
      ],
      "stateMutability": "view",
      "type": "function"
    },
    {
      "inputs": [],
      "name": "proxiableUUID",
      "outputs": [
        {
          "internalType": "bytes32",
          "name": "",
          "type": "bytes32"
        }
      ],
      "stateMutability": "view",
      "type": "function"
    },
    {
      "inputs": [
        {
          "internalType": "uint256",
          "name": "_auctionId",
          "type": "uint256"
        },
        {
          "internalType": "uint256",
          "name": "_shareBps",
          "type": "uint256"
        }
      ],
      "name": "setAuctionArtistShare",
      "outputs": [],
      "stateMutability": "nonpayable",
      "type": "function"
    },
    {
      "inputs": [
        {
          "internalType": "uint256",
          "name": "_auctionId",
          "type": "uint256"
        }
      ],
      "name": "settleAuction",
      "outputs": [],
      "stateMutability": "nonpayable",
      "type": "function"
    },
    {
      "inputs": [],
      "name": "token",
      "outputs": [
        {
          "internalType": "contract IERC20",
          "name": "",
          "type": "address"
        }
      ],
      "stateMutability": "view",
      "type": "function"
    },
    {
      "inputs": [],
      "name": "unpause",
      "outputs": [],
      "stateMutability": "nonpayable",
      "type": "function"
    },
    {
      "inputs": [
        {
          "internalType": "uint256",
          "name": "_auctionId",
          "type": "uint256"
        },
        {
          "internalType": "uint256",
          "name": "_minimumPrice",
          "type": "uint256"
        },
        {
          "internalType": "uint32",
          "name": "_endTime",
          "type": "uint32"
        }
      ],
      "name": "updateAuction",
      "outputs": [],
      "stateMutability": "nonpayable",
      "type": "function"
    },
    {
      "inputs": [
        {
          "internalType": "address",
          "name": "newImplementation",
          "type": "address"
        }
      ],
      "name": "upgradeTo",
      "outputs": [],
      "stateMutability": "nonpayable",
      "type": "function"
    },
    {
      "inputs": [
        {
          "internalType": "address",
          "name": "newImplementation",
          "type": "address"
        },
        {
          "internalType": "bytes",
          "name": "data",
          "type": "bytes"
        }
      ],
      "name": "upgradeToAndCall",
      "outputs": [],
      "stateMutability": "payable",
      "type": "function"
    },
    {
      "inputs": [],
      "name": "withdrawPendingReturns",
      "outputs": [],
      "stateMutability": "nonpayable",
      "type": "function"
    }
  ],
  "bytecode": "0x60a0604052306080523480156200001557600080fd5b506200002062000026565b620000e8565b600054610100900460ff1615620000935760405162461bcd60e51b815260206004820152602760248201527f496e697469616c697a61626c653a20636f6e747261637420697320696e697469604482015266616c697a696e6760c81b606482015260840160405180910390fd5b60005460ff9081161015620000e6576000805460ff191660ff9081179091556040519081527f7f26b83ff96e1f2b6a682f133852f6798a09c465da95921460cefb38474024989060200160405180910390a15b565b6080516132266200012060003960008181610a1301528181610a5301528181610ce301528181610d230152610db601526132266000f3fe6080604052600436106101665760003560e01c8063598647f8116100d157806396b5a7551161008a578063d4a22c3211610064578063d4a22c3214610439578063ec29021514610459578063ede959051461046e578063fc0c546a1461049b57600080fd5b806396b5a755146103cd5780639a096a50146103ed578063a473205c1461042357600080fd5b8063598647f8146103155780635c975abb146103285780635e6c1d631461034b57806378bd79351461036b5780638456cb59146103985780638f803842146103ad57600080fd5b8063481b13d211610123578063481b13d214610243578063485cc9551461025757806349f42650146102775780634f1ef286146102b757806352d1902d146102ca578063571a26a0146102df57600080fd5b806306ef081f1461016b57806326b387bb1461018d5780632bb36adc146101ce5780632e993611146101ee5780633659cfe61461020e5780633f4ba83a1461022e575b600080fd5b34801561017757600080fd5b5061018b6101863660046126ce565b6104bb565b005b34801561019957600080fd5b506101bb6101a8366004612720565b6101006020526000908152604090205481565b6040519081526020015b60405180910390f35b3480156101da57600080fd5b5061018b6101e936600461273d565b610613565b3480156101fa57600080fd5b5061018b6102093660046127b2565b6106f8565b34801561021a57600080fd5b5061018b610229366004612720565b610a09565b34801561023a57600080fd5b5061018b610ae8565b34801561024f57600080fd5b5060646101bb565b34801561026357600080fd5b5061018b6102723660046127cb565b610b8e565b34801561028357600080fd5b5061029f73eeeeeeeeeeeeeeeeeeeeeeeeeeeeeeeeeeeeeeee81565b6040516001600160a01b0390911681526020016101c5565b61018b6102c536600461280f565b610cd9565b3480156102d657600080fd5b506101bb610da9565b3480156102eb57600080fd5b506102ff6102fa3660046127b2565b610e5c565b6040516101c59a9998979695949392919061292b565b61018b6103233660046129a4565b610f58565b34801561033457600080fd5b5060975460ff1660405190151581526020016101c5565b34801561035757600080fd5b5061018b6103663660046129c6565b6113f9565b34801561037757600080fd5b5061038b6103863660046127b2565b611628565b6040516101c59190612a03565b3480156103a457600080fd5b5061018b6117b7565b3480156103b957600080fd5b5061018b6103c8366004612ad0565b61185b565b3480156103d957600080fd5b5061018b6103e83660046127b2565b6119c6565b3480156103f957600080fd5b5061029f6104083660046127b2565b60ff602052600090815260409020546001600160a01b031681565b34801561042f57600080fd5b506101bb61025881565b34801561044557600080fd5b5061018b6104543660046129a4565b611b8b565b34801561046557600080fd5b5061018b611cde565b34801561047a57600080fd5b506101bb6104893660046127b2565b60fe6020526000908152604090205481565b3480156104a757600080fd5b5060fd5461029f906001600160a01b031681565b60fb54604051632474521560e21b81526000805160206131d183398151915260048201523360248201526001600160a01b03909116906391d1485490604401602060405180830381865afa158015610517573d6000803e3d6000fd5b505050506040513d601f19601f8201168201806040525081019061053b9190612b17565b6105605760405162461bcd60e51b815260040161055790612b34565b60405180910390fd5b6001600160a01b038116158061059257506001600160a01b03811673eeeeeeeeeeeeeeeeeeeeeeeeeeeeeeeeeeeeeeee145b6105d55760405162461bcd60e51b8152602060048201526014602482015273556e737570706f727465642063757272656e637960601b6044820152606401610557565b6105de826113f9565b6101009190910135600090815260ff6020526040902080546001600160a01b0319166001600160a01b03909216919091179055565b60fb54604051632474521560e21b81526000805160206131d183398151915260048201523360248201526001600160a01b03909116906391d1485490604401602060405180830381865afa15801561066f573d6000803e3d6000fd5b505050506040513d601f19601f820116820180604052508101906106939190612b17565b6106af5760405162461bcd60e51b815260040161055790612b34565b8060005b818110156106f2576106e28484838181106106d0576106d0612b5e565b90506020028101906103669190612b74565b6106eb81612bab565b90506106b3565b50505050565b600260c9540361071a5760405162461bcd60e51b815260040161055790612bc4565b600260c955610727611e00565b600081815260fc60205260409020600281015460ff161561075a5760405162461bcd60e51b815260040161055790612bfb565b6004810154815460018301546001600160a01b0390911690600160c01b900463ffffffff16801580159061078d57508042115b6107d95760405162461bcd60e51b815260206004820152601860248201527f41756374696f6e206973207374696c6c2072756e6e696e6700000000000000006044820152606401610557565b60028401805460ff191660011790556001600160a01b038216156109b9576001840154604051636902622f60e11b81526001600160a01b039091169063d204c45e9061082e9085906006890190600401612c66565b600060405180830381600087803b15801561084857600080fd5b505af115801561085c573d6000803e3d6000fd5b505050600086815260fe602052604081205491508190036108825761087f611e46565b90505b60006127106108918387612cfb565b61089b9190612d1a565b600088815260ff60209081526040918290205460018a015483516321de0b0960e11b815293519495506001600160a01b039182169461092b94869493909216926343bc161292600480820193918290030181865afa158015610901573d6000803e3d6000fd5b505050506040513d601f19601f820116820180604052508101906109259190612d3c565b84611fd3565b6109b58160fb60009054906101000a90046001600160a01b03166001600160a01b0316634783c35b6040518163ffffffff1660e01b8152600401602060405180830381865afa158015610982573d6000803e3d6000fd5b505050506040513d601f19601f820116820180604052508101906109a69190612d3c565b6109b0858a612d59565b611fd3565b5050505b816001600160a01b0316857fc9f72b276a388619c6d185d146697036241880c36654b1a3ffdad07c24038d99856040516109f591815260200190565b60405180910390a35050600160c955505050565b6001600160a01b037f0000000000000000000000000000000000000000000000000000000000000000163003610a515760405162461bcd60e51b815260040161055790612d70565b7f00000000000000000000000000000000000000000000000000000000000000006001600160a01b0316610a9a60008051602061318a833981519152546001600160a01b031690565b6001600160a01b031614610ac05760405162461bcd60e51b815260040161055790612dbc565b610ac981612110565b60408051600080825260208201909252610ae59183919061219f565b50565b60fb54604051632474521560e21b81526000805160206131d183398151915260048201523360248201526001600160a01b03909116906391d1485490604401602060405180830381865afa158015610b44573d6000803e3d6000fd5b505050506040513d601f19601f82011682018060405250810190610b689190612b17565b610b845760405162461bcd60e51b815260040161055790612b34565b610b8c61230a565b565b600054610100900460ff1615808015610bae5750600054600160ff909116105b80610bc85750303b158015610bc8575060005460ff166001145b610c2b5760405162461bcd60e51b815260206004820152602e60248201527f496e697469616c697a61626c653a20636f6e747261637420697320616c72656160448201526d191e481a5b9a5d1a585b1a5e995960921b6064820152608401610557565b6000805460ff191660011790558015610c4e576000805461ff0019166101001790555b610c5661235c565b610c5e61238b565b60fd80546001600160a01b038086166001600160a01b03199283161790925560fb8054928516929091169190911790558015610cd4576000805461ff0019169055604051600181527f7f26b83ff96e1f2b6a682f133852f6798a09c465da95921460cefb38474024989060200160405180910390a15b505050565b6001600160a01b037f0000000000000000000000000000000000000000000000000000000000000000163003610d215760405162461bcd60e51b815260040161055790612d70565b7f00000000000000000000000000000000000000000000000000000000000000006001600160a01b0316610d6a60008051602061318a833981519152546001600160a01b031690565b6001600160a01b031614610d905760405162461bcd60e51b815260040161055790612dbc565b610d9982612110565b610da58282600161219f565b5050565b6000306001600160a01b037f00000000000000000000000000000000000000000000000000000000000000001614610e495760405162461bcd60e51b815260206004820152603860248201527f555550535570677261646561626c653a206d757374206e6f742062652063616c60448201527f6c6564207468726f7567682064656c656761746563616c6c00000000000000006064820152608401610557565b5060008051602061318a83398151915290565b60fc6020526000908152604090208054600182015460028301546003840154600485015460058601546006870180546001600160a01b03978816989787169763ffffffff600160a01b8904811698600160c01b8104821698600160e01b9091049091169660ff90911695909490939092610ed590612c32565b80601f0160208091040260200160405190810160405280929190818152602001828054610f0190612c32565b8015610f4e5780601f10610f2357610100808354040283529160200191610f4e565b820191906000526020600020905b815481529060010190602001808311610f3157829003601f168201915b505050505090508a565b600260c95403610f7a5760405162461bcd60e51b815260040161055790612bc4565b600260c955610f87611e00565b600082815260fc60205260409020600181015463ffffffff600160c01b8204811691600160a01b9004164281610ff75760405162461bcd60e51b8152602060048201526015602482015274105d58dd1a5bdb88191bd95cdb89dd08195e1a5cdd605a1b6044820152606401610557565b8181101561103f5760405162461bcd60e51b815260206004820152601560248201527441756374696f6e206e6f7420617661696c61626c6560581b6044820152606401610557565b82158061104b57508083115b61108b5760405162461bcd60e51b8152602060048201526011602482015270105d58dd1a5bdb881a185cc8195b991959607a1b6044820152606401610557565b600284015460ff16156110b05760405162461bcd60e51b815260040161055790612bfb565b6000851180156110c4575083600301548510155b6111105760405162461bcd60e51b815260206004820152601960248201527f426964206973206c6f776572207468616e206d696e696d756d000000000000006044820152606401610557565b61271061111e606482612e08565b856004015461112d9190612cfb565b6111379190612d1a565b8510156111965760405162461bcd60e51b815260206004820152602760248201527f426964206973206c6f776572207468616e20686967686573742062696420696e60448201526618dc995b595b9d60ca1b6064820152608401610557565b600086815260ff60205260409020546001600160a01b031673eeeeeeeeeeeeeeeeeeeeeeeeeeeeeeeeeeeeeeed1981016112115785341461120c5760405162461bcd60e51b815260206004820152601060248201526f15dc9bdb99c811551208185b5bdd5b9d60821b6044820152606401610557565b6112dc565b341561125f5760405162461bcd60e51b815260206004820152601c60248201527f41756374696f6e206973206e6f742070726963656420696e20455448000000006044820152606401610557565b60fd546040516323b872dd60e01b8152336004820152306024820152604481018890526001600160a01b03909116906323b872dd906064016020604051808303816000875af11580156112b6573d6000803e3d6000fd5b505050506040513d601f19601f820116820180604052508101906112da9190612b17565b505b84546004860180546001600160a01b0319831633178855908890556001600160a01b0390911690811561131457611314838383611fd3565b8560000361135f57600187015461133890600160e01b900463ffffffff1685612e08565b8760010160186101000a81548163ffffffff021916908363ffffffff1602179055506113a1565b61025861136c8588612d59565b10156113a15761137e61025885612e08565b60018801805463ffffffff60c01b1916600160c01b63ffffffff84160217905595505b60408051898152602081018890526001600160a01b0384169133918c917f2808decb743a25d04efe1bd3dc192acde3be644e2f6ad1dce5d3c46643e1c602910160405180910390a45050600160c95550505050505050565b60fb54604051632474521560e21b81526000805160206131d183398151915260048201523360248201526001600160a01b03909116906391d1485490604401602060405180830381865afa158015611455573d6000803e3d6000fd5b505050506040513d601f19601f820116820180604052508101906114799190612b17565b6114955760405162461bcd60e51b815260040161055790612b34565b6114a56080820160608301612e20565b63ffffffff1615806114e057506114c26060820160408301612e20565b63ffffffff166114d86080830160608401612e20565b63ffffffff16115b6115235760405162461bcd60e51b8152602060048201526014602482015273496e76616c69642061756374696f6e2074696d6560601b6044820152606401610557565b610100810135600090815260fc6020526040902060010154600160a01b900463ffffffff161561158e5760405162461bcd60e51b815260206004820152601660248201527541756374696f6e20616c72656164792065786973747360501b6044820152606401610557565b610100810135600090815260fc6020526040902081906115ae8282612fc7565b9050506115b9611e46565b610100820135600081815260fe6020908152604091829020939093557f5d551e2a2cc977fd8c530317059b4f2d9f504fb82f7dfad736f8d56679bcdfd092611605918501908501612720565b604080519283526001600160a01b0390911660208301520160405180910390a150565b604080516101408101825260008082526020820181905291810182905260608082018390526080820183905260a0820183905260c0820183905260e08201839052610100820192909252610120810191909152600082815260fc602090815260409182902082516101408101845281546001600160a01b03908116825260018301549081169382019390935263ffffffff600160a01b8404811694820194909452600160c01b830484166060820152600160e01b9092049092166080820152600282015460ff16151560a0820152600382015460c0820152600482015460e082015260058201546101008201526006820180549192916101208401919061172e90612c32565b80601f016020809104026020016040519081016040528092919081815260200182805461175a90612c32565b80156117a75780601f1061177c576101008083540402835291602001916117a7565b820191906000526020600020905b81548152906001019060200180831161178a57829003601f168201915b5050505050815250509050919050565b60fb54604051632474521560e21b81526000805160206131d183398151915260048201523360248201526001600160a01b03909116906391d1485490604401602060405180830381865afa158015611813573d6000803e3d6000fd5b505050506040513d601f19601f820116820180604052508101906118379190612b17565b6118535760405162461bcd60e51b815260040161055790612b34565b610b8c6123b2565b60fb54604051632474521560e21b81526000805160206131d183398151915260048201523360248201526001600160a01b03909116906391d1485490604401602060405180830381865afa1580156118b7573d6000803e3d6000fd5b505050506040513d601f19601f820116820180604052508101906118db9190612b17565b6118f75760405162461bcd60e51b815260040161055790612b34565b600083815260fc602052604090206002015460ff16156119295760405162461bcd60e51b815260040161055790612bfb565b600083815260fc6020526040902060010154600160a01b900463ffffffff166119885760405162461bcd60e51b8152602060048201526011602482015270105d58dd1a5bdb881b9bdd08199bdd5b99607a1b6044820152606401610557565b600092835260fc60205260409092206003810191909155600101805463ffffffff909216600160c01b0263ffffffff60c01b19909216919091179055565b600260c954036119e85760405162461bcd60e51b815260040161055790612bc4565b600260c95560fb54604051632474521560e21b81526000805160206131d183398151915260048201523360248201526001600160a01b03909116906391d1485490604401602060405180830381865afa158015611a49573d6000803e3d6000fd5b505050506040513d601f19601f82011682018060405250810190611a6d9190612b17565b611a895760405162461bcd60e51b815260040161055790612b34565b600081815260fc60205260409020600281015460ff1615611aec5760405162461bcd60e51b815260206004820152601b60248201527f41756374696f6e20697320616c72656164792066696e697368656400000000006044820152606401610557565b80546004820180546001600160a01b031983168455600090915560028301805460ff191660011790556001600160a01b03909116908115611b4a57600084815260ff6020526040902054611b4a906001600160a01b03168383611fd3565b6040516001600160a01b0383169085907f10ac9f0bb365b5d22d7bec500408692f23fdf83eadfec71615ef88b4c1134f0e90600090a35050600160c9555050565b60fb54604051632474521560e21b81526000805160206131d183398151915260048201523360248201526001600160a01b03909116906391d1485490604401602060405180830381865afa158015611be7573d6000803e3d6000fd5b505050506040513d601f19601f82011682018060405250810190611c0b9190612b17565b611c275760405162461bcd60e51b815260040161055790612b34565b612710811115611c695760405162461bcd60e51b815260206004820152600d60248201526c496e76616c696420736861726560981b6044820152606401610557565b600082815260fc6020526040902060010154600160a01b900463ffffffff16611ccc5760405162461bcd60e51b8152602060048201526015602482015274105d58dd1a5bdb88191bd95cdb89dd08195e1a5cdd605a1b6044820152606401610557565b600091825260fe602052604090912055565b600260c95403611d005760405162461bcd60e51b815260040161055790612bc4565b600260c955336000908152610100602052604090205480611d595760405162461bcd60e51b81526020600482015260136024820152724e6f7468696e6720746f20776974686472617760681b6044820152606401610557565b33600081815261010060205260408082208290555190919083908381818185875af1925050503d8060008114611dab576040519150601f19603f3d011682016040523d82523d6000602084013e611db0565b606091505b5050905080611df75760405162461bcd60e51b8152602060048201526013602482015272115512081d1c985b9cd9995c8819985a5b1959606a1b6044820152606401610557565b5050600160c955565b60975460ff1615610b8c5760405162461bcd60e51b815260206004820152601060248201526f14185d5cd8589b194e881c185d5cd95960821b6044820152606401610557565b60fb546040516d616464726573732e636f6e66696760901b602082015260009182916001600160a01b03909116906321f8a72190602e01604051602081830303815290604052805190602001206040518263ffffffff1660e01b8152600401611eb191815260200190565b602060405180830381865afa158015611ece573d6000803e3d6000fd5b505050506040513d601f19601f82011682018060405250810190611ef29190612d3c565b90506001600160a01b038116611f0b57611f4091505090565b6000816001600160a01b031663bd02d0f5604051602001611f4590721cda185c994b9c1c9a5b585c9e505c9d1a5cdd606a1b815260130190565b604051602081830303815290604052805190602001206040518263ffffffff1660e01b8152600401611f7991815260200190565b602060405180830381865afa158015611f96573d6000803e3d6000fd5b505050506040513d601f19601f82011682018060405250810190611fba9190613100565b90508015611fc85780611fcc565b611f405b9250505090565b80600003611fe057505050565b73eeeeeeeeeeeeeeeeeeeeeeeeeeeeeeeeeeeeeeed196001600160a01b03841601612099576000826001600160a01b03168261753090604051600060405180830381858888f193505050503d8060008114612057576040519150601f19603f3d011682016040523d82523d6000602084013e61205c565b606091505b50509050806106f2576001600160a01b038316600090815261010060205260408120805484929061208e908490612e08565b909155505050505050565b60fd5460405163a9059cbb60e01b81526001600160a01b038481166004830152602482018490529091169063a9059cbb906044016020604051808303816000875af11580156120ec573d6000803e3d6000fd5b505050506040513d601f19601f820116820180604052508101906106f29190612b17565b60fb54604051632474521560e21b8152600060048201523360248201526001600160a01b03909116906391d1485490604401602060405180830381865afa15801561215f573d6000803e3d6000fd5b505050506040513d601f19601f820116820180604052508101906121839190612b17565b610ae55760405162461bcd60e51b815260040161055790612b34565b7f4910fdfa16fed3260ed0e7147f7cc6da11a60208b5b9406d12a635614ffd91435460ff16156121d257610cd4836123ef565b826001600160a01b03166352d1902d6040518163ffffffff1660e01b8152600401602060405180830381865afa92505050801561222c575060408051601f3d908101601f1916820190925261222991810190613100565b60015b61228f5760405162461bcd60e51b815260206004820152602e60248201527f45524331393637557067726164653a206e657720696d706c656d656e7461746960448201526d6f6e206973206e6f74205555505360901b6064820152608401610557565b60008051602061318a83398151915281146122fe5760405162461bcd60e51b815260206004820152602960248201527f45524331393637557067726164653a20756e737570706f727465642070726f786044820152681a58589b195555525160ba1b6064820152608401610557565b50610cd483838361248b565b6123126124b0565b6097805460ff191690557f5db9ee0a495bf2e6ff9c91a7834c1ba4fdd244a5e8aa4e537bd38aeae4b073aa335b6040516001600160a01b03909116815260200160405180910390a1565b600054610100900460ff166123835760405162461bcd60e51b815260040161055790613119565b610b8c6124f9565b600054610100900460ff16610b8c5760405162461bcd60e51b815260040161055790613119565b6123ba611e00565b6097805460ff191660011790557f62e78cea01bee320cd4e420270b5ea74000d11b0c9f74754ebdbfc544b05a25861233f3390565b6001600160a01b0381163b61245c5760405162461bcd60e51b815260206004820152602d60248201527f455243313936373a206e657720696d706c656d656e746174696f6e206973206e60448201526c1bdd08184818dbdb9d1c9858dd609a1b6064820152608401610557565b60008051602061318a83398151915280546001600160a01b0319166001600160a01b0392909216919091179055565b6124948361252c565b6000825111806124a15750805b15610cd4576106f2838361256c565b60975460ff16610b8c5760405162461bcd60e51b815260206004820152601460248201527314185d5cd8589b194e881b9bdd081c185d5cd95960621b6044820152606401610557565b600054610100900460ff166125205760405162461bcd60e51b815260040161055790613119565b6097805460ff19169055565b612535816123ef565b6040516001600160a01b038216907fbc7cd75a20ee27fd9adebab32041f755214dbc6bffa90cc0225b39da2e5c2d3b90600090a250565b60606001600160a01b0383163b6125d45760405162461bcd60e51b815260206004820152602660248201527f416464726573733a2064656c65676174652063616c6c20746f206e6f6e2d636f6044820152651b9d1c9858dd60d21b6064820152608401610557565b600080846001600160a01b0316846040516125ef9190613164565b600060405180830381855af49150503d806000811461262a576040519150601f19603f3d011682016040523d82523d6000602084013e61262f565b606091505b509150915061265782826040518060600160405280602781526020016131aa60279139612660565b95945050505050565b6060831561266f575081612699565b82511561267f5782518084602001fd5b8160405162461bcd60e51b81526004016105579190613176565b9392505050565b600061014082840312156126b357600080fd5b50919050565b6001600160a01b0381168114610ae557600080fd5b600080604083850312156126e157600080fd5b823567ffffffffffffffff8111156126f857600080fd5b612704858286016126a0565b9250506020830135612715816126b9565b809150509250929050565b60006020828403121561273257600080fd5b8135612699816126b9565b6000806020838503121561275057600080fd5b823567ffffffffffffffff8082111561276857600080fd5b818501915085601f83011261277c57600080fd5b81358181111561278b57600080fd5b8660208260051b85010111156127a057600080fd5b60209290920196919550909350505050565b6000602082840312156127c457600080fd5b5035919050565b600080604083850312156127de57600080fd5b82356127e9816126b9565b91506020830135612715816126b9565b634e487b7160e01b600052604160045260246000fd5b6000806040838503121561282257600080fd5b823561282d816126b9565b9150602083013567ffffffffffffffff8082111561284a57600080fd5b818501915085601f83011261285e57600080fd5b813581811115612870576128706127f9565b604051601f8201601f19908116603f01168101908382118183101715612898576128986127f9565b816040528281528860208487010111156128b157600080fd5b8260208601602083013760006020848301015280955050505050509250929050565b60005b838110156128ee5781810151838201526020016128d6565b838111156106f25750506000910152565b600081518084526129178160208601602086016128d3565b601f01601f19169290920160200192915050565b6001600160a01b038b811682528a16602082015263ffffffff898116604083015288811660608301528716608082015285151560a082015260c0810185905260e0810184905261010081018390526101406101208201819052600090612993838201856128ff565b9d9c50505050505050505050505050565b600080604083850312156129b757600080fd5b50508035926020909101359150565b6000602082840312156129d857600080fd5b813567ffffffffffffffff8111156129ef57600080fd5b6129fb848285016126a0565b949350505050565b60208152612a1d6020820183516001600160a01b03169052565b60006020830151612a3960408401826001600160a01b03169052565b50604083015163ffffffff8116606084015250606083015163ffffffff8116608084015250608083015163ffffffff811660a08401525060a083015180151560c08401525060c083015160e0838101919091528301516101008084019190915283015161012080840191909152830151610140808401526129fb6101608401826128ff565b63ffffffff81168114610ae557600080fd5b600080600060608486031215612ae557600080fd5b83359250602084013591506040840135612afe81612abe565b809150509250925092565b8015158114610ae557600080fd5b600060208284031215612b2957600080fd5b815161269981612b09565b60208082526010908201526f41646d696e2063616c6c73206f6e6c7960801b604082015260600190565b634e487b7160e01b600052603260045260246000fd5b6000823561013e19833603018112612b8b57600080fd5b9190910192915050565b634e487b7160e01b600052601160045260246000fd5b600060018201612bbd57612bbd612b95565b5060010190565b6020808252601f908201527f5265656e7472616e637947756172643a207265656e7472616e742063616c6c00604082015260600190565b60208082526017908201527f41756374696f6e20616c726561647920736574746c6564000000000000000000604082015260600190565b600181811c90821680612c4657607f821691505b6020821081036126b357634e487b7160e01b600052602260045260246000fd5b60018060a01b03831681526000602060408184015260008454612c8881612c32565b8060408701526060600180841660008114612caa5760018114612cbe57612cec565b60ff19851689840152608089019550612cec565b896000528660002060005b85811015612ce45781548b8201860152908301908801612cc9565b8a0184019650505b50939998505050505050505050565b6000816000190483118215151615612d1557612d15612b95565b500290565b600082612d3757634e487b7160e01b600052601260045260246000fd5b500490565b600060208284031215612d4e57600080fd5b8151612699816126b9565b600082821015612d6b57612d6b612b95565b500390565b6020808252602c908201527f46756e6374696f6e206d7573742062652063616c6c6564207468726f7567682060408201526b19195b1959d85d1958d85b1b60a21b606082015260800190565b6020808252602c908201527f46756e6374696f6e206d7573742062652063616c6c6564207468726f7567682060408201526b6163746976652070726f787960a01b606082015260800190565b60008219821115612e1b57612e1b612b95565b500190565b600060208284031215612e3257600080fd5b813561269981612abe565b60008135612e4a816126b9565b92915050565b60008135612e4a81612abe565b60008135612e4a81612b09565b6000808335601e19843603018112612e8157600080fd5b83018035915067ffffffffffffffff821115612e9c57600080fd5b602001915036819003821315612eb157600080fd5b9250929050565b601f821115610cd457600081815260208120601f850160051c81016020861015612edf5750805b601f850160051c820191505b81811015612efe57828155600101612eeb565b505050505050565b67ffffffffffffffff831115612f1e57612f1e6127f9565b612f3283612f2c8354612c32565b83612eb8565b6000601f841160018114612f665760008515612f4e5750838201355b600019600387901b1c1916600186901b178355612fc0565b600083815260209020601f19861690835b82811015612f975786850135825560209485019460019092019101612f77565b5086821015612fb45760001960f88860031b161c19848701351681555b505060018560011b0183555b5050505050565b612ff0612fd383612e3d565b82546001600160a01b0319166001600160a01b0391909116178255565b60018101613003612fd360208501612e3d565b61303661301260408501612e50565b82805463ffffffff60a01b191660a09290921b63ffffffff60a01b16919091179055565b61306961304560608501612e50565b82805463ffffffff60c01b191660c09290921b63ffffffff60c01b16919091179055565b61309c61307860808501612e50565b8280546001600160e01b031660e09290921b6001600160e01b031916919091179055565b506130c56130ac60a08401612e5d565b6002830160ff1981541660ff8315151681178255505050565b60c0820135600382015560e0820135600482015561010082013560058201556130f2610120830183612e6a565b6106f2818360068601612f06565b60006020828403121561311257600080fd5b5051919050565b6020808252602b908201527f496e697469616c697a61626c653a20636f6e7472616374206973206e6f74206960408201526a6e697469616c697a696e6760a81b606082015260800190565b60008251612b8b8184602087016128d3565b60208152600061269960208301846128ff56fe360894a13ba1a3210667c828492db98dca3e2076cc3735a920a3ca505d382bbc416464726573733a206c6f772d6c6576656c2064656c65676174652063616c6c206661696c6564e303cb88ace8c9e6ba216f1aecb44b3206dcab364c60512ffc6cbc920a1bf9d1a2646970667358221220b2e0aa23021858123689a83e8e2326892712b04749b981825929752df709cb1a64736f6c634300080e0033",
  "linkReferences": {},
  "deployedLinkReferences": {}
}