{
  "_format": "hh-sol-artifact-1",
  "contractName": "Auction",
  "sourceName": "contracts/Auction/Auction.sol",
  "abi": [
    {
      "inputs": [],
      "stateMutability": "nonpayable",
      "type": "constructor"
    },
    {
      "anonymous": false,
      "inputs": [
        {
          "indexed": false,
          "internalType": "address",
          "name": "previousAdmin",
          "type": "address"
        },
        {
          "indexed": false,
          "internalType": "address",
          "name": "newAdmin",
          "type": "address"
        }
      ],
      "name": "AdminChanged",
      "type": "event"
    },
    {
      "anonymous": false,
      "inputs": [
        {
          "indexed": true,
          "internalType": "uint256",
          "name": "auctionId",
          "type": "uint256"
        },
        {
          "indexed": true,
          "internalType": "address",
          "name": "previousBidder",
          "type": "address"
        }
      ],
      "name": "AuctionCancelled",
      "type": "event"
    },
    {
      "anonymous": false,
      "inputs": [
        {
          "indexed": false,
          "internalType": "uint256",
          "name": "auctionId",
          "type": "uint256"
        },
        {
          "indexed": false,
          "internalType": "address",
          "name": "nftContract",
          "type": "address"
        }
      ],
      "name": "AuctionCreated",
      "type": "event"
    },
    {
      "anonymous": false,
      "inputs": [
        {
          "indexed": true,
          "internalType": "uint256",
          "name": "auctionId",
          "type": "uint256"
        },
        {
          "indexed": true,
          "internalType": "address",
          "name": "highestBidder",
          "type": "address"
        },
        {
          "indexed": false,
          "internalType": "uint256",
          "name": "highestBid",
          "type": "uint256"
        }
      ],
      "name": "AuctionSettled",
      "type": "event"
    },
    {
      "anonymous": false,
      "inputs": [
        {
          "indexed": true,
          "internalType": "address",
          "name": "beacon",
          "type": "address"
        }
      ],
      "name": "BeaconUpgraded",
      "type": "event"
    },
    {
      "anonymous": false,
      "inputs": [
        {
          "indexed": true,
          "internalType": "uint256",
          "name": "auctionId",
          "type": "uint256"
        },
        {
          "indexed": true,
          "internalType": "address",
          "name": "newBidder",
          "type": "address"
        },
        {
          "indexed": true,
          "internalType": "address",
          "name": "previousBidder",
          "type": "address"
        },
        {
          "indexed": false,
          "internalType": "uint256",
          "name": "bidAmount",
          "type": "uint256"
        },
        {
          "indexed": false,
          "internalType": "uint256",
          "name": "newEndTime",
          "type": "uint256"
        }
      ],
      "name": "BidPlaced",
      "type": "event"
    },
    {
      "anonymous": false,
      "inputs": [
        {
          "indexed": false,
          "internalType": "uint8",
          "name": "version",
          "type": "uint8"
        }
      ],
      "name": "Initialized",
      "type": "event"
    },
    {
      "anonymous": false,
      "inputs": [
        {
          "indexed": false,
          "internalType": "address",
          "name": "account",
          "type": "address"
        }
      ],
      "name": "Paused",
      "type": "event"
    },
    {
      "anonymous": false,
      "inputs": [
        {
          "indexed": false,
          "internalType": "address",
          "name": "account",
          "type": "address"
        }
      ],
      "name": "Unpaused",
      "type": "event"
    },
    {
      "anonymous": false,
      "inputs": [
        {
          "indexed": true,
          "internalType": "address",
          "name": "implementation",
          "type": "address"
        }
      ],
      "name": "Upgraded",
      "type": "event"
    },
    {
      "inputs": [],
      "name": "DEFAULT_EXTENSION",
      "outputs": [
        {
          "internalType": "uint256",
          "name": "",
          "type": "uint256"
        }
      ],
      "stateMutability": "view",
      "type": "function"
    },
    {
      "inputs": [
        {
          "internalType": "uint256",
          "name": "",
          "type": "uint256"
        }
      ],
      "name": "auctions",
      "outputs": [
        {
          "internalType": "address",
          "name": "highestBidder",
          "type": "address"
        },
        {
          "internalType": "contract INFT",
          "name": "nftContract",
          "type": "address"
        },
        {
          "internalType": "uint32",
          "name": "startTime",
          "type": "uint32"
        },
        {
          "internalType": "uint32",
          "name": "endTime",
          "type": "uint32"
        },
        {
          "internalType": "uint32",
          "name": "duration",
          "type": "uint32"
        },
        {
          "internalType": "bool",
          "name": "settled",
          "type": "bool"
        },
        {
          "internalType": "uint256",
          "name": "minimumPrice",
          "type": "uint256"
        },
        {
          "internalType": "uint256",
          "name": "highestBid",
          "type": "uint256"
        },
        {
          "internalType": "uint256",
          "name": "auctionId",
          "type": "uint256"
        },
        {
          "internalType": "string",
          "name": "nftUri",
          "type": "string"
        }
      ],
      "stateMutability": "view",
      "type": "function"
    },
    {
      "inputs": [
        {
          "internalType": "uint256",
          "name": "_auctionId",
          "type": "uint256"
        },
        {
          "internalType": "uint256",
          "name": "_amount",
          "type": "uint256"
        }
      ],
      "name": "bid",
      "outputs": [],
      "stateMutability": "nonpayable",
      "type": "function"
    },
    {
      "inputs": [
        {
          "internalType": "uint256",
          "name": "_auctionId",
          "type": "uint256"
        }
      ],
      "name": "cancelAuction",
      "outputs": [],
      "stateMutability": "nonpayable",
      "type": "function"
    },
    {
      "inputs": [
        {
          "components": [
            {
              "internalType": "address",
              "name": "highestBidder",
              "type": "address"
            },
            {
              "internalType": "contract INFT",
              "name": "nftContract",
              "type": "address"
            },
            {
              "internalType": "uint32",
              "name": "startTime",
              "type": "uint32"
            },
            {
              "internalType": "uint32",
              "name": "endTime",
              "type": "uint32"
            },
            {
              "internalType": "uint32",
              "name": "duration",
              "type": "uint32"
            },
            {
              "internalType": "bool",
              "name": "settled",
              "type": "bool"
            },
            {
              "internalType": "uint256",
              "name": "minimumPrice",
              "type": "uint256"
            },
            {
              "internalType": "uint256",
              "name": "highestBid",
              "type": "uint256"
            },
            {
              "internalType": "uint256",
              "name": "auctionId",
              "type": "uint256"
            },
            {
              "internalType": "string",
              "name": "nftUri",
              "type": "string"
            }
          ],
          "internalType": "struct Auction.AuctionInfo",
          "name": "_auctionInfo",
          "type": "tuple"
        }
      ],
      "name": "createAuction",
      "outputs": [],
      "stateMutability": "nonpayable",
      "type": "function"
    },
    {
      "inputs": [
        {
          "components": [
            {
              "internalType": "address",
              "name": "highestBidder",
              "type": "address"
            },
            {
              "internalType": "contract INFT",
              "name": "nftContract",
              "type": "address"
            },
            {
              "internalType": "uint32",
              "name": "startTime",
              "type": "uint32"
            },
            {
              "internalType": "uint32",
              "name": "endTime",
              "type": "uint32"
            },
            {
              "internalType": "uint32",
              "name": "duration",
              "type": "uint32"
            },
            {
              "internalType": "bool",
              "name": "settled",
              "type": "bool"
            },
            {
              "internalType": "uint256",
              "name": "minimumPrice",
              "type": "uint256"
            },
            {
              "internalType": "uint256",
              "name": "highestBid",
              "type": "uint256"
            },
            {
              "internalType": "uint256",
              "name": "auctionId",
              "type": "uint256"
            },
            {
              "internalType": "string",
              "name": "nftUri",
              "type": "string"
            }
          ],
          "internalType": "struct Auction.AuctionInfo[]",
          "name": "_auctions",
          "type": "tuple[]"
        }
      ],
      "name": "createAuctionBatch",
      "outputs": [],
      "stateMutability": "nonpayable",
      "type": "function"
    },
    {
      "inputs": [
        {
          "internalType": "uint256",
          "name": "_auctionId",
          "type": "uint256"
        }
      ],
      "name": "getAuction",
      "outputs": [
        {
          "components": [
            {
              "internalType": "address",
              "name": "highestBidder",
              "type": "address"
            },
            {
              "internalType": "contract INFT",
              "name": "nftContract",
              "type": "address"
            },
            {
              "internalType": "uint32",
              "name": "startTime",
              "type": "uint32"
            },
            {
              "internalType": "uint32",
              "name": "endTime",
              "type": "uint32"
            },
            {
              "internalType": "uint32",
              "name": "duration",
              "type": "uint32"
            },
            {
              "internalType": "bool",
              "name": "settled",
              "type": "bool"
            },
            {
              "internalType": "uint256",
              "name": "minimumPrice",
              "type": "uint256"
            },
            {
              "internalType": "uint256",
              "name": "highestBid",
              "type": "uint256"
            },
            {
              "internalType": "uint256",
              "name": "auctionId",
              "type": "uint256"
            },
            {
              "internalType": "string",
              "name": "nftUri",
              "type": "string"
            }
          ],
          "internalType": "struct Auction.AuctionInfo",
          "name": "",
          "type": "tuple"
        }
      ],
      "stateMutability": "view",
      "type": "function"
    },
    {
      "inputs": [],
      "name": "getBidIncrementPercentage",
      "outputs": [
        {
          "internalType": "uint256",
          "name": "",
          "type": "uint256"
        }
      ],
      "stateMutability": "pure",
      "type": "function"
    },
    {
      "inputs": [
        {
          "internalType": "address",
          "name": "_token",
          "type": "address"
        },
        {
          "internalType": "address",
          "name": "_storage",
          "type": "address"
        }
      ],
      "name": "initialize",
      "outputs": [],
      "stateMutability": "nonpayable",
      "type": "function"
    },
    {
      "inputs": [],
      "name": "pause",
      "outputs": [],
      "stateMutability": "nonpayable",
      "type": "function"
    },
    {
      "inputs": [],
      "name": "paused",
      "outputs": [
        {
          "internalType": "bool",
          "name": "",
          "type": "bool"
        }
      ],
      "stateMutability": "view",
      "type": "function"
    },
    {
      "inputs": [],
      "name": "proxiableUUID",
      "outputs": [
        {
          "internalType": "bytes32",
          "name": "",
          "type": "bytes32"
        }
      ],
      "stateMutability": "view",
      "type": "function"
    },
    {
      "inputs": [
        {
          "internalType": "uint256",
          "name": "_auctionId",
          "type": "uint256"
        }
      ],
      "name": "settleAuction",
      "outputs": [],
      "stateMutability": "nonpayable",
      "type": "function"
    },
    {
      "inputs": [],
      "name": "token",
      "outputs": [
        {
          "internalType": "contract IERC20",
          "name": "",
          "type": "address"
        }
      ],
      "stateMutability": "view",
      "type": "function"
    },
    {
      "inputs": [],
      "name": "unpause",
      "outputs": [],
      "stateMutability": "nonpayable",
      "type": "function"
    },
    {
      "inputs": [
        {
          "internalType": "uint256",
          "name": "_auctionId",
          "type": "uint256"
        },
        {
          "internalType": "uint256",
          "name": "_minimumPrice",
          "type": "uint256"
        },
        {
          "internalType": "uint32",
          "name": "_endTime",
          "type": "uint32"
        }
      ],
      "name": "updateAuction",
      "outputs": [],
      "stateMutability": "nonpayable",
      "type": "function"
    },
    {
      "inputs": [
        {
          "internalType": "address",
          "name": "newImplementation",
          "type": "address"
        }
      ],
      "name": "upgradeTo",
      "outputs": [],
      "stateMutability": "nonpayable",
      "type": "function"
    },
    {
      "inputs": [
        {
          "internalType": "address",
          "name": "newImplementation",
          "type": "address"
        },
        {
          "internalType": "bytes",
          "name": "data",
          "type": "bytes"
        }
      ],
      "name": "upgradeToAndCall",
      "outputs": [],
      "stateMutability": "payable",
      "type": "function"
    }
  ],
  "bytecode": "0x60a0604052306080523480156200001557600080fd5b506200002062000026565b620000e8565b600054610100900460ff1615620000935760405162461bcd60e51b815260206004820152602760248201527f496e697469616c697a61626c653a20636f6e747261637420697320696e697469604482015266616c697a696e6760c81b606482015260840160405180910390fd5b60005460ff9081161015620000e6576000805460ff191660ff9081179091556040519081527f7f26b83ff96e1f2b6a682f133852f6798a09c465da95921460cefb38474024989060200160405180910390a15b565b608051612ba562000120600039600081816107e40152818161082401528181610ab401528181610af40152610b870152612ba56000f3fe6080604052600436106101095760003560e01c8063598647f8116100955780638456cb59116100645780638456cb59146102b65780638f803842146102cb57806396b5a755146102eb578063a473205c1461030b578063fc0c546a1461032157600080fd5b8063598647f8146102265780635c975abb146102465780635e6c1d631461026957806378bd79351461028957600080fd5b8063481b13d2116100dc578063481b13d214610185578063485cc955146101a85780634f1ef286146101c857806352d1902d146101db578063571a26a0146101f057600080fd5b80632bb36adc1461010e5780632e993611146101305780633659cfe6146101505780633f4ba83a14610170575b600080fd5b34801561011a57600080fd5b5061012e6101293660046120a9565b610359565b005b34801561013c57600080fd5b5061012e61014b36600461211e565b610447565b34801561015c57600080fd5b5061012e61016b36600461214c565b6107da565b34801561017c57600080fd5b5061012e6108b9565b34801561019157600080fd5b5060645b6040519081526020015b60405180910390f35b3480156101b457600080fd5b5061012e6101c3366004612169565b61095f565b61012e6101d63660046121b8565b610aaa565b3480156101e757600080fd5b50610195610b7a565b3480156101fc57600080fd5b5061021061020b36600461211e565b610c2d565b60405161019f9a999897969594939291906122d4565b34801561023257600080fd5b5061012e61024136600461234d565b610d29565b34801561025257600080fd5b5060975460ff16604051901515815260200161019f565b34801561027557600080fd5b5061012e61028436600461236f565b61119d565b34801561029557600080fd5b506102a96102a436600461211e565b6113af565b60405161019f91906123ab565b3480156102c257600080fd5b5061012e61153e565b3480156102d757600080fd5b5061012e6102e6366004612480565b6115e2565b3480156102f757600080fd5b5061012e61030636600461211e565b61174d565b34801561031757600080fd5b5061019561025881565b34801561032d57600080fd5b5060fd54610341906001600160a01b031681565b6040516001600160a01b03909116815260200161019f565b60fb54604051632474521560e21b8152600080516020612b5083398151915260048201523360248201526001600160a01b03909116906391d1485490604401602060405180830381865afa1580156103b5573d6000803e3d6000fd5b505050506040513d601f19601f820116820180604052508101906103d991906124c7565b6103fe5760405162461bcd60e51b81526004016103f5906124e4565b60405180910390fd5b8060005b818110156104415761043184848381811061041f5761041f61250e565b90506020028101906102849190612524565b61043a8161255b565b9050610402565b50505050565b61044f611946565b600081815260fc60205260409020600281015460ff16156104825760405162461bcd60e51b81526004016103f590612574565b6004810154815460018301546001600160a01b0390911690600160c01b900463ffffffff1680158015906104b557508042115b6105015760405162461bcd60e51b815260206004820152601860248201527f41756374696f6e206973207374696c6c2072756e6e696e67000000000000000060448201526064016103f5565b60028401805460ff191660011790556001600160a01b0382161561078f576001840154604051636902622f60e11b81526001600160a01b039091169063d204c45e9061055690859060068901906004016125e5565b600060405180830381600087803b15801561057057600080fd5b505af1158015610584573d6000803e3d6000fd5b50505050600061271061059561198c565b61059f908661267a565b6105a99190612699565b60fd546001870154604080516321de0b0960e11b815290519394506001600160a01b039283169363a9059cbb93909216916343bc1612916004808201926020929091908290030181865afa158015610605573d6000803e3d6000fd5b505050506040513d601f19601f8201168201806040525081019061062991906126bb565b6040516001600160e01b031960e084901b1681526001600160a01b039091166004820152602481018490526044016020604051808303816000875af1158015610676573d6000803e3d6000fd5b505050506040513d601f19601f8201168201806040525081019061069a91906124c7565b5060fd5460fb5460408051634783c35b60e01b815290516001600160a01b039384169363a9059cbb931691634783c35b9160048083019260209291908290030181865afa1580156106ef573d6000803e3d6000fd5b505050506040513d601f19601f8201168201806040525081019061071391906126bb565b61071d84886126d8565b6040516001600160e01b031960e085901b1681526001600160a01b03909216600483015260248201526044016020604051808303816000875af1158015610768573d6000803e3d6000fd5b505050506040513d601f19601f8201168201806040525081019061078c91906124c7565b50505b816001600160a01b0316857fc9f72b276a388619c6d185d146697036241880c36654b1a3ffdad07c24038d99856040516107cb91815260200190565b60405180910390a35050505050565b6001600160a01b037f00000000000000000000000000000000000000000000000000000000000000001630036108225760405162461bcd60e51b81526004016103f5906126ef565b7f00000000000000000000000000000000000000000000000000000000000000006001600160a01b031661086b600080516020612b09833981519152546001600160a01b031690565b6001600160a01b0316146108915760405162461bcd60e51b81526004016103f59061273b565b61089a81611b19565b604080516000808252602082019092526108b691839190611ba8565b50565b60fb54604051632474521560e21b8152600080516020612b5083398151915260048201523360248201526001600160a01b03909116906391d1485490604401602060405180830381865afa158015610915573d6000803e3d6000fd5b505050506040513d601f19601f8201168201806040525081019061093991906124c7565b6109555760405162461bcd60e51b81526004016103f5906124e4565b61095d611d13565b565b600054610100900460ff161580801561097f5750600054600160ff909116105b806109995750303b158015610999575060005460ff166001145b6109fc5760405162461bcd60e51b815260206004820152602e60248201527f496e697469616c697a61626c653a20636f6e747261637420697320616c72656160448201526d191e481a5b9a5d1a585b1a5e995960921b60648201526084016103f5565b6000805460ff191660011790558015610a1f576000805461ff0019166101001790555b610a27611d65565b610a2f611d94565b60fd80546001600160a01b038086166001600160a01b03199283161790925560fb8054928516929091169190911790558015610aa5576000805461ff0019169055604051600181527f7f26b83ff96e1f2b6a682f133852f6798a09c465da95921460cefb38474024989060200160405180910390a15b505050565b6001600160a01b037f0000000000000000000000000000000000000000000000000000000000000000163003610af25760405162461bcd60e51b81526004016103f5906126ef565b7f00000000000000000000000000000000000000000000000000000000000000006001600160a01b0316610b3b600080516020612b09833981519152546001600160a01b031690565b6001600160a01b031614610b615760405162461bcd60e51b81526004016103f59061273b565b610b6a82611b19565b610b7682826001611ba8565b5050565b6000306001600160a01b037f00000000000000000000000000000000000000000000000000000000000000001614610c1a5760405162461bcd60e51b815260206004820152603860248201527f555550535570677261646561626c653a206d757374206e6f742062652063616c60448201527f6c6564207468726f7567682064656c656761746563616c6c000000000000000060648201526084016103f5565b50600080516020612b0983398151915290565b60fc6020526000908152604090208054600182015460028301546003840154600485015460058601546006870180546001600160a01b03978816989787169763ffffffff600160a01b8904811698600160c01b8104821698600160e01b9091049091169660ff90911695909490939092610ca6906125ab565b80601f0160208091040260200160405190810160405280929190818152602001828054610cd2906125ab565b8015610d1f5780601f10610cf457610100808354040283529160200191610d1f565b820191906000526020600020905b815481529060010190602001808311610d0257829003601f168201915b505050505090508a565b600260c95403610d7b5760405162461bcd60e51b815260206004820152601f60248201527f5265656e7472616e637947756172643a207265656e7472616e742063616c6c0060448201526064016103f5565b600260c955610d88611946565b600082815260fc60205260409020600181015463ffffffff600160c01b8204811691600160a01b9004164281610df85760405162461bcd60e51b8152602060048201526015602482015274105d58dd1a5bdb88191bd95cdb89dd08195e1a5cdd605a1b60448201526064016103f5565b81811015610e405760405162461bcd60e51b815260206004820152601560248201527441756374696f6e206e6f7420617661696c61626c6560581b60448201526064016103f5565b821580610e4c57508083115b610e8c5760405162461bcd60e51b8152602060048201526011602482015270105d58dd1a5bdb881a185cc8195b991959607a1b60448201526064016103f5565b600284015460ff1615610eb15760405162461bcd60e51b81526004016103f590612574565b600085118015610ec5575083600301548510155b610f115760405162461bcd60e51b815260206004820152601960248201527f426964206973206c6f776572207468616e206d696e696d756d0000000000000060448201526064016103f5565b612710610f1f606482612787565b8560040154610f2e919061267a565b610f389190612699565b851015610f975760405162461bcd60e51b815260206004820152602760248201527f426964206973206c6f776572207468616e20686967686573742062696420696e60448201526618dc995b595b9d60ca1b60648201526084016103f5565b60fd546040516323b872dd60e01b8152336004820152306024820152604481018790526001600160a01b03909116906323b872dd906064016020604051808303816000875af1158015610fee573d6000803e3d6000fd5b505050506040513d601f19601f8201168201806040525081019061101291906124c7565b5083546004850180546001600160a01b0319831633178755908790556001600160a01b039091169081156110b95760fd5460405163a9059cbb60e01b81526001600160a01b038481166004830152602482018490529091169063a9059cbb906044016020604051808303816000875af1158015611093573d6000803e3d6000fd5b505050506040513d601f19601f820116820180604052508101906110b791906124c7565b505b846000036111045760018601546110dd90600160e01b900463ffffffff1684612787565b8660010160186101000a81548163ffffffff021916908363ffffffff160217905550611146565b61025861111184876126d8565b10156111465761112361025884612787565b60018701805463ffffffff60c01b1916600160c01b63ffffffff84160217905594505b60408051888152602081018790526001600160a01b0384169133918b917f2808decb743a25d04efe1bd3dc192acde3be644e2f6ad1dce5d3c46643e1c602910160405180910390a45050600160c955505050505050565b60fb54604051632474521560e21b8152600080516020612b5083398151915260048201523360248201526001600160a01b03909116906391d1485490604401602060405180830381865afa1580156111f9573d6000803e3d6000fd5b505050506040513d601f19601f8201168201806040525081019061121d91906124c7565b6112395760405162461bcd60e51b81526004016103f5906124e4565b611249608082016060830161279f565b63ffffffff1615806112845750611266606082016040830161279f565b63ffffffff1661127c608083016060840161279f565b63ffffffff16115b6112c75760405162461bcd60e51b8152602060048201526014602482015273496e76616c69642061756374696f6e2074696d6560601b60448201526064016103f5565b610100810135600090815260fc6020526040902060010154600160a01b900463ffffffff16156113325760405162461bcd60e51b815260206004820152601660248201527541756374696f6e20616c72656164792065786973747360501b60448201526064016103f5565b610100810135600090815260fc6020526040902081906113528282612946565b507f5d551e2a2cc977fd8c530317059b4f2d9f504fb82f7dfad736f8d56679bcdfd0905061010082013561138c604084016020850161214c565b604080519283526001600160a01b0390911660208301520160405180910390a150565b604080516101408101825260008082526020820181905291810182905260608082018390526080820183905260a0820183905260c0820183905260e08201839052610100820192909252610120810191909152600082815260fc602090815260409182902082516101408101845281546001600160a01b03908116825260018301549081169382019390935263ffffffff600160a01b8404811694820194909452600160c01b830484166060820152600160e01b9092049092166080820152600282015460ff16151560a0820152600382015460c0820152600482015460e08201526005820154610100820152600682018054919291610120840191906114b5906125ab565b80601f01602080910402602001604051908101604052809291908181526020018280546114e1906125ab565b801561152e5780601f106115035761010080835404028352916020019161152e565b820191906000526020600020905b81548152906001019060200180831161151157829003601f168201915b5050505050815250509050919050565b60fb54604051632474521560e21b8152600080516020612b5083398151915260048201523360248201526001600160a01b03909116906391d1485490604401602060405180830381865afa15801561159a573d6000803e3d6000fd5b505050506040513d601f19601f820116820180604052508101906115be91906124c7565b6115da5760405162461bcd60e51b81526004016103f5906124e4565b61095d611dbb565b60fb54604051632474521560e21b8152600080516020612b5083398151915260048201523360248201526001600160a01b03909116906391d1485490604401602060405180830381865afa15801561163e573d6000803e3d6000fd5b505050506040513d601f19601f8201168201806040525081019061166291906124c7565b61167e5760405162461bcd60e51b81526004016103f5906124e4565b600083815260fc602052604090206002015460ff16156116b05760405162461bcd60e51b81526004016103f590612574565b600083815260fc6020526040902060010154600160a01b900463ffffffff1661170f5760405162461bcd60e51b8152602060048201526011602482015270105d58dd1a5bdb881b9bdd08199bdd5b99607a1b60448201526064016103f5565b600092835260fc60205260409092206003810191909155600101805463ffffffff909216600160c01b0263ffffffff60c01b19909216919091179055565b60fb54604051632474521560e21b8152600080516020612b5083398151915260048201523360248201526001600160a01b03909116906391d1485490604401602060405180830381865afa1580156117a9573d6000803e3d6000fd5b505050506040513d601f19601f820116820180604052508101906117cd91906124c7565b6117e95760405162461bcd60e51b81526004016103f5906124e4565b600081815260fc60205260409020600281015460ff161561184c5760405162461bcd60e51b815260206004820152601b60248201527f41756374696f6e20697320616c72656164792066696e6973686564000000000060448201526064016103f5565b80546004820180546001600160a01b03198316845560009091556001600160a01b039091169081156118f15760fd5460405163a9059cbb60e01b81526001600160a01b038481166004830152602482018490529091169063a9059cbb906044016020604051808303816000875af11580156118cb573d6000803e3d6000fd5b505050506040513d601f19601f820116820180604052508101906118ef91906124c7565b505b600084815260fc6020526040808220600201805460ff19166001179055516001600160a01b0384169186917f10ac9f0bb365b5d22d7bec500408692f23fdf83eadfec71615ef88b4c1134f0e9190a350505050565b60975460ff161561095d5760405162461bcd60e51b815260206004820152601060248201526f14185d5cd8589b194e881c185d5cd95960821b60448201526064016103f5565b60fb546040516d616464726573732e636f6e66696760901b602082015260009182916001600160a01b03909116906321f8a72190602e01604051602081830303815290604052805190602001206040518263ffffffff1660e01b81526004016119f791815260200190565b602060405180830381865afa158015611a14573d6000803e3d6000fd5b505050506040513d601f19601f82011682018060405250810190611a3891906126bb565b90506001600160a01b038116611a5157611f4091505090565b6000816001600160a01b031663bd02d0f5604051602001611a8b90721cda185c994b9c1c9a5b585c9e505c9d1a5cdd606a1b815260130190565b604051602081830303815290604052805190602001206040518263ffffffff1660e01b8152600401611abf91815260200190565b602060405180830381865afa158015611adc573d6000803e3d6000fd5b505050506040513d601f19601f82011682018060405250810190611b009190612a7f565b90508015611b0e5780611b12565b611f405b9250505090565b60fb54604051632474521560e21b8152600060048201523360248201526001600160a01b03909116906391d1485490604401602060405180830381865afa158015611b68573d6000803e3d6000fd5b505050506040513d601f19601f82011682018060405250810190611b8c91906124c7565b6108b65760405162461bcd60e51b81526004016103f5906124e4565b7f4910fdfa16fed3260ed0e7147f7cc6da11a60208b5b9406d12a635614ffd91435460ff1615611bdb57610aa583611df8565b826001600160a01b03166352d1902d6040518163ffffffff1660e01b8152600401602060405180830381865afa925050508015611c35575060408051601f3d908101601f19168201909252611c3291810190612a7f565b60015b611c985760405162461bcd60e51b815260206004820152602e60248201527f45524331393637557067726164653a206e657720696d706c656d656e7461746960448201526d6f6e206973206e6f74205555505360901b60648201526084016103f5565b600080516020612b098339815191528114611d075760405162461bcd60e51b815260206004820152602960248201527f45524331393637557067726164653a20756e737570706f727465642070726f786044820152681a58589b195555525160ba1b60648201526084016103f5565b50610aa5838383611e94565b611d1b611eb9565b6097805460ff191690557f5db9ee0a495bf2e6ff9c91a7834c1ba4fdd244a5e8aa4e537bd38aeae4b073aa335b6040516001600160a01b03909116815260200160405180910390a1565b600054610100900460ff16611d8c5760405162461bcd60e51b81526004016103f590612a98565b61095d611f02565b600054610100900460ff1661095d5760405162461bcd60e51b81526004016103f590612a98565b611dc3611946565b6097805460ff191660011790557f62e78cea01bee320cd4e420270b5ea74000d11b0c9f74754ebdbfc544b05a258611d483390565b6001600160a01b0381163b611e655760405162461bcd60e51b815260206004820152602d60248201527f455243313936373a206e657720696d706c656d656e746174696f6e206973206e60448201526c1bdd08184818dbdb9d1c9858dd609a1b60648201526084016103f5565b600080516020612b0983398151915280546001600160a01b0319166001600160a01b0392909216919091179055565b611e9d83611f35565b600082511180611eaa5750805b15610aa5576104418383611f75565b60975460ff1661095d5760405162461bcd60e51b815260206004820152601460248201527314185d5cd8589b194e881b9bdd081c185d5cd95960621b60448201526064016103f5565b600054610100900460ff16611f295760405162461bcd60e51b81526004016103f590612a98565b6097805460ff19169055565b611f3e81611df8565b6040516001600160a01b038216907fbc7cd75a20ee27fd9adebab32041f755214dbc6bffa90cc0225b39da2e5c2d3b90600090a250565b60606001600160a01b0383163b611fdd5760405162461bcd60e51b815260206004820152602660248201527f416464726573733a2064656c65676174652063616c6c20746f206e6f6e2d636f6044820152651b9d1c9858dd60d21b60648201526084016103f5565b600080846001600160a01b031684604051611ff89190612ae3565b600060405180830381855af49150503d8060008114612033576040519150601f19603f3d011682016040523d82523d6000602084013e612038565b606091505b50915091506120608282604051806060016040528060278152602001612b2960279139612069565b95945050505050565b606083156120785750816120a2565b8251156120885782518084602001fd5b8160405162461bcd60e51b81526004016103f59190612af5565b9392505050565b600080602083850312156120bc57600080fd5b823567ffffffffffffffff808211156120d457600080fd5b818501915085601f8301126120e857600080fd5b8135818111156120f757600080fd5b8660208260051b850101111561210c57600080fd5b60209290920196919550909350505050565b60006020828403121561213057600080fd5b5035919050565b6001600160a01b03811681146108b657600080fd5b60006020828403121561215e57600080fd5b81356120a281612137565b6000806040838503121561217c57600080fd5b823561218781612137565b9150602083013561219781612137565b809150509250929050565b634e487b7160e01b600052604160045260246000fd5b600080604083850312156121cb57600080fd5b82356121d681612137565b9150602083013567ffffffffffffffff808211156121f357600080fd5b818501915085601f83011261220757600080fd5b813581811115612219576122196121a2565b604051601f8201601f19908116603f01168101908382118183101715612241576122416121a2565b8160405282815288602084870101111561225a57600080fd5b8260208601602083013760006020848301015280955050505050509250929050565b60005b8381101561229757818101518382015260200161227f565b838111156104415750506000910152565b600081518084526122c081602086016020860161227c565b601f01601f19169290920160200192915050565b6001600160a01b038b811682528a16602082015263ffffffff898116604083015288811660608301528716608082015285151560a082015260c0810185905260e081018490526101008101839052610140610120820181905260009061233c838201856122a8565b9d9c50505050505050505050505050565b6000806040838503121561236057600080fd5b50508035926020909101359150565b60006020828403121561238157600080fd5b813567ffffffffffffffff81111561239857600080fd5b820161014081850312156120a257600080fd5b602081526123c56020820183516001600160a01b03169052565b600060208301516123e160408401826001600160a01b03169052565b50604083015163ffffffff8116606084015250606083015163ffffffff8116608084015250608083015163ffffffff811660a08401525060a083015180151560c08401525060c083015160e0838101919091528301516101008084019190915283015161012080840191909152830151610140808401526124666101608401826122a8565b949350505050565b63ffffffff811681146108b657600080fd5b60008060006060848603121561249557600080fd5b833592506020840135915060408401356124ae8161246e565b809150509250925092565b80151581146108b657600080fd5b6000602082840312156124d957600080fd5b81516120a2816124b9565b60208082526010908201526f41646d696e2063616c6c73206f6e6c7960801b604082015260600190565b634e487b7160e01b600052603260045260246000fd5b6000823561013e1983360301811261253b57600080fd5b9190910192915050565b634e487b7160e01b600052601160045260246000fd5b60006001820161256d5761256d612545565b5060010190565b60208082526017908201527f41756374696f6e20616c726561647920736574746c6564000000000000000000604082015260600190565b600181811c908216806125bf57607f821691505b6020821081036125df57634e487b7160e01b600052602260045260246000fd5b50919050565b60018060a01b03831681526000602060408184015260008454612607816125ab565b8060408701526060600180841660008114612629576001811461263d5761266b565b60ff1985168984015260808901955061266b565b896000528660002060005b858110156126635781548b8201860152908301908801612648565b8a0184019650505b50939998505050505050505050565b600081600019048311821515161561269457612694612545565b500290565b6000826126b657634e487b7160e01b600052601260045260246000fd5b500490565b6000602082840312156126cd57600080fd5b81516120a281612137565b6000828210156126ea576126ea612545565b500390565b6020808252602c908201527f46756e6374696f6e206d7573742062652063616c6c6564207468726f7567682060408201526b19195b1959d85d1958d85b1b60a21b606082015260800190565b6020808252602c908201527f46756e6374696f6e206d7573742062652063616c6c6564207468726f7567682060408201526b6163746976652070726f787960a01b606082015260800190565b6000821982111561279a5761279a612545565b500190565b6000602082840312156127b157600080fd5b81356120a28161246e565b600081356127c981612137565b92915050565b600081356127c98161246e565b600081356127c9816124b9565b6000808335601e1984360301811261280057600080fd5b83018035915067ffffffffffffffff82111561281b57600080fd5b60200191503681900382131561283057600080fd5b9250929050565b601f821115610aa557600081815260208120601f850160051c8101602086101561285e5750805b601f850160051c820191505b8181101561287d5782815560010161286a565b505050505050565b67ffffffffffffffff83111561289d5761289d6121a2565b6128b1836128ab83546125ab565b83612837565b6000601f8411600181146128e557600085156128cd5750838201355b600019600387901b1c1916600186901b17835561293f565b600083815260209020601f19861690835b8281101561291657868501358255602094850194600190920191016128f6565b50868210156129335760001960f88860031b161c19848701351681555b505060018560011b0183555b5050505050565b61296f612952836127bc565b82546001600160a01b0319166001600160a01b0391909116178255565b60018101612982612952602085016127bc565b6129b5612991604085016127cf565b82805463ffffffff60a01b191660a09290921b63ffffffff60a01b16919091179055565b6129e86129c4606085016127cf565b82805463ffffffff60c01b191660c09290921b63ffffffff60c01b16919091179055565b612a1b6129f7608085016127cf565b8280546001600160e01b031660e09290921b6001600160e01b031916919091179055565b50612a44612a2b60a084016127dc565b6002830160ff1981541660ff8315151681178255505050565b60c0820135600382015560e082013560048201556101008201356005820155612a716101208301836127e9565b610441818360068601612885565b600060208284031215612a9157600080fd5b5051919050565b6020808252602b908201527f496e697469616c697a61626c653a20636f6e7472616374206973206e6f74206960408201526a6e697469616c697a696e6760a81b606082015260800190565b6000825161253b81846020870161227c565b6020815260006120a260208301846122a856fe360894a13ba1a3210667c828492db98dca3e2076cc3735a920a3ca505d382bbc416464726573733a206c6f772d6c6576656c2064656c65676174652063616c6c206661696c6564e303cb88ace8c9e6ba216f1aecb44b3206dcab364c60512ffc6cbc920a1bf9d1a2646970667358221220ab15e2ef51a19e78111a6b1fba0a6bf8a82d13f63b6294f8aead8425011175cd64736f6c634300080e0033",
  "linkReferences": {},
  "deployedLinkReferences": {}
}